:020000040800F2
:10000000604100209D010008B52100084D1B00083B
:100010005120000859160008E135000800000000D2
:10002000000000000000000000000000D1270008D0
:100030004917000800000000E9210008C92A00084B
:10004000E5350008C1210008B7010008B701000824
:10005000B7010008ED210008B7010008B70100084A
:10006000B7010008B7010008B7010008B701000890
:10007000B7010008B7010008B7010008B701000880
:10008000B7010008B7010008B7010008B701000870
:10009000B7010008B7010008B7010008B701000860
:1000A000B7010008B7010008B7010008B701000850
:1000B000592E0008B7010008B7010008B701000871
:1000C000B7010008B7010008B7010008B701000830
:1000D000B70100085D2E0008B7010008B70100084D
:1000E000B7010008B7010008B7010008B701000810
:1000F000B7010008B7010008B7010008B701000800
:10010000B7010008B7010008B7010008B7010008EF
:10011000B7010008B7010008B7010008B7010008DF
:100120002117000835170008B7010008B7010008BB
:10013000B7010008B7010008B7010008B7010008BF
:10014000B7010008B7010008B7010008B7010008AF
:10015000B7010008B7010008B7010008B70100089F
:10016000B7010008B7010008B7010008B70100088F
:10017000B7010008B7010008B7010008000000003F
:10018000A91A0008B7010008DFF80CD000F0B8FA8F
:100190000048004745360008604100200648804777
:1001A00006480047FEE7FEE7FEE7FEE7FEE7FEE75C
:1001B000FEE7FEE7FEE7FEE7012E000889010008E2
:1001C0002DE9F05F0546002092469B46884606468C
:1001D000814640241BE0284641464746224600F01F
:1001E0006DF953465A46C01A914110D3114618462C
:1001F000224600F054F92D1A67EB01084F462246BB
:100200000120002100F04BF917EB00094E41201EA0
:10021000A4F10104DFDC484631462A464346BDE8E6
:10022000F09FD2B201E000F8012B491EFBD27047CB
:100230000022F6E710B513460A4604461946FFF7B2
:10024000F0FF204610BD2DE9FE4F804681EA0300F5
:10025000C00F0C46009021F0004123F00045B8EBA0
:100260000200A94105D24046214690461C460B4655
:10027000024623F00040104347D0270DC7F30A0081
:10028000C3F30A510290401A019040286BDAC3F37D
:10029000130040F4801B0098924620B10023D2EB5B
:1002A000030A63EB0B0B01985946C0F1400250461C
:1002B00000F0F5F806460D4650465946019A00F002
:1002C0000DF910EB08006141002487EA115284EA1D
:1002D000E7731A4340D0009A62B3019A012A4FEAA9
:1002E000075215DC001B61EB02014FF0004202EAED
:1002F0000752CDE90042001C41F5801132462B46E1
:1003000000F00DF903B0BDE8F08F40462146F9E753
:10031000001B61EB0201001C41F5801300185B41DA
:100320002018A2F5001747EB030140EAD570B61973
:100330006D4111E06D084FEA360645EAC0754FEA97
:100340000752001B61EB0201001C41F580114908B6
:100350004FEA30000019514132462B4603B0BDE848
:10036000F04F00F0CDB80098012240000023D0EB00
:10037000020263EBE073009821464FEAE074B8EBA9
:10038000000061EB0401E9E783F000435BE781F0E3
:10039000004158E72DE9F04D81EA030404F0004BD9
:1003A00021F0004514464FF0000A23F0004150EAC6
:1003B000050220D054EA01021DD0C5F30A570246B7
:1003C000C5F31303C1F31300C1F30A5640F48015BB
:1003D00043F48013A7EB0608101BD64608F2FD383D
:1003E00073EB050002D308F1010801E092185B41AC
:1003F000B8F1000F03DA00200146BDE8F08D0020BF
:100400004FF48011064684460EE0171B73EB050778
:1004100005D3121B63EB050306434CEA010C4908A4
:100420004FEA300092185B4150EA0107EDD152EAE1
:10043000030012D082EA040083EA0501084305D0D4
:10044000101BAB4106D20122002306E000224FF030
:10045000004302E06FF0010253101AEB06004CEB70
:10046000085110EB0A0041EB0B01BDE8F04D00F024
:1004700047B830B50B46014600202022012409E090
:1004800021FA02F59D4205D303FA02F5491B04FA4D
:1004900002F52844151EA2F10102F1DC30BD202A2C
:1004A00004DB203A00FA02F1002070479140C2F1CB
:1004B000200320FA03F3194390407047202A04DBFD
:1004C000203A21FA02F00021704721FA02F3D040CD
:1004D000C2F120029140084319467047202A06DBEA
:1004E000CB17203A41FA02F043EAE07306E041FA02
:1004F00002F3D040C2F120029140084319467047F0
:1005000010B5141E73F1000408DA401C41F100011B
:1005100092185B411A4301D120F0010010BD2DE972
:10052000F04D92469B4611B1B1FA81F202E0B0FA69
:1005300080F220329046FFF7B2FF04460F4640EAB1
:100540000A0041EA0B0153465A46084313D01146AC
:1005500053EA010019D0C8F140025046FFF7AEFF40
:1005600005460E46504659464246FFF798FF084357
:1005700005D0012004E020463946BDE8F08D00207A
:10058000054346EAE0762C4337430A986305E40ABC
:10059000A0EB08000022FD0A44EA47540A3002D5C5
:1005A00000200146E9E7010510196941DDE9084528
:1005B00000196941BDE8F04DA2E72DE9FE4F81EA3F
:1005C000030404F0004421F0004100944FF0000BBC
:1005D00023F0004350EA01045ED052EA03045BD0EA
:1005E000C3F30A54C1F30A552C44A4F2F334019422
:1005F000A0FB0254C1F3130141F48011C3F31303B0
:1006000043F4801301FB024400FB034E840A970A63
:1006100044EA815447EA8357A4FB076802958D0A90
:1006200005FB07854FEA932C04FB0C542705029D1C
:100630004FEA065847EA1637B5EB08056EEB070C8C
:10064000870E920E47EA811742EA8312A7FB020146
:10065000B6EB0B0164EB00042B0D43EA0C335E1880
:1006600044EB1C50DA465146E7FB0201C5F3130484
:100670004FEA0B3343EA14534FEA0432019C43EA36
:100680000603A4F10C040294009CCDE900B4FFF72A
:1006900046FF03B0BDE8F08F00200146F9E7C1F343
:1006A0000A52C1F3130140F2FF3341F480119A4220
:1006B00002DA00200146704740F233439A42A2F228
:1006C000334202DC5242FFF7F9BEFFF7E8BE0000FA
:1006D00030B5041E71F1000404DB4FF000444042C9
:1006E00064EB0101141E73F1000405DB1C464FF09E
:1006F0000043524263EB0403994208BF904230BD6D
:10070000064C074D06E0E06840F0010394E807005E
:1007100098471034AC42F6D3FFF73AFDF04000089A
:100720001041000880B582B0DDF810C0CDF800C0DF
:1007300000F0F4FB02B080BD80B582B0DDF810C0DF
:10074000CDF800C0FFF7EEFF02B080BDF0B581B07C
:10075000054640F21C000C46C2F200000668304616
:1007600000F092F950B1304600F01AFA0746D6F878
:1007700058018047002FC6F804010DD1D6F8580162
:10078000804748B1D6F8580180472846214601B035
:10079000BDE8F04000F04CBC012001B0F0BD00000D
:1007A0002DE9F04F81B00D4611F0700F044618BFCF
:1007B0002D09407D012808D002280DD14FF01408E2
:1007C0004FF4967B4FF4FA690CE04FF00A084FF4AF
:1007D000167B4FF4FA6905E04FF00A084FF0000964
:1007E0004FF0000B6019C078012840F0BE80204611
:1007F0000021002700F090FD04EB450A29465646EB
:1008000036F82E0F0028204618BF378000F010FC65
:1008100004EB85075846009757F8A01F494504D8B0
:10082000B8EB010038BFA1EB080030802046012161
:1008300000F072FD5646294636F83E0F00281CBFD0
:1008400000203080204600F0F3FB396858464945C7
:1008500004D8B8EB010038BFA1EB08003080204677
:10086000022100F059FD5646294636F84E0F002861
:100870001CBF00203080204600F0DAFB3968584663
:10088000494504D8B8EB010038BFA1EB080030801F
:100890002046032100F040FD5646294636F85E0FFB
:1008A00000281CBF00203080204600F0C1FB3968C2
:1008B0005846494504D8B8EB010038BFA1EB080001
:1008C00030802046042100F027FD5646294636F8A0
:1008D0006E0F00281CBF00203080204600F0A8FBCF
:1008E00039685846494504D8B8EB010038BFA1EB38
:1008F000080030802046052100F00EFD56462946AE
:1009000036F87E0F00281CBF00203080204600F003
:100910008FFB39685846494504D8B8EB010038BF09
:10092000A1EB080030802046062100F0F5FC3AF8E3
:100930008E0F294600281CBF0020AAF80000204680
:1009400000F076FB3868484504D8B8EB000B38BF98
:10095000A0EB080B20460021AAF800B0002500F00B
:10096000DBFC00983D60C0F8E050002001B0BDE81D
:10097000F08F0000F0B581B0054680780C46013854
:1009800005280FD8DFE800F00319242F3A4505EBBE
:1009900044004FF0000C00F13E0242F2A050C0F2C1
:1009A000260040E005EB44004FF0000C00F12E0261
:1009B00044F64030C0F24C0035E005EB44004FF007
:1009C000000C00F14E0241F2D020C0F213002AE0E8
:1009D00005EB44004FF0000C00F15E0248F6681091
:1009E000C0F209001FE005EB44004FF0000C00F1DD
:1009F0006E024EF2DC70C0F2040014E005EB44001D
:100A00004FF0000C00F17E0246F25A20C0F20200C4
:100A100009E005EB44004FF0000C00F18E0243F2B8
:100A20002D10C0F20100168805EB44032A19DE835D
:100A3000D178002904BF0026DE83517BC1B1697DD6
:100A4000B1B105EB840100230027D1F8E010A0FB31
:100A500001020CFB01214FF6FF72C0F27F02FFF78B
:100A6000AFFB321A77EB01012CBF301A801B04E078
:100A7000002005EB8401C1F8E00005EB8401C1F81A
:100A8000A000002001B0F0BD2DE9F04381B0044684
:100A900000208DF803002070204600F07DFD28BB6B
:100AA000D4F8340140F230070022C2F200070028D7
:100AB0001EBFD4F838110904816120463B68132118
:100AC00098473B6805462046002100229847D4F805
:100AD000541106460A2088473B680DF10302204660
:100AE000FF2146EA4505984740EA4500D4F834110D
:100AF000012600291CBFD4F838218A6100064FF076
:100B0000010048D194F802019DF80310884241D1B8
:100B10002046651C00F040FD38BBD4F8340140F29B
:100B200030090022C2F2000900281EBFD4F8381193
:100B3000090481612046D9F8003010219847D9F87E
:100B4000003080462046002100229847D4F85411F6
:100B500007460A208847D9F800302046FF212A4658
:100B600047EA4807984740EA4700D4F8341100297B
:100B70001CBFD4F838218A61297800064FF00300A1
:100B80004FEA1111297008BF032904D1002001B0D8
:100B9000BDE8F0830220267001B0BDE8F0830000BC
:100BA0002DE9F0410446D0F8140118B1204600F0B8
:100BB0005DF902E0204600F08DFC00281EBF0120F8
:100BC000C0B2BDE8F081B02084F80201204600F0F8
:100BD000E3FCD0B9D4F8340140F230050022C2F26F
:100BE000000500281EBFD4F8381109048161204691
:100BF0002B68532198472B682046002100229847F4
:100C00002B682046B02100229847D4F834010028F0
:100C10001CBFD4F8381181612046FFF735FF00284A
:100C20001EBF0220C0B2BDE8F0812046002100F0C6
:100C300073FB00281EBF0320C0B2BDE8F081204630
:100C4000002100F079FA2046102100F075FA2046C4
:100C5000202100F071FA2046302100F06DFA204684
:100C60000021FFF79DFD20461021FFF799FD20464A
:100C70002021FFF795FD20463021FFF791FD20460A
:100C8000651C00F089FC38BBD4F8340140F2300810
:100C90000022C2F2000800281EBFD4F8381109044F
:100CA00081612046D8F8003010219847D8F80030EC
:100CB00006462046002100229847D4F854110746E2
:100CC0000A208847D8F800302046FF212A4647EA04
:100CD0004606984740EA4600D4F8341100291CBF64
:100CE000D4F838218A6129780A092A700322B2EBE4
:100CF000111F18BF0120C0B2BDE8F081F0B587B068
:100D000000250446082001210127C4F20205C4E998
:100D10004350284600F09AFD00260222C4E94567A8
:100D2000D4E943010696CDE904670392CDE90116A3
:100D300001A900F031FFD4E943018161D4F8140125
:100D400048B1D4F81811CDE9011701A900F024FF2A
:100D5000D4E9450181611020202140228027C4F878
:100D60000760C4F803600523C4E94757C4E9495242
:100D7000C4E94B51C4E94D50A5F55040C4E9533680
:100D8000C4F83C01002000BF221804EB800304EBF0
:100D900040010430082856735675C3F8E060C3F864
:100DA000C060C3F8A060A1F88E60A1F87E60A1F8D1
:100DB0006E60A1F85E60A1F84E60CE87CE85CE83CE
:100DC00096739675C3F8E460C3F8C460C3F8A46072
:100DD000A1F89060A1F88060A1F87060A1F860604F
:100DE000A1F85060A1F840600E860E84D673D675C7
:100DF000C3F8E860C3F8C860C3F8A860A1F89260BF
:100E0000A1F88260A1F87260A1F86260A1F8526056
:100E1000A1F842604E864E8416741676C3F8EC60D4
:100E2000C3F8CC60C3F8AC60A1F89460A1F884600A
:100E3000A1F87460A1F86460A1F85460A1F844605E
:100E40008E868E84A0D100200121A070A4F84411C8
:100E5000F02184F8021120804FF48070A4F8410141
:100E600007B0F0BD00F58E7001F014BAF0B581B096
:100E7000044600208DF80300D4F8141100294BD04B
:100E8000D4F81801000488610120D4F808118847BB
:100E9000D4E9450181610120D4F808118847204632
:100EA00000F07AFB28BBD4F8340140F2300700226E
:100EB000C2F2000700281EBFD4F83811090481616E
:100EC00020463B68132198473B6805462046002191
:100ED00000229847D4F8541106460A2088473B68F8
:100EE0000DF103022046FF2146EA4505984740EAF6
:100EF0004500D4F8341100291CBFD4F838218A6188
:100F000000064FF0010007D19DF80310F02902BF41
:100F1000F02084F80201002001B0F0BD2DE9F0417D
:100F200088B0F8B1044640F21C00C2F2000000682C
:100F3000A04217D10E9D2046984616460F46FFF751
:100F4000DDFE9DB1012004F58E7584F84001284630
:100F500001F07AF9284601F079F994F84101E8B1F5
:100F6000022020E0012008B0BDE8F081002004F557
:100F70008E7584F84001284601F066F9284601F094
:100F80008BF9D4E94B0194F84121002A08BF0904E8
:100F9000816141F23110C0F6000021E0D4E94B013B
:100FA00009048161002094F8421100234FF400727B
:100FB0004FF0070C4FF0380E002918BF01218DE8C3
:100FC0000740CDE9043328464FF482720023CDF860
:100FD00018C0002101F03CF940F66560C0F6000041
:100FE00040F23001002FC2F20001086041F611000A
:100FF000C0F6000018BF3846C4E95508002E41F677
:101000000D00C0F6000018BF3046C4F80801C04704
:10101000C4F80401B4F84401002804BF0120A4F876
:101020004401204608B0BDE8F041FFF7B9BD00001B
:10103000F0B581B00446002007298DF80200ADF814
:1010400000006DD86018407D022805D0012869D1C4
:10105000204600F0D9F902E0204600F06DF894F83F
:101060000201E17A3228217304D8D4F80811C0F5BE
:1010700080708847D4F8340140F2300700220026FF
:10108000C2F2000700281EBFD4F83811090481619C
:1010900020463B68FC2198473B68204600210022FF
:1010A00098473B682046012100229847D4F8541104
:1010B0000A2088476D463B682046FF212A4698470C
:1010C0003B686A1C2046FF2198473B68AA1C2046C3
:1010D000FF2198479DF800009DF80130217B9DF885
:1010E000027043EA002004EB810247EA002042F844
:1010F000E00F601800F80D6F1368B3F5000F31BFF3
:101100000222C3F180731360012202702046FFF7B0
:1011100031FCD4F8340140B1D4F838118161002099
:1011200001B0F0BD012001B0F0BD002001B0F0BD64
:1011300000F58E7001F0B2B870B511F0700F18BFE5
:101140000909072984BF022070BD0446DFE801F0C9
:1011500004315E8B04315E8B204600F01DFAF8B935
:10116000D4F8340140F230060022C2F20006002812
:101170001EBFD4F83811090481612046336851211B
:101180009847336805462046002100229847336877
:1011900040EA4505204601210022984740EA4500E3
:1011A000D4F83411002500291CBFD4F838218A61F5
:1011B00085E0204600F0F0F9F8B9D4F8340140F2A7
:1011C00030060022C2F2000600281EBFD4F83811F3
:1011D00009048161204633685121984733680546E8
:1011E0002046002100229847336840EA4505204602
:1011F00023210022984740EA4500D4F83411022503
:1012000000291CBFD4F838218A6158E0204600F03C
:10121000C3F9F8B9D4F8340140F230060022C2F222
:10122000000600281EBFD4F8381109048161204649
:101230003368512198473368054620460021002233
:101240009847336840EA45052046452100229847E3
:1012500040EA4500D4F83411042500291CBFD4F815
:1012600038218A612BE0204600F096F9F8B9D4F8CD
:10127000340140F230060022C2F2000600281EBFF0
:10128000D4F8381109048161204633685121984708
:10129000336805462046002100229847336840EA1B
:1012A0004505204667210022984740EA4500D4F8CA
:1012B0003411062500291CBFD4F838218A610006A4
:1012C0001CBF032070BD204600F066F980B9D4F839
:1012D0003401002200281EBFD4F8381109048161AE
:1012E00040F23000C2F20000F02103682046984727
:1012F000D4F8340100281CBFD4F83811816120468D
:1013000000F04AF96908022245F00103E17204F194
:1013100015014A55CA5470BD2DE9F04182B004460A
:1013200000200D468DF80700204600F035F940BB3F
:10133000D4F8340140F230080022C2F2000800283C
:101340001EBFD4F83811090481612046D8F8003056
:1013500012219847D8F80030064620460021002286
:101360009847D4F8541107460A208847D8F8003027
:101370000DF107022046FF2147EA4606984740EA5A
:101380004600D4F8341100291CBFD4F838218A61F2
:10139000010635D19DF8070000F0780040EA050607
:1013A00005F007008DF80760A070204600F0F4F803
:1013B000F8B9D4F8340140F230070022C2F2000735
:1013C00000281EBFD4F838110904816120463B680B
:1013D000522198473B680546204600210022984745
:1013E0003B6840EA4505204631460022984740EADE
:1013F0004500D4F8341100291CBFD4F838218A6183
:10140000C0B202B0BDE8F0812DE9F0410C4611F008
:10141000700F18BF2409072C84BF0220BDE8F0819B
:10142000054600F0B9F818BB200140F23007002251
:1014300000F10808D5F83401C2F2000700281EBFE9
:10144000D5F838110904816128463B685121984735
:101450003B68064628460021002298473B6840EA40
:1014600046065FFA88F128460022984740EA46007F
:10147000D5F8341100291CBFD5F838218A6100063F
:101480001CBF0320BDE8F081284600F085F880B934
:10149000D5F83401002200281EBFD5F83811090400
:1014A000816140F23000C2F20000F021036828465A
:1014B0009847D5F8340100281CBFD5F83811816150
:1014C000284600F069F829190122EC724A75BDE836
:1014D000F0810000F0B581B0044600208DF80300D3
:1014E000204600F059F880B9D4F8340100220028D1
:1014F0001EBFD4F838110904816140F23000C2F2F5
:101500000000FE21036820469847D4F834110029D2
:101510001CBFD4F838218A61E0BB204600F03CF8BB
:1015200028BBD4F8340140F230070022C2F2000791
:1015300000281EBFD4F838110904816120463B6899
:10154000132198473B680546204600210022984712
:10155000D4F8541106460A2088473B680DF103026F
:101560002046FF2146EA4505984740EA4500D4F861
:10157000341100291CBFD4F838218A6100064FF0CD
:10158000010007D19DF80310F02902BFF02084F874
:101590000201002001B0F0BDF0B581B0D0F85811C3
:1015A000044611B18847054600E00025D4F80C1127
:1015B00039B1D4F8102108691040904204D10020BC
:1015C0001DE0052001B0F0BD41F680276E420020ED
:1015D000C0F20607D4F8583153B198473146A842B3
:1015E00038BFE943014464292AD8D4E9431202E010
:1015F0000130B8422AD80B6913409342EAD10B69F3
:101600001340934219D141F680276E42C0F206077B
:10161000D4F8583153B198473146A84238BFE9430E
:10162000014464290FD8D4E9431202E00130B842E2
:101630000FD80B6913409342EAD0002001B0F0BDEF
:10164000012001B0F0BD032001B0F0BD022001B0C7
:10165000F0BD042001B0F0BDFEE7000000F006B8C8
:1016600000F00AB8FFF7FABFFFF7FABF40F2040034
:10167000C2F200000078704710B582B043F6300423
:10168000C4F20204A4F5036000F072FA40F2040010
:101690000121C2F200000170216841F480512160F3
:1016A000216801F48051019101990021017002B07B
:1016B00010BD000000F006B800F01CB8FFF7FABF3C
:1016C000FFF7FABF43F60C00C4F2020001680906F6
:1016D00058BF704750F80C1C41F4803140F80C1C86
:1016E000016841F400610160016841F4000101609A
:1016F0007047000043F60C00C4F2020001680907BD
:1017000058BF704780B5016821F40061016001682D
:1017100041F40021016001F093FF01F06DFF000032
:1017200046F20040C4F202000168890648BF006921
:101730007047000046F20040C4F2020001688906CA
:1017400048BF806A704700007047000000F002B890
:10175000FFF7FCBF1020C4F20000016889070FD515
:1017600040F21822416AC2F20002116040F22821C0
:10177000C2F200010A7801320A706FF002010160C2
:10178000016849070FD540F21822816AC2F20002AF
:10179000516040F22821C2F200014A7801324A70B9
:1017A0006FF004010160016809070FD540F21822AB
:1017B000C16AC2F20002916040F22821C2F2000127
:1017C0008A7801328A706FF0080101600168C906E9
:1017D00058BF704740F21822016BC2F20002D1607C
:1017E00040F22821C2F20001CA780132CA706FF0BB
:1017F000100101607047000000F00CB8AFF30080EA
:10180000002818BF01F0BCB870470000FFF7F4BF14
:10181000FFF7F4BF10B5002808BF10BD044601F063
:10182000A5F848B14FF47A7001F0AAF8013C00F035
:1018300093F9002CF6D110BD2046BDE8104001F010
:1018400097B8000000F006B800F0BEB8FFF7FABF86
:10185000FFF7FABF81B000F13E4000F1FF704FEAA0
:10186000B020082800F2AE80DFE800F00513212F39
:101870003D4B5967750043F630000029C4F2020061
:101880007AD0016841F001010160006800F00100B8
:101890006EE043F630000029C4F2020070D0016807
:1018A00041F002010160006800F0020060E043F6D0
:1018B00030000029C4F2020066D0016841F0040142
:1018C0000160006800F0040052E043F63000002997
:1018D000C4F202005CD0016841F0080101600068B8
:1018E00000F0080044E043F630000029C4F2020092
:1018F00052D0016841F010010160006800F0100052
:1019000036E043F630000029C4F2020048D00168F6
:1019100041F020010160006800F0200028E043F65B
:1019200030000029C4F202003ED0016841F04001BD
:101930000160006800F040001AE043F63000002922
:10194000C4F2020034D0016841F0800101600068F7
:1019500000F080000CE043F630000029C4F20200E1
:101960002CD0016841F480710160006800F480703F
:101970000090009801B07047016821F001011AE061
:10198000016821F0020116E0016821F0040112E073
:10199000016821F008010EE0016821F010010AE061
:1019A000016821F0200106E0016821F0400102E019
:1019B000016821F08001016001B07047016821F4E5
:1019C0008071016001B0704781B043F63000C4F20D
:1019D0000200016841F001010160016801F00101AC
:1019E00000910099016841F002010160016801F075
:1019F000020100910099016841F004010160016851
:101A000001F0040100910099016841F008010160B2
:101A1000016801F0080100910099016841F010018E
:101A20000160016801F0100100910099016841F026
:101A300020010160016801F0200100910099016816
:101A400041F040010160016801F0400100910099FE
:101A5000016841F080010160016801F0800100919E
:101A60000099016841F480710160016801F480719E
:101A700000910099416941F480414161406900F45D
:101A800080400090009801B07047000040F22C00A8
:101A900043F25C11C2F20000C2F2000100780A6851
:101AA000104408607047000040F60400C5F20600CC
:101AB000016849060ED56FF04001016050F8041C22
:101AC00021F0040140F8041C50F8041C41F004010A
:101AD00040F8041C0168890644BF6FF020010160D2
:101AE0000168C90708BF704740F22C214068C2F264
:101AF00000010860704700001EF0040F0CBFEFF3F8
:101B00000880EFF3098000F001B8704740F23021FF
:101B10000022C2F20001C1E90022C1E90222C1E9AA
:101B20000422C1E9062202680A6042684A608268AB
:101B30008A60C268CA6002690A6142694A61826950
:101B40008A61C069C86101BE70470000FFF7D4FF19
:101B5000FEE7000000F002B8FFF7FCBF43F2000010
:101B60004AF6AA21C4F2000001600020704700007C
:101B700043F61001C4F20201A1F5016290421CBFBC
:101B800000207047086840F480500860086820F41E
:101B900080500860012070472DE9F04F0C6894FADE
:101BA000A4F2B2FA82F234FA02F352D04FF00108F2
:101BB0004FF0030C4FF00F0E08FA02F314EA030B78
:101BC00042D09BFAABFA4F680668BAFA8AF94FEA34
:101BD00049030CFA03F507FA03F4AE43ED4334432B
:101BE00004607C1E012C05D88C6886689C402E40C1
:101BF000344384600C69022F04FA03F3C46804EAD6
:101C0000050443EA0403C3601ED14B69BAF1807F27
:101C10000AD34FEA8904056AA3400EFA04F425EAC0
:101C20000404234303620FE04FEA1B24456A94FA3D
:101C3000A4F4B4FA84F4A400A3400EFA04F425EA50
:101C400004042343436200BF0C68013234FA02F3F8
:101C5000B2D14A68013A012A05D8C968426861438D
:101C6000A243114341600120BDE8F08F80B543F6E7
:101C7000040EC4F2020EDEF8042002F00C0342F25D
:101C80000042C0F2F402082B06D0042B22D141F20C
:101C90000022C0F27A021DE0DEF800305B0241F261
:101CA0000023C0F27A0358BF1346DEF8002002F08A
:101CB0003F02B3FBF2F2DEF80030C3F3881303FBFC
:101CC00002FCDEF800300222C3F3014302EB4302C0
:101CD000BCFBF2F2026044F2B801DEF80430C0F658
:101CE0000001C3F30313C95C44F2C803C0F6000348
:101CF00022FA01F14160DEF80420C2F382229A5CEC
:101D000021FA02F28260DEF80420C2F342329A5CC9
:101D1000D140C16080BD000043F60001C4F2000163
:101D200088421BD043F60041C4F20001884221D012
:101D300043F20001C4F2010188421CBF0020704739
:101D400043F62000C4F20200416841F48051416032
:101D5000416821F4805141600120704743F6200022
:101D6000C4F20200016841F480410160016821F47D
:101D700080410AE043F62000C4F20200016841F409
:101D800000410160016821F40041016001207047B9
:101D9000026852062FD42DE9F04102684FF6BF7356
:101DA00001F1100822EA030CD1E90032D1E902E482
:101DB00098E8E00143EA0C031A430B6A42EA0E0278
:101DC0002243B3F5005F42EA050242EA060242EA14
:101DD000070242EA080242EA03020260426822F075
:101DE000040242EA16424260BDE8F04104BF898C19
:101DF0000161012100E00021C26922F40062C26198
:101E00000846704740F20001C2F2000108607047C6
:101E100044F6FF7201460020C4F2000291421DDC2C
:101E200044F20042C4F20002914236D044F600026D
:101E3000C4F2000291423CD044F60042C4F20002D7
:101E4000914251D143F62000C4F20200016841F4EE
:101E500000210160016821F4002135E045F2000213
:101E6000C4F20002914232D041F20042C4F20102B7
:101E700091423AD041F20002C4F20102914218BFED
:101E8000704743F62000C4F20200416841F010019F
:101E90004160416821F0100132E043F62000C4F2B5
:101EA0000200016841F400310160016821F4003151
:101EB0000AE043F62000C4F20200016841F48021E8
:101EC0000160016821F4802101600120704743F620
:101ED0002000C4F20200016841F480110160016831
:101EE00021F4801101600120704743F62000C4F204
:101EF0000200416841F020014160416821F0200169
:101F0000416001207047000070B584B00446C0688D
:101F1000800479D4E0680D4649F20C618843696811
:101F2000D5E90323AE6908431043184330436E4696
:101F3000E060A868216921F4405108432061686984
:101F4000616921F44071084360613046FFF78EFEFD
:101F500044F6FF710020C4F200018C4212DC44F20E
:101F60000041C4F200018C4221D044F60001C4F2C9
:101F700000018C421BD044F60041C4F200018C42A7
:101F800015D062E045F20001C4F200018C420ED08F
:101F900041F20041C4F201018C4205D041F200013E
:101FA000C4F201018C4250D106F10C0001E006F1AF
:101FB0000800016841B3286830B319225143AA6967
:101FC000B2F5004F23D14000B1FBF0F048F21F51B1
:101FD000C5F2EB11A0FB01235A096FF0630302FB6A
:101FE0000300322303EBC0004FF4F873A0FB0101A0
:101FF000C1F3421003EA111101EB021189B2084446
:10200000A060012004B070BD002004B070BD80004D
:10201000B1FBF0F048F21F51C5F2EB11A0FB012318
:102020005A096FF0630302FB0300322303EB001035
:10203000F023A0FB0101C1F3431003EA511101EBAE
:10204000021189B20844A060012004B070BD0000F4
:10205000FEE7000010B540F208044FF42071C2F210
:102060000004E068FEF7E4F8A0684FF42051FEF7A2
:10207000DFF80120207410BD80B540F208004FF059
:10208000000E0022C2F20000D0F80CC00CEB0E03D0
:102090003CF80E100EF1400E5888002918BF01328E
:1020A000002818BF01329888002818BF0132D8884C
:1020B000002818BF01321889002818BF013258893A
:1020C000002818BF01329889002818BF0132D8892A
:1020D000002818BF0132188A002818BF0132588A18
:1020E000002818BF0132988A002818BF0132D88A08
:1020F000002818BF0132188B002818BF0132588BF6
:10210000002818BF0132988B002818BF0132D88BE5
:10211000002818BF0132188C002818BF0132588CD3
:10212000002818BF0132988C002818BF0132D88CC3
:10213000002818BF0132188D002818BF0132588DB1
:10214000002818BF0132988D002818BF0132D88DA1
:10215000002818BF0132188E002818BF0132588E8F
:10216000002818BF0132988E002818BF0132D88E7F
:10217000002818BF0132188F002818BF0132588F6D
:10218000002818BF0132988F002818BF0132D88F5D
:10219000002818BF0132BEF5207F7FF477AF64209E
:1021A0004CF6CD415043CCF6CC41A0FB0101C1F32C
:1021B000072080BDFFF782BA00F014B8FFF7FCBF1C
:1021C00043F614404FF48031C4F20100016047F23D
:1021D0000400C4F200000068400748BFFFF7EEBFEC
:1021E000704700007047000070470000FFF768BAB2
:1021F00000F056B800F0B8B880B588B0DDF840C03F
:10220000CDF818C0DDF83CC0CDF814C0DDF838C0FA
:10221000CDF810C0DDF834C0CDF80CC0DDF830C00A
:10222000CDF808C0DDF82CC0CDF804C0DDF828C01A
:10223000CDF800C000F0E0F808B080BD00F040B973
:1022400000F0A6B900F042BAFFF7D2BFFFF7D2BF45
:1022500080B588B0DDF840C0CDF818C0DDF83CC0CE
:10226000CDF814C0DDF838C0CDF810C0DDF834C0AA
:10227000CDF80CC0DDF830C0CDF808C0DDF82CC0BA
:10228000CDF804C0DDF828C0CDF800C0FFF7B4FFDA
:1022900008B080BDFFF7D2BFFFF7D2BFFFF7D2BFB4
:1022A000B0B586B00446006A70B3FFF735FD43F65B
:1022B0000001206AC4F20001884214D043F60041B4
:1022C000C4F20001884217D043F20001C4F20101B8
:1022D000884219D143F64000C4F20200416821F45B
:1022E0008051416010E043F64000C4F202000168F2
:1022F00021F48041016007E043F64000C4F202008F
:10230000016821F400410160E069002101226D466D
:1023100005910492CDE90211CDE900012946A06999
:10232000FFF73AFCD4E9040100912946FFF734FC99
:10233000D4E9000100912946FFF72EFCD4E90201FF
:1023400000912946FFF728FCD4E906018161D4E910
:1023500004018161D4E900018161D4E90201816154
:10236000002006B0B0BD0000B0B586B0044680695C
:1023700001210125FFF76AFA20690121FFF766FABA
:1023800020680121FFF762FAA0680121FFF75EFAD9
:10239000E06900210591CDE9031503210291CDE902
:1023A0000005A06928B16946FFF7F6FBD4E90601EC
:1023B0008161206B02216D4601910590D4E90401F1
:1023C00000912946FFF7E8FBD4E904018161D4E9D3
:1023D000000100912946FFF7DFFBD4E9000181618C
:1023E0002946E0680090A068FFF7D6FBD4E9020117
:1023F0008161002006B0B0BD10B58CB0044601A8C4
:102400000EC014980A901398099012980890119889
:102410000790109806900F9805900E980490206AE7
:10242000FFF77AFC43F60001206AC4F200018842FB
:1024300019D043F60041C4F20001884221D043F292
:102440000001C4F20101884228D143F64001C4F2E0
:1024500002014A6842F480524A60496801F480519E
:102460000B910B991AE043F64001C4F202010A688D
:1024700042F480420A60096801F480410B910B9993
:102480000CE043F64001C4F202010A6842F4004243
:102490000A60096801F400410B910B9901A9FFF74B
:1024A00077FC206A616B426822F0100211434160A0
:1024B000016841F04001016000200CB010BD000037
:1024C0002DE9F0478946C16B9046054611B1884712
:1024D000064600E00026286A8168890720D448F271
:1024E000A06A74420027C0F2010A00BFE96B69B11B
:1024F00088470746B042204638BFF0433844642836
:1025000084BF0220BDE8F087286A05E001375745FF
:1025100084BF0320BDE8F08781688907E6D500E025
:10252000002780F80C90E96B11B18847064600E05F
:102530000027286A8168C9071DD148F2A069744242
:10254000C0F20109E96B69B188470746B0422046ED
:1025500038BFF0433844642884BF0420BDE8F087C6
:10256000286A05E001374F4584BF0520BDE8F087A4
:102570008168C907E6D0B8F1000F04BF0020BDE8AC
:10258000F087C06888F800000020BDE8F0870000F0
:1025900070B586B00446806901210125FFF756F920
:1025A00020690121FFF752F920680121FFF74EF958
:1025B000A0680121FFF74AF9E0690026032105968A
:1025C000CDE903650291CDE900056D46A069294674
:1025D000FFF7E2FAD4E9040100912946FFF7DCFA9B
:1025E000D4E9000100912946FFF7D6FAD4E90201A7
:1025F000CDE900162946FFF7CFFAD4E9060181613B
:10260000D4E904018161D4E900018161D4E90201C6
:102610008161002006B070BD70B5044690F82500B9
:1026200015460E46012828D010B994F8260040B36C
:10263000D4E904018161208D08B1A16B884772B291
:10264000D4E90001B2F1FF3FC8BF0904002D816148
:1026500009D0D4E9020100690840884202BF287805
:1026600040F001002870D4E9040109048161208D43
:1026700050B3A16B8847002070BD94F82600012854
:10268000D6D1D4E9040109048161208D08B1A16B80
:10269000884772B2D4E90001B2F1FF3FC8BF090414
:1026A000002D816109D0D4E9020100690840884207
:1026B00002BF287840F001002870D4E9040181614C
:1026C000208D08B1A16B8847002070BD70B51546FC
:1026D0000E460446002A40D0002031462A46287083
:1026E0002046FFF799FF28782A464000287070009E
:1026F000C1B22046FFF790FF28782A464000287094
:10270000B000C1B22046FFF787FF28782A46400074
:102710002870F000C1B22046FFF77EFF28782A46D5
:10272000400028703001C1B22046FFF775FF2878BD
:102730002A46400028707001C1B22046FFF76CFFA6
:1027400028782A4640002870B001C1B22046FFF721
:1027500063FF28784000287028E0204631462A464A
:10276000FFF75AFF70002A46C1B22046FFF754FF18
:10277000B0002A46C1B22046FFF74EFFF0002A46BD
:10278000C1B22046FFF748FF30012A46C1B22046B9
:10279000FFF742FF70012A46C1B22046FFF73CFF17
:1027A000B0012A46C1B22046FFF736FFF0012A46A3
:1027B000C1B22046FFF730FF94F82500D4E9041297
:1027C00000284FF0000008BF12048A6170BD0000AD
:1027D0007047000000F00CB800F08EB810B5044649
:1027E000FFF7F8FF2046BDE81040FFF7F5BF0000F7
:1027F00010B5C26853428A4288BFD3435A18B2F513
:102800007A7F77D3837990F807E0C160017801314E
:102810000170C9B23D296DD30021017042780132A7
:102820004270D2B23D2A65D3417081780131817006
:10283000C9B219295ED300218170C2780479417927
:1028400002F1010C621CD4B280F803C0072C88BFCF
:1028500001220271022926D1642148F21F524FF44D
:10286000C8741EFB0131C5F2EB12643951FB02F250
:10287000D31103EBD27303FB1413541104EBD27284
:10288000642402FB1412002A18BF01224BB301F08A
:102890000301B1FA81F14909114022D15FFA8CF1AB
:1028A0001D2927D321E044F2D0025FFA8CF4C0F650
:1028B0000002525C94421DD900220131C270417164
:1028C000C9B20D2916D301214171591C8171C9B2B8
:1028D000652938BF10BD002181710EF10101C17160
:1028E00008E05FFA8CF11E2904D303214171002115
:1028F000C17010BD10BD0000017D012920D1018AE9
:1029000029B34179C27C91422EBFC27C01F10C02F5
:10291000C17C511AC278837C89B2C1EB011102EBF0
:102920004101028AC91A89B2914202D8028A8A42B6
:102930000DD180B50121017500F082FE00F06EFE20
:10294000017D022903D1C1784279C27481740020CB
:102950007047000000F016B800F03AB800F0ACB8CC
:1029600000F0B4B800F0D0B800F02AB9FFF7F2BF19
:10297000FFF7F2BFFFF7F2BFFFF7F2BFFFF7F2BFBB
:10298000FFF7F2BF4EF2100040F2000144F6D353BD
:10299000CEF20000C2F20001C1F262030268406898
:1029A0000968A1FB031352074FEA931109D44FF0B2
:1029B000FF3202EBD10188421CBF0120704700208A
:1029C0007047013988421CBF0120704700207047C2
:1029D0002DE9F04381B04EF2180440F200084DF6A4
:1029E0008369CEF20004C2F20008C4F21B392768E2
:1029F000D8F80010A1FB0912960CB7FBF6F10229DA
:102A000021D32368CF0854F8042C7C2F18D806FB58
:102A100001F700251E4600BF23689E4208D12368A7
:102A20009E4205D123689E4202D123689E42F3D084
:102A300035449E42A5EB030598BF1544BD42E9D33A
:102A4000C1F57577013840F22405C2F20005296806
:102A50004860486830B100BFFFF77EF828684068DA
:102A60000028F9D1B81E40F2E531884220D8D8F8C4
:102A7000000023680022A0FB0901880C54F8041C04
:102A8000784300BF1F4600BF23689F4208D12368D8
:102A90009F4205D123689F4202D123689F42F3D011
:102AA0003A449F42A2EB030298BF0A448242E9D310
:102AB000002001B0BDE8F08340F22400C2F2000023
:102AC0000068006870470000FFF756BF10B540F27D
:102AD0002404C2F200042068016801310160016829
:102AE00011B9816801318160016909B188472068A5
:102AF000C16809B188472068416800291EBF416844
:102B000001394160002010BD10B540F2240C0022B4
:102B100044F6D3504FF0FF3E4EF60C54C2F2000C78
:102B2000C1F26200CEF20004DCF800100A604A60D4
:102B3000C1E903228A604EF21001CEF200010B6857
:102B400023F002030B6040F20003C2F200031B6893
:102B5000A3FB00030EEB93134FF6FF004B608A605C
:102B600005220A600F222368184040F20033C0F2A9
:102B7000FA53184320602068C0F30220C31E80F07F
:102B8000070038BF0023042828BF04200EFA00F0F5
:102B900022EA000098400001E075086840F0020059
:102BA000086040F22C000121C2F20000017041F6E1
:102BB0008D21DCF80000C0F60001C160002010BDCE
:102BC00010B540F200014EF21804C208C2F2000132
:102BD000CEF200047C2AD1F800E0236854F804CC3B
:102BE00020D84DF68362C4F21B32AEFB0221890C61
:102BF000002201FB00FE00BF184600BF2368984278
:102C000008D12368984205D12368984202D12368ED
:102C10009842F3D081189842A1EB030298BF624416
:102C20007245E9D3002010BD10B543F60804052114
:102C3000C4F20204D4F8F80361F30300C4F8F80303
:102C4000D4F8F80300F00F00052803D065A0112187
:102C500000F0D0FC47F20000C4F20000016841F42B
:102C60008041016054F8081C41F4803144F8081C8C
:102C700054F8081C89035CBF54F8081C5FEA8131D2
:102C800007D454F8081C890303D454F8081C89039A
:102C9000EED5E16E41F00101E16600BFE16E89070A
:102CA0005CBFE16E5FEA817105D4E16E890702D4F1
:102CB000E16E8907F2D5016841F480710160082155
:102CC000A06E40F48030A066A06E20F48030A06634
:102CD000A06E40F44070A066206861F3144048F292
:102CE00000012060CFF2BF01A06E01F1706240F4DC
:102CF0000040A06654F8040C104042F60422C0F2D2
:102D00004002104344F8040C54F8040C20F4403002
:102D100044F8040C54F8040C084002F1E061084344
:102D200044F8040C54F8080C40F0807044F8080C87
:102D300054F8080C80015CBF54F8080C5FEA80105E
:102D400007D454F8080C800103D454F8080C80010F
:102D5000EED52068052120F0F0002060206861F3A6
:102D60008C2004212060206861F34F300221206014
:102D7000206861F301002060206800F00C00082842
:102D80000ED0206800F00C00082809D0206800F060
:102D90000C00082804D0206800F00C000828EBD1B3
:102DA0004EF21000CEF20000016841F00401016013
:102DB00047F60020C0F60320FFF724F8D4F8F80304
:102DC00040F48070C4F8F803D4F8F80340F480604D
:102DD000C4F8F803D4F8F80340F40070C4F8F8031A
:102DE00010BD00BF2E2E2F4170706C696361746935
:102DF0006F6E2F4150502F6D61696E2E6300000081
:102E00004EF688504FF0000CCEF20000016841F4FD
:102E10007001016043F60001C4F202010A6842F049
:102E200001020A60C1F808C04FF6FF720B68CFF6C6
:102E3000F6621A400A6043F21002C2F200424A608F
:102E40000A6822F480220A60C1F80CC04FF00061C9
:102E500040F8801C70470000FEF77ABCB0B540F225
:102E60002804C2F20004206881690A68920644BFFF
:102E7000CA685FEA82620ED40A68120644BFCA6852
:102E80005FEA026215D40A68520644BFC9685FEA65
:102E9000416113D4B0BD41F20005C4F20105696877
:102EA000C9B200F0EBF86FF020002860206881695B
:102EB000E2E700F0E7F820688169E4E700F0E0F875
:102EC00041F200006FF04001C4F201000160B0BDAA
:102ED0002DE9F0438DB040F200090446012101259F
:102EE000C4F202094846FEF7B1FC002703200B9507
:102EF0004FF0020807A90A9709900720CDF8208013
:102F00000C904FF4C06007904846FEF745FE41F232
:102F10000C05C4F20105A5F10C063046FEF778FF5A
:102F200043F64400C4F20200016841F01001016060
:102F30006946006800F0100000900098CDE9057720
:102F40000C20CDE903704FF4E130CDE9017700901A
:102F50003046FEF7D9FF68684FF0FF3220F490400A
:102F60006860A86820F02A00A8604EF60C50CEF2E7
:102F700000000068C0F30220C11E80F0070038BFC7
:102F80000021042828BF042002FA00F028EA0000EB
:102F900088404EF225410001CEF2000108704EF249
:102FA00004102021CEF200000160286840F02000CB
:102FB0002860286840F400502860E16D60690029AD
:102FC00018BF642161656163A66184F800804FF4D5
:102FD00000710028C4E9021945F65521A4F8011032
:102FE00067771CBF21698161D9F8000005A120F431
:102FF0004020C9F80000204600F07AFA00200DB009
:10300000BDE8F0833D3E3EB4AEBFDA31B5C4B3F5A2
:10301000CABCBBAF3C3C3D0D0A00000080B582B08D
:10302000DDF814C0CDF804C0DDF810C0CDF800C044
:1030300000F044F802B080BD00F052B900F05EB973
:1030400000F09CB9B0B584B004460B9803900A9880
:1030500002900998019008980090204600F0EAF943
:10306000054638B9FEF7FEFA00281EBF002084F896
:103070003D006077284604B0B0BD0000FFF7DCBF1C
:10308000FFF7DCBFFFF7DCBF10B584B0044609983A
:1030900003900898029007980190069800902046A7
:1030A000FFF7D0FF0420032102220223CDE9001004
:1030B00020460021FFF7B2FF04B010BD437102713A
:1030C000C1700199C17100998171002070470000A1
:1030D000B0B5044690F83F00032800F27E80DFE898
:1030E00000F0021D3450B4F84400002875D1607817
:1030F000884272D1A06D00250170012084F83F0044
:10310000A4F84600E16D00290CBF00208847E06468
:10311000E06C2065002084F84A50B0BDA06D41707D
:10312000A4F84210B4F842000002A4F842000220C1
:1031300084F83F00B4F846000130A4F84600E16D81
:1031400000290CBF0020884751E0A06D8170B4F8C1
:1031500042000844A4F84200B4F846000130A4F844
:103160004600B4F84200D0B3B4F84200B4F84810B6
:1031700088422FBF0020B4F84200A4F84600032084
:103180002EE0B4F84400A26D1044C170B4F84400BD
:103190000130A4F84400B4F846000130A4F8460019
:1031A000B4F84400B4F84810884224BF0020A4F8C2
:1031B0004400E16D00290CBF00208847E064E06C0A
:1031C0002065B4F84400B4F84210884205D30420C6
:1031D00084F83F00012084F83E000020B0BD0020AC
:1031E00084F83F00E16D09B1884700E00020E06409
:1031F000E06C20650020B0BDB0B5044690F83F00FB
:1032000002281ED001284AD0002846D1B4F8440034
:10321000002842D1607888423FD1A06D002501701E
:10322000012084F83F00A4F84600E16D00290CBF9E
:1032300000208847E064E06C2065002084F84A5054
:10324000B0BDB4F84400A26D10448170B4F84400DD
:103250000130A4F84400B4F846000130A4F8460058
:10326000B4F84400B4F84810884224BF0020A4F801
:103270004400E16D00290CBF00208847E064E06C49
:103280002065B4F84400B4F84210884205D3032006
:1032900084F83F00012084F83E000020B0BD79B1E1
:1032A000B4F84800C0B281420CD2A06D4170A4F8BD
:1032B0004210B4F846000130A4F84600022002E0B3
:1032C000002000E0002084F83F00E16D00290CBFE1
:1032D00000208847E064E06C20650020B0BD00005D
:1032E00080B5B0F84820FE2A03D8FFF785FF0020FC
:1032F00080BDFFF7EDFE002080BD0000D0F814C0B7
:10330000BCF1000F09D0C27F82B3C27F012A04D171
:1033100081690A224A6002212CE00022BCF1000FE0
:10332000C2778369D96821F04001D9604FF001016B
:10333000817742848284C284C262026380F82A2038
:10334000C2771CBF0169CCF81810C16861B18068F0
:10335000032290FAA0F0B0FA80F0400002FA00F0E8
:103360000A6822EA000008600020704781690D2287
:103370004A600121C17700207047000010B5044663
:10338000408C48B1A18CA069628C914229D1C1685E
:1033900021F08001C16043E0A069C16821F0800193
:1033A000C1600120A07700206084A084E084E062F6
:1033B000206384F82A00E077606900281CBF216937
:1033C0008161E06860B3A168032291FAA1F1B1FACA
:1033D00081F1490002FA01F1026822EA010101606B
:1033E0001EE0A18CA26B515C4160A18C0131A184D3
:1033F000A18C228D914224BF0021A184A18C628CDA
:1034000091420DD3E18C59B1A18CE28C914207D34A
:10341000C16821F08001C160C16841F04001C16014
:10342000E16D00290CBF00208847E062E06A20635C
:10343000002010BD80B54FF0000C4FF0010E0028A9
:1034400080F83CC080F83DC080F83FC080F840C0A4
:10345000A0F842C0A0F844C0A0F846C0A0F848C0F8
:1034600080F83EC080F84AC0C0F84CC0C0F850C0D8
:10347000C0F854C080F81CC080F81DC080F81FC080
:1034800080F820C0A0F822C0A0F824C0A0F826C070
:10349000A0F828C080F81EE080F82AC0C0F82CC030
:1034A000C0F830C0C0F834C080F83D30A0F84810F3
:1034B0000499C0E900CCC0E902CCC0E904CCC0F852
:1034C00018C041770299826501850599C165039904
:1034D00081634FF0020109D040F22802C2F20002DB
:1034E0001268824202D1FFF7F3FC0021084680BD3A
:1034F00082B02DE9F04182B0CDE9082304460D46A3
:103500008069C168090604D406E000BFFEF724FB09
:10351000A06901680906F9D4C168490603D40BE023
:10352000FEF71AFBA0690168490602D5E17F002970
:10353000F6D06FF040010160606900281EBF21696C
:1035400009048161E06878B1A1680222032391FA3D
:10355000A1F1B1FA81F149008A4003FA01F103684F
:1035600023EA01011143016042F65C5808AB4FF4B5
:1035700080612A46C2F200080193404600F012F929
:1035800085B2A5B1A06900216FF04007002600BFF9
:1035900018F80110416002E0FEF7DEFAA069016848
:1035A0004906F9D501360760B1B28D42F0D860699D
:1035B00000281CBF21698161E06860B1A168032215
:1035C00091FAA1F1B1FA81F1490002FA01F1026820
:1035D00022EA0101016002B0BDE8F04102B070478B
:1035E000FEE7000042F608406FF00101C4F200005F
:1035F00001607047FEE700004EF60C50BFF34F8F9E
:103600000422CEF20000C0F2FA52016801F4E06137
:1036100011430160BFF34F8F00BFFDE74EF60C5022
:10362000BFF34F8F0422CEF20000C0F2FA520168BD
:1036300001F4E06111430160BFF34F8F00BFFDE76C
:1036400072B6704784B0FFF7EFFA4EF60C504FF6A3
:10365000FF020025CEF200000168114040F2003266
:10366000C0F2FA52114301600168057301684573A5
:10367000016885730168C574016805750168857501
:10368000FEF7E8FCFEF7E4F8FFF778F9FDF7ECFF4A
:1036900040F21C0642F6751441F6110141F60D0286
:1036A0000095C2F20006C0F60004C0F60001C0F6A4
:1036B000000230682346FDF73FF840F2280840F248
:1036C000780144220023C2F20008C2F20001D8F8B7
:1036D0000000CDE9002140F234024421CDE902543A
:1036E000C2F20002FFF7D0FC44F2DD0440F22007F2
:1036F000C0F60004C2F200070DE000BF4FF4967060
:10370000FEF784F83D68FFF735F901462846FFF7D4
:1037100065F8FEF721FA30680021FDF717F83068E8
:10372000017851B9417B41B1D0F8A030D8F8000000
:1037300021460122FFF7DCFE30680121FDF706F883
:103740003068017851B9817B41B1D0F8A430D8F804
:10375000000021460222FFF7CBFE30680221FCF771
:10376000F5FF3068017851B9C17B41B1D0F8A8307C
:10377000D8F8000021460322FFF7BAFE3068032183
:10378000FCF7E4FF306801780029B7D1017C0029FB
:10379000B4D0D0F8AC30D8F8000021460422FFF7AE
:1037A000A7FEABE77CB5044600201D46164600295F
:1037B0000BD0491ECDE90041044B6A4629463046EC
:1037C00000F0D8F8009A002111707CBDA3400008D9
:1037D00002E008C8121F08C1002AFAD170477047DA
:1037E000002001E001C1121F002AFBD17047000038
:1037F0002DE9FF5F82B00021DDE90430020DDDF824
:1038000040B0034318D044F61050A2F2FF324243B6
:103810001514119801281FD0A5EB0B00401C5FEA7E
:10382000000A4FF000064E4FDFF83891B046504680
:1038300015D5CAF1000413E0119801244AA3012808
:1038400001D16FEA0B010298119AC0E90031C0E979
:10385000024206B0BDE8F09FCBF10000DFE704466E
:103860000021404A491842EB0450CDE9001012E013
:10387000E00707D032463B4640464946FCF79DFEEE
:103880008046894632463B4610461946FCF795FE6F
:1038900006460F466410002CEAD1DDE90401DDE99B
:1038A0000023BAF1000F06DAFCF787FE42464B46CA
:1038B000FCF783FE05E0FCF76DFD42464B46FCF746
:1038C00069FD04460E460022284BFCF701FF03D891
:1038D0004FF0FF30014607E00022254B20463146DD
:1038E000FCF7B1FCFCF7DBFE102409E0002C0ADB3E
:1038F0000A220023FCF764FC039B30321A55641E35
:1039000050EA0102F2D1641C039AC4F11103144479
:10391000119A012A03D0012208430DD10AE008437D
:1039200004D000204FF0110B119072E7A3EB0B05B0
:103930006D1E0DE05B4504DD4FF0000205F1010551
:1039400004E003DA4FF00002A5F10105002AECD0F3
:1039500002981199C0E90231C0E9004579E70000F9
:10396000000014400000F03F300000000000F04371
:103970000000E03F2DE9FF4F95B09B468946064683
:1039800000250FE2252877D100242746F84A012197
:10399000059400E0044316F8013F203B01FA03F0D0
:1039A0001042F7D130782A2811D06FF02F033078E9
:1039B000A0F13002092A16D8059A44F0020402EB5D
:1039C000820203EB42021044761C0590EFE759F89F
:1039D000042B0592002A03DA504244F40054059067
:1039E00044F00204761C30782E2816D116F8010F08
:1039F00044F004042A280DD06FF02F023078A0F193
:103A00003003092B09D807EB870302EB4303C718E0
:103A1000761CF3E759F8047B761C30786C280FD0BD
:103A200006DC4C2817D068280DD06A2814D104E091
:103A3000742810D07A280FD10DE044F400140AE065
:103A400044F4801401E044F440147278824202D1BC
:103A500004F58014761C761C307866280BD013DCB5
:103A6000582877D009DC002875D04528F6D046289C
:103A7000F4D047281AD19DE118E0632835D0642896
:103A800079D0652812D195E1702873D008DC6728B9
:103A9000F1D069286FD06E280DD06F2806D1B5E01F
:103AA00073282CD0752875D0782874D05A46179969
:103AB00090476D1C75E1C4F30250022809D0032819
:103AC0000DD0D9F8001004280DD00D6009F10409BB
:103AD00067E1D9F80010EA17C1E90052F6E7D9F812
:103AE00000100D80F2E70D70F0E719F8041B8DF857
:103AF000001000208DF80100EA46012003E059F88B
:103B000004AB4FF0FF3061074FF0000102D40DE02D
:103B100008F101018846B9420FDA8045F8DB1AF84E
:103B200008100029F4D108E008F10101884681421B
:103B3000FADB1AF808100029F6D105985B46A0EBCD
:103B4000080721463846179A00F094FA284400EBFB
:103B5000080507E04DE029E10DE01AF8010B5A468F
:103B600017999047B8F10108F7D25B4621463846CD
:103B7000179A13E142E00A220092C4F302524FF076
:103B8000000A022A08D059F804CB032A4FEAEC7144
:103B90000AD00DE029E02AE009F1070121F007022F
:103BA000F2E802C1914609E00FFA8CFC4FEAEC7191
:103BB000042A03D14FFA8CFC4FEAEC71002907DA92
:103BC0000A460021DCF1000C61EB02012D2202E02B
:103BD000220504D52B228DF80420012203E0E20700
:103BE00001D02022F7E7904659E00A2102E0102296
:103BF0000DE010214FF0000A00910BE010224FF071
:103C0000000A44F004040827009203E008224FF061
:103C1000000A0092C4F30252022A05D059F804CBDC
:103C20000021032A08D009E009F1070121F0070269
:103C3000F2E802C1914605E01FFA8CFC042A01D18A
:103C40000CF0FF0C4FF00008220728D5702806D092
:103C5000009B83F0100353EA0A0305D00EE04022D4
:103C60008DF80420012208E05CEA010206D030222F
:103C70008DF804208DF8050002229046009B83F009
:103C8000080353EA0A030AD15CEA010201D1620780
:103C900005D530228DF804204FF001087F1E5828EA
:103CA00004D034A003900EA802900DE036A0F9E7EE
:103CB00053466046009AFCF783FA84460398825C78
:103CC0000298401E029002705CEA0100F0D1029856
:103CD00006A9081A00F1200A600702D524F48034EE
:103CE00000E00127574502DDA7EB0A0000E00020B5
:103CF00000EB0A01009005984144401A0590E0034A
:103D000006D45B462146179A059800F0B3F905449E
:103D1000002706E001A85A46C05D179990476D1C20
:103D20007F1C4745F6DBE0030CD55B462146179A1E
:103D3000059800F09FF9054404E030205A46179991
:103D400090476D1C0099481E00900029F5DC08E0A2
:103D5000029802995A460078491C02911799904797
:103D60006D1CBAF10001AAF1010AF1DC65E1000065
:103D70000928010030313233343536373839616241
:103D80006364656600000000303132333435363705
:103D900038394142434445460000000000F058F9DC
:103DA0000544761C307800287FF4ECAD19B0284625
:103DB000BDE8F08F620700D4062709F1070222F060
:103DC000070CFCE80223E14603F000485FEA080C18
:103DD00002D00FF2702C0DE05FEA045C02D50FF206
:103DE000682C07E05FEAC47C02D00FF2602C01E08F
:103DF000AFF2700C4FF0FF3823F00043CDF850C005
:103E000065280CD006DC452809D046281DD0472857
:103E10003DD13DE0662818D067287ED138E00021EA
:103E2000112F01DB112000E0781CCDE9000106A96B
:103E30000EA8FFF7DDFCDDE90F010E9A03910021CA
:103E4000009207F1010A04914DE04FF00040009705
:103E5000CDE9011006A90EA8FFF7CAFCDDE90F02A3
:103E600003920E9B11990022DDF80CA0009304929E
:103E700011B9791C00EB010AB7EB0A0004D4C0F1B8
:103E8000FF3007F1010A0490AAEB0700019044E01B
:103E9000012F00DA01270021112F01DD112000E0A0
:103EA0003846CDE9000106A90EA8FFF7A1FCDDE91F
:103EB0000F010E9A0391002104910092BA46210746
:103EC0000CD40399514500DA8A46BAF1010F05DD99
:103ED000009AAAF10101515C302908D0B84202DAF7
:103EE00010F1040F06DA0121CDE9011015E0AAF165
:103EF0000101E9E7002805DC049901440491AAEBDB
:103F0000000102E0411C514500DD8A460499401A37
:103F1000401C01904FF000400290200704D401980B
:103F2000504501DBCDF8048000208DF84F00029849
:103F30000DF14F07B0F1004F25D02B200E900298C5
:103F40004FF0020800280CDA404202902D200E901B
:103F500007E00A210298FCF78CFA3031029007F84A
:103F6000011DB8F10001A8F10108F2DC0298002857
:103F7000EFD1791E0E980870307800F0200040F0E4
:103F8000450007F8020D12A8C01B00F1070814989D
:103F9000007800B1012000EB0A01019801EBE0710B
:103FA00005984144401A401E0590E00306D45B4644
:103FB0002146179A059800F05DF80544149800789A
:103FC00018B15A46179990476D1CE00324D55B46FB
:103FD0002146179A059800F04DF805441CE0049816
:103FE000002807DBDDE90301884203DD0098405C1F
:103FF000179901E0179930205A469047049805F127
:104000000105401C04900198401E019004D12E200F
:104010005A46179990476D1CBAF10001AAF1010A9E
:10402000DDDC05E017F8010B5A46179990476D1C27
:10403000B8F10001A8F10108F4DC5B462146179AAB
:104040000598ABE62D0000002B00000020000000CA
:104050002DE9F041044600251E461746880404D485
:1040600005E039462020B0476D1C641EF9D528466E
:10407000BDE8F0812DE9F041044600251E4690463A
:10408000C80301D5302700E02027880404D505E0C7
:1040900041463846B0476D1C641EF9D52846BDE838
:1040A000F0814A68002A06D00A68531C0B60107021
:1040B0004868401E48607047000000000000000093
:1040C00001020304060708090000000001020304BE
:1040D000001F1C1F1E1F1E1F1F1E1F1E1FCDA8B549
:1040E000C02564B5E7D1B93A25376475560D0A0085
:1040F000104100080000002030000000D037000808
:10410000404100083000002030410000E037000846
:104110000024F40001000000552000087920000868
:10412000D00400205002002000000000BC0000204D
:10413000D02C0020E82C0020FC2C002001000000E6
:040000050800018965
:00000001FF
