:020000040800F2
:10000000C03F00209D01000811CF0008511A0008D0
:1000100049CC0008DD0D00089D0E0108000000001D
:1000200000000000000000000000000041DF0008A8
:10003000E11500080000000025D20008C9E700080B
:10004000F911010805D20008B7010008B70100083E
:10005000B7010008F5D20008B7010008B701000891
:10006000B7010008B7010008B7010008B701000890
:10007000B7010008B7010008B7010008B701000880
:10008000B7010008B7010008B7010008B701000870
:10009000B7010008B7010008B7010008B701000860
:1000A000B7010008B7010008B7010008B701000850
:1000B000D5EC0008B7010008B7010008B701000837
:1000C000B7010008B7010008B7010008B701000830
:1000D000B70100080DF00008B7010008B7010008DB
:1000E000B7010008B7010008B7010008B701000810
:1000F000B7010008B7010008B7010008B701000800
:10010000B7010008B7010008B7010008B7010008EF
:10011000B7010008B7010008B7010008B7010008DF
:10012000091500086515000869150008B7010008E1
:10013000B7010008B7010008B7010008B7010008BF
:10014000B7010008B7010008B7010008B7010008AF
:10015000B7010008B7010008A5150008B70100089D
:10016000B7010008B7010008B7010008B70100088F
:10017000B7010008B7010008B7010008000000003F
:10018000491A0008B7010008DFF80CD000F0E8FABF
:1001900000480047E5140108C03F0020064880479A
:1001A00006480047FEE7FEE7FEE7FEE7FEE7FEE75C
:1001B000FEE7FEE7FEE7FEE765EC000889010008C0
:1001C0002DE9F05F0546002092469B46884606468C
:1001D000814640241BE0284641464746224600F01F
:1001E0000FFA53465A46C01A914110D31146184689
:1001F000224600F0F6F92D1A67EB01084F46224619
:100200000120002100F0EDF917EB00094E41201EFE
:10021000A4F10104DFDC484631462A464346BDE8E6
:10022000F09FD2B201E000F8012B491EFBD27047CB
:100230000022F6E710B513460A4604461946FFF7B2
:10024000F0FF204610BD2DE9FE4F804681EA0300F5
:10025000C00F0C46009021F0004123F00045B8EBA0
:100260000200A94105D24046214690461C460B4655
:10027000024623F00040104347D0270DC7F30A0081
:10028000C3F30A510290401A019040286BDAC3F37D
:10029000130040F4801B0098924620B10023D2EB5B
:1002A000030A63EB0B0B01985946C0F1400250461C
:1002B00000F097F906460D4650465946019A00F05F
:1002C000AFF910EB08006141002487EA115284EA7B
:1002D000E7731A4340D0009A62B3019A012A4FEAA9
:1002E000075215DC001B61EB02014FF0004202EAED
:1002F0000752CDE90042001C41F5801132462B46E1
:1003000000F0AFF903B0BDE8F08F40462146F9E7B1
:10031000001B61EB0201001C41F5801300185B41DA
:100320002018A2F5001747EB030140EAD570B61973
:100330006D4111E06D084FEA360645EAC0754FEA97
:100340000752001B61EB0201001C41F580114908B6
:100350004FEA30000019514132462B4603B0BDE848
:10036000F04F00F06FB90098012240000023D0EB5D
:10037000020263EBE073009821464FEAE074B8EBA9
:10038000000061EB0401E9E783F000435BE781F0E3
:10039000004158E72DE9FE4F81EA030404F00044D0
:1003A00021F0004100944FF0000B23F0004350EA8D
:1003B00001045ED052EA03045BD0C3F30A54C1F3D4
:1003C0000A552C44A4F2F3340194A0FB0254C1F367
:1003D000130141F48011C3F3130343F4801301FBB1
:1003E000024400FB034E840A970A44EA815447EA18
:1003F0008357A4FB076802958D0A05FB07854FEA22
:10040000932C04FB0C542705029D4FEA065847EA3B
:100410001637B5EB08056EEB070C870E920E47EA10
:10042000811742EA8312A7FB0201B6EB0B0164EBD2
:1004300000042B0D43EA0C335E1844EB1C50DA46E3
:100440005146E7FB0201C5F313044FEA0B3343EABD
:1004500014534FEA0432019C43EA0603A4F10C044E
:100460000294009CCDE900B400F0FBF803B0BDE8B5
:10047000F08F00200146F9E72DE9F04D81EA0304F1
:1004800004F0004B21F0004514464FF0000A23F021
:10049000004150EA050220D054EA01021DD0C5F304
:1004A0000A570246C5F31303C1F31300C1F30A56FA
:1004B00040F4801543F48013A7EB0608101BD646C2
:1004C00008F2FD3873EB050002D308F1010801E0E2
:1004D00092185B41B8F1000F03DA00200146BDE835
:1004E000F08D00204FF48011064684460EE0171B65
:1004F00073EB050705D3121B63EB050306434CEAB8
:10050000010C49084FEA300092185B4150EA01079C
:10051000EDD152EA030012D082EA040083EA050119
:10052000084305D0101BAB4106D20122002306E090
:1005300000224FF0004302E06FF0010253101AEB6B
:1005400006004CEB085110EB0A0041EB0B01BDE833
:10055000F04D00F077B80EB5C10F80EAE0700844A6
:10056000CA07002140F233438DE80E000A460B46CD
:1005700000F077F803B000BD70B5C1F30A5201F086
:1005800000450024C1F3130140F2FF3341F4801110
:100590009A4201DA002070BD40F233439A42A2F23F
:1005A000334203DC524200F02BF800E090402C4331
:1005B000F1D0404270BD30B50B46014600202022EC
:1005C000012409E021FA02F59D4205D303FA02F560
:1005D000491B04FA02F52844151EA2F10102F1DCC0
:1005E00030BD202A04DB203A00FA02F100207047D7
:1005F0009140C2F1200320FA03F319439040704761
:10060000202A04DB203A21FA02F00021704721FA67
:1006100002F3D040C2F120029140084319467047CE
:10062000202A06DBCB17203A41FA02F043EAE073B6
:1006300006E041FA02F3D040C2F1200291400843A3
:100640001946704710B5141E73F1000408DA401CF7
:1006500041F1000192185B411A4301D120F00100E1
:1006600010BD2DE9F04D92469B4611B1B1FA81F2D1
:1006700002E0B0FA80F220329046FFF7B2FF044663
:100680000F4640EA0A0041EA0B0153465A46084326
:1006900013D0114653EA010019D0C8F14002504668
:1006A000FFF7AEFF05460E46504659464246FFF755
:1006B00098FF084305D0012004E020463946BDE8F4
:1006C000F08D0020054346EAE0762C4337430A9834
:1006D0006305E40AA0EB08000022FD0A44EA47543F
:1006E0000A3002D500200146E9E7010510196941E9
:1006F000DDE9084500196941BDE8F04DA2E7C1F305
:100700000A52C1F3130140F2FF3341F480119A42BF
:1007100002DA00200146704740F233439A42A2F2C7
:10072000334202DC5242FFF76BBFFFF75ABF0000B3
:1007300030B5041E71F1000404DB4FF00044404268
:1007400064EB0101141E73F1000405DB1C464FF03D
:100750000043524263EB0403994208BF904230BD0C
:10076000064C074D06E0E06840F0010394E80700FE
:1007700098471034AC42F6D3FFF70AFD2023010856
:100780004023010880B582B00190019800F088F9FB
:1007900002B080BD80B582B00190019800F0D4F91C
:1007A00002B080BD80B500F011FA80BD80B500F0C8
:1007B00099FA80BD80B582B00190019800F0AAFA44
:1007C00002B080BD80B582B001900198FFF7DAFFDA
:1007D00002B080BD80B582B001900198FFF7DAFFCA
:1007E00002B080BD80B5FFF7DDFF80BD80B5FFF7AB
:1007F000DDFF80BD80B582B001900198FFF7DAFF80
:1008000002B080BD80B582B000F008F8019000F021
:10081000A1F800210090084602B080BD80B598B0D4
:1008200046F20040C4F202000021089007910AF04D
:10083000A5FD4FF48001069008460AF0BFF809A80C
:100840003C210590FFF7F4FC0798129012211191BA
:100850000B9014900121159140F22002C2F2000287
:10086000126806320A924FF4005210924FF48062DE
:100870000E920C9042F24C02C4F2010209921790BF
:100880004FF400620F920D904FF4003213920898CB
:10089000079A04911146059A0AF0D8FF0899039027
:1008A000084607990AF0A2FF10F0F6FC0499079A8F
:1008B0000CF032FB382102900846029A0191114651
:1008C00010F012FD019810F0A5FC089807990AF0A5
:1008D0006DFF079818B080BD80B584B046F2004027
:1008E000C4F2020000211222039002910BF062F880
:1008F000039802990AF07AFF42F20000C4F2010064
:10090000019009F05DFF01980299029A00F046FA01
:1009100002990090084604B080BD000080B584B004
:1009200046F20040C4F202000021039002910AF056
:100930001DFF039802990AF0EDFA42F20000C4F29A
:100940000100019009F032FF019809F04FFE029872
:1009500004B080BD80B594B0002013901290119027
:1009600010900F900E900D900C900B900A900990A3
:10097000089042F20001C4F2010107900846069176
:1009800009F094FE0121069A0590104600F028F91E
:100990000799119112914FF48072139211A9069A3E
:1009A0000490104609F024FF07990C910D910E91C7
:1009B00002220F924FF4407210920CA9069A0390F3
:1009C000104609F047FF4FF440310891079909910B
:1009D0000B9142F20032C4F2010208A902901046C3
:1009E00009F00CFE4FF400710A22069B0190184694
:1009F000009209F083FF07220698009909F0B4FFDE
:100A0000069809F0DDFE079814B080BD80B586B069
:100A100046F20040C4F20200012112220590049126
:100A20000AF0C8FF059804990AF0E0FE42F200209F
:100A3000C4F20100039009F0C3FE00200290029965
:100A4000039A00F0ABF902990190084606B080BD08
:100A500080B582B046F20040C4F20200012101904C
:100A60000AF084FE01980AF093FB01980AF0D8FB83
:100A700042F20020C4F20100009009F097FE0098B5
:100A800009F0B4FD002002B080BD000080B582B046
:100A9000FFF7B8FE00210190084602B080BD0000BB
:100AA00080B582B00090009842F20001C4F20101CA
:100AB000884216D1FFE740F22000C2F20000016830
:100AC00000220A700068C282C0F81220C0F80E200E
:100AD000C0F80A20C0F80620FFF7FEFE8DF80700D8
:100AE0002DE0009842F20011C4F20101884204D1C5
:100AF000FFE700208DF8070021E0009842F2002176
:100B0000C4F20101884216D1FFE740F22400C2F28C
:100B10000000016800220A700068C282C0F812203A
:100B2000C0F80E20C0F80A20C0F80620FFF76EFFBC
:100B30008DF8070003E000208DF80700FFE79DF81F
:100B4000070002B080BD000080B582B00090009820
:100B500042F20001C4F2010188420DD1FFE740F2E8
:100B60002000C2F200000068017801310170FFF737
:100B7000D5FE8DF8070024E0009842F20011C4F27F
:100B80000101884204D1FFE700208DF8070018E03A
:100B9000009842F20021C4F2010188420DD1FFE722
:100BA00040F22400C2F200000068017801310170B7
:100BB000FFF74EFF8DF8070003E000208DF80700D7
:100BC000FFE79DF8070002B080BD000080B582B04D
:100BD00000F064F80190FFF759FF02B080BD0000FB
:100BE00080B584B00A4602908DF80710029800285C
:100BF00004D1FFE701208DF80F004BE0029842F28C
:100C00000001C4F20101884210D1FFE79DF80700FE
:100C1000002805D0FFE74FF480700AF047F804E0A1
:100C20004FF480700AF018F8FFE7FFE7029842F2ED
:100C30000011C4F20101884210D1FFE79DF80700BE
:100C4000002805D0FFE74FF400700AF02FF804E009
:100C50004FF400700AF000F8FFE7FFE7029842F255
:100C60000021C4F20101884210D1FFE79DF807007E
:100C7000002805D0FFE74FF480600AF017F804E081
:100C80004FF4806009F0E8FFFFE7FFE700208DF8F0
:100C90000F00FFE79DF80F0004B080BD80B58AB05B
:100CA00040F60000C4F2020001210390029100F01E
:100CB00093FD0020099008900790069005900490FD
:100CC00002990491032205920222089204A9039A30
:100CD000019010460AF02CFF0199009008460AB0D6
:100CE00080BD000081B040F22000C2F20000006828
:100CF00040880090009806380090009840F6BC416B
:100D0000484300900098400000900098C0F30F30D6
:100D100001B0704780B59AB0199000208DF863003B
:100D20000DF13E0124220490084611460392FFF77C
:100D30007FFA0DF11A000399FFF77AFA1998063035
:100D4000059004988DF86300FFE79DF86300112873
:100D500012DCFFE7059800889DF863100DF13E0254
:100D600022F81100059802300590FFE79DF8630016
:100D700001308DF86300E8E70DF13E00122102908A
:100D800000F0BCFC10210222029B0190184600F0EA
:100D9000B3F91999488000201AB080BD80B584B09D
:100DA0000390029101920398002804D0FFE7039872
:100DB00009F0D0FDFFE70298002804D0FFE7029871
:100DC00009F0C8FDFFE70198002804D0FFE701986B
:100DD00009F0C0FDFFE7002004B080BDFFE7FEE79B
:100DE00080B582B0019000910198009900F064F8FC
:100DF00002B080BD80B582B0019000910198009949
:100E000000F086F802B080BD80B584B003468DF84E
:100E10000F00029101929DF80F000299019A009330
:100E200000F0B2F804B080BD80B582B001900091AE
:100E30000198009900F0EAF802B080BD80B500F09A
:100E400019F980BD80B500F01BF980BD80B582B076
:100E50000190009101980099FFF7C2FF02B080BD98
:100E600080B582B00190009101980099FFF7C2FF10
:100E700002B080BD80B584B003468DF80F000291AA
:100E800001929DF80F000299019A0093FFF7BCFFB1
:100E900004B080BD80B582B00190009101980099A6
:100EA000FFF7C2FF02B080BD80B5FFF7C7FF80BD6E
:100EB00080B5FFF7C7FF80BD84B00390029100208A
:100EC000ADF804000090FFE70098029988421BD219
:100ED000FFE79DF805000399009A895C48408DF86A
:100EE0000700BDF804009DF8071041F66C62C0F6DB
:100EF000010232F8111081EA0020ADF80400FFE78A
:100F0000009801300090DFE7BDF8040004B070479E
:100F100080B582B0019000910198009900F002F82C
:100F200002B080BD80B586B005900491002003908A
:100F30000290019000F020F801980390FFE70398D9
:100F40000499884210D2FFE705980399405C02900B
:100F5000029943F20000C4F2020009F03FFFFFE7EC
:100F6000039801300390EAE743F20000C4F2020064
:100F700009F03CFF06B080BD80B543F20000C4F22A
:100F8000020009F039FF80BD86B003468DF81700D6
:100F90000491039200208DF80A000190FFE7019868
:100FA000039988422DD2FFE79DF80A000499019A1F
:100FB000895C48408DF80B009DF817000146072812
:100FC000009104D0FFE7009831280AD013E09DF883
:100FD0000B0042F26C01C0F60101085C8DF80A00BA
:100FE0000AE09DF80B0042F26C11C0F60101085CAA
:100FF0008DF80A0000E0FFE7FFE70198013001905B
:10100000CDE79DF80A0006B07047000084B0039059
:101010000291002001908DF803000190FFE70198F4
:10102000029988420DD2FFE703980199405C9DF830
:10103000031008448DF80300FFE701980130019088
:10104000EDE79DF80300C0F580708DF803009DF872
:10105000030004B07047000080B543F20000C4F202
:10106000020009F09FFE40F20401C2F200010122D9
:101070000A7080BD40F20400C2F2000000787047A0
:1010800080B5FFF7E9FF4FF4805009F0A9FC40F26A
:101090000400C2F200000021017080BD80B500F0A4
:1010A0000DF880BD80B500F017F880BD80B5FFF762
:1010B000F5FF80BD80B5FFF7F5FF80BD80B50BF073
:1010C0000DF8002807D0FFE70AF0F6FF0AF09CFFB2
:1010D0000AF07CFFFFE780BD80B50BF007F8002821
:1010E00008D0FFE70AF086FF0AF07AFF10F0F6F961
:1010F00010F0CCF980BD000080B588B004AB9446F8
:101100008E460790ADF81A10ADF818200020059013
:101110000490ADF80E00BDF81800ADF80E00029373
:10112000FFE7BDF80E00BDF81A1088421EDAFFE78F
:101130000798BDF80E1030F81100FFF70CFA41ECDB
:10114000100B029890ED001B53EC102B51EC110B7F
:10115000FFF779F841EC100B029880ED000BFFE7E8
:10116000BDF80E000130ADF80E00DAE704980599DD
:10117000BDF81A20BDF81830D21A0190104600911F
:10118000FFF7E9F941EC100B53EC102B0198009993
:10119000FFF772F941EC100B51EC100BFFF7ECF973
:1011A00008B080BD84B013468C4602908DF80710BD
:1011B000ADF804200020ADF80200FFE7BDF8020002
:1011C000BDF80410884214DAFFE70298BDF8021057
:1011D000405C9DF80710884204D0FFE701208DF89D
:1011E0000F000AE0FFE7BDF802000130ADF8020091
:1011F000E4E700208DF80F00FFE79DF80F0004B032
:101200007047000080B584B002468DF80F0002914F
:101210009DF80F000299019200F034F804B080BDEF
:1012200080B584B00A4603468DF80F008DF80E1085
:101230009DF80F009DF80E100292019300F034F912
:1012400004B080BD80B584B002468DF80F000291D5
:101250009DF80F0002990192FFF7D4FF04B080BD02
:1012600080B584B00A4603468DF80F008DF80E1045
:101270009DF80F009DF80E1002920193FFF7D0FF2A
:1012800004B080BD80B584B002468DF80F00029195
:101290009DF80F0002994FF47A735943019200F0C0
:1012A00003F804B080BD000080B584B002468DF81C
:1012B0000F00029100200190029845F6A121C0F292
:1012C0003201884206D3FFE745F6A020C0F2320083
:1012D0000290FFE7029840084CF61771CAF29E216F
:1012E000A0FB0101090A01910199B1F5805F04D3C6
:1012F000FFE740F6FF700190FFE70198B0F57A7FB5
:1013000004D9FFE7019804380190FFE79DF80F002A
:10131000032813D1FFE7019A47F20040C4F200000E
:101320000121C0F21021009009F070FD019A1221F4
:10133000C1F24351009809F069FD1BE09DF80F00D0
:1013400002280BD1FFE7019A47F20040C4F20000E7
:101350000121C0F2102109F059FD0AE0019A47F27B
:101360000040C4F200000121C0F2102109F04EFD3E
:10137000FFE7FFE7002004B080BD000080B58AB021
:101380000A4603468DF827008DF8261000200890A5
:1013900007900690059004903821049105909DF8DF
:1013A0002600012803D1FFE70020079002E0022079
:1013B0000790FFE79DF82700022805D1FFE71220DC
:1013C000C1F24350089004E00120C0F210200890C0
:1013D000FFE7089947F20040C4F2000004AA039016
:1013E00009F03CFD0899039A0290104609F026FD89
:1013F00008990020039A01901046019A09F006FD11
:1014000001980AB080BD000080B582B001468DF819
:1014100007009DF80700002805D0FFE74FF00050B7
:1014200009F0B0FB04E04FF0005009F06FFBFFE75C
:10143000002002B080BD000080B58AB001468DF862
:1014400027000020C4F2020001220291114600F0A0
:10145000C3F900200890079006900590049003902F
:101460009DF82700032803D1FFE7302003900BE00D
:101470009DF82700022803D1FFE72020039002E017
:1014800010200390FFE7FFE703200490022007905D
:101490000020C4F2020003A90AF04AFB00210190D7
:1014A00008460AB080BD000080B586B00A460346F3
:1014B0008DF817008DF816109DF81700049203930D
:1014C000FFF7BAFF012102900846FFF79DFF9DF844
:1014D000171003290DD1FFE79DF816100120FFF723
:1014E0004DFF9DF81610022201901046FFF746FFAF
:1014F00006E09DF817009DF81610FFF73FFFFFE785
:10150000002006B080BD000080B584B046F20040E7
:10151000C4F202000AF0F6F9002820D0FFE746F2F4
:101520000040C4F2020000210AF004FA002816D09C
:10153000FFE740F22000C2F200000068FFF75AF90E
:1015400042F20001C4F20101039008460291FFF744
:1015500041F9029901900846FFF734F9FFE704B01A
:1015600080BD00007047000080B546F20040C4F224
:1015700002000AF0CFF9002812D0FFE746F200403F
:10158000C4F2020002210AF0D5F9002808D0FFE7D2
:1015900040F23800C2F2000000680EF00BF8FFE7DE
:1015A00080BD000080B546F20040C4F202000AF09F
:1015B000B9F9002812D0FFE746F20040C4F2020059
:1015C00007210AF0B7F9002808D0FFE740F23800F9
:1015D000C2F2000000680EF007F8FFE780BD0000CF
:1015E0007047000080B582B00190019800F056F875
:1015F00002B080BD80B582B00190019800F01AF869
:1016000002B080BD80B582B00190019800280FD053
:10161000FFE7FFE70198411E0191002807D0FFE78F
:101620004FF47A7000F006F803F03CFDF2E7FFE7B4
:1016300002B080BD80B584B00390039800281AD012
:10164000FFE7039844F6D351C1F26201A0FB010207
:10165000920902901046019100F020F80398019938
:10166000A0FB01239B094FF47A7C03FB1C00009232
:101670000CF02AFFFFE704B080BD000080B582B007
:1016800001900198FFF7AEFF02B080BD80B582B037
:1016900001900198FFF7AEFF02B080BD80B582B027
:1016A0000190019800280ED0FFE70CF0EDFE002815
:1016B00004D1FFE701980CF0F3FE03E00198FFF777
:1016C000A1FFFFE7FFE702B080BD000080B582B058
:1016D0000190019800280ED0FFE70FF0FFFEFFE712
:1016E0000198411E0191002802D0FFE700BFF7E7F3
:1016F0000FF0F6FEFFE702B080BD000084B00A469E
:101700000390ADF80A100020ADF80800ADF806000F
:10171000BDF80A100139ADF80410ADF80800FFE774
:10172000BDF80800BDF8041088423FDAFFE700204A
:10173000ADF80600FFE7BDF80600BDF80410BDF8DF
:101740000820891A88422ADAFFE70398BDF80610B4
:1017500000EB410230F811005188884218DAFFE7A7
:101760000398BDF8061000EB41004088ADF8020078
:101770000398BDF8061000EB410230F811005080CC
:10178000BDF802000399BDF8062021F81200FFE71A
:10179000FFE7BDF806000130ADF80600CBE7FFE734
:1017A000BDF808000130ADF80800B9E7002004B02A
:1017B0007047000080B584B00A4603908DF80B1086
:1017C00003989DF80B10019200F018F804B080BD4A
:1017D00080B500F0E3F880BD80B584B00A46039080
:1017E0008DF80B1003989DF80B100192FFF7E2FFA4
:1017F00004B080BD80B5FFF7EBFF80BD80B582B03F
:101800000A4601908DF8031001980021C4F20201EC
:1018100088420ED1FFE79DF80300002804D0FFE7BF
:10182000012009F0EFF803E0012009F0B9F8FFE723
:10183000B1E0019840F20041C4F2020188420ED1A9
:10184000FFE79DF80300002804D0FFE7022009F01D
:10185000D9F803E0022009F0A3F8FFE79BE0019824
:1018600040F60001C4F2020188420ED1FFE79DF864
:101870000300002804D0FFE7042009F0C3F803E0C8
:10188000042009F08DF8FFE785E0019840F600415B
:10189000C4F2020188420ED1FFE79DF80300002840
:1018A00004D0FFE7082009F0ADF803E0082009F0B4
:1018B00077F8FFE76FE0019841F20001C4F20201FE
:1018C00088420ED1FFE79DF80300002804D0FFE70F
:1018D000102009F097F803E0102009F061F8FFE705
:1018E00059E0019841F20041C4F2020188420ED150
:1018F000FFE79DF80300002804D0FFE7202009F04F
:1019000081F803E0202009F04BF8FFE743E001985D
:1019100041F60001C4F2020188420ED1FFE79DF8B2
:101920000300002804D0FFE7402009F06BF803E033
:10193000402009F035F8FFE72DE0019841F600411D
:10194000C4F2020188420ED1FFE79DF8030000288F
:1019500004D0FFE7802009F055F803E0802009F06B
:101960001FF8FFE717E0019842F20001C4F20201FC
:10197000884210D1FFE79DF80300002805D0FFE75B
:101980004FF4807009F03EF804E04FF4807009F0E5
:1019900007F8FFE7FFE702B080BD000080B582B026
:1019A0000020C4F2020001210191FFF727FF40F25D
:1019B0000040C4F202000199FFF720FF40F600004A
:1019C000C4F202000199FFF719FF40F60040C4F28B
:1019D00002000199FFF712FF41F20000C4F2020079
:1019E0000199FFF70BFF41F20040C4F20200019998
:1019F000FFF704FF41F60000C4F202000199FFF76F
:101A0000FDFE41F60040C4F202000199FFF7F6FE28
:101A100042F20000C4F202000199FFF7EFFE4FF41A
:101A2000804009F055F902B080BD000040F240004E
:101A3000C2F20000006842F6BC71C2F200010A68FE
:101A4000104408607047000080B50BF0ADFC80BD0D
:101A500080B500F003F8FFE7FEE700001EF0040F7A
:101A60000CBFEFF30880EFF3098000F001B8704776
:101A700081B0009040F23410C2F200000021C16138
:101A8000816141610161C1608160416001600099D3
:101A9000096801600099496841600099896881601E
:101AA0000099C968C1600099096901610099496993
:101AB00041610099896981610099C969C16101BE6B
:101AC00001B0704780B582B00190009101980099F3
:101AD00000F07CF802B080BD80B582B00190019822
:101AE00000F0C8F802B080BD80B584B00A4603900B
:101AF0008DF80B100398019200F0F6F89DF80B108A
:101B0000002906D0FFE70398018B01F0FE01018355
:101B100005E00398018B41F001010183FFE7039881
:101B2000017E00F09DF903990090084600F0A2F8AC
:101B300004B080BD80B582B00190019800F018F922
:101B400002B080BD80B584B00A4603908DF80B10BA
:101B500003989DF80B10019200F082F904B080BD4B
:101B600080B582B00190009101980099FFF7AAFF1B
:101B700002B080BD80B582B001900198FFF7ACFF44
:101B800002B080BD80B584B00A4603908DF80B107A
:101B900003989DF80B100192FFF7A6FF04B080BDDB
:101BA00080B582B001900198FFF7C4FF02B080BDFC
:101BB00080B584B00A4603908DF80B1003989DF809
:101BC0000B100192FFF7BEFF04B080BD80B58EB050
:101BD0000D900C910D98406801210591FFF7FCFDD7
:101BE0000D98C0680599FFF7F7FD0D98416880686A
:101BF0000490084604990AF0CBF80D98C168006972
:101C00000390084603990AF0C3F800200B900A904D
:101C100009900890079006900D998968069105999A
:101C200007910222089209910A910B900D98406841
:101C300006AA1146029209F07BFF0D9909690691E7
:101C40000D99C96801900846029909F071FF0C9935
:101C5000002904D0FFE70C980D99086206E00D9862
:101C600041F28D61C0F600010162FFE700200EB075
:101C700080BD000080B586B0059000208DF813006F
:101C80000598C16800690390084603990AF080F836
:101C90000598416880680290084602990AF078F831
:101CA0000598C08A012805DBFFE70598016AC08A0C
:101CB0008847FFE70598C1680069019008460199C7
:101CC00009F0A0FF002818BF01208DF81300059827
:101CD0004168806800900846009909F0C7FF9DF8A8
:101CE000130006B080BD000080B586B00590059851
:101CF000C16800690490084604990AF049F80598FB
:101D0000416880680390084603990AF041F80598F5
:101D1000C08A012805DBFFE70598016AC08A884769
:101D2000FFE70598C168006902900846029909F02A
:101D30009DFF0598C08A012805DBFFE70598016A29
:101D4000C08A8847FFE70598416880680190084687
:101D5000019909F08BFF0598C16800690090084659
:101D6000009909F04FFF002818BF012006B080BD80
:101D700080B586B005900598C16800690490084652
:101D8000049909F073FF059841688068039008463C
:101D9000039909F0FDFF0598C08A012805DBFFE7DC
:101DA0000598016AC08A8847FFE70598C1680069FD
:101DB00002900846029909F0EBFF0598C08A0128B5
:101DC00005DBFFE70598016AC08A8847FFE70598A9
:101DD000C168006901900846019909F013FFB0FA43
:101DE00080F0400906B080BD80B586B00A460590F7
:101DF0008DF813109DF813000006002809D5FFE7A1
:101E00000598C168006903900846039909F0C0FF6E
:101E100008E00598C168006902900846029909F037
:101E200025FFFFE705984168806801900846019901
:101E300009F0AEFF0598016AC08A88470220FFF7C3
:101E400045FC05984168806800900846009909F0B3
:101E50000DFF0598016AC08A8847002006B080BD42
:101E600080B584B00A4603908DF80B1000208DF8E1
:101E70000A0003994B68896801901846009209F09E
:101E8000F5FE01988DF80A00FFE79DF80A00072883
:101E900011DCFFE703989DF80B10FFF7A5FF9DF8F5
:101EA0000B1049008DF80B10FFE79DF80A00013078
:101EB0008DF80A00E9E7002004B080BD80B584B049
:101EC00013468C4603908DF80B108DF80A200020E5
:101ED0008DF8090003980078002807D1FFE70398E0
:101EE000817901F083FB8DF80900FFE79DF8090077
:101EF00000281FD1FFE7039802F0B0F903999DF87D
:101F00000B209DF80A300190084611461A4601F050
:101F100005FA8DF809009DF80900002818BF012076
:101F20004FEA40008DF8090003984FF0640102F079
:101F3000B3FB03E001208DF80900FFE79DF80900DD
:101F400004B080BDB0B586B0DDF828C09E4614460A
:101F50000D4605908DF813108DF812208DF8113074
:101F60008DF810C000208DF80F000598007800282B
:101F700007D1FFE70598817901F038FB8DF80F0054
:101F8000FFE79DF80F00002827D1FFE7059802F032
:101F900065F905999DF813209DF812309DF811C040
:101FA0009DF810E06C46C4F800E002900846114627
:101FB0001A46634601F018FA8DF80F009DF80F00DD
:101FC000002818BF01204FEA40008DF80F00059847
:101FD0004FF0640102F060FB03E001208DF80F0078
:101FE000FFE79DF80F0006B0B0BD000080B586B0D9
:101FF0000B4605908DF81310039205989DF8131069
:10200000019301F0F3FA8DF80B009DF80B00002806
:1020100007D1FFE70598039902F012FB8DF80B003A
:10202000FFE79DF80B0006B080BD000080B584B0CE
:10203000039000208DF80B0003980078002807D14A
:10204000FFE70398817901F0D1FA8DF80B00FFE7E3
:102050009DF80B00002819D1FFE7039802F0FEF865
:1020600003990190084601F051FB8DF80B009DF893
:102070000B00002818BF01204FEA40008DF80B002C
:1020800003984FF0640102F007FB03E001208DF894
:102090000B00FFE79DF80B0004B080BD80B582B057
:1020A0000190019801F06EFB02B080BD80B584B054
:1020B000039002910192009303980299019A009B68
:1020C00001F034FC04B080BD80B584B013460390A9
:1020D00002918DF8072000208DF806000398007803
:1020E000002807D1FFE70398817901F07FFA8DF886
:1020F0000600FFE79DF8060000281ED1FFE70398C1
:1021000002F0ACF80399029A9DF807300090084657
:1021100011461A4601F0FAFC8DF806009DF80600FB
:10212000002818BF01204FEA40008DF806000398F0
:102130004FF0640102F0B0FA03E001208DF80600D0
:10214000FFE79DF8060004B080BD000010B586B022
:10215000DDF820C09E461446059004918DF80F20AE
:102160008DF80E30ADF80CC000208DF80B000598EE
:102170000078002807D1FFE70598817901F036FA49
:102180008DF80B00FFE79DF80B00002826D1FFE734
:10219000059802F063F80599049A9DF80F309DF8B0
:1021A0000EC0BDF80CE06C46C4F800E00190084693
:1021B00011461A46634601F0F1FC8DF80B009DF8BC
:1021C0000B00002818BF01204FEA40008DF80B00DB
:1021D00005984FF0640102F05FFA03E001208DF8EA
:1021E0000B00FFE79DF80B0006B010BDB0B588B03E
:1021F000DDF834C0DDF830E01C4615460790069146
:102200008DF817208DF816308DF815E0ADF812C056
:1022100000208DF8110007980078002807D1FFE70B
:102220000798817901F0E2F98DF81100FFE79DF838
:102230001100002829D1FFE7079802F00FF807994D
:10224000069A9DF817309DF816C09DF815E0BDF868
:1022500012406D466C60C5F800E0039008461146D8
:102260001A46634601F016FD8DF811009DF8110025
:10227000002818BF01204FEA40008DF81100079890
:102280004FF0640102F008FA03E001208DF811001C
:10229000FFE79DF8110008B0B0BD000080B584B024
:1022A0001346039002918DF8072000208DF8060058
:1022B00003980078002807D1FFE70398817901F09F
:1022C00095F98DF80600FFE79DF8060000281ED15D
:1022D000FFE7039801F0C2FF0399029A9DF80730C7
:1022E0000090084611461A4601F0CAFD8DF8060016
:1022F0009DF80600002818BF01204FEA40008DF825
:10230000060003984FF0640102F0C6F903E00120D3
:102310008DF80600FFE79DF8060004B080BD0000C0
:1023200080B584B00390029100208DF807000398D7
:102330000078002807D1FFE70398817901F056F96A
:102340008DF80700FFE79DF8070000281BD1FFE785
:10235000039801F083FF0399029A00900846114602
:1023600001F010FE8DF807009DF80700002818BF47
:1023700001204FEA40008DF8070003984FF06401F8
:1023800002F08AF903E001208DF80700FFE79DF8CD
:10239000070004B080BD000080B584B003900291B6
:1023A00000208DF8070003980078002807D1FFE788
:1023B0000398817901F01AF98DF80700FFE79DF87D
:1023C000070000281BD1FFE7039801F047FF03999E
:1023D000029A00900846114601F016FE8DF807009B
:1023E0009DF80700002818BF01204FEA40008DF833
:1023F000070003984FF0640102F04EF903E001205A
:102400008DF80700FFE79DF8070004B080BD0000CD
:1024100080B586B09C469646059004918DF80F20B5
:10242000ADF80C3000208DF80B00059800780028DE
:1024300007D1FFE70598817901F0D8F88DF80B00F6
:10244000FFE79DF80B00002821D1FFE7059801F078
:1024500005FF0599049A9DF80F30BDF80CC0019056
:10246000084611461A46634601F0EEFD8DF80B0052
:102470009DF80B00002818BF01204FEA40008DF89E
:102480000B0005984FF0640102F006F903E001200B
:102490008DF80B00FFE79DF80B0006B080BD000033
:1024A00080B582B0019000910198009902F0C8F8BF
:1024B00002B080BD80B584B00A4603908DF80B1041
:1024C00003989DF80B10019202F0FAF804B080BD59
:1024D00070B588B0DDF834C0DDF830E01C46154634
:1024E000079006918DF817208DF816308DF815E0BD
:1024F000ADF812C0079806999DF817209DF8163080
:102500009DF815C0BDF812E06E46C6F804E0C6F8A6
:1025100000C00394029502F041FC08B070BD0000B9
:1025200080B584B01346039002918DF807200020F7
:102530008DF8060003980078002807D1FFE703987C
:10254000817901F053F88DF80600FFE79DF8060049
:1025500000281ED1FFE7039801F080FE0399029A3C
:102560009DF807300090084611461A4602F090FC8C
:102570008DF806009DF80600002818BF01204FEADC
:1025800040008DF8060003984FF0640102F084F8D3
:1025900003E001208DF80600FFE79DF8060004B077
:1025A00080BD000080B584B00A4603908DF80B1002
:1025B00000208DF80A0003980078002807D1FFE773
:1025C0000398817901F012F88DF80A00FFE79DF871
:1025D0000A0000281CD1FFE7039801F03FFE039991
:1025E0009DF80B2001900846114602F013FD8DF86E
:1025F0000A009DF80A00002818BF01204FEA400099
:102600008DF80A0003984FF0640102F045F803E0EA
:1026100001208DF80A00FFE79DF80A0004B080BD94
:1026200080B584B013468C4603908DF80B108DF85E
:102630000A2003989DF80B109DF80A200193CDF80D
:1026400000C0FFF73BFC04B080BD000070B586B051
:10265000DDF828C09E4614460D4605908DF81310EF
:102660008DF812208DF811308DF810C005989DF866
:1026700013109DF812209DF811309DF810C06E4681
:10268000C6F800C0CDF80CE002940195FFF75AFCA3
:1026900006B070BD80B584B00B4603908DF80B106A
:1026A000019203989DF80B10019A0093FFF79EFC8E
:1026B00004B080BD80B582B001900198FFF7B6FCF0
:1026C00002B080BD80B582B001900198FFF7E6FCB2
:1026D00002B080BD80B584B0039002910192009356
:1026E00003980299019A009BFFF7E0FC04B080BDBB
:1026F00080B584B01346039002918DF807200398AB
:1027000002999DF807200093FFF7DEFC04B080BD1E
:10271000B0B586B0DDF828C09E46144605900491F9
:102720008DF80F208DF80E30ADF80CC00598049987
:102730009DF80F209DF80E30BDF80CC06D46C5F811
:1027400000C0CDF808E00194FFF700FD06B0B0BD71
:1027500070B588B0DDF834C0DDF830E01C461546B1
:10276000079006918DF817208DF816308DF815E03A
:10277000ADF812C0079806999DF817209DF81630FD
:102780009DF815C0BDF812E06E46C6F804E0C6F824
:1027900000C003940295FFF729FD08B070BD00004A
:1027A00080B584B01346039002918DF807200398FA
:1027B00002999DF807200093FFF770FD04B080BDDB
:1027C00080B582B00190009101980099FFF7A8FDB3
:1027D00002B080BD80B582B001900091019800994F
:1027E000FFF7DAFD02B080BD80B584B0039002919E
:1027F000FDF7FCFFADF806009DF8070002994A1CA2
:10280000029208709DF8060002990870002004B03A
:1028100080BD000080B586B09C4696460590049128
:102820008DF80F20ADF80C30059804999DF80F2015
:10283000BDF80C30CDF808C0CDF804E0FFF7E8FD96
:1028400006B080BD80B582B00190009101980099DA
:10285000FFF726FE02B080BD80B584B00A46039023
:102860008DF80B1003989DF80B100192FFF722FED4
:1028700004B080BD80B588B01346079006918DF8EE
:10288000172000208DF81600069904900846049938
:1028900003930CF0F5FD9DF81710002918BF0121D6
:1028A000069A117306990A6F4B7A097B1944515C99
:1028B000A1F110010A460C29029264D80299DFE8BE
:1028C00001F0070E151C232A31383F464D545B009A
:1028D0000798069900F0D0F88DF8160057E0079891
:1028E000069900F05FF88DF8160050E007980699F9
:1028F00000F0E6F98DF8160049E00798069900F017
:1029000095FB8DF8160042E00798069900F082F9D1
:102910008DF816003BE00798069900F033FB8DF820
:10292000160034E00798069900F024FA8DF8160096
:102930002DE00798069900F0D3FB8DF8160026E0ED
:102940000798069900F0E0FB8DF816001FE0079845
:10295000069900F055FA8DF8160018E007980699C8
:1029600000F034F98DF8160011E00798069900F090
:102970005FFA8DF816000AE00798069900F0A2FAAF
:102980008DF8160003E001208DF81600FFE7069889
:102990009DF816100CF090FD9DF816100190084659
:1029A00008B080BD80B586B00590049100208DF8F8
:1029B0000F000498016F827A007B1044085C0028A5
:1029C00006D1FFE70598FFF775FE8DF80F003FE091
:1029D0000498016F827A007B1044085C012817D1AB
:1029E000FFE7059804990A6F8B7A097B1944114413
:1029F0004A788B7891F803C00979EE46CEF800103A
:102A000011461A466346FFF721FE8DF80F001EE0BF
:102A10000498016F827A007B1044085C022811D16F
:102A2000FFE7059804990A6F8B7A097B19441144D2
:102A30004A78897802911146029AFFF7F1FD8DF8E4
:102A40000F0003E0FF208DF80F00FFE7FFE7FFE72F
:102A50000498016F827A007B1044085C002806D03D
:102A6000FFE704989DF80F100CF00AFDFFE79DF8B2
:102A70000F0006B080BD000080B584B003900291C5
:102A800000208DF807000298016F827A007B1044C5
:102A9000085C012812D1FFE7039802990A6FCB7AEC
:102AA000097B03EB010C12F80CC01A4411444A1CB8
:102AB0006146FFF7EFFD8DF807001CE00298016FFB
:102AC000827A007B1044085C02280DD1FFE703984E
:102AD00002990A6FCB7A097B1A4411440131FFF73E
:102AE000B1FE8DF8070005E00398FFF7EBFD8DF8C8
:102AF0000700FFE7FFE79DF8070004B080BD000076
:102B000080B586B01346049003918DF80B2003988E
:102B1000002852D0FFE7049800284ED0FFE7039822
:102B20000CF0E6FC012842D1FFE703980CF098FC7A
:102B300000282CD1FFE703980CF09AFC002826D13E
:102B4000FFE703989DF80B100CF0A8FC0499039A7A
:102B50009DF80B300190084611461A46FFF78AFE91
:102B6000039991F8291001290CD1FFE703980D2151
:102B70000CF086FC03990A220090084611460CF0DE
:102B80007FFCFFE7039800210CF0A4FC09E0039808
:102B900001794A1E42F29321C0F601010DF058FE60
:102BA000FFE703980CF00EFD8DF8170009E003987D
:102BB0000CF010FD8DF8170003E002208DF81700CF
:102BC000FFE79DF8170006B080BD000080B584B017
:102BD0000390029100208DF80700039802994A6C37
:102BE000498D1144029A136F92F80AC0127B624415
:102BF0009A5CFFF77DFD8DF807000298016F827ADD
:102C0000037B1A44895C428D114441859DF807007D
:102C100004B080BD80B584B00390029100208DF88F
:102C20000700ADF804000298B0F85E00FE280ADC48
:102C3000FFE70298016FC27A007B10440844407895
:102C4000ADF8040016E00298016FC27A007B1044D0
:102C500008444078ADF80400BDF8040002990A6FFA
:102C6000CB7A097B19441144897841EA0020ADF8F8
:102C70000400FFE7039802994A6C498D1144029AB7
:102C8000136F92F80AC092F80BE0127B944413F889
:102C90000CC072449B5CBDF80420EE46CEF80020C8
:102CA0006246FFF735FD8DF80700BDF80400029974
:102CB0004A8D104448859DF8070004B080BD00008F
:102CC00010B586B00590049100208DF80F00ADF886
:102CD0000C000498B0F85E00FE280ADCFFE70498B8
:102CE000016FC27A007B104408448078ADF80C0074
:102CF00016E00498016FC27A007B10440844807883
:102D0000ADF80C00BDF80C0004990A6FCB7A097B72
:102D100019441144C97841EA0020ADF80C00FFE7DE
:102D2000059804994A6C498D1144049A136F92F8DE
:102D30000AC092F80BE0127B944413F80CC0724462
:102D400003EB020E9B5C9EF80120BDF80CE06C4684
:102D5000C4F804E022606246FFF7FAFC8DF80F0029
:102D6000BDF80C0004994A8D104448859DF80F0069
:102D700006B010BD80B584B00390029100208DF89C
:102D800007000298016F827A007B1044085C0028DB
:102D900023D1FFE7039802994A6C498D1144029AA6
:102DA000136F92F80BC0127B62449A5CFFF7F8FC39
:102DB0008DF807000298016FC27A007B1044085C0E
:102DC000002805D0FFE70298418D01314185FFE7DA
:102DD0000298418D023141850DE0039802994A6CB9
:102DE000498D1144FFF7F6FC8DF807000298418DDC
:102DF00001314185FFE79DF8070004B080BD000068
:102E000080B584B00390029100208DF807000398EC
:102E100002994A6C498D1144FFF7D2FC8DF80700E6
:102E20000298418D033141859DF8070004B080BDB3
:102E300080B584B00390029100208DF80700ADF8B2
:102E400004000298B0F85E00FE2809DCFFE7029853
:102E5000016FC27A007B1044085CADF8040015E0F5
:102E60000298016FC27A007B1044085CADF8040040
:102E7000BDF8040002990A6FCB7A097B194411440A
:102E8000497841EA0020ADF80400FFE70398029971
:102E90004A6C498D1144029A136F92F80AC0127B52
:102EA00062449A5CBDF80430FFF7B4FC8DF807006B
:102EB000BDF8040002994A8D104448859DF807002A
:102EC00004B080BD80B584B00390029100208DF8DD
:102ED00007000298016F827A007B1044085C012889
:102EE00011D1FFE7039802994A6C8B7A097B1A4447
:102EF00011440131FFF778FC8DF807000298418DED
:102F00000231418523E00298016F827A007B1044F0
:102F1000085C02280DD1FFE7039802990A6F8B7AAB
:102F2000097B1A441144013100F064F98DF807005F
:102F30000CE0039802990A6F8B7A097B19441144BB
:102F40004978FFF789FC8DF80700FFE7FFE79DF858
:102F5000070004B080BD000080B584B003900291EA
:102F600000208DF807000399029A00900846114648
:102F7000009AFFF7C5FD8DF807009DF8070004B023
:102F800080BD000010B586B00590049100208DF83A
:102F90000F00ADF80C000498B0F85E00FE280DDCC0
:102FA000FFE70498016FC27A007B10440844407820
:102FB000ADF80C0002208DF80F0019E00498016FA5
:102FC000C27A007B104408444078ADF80C00BDF88C
:102FD0000C0004990A6FCB7A097B19441144897853
:102FE00041EA0020ADF80C0003208DF80F00FFE748
:102FF000059804990A6F8B7A91F80BC0097B02EB54
:103000000C0E8E449DF80F40A6440B44D35C6144E3
:10301000515CBDF80C20EC46CCF8002002917146C2
:103020001A46029B00F080F806B010BD10B586B0BD
:103030000590049100208DF80F00ADF80C00049865
:10304000B0F85E00FE280DDCFFE70498016FC27A3D
:10305000007B104408448078ADF80C0003208DF804
:103060000F0019E00498016FC27A007B10440844F5
:103070008078ADF80C00BDF80C0004990A6FCB7A8B
:10308000097B19441144C97841EA0020ADF80C00CD
:1030900004208DF80F00FFE7059804990A6F8B7ADA
:1030A00091F80BC0097B02EB0C0E8E449DF80F408B
:1030B000A6440B44D35C614402EB010C515C9CF8C8
:1030C0000120BDF80CC06C46C4F804C02260029117
:1030D00071461A46029B00F047F806B010BD00008A
:1030E00080B582B001900091019800990A6F8B7AA7
:1030F00091F80BC0097B94448C441944525C61469E
:1031000000F05AF802B080BD80B582B00190009105
:10311000019800990A6F8B7A097B1944515C00F081
:103120005BF802B080BD0000B0B586B0DDF828C005
:103130009E461446059004918DF80F208DF80E30B0
:10314000ADF80CC0059804999DF80F209DF80E303D
:10315000BDF80CC06D46C5F800C0CDF808E001947C
:1031600001F0DCFC06B0B0BD70B588B0DDF834C04D
:10317000DDF830E01C461546079006918DF81720C3
:103180008DF816308DF815E0ADF812C00798069945
:103190009DF817209DF816309DF815C0BDF812E077
:1031A0006E46C6F804E0C6F800C003940295FFF727
:1031B0008FF908B070BD000080B584B0134603904D
:1031C00002918DF80720039802999DF8072000933B
:1031D000FFF7A6F904B080BD80B584B00A4603901D
:1031E0008DF80B1003989DF80B100192FFF7DAF998
:1031F00004B080BD80B586B0059004910498411C50
:1032000004910078ADF80E00BDF80E0004994A1C38
:103210000492097841EA0020ADF80E00BDF80E10C6
:10322000002009F073FC04990978012910DBFFE7FD
:1032300041F20000C4F202000821029008F02AFDC9
:103240001021029808F0B4FD0120FEF717FA0CE0F7
:1032500041F20000C4F202001021019008F01AFDB2
:103260000821019808F016FDFFE7002006B080BD98
:1032700080B582B0019000208DF8030001980028ED
:1032800032D0FFE7019800F0E9FF8DF803000198C4
:1032900040F22801C2F200010968884207D1FFE725
:1032A00043F2F120C0F600000BF0F2F81BE00198A9
:1032B000002807D1FFE743F20530C0F600000BF00D
:1032C000E7F80FE00198002807D1FFE743F211303B
:1032D000C0F600000BF0DCF803E001208DF80300DD
:1032E000FFE7FFE7FFE7FFE79DF8030002B080BDBF
:1032F00080B540F22800C2F20000006801F0DEFB59
:1033000080BD000080B5002001F0D8FB80BD00002A
:1033100080B5002001F0D2FB80BD000080B586B0F2
:1033200013468C4605908DF813108DF8122000205E
:103330008DF811008DF81000ADF80E009DF8130007
:103340000193CDF800C009F097FC02900298002884
:1033500004D1FFE701208DF811003DE000208DF839
:103360001000FFE79DF810009DF81210884232DA35
:10337000FFE705980299BDF80E209DF8133000F084
:1033800069FC8DF811009DF81100002804D0FFE7BA
:1033900002208DF811001FE002989DF81320FF21F4
:1033A000FDF700FF8DF811009DF81100002804D0F2
:1033B000FFE703208DF811000EE09DF81300BDF823
:1033C0000E100844ADF80E00FFE79DF81000013024
:1033D0008DF81000C6E7FFE7029809F037FC9DF86A
:1033E000110006B080BD0000B0B58AB0DDF838C06D
:1033F0009E4614460D4609908DF823108DF8222024
:103400008DF821308DF820C000208DF81F00ADF818
:103410001C00ADF81A00ADF8180005909DF82300C7
:10342000ADF81C00BDF81C009DF8221041EA0020F8
:10343000ADF81C009DF82100ADF81A00BDF81A0087
:103440009DF8201041EA0020ADF81A00BDF81C00DC
:10345000CDF80CE00294019509F00EFC049004985C
:10346000002804D1FFE701208DF81F003BE0002079
:10347000ADF81800FFE7BDF81800BDF81A10884233
:1034800030DAFFE709980499059ABDF81C3000F07E
:10349000D7FC8DF81F009DF81F00002804D0FFE71F
:1034A00002208DF81F001EE00498BDF81C20FF21AB
:1034B000FDF778FE8DF81F009DF81F00002804D04E
:1034C000FFE703208DF81F000DE0BDF81C000599F3
:1034D00001EB50000590FFE7BDF818000130ADF892
:1034E0001800C8E7FFE7049809F0B0FB9DF81F003B
:1034F0000AB0B0BD80B584B0039003982830012194
:103500000AF08AF8039900224A700399CB69096A84
:1035100002901846019208F043FC019804B080BD67
:1035200081B00090009800210170009841700098CF
:103530000F22827000984162009841710098817159
:103540000098C171009801810098818100984FF422
:10355000FA72C2820098C0F80E100098C0F81210DB
:10356000009840F60042C4F20202C26100984FF493
:1035700080420262009840F20043C4F202030364F6
:1035800000984FF4805CC0F844C0009883630098B2
:103590004FF4005CC0F83CC000980363009842639D
:1035A0000098836200984FF40042C262009805229E
:1035B0008266009843F60002C4F20002826400981A
:1035C000C166009880F84E10009880F84F100846A9
:1035D00001B0704781B00090002001B0704700003A
:1035E00081B00090002001B07047000080B58EB01F
:1035F0000A460C908DF82F1012208DF82E000C9892
:1036000081780A9200F0F4FE0C990990084600F0C7
:1036100025FAFFE79DF82E00411E8DF82E10002898
:1036200063D0FFE740F24800C2F2000000680C9946
:103630006A4600231360AC224FF0530C08900846F2
:1036400011466246DDF820C0E0470C99097D5329F8
:103650000ED1FFE70C98012101709DF82F000C9905
:1036600088710C98FFF704FE00218DF8371048E0B0
:103670000C98C07800280FD1FFE70C9880780428B8
:1036800005DBFFE70C9881780139817003E00C9825
:1036900003218170FFE705E09DF82E0001388DF8C9
:1036A0002E00FFE70C98817800F0A2FE0C990A6CBE
:1036B000496C0790104608F073FB0C98406A012192
:1036C00006900846069A059190470C98016C406C4C
:1036D00004900846049908F0D3FA0C98406A0599BA
:1036E00003900846039A904794E70C98C169006AD2
:1036F00002900846029908F053FB01208DF837002C
:10370000FFE79DF837000EB080BD000080B586B0A1
:10371000059000208DF8130040F24801C2F200012C
:103720000968059A6B461860AC234FF0800C039033
:103730001046029119466246039BDDF808C0E04737
:103740008DF813009DF81300002817D1FFE70598A6
:10375000807900280BD0FFE7059800F005FD8DF873
:1037600013009DF8130080308DF8130005E00598D4
:10377000416A00790A308847FFE7FFE79DF81300A8
:1037800006B080BD80B584B003900398FFF7B2FE09
:103790000399C978002904D1FFE703980F218170AC
:1037A000FFE703980021C171039881810398FF22EC
:1037B000427103980170039881710398029100F09F
:1037C0005DFD02990190084604B080BD2DE9F047E7
:1037D00098B0179017982830012109F01DFF17990C
:1037E00028310C90084609F025FF0DA928220B90DE
:1037F00008461146FCF71CFD00200D904FF4827125
:103800000E910F90179890F84E0000280BD1FFE70B
:10381000002010901798816BC06B0A9008460A9997
:1038200008F02EFA02E002201090FFE7179890F8B7
:103830004E00002803D1FFE70020119002E0012094
:103840001190FFE74FF40070129038201390002081
:103850001490159007211691179928310D9A0E9BF7
:10386000DDF83CC0DDF840E0119C129D139E149FD2
:10387000DDF85480DDF85890EA46CAF81890CAF886
:103880001480CAF81070CAF80C60CAF80850CAF858
:103890000440CAF800E00990084611461A466346FB
:1038A00009F0D0FE179901224A700999089008463C
:1038B00018B0BDE8F0870000B0B586B0DDF828C0CC
:1038C0009E4614460D4605908DF813108DF8122073
:1038D0008DF811308DF810C005980021C0F80E1039
:1038E0000598C0F812109DF81300059988739DF88B
:1038F00012000599C8739DF81100059908749DF888
:10390000100005994874059800F1280100F10E0295
:1039100012300423039008461146039ACDF808E0BC
:103920000194009509F0D2FE06B0B0BD80B58EB00E
:103930000C900B910A9209930C9800280DD0FFE788
:103940000C9840F22801C2F200010968884204D1B3
:10395000FFE70C98FFF7E4FD1DE00C98002808D065
:10396000FFE70C98002804D1FFE70C98FFF732FE20
:1039700010E00C98002808D0FFE70C98002804D12C
:10398000FFE70C98FFF72CFE03E001208DF83700CD
:103990005FE0FFE7FFE70A98002804D0FFE70A98F6
:1039A0000C99486206E00C9841F27D61C0F6000176
:1039B0004162FFE70B98002804D0FFE70B980C99B1
:1039C000086706E00C9841F28D61C0F600010167BE
:1039D000FFE70998002804D0FFE709980C99486789
:1039E00006E00C984EF2B141C0F600014167FFE7D6
:1039F0000C98C069002823D0FFE70C98C06901210A
:103A00000291FDF7E9FE00200890079006900590CE
:103A100004900390029904910591069007910890F3
:103A20000C98006A03900C98C06903A908F080F80C
:103A30000C99CA69096A0190104608F0B1F9FFE7CC
:103A40000C98406F80470C99886100208DF83700F2
:103A5000FFE79DF837000EB080BD000080B58CB048
:103A60000B900B98016C406C01220A9008460A9951
:103A7000099208F0E5F90B98816BC06B0890084635
:103A8000089908F0FDF80B98016C406C0790084607
:103A9000079908F0F5F80B98816BC06B0690084603
:103AA000069908F0EDF80B98016C406C05900846FB
:103AB000059908F0E5F80B98406A099904900846C2
:103AC000049A90470B98016C406C03900846039948
:103AD00008F066F90B98406A099902900846029A24
:103AE00090470B98016C406C01900846019908F0D2
:103AF000C7F80B98406A099900900846009A9047C9
:103B00000B98FF21417100200CB080BD80B586B0BC
:103B10001346059004918DF80F2000208DF80E00BB
:103B20008DF80D00FFE79DF80D009DF80F108842FD
:103B30002FDAFFE740F24800C2F200000068059962
:103B40009DF80D306A464FF0000CC2F800C03822D4
:103B50000290084611466246DDF808C0E0478DF83D
:103B60000E009DF80E00002806D0FFE79DF80D001E
:103B700002308DF80E000CE00598407D04999DF808
:103B80000D208854FFE79DF80D0001308DF80D00E1
:103B9000C9E79DF80E0006B080BD000010B586B0E4
:103BA000DDF820C09E461446059004918DF80F2044
:103BB0008DF80E30ADF80CC000208DF80B00ADF87C
:103BC0000800FFE7BDF80800BDF80C1088423CDA99
:103BD000FFE740F24800C2F20000006805999DF836
:103BE0000F209DF80E30EC464FF0000ECCF800E0B0
:103BF0004FF0A00C019008466146DDF804C0E04794
:103C00008DF80B009DF80B00002801D0FFE71CE0A9
:103C10000598407D04994A1C049208709DF80E0096
:103C200001308DF80E009DF80E00002806D1FFE748
:103C30009DF80F0001308DF80F00FFE7FFE7BDF89A
:103C400008000130ADF80800BCE79DF80B0006B095
:103C500010BD0000B0B588B09C469646079006910E
:103C6000ADF81620ADF8143007980699BDF8162067
:103C7000130AD2B2BDF814406D462C6004921A4665
:103C8000049BCDF80CC0CDF808E0FFF787FF08B023
:103C9000B0BD0000B0B58AB0DDF83CC0DDF838E05A
:103CA0001C461546089007918DF81B208DF81A3098
:103CB0008DF819E0ADF816C000208DF81500ADF8AC
:103CC0001200BDF81600C007002804D0FFE702204C
:103CD0008DF82700AFE0BDF816004008ADF81600DB
:103CE0009DF81B00002811D0FFE708989DF81B10D5
:103CF00000F0B4FE8DF815009DF81500002804D0E2
:103D0000FFE703208DF8270095E0FFE70020ADF8DE
:103D10001200FFE7BDF81200BDF81610884280F2CD
:103D20008580FFE740F24800C2F200000068089971
:103D30009DF81A209DF81930EC464FF0000ECCF893
:103D400000E04FF0200C039008466146DDF80CC0FF
:103D5000E0478DF815009DF81500002804D0FFE716
:103D600004208DF8270066E00898407D07994A1CDA
:103D700007920870FFE740F24800C2F200000068B6
:103D800008999DF81A209DF81930EC464FF0000E66
:103D9000CCF800E04FF0280C029008466146DDF8B0
:103DA00008C0E0478DF815009DF81500002804D0E4
:103DB000FFE705208DF827003DE00898407D079932
:103DC0004A1C07920870FFE79DF8190001308DF832
:103DD00019009DF81900002821D1FFE79DF81A006D
:103DE00001308DF81A009DF81A00002816D1FFE75F
:103DF0009DF81B0001308DF81B0008989DF81B10E2
:103E000000F02CFE8DF815009DF81500002804D058
:103E1000FFE706208DF827000DE0FFE7FFE7FFE74B
:103E2000BDF812000130ADF8120073E79DF81500DF
:103E30008DF82700FFE79DF827000AB0B0BD00000D
:103E400080B588B09C46079006910592ADF8123077
:103E500007980699059ABDF81230EE46CEF8043060
:103E6000D3B2CEF80030C2F30743C2F30722039265
:103E70001A46039BCDF808C0FFF70CFF08B080BDC1
:103E800080B58AB01346089007918DF81B2000205A
:103E90008DF81A0040F24801C2F200010968089A40
:103EA000EC46CCF800004FF0500C05901046049101
:103EB0006146059ADDF814C003936346DDF810E00F
:103EC000F0478DF81A009DF81A00002804D0FFE78B
:103ED00002208DF8270051E00898407D07994A1C80
:103EE0000792087040F24800C2F20000006808998A
:103EF0006A460023136058224FF0080C02900846CF
:103F000011466246DDF808C0E0478DF81A009DF8BA
:103F10001A00002804D0FFE703208DF827002DE0C9
:103F20000898407D07994A1C079208709DF81B006D
:103F300000281AD0FFE740F24800C2F200000068F3
:103F400008996A460023136050224FF0080C019034
:103F5000084611466246DDF804C0E0478DF81A00B5
:103F60000898407D0799087003E00798FF210170C9
:103F7000FFE79DF81A008DF82700FFE79DF827005E
:103F80000AB080BD80B586B00590049100208DF800
:103F90000F008DF80E00FFE79DF80E0002282FDCC1
:103FA000FFE740F24800C2F20000006805999DF862
:103FB0000E306A464FF0000CC2F800C0302202906A
:103FC000084611466246DDF808C0E0478DF80F004C
:103FD0009DF80F00002806D0FFE79DF80E00023084
:103FE0008DF80F000CE00598407D04999DF80E2097
:103FF0008854FFE79DF80E0001308DF80E00CBE7E6
:104000009DF80F0006B080BD80B586B00590049184
:1040100040F24800C2F20000006805996A46002399
:10402000136058220290084611461A46DDF808C06F
:10403000E0478DF80F000598407D049908709DF8C1
:104040000F0006B080BD000080B588B09C46964643
:10405000069005918DF81320ADF8103000208DF8F2
:104060000F008DF80E00BDF81000C007002804D026
:10407000FFE702208DF81F0071E0BDF81000400836
:10408000ADF8100000208DF80E00FFE79DF80E003F
:10409000BDF8101088425DDAFFE740F24800C2F236
:1040A0000000006806999DF813209DF80E301A4410
:1040B0006B464FF0000CC3F800C0D3B23022029020
:1040C000084611466246DDF808C0E0478DF80F004B
:1040D0009DF80F00002804D0FFE703208DF81F0093
:1040E0003DE00698407D05994A1C05920870FFE75F
:1040F00040F24800C2F20000006806999DF81320C3
:104100009DF80E301A446B464FF0000CC3F800C007
:10411000D3B238220190084611466246DDF804C049
:10412000E0478DF80F009DF80F00002804D0FFE74E
:1041300004208DF81F0012E00698407D05994A1C66
:1041400005920870FFE7FFE79DF80E0001308DF83B
:104150000E009BE79DF80F008DF81F00FFE79DF80C
:104160001F0008B080BD000080B588B00790002017
:104170008DF81B0005900490039002900798406F03
:10418000002805D0FFE70798406F80470490FFE7BD
:10419000FFE740F24800C2F20000006807996A4653
:1041A00000231360F0220190084611461A46DDF8FC
:1041B00004C0E0478DF81B009DF81B00002801D0CB
:1041C000FFE747E00798407DC007002804D1FFE7DC
:1041D00000208DF81B003DE00798406F002824D098
:1041E000FFE70798406F804705900598049988423B
:1041F00008D2FFE704980599C043084400210391C1
:10420000029006E005980499401A0021039102905B
:10421000FFE702980399653871F1000104D3FFE7C5
:1042200002208DF81B0015E00FE005980130059085
:10423000059848F2A161C0F20101884204D3FFE76A
:1042400003208DF81B0005E0FFE7FFE7FFE700F024
:1042500029FF9EE79DF81B0008B080BD80B582B0A5
:10426000019001984FF4FA71C1820198406F804724
:1042700001998861002002B080BD000080B582B045
:1042800000900098002810D0FFE7009840F2280125
:10429000C2F200010968884207D1FFE743F2F1202A
:1042A000C0F600000AF026FA23E0009800280BD0A0
:1042B000FFE70098002807D1FFE743F20530C0F67A
:1042C00000000AF017FA13E0009800280BD0FFE76F
:1042D0000098002807D1FFE743F21130C0F6000034
:1042E0000AF008FA03E001208DF8070005E0FFE777
:1042F000FFE700208DF80700FFE79DF8070002B0F8
:1043000080BD000080B586B0059005982830012159
:1043100009F082F9059928310490084609F0F4F96A
:10432000059991F84E10002909D1FFE70598816B96
:10433000C06B03900846039907F0A2FC08E00598BB
:10434000816BC06B02900846029907F029FDFFE7D8
:104350000598816AC06A01900846019907F090FCAF
:104360000598016B406B00900846009907F088FCA7
:10437000059801214170002006B080BDB0B586B01F
:10438000DDF828C09E4614460D4605908DF81310A2
:104390008DF812208DF811308DF810C0059800218D
:1043A000C0F80E100598C0F812109DF8130005997A
:1043B00088739DF812000599C8739DF8110005993E
:1043C00008749DF8100005994874059800F12801BB
:1043D00000F10E0212300423039008461146039A9E
:1043E000CDF808E00194009509F0A0F906B0B0BD41
:1043F00080B586B00A4605908DF813109DF813001D
:10440000013801461128039100F2A7800399DFE8E3
:1044100001F009131D262F38414A535C646C747CEB
:10442000848C949C0598002180F84D1005984FF4D9
:104430007A71A0F8621098E00598002180F84D107C
:1044400005984FF4FA71A0F862108EE005980021EB
:1044500080F84D100598FA21A0F8621085E00598C3
:10446000002180F84D1005987C21A0F862107CE0B6
:104470000598002180F84D1005983C21A0F86210A5
:1044800073E00598002180F84D1005981C21A0F8D4
:1044900062106AE00598002180F84D1005980C2103
:1044A000A0F8621061E00598002180F84D10059891
:1044B0000421A0F8621058E00598002180F84D1002
:1044C00005980321A0F862104FE00598002180F8BC
:1044D0004D100598A0F8621047E00598012180F87A
:1044E0004D100598382141663FE00598012180F87C
:1044F0004D1005983021416637E00598012180F87C
:104500004D100598282141662FE00598012180F87B
:104510004D1005982021416627E00598012180F87B
:104520004D100598182141661FE00598012180F87B
:104530004D1005981021416617E00598012180F87B
:104540004D100598082141660FE00598012180F87B
:104550004D1005980021416607E00598012180F87B
:104560004D10059838214166FFE7059890F84D00F9
:10457000012831D1FFE70598407800280CD0FFE7EB
:1045800040F24800C2F20000006844F27D31C0F6FB
:104590000001884204D1FFE70598FFF717F9FFE70C
:1045A000059880780F2804DBFFE7059820214166F5
:1045B000FFE7059800F12801406E02900846029935
:1045C00009F098F840F24801C2F2000143F6B9023E
:1045D000C0F600020A6028E00598407800280CD058
:1045E000FFE740F24800C2F20000006843F6B9015C
:1045F000C0F60001884204D1FFE70598FFF782FE6C
:10460000FFE7059800F12801B0F862000190084624
:10461000019909F081F840F24801C2F2000144F228
:104620007D32C0F600020A60FFE70598C169006AA2
:1046300000900846009907F023FB002006B080BDDB
:1046400082B0019000910098411C0091007801997E
:1046500008810198008900994A1C0092097841EA72
:104660000020019908810098411C0091007801996F
:1046700048810198408900994A1C0092097841EAD2
:104680000020019948810098411C0091007801990F
:10469000C871002002B0704780B584B00A4603900C
:1046A000ADF80A10BDF80A000399C8820398406F5C
:1046B0000192804703998861002004B080BD00000A
:1046C00082B00A4601908DF803109DF8030012286D
:1046D00005DBFFE79DF8030012280DD1FFE79DF8E9
:1046E0000300012808DBFFE701980121C1709DF854
:1046F00003000199887006E001980021C1700198BB
:104700000F218170FFE7002002B07047B0B588B07C
:1047100013468C4607908DF81B108DF81A20002048
:104720008DF8190040F24801C2F200010968079AA9
:104730009DF81BE09DF81A406D462860C220059048
:104740001046059A04911146724603932346DDF8FC
:1047500010E0CDF808C0F0478DF819009DF8190059
:10476000002817D1FFE70798807900280BD0FFE7D2
:104770000798FFF7F9FC8DF819009DF819008030B3
:104780008DF8190005E00798416A00790A308847DA
:10479000FFE7FFE79DF8190008B0B0BD80B584B011
:1047A0000A460390ADF80A100398BDF80A100B0AE8
:1047B000C9B201911946019B00921A46FFF7A6FF64
:1047C00004B080BD80B586B00490039100208DF8C0
:1047D0000B008DF80A00FFE79DF80A00049949894B
:1047E00088422DDAFFE740F24800C2F2000000687C
:1047F00004999DF80A30039A02F1010CCDF80CC01F
:104800001278EC46CCF80020C1224FF0000C019049
:10481000084611466246DDF804C0E0478DF80B00FB
:104820009DF80B00002804D0FFE703208DF8170047
:104830000BE0FFE79DF80A0001308DF80A00CBE796
:104840009DF80B008DF81700FFE79DF8170006B0E4
:1048500080BD000010B584B09C4696460C4603907F
:104860008DF80B108DF80A208DF8093000208DF896
:1048700008009DF80B00002808D0FFE703989DF87A
:104880000B1000F0EBF88DF80800FFE79DF808002A
:10489000002836D1FFE740F24800C2F2000000686D
:1048A00003999DF80A209DF80930EC464FF0000E60
:1048B000CCF800E04FF04C0C019008466146DDF862
:1048C00004C0E0478DF808009DF80800002817D1C3
:1048D000FFE70398807900280BD0FFE70398FFF7E4
:1048E00043FC8DF808009DF8080080308DF8080022
:1048F00005E00398416A007905308847FFE7FFE744
:10490000FFE79DF8080004B010BD000080B584B03A
:104910000390029103980299C1F30742C1F3072360
:10492000C9B2019111461A46019BFFF793FF04B0EB
:1049300080BD000080B588B09C46964606900591E3
:104940008DF81320ADF8103000208DF80F008DF891
:104950000E00BDF81000C007002804D0FFE70220B9
:104960008DF81F0075E0BDF810004008ADF810008C
:1049700000208DF80E00FFE79DF80E00BDF8101026
:1049800088425BDAFFE740F24800C2F200000068AC
:1049900006999DF813209DF80E301A44059B03F1EB
:1049A000010CCDF814C01B78EC46CCF80030D3B223
:1049B00040224FF0000C0290084611466246DDF896
:1049C00008C0E0478DF80F009DF80F00002804D0C4
:1049D000FFE703208DF81F003BE040F24800C2F2E1
:1049E0000000006806999DF813209DF80E301A44C7
:1049F000059B03F1010CCDF814C01B78EC46CCF8F4
:104A00000030D3B248224FF0000C01900846114606
:104A10006246DDF804C0E0478DF80F009DF80F00F6
:104A2000002804D0FFE704208DF81F0011E0FFE705
:104A30009DF80E0001308DF80E009DE7BDF81000C6
:104A400006998A89104488819DF80F008DF81F000F
:104A5000FFE79DF81F0008B080BD000080B584B05E
:104A60000A4603908DF80B1000208DF80A00039879
:104A700040799DF80B1088421CD0FFE79DF80B0091
:104A80000399487140F24800C2F20000006803999F
:104A90009DF80B306A464FF0000CC2F800C04D2262
:104AA0000190084611466246DDF804C0E0478DF8E3
:104AB0000A00FFE79DF80A0004B080BD80B584B00D
:104AC000039000200290019003980078002822D0E3
:104AD000FFE70398406F804702900398806902992E
:104AE000884207D9FFE7039880690299C0430844C8
:104AF000019005E0029803998969401A0190FFE747
:104B000001980399C98A884204D9FFE70398FEF700
:104B100039FEFFE7FFE704B080BD000010B586B0A6
:104B2000DDF820C09E461446049003918DF80B20BA
:104B30008DF80A30ADF808C00498C079002810D06C
:104B4000FFE7049803999DF80B209DF80A30BDF803
:104B500008C0EE46CEF800C000F096F88DF81700B9
:104B60000FE0049803999DF80B209DF80A30BDF8DA
:104B700008C0EE46CEF800C000F008F88DF8170027
:104B8000FFE79DF8170006B010BD000010B586B015
:104B9000DDF820C09E461446059004918DF80F2044
:104BA0008DF80E30ADF80CC000208DF80B008DF89C
:104BB0000A00ADF80800FFE7BDF80800BDF80C10CA
:104BC00088425CDAFFE740F24800C2F20000006869
:104BD00005999DF80F209DF80E30DDF810C0BDF846
:104BE00008E01CF80EC0EE46CEF800C04FF0C00C36
:104BF000019008466146DDF804C0E0478DF80B00DF
:104C00009DF80B00002801D0FFE738E00598807977
:104C1000002806D0FFE70598FFF7A6FA8DF80B00ED
:104C200005E00598416A00790A308847FFE79DF85A
:104C30000E0001308DF80E009DF80E00002806D100
:104C4000FFE79DF80F0001308DF80F00FFE79DF89A
:104C50000A0001308DF80A009DF80A00152807DBCC
:104C6000FFE700208DF80A000598FFF7F7FAFFE745
:104C7000FFE7BDF808000130ADF808009CE79DF89B
:104C80000B0006B010BD000010B586B0DDF820C0E6
:104C90009E461446059004918DF80F208DF80E3035
:104CA000ADF80CC000208DF80B000190ADF80200AB
:104CB00005980078002807D1FFE705988179FEF76D
:104CC00095FC8DF80B00FFE79DF80B0000285CD1E8
:104CD000FFE705984089BDF80C10B1FBF0F0ADF886
:104CE0000C000598FFF7BAFA9DF80F100191019991
:104CF0009DF80E2042EA012101910021ADF8021039
:104D0000FFE7BDF80200BDF80C10884238DAFFE773
:104D100005980499FFF756FD8DF80B009DF80B00E0
:104D2000002818BF01204FEA40008DF80B000598BD
:104D3000BDF80410FFF732FD8DF80B009DF80B0055
:104D4000002818BF03208DF80B009DF80B000028E9
:104D500004D0FFE704208DF80B0011E0059840898E
:104D600001990844019005984089049908440490E9
:104D7000FFE7FFE7BDF802000130ADF80200C0E731
:104D800005986421FFF788FC03E001208DF80B00F3
:104D9000FFE79DF80B0006B010BD0000B0B586B06F
:104DA000DDF82CC0DDF828E01C461546059004917E
:104DB0008DF80F208DF80E308DF80DE0ADF80AC09B
:104DC00000208DF80900019005980078002807D18F
:104DD000FFE705988179FEF709FC8DF80900FFE7E8
:104DE0009DF8090000284AD1FFE70598FFF736FA39
:104DF0000599049A0B7BBDF80AC00090084611463D
:104E00001A466346FFF796FD8DF809009DF80900E4
:104E1000002818BF01208DF809009DF8090000281E
:104E200028D1FFE7059881890089814222D1FFE7D7
:104E30009DF80F00019001989DF80E1041EA0020A6
:104E4000019001989DF80D1041EA0020019005980D
:104E50000199FFF75BFD8DF809000598002181811C
:104E60009DF80900002818BF01204FEA40008DF886
:104E70000900FFE705986421FFF70EFC03E001201D
:104E80008DF80900FFE79DF8090006B0B0BD0000ED
:104E900080B58AB01346089007918DF81B2000203A
:104EA0008DF81A0040F24801C2F200010968089A20
:104EB000DDF81CC09CF800C0EE46CEF800C04FF0F4
:104EC000AC0C4FF0A00E059010460491614672465E
:104ED000DDF814C003936346DDF810E0F0478DF869
:104EE0001A009DF81A00002804D0FFE702208DF870
:104EF00027008BE00898807900280BD0FFE70898FE
:104F0000FFF732F98DF81A009DF81A0080308DF8FD
:104F10001A0005E00898416A007905308847FFE7E4
:104F200040F24800C2F2000000680899079A5278DF
:104F30006B461A60AC22A8234FF0000C0290084682
:104F400011461A466346DDF808C0E0478DF81A009E
:104F50009DF81A00002804D0FFE703208DF82700F1
:104F600054E00898807900280BD0FFE70898FFF7F5
:104F7000FBF88DF81A009DF81A0080308DF81A00A1
:104F800005E00898416A007905308847FFE79DF8F9
:104F90001B00002835D0FFE740F24800C2F20000B5
:104FA00000680899079A92786B461A60AC22A4238D
:104FB0004FF0000C0190084611461A466346DDF892
:104FC00004C0E0478DF81A009DF81A00002817D198
:104FD000FFE70898807900280BD0FFE70898FFF7D3
:104FE000C3F88DF81A009DF81A0080308DF81A0069
:104FF00005E00898416A007905308847FFE7FFE738
:10500000FFE79DF81A008DF82700FFE79DF82700BD
:105010000AB080BD80B586B00A4605908DF81310A1
:1050200040F24800C2F20000006805999DF8133074
:1050300043F0C003EC46CCF80030AC234FF0E00C5A
:105040004FF0000E039008461946029262467346DE
:10505000DDF80CC0E0478DF812009DF81200002822
:1050600017D1FFE70598807900280BD0FFE7059856
:10507000FFF77AF88DF812009DF8120080308DF855
:10508000120005E00598416A007905308847FFE77E
:10509000FFE79DF8120006B080BD000080B500F06B
:1050A00005F880BD80B5FFF7F9FF80BD80B543F2FC
:1050B0000000C4F2000006F045FF002080BD0000A3
:1050C00080B584B013468C4603908DF80B108DF894
:1050D0000A2000208DF80900039890F83900002874
:1050E00006D1FFE7039801F0F7FA8DF80900FFE712
:1050F0009DF8090000281FD1FFE7039802F01EF970
:1051000003999DF80B209DF80A300190084611463E
:105110001A4601F0ADF98DF809009DF80900002844
:1051200018BF01204FEA40008DF8090003984FF0A6
:10513000640104F0D5FAFFE79DF8090004B080BDD2
:10514000B0B586B0DDF828C09E4614460D460590E1
:105150008DF813108DF812208DF811308DF810C0D5
:1051600000208DF80F00059890F83900002806D12E
:10517000FFE7059801F0B0FA8DF80F00FFE79DF802
:105180000F00002827D1FFE7059802F0D7F805990E
:105190009DF813209DF812309DF811C09DF810E085
:1051A0006C46C4F800E00290084611461A46634671
:1051B00001F0C4F98DF80F009DF80F00002818BF0A
:1051C00001204FEA40008DF80F0005984FF0640170
:1051D00004F086FAFFE79DF80F0006B0B0BD0000AE
:1051E00080B586B00B4605908DF813100392059894
:1051F000019301F071FA8DF80B009DF80B00002867
:1052000007D1FFE70598039904F03CFA8DF80B00ED
:10521000FFE79DF80B0006B080BD000080B584B0AC
:10522000039000208DF80B00039890F839000028B7
:1052300006D1FFE7039801F04FFA8DF80B00FFE766
:105240009DF80B00002819D1FFE7039802F076F8CB
:1052500003990190084601F069FA8DF80B009DF85A
:105260000B00002818BF01204FEA40008DF80B000A
:1052700003984FF0640104F033FAFFE79DF80B0048
:1052800004B080BD80B582B00190019801F09CFA15
:1052900002B080BD80B584B01346039002918DF8B2
:1052A000072000208DF80600039890F839000028A8
:1052B00006D1FFE7039801F00FFA8DF80600FFE72B
:1052C0009DF8060000281ED1FFE7039802F036F88B
:1052D0000399029A9DF807300090084611461A4635
:1052E00001F0FEFB8DF806009DF80600002818BFAF
:1052F00001204FEA40008DF8060003984FF064014A
:1053000004F0EEF9FFE79DF8060004B080BD000050
:1053100010B586B0DDF820C09E4614460590049175
:105320008DF80F208DF80E30ADF80CC000208DF8F0
:105330000B00059890F83900002806D1FFE7059882
:1053400001F0CAF98DF80B00FFE79DF80B0000286B
:1053500026D1FFE7059801F0F1FF0599049A9DF821
:105360000F309DF80EC0BDF80CE06C46C4F800E0AC
:105370000190084611461A46634601F017FC8DF865
:105380000B009DF80B00002818BF01204FEA4000D9
:105390008DF80B0005984FF0640104F0A1F9FFE7C8
:1053A0009DF80B0006B010BDB0B588B0DDF834C074
:1053B000DDF830E01C461546079006918DF8172061
:1053C0008DF816308DF815E0ADF812C000208DF87C
:1053D0001100079890F83900002806D1FFE70798D8
:1053E00001F07AF98DF81100FFE79DF8110000280F
:1053F00029D1FFE7079801F0A1FF0799069A9DF8C8
:1054000017309DF816C09DF815E0BDF812406D46A6
:105410006C60C5F800E00390084611461A466346E2
:1054200001F086FC8DF811009DF81100002818BFCE
:1054300001204FEA40008DF8110007984FF06401F9
:1054400004F04EF9FFE79DF8110008B0B0BD000070
:1054500080B584B01346039002918DF80720002098
:105460008DF80600039890F83900002806D1FFE770
:10547000039801F031F98DF80600FFE79DF806006A
:1054800000281ED1FFE7039801F058FF0399029A04
:105490009DF807300090084611461A4601F032FD8B
:1054A0008DF806009DF80600002818BF01204FEA7D
:1054B00040008DF8060003984FF0640104F010F9E5
:1054C000FFE79DF8060004B080BD000080B584B001
:1054D0000390029100208DF80700039890F839009E
:1054E000002806D1FFE7039801F0F6F88DF80700D1
:1054F000FFE79DF8070000281BD1FFE7039801F0A4
:105500001DFF0399029A00900846114601F07AFDAA
:105510008DF807009DF80700002818BF01204FEA0A
:1055200040008DF8070003984FF0640104F0D8F8AC
:10553000FFE79DF8070004B080BD000080B584B08F
:105540000390029100208DF80700039890F839002D
:10555000002806D1FFE7039801F0BEF88DF8070098
:10556000FFE79DF8070000281BD1FFE7039801F033
:10557000E5FE0399029A00900846114601F0A0FD4D
:105580008DF807009DF80700002818BF01204FEA9A
:1055900040008DF8070003984FF0640104F0A0F874
:1055A000FFE79DF8070004B080BD000080B586B01D
:1055B0009C469646059004918DF80F20ADF80C306E
:1055C00000208DF80B00059890F83900002806D1CE
:1055D000FFE7059801F080F88DF80B00FFE79DF8D4
:1055E0000B00002821D1FFE7059801F0A7FE0599DF
:1055F000049A9DF80F30BDF80CC001900846114682
:105600001A46634601F0A2FD8DF80B009DF80B00D1
:10561000002818BF01204FEA40008DF80B000598C4
:105620004FF0640104F05CF8FFE79DF80B0006B052
:1056300080BD000080B582B0019000910198009972
:1056400004F020F802B080BD10B586B0DDF820C0AF
:105650009E461446059004918DF80F208DF80E306B
:10566000ADF80CC000208DF80B00059890F83900BB
:10567000002806D1FFE7059801F02EF88DF80B0001
:10568000FFE79DF80B00002826D1FFE7059801F001
:1056900055FE0599049A9DF80F309DF80EC0BDF88F
:1056A0000CE06C46C4F800E00190084611461A462A
:1056B000634604F0AFFC8DF80B009DF80B0000284A
:1056C00018BF01204FEA40008DF80B0005984FF0FD
:1056D000640104F005F8FFE79DF80B0006B010BD6B
:1056E000B0B588B0DDF834C0DDF830E01C461546B2
:1056F000079006918DF817208DF816308DF815E07B
:10570000ADF812C000208DF81100079890F839000C
:10571000002806D1FFE7079800F0DEFF8DF81100A2
:10572000FFE79DF81100002829D1FFE7079801F055
:1057300005FE0799069A9DF817309DF816C09DF84A
:1057400015E0BDF812406D466C60C5F800E00390AE
:10575000084611461A46634604F00AFD8DF811000A
:105760009DF81100002818BF01204FEA40008DF875
:10577000110007984FF0640103F0B2FFFFE79DF8B6
:10578000110008B0B0BD000080B584B0134603908E
:1057900002918DF8072000208DF80600039890F8FC
:1057A0003900002806D1FFE7039800F095FF8DF837
:1057B0000600FFE79DF8060000281ED1FFE70398CA
:1057C00001F0BCFD0399029A9DF80730009008464D
:1057D00011461A4604F042FD8DF806009DF80600B9
:1057E000002818BF01204FEA40008DF806000398FA
:1057F0004FF0640103F074FFFFE79DF8060004B06A
:1058000080BD000080B584B00A4603908DF80B106F
:1058100000208DF80A00039890F83900002806D17E
:10582000FFE7039800F058FF8DF80A00FFE79DF8A6
:105830000A0000281CD1FFE7039801F07FFD0399BF
:105840009DF80B2001900846114604F00DFE8DF8DE
:105850000A009DF80A00002818BF01204FEA400006
:105860008DF80A0003984FF0640103F039FFFFE759
:105870009DF80A0004B080BD80B584B013468C4604
:1058800003908DF80B108DF80A2003989DF80B10EB
:105890009DF80A200193CDF800C0FFF711FC04B079
:1058A00080BD000070B586B0DDF828C09E46144665
:1058B0000D4605908DF813108DF812208DF81130DB
:1058C0008DF810C005989DF813109DF812209DF8D2
:1058D00011309DF810C06E46C6F800C0CDF80CE03F
:1058E00002940195FFF72CFC06B070BD80B584B022
:1058F0000B4603908DF80B10019203989DF80B1046
:10590000019A0093FFF76CFC04B080BD80B582B0B3
:1059100001900198FFF782FC02B080BD80B582B093
:1059200001900198FFF7AEFC02B080BD80B584B055
:105930001346039002918DF80720039802999DF871
:1059400007200093FFF7A6FC04B080BDB0B586B079
:10595000DDF828C09E461446059004918DF80F206E
:105960008DF80E30ADF80CC0059804999DF80F2005
:105970009DF80E30BDF80CC06D46C5F800C0CDF8DE
:1059800008E00194FFF7C4FC06B0B0BD70B588B064
:10599000DDF834C0DDF830E01C461546079006916E
:1059A0008DF817208DF816308DF815E0ADF812C07F
:1059B000079806999DF817209DF816309DF815C098
:1059C000BDF812E06E46C6F804E0C6F800C00394C5
:1059D0000295FFF7E9FC08B070BD000080B584B007
:1059E0001346039002918DF80720039802999DF8C1
:1059F00007200093FFF72CFD04B080BD80B582B076
:105A00000190009101980099FFF760FD02B080BD00
:105A100080B582B00190009101980099FFF78EFD4A
:105A200002B080BD80B584B003900291FAF7DEFE2B
:105A3000ADF806009DF8070002994A1C0292087012
:105A40009DF8060002990870002004B080BD000097
:105A500080B586B09C469646059004918DF80F203F
:105A6000ADF80C30059804999DF80F20BDF80C3066
:105A7000CDF808C0CDF804E0FFF798FD06B080BD72
:105A800080B582B00190009101980099FFF7D2FD96
:105A900002B080BD82B00A4601908DF8031000204C
:105AA00002B0704780B588B01346079006918DF814
:105AB000172000208DF816000699049008460499D6
:105AC000039309F0DDFC9DF81710002918BF012190
:105AD000069A117306990A6F4B7A097B1944515C37
