:020000040800F2
:10000000703F00209D010008557A0008591A000829
:100010008D770008DD0D0008C5B90008000000005C
:10002000000000000000000000000000A98A000895
:10003000E115000800000000697D00082590000817
:1000400021BD0008497D0008B7010008B70100087C
:10005000B7010008397E0008B7010008B7010008A1
:10006000B7010008B7010008B7010008B701000890
:10007000B7010008B7010008B7010008B701000880
:10008000B7010008B7010008B7010008B701000870
:10009000B7010008B7010008B7010008B701000860
:1000A000B7010008B7010008B7010008B701000850
:1000B000E1940008B7010008B7010008B701000883
:1000C000B7010008B7010008B7010008B701000830
:1000D000B70100088D960008B7010008B7010008B5
:1000E000B7010008B7010008B7010008B701000810
:1000F000B7010008B7010008B7010008B701000800
:10010000B7010008B7010008B7010008B7010008EF
:10011000B7010008B7010008B7010008B7010008DF
:10012000091500086515000869150008B7010008E1
:10013000B7010008B7010008B7010008B7010008BF
:10014000B7010008B7010008B7010008B7010008AF
:10015000B7010008B7010008A5150008B70100089D
:10016000B7010008B7010008B7010008B70100088F
:10017000B7010008B7010008B7010008000000003F
:10018000511A0008B7010008DFF80CD000F0E8FAB7
:1001900000480047E1BF0008703F00200648804744
:1001A00006480047FEE7FEE7FEE7FEE7FEE7FEE75C
:1001B000FEE7FEE7FEE7FEE771940008890100080C
:1001C0002DE9F05F0546002092469B46884606468C
:1001D000814640241BE0284641464746224600F01F
:1001E0000FFA53465A46C01A914110D31146184689
:1001F000224600F0F6F92D1A67EB01084F46224619
:100200000120002100F0EDF917EB00094E41201EFE
:10021000A4F10104DFDC484631462A464346BDE8E6
:10022000F09FD2B201E000F8012B491EFBD27047CB
:100230000022F6E710B513460A4604461946FFF7B2
:10024000F0FF204610BD2DE9FE4F804681EA0300F5
:10025000C00F0C46009021F0004123F00045B8EBA0
:100260000200A94105D24046214690461C460B4655
:10027000024623F00040104347D0270DC7F30A0081
:10028000C3F30A510290401A019040286BDAC3F37D
:10029000130040F4801B0098924620B10023D2EB5B
:1002A000030A63EB0B0B01985946C0F1400250461C
:1002B00000F097F906460D4650465946019A00F05F
:1002C000AFF910EB08006141002487EA115284EA7B
:1002D000E7731A4340D0009A62B3019A012A4FEAA9
:1002E000075215DC001B61EB02014FF0004202EAED
:1002F0000752CDE90042001C41F5801132462B46E1
:1003000000F0AFF903B0BDE8F08F40462146F9E7B1
:10031000001B61EB0201001C41F5801300185B41DA
:100320002018A2F5001747EB030140EAD570B61973
:100330006D4111E06D084FEA360645EAC0754FEA97
:100340000752001B61EB0201001C41F580114908B6
:100350004FEA30000019514132462B4603B0BDE848
:10036000F04F00F06FB90098012240000023D0EB5D
:10037000020263EBE073009821464FEAE074B8EBA9
:10038000000061EB0401E9E783F000435BE781F0E3
:10039000004158E72DE9FE4F81EA030404F00044D0
:1003A00021F0004100944FF0000B23F0004350EA8D
:1003B00001045ED052EA03045BD0C3F30A54C1F3D4
:1003C0000A552C44A4F2F3340194A0FB0254C1F367
:1003D000130141F48011C3F3130343F4801301FBB1
:1003E000024400FB034E840A970A44EA815447EA18
:1003F0008357A4FB076802958D0A05FB07854FEA22
:10040000932C04FB0C542705029D4FEA065847EA3B
:100410001637B5EB08056EEB070C870E920E47EA10
:10042000811742EA8312A7FB0201B6EB0B0164EBD2
:1004300000042B0D43EA0C335E1844EB1C50DA46E3
:100440005146E7FB0201C5F313044FEA0B3343EABD
:1004500014534FEA0432019C43EA0603A4F10C044E
:100460000294009CCDE900B400F0FBF803B0BDE8B5
:10047000F08F00200146F9E72DE9F04D81EA0304F1
:1004800004F0004B21F0004514464FF0000A23F021
:10049000004150EA050220D054EA01021DD0C5F304
:1004A0000A570246C5F31303C1F31300C1F30A56FA
:1004B00040F4801543F48013A7EB0608101BD646C2
:1004C00008F2FD3873EB050002D308F1010801E0E2
:1004D00092185B41B8F1000F03DA00200146BDE835
:1004E000F08D00204FF48011064684460EE0171B65
:1004F00073EB050705D3121B63EB050306434CEAB8
:10050000010C49084FEA300092185B4150EA01079C
:10051000EDD152EA030012D082EA040083EA050119
:10052000084305D0101BAB4106D20122002306E090
:1005300000224FF0004302E06FF0010253101AEB6B
:1005400006004CEB085110EB0A0041EB0B01BDE833
:10055000F04D00F077B80EB5C10F80EAE0700844A6
:10056000CA07002140F233438DE80E000A460B46CD
:1005700000F077F803B000BD70B5C1F30A5201F086
:1005800000450024C1F3130140F2FF3341F4801110
:100590009A4201DA002070BD40F233439A42A2F23F
:1005A000334203DC524200F02BF800E090402C4331
:1005B000F1D0404270BD30B50B46014600202022EC
:1005C000012409E021FA02F59D4205D303FA02F560
:1005D000491B04FA02F52844151EA2F10102F1DCC0
:1005E00030BD202A04DB203A00FA02F100207047D7
:1005F0009140C2F1200320FA03F319439040704761
:10060000202A04DB203A21FA02F00021704721FA67
:1006100002F3D040C2F120029140084319467047CE
:10062000202A06DBCB17203A41FA02F043EAE073B6
:1006300006E041FA02F3D040C2F1200291400843A3
:100640001946704710B5141E73F1000408DA401CF7
:1006500041F1000192185B411A4301D120F00100E1
:1006600010BD2DE9F04D92469B4611B1B1FA81F2D1
:1006700002E0B0FA80F220329046FFF7B2FF044663
:100680000F4640EA0A0041EA0B0153465A46084326
:1006900013D0114653EA010019D0C8F14002504668
:1006A000FFF7AEFF05460E46504659464246FFF755
:1006B00098FF084305D0012004E020463946BDE8F4
:1006C000F08D0020054346EAE0762C4337430A9834
:1006D0006305E40AA0EB08000022FD0A44EA47543F
:1006E0000A3002D500200146E9E7010510196941E9
:1006F000DDE9084500196941BDE8F04DA2E7C1F305
:100700000A52C1F3130140F2FF3341F480119A42BF
:1007100002DA00200146704740F233439A42A2F2C7
:10072000334202DC5242FFF76BBFFFF75ABF0000B3
:1007300030B5041E71F1000404DB4FF00044404268
:1007400064EB0101141E73F1000405DB1C464FF03D
:100750000043524263EB0403994208BF904230BD0C
:10076000064C074D06E0E06840F0010394E80700FE
:1007700098471034AC42F6D3FFF70AFD00CE0008CC
:1007800020CE000880B582B00190019800F088F971
:1007900002B080BD80B582B00190019800F0D4F91C
:1007A00002B080BD80B500F011FA80BD80B500F0C8
:1007B00099FA80BD80B582B00190019800F0AAFA44
:1007C00002B080BD80B582B001900198FFF7DAFFDA
:1007D00002B080BD80B582B001900198FFF7DAFFCA
:1007E00002B080BD80B5FFF7DDFF80BD80B5FFF7AB
:1007F000DDFF80BD80B582B001900198FFF7DAFF80
:1008000002B080BD80B582B000F008F8019000F021
:10081000A1F800210090084602B080BD80B598B0D4
:1008200046F20040C4F2020000210890079105F052
:100830007DFB4FF480010690084604F097FE09A85E
:100840003C210590FFF7F4FC0798129012211191BA
:100850000B9014900121159140F21C02C2F200028B
:10086000126806320A924FF4005210924FF48062DE
:100870000E920C9042F24C02C4F2010209921790BF
:100880004FF400620F920D904FF4003213920898CB
:10089000079A04911146059A05F0B0FD0899039056
:1008A0000846079905F07AFD0BF08AFA0499079A31
:1008B00007F0D4F8382102900846029A01911146B7
:1008C0000BF0A6FA01980BF039FA0898079905F091
:1008D00045FD079818B080BD80B584B046F2004051
:1008E000C4F20200002112220390029105F03AFEA8
:1008F0000398029905F052FD42F20000C4F2010093
:10090000019004F035FD01980299029A00F046FA30
:1009100002990090084604B080BD000080B584B004
:1009200046F20040C4F2020000210390029105F05B
:10093000F5FC0398029905F0C5F842F20000C4F2F4
:100940000100019004F00AFD019804F027FC0298D0
:1009500004B080BD80B594B0002013901290119027
:1009600010900F900E900D900C900B900A900990A3
:10097000089042F20001C4F2010107900846069176
:1009800004F06CFC0121069A0590104600F028F94D
:100990000799119112914FF48072139211A9069A3E
:1009A0000490104604F0FCFC07990C910D910E91F7
:1009B00002220F924FF4407210920CA9069A0390F3
:1009C000104604F01FFD4FF440310891079909913A
:1009D0000B9142F20032C4F2010208A902901046C3
:1009E00004F0E4FB4FF400710A22069B01901846C4
:1009F000009204F05BFD07220698009904F08CFD3C
:100A0000069804F0B5FC079814B080BD80B586B098
:100A100046F20040C4F20200012112220590049126
:100A200005F0A0FD0598049905F0B8FC42F20020FD
:100A3000C4F20100039004F09BFC00200290029994
:100A4000039A00F0ABF902990190084606B080BD08
:100A500080B582B046F20040C4F20200012101904C
:100A600005F05CFC019805F06BF9019805F0B0F910
:100A700042F20020C4F20100009004F06FFC0098E4
:100A800004F08CFB002002B080BD000080B582B075
:100A9000FFF7B8FE00210190084602B080BD0000BB
:100AA00080B582B00090009842F20001C4F20101CA
:100AB000884216D1FFE740F21C00C2F20000016834
:100AC00000220A700068C282C0F81220C0F80E200E
:100AD000C0F80A20C0F80620FFF7FEFE8DF80700D8
:100AE0002DE0009842F20011C4F20101884204D1C5
:100AF000FFE700208DF8070021E0009842F2002176
:100B0000C4F20101884216D1FFE740F22000C2F290
:100B10000000016800220A700068C282C0F812203A
:100B2000C0F80E20C0F80A20C0F80620FFF76EFFBC
:100B30008DF8070003E000208DF80700FFE79DF81F
:100B4000070002B080BD000080B582B00090009820
:100B500042F20001C4F2010188420DD1FFE740F2E8
:100B60001C00C2F200000068017801310170FFF73B
:100B7000D5FE8DF8070024E0009842F20011C4F27F
:100B80000101884204D1FFE700208DF8070018E03A
:100B9000009842F20021C4F2010188420DD1FFE722
:100BA00040F22000C2F200000068017801310170BB
:100BB000FFF74EFF8DF8070003E000208DF80700D7
:100BC000FFE79DF8070002B080BD000080B582B04D
:100BD00000F064F80190FFF759FF02B080BD0000FB
:100BE00080B584B00A4602908DF80710029800285C
:100BF00004D1FFE701208DF80F004BE0029842F28C
:100C00000001C4F20101884210D1FFE79DF80700FE
:100C1000002805D0FFE74FF4807004F01FFE04E0C9
:100C20004FF4807004F0F0FDFFE7FFE7029842F216
:100C30000011C4F20101884210D1FFE79DF80700BE
:100C4000002805D0FFE74FF4007004F007FE04E031
:100C50004FF4007004F0D8FDFFE7FFE7029842F27E
:100C60000021C4F20101884210D1FFE79DF807007E
:100C7000002805D0FFE74FF4806004F0EFFD04E0AA
:100C80004FF4806004F0C0FDFFE7FFE700208DF81F
:100C90000F00FFE79DF80F0004B080BD80B58AB05B
:100CA00040F60000C4F2020001210390029100F01E
:100CB00097FD0020099008900790069005900490F9
:100CC00002990491032205920222089204A9039A30
:100CD0000190104605F004FD0199009008460AB005
:100CE00080BD000081B040F21C00C2F2000000682C
:100CF00040880090009806380090009840F6BC416B
:100D0000484300900098400000900098C0F30F30D6
:100D100001B0704780B59AB0199000208DF863003B
:100D20000DF13E0124220490084611460392FFF77C
:100D30007FFA0DF11A000399FFF77AFA1998063035
:100D4000059004988DF86300FFE79DF86300112873
:100D500012DCFFE7059800889DF863100DF13E0254
:100D600022F81100059802300590FFE79DF8630016
:100D700001308DF86300E8E70DF13E00122102908A
:100D800000F0C0FC10210222029B0190184600F0E6
:100D9000B3F91999488000201AB080BD80B584B09D
:100DA0000390029101920398002804D0FFE7039872
:100DB00004F0A8FBFFE70298002804D0FFE70298A0
:100DC00004F0A0FBFFE70198002804D0FFE701989A
:100DD00004F098FBFFE7002004B080BDFFE7FEE7CA
:100DE00080B582B0019000910198009900F064F8FC
:100DF00002B080BD80B582B0019000910198009949
:100E000000F086F802B080BD80B584B003468DF84E
:100E10000F00029101929DF80F000299019A009330
:100E200000F0B2F804B080BD80B582B001900091AE
:100E30000198009900F0EAF802B080BD80B500F09A
:100E400019F980BD80B500F01BF980BD80B582B076
:100E50000190009101980099FFF7C2FF02B080BD98
:100E600080B582B00190009101980099FFF7C2FF10
:100E700002B080BD80B584B003468DF80F000291AA
:100E800001929DF80F000299019A0093FFF7BCFFB1
:100E900004B080BD80B582B00190009101980099A6
:100EA000FFF7C2FF02B080BD80B5FFF7C7FF80BD6E
:100EB00080B5FFF7C7FF80BD84B00390029100208A
:100EC000ADF804000090FFE70098029988421BD219
:100ED000FFE79DF805000399009A895C48408DF86A
:100EE0000700BDF804009DF807104CF65C12C0F630
:100EF000000232F8111081EA0020ADF80400FFE78B
:100F0000009801300090DFE7BDF8040004B070479E
:100F100080B582B0019000910198009900F002F82C
:100F200002B080BD80B586B005900491002003908A
:100F30000290019000F020F801980390FFE70398D9
:100F40000499884210D2FFE705980399405C02900B
:100F5000029943F20000C4F2020004F017FDFFE71B
:100F6000039801300390EAE743F20000C4F2020064
:100F700004F014FD06B080BD80B543F20000C4F259
:100F8000020004F011FD80BD86B003468DF8170005
:100F90000491039200208DF80A000190FFE7019868
:100FA000039988422DD2FFE79DF80A000499019A1F
:100FB000895C48408DF80B009DF817000146072812
:100FC000009104D0FFE7009831280AD013E09DF883
:100FD0000B004CF65C31C0F60001085C8DF80A008D
:100FE0000AE09DF80B004CF65C41C0F60001085C7D
:100FF0008DF80A0000E0FFE7FFE70198013001905B
:10100000CDE79DF80A0006B07047000084B0039059
:101010000291002001908DF803000190FFE70198F4
:10102000029988420DD2FFE703980199405C9DF830
:10103000031008448DF80300FFE701980130019088
:10104000EDE79DF80300C0F580708DF803009DF872
:10105000030004B07047000080B543F20000C4F202
:10106000020004F077FC40F20401C2F20001012208
:101070000A7080BD40F20400C2F2000000787047A0
:1010800080B5FFF7E9FF4FF4805004F081FA40F299
:101090000400C2F200000021017080BD80B500F0A4
:1010A0000DF880BD80B500F017F880BD80B5FFF762
:1010B000F5FF80BD80B5FFF7F5FF80BD80B505F079
:1010C000B3FD002807D0FFE705F09CFD05F042FDC9
:1010D00005F022FDFFE780BD80B505F0ADFD0028DD
:1010E00008D0FFE705F02CFD05F020FD0AF076FFA3
:1010F0000AF060FF80BD000080B588B004AB944664
:101100008E460790ADF81A10ADF818200020059013
:101110000490ADF80E00BDF81800ADF80E00029373
:10112000FFE7BDF80E00BDF81A1088421EDAFFE78F
:101130000798BDF80E1030F81100FFF70CFA41ECDB
:10114000100B029890ED001B53EC102B51EC110B7F
:10115000FFF779F841EC100B029880ED000BFFE7E8
:10116000BDF80E000130ADF80E00DAE704980599DD
:10117000BDF81A20BDF81830D21A0190104600911F
:10118000FFF7E9F941EC100B53EC102B0198009993
:10119000FFF772F941EC100B51EC100BFFF7ECF973
:1011A00008B080BD84B013468C4602908DF80710BD
:1011B000ADF804200020ADF80200FFE7BDF8020002
:1011C000BDF80410884214DAFFE70298BDF8021057
:1011D000405C9DF80710884204D0FFE701208DF89D
:1011E0000F000AE0FFE7BDF802000130ADF8020091
:1011F000E4E700208DF80F00FFE79DF80F0004B032
:101200007047000080B584B002468DF80F0002914F
:101210009DF80F000299019200F034F804B080BDEF
:1012200080B584B00A4603468DF80F008DF80E1085
:101230009DF80F009DF80E100292019300F034F912
:1012400004B080BD80B584B002468DF80F000291D5
:101250009DF80F0002990192FFF7D4FF04B080BD02
:1012600080B584B00A4603468DF80F008DF80E1045
:101270009DF80F009DF80E1002920193FFF7D0FF2A
:1012800004B080BD80B584B002468DF80F00029195
:101290009DF80F0002994FF47A735943019200F0C0
:1012A00003F804B080BD000080B584B002468DF81C
:1012B0000F00029100200190029845F6A121C0F292
:1012C0003201884206D3FFE745F6A020C0F2320083
:1012D0000290FFE7029840084CF61771CAF29E216F
:1012E000A0FB0101090A01910199B1F5805F04D3C6
:1012F000FFE740F6FF700190FFE70198B0F57A7FB5
:1013000004D9FFE7019804380190FFE79DF80F002A
:10131000032813D1FFE7019A47F20040C4F200000E
:101320000121C0F21021009004F048FB019A122123
:10133000C1F24351009804F041FB1BE09DF80F00FF
:1013400002280BD1FFE7019A47F20040C4F20000E7
:101350000121C0F2102104F031FB0AE0019A47F2AA
:101360000040C4F200000121C0F2102104F026FB6D
:10137000FFE7FFE7002004B080BD000080B58AB021
:101380000A4603468DF827008DF8261000200890A5
:1013900007900690059004903821049105909DF8DF
:1013A0002600012803D1FFE70020079002E0022079
:1013B0000790FFE79DF82700022805D1FFE71220DC
:1013C000C1F24350089004E00120C0F210200890C0
:1013D000FFE7089947F20040C4F2000004AA039016
:1013E00004F014FB0899039A0290104604F0FEFAE8
:1013F00008990020039A01901046019A04F0DEFA41
:1014000001980AB080BD000080B582B001468DF819
:1014100007009DF80700002805D0FFE74FF00050B7
:1014200004F088F904E04FF0005004F047F9FFE7BA
:10143000002002B080BD000080B58AB001468DF862
:1014400027000020C4F2020001220291114600F0A0
:10145000C7F900200890079006900590049003902B
:101460009DF82700032803D1FFE7302003900BE00D
:101470009DF82700022803D1FFE72020039002E017
:1014800010200390FFE7FFE703200490022007905D
:101490000020C4F2020003A905F022F90021019006
:1014A00008460AB080BD000080B586B00A460346F3
:1014B0008DF817008DF816109DF81700049203930D
:1014C000FFF7BAFF012102900846FFF79DFF9DF844
:1014D000171003290DD1FFE79DF816100120FFF723
:1014E0004DFF9DF81610022201901046FFF746FFAF
:1014F00006E09DF817009DF81610FFF73FFFFFE785
:10150000002006B080BD000080B584B046F20040E7
:10151000C4F2020004F0CEFF002820D0FFE746F21C
:101520000040C4F20200002104F0DCFF002816D0C5
:10153000FFE740F21C00C2F200000068FFF75AF912
:1015400042F20001C4F20101039008460291FFF744
:1015500041F9029901900846FFF734F9FFE704B01A
:1015600080BD00007047000080B546F20040C4F224
:10157000020004F0A7FF002812D0FFE746F2004067
:10158000C4F20200022104F0ADFF002808D0FFE7FA
:1015900040F23000C2F20000006808F0F3FBFFE701
:1015A00080BD000080B546F20040C4F2020004F0A5
:1015B00091FF002812D0FFE746F20040C4F202007B
:1015C000072104F08FFF002808D0FFE740F2300029
:1015D000C2F20000006808F013FCFFE780BD0000C5
:1015E0007047000080B582B00190019800F066F865
:1015F00002B080BD80B582B00190019800F06AF819
:1016000002B080BD80B582B00190019800F01AF858
:1016100002B080BD80B582B00190019800280FD043
:10162000FFE7FFE70198411E0191002807D0FFE77F
:101630004FF47A7000F006F803F044FDF2E7FFE79C
:1016400002B080BD80B584B00390039800281AD002
:10165000FFE7039844F6D351C1F26201A0FB0102F7
:10166000920902901046019100F034F80398019914
:10167000A0FB01239B094FF47A7C03FB1C00009222
:1016800007F050FBFFE704B080BD000080B582B0DA
:1016900001900198FFF7A6FF02B080BD80B582B02F
:1016A00001900198FFF7A6FF02B080BD80B582B01F
:1016B00001900198FFF7A6FF02B080BD81B00090B5
:1016C000FFE70098411E0091002801D0FFE7F8E7EE
:1016D00001B0704780B582B00190019800280ED00B
:1016E000FFE707F0FFFA002804D1FFE7019807F0B1
:1016F00005FB03E00198FFF78DFFFFE7FFE702B06E
:1017000080BD000084B00A460390ADF80A100020A6
:10171000ADF80800ADF80600BDF80A100139ADF8C3
:101720000410ADF80800FFE7BDF80800BDF804108C
:1017300088423FDAFFE70020ADF80600FFE7BDF87A
:101740000600BDF80410BDF80820891A88422ADA7C
:10175000FFE70398BDF8061000EB410230F81100D6
:101760005188884218DAFFE70398BDF8061000EBAD
:1017700041004088ADF802000398BDF8061000EB68
:10178000410230F811005080BDF802000399BDF805
:10179000062021F81200FFE7FFE7BDF80600013040
:1017A000ADF80600CBE7FFE7BDF808000130ADF863
:1017B0000800B9E7002004B07047000080B584B08D
:1017C0000A4603908DF80B1003989DF80B100192B8
:1017D00000F018F804B080BD80B500F0E3F880BDDB
:1017E00080B584B00A4603908DF80B1003989DF8DD
:1017F0000B100192FFF7E2FF04B080BD80B5FFF748
:10180000EBFF80BD80B582B00A4601908DF80310D1
:1018100001980021C4F2020188420ED1FFE79DF831
:101820000300002804D0FFE7012003F0C3FE03E01B
:10183000012003F08DFEFFE7B1E0019840F2004186
:10184000C4F2020188420ED1FFE79DF80300002890
:1018500004D0FFE7022003F0ADFE03E0022003F016
:1018600077FEFFE79BE0019840F60001C4F2020119
:1018700088420ED1FFE79DF80300002804D0FFE75F
:10188000042003F097FE03E0042003F061FEFFE76D
:1018900085E0019840F60041C4F2020188420ED171
:1018A000FFE79DF80300002804D0FFE7082003F0BD
:1018B00081FE03E0082003F04BFEFFE76FE0019894
:1018C00041F20001C4F2020188420ED1FFE79DF807
:1018D0000300002804D0FFE7102003F06BFE03E0B4
:1018E000102003F035FEFFE759E0019841F2004176
:1018F000C4F2020188420ED1FFE79DF803000028E0
:1019000004D0FFE7202003F055FE03E0202003F081
:101910001FFEFFE743E0019841F60001C4F2020117
:1019200088420ED1FFE79DF80300002804D0FFE7AE
:10193000402003F03FFE03E0402003F009FEFFE7F4
:101940002DE0019841F60041C4F2020188420ED117
:10195000FFE79DF80300002804D0FFE7802003F094
:1019600029FE03E0802003F0F3FDFFE717E0019874
:1019700042F20001C4F20201884210D1FFE79DF853
:101980000300002805D0FFE74FF4807003F012FE3B
:1019900004E04FF4807003F0DBFDFFE7FFE702B0E7
:1019A00080BD000080B582B00020C4F20200012199
:1019B0000191FFF727FF40F20040C4F202000199B5
:1019C000FFF720FF40F60000C4F202000199FFF784
:1019D00019FF40F60040C4F202000199FFF712FF20
:1019E00041F20000C4F202000199FFF70BFF41F23F
:1019F0000040C4F202000199FFF704FF41F6000025
:101A0000C4F202000199FFF7FDFE41F60040C4F266
:101A100002000199FFF7F6FE42F20000C4F2020054
:101A20000199FFF7EFFE4FF4804003F029FF02B069
:101A300080BD000040F23800C2F20000006842F6AB
:101A40006871C2F200010A68104408607047000023
:101A500080B506F04BFA80BD80B500F003F8FFE7D3
:101A6000FEE700001EF0040F0CBFEFF30880EFF359
:101A7000098000F001B8704781B0009040F22C104E
:101A8000C2F200000021C161816141610161C16058
:101A900081604160016000990968016000994968AE
:101AA00041600099896881600099C968C1600099A6
:101AB00009690161009949694161009989698161F8
:101AC0000099C969C16101BE01B0704780B582B09B
:101AD000019000910198009900F07CF802B080BD5F
:101AE00080B582B00190019800F0C8F802B080BDC6
:101AF00080B584B00A4603908DF80B1003980192CC
:101B000000F0F8F89DF80B10002906D0FFE70398C5
:101B1000018B01F0FE01018305E00398018B41F088
:101B200001010183FFE70398017E00F0C1F90399E9
:101B30000090084600F0A2F804B080BD80B582B0E5
:101B40000190019800F024F902B080BD80B584B006
:101B50000A4603908DF80B1003989DF80B10019224
:101B600000F0A6F904B080BD80B582B0019000916C
:101B700001980099FFF7AAFF02B080BD80B582B03E
:101B800001900198FFF7ACFF02B080BD80B584B032
:101B90000A4603908DF80B1003989DF80B100192E4
:101BA000FFF7A6FF04B080BD80B582B00190019818
:101BB000FFF7C4FF02B080BD80B584B00A46039031
:101BC0008DF80B1003989DF80B100192FFF7BEFFE4
:101BD00004B080BD80B58EB00D900C910D9840681A
:101BE00001210591FFF7FCFD0D98C0680599FFF7ED
:101BF000F7FD0D984168806804900846049904F048
:101C00007DFE0D98C168006903900846039904F0B1
:101C100075FE00200B900A9009900890079006909E
:101C20000D998968069105990791022208920991F8
:101C30000A910B900D98406806AA1146029204F092
:101C40004FFD0D99096906910D99C96801900846E3
:101C5000029904F045FD0C99002904D0FFE70C9887
:101C60000D99086206E00D9841F2AD61C0F60001E1
:101C70000162FFE700200EB080BD000080B586B095
:101C8000059000208DF813000598C1680069039045
:101C90000846039904F032FE059841688068029076
:101CA0000846029904F02AFE0598C08A012805DB3F
:101CB000FFE70598016AC08A8847FFE70598C16871
:101CC000006901900846019904F074FD002804D0D1
:101CD000FFE701208DF81300FFE705984168806851
:101CE00000900846009904F08BFD9DF8130006B0A3
:101CF00080BD000080B588B006900698C168006974
:101D000005900846059904F0F9FD06984168806839
:101D100004900846049904F0F1FD0698C08A012851
:101D200005DBFFE70698016AC08A8847FFE7069847
:101D3000C168006903900846039904F061FD0698A4
:101D4000C08A012805DBFFE70698016AC08A884738
:101D5000FFE706984168806802900846029904F0FF
:101D60004FFD0698C168006901900846019904F08A
:101D700021FD002804D0FFE701208DF81F0003E0BB
:101D800000208DF81F00FFE79DF81F0008B080BD00
:101D900080B586B004900498C16800690390084635
:101DA000039904F02DFD049841688068029008466C
:101DB000029904F0A3FD0498C08A012805DBFFE71F
:101DC0000498016AC08A8847FFE70498C1680069DF
:101DD00001900846019904F091FD0498C08A0128F9
:101DE00005DBFFE70498016AC08A8847FFE704988B
:101DF000C168006900900846009904F0DBFC0028E7
:101E000004D1FFE701208DF8170003E000208DF8D2
:101E10001700FFE79DF8170006B080BD80B586B0BB
:101E20000A4605908DF813109DF81300000600284F
:101E300009D5FFE70598C168006903900846039932
:101E400004F05CFD08E00598C1680069029008464E
:101E5000029904F0D5FCFFE705984168806801907D
:101E60000846019904F04AFD0598C08A012805DB5F
:101E7000FFE70598016AC08A884703E00120FFF761
:101E800005FCFFE7059841688068009008460099C6
:101E900004F0B6FC0598C08A012805DBFFE7059829
:101EA000016AC08A8847FFE7002006B080BD0000B5
:101EB00080B584B00A4603908DF80B1000208DF891
:101EC0000A0003994B68896801901846009204F053
:101ED00097FC01988DF80A00FFE79DF80A00072893
:101EE00011DCFFE703989DF80B10FFF797FF9DF8B3
:101EF0000B1049008DF80B10FFE79DF80A00013028
:101F00008DF80A00E9E7002004B080BD80B584B0F8
:101F100013468C4603908DF80B108DF80A20002094
:101F20008DF8090003980078002807D1FFE703988F
:101F3000817901F081FB8DF80900FFE79DF8090028
:101F400000281FD1FFE7039802F09CF903999DF840
:101F50000B209DF80A300190084611461A4601F000
:101F600003FA8DF809009DF80900002818BF012028
:101F70004FEA40008DF8090003984FF0640102F029
:101F80009FFB03E001208DF80900FFE79DF80900A1
:101F900004B080BDB0B586B0DDF828C09E461446BA
:101FA0000D4605908DF813108DF812208DF8113024
:101FB0008DF810C000208DF80F00059800780028DB
:101FC00007D1FFE70598817901F036FB8DF80F0006
:101FD000FFE79DF80F00002827D1FFE7059802F0E2
:101FE00051F905999DF813209DF812309DF811C004
:101FF0009DF810E06C46C4F800E0029008461146D7
:102000001A46634601F016FA8DF80F009DF80F008E
:10201000002818BF01204FEA40008DF80F000598F6
:102020004FF0640102F04CFB03E001208DF80F003B
:10203000FFE79DF80F0006B0B0BD000080B586B088
:102040000B4605908DF81310039205989DF8131018
:10205000019301F0F1FA8DF80B009DF80B000028B8
:1020600007D1FFE70598039902F0FEFA8DF80B00FF
:10207000FFE79DF80B0006B080BD000080B584B07E
:10208000039000208DF80B0003980078002807D1FA
:10209000FFE70398817901F0CFFA8DF80B00FFE795
:1020A0009DF80B00002819D1FFE7039802F0EAF829
:1020B00003990190084601F04FFB8DF80B009DF845
:1020C0000B00002818BF01204FEA40008DF80B00DC
:1020D00003984FF0640102F0F3FA03E001208DF859
:1020E0000B00FFE79DF80B0004B080BD80B582B007
:1020F0000190019801F06CFB02B080BD80B584B006
:10210000039002910192009303980299019A009B17
:1021100001F032FC04B080BD80B584B0134603905A
:1021200002918DF8072000208DF8060003980078B2
:10213000002807D1FFE70398817901F07DFA8DF837
:102140000600FFE79DF8060000281ED1FFE7039870
:1021500002F098F80399029A9DF80730009008461B
:1021600011461A4601F0ECFC8DF806009DF80600B9
:10217000002818BF01204FEA40008DF806000398A0
:102180004FF0640102F09CFA03E001208DF8060094
:10219000FFE79DF8060004B080BD000010B586B0D2
:1021A000DDF820C09E461446059004918DF80F205E
:1021B0008DF80E30ADF80CC000208DF80B0005989E
:1021C0000078002807D1FFE70598817901F034FAFB
:1021D0008DF80B00FFE79DF80B00002826D1FFE7E4
:1021E000059802F04FF80599049A9DF80F309DF874
:1021F0000EC0BDF80CE06C46C4F800E00190084643
:1022000011461A46634601F0E3FC8DF80B009DF879
:102210000B00002818BF01204FEA40008DF80B008A
:1022200005984FF0640102F04BFA03E001208DF8AD
:102230000B00FFE79DF80B0006B010BDB0B588B0ED
:10224000DDF834C0DDF830E01C46154607900691F5
:102250008DF817208DF816308DF815E0ADF812C006
:1022600000208DF8110007980078002807D1FFE7BB
:102270000798817901F0E0F98DF81100FFE79DF8EA
:102280001100002829D1FFE7079801F0FBFF07990B
:10229000069A9DF817309DF816C09DF815E0BDF818
:1022A00012406D466C60C5F800E003900846114688
:1022B0001A46634601F008FD8DF811009DF81100E3
:1022C000002818BF01204FEA40008DF81100079840
:1022D0004FF0640102F0F4F903E001208DF81100E1
:1022E000FFE79DF8110008B0B0BD000080B584B0D4
:1022F0001346039002918DF8072000208DF8060008
:1023000003980078002807D1FFE70398817901F04E
:1023100093F98DF80600FFE79DF8060000281ED10E
:10232000FFE7039801F0AEFF0399029A9DF807308A
:102330000090084611461A4601F0B6FD8DF80600D9
:102340009DF80600002818BF01204FEA40008DF8D4
:10235000060003984FF0640102F0B2F903E0012097
:102360008DF80600FFE79DF8060004B080BD000070
:1023700080B584B00390029100208DF80700039887
:102380000078002807D1FFE70398817901F054F91C
:102390008DF80700FFE79DF8070000281BD1FFE735
:1023A000039801F06FFF0399029A009008461146C6
:1023B00001F0FCFD8DF807009DF80700002818BF0C
:1023C00001204FEA40008DF8070003984FF06401A8
:1023D00002F076F903E001208DF80700FFE79DF891
:1023E000070004B080BD000080B584B00390029166
:1023F00000208DF8070003980078002807D1FFE738
:102400000398817901F018F98DF80700FFE79DF82E
:10241000070000281BD1FFE7039801F033FF039961
:10242000029A00900846114601F002FE8DF807005E
:102430009DF80700002818BF01204FEA40008DF8E2
:10244000070003984FF0640102F03AF903E001201D
:102450008DF80700FFE79DF8070004B080BD00007D
:1024600080B586B09C469646059004918DF80F2065
:10247000ADF80C3000208DF80B000598007800288E
:1024800007D1FFE70598817901F0D6F88DF80B00A8
:10249000FFE79DF80B00002821D1FFE7059801F028
:1024A000F1FE0599049A9DF80F30BDF80CC001901B
:1024B000084611461A46634601F0DAFD8DF80B0016
:1024C0009DF80B00002818BF01204FEA40008DF84E
:1024D0000B0005984FF0640102F0F2F803E00120D0
:1024E0008DF80B00FFE79DF80B0006B080BD0000E3
:1024F00080B582B0019000910198009902F0B4F883
:1025000002B080BD80B584B00A4603908DF80B10F0
:1025100003989DF80B10019202F0E6F804B080BD1C
:1025200070B588B0DDF834C0DDF830E01C461546E3
:10253000079006918DF817208DF816308DF815E06C
:10254000ADF812C0079806999DF817209DF816302F
:102550009DF815C0BDF812E06E46C6F804E0C6F856
:1025600000C00394029502F029FC08B070BD000081
:1025700080B584B01346039002918DF807200020A7
:102580008DF8060003980078002807D1FFE703982C
:10259000817901F051F88DF80600FFE79DF80600FB
:1025A00000281ED1FFE7039801F06CFE0399029A00
:1025B0009DF807300090084611461A4602F078FC54
:1025C0008DF806009DF80600002818BF01204FEA8C
:1025D00040008DF8060003984FF0640102F070F897
:1025E00003E001208DF80600FFE79DF8060004B027
:1025F00080BD000080B584B00A4603908DF80B10B2
:1026000000208DF80A0003980078002807D1FFE722
:102610000398817901F010F88DF80A00FFE79DF822
:102620000A0000281CD1FFE7039801F02BFE039954
:102630009DF80B2001900846114602F0FBFC8DF836
:102640000A009DF80A00002818BF01204FEA400048
:102650008DF80A0003984FF0640102F031F803E0AE
:1026600001208DF80A00FFE79DF80A0004B080BD44
:1026700080B584B013468C4603908DF80B108DF80E
:102680000A2003989DF80B109DF80A200193CDF8BD
:1026900000C0FFF73BFC04B080BD000070B586B001
:1026A000DDF828C09E4614460D4605908DF813109F
:1026B0008DF812208DF811308DF810C005989DF816
:1026C00013109DF812209DF811309DF810C06E4631
:1026D000C6F800C0CDF80CE002940195FFF75AFC53
:1026E00006B070BD80B584B00B4603908DF80B101A
:1026F000019203989DF80B10019A0093FFF79EFC3E
:1027000004B080BD80B582B001900198FFF7B6FC9F
:1027100002B080BD80B582B001900198FFF7E6FC61
:1027200002B080BD80B584B0039002910192009305
:1027300003980299019A009BFFF7E0FC04B080BD6A
:1027400080B584B01346039002918DF8072003985A
:1027500002999DF807200093FFF7DEFC04B080BDCE
:10276000B0B586B0DDF828C09E46144605900491A9
:102770008DF80F208DF80E30ADF80CC00598049937
:102780009DF80F209DF80E30BDF80CC06D46C5F8C1
:1027900000C0CDF808E00194FFF700FD06B0B0BD21
:1027A00070B588B0DDF834C0DDF830E01C46154661
:1027B000079006918DF817208DF816308DF815E0EA
:1027C000ADF812C0079806999DF817209DF81630AD
:1027D0009DF815C0BDF812E06E46C6F804E0C6F8D4
:1027E00000C003940295FFF729FD08B070BD0000FA
:1027F00080B584B01346039002918DF807200398AA
:1028000002999DF807200093FFF770FD04B080BD8A
:1028100080B582B00190009101980099FFF7A8FD62
:1028200002B080BD80B582B00190009101980099FE
:10283000FFF7DAFD02B080BD80B584B0039002914D
:10284000FDF7D4FFADF806009DF8070002994A1C79
:10285000029208709DF8060002990870002004B0EA
:1028600080BD000080B586B09C46964605900491D8
:102870008DF80F20ADF80C30059804999DF80F20C5
:10288000BDF80C30CDF808C0CDF804E0FFF7E8FD46
:1028900006B080BD80B582B001900091019800998A
:1028A000FFF726FE02B080BD80B584B00A460390D3
:1028B0008DF80B1003989DF80B100192FFF722FE84
:1028C00004B080BD80B588B01346079006918DF89E
:1028D000172000208DF816000699049008460499E8
:1028E000039307F031F99DF81710002918BF012153
:1028F000069A117306990A6F4B7A097B1944515C49
:10290000A1F110010A460C29029264D80299DFE86D
:1029100001F0070E151C232A31383F464D545B0049
:102920000798069900F0D0F88DF8160057E0079840
:10293000069900F05FF88DF8160050E007980699A8
:1029400000F0E6F98DF8160049E00798069900F0C6
:1029500095FB8DF8160042E00798069900F082F981
:102960008DF816003BE00798069900F033FB8DF8D0
:10297000160034E00798069900F024FA8DF8160046
:102980002DE00798069900F0D3FB8DF8160026E09D
:102990000798069900F0E0FB8DF816001FE00798F5
:1029A000069900F055FA8DF8160018E00798069978
:1029B00000F034F98DF8160011E00798069900F040
:1029C0005FFA8DF816000AE00798069900F0A2FA5F
:1029D0008DF8160003E001208DF81600FFE7069839
:1029E0009DF8161007F0CCF89DF8161001900846D7
:1029F00008B080BD80B586B00590049100208DF8A8
:102A00000F000498016F827A007B1044085C002854
:102A100006D1FFE70598FFF775FE8DF80F003FE040
:102A20000498016F827A007B1044085C012817D15A
:102A3000FFE7059804990A6F8B7A097B19441144C2
:102A40004A788B7891F803C00979EE46CEF80010E9
:102A500011461A466346FFF721FE8DF80F001EE06F
:102A60000498016F827A007B1044085C022811D11F
:102A7000FFE7059804990A6F8B7A097B1944114482
:102A80004A78897802911146029AFFF7F1FD8DF894
:102A90000F0003E0FF208DF80F00FFE7FFE7FFE7DF
:102AA0000498016F827A007B1044085C002806D0ED
:102AB000FFE704989DF80F1007F046F8FFE79DF830
:102AC0000F0006B080BD000080B584B00390029175
:102AD00000208DF807000298016F827A007B104475
:102AE000085C012812D1FFE7039802990A6FCB7A9C
:102AF000097B03EB010C12F80CC01A4411444A1C68
:102B00006146FFF7EFFD8DF807001CE00298016FAA
:102B1000827A007B1044085C02280DD1FFE70398FD
:102B200002990A6FCB7A097B1A4411440131FFF7ED
:102B3000B1FE8DF8070005E00398FFF7EBFD8DF877
:102B40000700FFE7FFE79DF8070004B080BD000025
:102B500080B586B01346049003918DF80B2003983E
:102B6000002852D0FFE7049800284ED0FFE70398D2
:102B700007F0A6F8012842D1FFE7039806F0D4FF3A
:102B800000282CD1FFE7039806F0D6FF002826D1B5
:102B9000FFE703989DF80B1006F0E4FF0499039AF1
:102BA0009DF80B300190084611461A46FFF78AFE41
:102BB000039991F8291001290CD1FFE703980D2101
:102BC00006F0C2FF03990A2200900846114606F05B
:102BD000BBFFFFE70398002106F0E0FF09E0039840
:102BE00001794A1E4CF67651C0F6000108F042FA0F
:102BF000FFE7039807F0CEF88DF8170009E0039877
:102C000007F0F4F88DF8170003E002208DF81700A4
:102C1000FFE79DF8170006B080BD000080B584B0C6
:102C20000390029100208DF80700039802994A6CE6
:102C3000498D1144029A136F92F80AC0127B6244C4
:102C40009A5CFFF77DFD8DF807000298016F827A8C
:102C5000037B1A44895C428D114441859DF807002D
:102C600004B080BD80B584B00390029100208DF83F
:102C70000700ADF804000298B0F85E00FE280ADCF8
:102C8000FFE70298016FC27A007B10440844407845
:102C9000ADF8040016E00298016FC27A007B104480
:102CA00008444078ADF80400BDF8040002990A6FAA
:102CB000CB7A097B19441144897841EA0020ADF8A8
:102CC0000400FFE7039802994A6C498D1144029A67
:102CD000136F92F80AC092F80BE0127B944413F839
:102CE0000CC072449B5CBDF80420EE46CEF8002078
:102CF0006246FFF735FD8DF80700BDF80400029924
:102D00004A8D104448859DF8070004B080BD00003E
:102D100010B586B00590049100208DF80F00ADF835
:102D20000C000498B0F85E00FE280ADCFFE7049867
:102D3000016FC27A007B104408448078ADF80C0023
:102D400016E00498016FC27A007B10440844807832
:102D5000ADF80C00BDF80C0004990A6FCB7A097B22
:102D600019441144C97841EA0020ADF80C00FFE78E
:102D7000059804994A6C498D1144049A136F92F88E
:102D80000AC092F80BE0127B944413F80CC0724412
:102D900003EB020E9B5C9EF80120BDF80CE06C4634
:102DA000C4F804E022606246FFF7FAFC8DF80F00D9
:102DB000BDF80C0004994A8D104448859DF80F0019
:102DC00006B010BD80B584B00390029100208DF84C
:102DD00007000298016F827A007B1044085C00288B
:102DE00023D1FFE7039802994A6C498D1144029A56
:102DF000136F92F80BC0127B62449A5CFFF7F8FCE9
:102E00008DF807000298016FC27A007B1044085CBD
:102E1000002805D0FFE70298418D01314185FFE789
:102E20000298418D023141850DE0039802994A6C68
:102E3000498D1144FFF7F6FC8DF807000298418D8B
:102E400001314185FFE79DF8070004B080BD000017
:102E500080B584B00390029100208DF8070003989C
:102E600002994A6C498D1144FFF7D2FC8DF8070096
:102E70000298418D033141859DF8070004B080BD63
:102E800080B584B00390029100208DF80700ADF862
:102E900004000298B0F85E00FE2809DCFFE7029803
:102EA000016FC27A007B1044085CADF8040015E0A5
:102EB0000298016FC27A007B1044085CADF80400F0
:102EC000BDF8040002990A6FCB7A097B19441144BA
:102ED000497841EA0020ADF80400FFE70398029921
:102EE0004A6C498D1144029A136F92F80AC0127B02
:102EF00062449A5CBDF80430FFF7B4FC8DF807001B
:102F0000BDF8040002994A8D104448859DF80700D9
:102F100004B080BD80B584B00390029100208DF88C
:102F200007000298016F827A007B1044085C012838
:102F300011D1FFE7039802994A6C8B7A097B1A44F6
:102F400011440131FFF778FC8DF807000298418D9C
:102F50000231418523E00298016F827A007B1044A0
:102F6000085C02280DD1FFE7039802990A6F8B7A5B
:102F7000097B1A441144013100F064F98DF807000F
:102F80000CE0039802990A6F8B7A097B194411446B
:102F90004978FFF789FC8DF80700FFE7FFE79DF808
:102FA000070004B080BD000080B584B0039002919A
:102FB00000208DF807000399029A009008461146F8
:102FC000009AFFF7C5FD8DF807009DF8070004B0D3
:102FD00080BD000010B586B00590049100208DF8EA
:102FE0000F00ADF80C000498B0F85E00FE280DDC70
:102FF000FFE70498016FC27A007B104408444078D0
:10300000ADF80C0002208DF80F0019E00498016F54
:10301000C27A007B104408444078ADF80C00BDF83B
:103020000C0004990A6FCB7A097B19441144897802
:1030300041EA0020ADF80C0003208DF80F00FFE7F7
:10304000059804990A6F8B7A91F80BC0097B02EB03
:103050000C0E8E449DF80F40A6440B44D35C614493
:10306000515CBDF80C20EC46CCF800200291714672
:103070001A46029B00F080F806B010BD10B586B06D
:103080000590049100208DF80F00ADF80C00049815
:10309000B0F85E00FE280DDCFFE70498016FC27AED
:1030A000007B104408448078ADF80C0003208DF8B4
:1030B0000F0019E00498016FC27A007B10440844A5
:1030C0008078ADF80C00BDF80C0004990A6FCB7A3B
:1030D000097B19441144C97841EA0020ADF80C007D
:1030E00004208DF80F00FFE7059804990A6F8B7A8A
:1030F00091F80BC0097B02EB0C0E8E449DF80F403B
:10310000A6440B44D35C614402EB010C515C9CF877
:103110000120BDF80CC06C46C4F804C022600291C6
:1031200071461A46029B00F047F806B010BD000039
:1031300080B582B001900091019800990A6F8B7A56
:1031400091F80BC0097B94448C441944525C61464D
:1031500000F05AF802B080BD80B582B001900091B5
:10316000019800990A6F8B7A097B1944515C00F031
:103170005BF802B080BD0000B0B586B0DDF828C0B5
:103180009E461446059004918DF80F208DF80E3060
:10319000ADF80CC0059804999DF80F209DF80E30ED
:1031A000BDF80CC06D46C5F800C0CDF808E001942C
:1031B00001F0C4FC06B0B0BD70B588B0DDF834C015
:1031C000DDF830E01C461546079006918DF8172073
:1031D0008DF816308DF815E0ADF812C007980699F5
:1031E0009DF817209DF816309DF815C0BDF812E027
:1031F0006E46C6F804E0C6F800C003940295FFF7D7
:103200008FF908B070BD000080B584B013460390FC
:1032100002918DF80720039802999DF807200093EA
:10322000FFF7A6F904B080BD80B584B00A460390CC
:103230008DF80B1003989DF80B100192FFF7DAF947
:1032400004B080BD80B586B0059004910498411CFF
:1032500004910078ADF80E00BDF80E0004994A1CE8
:103260000492097841EA0020ADF80E00BDF80E1076
:10327000002004F0F1F90499097801290DDBFFE73A
:1032800041F20000C4F202000821029003F0CCFADF
:103290001021029803F042FB0CE041F20000C4F25E
:1032A00002001021019003F0BFFA0821019803F0F9
:1032B000BBFAFFE7002006B080BD000080B582B0F9
:1032C000019000208DF803000198002832D0FFE71C
:1032D000019800F0D7FF8DF80300019840F2240117
:1032E000C2F200010968884207D1FFE743F23D308E
:1032F000C0F6000005F0FAFC1BE00198002807D199
:10330000FFE743F25130C0F6000005F0EFFC0FE09C
:103310000198002807D1FFE743F25D30C0F60000B6
:1033200005F0E4FC03E001208DF80300FFE7FFE770
:10333000FFE7FFE79DF8030002B080BD80B540F2D3
:103340002400C2F20000006801F0C8FB80BD00004C
:1033500080B5002001F0C2FB80BD000080B50020D8
:1033600001F0BCFB80BD000080B586B013468C46E2
:1033700005908DF813108DF8122000208DF81100A3
:103380008DF81000ADF80E009DF813000193CDF8F4
:1033900000C004F013FA02900298002804D1FFE75D
:1033A00001208DF811003DE000208DF81000FFE7AE
:1033B0009DF810009DF81210884232DAFFE7059858
:1033C0000299BDF80E209DF8133000F05DFC8DF8D9
:1033D00011009DF81100002804D0FFE702208DF8AD
:1033E00011001FE002989DF81320FF21FDF7DAFE7F
:1033F0008DF811009DF81100002804D0FFE703208C
:103400008DF811000EE09DF81300BDF80E10084471
:10341000ADF80E00FFE79DF8100001308DF81000A8
:10342000C6E7FFE7029804F0B3F99DF8110006B073
:1034300080BD0000B0B58AB0DDF838C09E461446A5
:103440000D4609908DF823108DF822208DF821303B
:103450008DF820C000208DF81F00ADF81C00ADF8DD
:103460001A00ADF8180005909DF82300ADF81C0077
:10347000BDF81C009DF8221041EA0020ADF81C00A8
:103480009DF82100ADF81A00BDF81A009DF8201033
:1034900041EA0020ADF81A00BDF81C00CDF80CE0A0
:1034A0000294019504F08AF904900498002804D14C
:1034B000FFE701208DF81F003BE00020ADF8180069
:1034C000FFE7BDF81800BDF81A10884230DAFFE7B0
:1034D00009980499059ABDF81C3000F0C5FC8DF8D8
:1034E0001F009DF81F00002804D0FFE702208DF880
:1034F0001F001EE00498BDF81C20FF21FDF752FEBE
:103500008DF81F009DF81F00002804D0FFE703205E
:103510008DF81F000DE0BDF81C00059901EB50006F
:103520000590FFE7BDF818000130ADF81800C8E7B6
:10353000FFE7049804F02CF99DF81F000AB0B0BD15
:1035400080B584B0039003982830012104F006FE72
:10355000039900224A700399CB69096A02901846C0
:10356000019203F0D3F9019804B080BD81B00090BE
:103570000098002101700098417000980F2282701D
:103580000098017100984171009881710098C17193
:10359000009801810098818100984FF4FA72C282EC
:1035A0000098C0F80E100098C0F81210009840F66D
:1035B0000042C4F20202C26100984FF480420262EB
:1035C000009840F20043C4F20203036400984FF4F1
:1035D000805CC0F844C00098836300984FF4005C9E
:1035E000C0F83CC00098036300984263009883626F
:1035F00000984FF40042C26200980522826600984B
:1036000043F60002C4F2000282640098C16600988A
:1036100080F84E10009880F84F10084601B07047AF
:1036200081B00090002001B07047000081B0009090
:10363000002001B07047000080B58EB00A460C90A3
:103640008DF82F1012208DF82E000C9881780A9298
:1036500000F0E2FE0C990990084600F019FAFFE725
:103660009DF82E00411E8DF82E10002863D0FFE734
:1036700040F24000C2F2000000680C996A46002344
:103680001360AC224FF0530C089008461146624676
:10369000DDF820C0E0470C99097D53290ED1FFE7E2
:1036A0000C98012101709DF82F000C9988710C98DD
:1036B000FFF704FE00218DF8371048E00C98C07821
:1036C00000280FD1FFE70C988078042805DBFFE77E
:1036D0000C9881780139817003E00C980321817086
:1036E000FFE705E09DF82E0001388DF82E00FFE77A
:1036F0000C98817800F090FE0C990A6C496C079048
:10370000104603F003F90C98406A01210690084620
:10371000069A059190470C98016C406C04900846FD
:10372000049903F077F80C98406A059903900846CD
:10373000039A904794E70C98C169006A0290084682
:10374000029903F0E3F801208DF83700FFE79DF8B8
:1037500037000EB080BD000080B586B00590002017
:103760008DF8130040F24001C2F200010968059A89
:103770006B461860AC234FF0800C0390104602910A
:1037800019466246039BDDF808C0E0478DF8130038
:103790009DF81300002817D1FFE7059880790028CD
:1037A0000BD0FFE7059800F0F3FC8DF813009DF8AF
:1037B000130080308DF8130005E00598416A007908
:1037C0000A308847FFE7FFE79DF8130006B080BD89
:1037D00080B584B003900398FFF7B2FE0399C978CF
:1037E000002904D1FFE703980F218170FFE70398B8
:1037F0000021C171039881810398FF2242710398CF
:103800000170039881710398029100F04BFD0299B9
:103810000190084604B080BD2DE9F04798B017909C
:1038200017982830012104F099FC179928310C9041
:10383000084604F0A1FC0DA928220B900846114669
:10384000FCF7F6FC00200D904FF482710E910F9062
:10385000179890F84E0000280BD1FFE70020109039
:103860001798816BC06B0A9008460A9902F0D2FF44
:1038700002E002201090FFE7179890F84E00002811
:1038800003D1FFE70020119002E001201190FFE733
:103890004FF400701290382013900020149015906F
:1038A00007211691179928310D9A0E9BDDF83CC01F
:1038B000DDF840E0119C129D139E149FDDF85480AA
:1038C000DDF85890EA46CAF81890CAF81480CAF889
:1038D0001070CAF80C60CAF80850CAF80440CAF858
:1038E00000E00990084611461A46634604F04CFC75
:1038F000179901224A7009990890084618B0BDE846
:10390000F0870000B0B586B0DDF828C09E461446AA
:103910000D4605908DF813108DF812208DF811309A
:103920008DF810C005980021C0F80E100598C0F859
:1039300012109DF81300059988739DF812000599DF
:10394000C8739DF81100059908749DF81000059939
:103950004874059800F1280100F10E02123004238A
:10396000039008461146039ACDF808E001940095AB
:1039700004F04EFC06B0B0BD80B58EB00C900B913B
:103980000A9209930C9800280DD0FFE70C9840F29A
:103990002401C2F200010968884204D1FFE70C98B3
:1039A000FFF7E4FD1DE00C98002808D0FFE70C9815
:1039B000002804D1FFE70C98FFF732FE10E00C98C6
:1039C000002808D0FFE70C98002804D1FFE70C98E6
:1039D000FFF72CFE03E001208DF8370053E0FFE7EE
:1039E000FFE70A98002804D0FFE70A980C9948627C
:1039F00006E00C9841F29D61C0F600014162FFE7CC
:103A00000B98002804D0FFE70B980C99086706E094
:103A10000C9841F2AD61C0F600010167FFE709981B
:103A20000C9948670C98C069002823D0FFE70C98D0
:103A3000C06901210291FDF7D3FE00200890079094
:103A400006900590049003900299049105910690C8
:103A5000079108900C98006A03900C98C06903A91C
:103A600002F03EFE0C99CA69096A0190104602F004
:103A70004DFFFFE70C98406F80470C99886100204C
:103A80008DF83700FFE79DF837000EB080BD0000CD
:103A900080B58CB00B900B98016C406C01220A90A1
:103AA00008460A99099202F071FF0B98816BC06B6E
:103AB00008900846089902F0ADFE0B98016C406C26
:103AC00007900846079902F0A5FE0B98816BC06B22
:103AD00006900846069902F09DFE0B98016C406C1A
:103AE00005900846059902F095FE0B98406A0999E1
:103AF00004900846049A90470B98016C406C039020
:103B00000846039902F002FF0B98406A0999029057
:103B10000846029A90470B98016C406C0190084649
:103B2000019902F077FE0B98406A099900900846C7
:103B3000009A90470B98FF21417100200CB080BD86
:103B400080B586B01346059004918DF80F200020B3
:103B50008DF80E008DF80D00FFE79DF80D009DF823
:103B60000F1088422FDAFFE740F24000C2F2000057
:103B7000006805999DF80D306A464FF0000CC2F8B8
:103B800000C038220290084611466246DDF808C09F
:103B9000E0478DF80E009DF80E00002806D0FFE7E4
:103BA0009DF80D0002308DF80E000CE00598407D68
:103BB00004999DF80D208854FFE79DF80D00013011
:103BC0008DF80D00C9E79DF80E0006B080BD00001D
:103BD00010B586B0DDF820C09E46144605900491CD
:103BE0008DF80F208DF80E30ADF80CC000208DF848
:103BF0000B00ADF80800FFE7BDF80800BDF80C1099
:103C000088423CDAFFE740F24000C2F20000006860
:103C100005999DF80F209DF80E30EC464FF0000EF0
:103C2000CCF800E04FF0A00C019008466146DDF8AA
:103C300004C0E0478DF80B009DF80B00002801D070
:103C4000FFE71CE00598407D04994A1C0492087027
:103C50009DF80E0001308DF80E009DF80E00002832
:103C600006D1FFE79DF80F0001308DF80F00FFE748
:103C7000FFE7BDF808000130ADF80800BCE79DF88B
:103C80000B0006B010BD0000B0B588B09C4696464B
:103C900007900691ADF81620ADF8143007980699F4
:103CA000BDF81620130AD2B2BDF814406D462C6040
:103CB00004921A46049BCDF80CC0CDF808E0FFF73B
:103CC00087FF08B0B0BD0000B0B58AB0DDF83CC0D9
:103CD000DDF838E01C461546089007918DF81B204A
:103CE0008DF81A308DF819E0ADF816C000208DF867
:103CF0001500ADF81200BDF81600C007002804D06A
:103D0000FFE702208DF82700A9E0BDF81600400863
:103D1000ADF8160008989DF81B1000F0AFFE8DF866
:103D200015009DF81500002804D0FFE703208DF84A
:103D3000270094E00020ADF81200FFE7BDF8120064
:103D4000BDF81610884280F28580FFE740F24000FF
:103D5000C2F20000006808999DF81A209DF81930F9
:103D6000EC464FF0000ECCF800E04FF0200C039032
:103D700008466146DDF80CC0E0478DF815009DF857
:103D80001500002804D0FFE704208DF8270066E026
:103D90000898407D07994A1C07920870FFE740F297
:103DA0004000C2F20000006808999DF81A209DF8B2
:103DB0001930EC464FF0000ECCF800E04FF0280C24
:103DC000029008466146DDF808C0E0478DF815000E
:103DD0009DF81500002804D0FFE705208DF8270086
:103DE0003DE00898407D07994A1C07920870FFE75C
:103DF0009DF8190001308DF819009DF81900002870
:103E000021D1FFE79DF81A0001308DF81A009DF8C6
:103E10001A00002816D1FFE79DF81B0001308DF82D
:103E20001B0008989DF81B1000F028FE8DF8150067
:103E30009DF81500002804D0FFE706208DF8270024
:103E40000DE0FFE7FFE7FFE7BDF812000130ADF836
:103E5000120073E79DF815008DF82700FFE79DF825
:103E600027000AB0B0BD000080B588B09C4607901E
:103E700006910592ADF8123007980699059ABDF89B
:103E80001230EE46CEF80430D3B2CEF80030C2F392
:103E90000743C2F3072203921A46039BCDF808C0DA
:103EA000FFF712FF08B080BD80B58AB013460890B6
:103EB00007918DF81B2000208DF81A0040F2400178
:103EC000C2F200010968089AEC46CCF800004FF0F5
:103ED000500C0590104604916146059ADDF814C017
:103EE00003936346DDF810E0F0478DF81A009DF863
:103EF0001A00002804D0FFE702208DF8270051E0C7
:103F00000898407D07994A1C0792087040F24000CB
:103F1000C2F20000006808996A4600231360582224
:103F20004FF0080C0290084611466246DDF808C0C2
:103F3000E0478DF81A009DF81A00002804D0FFE72A
:103F400003208DF827002DE00898407D07994A1C32
:103F5000079208709DF81B0000281AD0FFE740F276
:103F60004000C2F20000006808996A46002313600E
:103F700050224FF0080C0190084611466246DDF8C9
:103F800004C0E0478DF81A000898407D0799087032
:103F900003E00798FF210170FFE79DF81A008DF8F4
:103FA0002700FFE79DF827000AB080BD80B586B0E6
:103FB0000590049100208DF80F008DF80E00FFE7AA
:103FC0009DF80E0002282FDCFFE740F24000C2F20D
:103FD0000000006805999DF80E306A464FF0000C0D
:103FE000C2F800C030220290084611466246DDF851
:103FF00008C0E0478DF80F009DF80F00002806D09C
:10400000FFE79DF80E0002308DF80F000CE00598D8
:10401000407D04999DF80E208854FFE79DF80E001E
:1040200001308DF80E00CBE79DF80F0006B080BD83
:1040300080B586B00590049140F24000C2F20000C5
:10404000006805996A4600231360582202900846CA
:1040500011461A46DDF808C0E0478DF80F000598B4
:10406000407D049908709DF80F0006B080BD0000E7
:1040700080B588B09C469646069005918DF8132031
:10408000ADF8103000208DF80F008DF80E00BDF84F
:104090001000C007002804D0FFE702208DF81F00A1
:1040A00071E0BDF810004008ADF8100000208DF858
:1040B0000E00FFE79DF80E00BDF8101088425DDA93
:1040C000FFE740F24000C2F20000006806999DF848
:1040D00013209DF80E301A446B464FF0000CC3F8C5
:1040E00000C0D3B230220290084611466246DDF885
:1040F00008C0E0478DF80F009DF80F00002804D09D
:10410000FFE703208DF81F003DE00698407D0599EC
:104110004A1C05920870FFE740F24000C2F200001E
:10412000006806999DF813209DF80E301A446B46DE
:104130004FF0000CC3F800C0D3B2382201900846FB
:1041400011466246DDF804C0E0478DF80F009DF887
:104150000F00002804D0FFE704208DF81F0012E0B4
:104160000698407D05994A1C05920870FFE7FFE715
:104170009DF80E0001308DF80E009BE79DF80F00B2
:104180008DF81F00FFE79DF81F0008B080BD0000FC
:1041900080B588B0079000208DF81B000590049032
:1041A000039002900798406F002805D0FFE707981A
:1041B000406F80470490FFE7FFE740F24000C2F203
:1041C0000000006807996A4600231360F0220190FE
:1041D000084611461A46DDF804C0E0478DF81B007A
:1041E0009DF81B00002801D0FFE747E00798407DBD
:1041F000C007002804D1FFE700208DF81B003DE038
:104200000798406F002824D0FFE70798406F804749
:10421000059005980499884208D2FFE7049805990B
:10422000C043084400210391029006E005980499D8
:10423000401A002103910290FFE702980399653824
:1042400071F1000104D3FFE702208DF81B0015E097
:104250000FE0059801300590059848F2A161C0F281
:104260000101884204D3FFE703208DF81B0005E01D
:10427000FFE7FFE7FFE700F025FF9EE79DF81B0043
:1042800008B080BD80B582B0019001984FF4FA71FA
:10429000C1820198406F804701998861002002B077
:1042A00080BD000080B582B000900098002810D03A
:1042B000FFE7009840F22401C2F200010968884239
:1042C00007D1FFE743F23D30C0F6000004F040FEA6
:1042D00023E0009800280BD0FFE70098002807D1C2
:1042E000FFE743F25130C0F6000004F031FE13E066
:1042F000009800280BD0FFE70098002807D1FFE7BF
:1043000043F25D30C0F6000004F022FE03E001201D
:104310008DF8070005E0FFE7FFE700208DF80700B4
:10432000FFE79DF8070002B080BD000080B586B0B1
:10433000059005982830012103F010FF05992831D8
:104340000490084603F082FF059991F84E10002969
:1043500009D1FFE70598816BC06B0390084603996C
:1043600002F058FA08E00598816BC06B029008468D
:10437000029902F0CBFAFFE70598816AC06A0190C2
:104380000846019902F046FA0598016B406B0090CF
:104390000846009902F03EFA05980121417000207C
:1043A00006B080BDB0B586B0DDF828C09E46144684
:1043B0000D4605908DF813108DF812208DF81130F0
:1043C0008DF810C005980021C0F80E100598C0F8AF
:1043D00012109DF81300059988739DF81200059935
:1043E000C8739DF81100059908749DF8100005998F
:1043F0004874059800F1280100F10E0212300423E0
:10440000039008461146039ACDF808E00194009500
:1044100003F02EFF06B0B0BD80B586B00A46059009
:104420008DF813109DF813000138014611280391EF
:1044300000F2A7800399DFE801F009131D262F3849
:10444000414A535C646C747C848C949C0598002174
:1044500080F84D1005984FF47A71A0F8621098E03A
:104460000598002180F84D1005984FF4FA71A0F8D6
:1044700062108EE00598002180F84D100598FA2111
:10448000A0F8621085E00598002180F84D1005988D
:104490007C21A0F862107CE00598002180F84D1086
:1044A00005983C21A0F8621073E00598002180F87F
:1044B0004D1005981C21A0F862106AE005980021B3
:1044C00080F84D1005980C21A0F8621061E0059865
:1044D000002180F84D1005980421A0F8621058E0E2
:1044E0000598002180F84D1005980321A0F862106E
:1044F0004FE00598002180F84D100598A0F8621053
:1045000047E00598012180F84D1005983821416653
:104510003FE00598012180F84D1005983021416653
:1045200037E00598012180F84D1005982821416653
:104530002FE00598012180F84D1005982021416653
:1045400027E00598012180F84D1005981821416653
:104550001FE00598012180F84D1005981021416653
:1045600017E00598012180F84D1005980821416653
:104570000FE00598012180F84D1005980021416653
:1045800007E00598012180F84D1005983821416613
:10459000FFE7059890F84D00012831D1FFE7059815
:1045A000407800280CD0FFE740F24000C2F2000043
:1045B000006844F2A531C0F60001884204D1FFE74B
:1045C0000598FFF729F9FFE7059880780F2804DBA5
:1045D000FFE7059820214166FFE7059800F12801D3
:1045E000406E02900846029903F026FE40F2400118
:1045F000C2F2000143F60512C0F600020A6028E08C
:104600000598407800280CD0FFE740F24000C2F245
:104610000000006843F60511C0F60001884204D18D
:10462000FFE70598FFF782FEFFE7059800F12801F4
:10463000B0F8620001900846019903F00FFE40F2C5
:104640004001C2F2000144F2A532C0F600020A6045
:10465000FFE70598C169006A00900846009902F0DA
:10466000D9F8002006B080BD82B00190009100987A
:10467000411C0091007801990881019800890099F6
:104680004A1C0092097841EA0020019908810098AB
:10469000411C009100780199488101984089009956
:1046A0004A1C0092097841EA00200199488100984B
:1046B000411C009100780199C871002002B0704738
:1046C00080B584B00A460390ADF80A10BDF80A0020
:1046D0000399C8820398406F0192804703998861CB
:1046E000002004B080BD000082B00A4601908DF821
:1046F00003109DF80300122805DBFFE79DF8030077
:1047000012280DD1FFE79DF80300012808DBFFE721
:1047100001980121C1709DF803000199887006E09D
:1047200001980021C17001980F218170FFE70020DE
:1047300002B07047B0B588B013468C4607908DF82C
:104740001B108DF81A2000208DF8190040F240014E
:10475000C2F200010968079A9DF81BE09DF81A4013
:104760006D462860C22005901046059A04911146B6
:10477000724603932346DDF810E0CDF808C0F047F9
:104780008DF819009DF81900002817D1FFE7079848
:10479000807900280BD0FFE70798FFF7F9FC8DF828
:1047A00019009DF8190080308DF8190005E0079870
:1047B000416A00790A308847FFE7FFE79DF8190052
:1047C00008B0B0BD80B584B00A460390ADF80A10B9
:1047D0000398BDF80A100B0AC9B201911946019B52
:1047E00000921A46FFF7A6FF04B080BD80B586B0E0
:1047F0000490039100208DF80B008DF80A00FFE76C
:104800009DF80A000499498988422DDAFFE740F2B1
:104810004000C2F20000006804999DF80A30039A33
:1048200002F1010CCDF80CC01278EC46CCF8002057
:10483000C1224FF0000C0190084611466246DDF897
:1048400004C0E0478DF80B009DF80B00002804D051
:10485000FFE703208DF817000BE0FFE79DF80A0043
:1048600001308DF80A00CBE79DF80B008DF817009A
:10487000FFE79DF8170006B080BD000010B588B0B6
:104880009C4696460C4607908DF81B108DF81A2012
:104890008DF8193007989DF81B10CDF814C0CDF88D
:1048A00010E0039400F0EAF88DF818009DF8180065
:1048B000002836D1FFE740F24000C2F20000006855
:1048C00007999DF81A209DF81930EC464FF0000E1C
:1048D000CCF800E04FF04C0C029008466146DDF841
:1048E00008C0E0478DF818009DF81800002817D17F
:1048F000FFE70798807900280BD0FFE70798FFF7BC
:1049000047FC8DF818009DF8180080308DF81800CD
:1049100005E00798416A007905308847FFE7FFE71F
:10492000FFE79DF8180008B010BD000080B584B006
:104930000390029103980299C1F30742C1F3072340
:10494000C9B2019111461A46019BFFF797FF04B0C7
:1049500080BD000080B588B09C46964606900591C3
:104960008DF81320ADF8103000208DF80F008DF871
:104970000E00BDF81000C007002804D0FFE7022099
:104980008DF81F0075E0BDF810004008ADF810006C
:1049900000208DF80E00FFE79DF80E00BDF8101006
:1049A00088425BDAFFE740F24000C2F20000006894
:1049B00006999DF813209DF80E301A44059B03F1CB
:1049C000010CCDF814C01B78EC46CCF80030D3B203
:1049D00040224FF0000C0290084611466246DDF876
:1049E00008C0E0478DF80F009DF80F00002804D0A4
:1049F000FFE703208DF81F003BE040F24000C2F2C9
:104A00000000006806999DF813209DF80E301A44A6
:104A1000059B03F1010CCDF814C01B78EC46CCF8D3
:104A20000030D3B248224FF0000C019008461146E6
:104A30006246DDF804C0E0478DF80F009DF80F00D6
:104A4000002804D0FFE704208DF81F0011E0FFE7E5
:104A50009DF80E0001308DF80E009DE7BDF81000A6
:104A600006998A89104488819DF80F008DF81F00EF
:104A7000FFE79DF81F0008B080BD000080B584B03E
:104A80000A4603908DF80B1000208DF80A00039859
:104A900040799DF80B1088421CD0FFE79DF80B0071
:104AA0000399487140F24000C2F200000068039987
:104AB0009DF80B306A464FF0000CC2F800C04D2242
:104AC0000190084611466246DDF804C0E0478DF8C3
:104AD0000A00FFE79DF80A0004B080BD80B584B0ED
:104AE000039000200290019003980078002822D0C3
:104AF000FFE70398406F804702900398806902990E
:104B0000884207D9FFE7039880690299C0430844A7
:104B1000019005E0029803998969401A0190FFE726
:104B200001980399C98A884204D9FFE70398FEF7E0
:104B30004FFEFFE7FFE704B080BD000010B586B070
:104B4000DDF820C09E461446049003918DF80B209A
:104B50008DF80A30ADF808C00498C079002810D04C
:104B6000FFE7049803999DF80B209DF80A30BDF8E3
:104B700008C0EE46CEF800C000F096F88DF8170099
:104B80000FE0049803999DF80B209DF80A30BDF8BA
:104B900008C0EE46CEF800C000F008F88DF8170007
:104BA000FFE79DF8170006B010BD000010B586B0F5
:104BB000DDF820C09E461446059004918DF80F2024
:104BC0008DF80E30ADF80CC000208DF80B008DF87C
:104BD0000A00ADF80800FFE7BDF80800BDF80C10AA
:104BE00088425CDAFFE740F24000C2F20000006851
:104BF00005999DF80F209DF80E30DDF810C0BDF826
:104C000008E01CF80EC0EE46CEF800C04FF0C00C15
:104C1000019008466146DDF804C0E0478DF80B00BE
:104C20009DF80B00002801D0FFE738E00598807957
:104C3000002806D0FFE70598FFF7AAFA8DF80B00C9
:104C400005E00598416A00790A308847FFE79DF83A
:104C50000E0001308DF80E009DF80E00002806D1E0
:104C6000FFE79DF80F0001308DF80F00FFE79DF87A
:104C70000A0001308DF80A009DF80A00152807DBAC
:104C8000FFE700208DF80A000598FFF7FBFAFFE721
:104C9000FFE7BDF808000130ADF808009CE79DF87B
:104CA0000B0006B010BD000010B586B0DDF820C0C6
:104CB0009E461446059004918DF80F208DF80E3015
:104CC000ADF80CC000208DF80B000190ADF802008B
:104CD00005980078002807D1FFE705988179FEF74D
:104CE000ABFC8DF80B00FFE79DF80B0000285CD1B2
:104CF000FFE705984089BDF80C10B1FBF0F0ADF866
:104D00000C000598FFF7BEFA9DF80F10019101996C
:104D10009DF80E2042EA012101910021ADF8021018
:104D2000FFE7BDF80200BDF80C10884238DAFFE753
:104D300005980499FFF75AFD8DF80B009DF80B00BC
:104D4000002818BF01204FEA40008DF80B0005989D
:104D5000BDF80410FFF736FD8DF80B009DF80B0031
:104D6000002818BF03208DF80B009DF80B000028C9
:104D700004D0FFE704208DF80B0011E0059840896E
:104D800001990844019005984089049908440490C9
:104D9000FFE7FFE7BDF802000130ADF80200C0E711
:104DA00005986421FFF78CFC03E001208DF80B00CF
:104DB000FFE79DF80B0006B010BD0000B0B586B04F
:104DC000DDF82CC0DDF828E01C461546059004915E
:104DD0008DF80F208DF80E308DF80DE0ADF80AC07B
:104DE00000208DF80900019005980078002807D16F
:104DF000FFE705988179FEF71FFC8DF80900FFE7B2
:104E00009DF8090000284AD1FFE70598FFF73AFA14
:104E10000599049A0B7BBDF80AC00090084611461C
:104E20001A466346FFF796FD8DF809009DF80900C4
:104E3000002818BF01208DF809009DF809000028FE
:104E400028D1FFE7059881890089814222D1FFE7B7
:104E50009DF80F00019001989DF80E1041EA002086
:104E6000019001989DF80D1041EA002001900598ED
:104E70000199FFF75BFD8DF80900059800218181FC
:104E80009DF80900002818BF01204FEA40008DF866
:104E90000900FFE705986421FFF712FC03E00120F9
:104EA0008DF80900FFE79DF8090006B0B0BD0000CD
:104EB00080B58AB01346089007918DF81B2000201A
:104EC0008DF81A0040F24001C2F200010968089A08
:104ED000DDF81CC09CF800C0EE46CEF800C04FF0D4
:104EE000AC0C4FF0A00E059010460491614672463E
:104EF000DDF814C003936346DDF810E0F0478DF849
:104F00001A009DF81A00002804D0FFE702208DF84F
:104F100027008BE00898807900280BD0FFE70898DD
:104F2000FFF736F98DF81A009DF81A0080308DF8D9
:104F30001A0005E00898416A007905308847FFE7C4
:104F400040F24000C2F2000000680899079A5278C7
:104F50006B461A60AC22A8234FF0000C0290084662
:104F600011461A466346DDF808C0E0478DF81A007E
:104F70009DF81A00002804D0FFE703208DF82700D1
:104F800054E00898807900280BD0FFE70898FFF7D5
:104F9000FFF88DF81A009DF81A0080308DF81A007D
:104FA00005E00898416A007905308847FFE79DF8D9
:104FB0001B00002835D0FFE740F24000C2F200009D
:104FC00000680899079A92786B461A60AC22A4236D
:104FD0004FF0000C0190084611461A466346DDF872
:104FE00004C0E0478DF81A009DF81A00002817D178
:104FF000FFE70898807900280BD0FFE70898FFF7B3
:10500000C7F88DF81A009DF81A0080308DF81A0044
:1050100005E00898416A007905308847FFE7FFE717
:10502000FFE79DF81A008DF82700FFE79DF827009D
:105030000AB080BD80B586B00A4605908DF8131081
:1050400040F24000C2F20000006805999DF813305C
:1050500043F0C003EC46CCF80030AC234FF0E00C3A
:105060004FF0000E039008461946029262467346BE
:10507000DDF80CC0E0478DF812009DF81200002802
:1050800017D1FFE70598807900280BD0FFE7059836
:10509000FFF77EF88DF812009DF8120080308DF831
:1050A000120005E00598416A007905308847FFE75E
:1050B000FFE79DF8120006B080BD000080B500F04B
:1050C00005F880BD80B5FFF7F9FF80BD80B543F2DC
:1050D0000000C4F2000001F0DBFC002080BD0000F5
:1050E00080B500F057F880BD80B5FFF7F9FF80BDAF
:1050F00080B58CB040F20040C4F20200012105905E
:105100000491FCF76DFB00200B900A900990089029
:10511000079006904FF480610691049A07920890D8
:10512000099002230A930B9006A8059B039018464A
:10513000DDF80CC00291614601F0D2FA05990190A8
:105140000846029901F07AFB45F25910C0F60000BA
:1051500003F0CCFD0CB080BD80B540F24400C2F23B
:1051600000000168013101600068B0F5FA7F0FD9D5
:10517000FFE740F24400C2F200000021016040F26B
:105180000040C4F202004FF4806101F075FCFFE7BB
:1051900080BD000080B5FFF7ABFF80BD81B00090FF
:1051A00000986FF02001016001B0704780B586B0B3
:1051B000059004910020039004984068002801D0D5
:1051C000FFE7FFE742F20000C4F2010000F012F92D
:1051D00042F20011C4F201010290084600F00AF9FF
:1051E0000299084342F20022C4F2010201901046E3
:1051F00000F000F901990843002828D1FFE704983E
:105200004068002815D0FFE70598406841F2E001AA
:10521000CFF6FC71084004990A684B68D1F808C0C1
:10522000C9681A4342EA0C021143084305994860D1
:105230000CE00598406841F2E001CFF6FC710840AF
:1052400004990968084305994860FFE702E00120D6
:105250000390FFE7039806B080BD000080B584B0DE
:10526000039000200290039800F0C4F801280DD1AB
:10527000FFE703980021019100F036F903980199A6
:1052800000F080F8039800F05FF8FFE7039880686B
:10529000C007002854D1FFE70398016821F03F01BF
:1052A0000160039841680022CFF63F02114041603F
:1052B000039881684FF2FC02C8F2800211408160BD
:1052C0000398C16801F07841C1600398016901F059
:1052D000404101610398416940F6FF729143416189
:1052E000039881696FF30B0181610398C1696FF3C2
:1052F0000B01C1610398016A6FF30B01016203980E
:10530000416A114341620398816A6FF30B01816224
:105310000398C16A01F07F41C1620398016B01F0FB
:10532000404101630398816B6FF31501816342F281
:105330000430C4F20100016821F403010160FFE7B9
:10534000029804B080BD000081B000900098816890
:1053500021F00101816001B07047000081B0009030
:105360000098816821F00101816001B07047000060
:1053700081B000900098816841F00101816001B026
:105380007047000082B00190009101988068BDF8DC
:10539000021061F313400199886002B07047000069
:1053A00080B584B00390029100200190039800F032
:1053B00021F8002818D1FFE7039840684FF6FF61F5
:1053C000CFF6FF41084002990A68896811430843F3
:1053D000039948600398806820F400600299496846
:1053E00008430399886002E001200190FFE70198DB
:1053F00004B080BD81B000900098806800F001008A
:1054000001B0704780B584B00390029100200190F4
:1054100002984068002801D0FFE7FFE70398FFF7F4
:10542000E9FF00282ED1FFE70298406800280AD043
:10543000FFE70398406820F46840029989680843B0
:105440000399486006E00398406820F46840039997
:105450004860FFE7039880684FF6FD41CCF2FF01FA
:10546000084002990A68CB68096902F070621A4321
:10547000114308430399886003980299496800F032
:1054800007F802E001200190FFE7019804B080BD19
:1054900082B0019000910198C06A20F470000099D8
:1054A00008430199C86202B07047000084B00390BD
:1054B000029101920398029901F4407100EB91105E
:1054C0002C30009000980068029901F01F011F2203
:1054D0008A409043019A02F01F0202FA01F1084348
:1054E0000099086004B0704782B001900091019863
:1054F00080689DF8031061F31B600199886002B019
:105500007047000081B000900098816841F08041B0
:10551000816001B07047000084B003900291019255
:105520000398029901F0007100EBD1500C3000900B
:10553000009800680299C1F3045107228A40904301
:10554000019A02FA01F108430099086004B070471B
:1055500081B00090009843F63001C4F202010A685D
:1055600022EA0000086001B07047000082B001909C
:10557000019843F63001C4F202010A681043086042
:105580000868019908400090009802B07047000038
:1055900082B00190019843F63001C4F202010A681A
:1055A000104308600868019908400090009802B014
:1055B0007047000082B00190019843F63001C4F2B8
:1055C00002010A68104308600868019908400090C9
:1055D000009802B07047000082B00190019843F635
:1055E0003001C4F202010A6810430860086801999A
:1055F00008400090009802B07047000081B0009011
:10560000009843F61001C4F202010A6810430860D2
:1056100001B0704781B00090009843F61001C4F2C9
:1056200002010A681043086001B0704781B0009021
:10563000009843F61001C4F202010A6822EA000051
:10564000086001B07047000081B00090009843F6F8
:105650001001C4F202010A6822EA0000086001B0E9
:105660007047000082B00190019843F63401C4F203
:1056700002010A6810430860086801990840009018
:10568000009802B07047000081B00090009843F687
:105690001401C4F202010A681043086001B07047A7
:1056A00081B00090009843F61401C4F202010A6828
:1056B00022EA0000086001B07047000081B000904D
:1056C000009843F64001C4F202010A6822EA000091
:1056D000086001B07047000081B00090009843F668
:1056E0004001C4F202010A6822EA0000086001B029
:1056F0007047000081B00090009843F64001C4F26A
:1057000002010A6822EA0000086001B07047000048
:1057100082B00190019843F64001C4F202010A6888
:10572000104308600868019908400090009802B092
:105730007047000082B00190019843F64001C4F226
:1057400002010A6810430860086801990840009047
:10575000009802B07047000082B00190019843F6B3
:105760004001C4F202010A68104308600868019908
:1057700008400090009802B07047000082B001908D
:10578000019843F64001C4F202010A681043086020
:105790000868019908400090009802B07047000026
:1057A00081B00090009843F62001C4F202010A681B
:1057B0001043086001B0704781B00090009843F634
:1057C0002001C4F202010A681043086001B070476A
:1057D00081B00090009843F62001C4F202010A68EB
:1057E00022EA0000086001B07047000081B000901C
:1057F000009843F62001C4F202010A6822EA000080
:10580000086001B07047000081B00090009843F636
:105810004401C4F202010A6822EA0000086001B0F3
:105820007047000081B00090009843F64401C4F234
:1058300002010A6822EA0000086001B07047000017
:1058400081B00090009843F64401C4F202010A6856
:1058500022EA0000086001B07047000082B00190A9
:10586000019843F64401C4F202010A68104308603B
:105870000868019908400090009802B07047000045
:1058800082B00190019843F64401C4F202010A6813
:10589000104308600868019908400090009802B021
:1058A0007047000082B00190019843F64401C4F2B1
:1058B00002010A68104308600868019908400090D6
:1058C000009802B07047000082B00190019843F642
:1058D0004401C4F202010A68104308600868019993
:1058E00008400090009802B07047000081B000901E
:1058F000009843F62401C4F202010A6810430860CC
:1059000001B0704781B00090009843F62401C4F2C2
:1059100002010A681043086001B0704781B000902E
:10592000009843F62401C4F202010A6822EA00004A
:10593000086001B07047000081B00090009843F605
:105940002401C4F202010A6822EA0000086001B0E2
:105950007047000080B584B0039000200290039847
:1059600043F20001C4F20201884209D1FFE74FF47B
:1059700080500190FFF742FE0198FFF757FE02E0CA
:1059800001200290FFE7029804B080BD82B0019030
:10599000009100980199086002B0704781B00090B2
:1059A0000098006801B0704781B00090009881684D
:1059B00041F00101816001B07047000084B00390A4
:1059C000029101920398029901F4702100EB913049
:1059D000083000900098006840F6FF7188430199F4
:1059E00008430099086004B07047000082B001903D
:1059F0000091009800F01000012101FA00F00199D7
:105A00000A681043086002B07047000080B584B097
:105A100003900291019200200090019840680028B4
:105A200001D0FFE7FFE70398029900F03DF8002856
:105A300033D1FFE70198406800281BD0FFE70398A7
:105A40000068029901F0100140F6FA728A40904312
:105A5000019A1368D2F804C0D2F808E0D26843EA89
:105A60000C0343EA0E031A4302FA01F108430399B7
:105A7000086011E003980068029901F01001FA2211
:105A80008A409043019A1368D2681A4302FA01F1DE
:105A9000084303990860FFE702E001200090FFE758
:105AA000009804B080BD000082B001900091019880
:105AB0000068009901F01001C84000F0010002B038
:105AC0007047000080B582B00190009100980028D6
:105AD00010D1FFE7019800F023F9019800F068F970
