:020000040800F2
:10000000003F00209D010008213F000881160008E4
:100010002D3B0008490B0008496200080000000061
:100020000000000000000000000000006D46000815
:10003000F911000800000000553F0008A54A00081B
:100040004D6200082D3F0008B7010008B701000805
:10005000B7010008593F0008B7010008B7010008C0
:10006000B7010008B7010008B7010008B701000890
:10007000B7010008B7010008B7010008B701000880
:10008000B7010008B7010008B7010008B701000870
:10009000B7010008B7010008B7010008B701000860
:1000A000B7010008B7010008B7010008B701000850
:1000B000A94F0008B7010008B7010008B701000800
:1000C000B7010008B7010008B7010008B701000830
:1000D000B7010008D5500008B7010008B7010008B3
:1000E000B7010008B7010008B7010008B701000810
:1000F000B7010008B7010008B7010008B701000800
:10010000B7010008B7010008B7010008B7010008EF
:10011000B7010008B7010008B7010008B7010008DF
:10012000B5110008F5110008B7010008B701000873
:10013000B7010008B7010008B7010008B7010008BF
:10014000B7010008B7010008B7010008B7010008AF
:10015000B7010008B7010008B7010008B70100089F
:10016000B7010008B7010008B7010008B70100088F
:10017000B7010008B7010008B7010008000000003F
:100180007D160008B7010008DFF80CD000F0F4FA83
:100190000048004789620008003F00200648804769
:1001A00006480047FEE7FEE7FEE7FEE7FEE7FEE75C
:1001B000FEE7FEE7FEE7FEE7514F00088901000871
:1001C0002DE9F05F0546002092469B46884606468C
:1001D000814640241BE0284641464746224600F01F
:1001E0001CFA53465A46C01A914110D3114618467C
:1001F000224600F003FA2D1A67EB01084F4622460B
:100200000120002100F0FAF917EB00094E41201EF1
:10021000A4F10104DFDC484631462A464346BDE8E6
:10022000F09FD2B201E000F8012B491EFBD27047CB
:100230000022F6E710B513460A4604461946FFF7B2
:10024000F0FF204610BD2DE9FE4F804681EA0300F5
:10025000C00F0C46009021F0004123F00045B8EBA0
:100260000200A94105D24046214690461C460B4655
:10027000024623F00040104347D0270DC7F30A0081
:10028000C3F30A510290401A019040286BDAC3F37D
:10029000130040F4801B0098924620B10023D2EB5B
:1002A000030A63EB0B0B01985946C0F1400250461C
:1002B00000F0A4F906460D4650465946019A00F052
:1002C000BCF910EB08006141002487EA115284EA6E
:1002D000E7731A4340D0009A62B3019A012A4FEAA9
:1002E000075215DC001B61EB02014FF0004202EAED
:1002F0000752CDE90042001C41F5801132462B46E1
:1003000000F0BCF903B0BDE8F08F40462146F9E7A4
:10031000001B61EB0201001C41F5801300185B41DA
:100320002018A2F5001747EB030140EAD570B61973
:100330006D4111E06D084FEA360645EAC0754FEA97
:100340000752001B61EB0201001C41F580114908B6
:100350004FEA30000019514132462B4603B0BDE848
:10036000F04F00F07CB90098012240000023D0EB50
:10037000020263EBE073009821464FEAE074B8EBA9
:10038000000061EB0401E9E783F000435BE781F0E3
:10039000004158E72DE9FE4F81EA030404F00044D0
:1003A00021F0004100944FF0000B23F0004350EA8D
:1003B00001045ED052EA03045BD0C3F30A54C1F3D4
:1003C0000A552C44A4F2F3340194A0FB0254C1F367
:1003D000130141F48011C3F3130343F4801301FBB1
:1003E000024400FB034E840A970A44EA815447EA18
:1003F0008357A4FB076802958D0A05FB07854FEA22
:10040000932C04FB0C542705029D4FEA065847EA3B
:100410001637B5EB08056EEB070C870E920E47EA10
:10042000811742EA8312A7FB0201B6EB0B0164EBD2
:1004300000042B0D43EA0C335E1844EB1C50DA46E3
:100440005146E7FB0201C5F313044FEA0B3343EABD
:1004500014534FEA0432019C43EA0603A4F10C044E
:100460000294009CCDE900B400F008F903B0BDE8A7
:10047000F08F00200146F9E72DE9F04D81EA0304F1
:1004800004F0004B21F0004514464FF0000A23F021
:10049000004150EA050220D054EA01021DD0C5F304
:1004A0000A570246C5F31303C1F31300C1F30A56FA
:1004B00040F4801543F48013A7EB0608101BD646C2
:1004C00008F2FD3873EB050002D308F1010801E0E2
:1004D00092185B41B8F1000F03DA00200146BDE835
:1004E000F08D00204FF48011064684460EE0171B65
:1004F00073EB050705D3121B63EB050306434CEAB8
:10050000010C49084FEA300092185B4150EA01079C
:10051000EDD152EA030012D082EA040083EA050119
:10052000084305D0101BAB4106D20122002306E090
:1005300000224FF0004302E06FF0010253101AEB6B
:1005400006004CEB085110EB0A0041EB0B01BDE833
:10055000F04D00F084B80EB5C10F80EAE070084499
:10056000CA07002140F233438DE80E000A460B46CD
:1005700000F084F803B000BD0EB540F233410291A3
:100580000021CDE900110A460B4600F077F803B0D0
:1005900000BD70B5C1F30A5201F000450024C1F35B
:1005A000130140F2FF3341F480119A4201DA002036
:1005B00070BD40F233439A42A2F2334203DC52420E
:1005C00000F02BF800E090402C43F1D0404270BD89
:1005D00030B50B46014600202022012409E021FA13
:1005E00002F59D4205D303FA02F5491B04FA02F510
:1005F0002844151EA2F10102F1DC30BD202A04DBE3
:10060000203A00FA02F1002070479140C2F1200325
:1006100020FA03F3194390407047202A04DB203A64
:1006200021FA02F00021704721FA02F3D040C2F112
:1006300020029140084319467047202A06DBCB1759
:10064000203A41FA02F043EAE07306E041FA02F38D
:10065000D040C2F12002914008431946704710B5BE
:10066000141E73F1000408DA401C41F100019218D5
:100670005B411A4301D120F0010010BD2DE9F04D7E
:1006800092469B4611B1B1FA81F202E0B0FA80F2D3
:1006900020329046FFF7B2FF04460F4640EA0A00B8
:1006A00041EA0B0153465A46084313D0114653EA18
:1006B000010019D0C8F140025046FFF7AEFF0546D1
:1006C0000E46504659464246FFF798FF084305D06C
:1006D000012004E020463946BDE8F08D00200543A6
:1006E00046EAE0762C4337430A986305E40AA0EB18
:1006F00008000022FD0A44EA47540A3002D50020CF
:100700000146E9E7010510196941DDE908450019CD
:100710006941BDE8F04DA2E7C1F30A52C1F31301EC
:1007200040F2FF3341F480119A4202DA0020014680
:10073000704740F233439A42A2F2334202DC524203
:10074000FFF76BBFFFF75ABF30B5041E71F100040D
:1007500004DB4FF00044404264EB0101141E73F1CE
:10076000000405DB1C464FF00043524263EB0403D8
:10077000994208BF904230BD064C074D06E0E06844
:1007800040F0010394E8070098471034AC42F6D3D8
:10079000FFF7FEFC0C7000082C70000800F0C4B8D5
:1007A00000F01EB900F070B900F08CB900F09CB9EF
:1007B000FFF7F4BFFFF7F4BFFFF7F4BFFFF7F4BF95
:1007C000FFF7F4BF2DE9F04397B046F21048C4F2AA
:1007D0000208A8F1100528460021002602F0C4FDF9
:1007E00043F63007C4F2020738684FF0010940F4BD
:1007F00080003860386842F2000400F48000019004
:10080000019812200E960A96099040F21C00C2F23E
:1008100000000068039606300C96CDF834900290E4
:100820004FF4005008904FF48060C4F20104069029
:1008300004F14C00049601904FF400600F9607906D
:100840004FF4003005960B9001AA2846002102F0D3
:1008500065FED8F800004FF0FF3240F00100C8F804
:1008600000004EF60C50CEF200000068C0F30220EB
:1008700080F00701042928BF0421033802FA01F19E
:1008800038BF002029EA010101FA00F04EF20411FC
:100890000001CEF2000181F834034FF0807008604F
:1008A000D8F8000040F01000C8F80000204612966A
:1008B00002F042FC786914A940F48070786178698C
:1008C00000F48070019001984FF48070CDE91466B7
:1008D0001690204602F08AFC0220CDE901660396BC
:1008E00004904FF44070059001A9204602F098FC56
:1008F0004FF44030CDE9100604F5407010A913966E
:1009000002F0F0FB606B0A2161F304006063E068B1
:1009100040F00700E060A06840F001010020A16005
:1009200017B0BDE8F083000042F20021C4F20101DB
:10093000884227D042F20001C4F2010188424CD122
:1009400040F21C00C2F20000006800210170C0F8F3
:100950000610C0F80A10C0F80E10C0F81210C182BC
:1009600046F21040C4F202004168122262F30F0105
:100970004160016841F00101016042F20800C4F2E7
:10098000010022E040F22000C2F2000000680021D5
:100990000170C0F80610C0F80A10C0F80E10C0F8B8
:1009A0001210C18246F21040C4F20200C169122244
:1009B00062F30F01C161816941F00101816142F27D
:1009C0000800C4F2010000F50070016841F0010167
:1009D0000160016841F08041016000207047000023
:1009E00042F20021C4F20101884227D042F2000104
:1009F000C4F20101884245D140F21C00C2F200005D
:100A0000006801780131017046F20840C4F202002A
:100A1000816821F0010181601021016020210160C5
:100A200042F20800C4F20100016821F001010160F6
:100A30006FF0200140F8081C0020704740F22000B1
:100A4000C2F20000006801780131017046F20840EE
:100A5000C4F20200016A21F0010101624FF48061D9
:100A600001604FF40061016042F20800C4F201002D
:100A7000D0F8001221F00101C0F800126FF020013F
:100A8000C0F8F81100207047B0B586B040F60004F9
:100A9000C4F2020420460121012500F0C3FC00201D
:100AA0000590CDE9020003200095019002200490FA
:100AB0006946204602F078FDFFF784FE002006B06C
:100AC000B0BD000040F21C00C2F20000006846F217
:100AD00030714088C0F6FF7141F6781200FB0210B9
:100AE000C0F30F3070470000B0B58AB00446C0882C
:100AF00001ADADF80400A068E16822696369CDF832
:100B00000600CDF80A10CDF80E20A069CDF81230FD
:100B1000CDF81600E069216ACDF81A00CDF81E1054
:100B2000A08CD4F82610ADF8220009912846122195
:100B300000F0AEFB28461021022200F0B9F9014670
:100B4000002061800AB0B0BDFEE7000080B500F073
:100B50001BF880BD00F07EB880B500F0B7F880BD0E
:100B600080B500F041F980BD00F07CB900F080B99B
:100B7000FFF7ECBFFFF7EEBFFFF7EEBFFFF7F0BFE9
:100B8000FFF7F2BFFFF7F2BFF0B571B14A1E032ABB
:100B900046F6D83201F0030CC0F6000208D200235A
:100BA0000021BCF1000F33D151E0002188B2F0BD2B
:100BB000ACEB010E431C00216FF003041D19EE780D
:100BC0008FB286EA172632F816602F7986EA01215D
:100BD00089B287EA112132F811106F7981EA06266D
:100BE000B6B287EA162632F81660AD7986EA012198
:100BF00089B285EA112132F8111004340EEB040594
:100C0000043581EA0621D9D1231DBCF1000F1ED085
:100C1000C75C8EB287EA162732F81740BCF1010F85
:100C200084EA012113D01844437889B283EA112160
:100C300032F81130BCF1020F83EA042107D080782A
:100C400089B280EA112032F8100080EA032188B2CC
:100C5000F0BD0000B0B543F20002C4F20202936896
:100C600043F00103936071B34B1E032B01F0030C9F
:100C700004D20021BCF1000F18D124E0ACEB010E2E
:100C8000411C6FF0030300BFCC18E57804331560F6
:100C90002579156065791560A4790EEB0305043597
:100CA0001460F1D1191DBCF1000F0CD0435CBCF1F4
:100CB000010F136007D008444178BCF1020F1160A6
:100CC0001CBF807810601068B0BD00002DE9F041B5
:100CD0003AB1531E032B02F0030C06D2002300226C
:100CE00041E00022D0B2BDE8F08146F6D85846F681
:100CF000D865A2EB0C0E0023C0F60008C0F6000574
:100D0000002206E044467240D2B2A25C04339E4503
:100D100029D0CE5C072803D0312805D12F4600E02A
:100D200047467240D2B2BA5CCE187778072803D013
:100D3000312805D12C4600E044467A40D2B2A25C6C
:100D4000B778072804D0312806D12C4601E000BF2F
:100D500044467A40D2B2A25CF6780728D2D0312835
:100D6000D4D12C46CFE7BCF1000F39D0CE5C072898
:100D700006D031280BD146F6D867C0F6000703E04D
:100D800046F6D857C0F600077240D2B2BA5CBCF142
:100D9000010F25D019444B78072806D031280BD1F4
:100DA00046F6D867C0F6000703E046F6D857C0F607
:100DB00000075A40D2B2BA5CBCF1020F10D0897859
:100DC000072806D031280BD146F6D860C0F60000BF
:100DD00003E046F6D850C0F600005140C9B2425C6C
:100DE000D0B2BDE8F081000059B1F0B54A1E032A27
:100DF00001F0030C08D200230022BCF1000F1DD12A
:100E00002BE00020C0B27047ACEB010E421C002367
:100E10006FF003041119CD780E794F792B4489793D
:100E200033443B44043451FA83F10EEB040304339E
:100E3000CBB2EFD1221DBCF1000F0ED0815CBCF112
:100E4000010F194409D010444278BCF1020F52FA44
:100E500081F11CBF807850FA81F14842BDE8F04032
:100E6000C0B2704740F20400C2F200000078704740
:100E700010B582B043F63004C4F20204A4F5036056
:100E800002F0F8F940F20400C2F200000121017002
:100E9000216841F480512160216801F48051019161
:100EA00001990021017002B010BD00000000000097
:100EB0002DE9F0472DED028B924689468A4238D2C1
:100EC0008046A9EB0A006FEA0A0110F0030501EB66
:100ED000090431D038F81A00FFF74EFB074641EC01
:100EE000180B012D0AF1010029D038F810000E4628
:100EF000FFF742FB02460B4638463146FFF7A3F99F
:100F0000064641EC180B022D0AF1020017D038F802
:100F100010000F46FFF730FB02460B4630463946BD
:100F2000FFF791F941EC180B0AF10300032C3ED3B3
:100F300007E09FED278B3AE09FED258B5046032C71
:100F400035D3A9EB000508EB4000A0F1080400BF71
:100F500034F8080FFFF710FB02460B4651EC180B54
:100F6000FFF771F9064660880F46FFF705FB02465A
:100F70000B4630463946FFF766F90646A0880F460D
:100F8000FFF7FAFA02460B4630463946FFF75BF99F
:100F90000646E0880F46FFF7EFFA02460B4630465A
:100FA0003946FFF750F9043D41EC180BD0D1A9EBBD
:100FB0000A00FFF7D0FA02460B4651EC180BFFF778
:100FC0005BFAFFF7E6FABDEC028BBDE8F08700BFE5
:100FD000000000000000000070B5E2B1C2F1000C9A
:100FE000A2F1010E0023C45C8C4216D19E4512D0A2
:100FF000C41865788D4210D10CEB0305AE1C0AD0E5
:10100000A6788E4209D1033505D0E4788C4204D10C
:1010100004339A42E7D1002070BD012070BD00006A
:1010200000F006B800F034B8FFF7FABFFFF7FABFD8
:101030004FF47A72514345F6A022C0F23202914237
:1010400038BF0A4651084CF61772CAF29E22A1FB1D
:10105000021247F20841130A40F6FF7CC4F2000175
:10106000634540F6FF7338BF130A0A68B3F57A7F09
:1010700022EA0C0288BF043B1A4303280A6004D109
:10108000C86820EA0C001843C860002070470000C0
:101090002DE9F04786B047F20044C4F2000404F59D
:1010A000C635894607462846012100F0BBF90020D5
:1010B000032F0590CDE90300CDE90100009001D197
:1010C000302003E0022F14BF1020202000900320C6
:1010D0000190022040F21208012604906946284639
:1010E000C1F24358C0F2102602F05EFA43F6400007
:1010F000C4F202000168032F41F000510160006852
:1011000000F00050009000982BD100254FF0380AD5
:10111000B9F101000295CDE900A518BF01204700F3
:101120006A4620463146039702F0B8F8206840F638
:10113000FF7140F001002060A0686A468843A0600B
:1011400020464146CDE900A5CDE9025702F0A6F8B8
:10115000206840F48030206060696FF30B006061AC
:1011600023E0002038210290CDE90010B9F1010000
:1011700018BF012040000390022F08BF46466A4670
:101180002046314602F08AF806F01000012122685C
:1011900001FA00F010432060C6F3014004EB800028
:1011A000816840F6FF7291438160002006B0BDE87F
:1011B000F087000010B546F20040C4F2020001685A
:1011C000890646BF00695FEAC06010BD40F21C009E
:1011D000C2F200000068FFF7F3FA42F20004C4F222
:1011E00001042046FFF7E6FA2046BDE81040FFF76D
:1011F000DFBA0000704700007047000000F030B810
:10120000AFF30080002808BF704770B5044644F66D
:10121000D350C1F26200A4FB0001B4F57A7F4FEA1B
:10122000911510D303F006FB50B12E464FF47A709F
:10123000013EFFF7E7FF01F049FF002EF6D102E083
:10124000284603F0FBFA4FF47A7005FB1040BDE826
:10125000704003F0FBBA0000FFF7D0BFFFF7D0BF2C
:1012600010B5002808BF10BD044603F0E3FA48B1EA
:101270004FF47A70013CFFF7C5FF01F027FF002C07
:10128000F6D110BD2046BDE8104003F0D7BA0000EB
:101290002DE9F04101391FFA81FEBEF1000F00F087
:1012A000BA80AEF1010103290EF0030C01D2002334
:1012B00068E0AEEB0C08002305E000BFB8F10408BD
:1012C00003F104035ED0AEEB0302012A11DB00251B
:1012D000002400BF6F1C30F8156030F8171001347F
:1012E0008E423CBF20F8176020F81510A5B2AA4224
:1012F000F0DC43F00101AEEB0102012A11DB002515
:10130000002400BF691C30F8156030F811700134FA
:10131000BE423CBF20F8116020F81570A5B2AA4269
:10132000F0DC43F00201AEEB0102012A11DB0025E3
:10133000002400BF691C30F8156030F811700134CA
:10134000BE423CBF20F8116020F81570A5B2AA4239
:10135000F0DC43F00301AEEB0102012AAEDB002515
:10136000002400BF691C30F8156030F8117001349A
:10137000BE423CBF20F8116020F81570A5B2AA4209
:10138000F0DC9BE7BCF1000F45D0AEEB0301012977
:1013900011DB0024002200BF661C30F8145030F826
:1013A00016700132BD423CBF20F8165020F8147070
:1013B00094B2A142F0DCBCF1010F2CD0DA437244AC
:1013C000012A10DB002500236F1C30F8156030F86F
:1013D00017400133A6423CBF20F8176020F81540A3
:1013E0009DB2AA42F0DCBCF1020F14D002390129EF
:1013F00011DB0023002200BF5F1C30F8136030F8BF
:1014000017500132AE423CBF20F8176020F813504D
:1014100093B29942F0DC0020BDE8F08100F006B8FC
:1014200000F0BCB8FFF7FABFFFF7FABF81B000F1D8
:101430003E4000F1FF704FEAB020082800F2AB8078
:10144000DFE800F00513212F3D4B5966730043F68A
:1014500030000029C4F2020077D0016841F0010198
:101460000160006800F001006BE043F630000029E5
:10147000C4F202006DD0016841F002010160006811
:1014800000F002005DE043F630000029C4F20200E3
:1014900063D0016841F004010160006800F00400BD
:1014A0004FE043F630000029C4F2020059D0016831
:1014B00041F008010160006800F0080041E043F6D7
:1014C00030000029C4F202004FD0016841F0100141
:1014D0000160006800F0100033E043F6300000299E
:1014E000C4F2020045D0016841F0200101600068AB
:1014F00000F0200025E043F63000C4F20200E1B322
:10150000016841F040010160006800F0400018E00F
:1015100043F63000C4F2020099B3016841F0800143
:101520000160006800F080000BE043F63000C4F278
:10153000020061B3016841F480710160006800F449
:1015400080700090009801B07047016821F001019F
:101550001AE0016821F0020116E0016821F004019F
:1015600012E0016821F008010EE0016821F010018D
:101570000AE0016821F0200106E0016821F0400145
:1015800002E0016821F08001016001B0704701684C
:1015900021F48071016001B07047000081B043F612
:1015A0003000C4F20200016841F0010101600168ED
:1015B00001F0010100910099016841F00201016010
:1015C000016801F0020100910099016841F00401F5
:1015D0000160016801F0040100910099016841F087
:1015E00008010160016801F008010091009901689B
:1015F00041F010010160016801F0100100910099B3
:10160000016841F020010160016801F020010091B2
:101610000099016841F040010160016801F040015A
:1016200000910099016841F080010160016801F0BA
:10163000800100910099016841F4807101600168A6
:1016400001F4807100910099416941F48041416148
:10165000406900F480400090009801B0704700009D
:1016600040F2340042F6F861C2F20000C2F200011A
:1016700000680A68104408607047000002F072BCFD
:1016800000F002F8FEE700001EF0040F0CBFEFF3BD
:101690000880EFF3098000F001B8704740F21C1198
:1016A000C2F200010022C1E90022C1E90222C1E91F
:1016B0000422C1E90622D0E90023C1E90023D0E9D0
:1016C0000223C1E90223D0E90423C1E90423D0E9BC
:1016D0000620C1E9062001BE7047000070B504462F
:1016E000007815460E4688B1204600F0FFFF2046E0
:1016F00031462A4600F004FC002818BF01204500AE
:101700002046642101F0E6F8284670BDA179204604
:1017100000F092FC0028E7D00125284670BD0000AB
:101720002DE9F04182B0044600781D4616460F466A
:10173000A8B1DDF82080204600F0D8FF20463946C9
:1017400032462B46CDF8008000F038FC002818BF48
:10175000012045002046642101F0BCF806E0A17993
:10176000204600F069FC0028E3D00125284602B09D
:10177000BDE8F081B0B51446054600F05DFC0028D8
:1017800018BFB0BD28462146BDE8B04001F090B872
:10179000B0B50446007878B1204600F0A7FF204697
:1017A00000F0D6FC002818BF012045002046642127
:1017B00001F090F82846B0BDA179204600F03CFC2D
:1017C0000028E9D001252846B0BD000000F022BD68
:1017D00000F05EBD70B50446007815460E4688B12F
:1017E000204600F083FF204631462A4600F0BAFD2D
:1017F000002818BF012045002046642101F06AF846
:10180000284670BDA179204600F016FC0028E7D0DC
:101810000125284670BD00002DE9F04182B0044644
:1018200000781D4616460F46A8B1DDF820802046F8
:1018300000F05CFF2046394632462B46CDF800804A
:1018400000F0B8FD002818BF0120450020466421A3
:1018500001F040F806E0A179204600F0EDFB0028F9
:10186000E3D00125284602B0BDE8F0812DE9F04320
:1018700083B0044600781D4616460F46B8B1DDE930
:101880000A98204600F032FF2046394632462B4661
:10189000CDF80090CDF8048000F0C2FD002818BFFC
:1018A000012045002046642101F014F806E0A179EA
:1018B000204600F0C1FB0028E1D00125284603B0F6
:1018C000BDE8F08370B50446007815460E4688B131
:1018D000204600F00BFF204631462A4600F032FE3B
:1018E000002818BF012045002046642100F0F2FFC7
:1018F000284670BDA179204600F09EFB0028E7D065
:101900000125284670BD0000B0B5044600780D469C
:1019100080B1204600F0EAFE2046294600F04CFE49
:10192000002818BF012045002046642100F0D2FFA6
:101930002846B0BDA179204600F07EFB0028E8D003
:1019400001252846B0BD0000B0B5044600780D461C
:1019500080B1204600F0CAFE2046294600F068FE0D
:10196000002818BF012045002046642100F0B2FF86
:101970002846B0BDA179204600F05EFB0028E8D0E3
:1019800001252846B0BD0000F0B581B004460078BE
:101990001D4616460F4688B1204600F0A7FE204699
:1019A000394632462B4600F059FE002818BF012068
:1019B00045002046642100F08DFF06E0A179204615
:1019C00000F03AFB0028E7D00125284601B0F0BD21
:1019D00000F06EBF00F088BF80B582B0DDE904CEB4
:1019E000CDE900CE01F084F902B080BD70B50446A7
:1019F000007815460E4688B1204600F077FE204656
:101A000031462A4601F0EAF9002818BF01204500B6
:101A10002046642100F05EFF284670BDA179204673
:101A200000F00AFB0028E7D00125284670BD000021
:101A3000B0B5044600780D4680B1204600F056FE51
:101A40002046294601F0DCFA002818BF0120450095
:101A50002046642100F03EFF2846B0BDA179204613
:101A600000F0EAFA0028E8D001252846B0BD0000C1
:101A7000FFF7AEBE2DE9F04182B00C4605460846A0
:101A80000021164603F0E6FB002E18BF0126267340
:101A9000617A206F3144415C10390C291CD8DFE891
:101AA00001F0071D2345547381939EA6B1C4DE0047
:101AB000A17A3144415C022900F01581012940F0EE
:101AC0001B81E27A9119415C10443044421C284643
:101AD000FFF750FE054613E1012511E12846214696
:101AE00000F016F905460BE1B4F85E20E17AFF2A12
:101AF00001EB060303EB00018F7824BFCA7842EAAA
:101B00000727D4F844C0B4F82AE0A27AC35C324470
:101B1000825C48780CEB0E01009028460197FFF795
:101B2000A5FE618D0546C8196085E9E0B4F85E3010
:101B3000E27AFF2B02EB060808EB000797F802C0D9
:101B400080F093804FF0030E94E0B4F85EC0E17A29
:101B5000BCF1FF0F01EB060303EB0002577824BF33
:101B6000927842EA0727D4F844C0618DA27AC35C18
:101B70003244825C614428460097FFF74DFE618D38
:101B80000546C8196085BBE0B4F85E70E27AFF2FA5
:101B900002EB060101EB000393F801E07BD24FF06A
:101BA000020C7DE0A17A626C3144415C638D0029B6
:101BB00002EB030100F083802846FFF7C5FE618D2C
:101BC0000546481C60859BE0A27AE17A32440144D4
:101BD000825C31442846FFF709FF054690E0A17A70
:101BE0003144415C2846FFF723FF054688E0606CDE
:101BF000618D01442846FFF787FE618D0546C81CAC
:101C000060857DE0616C638DA27A19443244825C08
:101C10002846FFF7DFFDA17A227B236F1144595C30
:101C2000628D0546501860856AE0B4F85E20E17A5E
:101C3000FF2A3144475C03D30144497841EA07272E
:101C4000616C638DA27A19443244825C28463B461B
:101C5000FFF79AFE618D0546C819608550E0284659
:101C6000214600F0D3F805464AE0FB784FF0040E19
:101C700043EA0C2CA37A024491199A19825C10F859
:101C800008307878714400902846CDF804C0FFF7FA
:101C9000A3FE054634E09B784FF0030C43EA0E2E7A
:101CA000A37A024497199A19825C435C07EB0C01F2
:101CB0002846CDF800E000F0FFFE054620E0E27A7D
:101CC0003244825C2846FFF7FDFDE17A227B236FD8
:101CD0001144595C054611B1608D01306085608DFD
:101CE000023060850CE0E17A08443044411C28460B
:101CF000FFF76EFE054603E02846FFF767FD054641
:101D00002046294603F0AAFA284602B0BDE8F08131
:101D1000B0B582B08A7A0B7B0C46096F1A448B5C93
:101D2000022B05D0012B09D093B9FFF731FD0DE04F
:101D30000A4451789278FFF7D1FC07E0551869788A
:101D4000AA78EB782D790095FFF7EAFC054600E0CC
:101D5000FF25A07A217B226F0844105C18B1204631
:101D6000294603F077FA284602B0B0BD70B5D8B165
:101D70000C46C9B106462046154603F073FA012801
:101D800014D1204603F062FA18B9204603F060FA35
:101D900088B1207915A1421E204604F0E7F82046BC
:101DA000BDE8704003F07CBA022070BD2046BDE85B
:101DB000704003F077BA2046294603F04DFA3046CA
:101DC00021462A46FFF756FE94F82900012807D13C
:101DD00020460D2103F03EFA20460A2103F03AFA8C
:101DE0002046002103F03CFAD9E700BF3D3E3EB457
:101DF000AEBFDA25643AB7A2C9FA435243D0A3D1A1
:101E0000E9B4EDCEF33C3C3D0D0A0000B0B591F8CD
:101E10000AE091F80CC00B6F0C460CEB0E015A5CFB
:101E2000022A0FD0012A23D1606C704400EB0C050C
:101E3000FEF7C4FC40BAA5F80100608D0230608551
:101E40000020B0BD03EB0E0000EB0C056878A9780C
:101E500041F2180441EA00210020C4F2020401F01A
:101E60001BFEE87850B14FF40020206010200AE0FB
:101E700019444978BDE8B040FFF7ACBD4FF480107D
:101E800020604FF4002020600020B0BD0022FFF74A
:101E90006DBF0000B0B540F22405C2F200052C6809
:101EA0002078002808BFB0BD606F8047A1694A4212
:101EB000884238BFCA43E18A1044884216D904F1E7
:101EC0002800012102F0F0F8D4E907120020607028
:101ED0008A61E178002904BF0F21A170A0812070E0
:101EE0002A68FF21A2426171E08000D0B0BD41F6B6
:101EF0009560C0F60000BDE8B04002F091BD000062
:101F00002DE9F04F85B00646084614460F4601F00D
:101F10002DFE0028049041D0002C4FF0000B42D041
:101F20000020002103900194029137B3039CDDF857
:101F300010A0A0B24FEA10294FF0000840F238007C
:101F4000C2F2000005685FFA89F2E3B23046A021D0
:101F5000CDF800B0A84720BB707D08F101080AF851
:101F6000010B012050FA84F4E0B2001B1FFA88F143
:101F700018BF0120B9428144E0D30498FF213A46BA
:101F8000FFF72AF8B0B90299019C03980131A142E8
:101F900038440390C8D34FF0000B04E04FF0010B1E
:101FA00001E04FF0020B049801F0C2FD584605B065
:101FB000BDE8F08F4FF0030BF5E700002DE9F04787
:101FC00082B042EA0126804630461F4601F0CEFD2F
:101FD000044610B30A9840EA072ABAF1000F1ED04F
:101FE0004FEA560900250027E8B2CDE90006C5F3FF
:101FF0000742C5F307234046214600F011FA80B995
:102000002046FF213246FEF7E7FF60B90137B8B23C
:1020100082454D44E8D8002506E0012504E000256E
:1020200002E0022500E00325204601F081FD28465C
:1020300002B0BDE8F08700002DE9F04782B0827859
:1020400088461146044600F075FB04F138078DCF31
:1020500097FAA7F5B5FA85F5D4F824C01E686D0087
:102060000321A94026EA01010126AE40314319604F
:1020700011043A0481619A61816101209A61E0470B
:10208000D4E91001626A816101209047D4E91020EF
:10209000616A000490610120884740F23809FF20FE
:1020A00012251126C2F200094FF0000A60711BE0F0
:1020B000A078042834BF03200138A070C1B22046A4
:1020C000354600F037FBD4E91001626A81610120D6
:1020D0009047D4E91020616A00049061012088478C
:1020E0003006A6F101062CD0D9F800702046AC21AC
:1020F00053220023CDF800A0B847207D532805D0F7
:10210000E0780028D4D0A078AE1ED7E70120207058
:1021100084F80680616F4FF4FA70E082884740F2DD
:102120002401C2F200010968A061A14205D141F673
:102130009560C0F6000002F07FFB002002B0BDE811
:10214000F087D4E907018161012002B0BDE8F08782
:102150002DE9F04F81B040F2380BC2F2000BDBF8F2
:1021600000600025AC218022002304460095B04782
:10217000E0B9A07930B1616F4FF0000841B18847F4
:10218000054606E02079616A0A30884700200DE0A4
:102190000025DBF800602046F02100220023CDF866
:1021A0000080B04730B16FF07F014840C0B201B04D
:1021B000BDE8F08F48F2A06AC5F100084FF00009B1
:1021C000C0F2010A00260FE0013656451FD800F084
:1021D0007DFFDBF800702046F02100220023CDF8BF
:1021E0000090B8470028DED1607DC0070DD0606F39
:1021F0000028E9D080470646A842404638BFE84359
:1022000030446428E3D90220CDE70020CBE7032047
:10221000C9E7000010B504462830012101F044FF51
:10222000D4E90712002060708A61E178002904BFB8
:102230000F21A170FF21617140F224012070C2F2D0
:1022400000010968A081A142E08001D0002010BDFA
:1022500041F69560C0F6000002F0E2FB002010BDE0
:1022600080B58446DDF808E00CF80E1F00218CF8DC
:10227000012062468CF802300CF11A0042F8041F6B
:10228000614604238CF803E0BDE8804001F024BFE0
:102290002DE9F04786B000284FF001045ED00546D6
:1022A00040F22400C2F200000068A84256D140F279
:1022B000004C00240F20C4F2020C2C80A8704FF4B4
:1022C000FA704FF4805A4FF40057ACF5E636AC8103
:1022D0006C602C81E882C5F80E40C5F81240C5E953
:1022E0000F7CC5E911A641F25926C0F600060CF58F
:1022F00000604FF4804E4FF40048A5F84E40002A8D
:1023000018BF164605F12C02C5E9070EC5E9096C90
:1023100082E8005141F25D22C0F600024FF005094B
:10232000C5F838C0002918BF0A460121C5E91A942A
:10233000C5E91C230126FFF775F8CDE90166CDE953
:1023400003460594D5E907010091694601F02CF98F
:10235000D5E907018161686F8047A861204606B012
:10236000BDE8F0872DE9F04782B04FF0000AE2B1F6
:1023700040F23808144689460646C2F20008002595
:10238000D8F80070EBB2304638210022CDF800A01A
:10239000B84740B9707D09F805000135AC42EFD16E
:1023A0004FF0000A01E005F1020A5FFA8AF002B07C
:1023B000BDE8F0872DE9F04F81B00F460A994FF044
:1023C000000841B340F2380A1D4616468346C2F261
:1023D000000A4FF0000900BFDAF80040F2B2EBB299
:1023E0005846A021CDF80080A04798B99BF8150069
:1023F0000A9907F8010B012050FA85F5E8B2401B55
:1024000009F1010918BF012089450644E4D34FF0C2
:10241000000800E08046404601B0BDE8F08F0000B3
:102420002DE9F04F85B00F9C0D46E1071BD1834687
:1024300040791E461746904219D040F23800C2F249
:102440000000D0F800E04FF0000C58464D2100226B
:102450003B468BF80570CDF800C0F04738B103203B
:1024600005B0BDE8F08F022005B0BDE8F08F600830
:1024700003904FF0000056D00E9C40F238080297AF
:10248000C2F20008002707E0049ED04603980137F7
:10249000874205F1020551D2D8F800C00496F6B281
:1024A000A146E4B24FF0000E5846202132462346A2
:1024B000CDF800E0E047C8BB9BF815004FF0000ED8
:1024C0002870D8F800C05846282132462346C24614
:1024D000CDF800E0E04768BB4C46012353FA89F48D
:1024E0009BF81500E1B2A1426870CDD0049ED046A1
:1024F00053FA86F6F0B2B042C8D002999BF80500B4
:102500000131CBB298424FF000060291BED0D8F80C
:1025100000C08BF8051058464D2100220096E04778
:102520000028B3D0062005B0BDE8F08F042005B028
:10253000BDE8F08F052005B0BDE8F08F002005B0A4
:10254000BDE8F08F2DE9F04381B040F23807C2F2C8
:1025500000073E689146884600245021002200234F
:1025600005460094B04708B1022621E0687D582155
:1025700088F800003E682846082200230094B047EF
:1025800008B1032614E0687DB9F1000F4FF0000692
:1025900088F8010009D03F6828465021082200230E
:1025A0000096B847697D064600E0FF2188F80210D2
:1025B000304601B0BDE8F0832DE9F04182B040F231
:1025C0003806C2F20006346888460027302100220F
:1025D000002305460097A04718B1022002B0BDE8CD
:1025E000F081687D302188F8000034682846002298
:1025F00001230097A04718B1032002B0BDE8F08185
:10260000687D302188F801003768002628460022BE
:1026100002230096B84718B1042002B0BDE8F0814B
:10262000687D88F80200002002B0BDE8F08100005B
:1026300070B582B00E4640F23801C2F200010C685B
:102640004FF0000C5821002200230546CDF800C0B1
:10265000A047697D317002B070BD00002DE9F04FD8
:1026600083B00E46D90734D14FF0000BBBEB530FAC
:1026700031D040F2380A904681465808C2F2000A2A
:102680000024029004EB0800DAF80070C5B2484656
:10269000302100222B46CDF800B0B847F8B999F8A0
:1026A000150038213070DAF80070484600222B46B9
:1026B000CDF800B0B847A8B999F8150001340299CF
:1026C0007070E0B2814206F10206DBD84FF0000BD9
:1026D00001E04FF0020B584603B0BDE8F08F4FF019
:1026E000030BF8E74FF0040BF5E7000010B50446C4
:1026F000616F4FF4FA70E082884701460020A161C3
:1027000010BD000080B58446DDF808E00CF80E1F0F
:1027100000218CF8012062468CF802300CF11A007E
:1027200042F8041F614604238CF803E0BDE88040B2
:1027300001F0DABC2DE9F04387B04A1E40F23809B7
:1027400004463820112AC2F200095ED84FF47A718B
:10275000DFE802F01B090C0E10121416181A5B4E5B
:1027600050525456585A4FF4FA710EE0FA210CE0C8
:102770007C210AE03C2108E01C2106E00C2104E059
:10278000042102E0032100E00021627804F1280521
:10279000002084F84D00A4F862103AB1D9F8000086
:1027A00042F26121C0F60001884217D1284601217A
:1027B000012601F079FC284601F092FC94F84E00C5
:1027C000D4E90E12002808BF12048A6104F128031C
:1027D0000FCB09048161180490616670B4F862102F
:1027E000284601F07FFC42F20570C0F6000054E07C
:1027F00030200AE0282008E0202006E0182004E02D
:10280000102002E0082000E00020627804F1280592
:10281000012184F84D1060663AB1D9F8000042F207
:102820000571C0F6000188422AD1284601214FF0E7
:10283000010801F039FC284601F038FC94F84E00FC
:1028400008B1022104E0D4E90E21090491610021BC
:10285000002818BF0120002238234FF400760727F4
:10286000CDE90010CDE90263CDE90422284600211C
:102870004FF482720023069701F01AFC84F801805D
:10288000A0780E2886BF20216166616E284601F07F
:1028900025FC42F26120C0F60000C9F80000D4E92E
:1028A0000710020400208A6107B0BDE8F083000031
:1028B0000B7802460381487840EA0320108188782B
:1028C0005081CB7843EA0020508109790020D171F2
:1028D0007047000010B50446406FE1828047014612
:1028E0000020A16110BD00000246481E00231228EE
:1028F00038BF012311284FF0000088BF0F21D3708B
:10290000917070472DE9F04F81B040F2380BC2F260
:10291000000BDBF8006013460A460025C22104467E
:102920000095B047E0B9A07930B1616F4FF0000871
:1029300041B18847054606E02079616A0A30884738
:1029400000200DE00025DBF800602046F021002289
:102950000023CDF80080B04730B16FF07F014840D0
:10296000C0B201B0BDE8F08F48F2A06AC5F100081E
:102970004FF00009C0F2010A00260FE0013656456B
:102980001FD800F0A3FBDBF800702046F0210022E6
:102990000023CDF80090B8470028DED1607DC00745
:1029A0000DD0606F0028E9D080470646A842404617
:1029B00038BFE84330446428E3D90220CDE7002043
:1029C000CBE70320C9E700002DE9F04F81B00446B2
:1029D000407940F2380B1D4616468842C2F2000B81
:1029E0000CD0DBF800700B4661714FF0000C2046F4
:1029F0004D210022CDF800C0B84758B9DBF800706F
:102A00004FF0000C20464C2132462B46CDF800C03A
:102A1000B84710B101B0BDE8F08FA07928B1616F5F
:102A2000002651B18847054608E02079616A0530E3
:102A30008847002001B0BDE8F08F0025DBF800706A
:102A40002046F021002200230096B84720B180F0F4
:102A5000800001B0BDE8F08F48F2A06AC5F100081F
:102A60004FF00009C0F2010A00260FE0013656457A
:102A70001FD800F02BFBDBF800702046F02100226D
:102A80000023CDF80090B8470028E0D1607DC00752
:102A90000DD0606F0028E9D080470646A842404626
:102AA00038BFE84330446428E3D90220CFE7002050
:102AB000CDE70320CBE7000080B582B090F807E0B7
:102AC000DDF810C0BEF1000F05D0CDF800C000F059
:102AD000A7F802B080BDCDF800C000F003F802B046
:102AE00080BD00002DE9F04F85B003910E990029BB
:102AF00000F08E809A46914607464FF0000B002466
:102B000018E000BF3879796A0A308847002601202A
:102B100050FA8AFA5FFA8AF00134B0EB0A00E1B2A7
:102B200018BF01201529814420D20E980BF1010B0A
:102B3000834570D040F23800C2F200000668039866
:102B40005FFA89F210F80B505FFA8AF33846C02119
:102B50000095B04700285DD1B8790028D2D0796FB0
:102B6000049459B1884780460AE000BF786F4FF45B
:102B7000FA71F98280470024B861D6E74FF0000867
:102B800040F23800C2F2000006683846F021002208
:102B9000002300240094B047049C06460028B6D1C8
:102BA000CDF80890C8F10009002415E048F2A060B3
:102BB0000134C0F20100844224D800F087FA40F2C8
:102BC0003800C2F2000006683846F02100220023D7
:102BD00000250095B04798B9787DC0070ED0786F72
:102BE0000028E3D0804704464045484638BF6FEA96
:102BF000080020446428E0D9022605E0002603E00E
:102C0000064601E0032600BFDDF80890049C7EE73D
:102C1000002600E00646304605B0BDE8F08F000013
:102C20002DE9F04F83B08246007898461746002879
:102C3000029147D0DAF874100C9DBAF80A604FF48C
:102C4000FA70AAF816008847AE42CAF8180037D8BA
:102C5000B5FBF6F048EA07290190BAF80A0040F2FD
:102C600038084FF0000BC2F2000800BFA0B1029E6E
:102C7000002500BFD8F800703478EBB25046C1216F
:102C800000220094B84738B90135BAF80A00E9B211
:102C9000884206F10106EDD81FFA89F0010A5FFAB1
:102CA00089F25046FFF72EFEA8B901990BF1010BEE
:102CB000BAF80A008B450299814401440291D5D3A8
:102CC000002509E09AF806105046FFF7B5F90028EC
:102CD000B0D0012508E00425DAF874106420AAF8C1
:102CE00016008847CAF81800284603B0BDE8F08FE0
:102CF0002DE9F04F83B0814600781C461646002827
:102D00000F465ED0D9F874100D9D4FF4FA70A9F8F3
:102D100016008847E907C9F8180048D1B9F80CB07F
:102D20000020B0EB550F4FEA550A28D040F2380882
:102D3000CDE901640026C2F2000800BF06EB0B00DB
:102D4000D8F800C03C78C5B24846402100222B4646
:102D50000094E04758BBD8F800C07C78484648212A
:102D600000222B460094E04708BB0136F0B28245B2
:102D700007F10207E2D8B9F80CB0DDE901640BEB0A
:102D80000A00B9F8082081B291424FF00007A9F873
:102D90000C000DD10C9B484631462246FFF714FE2D
:102DA000002818BF0120A9F80C70470000E0012797
:102DB000D9F874106420A9F816008847C9F81800DB
:102DC00007E099F806104846FFF736F9002899D031
:102DD0000127384603B0BDE8F08F00002DE9F04F21
:102DE00083B040F23809C2F20009D9F800700E78B9
:102DF00015468B46AC21A022002304460096B84716
:102E000008B1022023E0A079029528B1616F002566
:102E100039B18847074605E02079616A053088475F
:102E200009E00027D9F800602046F02100220023A5
:102E30000095B047C8B1D9F800709BF801602046F2
:102E4000AC21A82200230096B84720B10320C0B2CD
:102E500003B0BDE8F08FA07990B3616F029D4FF091
:102E60000008B1B38847074634E0C7F100084FF0C7
:102E7000000A002614E000BF48F2A0600136C0F24C
:102E800001008642D7D800F021F9D9F80050204639
:102E9000F02100220023CDF800A0A8470028CAD1C5
:102EA000607DC007C7D0606F0028E5D08047064628
:102EB000B842404638BFF84330446428E3D9BAE703
:102EC0002079616A05308847029D0020002D3FD19E
:102ED000BDE70027D9F800602046F021002200233A
:102EE000CDF80080B04768BBC7F100084FF0000A7A
:102EF000002612E048F2A0600136C0F201008642CE
:102F00001ED800F0E3F8D9F800502046F021002246
:102F10000023CDF800A0A84798B9607DC0070DD068
:102F2000606F0028E6D080470646B842404638BF6A
:102F3000F84330446428E4D9022002E0002000E095
:102F40000320029D6FF07F014840002D3FF47FAFCA
:102F5000D9F800709BF802602046AC21A42200231F
:102F60000096B84700287FF472AFA07928B1616F4E
:102F7000002641B18847054606E02079616A0530A0
:102F80008847002063E70025D9F800702046F0212B
:102F9000002200230096B84718B16FF07F01484027
:102FA00055E748F2A068C0F20108C5F1000B4FF0E8
:102FB000000A00260FE0013646451FD800F086F8CB
:102FC000D9F800702046F02100220023CDF800A09F
:102FD000B8470028E1D1607DC0070DD0606F0028A0
:102FE000E9D080470646A842584638BFE8433044F7
:102FF0006428E3D90220D0E70020CEE70320CCE705
:103000002DE9F04F81B040F2380BC2F2000BDBF833
:10301000006041F0C005AC21E02200230446009589
:10302000B047E0B9A07930B1616F4FF0000841B10D
:103030008847054606E02079616A05308847002008
:103040000DE00025DBF800602046F021002200237F
:10305000CDF80080B04730B16FF07F014840C0B27A
:1030600001B0BDE8F08F48F2A06AC5F100084FF04A
:103070000009C0F2010A002610E000BF01365645E3
:103080001FD800F023F8DBF800702046F021002262
:103090000023CDF80090B8470028DDD1607DC0073F
:1030A0000DD0606F0028E9D080470646A842404610
:1030B00038BFE84330446428E3D90220CCE700203D
:1030C000CAE70320C8E7000000F002B8FFF7FCBF22
:1030D00043F20001C4F200014AF6AA2200200A606D
:1030E0007047000080B542F2080CC4F2010CDCF815
:1030F00000E0DCF80021DCF8003242EA0E021A435C
:10310000D2071CBF012080BDD1E900C3426841F253
:10311000E00ECFF6FC7E02EA0E0243B1D1E902E1F5
:1031200042EA0C021A4342EA0E02114301E042EA6B
:103130000C014160002080BD8168C9070BD0816807
:1031400021F070618160816821F470218160816863
:1031500021F0010181608168C90744D10168002222
:1031600021F03F0101604168CFF63F02114041600C
:1031700081684FF2FC02C8F2800211408160C16890
:1031800040F6FF7201F07841C160016901F04041F1
:10319000016141699143416181696FF30B01816173
:1031A000C1696FF30B01C161016A6FF30B01016229
:1031B000416A11434162816A6FF30B018162C16A06
:1031C00001F07F41C162016B01F040410163816BFD
:1031D0006FF31501816342F20430C4F2010001680B
:1031E00021F4030101600020704700008268D207CB
:1031F0001CBF0120704742684FF6FF63CFF6FF43C4
:103200001A40D1E9003C89681A4311434160816842
:1032100021F4006141EA0C01816000207047000048
:1032200080B58268D2071CBF012080BDD1F804C0E0
:103230004368BCF1000F23F468431CBF8A68134342
:10324000436082684FF6FD43CCF2FF0302EA030EAF
:103250000B68D1E9032103F0706342EA0E021A43BE
:1032600011438160C16A21F4700141EA0C01C1621D
:10327000002080BD43F61001C4F20201A1F50162F5
:1032800090421CBF01207047086840F480500860DD
:10329000086820F4805008600020704710B503686B
:1032A00001F01001CB40DB071CBF012010BD5368AB
:1032B000D0F800C053B1D2F800E0946843EA0E039E
:1032C00043EA040E0C3240F6FA7302E0D2F80CE046
:1032D000FA2312688B4042EA0E022CEA030302FA38
:1032E00001F119430160002010BD0000072988BFCB
:1032F0007047DFE801F0040910171E232A3110215E
:1033000081602021816070474FF4806181604FF4BB
:103310000061816070474FF4801181604FF40011AB
:10332000816070474FF0806181604FF00061816083
:1033300070471021C1602021C16070474FF4806147
:10334000C1604FF40061C16070474FF48011C160EB
:103350004FF40011C16070474FF08061C1604FF0C1
:103360000061C1607047000010B511F5803F18D1B1
:1033700046F20041C4F20201884265D046F20001E3
:10338000C4F20201884240F0AF8043F61000C4F25C
:103390000200016841F400110160016821F400118C
:1033A0005DE046F6D872C0F60002525C46F2000EAE
:1033B0001358C4F2020E23F001037045135008BFE6
:1033C00000294FD00EF5806C604508BF00294CD015
:1033D000704508BF01294BD0604508BF01294AD07C
:1033E000704508BF022949D0604508BF022948D06E
:1033F000704508BF032947D0604508BF032946D060
:10340000704508BF042945D0604508BF042944D051
:10341000704508BF052943D0604508BF052942D043
:10342000704508BF062941D0604508BF062940D035
:1034300080EA0E0C81F007040EF5976354EA0C0441
:1034400008BF0EF1B80336E043F61000C4F20200E4
:10345000016841F480010160016821F4800101608C
:10346000002010BD0EF1100325E00EF5826322E06E
:103470000EF128031FE00EF585631CE00EF14003FA
:1034800019E00EF5886316E00EF1580313E00EF50F
:103490008B6310E00EF170030DE00EF58E630AE011
:1034A0000EF1880307E00EF5916304E00EF1A0032E
:1034B00001E00EF5946300241C605C609C60DC609D
:1034C0001C6121245C61835823F06063835069B1DF
:1034D0000139062908D8DFE801F0040D101315188A
:1034E0001B004FF4746102E0012010BD3F21816098
:1034F000002010BD4FF47C11F9E74FF07461F6E73E
:103500003F2107E04FF4746104E04FF47C1101E0C7
:103510004FF07461C160002010BD000070B5D2E9A9
:1035200002C3D2E904E443EA0C03D2E9065643EAB3
:103530000E0323432B4346F6D875C0F600053343EC
:10354000966A695C33430E5848F21F05CFF6FC7546
:103550002E4033430B50D36A014493B14869D2E9FA
:103560000C6520F0070033431843946B48610868EA
:1035700020F0C07028430860086820F4C000204391
:103580000860D2E90003D2E90862CB60886048682D
:103590004FF6FF73984330434860086820F060603E
:1035A000024300200A6070BD2DE9F04F0B6893FACA
:1035B000A3F2B2FA82F233FA02F766D04FF00108B2
:1035C0004FF0030C0CE000BFD1E900370668AF40B4
:1035D00006EA0A0637430760013233FA02F754D08D
:1035E00008FA02F41C40F7D0D1F804E0AEF101056E
:1035F000022D1FD294FAA4F5B5FA85F7D0F80890F9
:103600007D000CFA05F66FEA060A29EA0609D1E9F7
:10361000026BAE4046EA09068660D0F8049008FACC
:1036200007F629EA06090BFA07F646EA0906466094
:1036300009E000BF94FAA4F5B5FA85F77D000CFA0D
:1036400005F66FEA060A0E69C368AE4003EA0A038C
:103650003343BEF1020FC360B6D1E3B2240AD1F8FE
:1036600014E094FAA4F4002B08BFB4FA84F74FF0E6
:10367000200308BF2423C458BF000F26BE40B44314
:103680000EFA07F72743C7509EE70020BDE8F08FEA
:1036900080B543F6040EC4F2020EDEF8042002F0F8
:1036A0000C0342F20042082BC0F2F40206D0042BB5
:1036B00022D141F20022C0F27A021DE0DEF8003091
:1036C000DEF800C05B0241F20023C0F27A0358BF6B
:1036D0001346DEF800200CF03F0CB3FBFCFCC2F3F9
:1036E0008812DEF8003002FB0CFCC3F30143022217
:1036F00002EB4302BCFBF2F20260DEF8043046F655
:10370000C031C3F30313C0F60001C95C46F6D033E1
:1037100022FA01F14160DEF80420C0F60003C2F392
:1037200082229A5C21FA02F28260DEF80420C2F35F
:1037300042329A5CD140C16080BD000043F6140162
:10374000C4F20201086840F040000860086820F0F8
:10375000400200200A60704743F60001C4F20001F5
:1037600088421BD043F60041C4F20001884221D0B8
:1037700043F20001C4F2010188421CBF01207047DE
:1037800043F62000C4F20200416841F480514160D8
:10379000416821F4805141600020704743F62000C9
:1037A000C4F20200016841F480410160016821F423
:1037B00080410AE043F62000C4F20200016841F4AF
:1037C00000410160016821F4004101600020704760
:1037D0002DE9F04302460068400626D410684FF6F3
:1037E000BF7320EA030C91E8084201F10C0843EA98
:1037F0000C0398E8F00143EA090343EA0E0323436C
:103800002B433343086A3B4343EA080303431360F3
:103810005368B0F5005F23F0040343EA1643536096
:1038200004BF888C1061002000E00120D16921F4E0
:103830000061D161BDE8F08340F20001C2F20001F5
:1038400008607047014644F6FF70C4F200008142F0
:103850004FF001001DDC44F20042C4F2000291422C
:1038600036D044F60002C4F2000291423CD044F645
:103870000042C4F20002914251D143F62000C4F24A
:103880000200016841F400210160016821F4002177
:1038900035E045F20002C4F20002914232D041F21A
:1038A0000042C4F2010291423AD041F20002C4F255
:1038B0000102914218BF704743F62000C4F2020093
:1038C000416841F010014160416821F0100132E08F
:1038D00043F62000C4F20200016841F400310160A7
:1038E000016821F400310AE043F62000C4F202002E
:1038F000016841F480210160016821F480210160A8
:103900000020704743F62000C4F20200016841F431
:1039100080110160016821F480110160002070476E
:1039200043F62000C4F20200416841F020014160EA
:10393000416821F0200141600020704770B584B0DB
:103940000446C068800400F18080E0680D4649F2BA
:103950000C618843D5E9011E05F10C0C9CE8481068
:103960000843AA69184330431043E06020696E465B
:1039700020F4405040EA0E002061606920F440705D
:1039800040EA0C0060613046FFF782FE44F6FF70AB
:10399000C4F2000084424FF0010012DC44F2004106
:1039A000C4F200018C4221D044F60001C4F20001AF
:1039B0008C421BD044F60041C4F200018C4215D069
:1039C00065E045F20001C4F200018C420ED041F2E4
:1039D0000041C4F201018C4205D041F20001C4F261
:1039E00001018C4253D106F10C0001E006F1080000
:1039F000006850B32B6843B3A9691922B1F5004F91
:103A0000A0FB020124D15A00DB0FFCF7D9FB48F2DE
:103A10001F51C5F2EB11A0FB01235A096FF063039C
:103A200002FB0300322303EBC000A0FB01014FF4B3
:103A3000F87000EA111000EB0210C1F3421180B2DD
:103A40000844A060002004B070BD012004B070BD27
:103A50009A009B0FFCF7B4FB48F21F51C5F2EB1123
:103A6000A0FB01235A096FF0630302FB030032231A
:103A700003EB0010A0FB0101F02000EA511000EB65
:103A80000210C1F3431180B20844A060002004B0CA
:103A900070BD000000F002B8FFF7FCBF2DE9F04157
:103AA00086B041F20004C4F202040E46804620466D
:103AB00001210125FDF7B6FC20460121FDF7B2FCEE
:103AC0000020CDE90155CDE90305059010206F4692
:103AD000009020463946FFF767FD4FF48015082017
:103AE000A561009020463946FFF75EFD4FF40027A0
:103AF00040F2AA50A761864288BF304641F27071F9
:103B0000884228BF0846A0F2EC4041080120FDF79A
:103B10008BFAB8F1010F04BF10274FF40025A561FF
:103B20000020A76106B0BDE8F0810000FEE70000BC
:103B300080B5B0B140F20801C2F200010A7C8AB13E
:103B40008A68801AC20A042A0BD8CA68400932F867
:103B50001010002908BF80BD02EB40004900FCF7AF
:103B600067FB80BD0868BDE8804000472DE9F04153
:103B700040F20808C2F2000898F81010044611B983
:103B8000D8F800008047002C4FF0000008BFBDE8C7
:103B9000F081D8F80CC061090123E20618BF03EBDD
:103BA00054110CF516748BB20025E78C002F4FF0E2
:103BB000000708BF6F1CBEB29E4200F0B7800CEB3E
:103BC0004005B5F87C220026002A08BF7E1CB2B250
:103BD0009A4200F0B080628C0027002A08BF771C50
:103BE000BAB29A4200F0AC80B5F878220026002ADA
:103BF00008BF7E1CB2B29A4200F0A780E28B002779
:103C0000002A08BF771CBAB29A4200F0A380B5F828
:103C100074220026002A08BF7E1CB2B29A4200F02D
:103C20009D80628B0027002A08BF771CBAB29A4297
:103C300000F09880B5F870220026002A08BF7E1C8C
:103C4000B2B29A4200F09280E28A0027002A08BFAE
:103C5000771CBAB29A4200F08D80B5F86C2200262B
:103C6000002A08BF7E1CB2B29A4200F08780628AA6
:103C70000027002A08BF771CBAB29A4200F082805F
:103C8000B5F868220026002A08BF7E1CB2B29A420C
:103C90007CD0E2890027002A08BF771CBAB29A427A
:103CA00078D0B5F864220026002A08BF7E1CB2B284
:103CB0009A4273D062890027002A08BF771CBAB2E3
:103CC0009A426FD0B5F860220026002A08BF7E1CF9
:103CD000B2B29A426AD0E2880027002A08BF771C55
:103CE000BAB29A4266D0B5F85C220026002A08BF14
:103CF0007E1CB2B29A4261D062880027002A08BFB7
:103D0000771CBAB29A425DD022880025002A08BFEB
:103D10007D1CAAB29A4259D0143810F5A07FA4F1A4
:103D200028047FF442AF0020BDE8F08100F23F108C
:103D3000002B4ED170E000F59F70002B49D16BE055
:103D400000F23D10002B44D166E000F59E70002B80
:103D50003FD161E000F23B10DBBB5DE000F59D7000
:103D6000BBBB59E000F239109BBB55E000F59C70DD
:103D70007BBB51E000F237105BBB4DE000F59B7060
:103D80003BBB49E000F235101BBB45E000F59A70E3
:103D9000FBB941E000F23310DBB93DE000F599706A
:103DA000BBB939E000F231109BB935E000F59870ED
:103DB0007BB931E000F22F105BB92DE000F5977070
:103DC0003BB929E000F22D101BB925E000F59670F3
:103DD00013B35F1E032F03F0030502D2002385B93E
:103DE0001AE00CEB4004A61E5F1B002304EB430209
:103DF00004337180518091809F4226F8081FF5D1CD
:103E000055B10344012D2CF8131005D00CEB4302DF
:103E1000022D518018BF9180D8F8081001EB401096
:103E2000BDE8F08110B540F20804C2F20004E06879
:103E30004FF42071FCF7FCF9A0684FF42051FCF717
:103E4000F7F90120207410BD40F20800C2F2000012
:103E5000D0F80CC0002100223CF801000CEB01035B
:103E60000028588818BF01320028988818BF0132EE
:103E70000028D88818BF01320028188918BF0132DD
:103E80000028588918BF01320028988918BF0132CC
:103E90000028D88918BF01320028188A18BF0132BB
:103EA0000028588A18BF01320028988A18BF0132AA
:103EB0000028D88A18BF01320028188B18BF013299
:103EC0000028588B18BF01320028988B18BF013288
:103ED0000028D88B18BF01320028188C18BF013277
:103EE0000028588C18BF01320028988C18BF013266
:103EF0000028D88C18BF0132002801F1280118BF12
:103F00000132B1F5207FA7D164204CF6CD4150435A
:103F1000CCF6CC41A0FB0101C1F3072070470000A3
:103F20007047000000F014B8FFF7FCBF43F61440E0
:103F3000C4F201004FF48031016047F20400C4F282
:103F400000000068400748BFFFF7EEBF7047000061
:103F500070470000704700007047000000F006B88E
:103F600000F02CB8FFF7FABFFFF7FABF40F60400E5
:103F7000C5F20600016849060ED56FF040010160E8
:103F800050F8041C21F0040140F8041C50F8041CF3
:103F900041F0040140F8041C0168890644BF6FF039
:103FA000200101600168C90708BF7047406840F2FE
:103FB0001811C2F20001086070470000B0B582B06D
:103FC00040F60004C5F2060405462046FFF7B6FB9E
:103FD00043F63400C4F20200016841F04001016080
:103FE000006800F040000190019835B34EF60C5087
:103FF000CEF2000000684FF0FF32C0F3022080F0E4
:104000000701042928BF0421033802FA01F14FF007
:104010000F0238BF002022EA010101FA00F04EF23F
:1040200008110001CEF2000181F848034FF48030FE
:104030000860206840F008002060206840F004001C
:1040400020606068C00704D1FFF740F86068C007CF
:10405000FAD040F21810C2F200000021016002B054
:10406000B0BD000000F042B800F0ACB82DE9F0415E
:1040700088B0DDE90ECE0DF1400898E8F001CDE9F9
:1040800000CE0DF1080C8CE8F00100F0E3F808B068
:10409000BDE8F08100F046B900F09EB900F0A4B987
:1040A00000F0E4B900F0C0BAFFF7DCBFFFF7DCBFF7
:1040B0002DE9F04188B0DDE90ECE0DF1400898E819
:1040C000F001CDE900CE0DF1080C8CE8F001FFF70E
:1040D000CDFF08B0BDE8F081FFF7DCBFFFF7DCBF24
:1040E000FFF7DCBFFFF7DCBFFFF7DCBFB0B504466E
:1040F000006A0D4670B3FFF72FFB206A43F60001FC
:10410000C4F20001884214D043F60041C4F2000119
:10411000884217D043F20001C4F20101884219D14C
:1041200043F64000C4F20200416821F4805141602E
:1041300010E043F64000C4F20200016821F480411F
:10414000016007E043F64000C4F20200016821F478
:10415000004101602046294600F002F80020B0BD71
:10416000B0B586B00446C0690322009000200190DB
:10417000CDE902200490059019B1A0696946FFF7C6
:1041800013FAD4E904016D4600912946FFF70CFAB1
:10419000D4E9000100912946FFF706FAD4E90201AB
:1041A00000912946FFF700FAD4E906018161D4E9BC
:1041B0000401816194E80F0081610020936106B0E1
:1041C000B0BD0000B0B586B004468069012101256C
:1041D000FDF728F920690121FDF724F92068012164
:1041E000FDF720F9A0680121FDF71CF9D4E90601CB
:1041F000CDE90015032102910021CDE903110591BC
:1042000028B16946FFF7D0F9D4E906018161216C34
:10421000D4E90402059102216D46CDE90021294629
:10422000FFF7C2F9D4E90412D4E900038A612946F0
:104230000093FFF7B9F9D4E90012D4E902038A61C7
:1042400029460093FFF7B0F9D4E9021200208A61F1
:1042500006B0B0BD2DE9F0418CB00446DDE9168E04
:10426000DDE91465DDE91207019102920393CDE9BE
:104270000407CDE90665CDE9088EDDF860C0206A47
:10428000CDF828C0FFF768FA206A43F60001C4F2AF
:104290000001884219D043F60041C4F2000188426F
:1042A00021D043F20001C4F20101884228D143F633
:1042B0004001C4F202014A6842F480524A604968EF
:1042C00001F480510B910B991AE043F64001C4F2BE
:1042D00002010A6842F480420A60096801F48041E0
:1042E0000B910B990CE043F64001C4F202010A68FD
:1042F00042F400420A60096801F400410B910B99F5
:1043000001A9FFF765FA216A606C4A6822F0100281
:1043100010434860086840F0400200200A600CB07A
:10432000BDE8F0812DE9F04F81B01D46C36C044615
:104330009146009113B19847074600E0002748F2E4
:10434000A16B4FF00108C7F1000A0026C0F2010B73
:10435000002084F8248000BF5FFA88F149B1012968
:1043600018D1216A8A68920712D5009BB2B29A5C72
:104370000A73216A8A68D20702D14FF0000809E067
:10438000C968B9F1000F1CBFB2B209F802100136BA
:104390004FF00108E16C69B188475146B84238BF17
:1043A000F9430144652932BF00216FF07F0171405C
:1043B00006E000BF013058452CBF06F14001002146
:1043C000B2B2AA4201D00A06C6D00122C8B284F80D
:1043D000242001B0BDE8F08F026A106820F0380098
:1043E000014300201160704770B586B004468069B3
:1043F00001210125FDF716F820690121FDF712F8CA
:1044000020680121FDF70EF8A0680121FDF70AF8E8
:10441000D4E906010026CDE9001503216D4602917D
:104420002946CDE903660596FFF7BEF8D4E90401F5
:1044300000912946FFF7B8F8D4E900010091294618
:10444000FFF7B2F8D4E90201CDE900162946FFF7DB
:10445000ABF8D4E906018161D4E90401816194E8F3
:104460000F0081610020936106B070BD02460020FC
:104470005187704770B5044690F82600154601280C
:104480000E4627D010B994F8270038B3D4E90401B8
:104490008161608F08B1A16C884770B2D4E90012C5
:1044A000B0F1FF3FC8BF12048A614DB1D4E90201E7
:1044B00000690840884203D1287840F00100287044
:1044C000D4E9041000048861608F48B3A16C884768
:1044D000002070BD94F827000128D7D1D4E904103A
:1044E00000048861608F08B1A16C884770B2D4E97C
:1044F0000012B0F1FF3FC8BF12048A614DB1D4E988
:10450000020100690840884203D1287840F0010088
:104510002870D4E904018161608F08B1A16C8847DB
:10452000002070BD70B515460E46002A044640D0E6
:1045300000202870204631462A46FFF79BFF287846
:10454000710040002870C9B220462A46FFF792FF4A
:104550002878B10040002870C9B220462A46FFF7EB
:1045600089FF2878F10040002870C9B220462A4609
:10457000FFF780FF2878310140002870C9B220463B
:104580002A46FFF777FF2878710140002870C9B2EA
:1045900020462A46FFF76EFF2878B10140002870B8
:1045A000C9B220462A46FFF765FF287840002870E8
:1045B00028E0204631462A46FFF75CFF7000C1B272
:1045C00020462A46FFF756FFB000C1B220462A46D1
:1045D000FFF750FFF000C1B220462A46FFF74AFF1E
:1045E0003001C1B220462A46FFF744FF7001C1B234
:1045F00020462A46FFF73EFFB001C1B220462A46B8
:10460000FFF738FFF001C1B220462A46FFF732FF1C
:1046100094F82600D4E9041200284FF0000008BFE7
:1046200012048A6170BD00002DE9F04381B081461B
:1046300000208DF80300A3B11C4617460E460DF16D
:1046400003081546317848464246FFF76BFF002FB6
:104650001CBF9DF8030028700136013C05F10105DF
:10466000F0D1002001B0BDE8F083000070470000E9
:1046700000F0A0B8FFF7FCBFB0B5C26853428A4251
:1046800088BFD3435A18B2F57A7F7CD302788379F6
:10469000C579C160511CCAB23D2A017073D34178FB
:1046A0000131CAB2417000213D2A01706BD382787A
:1046B0000132D4B2192C8270417064D3C17802796E
:1046C00001F1010C511C90F805E0CAB280F803C05A
:1046D000072A88BF012101710021BEF1020F8170FC
:1046E0002AD1642215FB02324BF6500345F62945C8
:1046F000643AC0F21E53CCF28F2502FB053345F617
:1047000028444FEAB305C0F28F24A5424DF20B7541
:104710004FEA3313C0F2A30588BF0121AB422AD36D
:1047200002F00302B2FA82F25209114023D15FFA79
:104730008CF11D2927D322E046F6E871C0F600016E
:1047400011F80E105FFA8CF28A421CD90021C17058
:104750000EF10101CAB20D2A417114D30121417138
:10476000591CCAB2652A817138BFB0BD691CC171BC
:1047700000218171B0BD5FFA8CF11E2903D30021A5
:10478000C17003214171B0BD1323837140F2151331
:10479000A0F8073040F60743838043F63823C1F280
:1047A0001763036001821621027581740C21C174A4
:1047B0007047000010B50446FFF75EFF207D01281A
:1047C00009D1208A08B36079E17C88420CD200F1DB
:1047D0000C01E07C09E0207D022816D16079E178A7
:1047E000E074A174002010BDE17C081A80B2E17869
:1047F000C0EB0010A27C01EB4000801A218A80B23D
:10480000884204D8218A814201D0002010BD01F0E5
:1048100039FD01F025FD000000F01AB800F03EB8A7
:1048200000F08CB800F036B900F03EB900F09EB947
:1048300000F068B9FFF7F0BFFFF7F0BFFFF7F0BF78
:10484000FFF7F0BFFFF7F0BFFFF7F0BFFFF7F0BFD4
:104850004EF2100040F20002CEF20000C2F200025E
:1048600001684068126844F6D353C1F26203A2FBA8
:10487000032349074FEA931109D44FF0FF3202EBAB
:10488000D10188421CBF01207047002070470139C8
:1048900088421CBF012070470020704780B580B35C
:1048A00040F22C0CC2F2000CDCF800100B4653F85E
:1048B000142F0AB1824220D00A7822B30B4653F853
:1048C000182FA3F1170E0AB1824215D09EF80020CE
:1048D000DAB10B4653F81C2FA3F11A0E0AB182422B
:1048E0000AD09EF8002092B10B4653F8202FA3F176
:1048F0001D0E72B182420CD1714601200870002059
:1049000080BD012080BD00220AE0012208E00222D1
:1049100006E09EF80020002A1CBF022080BD032272
:10492000186001208854DCF800000179FF2902D0CA
:10493000017901310171002080BD00002DE9F043B3
:1049400081B04EF2180440F20008CEF20004C2F228
:1049500000082768D8F800104DF68369C4F21B39A7
:10496000A1FB0912930CB7FBF3F1022920D32668AF
:1049700054F8042CB1F57A7F17D84B43002507E093
:104980003544ED1BBE4298BF15449D423E460CD2B5
:104990002768BE42F4D12768BE42F1D12768BE42E3
:1049A000EED12768BE42F3D0EAE70138C1F575774A
:1049B00040F22C05C2F200052968C860C86828B119
:1049C000FEF784FB2868C0680028F9D1B81E40F2C1
:1049D000E53188421FD8D8F800000022A0FB090169
:1049E000880C7843276854F8041C07E03A44D21A2C
:1049F0009F4298BF0A4482421F460CD223689F42BE
:104A0000F4D123689F42F1D123689F42EED12368FD
:104A10009F42F3D0EAE7002001B0BDE8F083000038
:104A200080B568B140F22C0CC2F2000CDCF800201A
:104A3000134653F8141F31B1814204D100201CE009
:104A40000121084680BD134653F8181F19B1814251
:104A500001D1012011E0134653F81C1F19B1814206
:104A600001D1022009E0134653F820EF0221BEF1E4
:104A7000000F0DD086450BD1032000211960115481
:104A8000DCF8000002791AB10179013901710021C5
:104A9000084680BD40F22C00C2F200000068806829
:104AA00070470000FFF7CEBE10B540F22C04C2F2F2
:104AB00000042068816801318160816811B9016951
:104AC00001310161017819B1416909B18847206854
:104AD000417819B1816909B188472068817819B195
:104AE000C16909B188472068C17819B1016A09B163
:104AF00088472068C16811B1C1680139C1600020D0
:104B000010BD000010B54EF2180440F20002CEF2C3
:104B10000004C2F20002D2F800E0226854F804CC8B
:104B2000B0F57A7F1FD84DF68363C4F21B33AEFB1A
:104B30000331890C01FB00FE002007E01044C01A7D
:104B40009A4298BF604470451A460CD223689A4234
:104B5000F4D123689A42F1D123689A42EED12368B6
:104B60009A42F3D0EAE7002010BD000010B540F2F1
:104B70002C0CC2F2000CDCF8000000224EF21001F6
:104B80008260C2600261027042708270C270C0E9CD
:104B90000522C0E90722CEF20001086844F6D3538B
:104BA00020F00200086040F20000C2F2000000683D
:104BB000C1F26203A0FB03034FF0FF3E0EEB931321
:104BC0004B608A6005224EF60C540A60CEF2000457
:104BD00023684FF6FF00184040F20033C0F2FA534A
:104BE0001843206020680F22C0F3022080F00703E2
:104BF000042B28BF042303380EFA03F338BF002028
:104C00009A4302FA00F00001E075086840F23403AC
:104C100040F002000860DCF80010C2F200030A460F
:104C200052F8140F01241C6030B141F26163C0F6E8
:104C3000000398420B4629D0087858B30A4652F828
:104C4000180FA2F1170328B141F26164C0F6000405
:104C5000A0421BD01878F8B10A4652F81C0FA2F1F6
:104C60001A0328B141F26164C0F60004A0420DD0DD
:104C7000187898B10A4652F8200FA2F11D0378B1B6
:104C800041F26164C0F60004A04209D1012018700D
:104C9000002010BD002306E0012304E0022302E00F
:104CA000187878B9032341F26160C0F60000106003
:104CB0000120C854DCF800000179FF2902D00179F5
:104CC00001310171002010BDB0B584B000F078F85A
:104CD0004EF60C50CEF2000001684FF6FF02114074
:104CE00040F20032C0F2FA5211430160002501681F
:104CF000057301684573016885730168C5740168AF
:104D0000057501688575FFF78DF840F22800C2F23D
:104D10000000006800210022FFF736FDFCF784FB4D
:104D2000FFF792FD0020FFF71FF9FBF72BFF40F282
:104D30002400C2F2000044F64104006841F25D2103
:104D400041F25922C0F60004C0F60001C0F600028C
:104D50002346FCF78DFE03200121FCF767F90020B4
:104D600040F6E441FEF798FE41F21800C4F202005A
:104D70004FF40021016010210160FBF71DFD42F29C
:104D80000000C4F20100FBF713FD40F2300040F2D6
:104D90008001C2F20000C2F2000144220068CDE9A5
:104DA000002140F23C02C2F200024421002302959D
:104DB000039400F05BFA04B0BDE8B04000F00EB917
:104DC00010B582B043F60004C4F20204D4F8000423
:104DD000052161F30300C4F80004D4F8000400F0D6
:104DE0000F00052803D053A0112101F037FA206CE1
:104DF00040F080502064216C47F2000001F08051A7
:104E00000191C4F200000199016841F48041016000
:104E1000216841F480312160216889035CBF2168E9
:104E20005FEA813105D42168890302D421688903AE
:104E3000F2D5616F41F00101616700BF616F8907C1
:104E40005CBF616F5FEA817105D4616F890702D42D
:104E5000616F8907F2D5016841F480710160606873
:104E600048F20001CFF6BF71084042F60421C0F2BB
:104E7000400108436060606820F440306060206852
:104E800040F08070206000BF206880015CBF206817
:104E90005FEA801005D42068800102D42068800178
:104EA000F2D5A068052120F0F000A060A06861F3B1
:104EB0008C20A060A068042161F34F30A060A0683E
:104EC000022161F30100A060A06800F00C00082836
:104ED0000ED0A06800F00C00082809D0A06800F0EF
:104EE0000C00082804D0A06800F00C000828EBD1C2
:104EF0004EF21000CEF20000016841F004010160A2
:104F000047F60020C0F60320FEF796FCD4F8000414
:104F100040F48070C4F80004D4F8000440F48060C9
:104F2000C4F80004D4F8000440F40070C4F800048D
:104F300002B010BD2E2E2F4170706C6963617469D0
:104F40006F6E2F4150502F6D61696E2E630000000F
:104F50004EF68850CEF2000001684FF0000C41F48C
:104F60007001016043F60001C4F202010A6842F0D8
:104F700001020A60C1F808C00B684FF6FF72CFF655
:104F8000F6621A400A6043F21002C2F200424A601E
:104F90000A6822F480220A60C1F80CC04FF0006158
:104FA00040F8801C704700007047000042F67060B7
:104FB000C2F200000178002904BF01207047406858
:104FC0000047000040F2240040F23001C2F200002D
:104FD000C2F2000100680968FCF758BF42F6706130
:104FE000C2F20001012044F6C5720870C0F600024A
:104FF00000204A60704700002DE9F0418EB0002586
:10500000C4F202050446284601214FF00108FCF7CE
:1050100009FA0227032009970A9000264FF4C0607E
:10502000CDE90B68089007200D9008A92846FEF7E7
:10503000BBFA4FF40070C4E90405A5F57040206286
:105040002771FEF7FFFB206A012100F053FA4FF4AD
:10505000E130CDE901060C20CDE90366CDE9050676
:10506000206A01A90796FEF769FCD4E90701E26FFF
:105070000B69002A23F490430B614B6923F02A0348
:105080004B6145F65521C0F2002118BF6422E2664B
:10509000226484F82660C4F8051040F20231A4F8B6
:1050A00009100421E17200281CBFA16981616069B7
:1050B00060B12169026891FAA1F1B1FA81F1490068
:1050C000032303FA01F122EA0101016000200EB07E
:1050D000BDE8F08140F23000C2F20000006800F04C
:1050E000C3B8000070B590B046F20045C4F20205A6
:1050F0000446284602210226FEF736F943F6300020
:10510000C4F20200016841F48001016000684FF0C0
:10511000006100F48000019001980020C4E91D5650
:105120000E900A91B4F85E100991012103900C9041
:105130000D91216F226A02914FF4806108900691CF
:10514000111D049001910F90079005904FF40030CD
:105150000B9001AA28460221FEF7E0F9D4E91D12BE
:1051600046F6E070C0F60000825C236A8D5845F078
:1051700001058D50596941F0400159614EF60C51BD
:10518000CEF2000109684FF0FF33C1F3022181F034
:105190000702042A28BF0422033903FA02F238BFA7
:1051A000002126EA020202FA01F14EF23A42090116
:1051B000CEF2000211704EF20411CEF200014FF057
:1051C00080620A60D4E91D21415C505840F0100310
:1051D0000020535010B070BD00F068B800F086BADF
:1051E00000F092BA00F09EBA00F00EBB00F012BBC5
:1051F00000F080BB00F082BB70B584B00DF1200ED2
:105200009EE820500B9E04468DE82050039600F047
:10521000FDFD054640B9FBF7B3FC00281EBF00208A
:1052200084F8520084F82600284604B070BD0000BF
:1052300080B582B0DDE904CECDE900CE00F086FE77
:1052400002B080BD00F0F6BE00F024BFFFF7C4BF7F
:10525000FFF7C4BFFFF7C4BFFFF7C4BFFFF7C4BF6A
:10526000FFF7C4BFFFF7C4BFFFF7C4BF70B584B07A
:10527000DDE908CEDDE90A560446CDE900CECDE9E8
:105280000256FFF7B9FF03200426009020460021B4
:10529000022202230196FFF7CBFF04B070BD00008D
:1052A000FFF7D0BF0121FFF7CFBF0000B0B5044624
:1052B000B0F8565090F85200002800F09C80FBF7A0
:1052C0005FFC002840F0978094F85200012808D134
:1052D000B4F85E00691EF92811D8206F02224170CF
:1052E00013E094F85200022818D1B4F85E00F928AF
:1052F000A5F1010023D8216F0222487025E0206F1C
:105300000A0A4270206F03228170206F12FA81F125
:105310004218147889B2FBF731FC68E094F8520027
:1053200003281CD1B4F85E00AA1EF92830D8206FDB
:1053300002234270206F10FA82F1013132E0216FB6
:10534000020A4A70216F03228870216F12FA80F0DE
:105350000A18147882B20720FBF70EFC47E094F895
:105360005200042847D1B4F85E00291FF92824D838
:10537000206F8AB24170206F10FA81F313F8015C3C
:10538000825C5B782D0445EA02221A44022325E060
:10539000206F110A4170206F03238270206F10FA72
:1053A00082F1023113FA82F2831809781B7843EAFA
:1053B000012491B2FBF7DCFB19E0206F0A0A42706E
:1053C000206F8AB28170206F825C10FA81F35D7861
:1053D00012049B7842EA05221A44032313FA81F14E
:1053E00043181B7889B243EA0224FBF7C3FBA042AF
:1053F0001CBF0120B0BD0020B0BD000010B50446A8
:1054000090F8260010B1FBF7BBFB08B1012010BDDE
:10541000608D94F829100129618E08BF0230FE29A1
:1054200002D80238012107E06FF0020111FA80F082
:10543000616C020A4A700221626C505494F8260092
:10544000012804D1606C618DFBF798FB41E094F872
:105450002600022805D1616C628D0720FBF78CFBCA
:1054600037E094F82600032804D1606C618DFBF7C7
:105470007FFB21E094F82600042836D1606C618D12
:10548000FBF778FB616C628D030E8B54618D030C0E
:1054900001316185618D628E914224BF0021618559
:1054A000616C628D8B54618D01316185618D628E7D
:1054B000914224BF00216185616C628D030A8B5487
:1054C000618D01316185618D628E914224BF002121
:1054D0006185616C628D8854608D01306085608D5E
:1054E000618E884224BF00206085608DE0850020A9
:1054F00010BD000081B0024644F6FF70C4F2000007
:1055000082424FF001001FDC44F20043C4F200036A
:105510009A4239D044F60003C4F200039A4240D0C4
:1055200044F60043C4F200039A4274D143F64000AB
:105530000029C4F202005DD0016841F4002101603D
:10554000006800F4002052E045F20003C4F20003BA
:105550009A4233D041F20043C4F201039A423AD056
:1055600041F20003C4F201039A4254D143F64000D1
:105570000029C4F2020041D0416841F010014160AD
:10558000406800F0100032E043F64000C4F2020030
:10559000C1B3016841F400310160006800F40030DB
:1055A00025E043F64000C4F20200B1B3016841F4C3
:1055B00080210160006800F4802018E043F640007C
:1055C000C4F2020011B3016841F480110160006867
:1055D00000F480100BE043F64000C4F2020009B36F
:1055E000416841F020014160406800F020000090D7
:1055F00000981BE0016821F4002111E0416821F0CE
:10560000100112E0016821F4003109E0016821F481
:1056100080110160002001B07047016821F48021F1
:10562000016003E0416821F020014160002001B0E9
:1056300070470000B0B50446A16F46F6E075C0F6AD
:105640000005406F6A5C135823F001031350FDF707
:105650004DFEB4F85E10D4E91D20236F285C02EBE8
:10566000000CDCF804201D78607985421CBF012005
:10567000B0BD5B78B4F85E00891AFE2886BF43EAA5
:105680000320C21C9A1C90B289B2814204D101202D
:1056900084F853000020B0BDE16900291CBFA06957
:1056A0008861002084F85400A4F85600A4F858003B
:1056B000A4F85A0084F853006066A06684F860007D
:1056C00094F8500078B1B4F85E00DCF804104FF69E
:1056D000FF7291430844CCF80400DCF8000040F06D
:1056E0000100CCF800000220B0BD0000017A427A2F
:1056F0008A4206D0026FC079515C81421CBF0120F2
:105700007047002070470000426C438DD154418D9A
:1057100001314185418D428E914224BF0021418556
:1057200000207047B0B50D46044601E0FDF7CEFC01
:1057300094F827000028F9D094F827000328F5D022
:10574000002060852086A179626C638DD154618DC3
:1057500001316185618D628E914228BF6085616CE7
:10576000628D8854608D01306085608D618E8842C5
:1057700024BF00206085608EB0F5807F0ED3616C01
:10578000628D00208854618D01316185618D628E4A
:10579000914228BF6085208E01302086207A617A70
:1057A00081420CD0E079616C628D8854608D01304B
:1057B0006085608D618E884224BF00206085206FE7
:1057C000617A405C616C628D8854608D01306085C7
:1057D000608D618E884224BF002060857DB1206F7E
:1057E000617A08444078616C628D8854608D013024
:1057F0006085608D618E884224BF00206085618D48
:1058000000202186B0BD0000426C038E0020D154E0
:1058100070470000B0B50D46044601E0FDF756FCA8
:1058200094F827000028F9D094F827000328F5D031
:105830000020012D84F8270002D1A079616C087046
:10584000207A617A814202D0E179626C115420465B
:10585000FFF7D4FD94F82900012819D1606C618DFF
:105860000D224254608D0A2201306085608D618E68
:10587000884224BF00206085606C618D4254608D39
:1058800001306085608D618E884224BF0020608574
:10589000618E608DFE2902D80238012108E04FF6A2
:1058A000FD710844616C000A4870608D0221033864
:1058B000626C5054608DE085E06910B1A169090403
:1058C0008161606970B12169026891FAA1F1B1FA50
:1058D00081F1490003238B409A43022303FA01F12B
:1058E00011430160216AC86840F080020020CA604C
:1058F000B0BD000090F853007047000010B582B0B2
:105900000446006A0168890644BFC1685FEA816194
:1059100064D40168090644BFC1685FEA016167D4C5
:105920000168490644BFC1685FEA416165D444F635
:105930000041C4F2000188420ED045F20001C4F2D9
:105940000001884208D00168890541BF41695FEACA
:1059500041516FF4007101600168C90541BF0169DF
:105960005FEA41616FF4807101600168C90644BF5C
:10597000C1685FEAC16148D40168090708D5416977
:10598000C90705D001680191019941680191019908
:105990000168490708D54169C90705D00168019127
:1059A00001994168019101990168890708D5416908
:1059B000C90705D0016801910199416801910199D8
:1059C0000168C90708D0C168C90505D501680191FA
:1059D000019940680190019802B010BD4068B4F888
:1059E0005E10FE291CD8C1B2204600F0B7F81BE0BB
:1059F000204600F027F9206A92E7204600F082F95D
:105A0000206A6FF04001016091E72046FFF712FE27
:105A1000206A016801910199416801910199ABE700
:105A2000C1B2204600F006F8206A6FF02001016044
:105A30006FE70000B0B5044690F85400032800F268
:105A40007D80DFE800F0021D344FB4F858000028D4
:105A500074D16079884271D1206F002501700120D6
:105A600084F85400A4F85A00E16F00290CBF00200C
:105A700088476066606EA066002084F86050B0BD04
:105A8000206F4170A4F85610B4F856000002A4F834
:105A90005600022084F85400B4F85A000130A4F8EB
:105AA0005A00E16F00290CBF0020884750E0206FAA
:105AB0008170B4F856000844A4F85600B4F85A00AF
:105AC0000130A4F85A00B4F85600C8B3B4F8560030
:105AD000B4F85E10884233D2B4F85600A4F85A00E5
