:020000040800F2
:10000000B83F00209D010008816100089519000893
:10001000B5600008D50B0008F99900080000000041
:10002000000000000000000000000000DD66000885
:10003000710F0008000000002564000839720008F4
:10004000FD99000805640008B7010008B701000821
:10005000B7010008F564000861110008B701000845
:10006000B701000865110008B7010008B7010008D2
:10007000450D0008B70100086D0D0008B701000824
:10008000B7010008B7010008B7010008B701000870
:10009000B7010008B7010008B7010008B701000860
:1000A000B7010008B7010008B7010008B701000850
:1000B00009770008B7010008B7010008B701000878
:1000C000B7010008B7010008B7010008B701000830
:1000D000B7010008D1990008B7010008E5990008A8
:1000E000B7010008B7010008B7010008B701000810
:1000F000B7010008B7010008B7010008B701000800
:10010000B7010008B7010008B7010008B7010008EF
:10011000B7010008B7010008B7010008B7010008DF
:10012000950D0008DD0D0008E10D0008B70100087D
:10013000B7010008B7010008B7010008B7010008BF
:10014000B7010008B7010008B7010008B7010008AF
:10015000B7010008B7010008090E0008B701000840
:10016000B7010008B7010008B7010008B70100088F
:10017000B7010008B7010008B7010008000000003F
:100180008D190008B7010008DFF80CD000F04EFB15
:10019000004800476D9C0008B83F00200648804793
:1001A00006480047FEE7FEE7FEE7FEE7FEE7FEE75C
:1001B000FEE7FEE7FEE7FEE7997600088901000802
:1001C0002DE9F05F0546002092469B46884606468C
:1001D000814640241BE0284641464746224600F01F
:1001E0003EFA53465A46C01A914110D3114618465A
:1001F000224600F025FA2D1A67EB01084F462246E9
:100200000120002100F01CFA17EB00094E41201ECE
:10021000A4F10104DFDC484631462A464346BDE8E6
:10022000F09FD2B201E000F8012B491EFBD27047CB
:100230000022F6E710B513460A4604461946FFF7B2
:10024000F0FF204610BD2DE9FE4F804681EA0300F5
:10025000C00F0C46009021F0004123F00045B8EBA0
:100260000200A94105D24046214690461C460B4655
:10027000024623F00040104347D0270DC7F30A0081
:10028000C3F30A510290401A019040286BDAC3F37D
:10029000130040F4801B0098924620B10023D2EB5B
:1002A000030A63EB0B0B01985946C0F1400250461C
:1002B00000F0C6F906460D4650465946019A00F030
:1002C000DEF910EB08006141002487EA115284EA4C
:1002D000E7731A4340D0009A62B3019A012A4FEAA9
:1002E000075215DC001B61EB02014FF0004202EAED
:1002F0000752CDE90042001C41F5801132462B46E1
:1003000000F015FA03B0BDE8F08F40462146F9E74A
:10031000001B61EB0201001C41F5801300185B41DA
:100320002018A2F5001747EB030140EAD570B61973
:100330006D4111E06D084FEA360645EAC0754FEA97
:100340000752001B61EB0201001C41F580114908B6
:100350004FEA30000019514132462B4603B0BDE848
:10036000F04F00F0D5B90098012240000023D0EBF7
:10037000020263EBE073009821464FEAE074B8EBA9
:10038000000061EB0401E9E783F000435BE781F0E3
:10039000004158E72DE9FE4F81EA030404F00044D0
:1003A00021F0004100944FF0000B23F0004350EA8D
:1003B00001045ED052EA03045BD0C3F30A54C1F3D4
:1003C0000A552C44A4F2F3340194A0FB0254C1F367
:1003D000130141F48011C3F3130343F4801301FBB1
:1003E000024400FB034E840A970A44EA815447EA18
:1003F0008357A4FB076802958D0A05FB07854FEA22
:10040000932C04FB0C542705029D4FEA065847EA3B
:100410001637B5EB08056EEB070C870E920E47EA10
:10042000811742EA8312A7FB0201B6EB0B0164EBD2
:1004300000042B0D43EA0C335E1844EB1C50DA46E3
:100440005146E7FB0201C5F313044FEA0B3343EABD
:1004500014534FEA0432019C43EA0603A4F10C044E
:100460000294009CCDE900B400F061F903B0BDE84E
:10047000F08F00200146F9E72DE9F04D81EA0304F1
:1004800004F0004B21F0004514464FF0000A23F021
:10049000004150EA050220D054EA01021DD0C5F304
:1004A0000A570246C5F31303C1F31300C1F30A56FA
:1004B00040F4801543F48013A7EB0608101BD646C2
:1004C00008F2FD3873EB050002D308F1010801E0E2
:1004D00092185B41B8F1000F03DA00200146BDE835
:1004E000F08D00204FF48011064684460EE0171B65
:1004F00073EB050705D3121B63EB050306434CEAB8
:10050000010C49084FEA300092185B4150EA01079C
:10051000EDD152EA030012D082EA040083EA050119
:10052000084305D0101BAB4106D20122002306E090
:1005300000224FF0004302E06FF0010253101AEB6B
:1005400006004CEB085110EB0A0041EB0B01BDE833
:10055000F04D00F0DDB80EB5C10F80EAE070084440
:10056000CA07002140F233438DE80E000A460B46CD
:1005700000F0DDF803B000BD70B5C1F30A5201F020
:1005800000450024C1F3130140F2FF3341F4801110
:100590009A4201DA002070BD40F233439A42A2F23F
:1005A000334203DC524200F05AF800E090402C4302
:1005B000F1D0404270BD00F0004230F000400AD05F
:1005C000C10D01F56071C0F3160042EA0151C20885
:1005D00040071143704700200146704701F0004377
:1005E00030B421F0004150EA010206D00A0DA2F514
:1005F0006072C1F31301002A02DC30BC0020704796
:10060000440F44EAC104C100E01830BC00EBC25002
:1006100000F047B830B50B460146002020220124E7
:1006200009E021FA02F59D4205D303FA02F5491BC0
:1006300004FA02F52844151EA2F10102F1DC30BDD6
:10064000202A04DB203A00FA02F100207047914092
:10065000C2F1200320FA03F3194390407047202A87
:1006600004DB203A21FA02F00021704721FA02F35C
:10067000D040C2F120029140084319467047202A19
:1006800006DBCB17203A41FA02F043EAE07306E0BA
:1006900041FA02F3D040C2F12002914008431946CA
:1006A00070470029A8BF7047401C490008BF20F0D0
:1006B0000100704710B4B0FA80FC00FA0CF050EA68
:1006C000010404BF10BC704749B1CCF1200421FAE9
:1006D00004F411FA0CF118BF012121430843A3EBE4
:1006E0000C01CB1D4FEA00614FEA102042BF0020F1
:1006F00010BC704700EBC35010440029A4BF10BCCD
:100700007047401C490008BF20F0010010BC704732
:1007100010B5141E73F1000408DA401C41F1000109
:1007200092185B411A4301D120F0010010BD2DE960
:10073000F04D92469B4611B1B1FA81F202E0B0FA57
:1007400080F220329046FFF77BFF04460F4640EAD6
:100750000A0041EA0B0153465A46084313D011469A
:1007600053EA010019D0C8F140025046FFF777FF65
:1007700005460E46504659464246FFF761FF08437C
:1007800005D0012004E020463946BDE8F08D002068
:10079000054346EAE0762C4337430A986305E40AAA
:1007A000A0EB08000022FD0A44EA47540A3002D5B3
:1007B00000200146E9E7010510196941DDE9084516
:1007C00000196941BDE8F04DA2E7C1F30A52C1F337
:1007D000130140F2FF3341F480119A4202DA002003
:1007E0000146704740F233439A42A2F2334202DCA0
:1007F0005242FFF734BFFFF723BF000030B5041E9D
:1008000071F1000404DB4FF00044404264EB01014D
:10081000141E73F1000405DB1C464FF000435242E6
:1008200063EB0403994208BF904230BD064C074D6C
:1008300006E0E06840F0010394E8070098471034B0
:10084000AC42F6D3FFF7A4FC5CA700087CA7000825
:1008500080B582B00190019800F0A8F802B080BD88
:1008600080B582B00190019800F0F4F802B080BD2C
:1008700080B582B00190019800F02EF902B080BDE1
:1008800080B582B001900198FFF7E2FF02B080BD11
:1008900080B582B001900198FFF7E2FF02B080BD01
:1008A00080B582B001900198FFF7E2FF02B080BDF1
:1008B00080B584B046F20040C4F20200002112224A
:1008C0000390029103F0B2F80398029902F0E0FE5F
:1008D00042F20000C4F20100019001F0E7FF01982C
:1008E0000299029A00F03CF902990090084604B07F
:1008F00080BD000080B584B046F20040C4F2020022
:1009000000210390029102F093FE0398029902F0F5
:1009100063FA42F20000C4F20100019001F0BCFF52
:10092000019801F0B1FF029804B080BD80B586B097
:1009300046F20040C4F20200012112220590049107
:1009400003F074F80598049902F0A2FE42F2002028
:10095000C4F20100039001F0A9FF00200290029967
:10096000039A00F0FDF802990190084606B080BD98
:1009700080B582B046F20040C4F20200012101902D
:1009800002F056FE019802F065FB019802F0AAFB06
:1009900042F20020C4F20100009001F07DFF0098B7
:1009A00001F072FF002002B080BD000080B582B06F
:1009B0000090009842F20001C4F20101884216D171
:1009C000FFE740F22400C2F20000016800220A7032
:1009D0000068C282C0F81220C0F80E20C0F80A20B9
:1009E000C0F80620FFF764FF8DF807002DE000989F
:1009F00042F20011C4F20101884204D1FFE7002055
:100A00008DF8070021E0009842F20021C4F20101B4
:100A1000884216D1FFE740F22800C2F200000168C8
:100A200000220A700068C282C0F81220C0F80E20AE
:100A3000C0F80A20C0F80620FFF778FF8DF80700FD
:100A400003E000208DF80700FFE79DF8070002B0E3
:100A500080BD000080B582B00090009842F2000195
:100A6000C4F2010188420DD1FFE740F22400C2F236
:100A700000000068017801310170FFF73BFF8DF83D
:100A8000070024E0009842F20011C4F201018842FC
:100A900004D1FFE700208DF8070018E0009842F22B
:100AA0000021C4F2010188420DD1FFE740F2280085
:100AB000C2F200000068017801310170FFF758FFB1
:100AC0008DF8070003E000208DF80700FFE79DF890
:100AD000070002B080BD000080B59AB019900020D8
:100AE0008DF863000DF13E01242204900846114662
:100AF0000392FFF79DFB0DF11A000399FFF798FB96
:100B000019980630059004988DF86300FFE79DF86A
:100B10006300112812DCFFE7059800889DF8631038
:100B20000DF13E0222F81100059802300590FFE712
:100B30009DF8630001308DF86300E8E70DF13E0099
:100B40001221029000F0B0FA10210222029B0190C3
:100B5000184600F0A1F81999488000201AB080BD0D
:100B600080B584B00390029101920398002804D0CC
:100B7000FFE7039801F0A4FEFFE70298002804D0E5
:100B8000FFE7029801F09CFEFFE70198002804D0DF
:100B9000FFE7019801F094FEFFE7002004B080BD5C
:100BA00081B001468DF803009DF8030000098DF81F
:100BB00002009DF8020000EB80009DF8032002F087
:100BC0000F0202EB40008DF802009DF8020001B018
:100BD00070470000FFE7FEE780B500F01BF880BD1E
:100BE00080B500F01DF880BD80B5FFF7F5FF80BD32
:100BF00080B5FFF7F5FF80BD80B543F20000C4F279
:100C0000020002F0CDF840F20401C2F2000101221C
:100C10000A7080BD40F20400C2F200000078704704
:100C200080B5FFF7E9FF4FF4805001F061FE40F21C
:100C30000400C2F200000021017080BD80B500F008
:100C40000DF880BD80B500F017F880BD80B5FFF7C6
:100C5000F5FF80BD80B5FFF7F5FF80BD80B503F0DF
:100C600041FC002807D0FFE703F02AFC03F0BCFB9F
:100C700003F09CFBFFE780BD80B503F03BFC002840
:100C800008D0FFE703F0A6FB03F09AFB08F0ECFFA7
:100C900008F0C2FF80BD000080B588B004AB944668
:100CA0008E460790ADF81A10ADF818200020059078
:100CB0000490ADF80E00BDF81800ADF80E000293D8
:100CC000FFE7BDF80E00BDF81A1088421EDAFFE7F4
:100CD0000798BDF80E1030F81100FFF73CFC41EC0E
:100CE000100B029890ED001B53EC102B51EC110BE4
:100CF000FFF7A9FA41EC100B029880ED000BFFE71B
:100D0000BDF80E000130ADF80E00DAE70498059941
:100D1000BDF81A20BDF81830D21A01901046009183
:100D2000FFF719FC41EC100B53EC102B01980099C4
:100D3000FFF7A2FB41EC100B51EC100BFFF71CFC72
:100D400008B080BD80B546F20000C4F20200012167
:100D500002F06AFD002808D0FFE740F24400C2F22A
:100D60000000006807F01CFDFFE780BD80B546F27B
:100D70000000C4F20200032102F056FD002808D052
:100D8000FFE740F24400C2F20000006807F010FDE7
:100D9000FFE780BD80B584B046F20040C4F2020097
:100DA000002102F041FD002816D0FFE740F22400A8
:100DB000C2F200000068FFF773FD42F20001C4F2C6
:100DC0000101039008460291FFF762FD029901902C
:100DD0000846FFF755FDFFE704B080BD70470000EF
:100DE00080B546F20040C4F20200022102F01CFD70
:100DF000002808D0FFE740F24000C2F2000000687F
:100E000007F0CEFCFFE780BD80B546F20040C4F29B
:100E10000200072102F008FD002808D0FFE740F299
:100E20004000C2F20000006807F0C2FCFFE780BD8E
:100E300080B584B00A4603908DF80B1003989DF896
:100E40000B10019200F010F804B080BD80B584B0A2
:100E50000A4603908DF80B1003989DF80B10019231
:100E6000FFF7E6FF04B080BD80B584B00A4602906B
:100E70008DF80710029846F20001C4F20201884280
:100E800033D1FFE79DF80700002805D1FFE74FF4B5
:100E9000001001F051FD24E09DF80700012805D164
:100EA000FFE74FF4001001F047FD19E09DF807003F
:100EB000022805D1FFE74FF4001001F073FD0EE0AA
:100EC0009DF80700032805D1FFE74FF4001001F05B
:100ED0009FFD03E001208DF80F0045E0FFE7FFE7ED
:100EE000FFE700208DF80F003EE0029846F2004137
:100EF000C4F20201884233D1FFE79DF807000028C1
:100F000005D1FFE74FF4800001F016FD24E09DF8C5
:100F10000700012805D1FFE74FF4800001F00CFD28
:100F200019E09DF80700022805D1FFE74FF4800083
:100F300001F038FD0EE09DF80700032805D1FFE71A
:100F40004FF4800001F064FD03E001208DF80F00F4
:100F50000AE0FFE7FFE7FFE700208DF80F0003E05E
:100F600002208DF80F00FFE79DF80F0004B080BD50
:100F70007047000080B582B001468DF807009DF8EB
:100F800007004CF6CD42CCF6CC42A0FB0203DB08B6
:100F90008DF806309DF806309DF807C0ACFB022E98
:100FA0004FEADE0E0EEB8E0EACEB4E0C4CEA03134A
:100FB0008DF806309DF806300090184602B080BDCE
:100FC00080B582B00190019800F056F802B080BD63
:100FD00080B582B00190019800F01AF802B080BD8F
:100FE00080B582B00190019800280FD0FFE7FFE79D
:100FF0000198411E0191002807D0FFE74FF47A7055
:1010000000F006F801F032FCF2E7FFE702B080BD25
:1010100080B584B00390039800281AD0FFE70398A6
:1010200044F6D351C1F26201A0FB01029209029081
:101030001046019100F020F803980199A0FB0123CC
:101040009B094FF47A7C03FB1C00009205F0B6FF6D
:10105000FFE704B080BD000080B582B00190019828
:10106000FFF7AEFF02B080BD80B582B0019001985D
:10107000FFF7AEFF02B080BD80B582B0019001984D
:1010800000280ED0FFE705F081FF002804D1FFE71C
:10109000019805F07FFF03E00198FFF7A1FFFFE74C
:1010A000FFE702B080BD000084B00A460390ADF8AF
:1010B0000A100020ADF80800ADF80600BDF80A10CF
:1010C0000139ADF80410ADF80800FFE7BDF80800DD
:1010D000BDF8041088423FDAFFE70020ADF80600B3
:1010E000FFE7BDF80600BDF80410BDF80820891A16
:1010F00088422ADAFFE70398BDF8061000EB4102A8
:1011000030F811005188884218DAFFE70398BDF8DB
:10111000061000EB41004088ADF802000398BDF8CE
:10112000061000EB410230F811005080BDF80200BB
:101130000399BDF8062021F81200FFE7FFE7BDF88C
:1011400006000130ADF80600CBE7FFE7BDF8080068
:101150000130ADF80800B9E7002004B07047000086
:101160007047000080B582B00820019002F0F8FCC2
:10117000019802F003FD019802F0E8FC02B080BD86
:1011800080B500F021FA80BD80B584B00A46039096
:101190008DF80B1003989DF80B10019200F0A8FB3E
:1011A00004B080BD80B5FFF7EBFF80BD80B584B093
:1011B0000A4603908DF80B1003989DF80B100192CE
:1011C000FFF7E2FF04B080BD80B584B00A4602900C
:1011D0008DF8071002980021C4F2020188422FD135
:1011E000FFE79DF80700002804D1FFE7012001F088
:1011F00071FB21E09DF80700012804D1FFE70120E1
:1012000001F088FB17E09DF80700022804D1FFE7F2
:10121000012001F0BBFB0DE09DF80700032804D17D
:10122000FFE7012001F0E6FB03E001208DF80F004D
:10123000C6E1FFE7FFE7FFE700208DF80F00BFE101
:10124000029840F20041C4F2020188422FD1FFE728
:101250009DF80700002804D1FFE7022001F03AFBC7
:1012600021E09DF80700012804D1FFE7022001F0EA
:1012700051FB17E09DF80700022804D1FFE7022088
:1012800001F084FB0DE09DF80700032804D1FFE77F
:10129000022001F0AFFB03E001208DF80F008FE189
:1012A000FFE7FFE7FFE700208DF80F0088E10298D5
:1012B00040F60001C4F2020188422FD1FFE79DF8F9
:1012C0000700002804D1FFE7042001F003FB21E020
:1012D0009DF80700012804D1FFE7042001F01AFB64
:1012E00017E09DF80700022804D1FFE7042001F071
:1012F0004DFB0DE09DF80700032804D1FFE7042013
:1013000001F078FB03E001208DF80F0058E1FFE7C2
:10131000FFE7FFE700208DF80F0051E1029840F64B
:101320000041C4F2020188422FD1FFE79DF8070077
:10133000002804D1FFE7082001F0CCFA21E09DF855
:101340000700012804D1FFE7082001F0E3FA17E0C5
:101350009DF80700022804D1FFE7082001F016FBE2
:101360000DE09DF80700032804D1FFE7082001F0F5
:1013700041FB03E001208DF80F0021E1FFE7FFE7CB
:10138000FFE700208DF80F001AE1029841F20001FA
:10139000C4F2020188422FD1FFE79DF80700002820
:1013A00004D1FFE7102001F095FA21E09DF8070035
:1013B000012804D1FFE7102001F0ACFA17E09DF8F6
:1013C0000700022804D1FFE7102001F0DFFA0DE04A
:1013D0009DF80700032804D1FFE7102001F00AFB65
:1013E00003E001208DF80F00EAE0FFE7FFE7FFE7E9
:1013F00000208DF80F00E3E0029841F20041C4F2B2
:10140000020188422FD1FFE79DF80700002804D190
:10141000FFE7202001F05EFA21E09DF80700012897
:1014200004D1FFE7202001F075FA17E09DF80700CE
:10143000022804D1FFE7202001F0A8FA0DE09DF872
:101440000700032804D1FFE7202001F0D3FA03E0CE
:1014500001208DF80F00B3E0FFE7FFE7FFE7002072
:101460008DF80F00ACE0029841F60001C4F20201D1
:1014700088422FD1FFE79DF80700002804D1FFE73D
:10148000402001F027FA21E09DF80700012804D14F
:10149000FFE7402001F03EFA17E09DF80700022820
:1014A00004D1FFE7402001F071FA0DE09DF807003C
:1014B000032804D1FFE7402001F09CFA03E001205B
:1014C0008DF80F007CE0FFE7FFE7FFE700208DF8D5
:1014D0000F0075E0029841F60041C4F20201884213
:1014E0002FD1FFE79DF80700002804D1FFE78020F7
:1014F00001F0F0F921E09DF80700012804D1FFE791
:10150000802001F007FA17E09DF80700022804D1B7
:10151000FFE7802001F03AFA0DE09DF8070003286C
:1015200004D1FFE7802001F065FA03E001208DF887
:101530000F0045E0FFE7FFE7FFE700208DF80F0011
:101540003EE0029842F20001C4F20201884233D127
:10155000FFE79DF80700002805D1FFE74FF48070F2
:1015600001F0B8F924E09DF80700012805D1FFE754
:101570004FF4807001F0CEF919E09DF807000228C1
:1015800005D1FFE74FF4807001F000FA0EE09DF8FE
:101590000700032805D1FFE74FF4807001F02AFA15
:1015A00003E001208DF80F000AE0FFE7FFE7FFE707
:1015B00000208DF80F0003E002208DF80F00FFE7F8
:1015C0009DF80F0004B080BD80B58AB00020C4F241
:1015D000020001210991FFF7F7FD40F20041C4F23A
:1015E0000201089008460999FFF7EEFD40F6000158
:1015F000C4F20201079008460999FFF7E5FD40F69D
:101600000041C4F20201069008460999FFF7DCFD8B
:1016100041F20001C4F20201059008460999FFF762
:10162000D3FD41F20041C4F2020104900846099939
:10163000FFF7CAFD41F60001C4F20201039008461B
:101640000999FFF7C1FD41F60041C4F20201029081
:1016500008460999FFF7B8FD42F20001C4F2020101
:10166000019008460999FFF7AFFD4FF480410090C3
:10167000084601F023FB0AB080BD000080B586B0AB
:101680000590049100208DF80F000498411E022956
:10169000029040D3FFE7029804283CD0FFE702986D
:1016A000082838D0FFE70298102834D0FFE70298C6
:1016B000202830D0FFE7029840282CD0FFE702987E
:1016C000802828D0FFE70298B0F5807F23D0FFE77D
:1016D0000298B0F5007F1ED0FFE70298B0F5806F4A
:1016E00019D0FFE70298B0F5006F14D0FFE7029819
:1016F000B0F5805F0FD0FFE70298B0F5005F0AD029
:10170000FFE70298B0F5804F05D0FFE70298B0F5EB
:10171000004F04D1FFE700208DF80F0003E0012007
:101720008DF80F00FFE79DF80F0000280AD1FFE7B2
:10173000059802F0CDFA04990840002818BF01204E
:10174000019006E0059802F0C3FA04990840019060
:10175000FFE7019806B080BD80B584B00390029188
:1017600000208DF807000298411E0229009040D306
:10177000FFE7009804283CD0FFE70098082838D0FD
:10178000FFE70098102834D0FFE70098202830D0D9
:10179000FFE7009840282CD0FFE70098802828D049
:1017A000FFE70098B0F5807F23D0FFE70098B0F501
:1017B000007F1ED0FFE70098B0F5806F19D0FFE7DB
:1017C0000098B0F5006F14D0FFE70098B0F5805F87
:1017D0000FD0FFE70098B0F5005F0AD0FFE7009850
:1017E000B0F5804F05D0FFE70098B0F5004F04D169
:1017F000FFE700208DF8070003E001208DF80700C7
:10180000FFE79DF80700002805D1FFE7039802993C
:1018100002F06EFA04E00398029902F073FAFFE70F
:1018200004B080BD80B584B00390029100208DF893
:1018300007000298411E0229009040D3FFE700985C
:1018400004283CD0FFE70098082838D0FFE700982C
:10185000102834D0FFE70098202830D0FFE7009808
:1018600040282CD0FFE70098802828D0FFE7009878
:10187000B0F5807F23D0FFE70098B0F5007F1ED041
:10188000FFE70098B0F5806F19D0FFE70098B0F53A
:10189000006F14D0FFE70098B0F5805F0FD0FFE72E
:1018A0000098B0F5005F0AD0FFE70098B0F5804FD0
:1018B00005D0FFE70098B0F5004F04D1FFE7002006
:1018C0008DF8070003E001208DF80700FFE79DF881
:1018D0000700002805D1FFE70398029902F074FA87
:1018E00004E00398029902F077FAFFE704B080BDA4
:1018F00080B588B00A4607908DF81B10002005902F
:10190000049003908DF80B00019205F04BFB0490BE
:10191000FFE7079801684068009008460099FFF7C4
:10192000ADFE9DF81B10884201D1FFE71BE005F0DA
:1019300039FB059005980499884206D2FFE7049880
:101940000599C0430844039004E005980499401A9F
:101950000390FFE70398652804D3FFE701208DF883
:101960000B0000E0D5E79DF80B0008B080BD00003B
:1019700040F24800C2F20000006842F6B471C2F2C0
:1019800000010A68104408607047000080B504F048
:101990000BFE80BD80B500F003F8FFE7FEE7000016
:1019A0001EF0040F0CBFEFF30880EFF3098000F086
:1019B00001B8704781B0009040F25810C2F20000A8
:1019C0000021C161816141610161C160816041604B
:1019D00001600099096801600099496841600099B7
:1019E000896881600099C968C160009909690161CD
:1019F0000099496941610099896981610099C969C2
:101A0000C16101BE01B0704780B582B001900198FC
:101A100000F0D2FA02B080BD80B584B0039002918C
:101A2000019203980299019A00F0DCFA04B080BD9B
:101A300080B582B00190019800F0C2FB02B080BD79
:101A400080B584B00A4603908DF80B109DF80B000A
:101A5000002806D0FFE7039800F014FA002804D00D
:101A6000FFE7039800F0F0FBFFE7039800F0C6FBE8
:101A70000399002201900846114600F09DFC03994D
:101A80009DF80B2000900846114600F065FB04B05D
:101A900080BD000080B582B00190019800F0D4FBB9
:101AA00002B080BD80B584B013468C4603908DF89B
:101AB0000B108DF80A2003989DF80B109DF80A2052
:101AC0000193CDF800C000F0C9FB04B080BD000058
:101AD00080B584B00A4603908DF80B1003989DF8EA
:101AE0000B10019200F068FC04B080BD80B584B09A
:101AF00003900291019203980299019A00F09AFCD6
:101B000004B080BD80B582B00190019800F00CFD5A
:101B100002B080BD80B582B00190019800F066FDF2
:101B200002B080BD80B584B00A4603908DF80B10DA
:101B30000398019200F092FD9DF80B10002906D049
:101B4000FFE70398818A01F0FE01818205E0039896
:101B5000818A41F001018182FFE70398017D00F055
:101B600053FE03990090084600F0DEFC04B080BDEF
:101B700080B582B00190019800F0B4FD02B080BD44
:101B800080B584B00A4603908DF80B1003989DF839
:101B90000B10019200F0E2FD04B080BD80B584B06E
:101BA0000A4603908DF80B1003989DF80B100192D4
:101BB00000F02AFE04B080BD80B582B0019001988B
:101BC000FFF722FF02B080BD80B584B00390029180
:101BD000019203980299019AFFF71EFF04B080BD9D
:101BE00080B582B001900198FFF722FF02B080BD5E
:101BF00080B584B00A4603908DF80B1003989DF8C9
:101C00000B100192FFF71CFF04B080BD80B582B0BD
:101C100001900198FFF73EFF02B080BD80B584B00F
:101C200013468C4603908DF80B108DF80A2003980C
:101C30009DF80B109DF80A200193CDF800C0FFF726
:101C400031FF04B080BD000080B584B00A46039027
:101C50008DF80B1003989DF80B100192FFF738FFD9
:101C600004B080BD80B584B00390029101920398C6
:101C70000299019AFFF73AFF04B080BD80B582B0A7
:101C800001900198FFF73EFF02B080BD80B582B0A1
:101C900001900198FFF73EFF02B080BD80B584B08F
:101CA0000A4603908DF80B1003989DF80B100192D3
:101CB000FFF738FF04B080BD80B582B00190019875
:101CC000FFF756FF02B080BD80B584B00A4603908E
:101CD0008DF80B1003989DF80B100192FFF750FF41
:101CE00004B080BD80B584B00A4603908DF80B1017
:101CF00003989DF80B100192FFF750FF04B080BDD0
:101D000080B584B00A4602908DF807100298C06A28
:101D100045F20041C4F20001884233D1FFE79DF84B
:101D20000700002805D1FFE74FF4001000F0AAFEDD
:101D300024E09DF80700012805D1FFE74FF40010CB
:101D400000F0DCFE19E09DF80700022805D1FFE74E
:101D50004FF4001000F02CFF0EE09DF80700032860
:101D600005D1FFE74FF4001000F070FF03E0012001
:101D70008DF80F0082E0FFE7FFE7FFE700208DF816
:101D80000F007BE00298C06A45F60001C4F2000132
:101D9000884233D1FFE79DF80700002805D1FFE70F
:101DA0004FF4800000F06EFE24E09DF8070001284B
:101DB00005D1FFE74FF4800000F0A0FE19E09DF888
:101DC0000700022805D1FFE74FF4800000F0F0FE85
:101DD0000EE09DF80700032805D1FFE74FF48000CF
:101DE00000F034FF03E001208DF80F0046E0FFE72C
:101DF000FFE7FFE700208DF80F003FE00298C06A80
:101E000045F60041C4F20001884233D1FFE79DF856
:101E10000700002805D1FFE74FF4000000F032FE74
:101E200024E09DF80700012805D1FFE74FF40000EA
:101E300000F064FE19E09DF80700022805D1FFE7D5
:101E40004FF4000000F0B4FE0EE09DF807000328F8
:101E500005D1FFE74FF4000000F0F8FE03E0012099
:101E60008DF80F000AE0FFE7FFE7FFE700208DF89D
:101E70000F0003E002208DF80F00FFE79DF80F0030
:101E800004B080BD80B590B00F900F9844F23D2112
:101E9000C0F60001002200F027FA8DF83B009DF803
:101EA0003B00002800F08480FFE701208DF83B0014
:101EB00000218DF83A100D910C910B910A91099126
:101EC00008910F9A52680892099002220A920B9088
:101ED0000C900D910F98006808AA0791114601F027
:101EE0008DFE07998DF83A10FFE79DF83A00092812
:101EF00026DCFFE70F9801684068069008460699BF
:101F0000FFF790FC0F98006A322105900846059A69
:101F1000049190470F980168406803900846039920
:101F2000FFF71AFC0F98006A049902900846029A7B
:101F30009047FFE79DF83A0001308DF83A00D4E76A
:101F4000022009900F98406A0D900F98006808A928
:101F500001F054FE0F990A68496801901046FFF796
:101F600061FC0F98C06A02F005F90F98C06A02F090
:101F7000E3F80F98006B0F99C96A08600F98406BDF
:101F80000F99C96A48600F98806B0F99C96A886079
:101F90000F98C06B0F99C96AC8600F98C06C0F99F1
:101FA000C96AC8610F98006D0F99C96A0862FFE796
:101FB0009DF83B0010B080BD80B582B001900198C3
:101FC000C169C06A009102F0F3F80099814206D01D
:101FD000FFE70198C169C06A02F058F9FFE70020E5
:101FE00002B080BD80B59AB0199018911792002068
:101FF00016901590149013901290119019994968A9
:102000001191022112911391012114911591199AA4
:10201000526A1692199A126811AB0A9010460991E9
:102020001946089301F0EAFD19990A684968079072
:102030001046FFF7F7FB1998C0681190199880684F
:10204000089901F0DBFD19998A68C9680690104665
:10205000FFF7E8FB19980999FFF752FE1999C96A29
:102060000590084602F01EF81999C96A04900846BE
:1020700002F080F81998C06A02F05EF80A98109091
:102080000F900E900D900C900B900B901999896900
:102090000C910D900E904FF480610F914FF48041A0
:1020A00010911999C86A0BA902F08AF81999C96A9E
:1020B0000390084602F07CF81999C8611998C06A23
:1020C0000A9902F011F91998C06A02F049F81898B3
:1020D000002803D0FFE71898029005E041F269005C
:1020E000C0F600000290FFE702981999086217985D
:1020F000002803D0FFE71798019005E046F6A57089
:10210000C0F600000190FFE70198199988621998BC
:10211000012101741998C06A006819990863199817
:10212000C06A4068199948631998C06A806819990B
:1021300088631998C06AC0681999C8631998C06AF9
:10214000C0691999C8641998C06A006A1999086524
:1021500000201AB080BD000080B584B00A4603900C
:102160008DF80B1000208DF80A000398C06A9DF8C6
:102170000B100129019006D1FFE70398808A00F037
:10218000FE00009005E00398808A40F00100009076
:10219000FFE70098C1B2019802F0B4F8039844F246
:1021A0001D21C0F60001012200F09EF88DF80A0002
:1021B0000398C06A01F0C6FE9DF80A0004B080BD15
:1021C00080B582B00190019844F24D21C0F6000123
:1021D000012200F089F88DF803009DF80300002823
:1021E00007D1FFE70198C06A02F048F88DF80300B4
:1021F000FFE79DF8030002B080BD000080B582B00B
:102200000190019844F23D21C0F60001002200F047
:102210006BF88DF803009DF8030000280FD1FFE74D
:102220000198C06A01F0B0FF019844F25D21C0F648
:102230000001012200F058F88DF80300FFE79DF837
:10224000030002B080BD000080B582B0019001980B
:10225000C06A01F0A3FF002002B080BD80B584B049
:1022600013468C4603908DF80B108DF80A200398C6
:1022700044F26D21C0F6000101220193CDF800C0A7
:1022800000F032F88DF809009DF80900002826D1E9
:10229000FFE70398C06A9DF80B1002F033F803982B
:1022A00044F26D21C0F60001012200F01DF88DF806
:1022B00009009DF80900002810D1FFE79DF80A00E9
:1022C00000280BD0FFE7039844F22D21C0F600014F
:1022D000012200F009F88DF80900FFE7FFE79DF8FB
:1022E000090004B080BD000080B58AB00990089153
:1022F000079200208DF81B00059004900390099828
:10230000806A002805D0FFE70998806A804702901C
:1023100002E000200290FFE702980490FFE708988F
:102320000999C96A01900846019988470799884226
:1023300001D1FFE73CE00998806A00281DD0FFE743
:102340000998806A8047059005980499884206D2CA
:10235000FFE704980599C0430844039004E00598FA
:102360000499401A0390FFE703981F2804D3FFE75E
:1023700001208DF81B00FFE70FE005980130059064
:10238000059848F2A161C0F20101884204D3FFE739
:1023900002208DF81B00FFE7FFE79DF81B000028D7
:1023A00005D0FFE70998C06A01F0F8FE00E0B6E743
:1023B0009DF81B000AB080BD80B582B00A4601902E
:1023C0008DF803109DF80300002806D0FFE7019860
:1023D000C06A002101F0A8FD06E00198C06A4FF430
:1023E000806101F0A1FDFFE7002002B080BD000088
:1023F00080B584B0039003988168C0680290084655
:102400000299FFF7A9F9039801684068019008460E
:102410000199FFF707FA03980121FEF7C7FE039918
:102420000A68496800901046FFF796F9002004B04A
:1024300080BD000080B58EB00D900C910B920020F5
:102440000A90099008900790069005900D994968A8
:1024500005910121069102220792089109910A90A3
:102460000D98006805A9049101F0C8FB0D990A6850
:10247000496803901046FFF7D5F90D98C06805909C
:102480000D988068049901F0B9FB0D998A68C968B4
:1024900002901046FFF7C6F90C98002803D0FFE71A
:1024A0000C98019005E041F26900C0F6000001902F
:1024B000FFE701980D9908620B98002803D0FFE709
:1024C0000B98009005E046F6A570C0F6000000905D
:1024D000FFE700980D9988620D9800210174084665
:1024E0000EB080BD80B584B0039003988168C06849
:1024F000029008460299FFF795F903980168406831
:10250000019008460199FFF78DF903980121FEF724
:102510004DFE03990A68496800901046FFF71CF9C0
:10252000002004B080BD000080B586B0059000207A
:102530008DF8130005988168C068039008460399D8
:10254000FFF770F905980168406802900846029903
:10255000FFF768F905980121FEF728FE05998A68BA
:10256000C96801901046FFF789F8002818BF0120BC
:102570008DF813000598016840680090084600999E
:10258000FFF7EAF89DF8130006B080BD80B586B06D
:10259000059000208DF813000598016840680390AD
:1025A00008460399FFF73EF90598016A408A884773
:1025B00005988168C068029008460299FFF75EF8A6
:1025C000002818BF01208DF81300059801684068A5
:1025D000019008460199FFF7BFF80598016A408A03
:1025E00088479DF8130006B080BD000080B584B018
:1025F000039000208DF80B008DF80A0003998A687B
:10260000C96801901046FFF70DF90398016840680A
:10261000009008460099FFF79FF801988DF80B008D
:10262000FFE79DF80B00072814DCFFE79DF80A0080
:1026300040008DF80A000398FFF7A8FF9DF80A10E4
:1026400008438DF80A00FFE79DF80B0001308DF874
:102650000B00E6E79DF80A0004B080BD80B586B0A7
:10266000059005988168C068049008460499FFF7B2
:10267000D9F8059801684068039008460399FFF768
:10268000D1F80598408A012805DBFFE70598016A23
:10269000408A8847FFE705988168C068029008462D
:1026A0000299FFF759F80598408A012805DBFFE7F2
:1026B0000598016A408A8847FFE7059801684068E5
:1026C000019008460199FFF747F805988168C068AE
:1026D000009008460099FEF7D1FF002818BF01209E
:1026E00006B080BD80B586B0059005988168C06849
:1026F000049008460499FFF72FF805980168406890
:10270000039008460399FFF78DF80598408A012841
:1027100005DBFFE70598016A408A8847FFE70598CF
:102720008168C068029008460299FFF77BF8059817
:10273000408A012805DBFFE70598016A408A88473F
:10274000FFE705988168C068019008460199FEF787
:1027500095FFB0FA80F0400906B080BD80B584B026
:102760000A4602908DF807109DF80700002806D051
:10277000FFE70298FFF7B6FE8DF80F0005E002981C
:10278000FFF736FE8DF80F00FFE79DF80F0004B04D
:1027900080BD000080B586B00A4605908DF8131004
:1027A0009DF813000006002809D5FFE70598816809
:1027B000C068039008460399FFF734F808E00598CD
:1027C0008168C068029008460299FEF7C5FFFFE7DE
:1027D000059801684068019008460199FFF722F8C2
:1027E0000598016A408A884705980168406800900A
:1027F00008460099FEF7B0FF0598016A408A8847AD
:10280000002006B080BD000080B584B00A46039069
:102810008DF80B1000208DF80A0003990B684968A9
:10282000019018460092FEF797FF01988DF80A0074
:10283000FFE79DF80A00072811DCFFE703989DF8E1
:102840000B10FFF7A7FF9DF80B1049008DF80B1038
:10285000FFE79DF80A0001308DF80A00E9E7002043
:1028600004B080BD80B500F005F880BD80B5FFF7ED
:10287000F9FF80BD80B543F20000C4F2000001F012
:1028800051FD002080BD000081B0009000986FF0E5
:102890002001016001B0704781B00090009881680C
:1028A00021F00101816001B07047000081B000900B
:1028B0000098816841F00101816001B0704700001B
:1028C00081B000900098816841F08041816001B042
:1028D0007047000081B00090009843F63001C4F2C8
:1028E00002010A6822EA0000086001B07047000097
:1028F00082B00190019843F63001C4F202010A68E7
:10290000104308600868019908400090009802B0E0
:102910007047000082B00190019843F63001C4F284
:1029200002010A6810430860086801990840009095
:10293000009802B07047000082B00190019843F601
:102940003001C4F202010A68104308600868019966
:1029500008400090009802B07047000081B00090DD
:10296000009843F61001C4F202010A68104308609F
:1029700001B0704781B00090009843F61001C4F296
:1029800002010A681043086001B0704781B00090EE
:10299000009843F61001C4F202010A68104308606F
:1029A00001B0704781B00090009843F61001C4F266
:1029B00002010A681043086001B0704781B00090BE
:1029C000009843F61001C4F202010A6822EA0000EE
:1029D000086001B07047000081B00090009843F695
:1029E0001001C4F202010A6822EA0000086001B086
:1029F0007047000081B00090009843F61001C4F2C7
:102A000002010A6822EA0000086001B07047000075
:102A100081B00090009843F61001C4F202010A68E8
:102A200022EA0000086001B07047000082B0019007
:102A3000019843F63401C4F202010A6810430860A9
:102A40000868019908400090009802B070470000A3
:102A500081B00090009843F61401C4F202010A68A4
:102A60001043086001B0704781B00090009843F6B1
:102A70001401C4F202010A6822EA0000086001B0F1
:102A80007047000081B00090009843F64001C4F206
:102A900002010A6822EA0000086001B070470000E5
:102AA00081B00090009843F64001C4F202010A6828
:102AB00022EA0000086001B07047000081B0009079
:102AC000009843F64001C4F202010A6822EA0000BD
:102AD000086001B07047000082B00190019843F691
:102AE0004001C4F202010A681043086008680199B5
:102AF00008400090009802B07047000082B001903A
:102B0000019843F64001C4F202010A6810430860CC
:102B10000868019908400090009802B070470000D2
:102B200082B00190019843F64001C4F202010A68A4
:102B3000104308600868019908400090009802B0AE
:102B40007047000082B00190019843F64001C4F242
:102B500002010A6810430860086801990840009063
:102B6000009802B07047000081B00090009843F6D2
:102B70002001C4F202010A681043086001B07047E6
:102B800081B00090009843F62001C4F202010A6867
:102B90001043086001B0704781B00090009843F680
:102BA0002001C4F202010A681043086001B07047B6
:102BB00081B00090009843F62001C4F202010A6837
:102BC0001043086001B0704781B00090009843F650
:102BD0002001C4F202010A681043086001B0704786
:102BE00081B00090009843F62001C4F202010A6807
:102BF0001043086001B0704781B00090009843F620
:102C00002001C4F202010A6822EA0000086001B053
:102C10007047000081B00090009843F62001C4F294
:102C200002010A6822EA0000086001B07047000053
:102C300081B00090009843F62001C4F202010A68B6
:102C400022EA0000086001B07047000081B00090E7
:102C5000009843F62001C4F202010A6822EA00004B
:102C6000086001B07047000081B00090009843F602
:102C70002001C4F202010A6822EA0000086001B0E3
:102C80007047000081B00090009843F62001C4F224
:102C900002010A6822EA0000086001B070470000E3
:102CA00081B00090009843F64401C4F202010A6822
:102CB00022EA0000086001B07047000082B0019075
:102CC000019843F64401C4F202010A681043086007
:102CD0000868019908400090009802B07047000011
:102CE00082B00190019843F64401C4F202010A68DF
:102CF000104308600868019908400090009802B0ED
:102D00007047000081B00090009843F62401C4F29F
:102D100002010A681043086001B0704781B000905A
:102D2000009843F62401C4F202010A6810430860C7
:102D300001B0704781B00090009843F62401C4F2BE
:102D400002010A681043086001B0704781B000902A
:102D5000009843F62401C4F202010A6822EA000046
:102D6000086001B07047000081B00090009843F601
:102D70002401C4F202010A6822EA0000086001B0DE
:102D80007047000081B00090009843F62401C4F21F
:102D900002010A6822EA0000086001B070470000E2
:102DA00080B584B0039000200290039843F20001A4
:102DB000C4F20201884209D1FFE74FF4805001902C
:102DC000FFF7CCFD0198FFF7F9FD02E0012002902A
:102DD000FFE7029804B080BD80B582B001900091F9
:102DE0000098002810D1FFE7019800F023F901981E
:102DF00000F068F9019800F0ADF9019800F0DAF8F8
:102E0000019800F097F892E00098012810D1FFE7B0
:102E1000019800F017F9019800F05CF9019800F0B2
:102E2000A1F9019800F0CEF8019800F08BF87DE050
:102E30000098022810D1FFE7019800F013F90198DB
:102E400000F058F9019800F095F9019800F0C2F8E7
:102E5000019800F07FF868E00098032810D1FFE7A0
:102E6000019800F007F9019800F04CF9019800F082
:102E700089F9019800F0B6F8019800F073F853E072
:102E80000098042810D1FFE7019800F0FBF80198A2
:102E900000F040F9019800F07DF9019800F0AAF8DF
:102EA000019800F067F83EE00098052810D1FFE790
:102EB000019800F0EFF8019800F034F9019800F063
:102EC00071F9019800F09EF8019800F05BF829E094
:102ED0000098062810D1FFE7019800F0E3F8019868
:102EE00000F028F9019800F065F9019800F092F8D7
:102EF000019800F04FF814E00098072810D1FFE780
:102F0000019800F0D7F8019800F01CF9019800F042
:102F100059F9019800F086F8019800F043F8FFE7AE
:102F2000FFE7FFE7FFE7FFE7FFE7FFE7FFE702B0A5
:102F300080BD000081B0009000980421816001B044
:102F40007047000081B0009000984FF4807181605C
:102F500001B0704781B0009000984FF480218160EB
:102F600001B0704781B0009000984FF0807181608F
:102F700001B0704781B0009000980421C16001B099
:102F80007047000081B0009000984FF48071C160DC
:102F900001B0704781B0009000984FF48021C1606B
:102FA00001B0704781B0009000984FF08071C1600F
:102FB00001B0704781B0009000980121816001B09C
:102FC0007047000081B0009000984021816001B0FE
:102FD0007047000081B0009000984FF4803181600C
:102FE00001B0704781B0009000984FF4800181607B
:102FF00001B0704781B0009000980121C16001B01C
:103000007047000081B0009000984021C16001B07D
:103010007047000081B0009000984FF48031C1608B
:1030200001B0704781B0009000984FF48001C160FA
:1030300001B0704781B0009000981021816001B00C
:103040007047000081B0009000984FF4806181606B
:1030500001B0704781B0009000984FF480618160AA
:1030600001B0704781B0009000984FF480118160EA
:1030700001B0704781B0009000984FF0806181608E
:1030800001B0704781B0009000981021C16001B07C
:103090007047000081B0009000984FF48061C160DB
:1030A00001B0704781B0009000984FF48011C1606A
:1030B00001B0704781B0009000984FF08061C1600E
:1030C00001B0704781B0009000982021816001B06C
:1030D0007047000081B0009000984FF4006181605B
:1030E00001B0704781B0009000984FF4006181609A
:1030F00001B0704781B0009000984FF400118160DA
:1031000001B0704781B0009000984FF0006181607D
:1031100001B0704781B0009000982021C16001B0DB
:103120007047000081B0009000984FF40061C160CA
:1031300001B0704781B0009000984FF40011C16059
:1031400001B0704781B0009000984FF00061C160FD
:1031500001B0704781B0009000980821816001B0F3
:103160007047000081B0009000984FF400718160BA
:1031700001B0704781B0009000984FF40021816049
:1031800001B0704781B0009000984FF000718160ED
:1031900001B0704781B0009000980821C16001B073
:1031A0007047000081B0009000984FF40071C1603A
:1031B00001B0704781B0009000984FF40021C160C9
:1031C00001B0704781B0009000984FF00071C1606D
:1031D00001B0704784B0039002910192009303986C
:1031E00002994AF28462C0F60002515C08444069C8
:1031F00020F007000199009B194308430399029BA3
:10320000D25C1144486104B07047000083B0029062
:1032100001910092029801994AF28462C0F600027C
:10322000515C405848F21F01CFF6FC7108400099EC
:1032300008430299019BD25C885003B0704700009C
:1032400080B596B01590149146F21000C4F20200B9
:10325000139000201290149810F5803F27D1FFE7BB
:10326000159846F20001C4F20201884209D1FFE735
:103270004FF400101190FFF77DFB1198FFF7ACFBA6
:1032800014E0159846F20041C4F20201884209D1C7
:10329000FFE74FF480001090FFF76CFB1098FFF7EA
:1032A0009BFB02E001201290FFE7FFE7ADE11598DC
:1032B000149900F0ADF9159846F20001C4F202012C
:1032C00088420AD1FFE71498002806D1FFE746F2AA
:1032D0001000C4F202000F902FE1159846F2004151
:1032E000C4F2020188420AD1FFE71498002806D1EF
:1032F000FFE746F21040C4F202000E901AE1159862
:1033000046F20001C4F2020188420AD1FFE7149894
:10331000012806D1FFE746F22800C4F202000D9012
:1033200005E1159846F20041C4F2020188420AD133
:10333000FFE71498012806D1FFE746F22840C4F2BF
:1033400002000C90F0E0159846F20001C4F2020170
:1033500088420AD1FFE71498022806D1FFE746F217
:103360004000C4F202000B90DBE0159846F20041E9
:10337000C4F2020188420AD1FFE71498022806D15C
:10338000FFE746F24040C4F202000A90C6E01598FA
:1033900046F20001C4F2020188420AD1FFE7149804
:1033A000032806D1FFE746F25800C4F20200099054
:1033B000B1E0159846F20041C4F2020188420AD1F8
:1033C000FFE71498032806D1FFE746F25840C4F2FD
:1033D000020008909CE0159846F20001C4F2020138
:1033E00088420AD1FFE71498042806D1FFE746F285
:1033F0007000C4F20200079087E0159846F2004181
:10340000C4F2020188420AD1FFE71498042806D1C9
:10341000FFE746F27040C4F20200069072E0159891
:1034200046F20001C4F2020188420AD1FFE7149873
:10343000052806D1FFE746F28800C4F20200059095
:103440005DE0159846F20041C4F2020188420AD1BB
:10345000FFE71498052806D1FFE746F28840C4F23A
:103460000200049048E0159846F20001C4F20201FF
:1034700088420AD1FFE71498062806D1FFE746F2F2
:10348000A000C4F20200039033E0159846F2004118
:10349000C4F2020188420AD1FFE71498062806D137
:1034A000FFE746F2A040C4F2020002901EE0159829
:1034B000002146F20002C4F202029042019107D1BB
:1034C000FFE714980738B0FA80F040090190FFE751
:1034D0000198C00746F2B841C4F2020100281CBF9F
:1034E00046F2B801C4F202010291FFE7029803908C
:1034F000FFE703980490FFE704980590FFE705981D
:103500000690FFE706980790FFE707980890FFE707
:1035100008980990FFE709980A90FFE70A980B902E
:10352000FFE70B980C90FFE70C980D90FFE70D98C4
:103530000E90FFE70E980F90FFE70F9813901398E7
:103540000021016013984160139881601398C16055
:10355000139801611398212242611598149A0091E1
:103560001146009A00F032FA1498002804D1FFE7BF
:1035700015983F21816047E01498012805D1FFE7A5
:1035800015984FF4746181603DE01498022805D1CC
:10359000FFE715984FF47C11816033E014980328FD
:1035A00005D1FFE715984FF07461816029E0149808
:1035B000042804D1FFE715983F21C16020E014984A
:1035C000052805D1FFE715984FF47461C16016E036
:1035D0001498062805D1FFE715984FF47C11C160B7
:1035E0000CE01498072805D1FFE715984FF0746197
:1035F000C16002E001201290FFE7FFE7FFE7FFE76D
:10360000FFE7FFE7FFE7FFE7FFE7129816B080BD8F
:1036100082B001900091019800994AF28462C0F64C
:103620000002515C425822F00102425002B0704741
:1036300082B001900091019800994AF28C62C0F624
:103640000002515C425822F00102425002B0704721
:1036500082B001900091019800994AF29462C0F6FC
:103660000002515C425822F00102425002B0704701
:1036700082B001900091019800994AF29462C0F6DC
:103680000002515C425842F01002425002B07047B2
:1036900082B001900091019800994AF28C62C0F6C4
:1036A0000002515C425842F00102425002B07047A1
:1036B00082B001900091019800994AF29462C0F69C
:1036C0000002515C425842F00102425002B0704781
:1036D00082B001900091019800994AF29462C0F67C
:1036E0000002515C0844406880B202B0704700009C
:1036F00010B584B00390029101920198C06A00282D
:1037000001D0FFE7FFE703980299019A9368D2F886
:103710000CC0D2F810E0546943EA0C0343EA0E03EC
:103720002343D2F818C043EA0C03D2F81CC043EA82
:103730000C03926A1A43FFF769FD0198C06A0028DA
:1037400017D0FFE703980299019AD36A126B00928F
:103750001A46009BFFF73EFD03980299019A526BAF
:1037600000F0B8F903980299019A926B00F0D8F929
:10377000FFE703980299019A526800F08BF90398C9
:103780000299019A126800F0BBF903980299019A14
:10379000126A00F031F903980299019A526A00F016
:1037A00015F9002004B010BD81B0009000980068A9
:1037B000C0F3401001B0704781B0009000980068DD
:1037C000C0F3C02001B0704781B00090009800683D
:1037D000C0F3405001B0704781B00090009800687D
:1037E000C0F3C06001B0704781B00090009840689D
:1037F000C0F3401001B0704781B00090009840685D
:10380000C0F3C02001B0704781B0009000984068BC
:10381000C0F3405001B0704781B0009000984068FC
:10382000C0F3C06001B0704780B584B003900291CE
:1038300000208DF807000298002812D1FFE70398B6
:10384000FFF7B2FF00280BD0FFE70398029900F0C2
:10385000ADF8002804D0FFE701208DF80700FFE74E
:10386000A0E00298012812D1FFE70398FFF7A4FF18
:1038700000280BD0FFE70398029900F097F8002882
:1038800004D0FFE701208DF80700FFE789E00298E8
:10389000022812D1FFE70398FFF796FF00280BD00C
:1038A000FFE70398029900F081F8002804D0FFE7B1
:1038B00001208DF80700FFE772E00298032812D17B
:1038C000FFE70398FFF788FF00280BD0FFE7039876
:1038D000029900F06BF8002804D0FFE701208DF872
:1038E0000700FFE75BE00298042812D1FFE7039886
:1038F000FFF77AFF00280BD0FFE70398029900F04A
:1039000055F8002804D0FFE701208DF80700FFE7F5
:1039100044E00298052812D1FFE70398FFF76CFFF7
:1039200000280BD0FFE70398029900F03FF8002829
:1039300004D0FFE701208DF80700FFE72DE0029893
:10394000062812D1FFE70398FFF75EFF00280BD08F
:10395000FFE70398029900F029F8002804D0FFE758
:1039600001208DF80700FFE716E00298072812D122
:10397000FFE70398FFF750FF00280BD0FFE70398FD
:10398000029900F013F8002804D0FFE701208DF819
:103990000700FFE7FFE7FFE7FFE7FFE7FFE7FFE7D6
:1039A000FFE7FFE79DF8070004B080BD82B00190FB
:1039B0000091019800994AF27C62C0F60002515CC5
:1039C0004058C0F3001002B07047000083B002906E
:1039D00001910092029801994AF28462C0F60002B5
:1039E000515C405820F06060009908430299019BA7
:1039F000D25C885003B0704783B00290019100926E
:103A0000029801994AF28462C0F60002515C0844AF
:103A100040684FF6FF718843009908430299019B63
:103A2000D25C1144486003B07047000083B002903C
:103A300001910092029801994AF28C62C0F600024C
:103A4000515C084440684FF6FF7188430099084371
:103A50000299019BD25C1144486003B0704700009A
:103A600083B0029001910092029801994AF2946207
:103A7000C0F60002515C084440684FF6FF7188436D
:103A8000009908430299019BD25C1144486003B03D
:103A90007047000083B00290019100920098029953
:103AA000019A4AF28463C0F600039A5C1144C8602C
:103AB00003B0704783B00290019100920098029980
:103AC000019A4AF29463C0F600039A5C1144C860FC
:103AD00003B0704783B0029001910092029801995F
:103AE0004AF28462C0F60002515C405820F0C07077
:103AF000009908430299019BD25C885003B070473B
:103B000083B002900191009200980299019A4AF2C2
:103B10008463C0F600039A5C1144886003B0704768
:103B200083B0029001910092029801994AF2846256
:103B3000C0F60002515C405820F4C00000990843D0
:103B40000299019BD25C885003B0704781B000900D
:103B5000009843F61441C4F20101086001B07047B7
:103B600081B00090009843F60041C4F201010A6858
:103B700022EA0000086001B07047000081B00090A8
:103B8000009843F60041C4F201010A68104308603E
:103B900001B0704743F60040C4F20200016841F4EE
:103BA000806101607047000043F60040C4F20200EB
:103BB000016841F4007101607047000043F6004065
:103BC000C4F20200016841F4807101607047000096
:103BD00043F60040C4F20200006800F00F00704796
:103BE00081B0009043F60040C4F20200016821F069
:103BF0000F01009A1143016001B0704780B584B095
:103C0000039002910020019000900298006890FAC1
:103C1000A0F0B0FA80F00190FFE7029800680199E7
:103C2000C840002850D0FFE702980068019901229F
:103C300002FA01F1084000900098002840D0FFE708
:103C400002984068012805D0FFE7029840680228E2
:103C50000DD1FFE703980099029A926800F03EF9AF
:103C600003980099029AD26800F010F9FFE70398D0
:103C70000099029A126900F019F902984068022826
:103C800017D1FFE7009890FAA0F0B0FA80F007286B
:103C900007D8FFE703980099029A526900F05CF890
:103CA00006E003980099029A526900F06DF8FFE768
:103CB000FFE703980099029A526800F0B7F8FFE70F
:103CC000019801300190A8E7002004B080BD0000F9
:103CD00081B000900098006901B0704782B00190F7
:103CE0000091009800040199886102B070470000BB
:103CF00082B001900091009800040199886102B09F
:103D00007047000080B584B00390029100200190BC
:103D10000090029890FAA0F0B0FA80F00190FFE7CE
:103D200002980199C840002814D0FFE70298019931
:103D3000012202FA01F1084000900098002805D005
:103D4000FFE703980099FFF7C9FFFFE701980130EB
:103D50000190E5E704B080BD83B00290019100922C
:103D60000298006A019991FAA1F1B1FA81F18900F2
:103D70000F228A409043009A02FA01F10843029907
:103D8000086203B07047000083B002900191009276
:103D90000298406A0199090A91FAA1F1B1FA81F1F8
:103DA00089000F228A409043009A02FA01F10843E9
:103DB0000299486203B0704782B001900091009868
:103DC0000199886102B0704782B00190009100981B
:103DD0000199886102B0704780B584B00390029168
:103DE000002001900090029890FAA0F0B0FA80F0C4
:103DF0000190FFE702980199C840002814D0FFE71E
:103E000002980199012202FA01F1084000900098FD
:103E1000002805D0FFE703980099FFF7CDFFFFE7E3
:103E2000019801300190E5E704B080BD83B00290B5
:103E30000191009202980068019991FAA1F1B1FAFA
:103E400081F1490003228A409043009A02FA01F16D
:103E500008430299086003B07047000083B00290E5
:103E60000191009202980068019991FAA1F1B1FACA
:103E700081F1490003228A409043009A02FA01F13D
:103E800008430299086003B07047000083B00290B5
:103E9000019100920298406801998843009A514329
:103EA00008430299486003B07047000083B0029055
:103EB000019100920298C068019991FAA1F1B1FABA
:103EC00081F1490003228A409043009A02FA01F1ED
:103ED00008430299C86003B07047000083B00290A5
:103EE0000191009202988068019991FAA1F1B1FACA
:103EF00081F1490003228A409043009A02FA01F1BD
:103F000008430299886003B07047000082B00190B6
:103F100000910198006820F480600099084301999D
:103F2000086002B07047000082B0019000910198D3
:103F3000006820F48060009908430199086002B08D
:103F40007047000082B0019001984069009000988D
:103F5000019989690091009902B070478CB00B906B
:103F60000A91099208930020079006900A984DF64E
:103F70008361C4F21B31A0FB0101890C07910B99ED
:103F8000496821F03F01079A11430B9A51600B9940
:103F9000096A21F03F01099A48F2A063C0F20103C7
:103FA0009A42059104D8FFE70798013004900EE08B
:103FB00007984FF49671484344F6D351C1F2620119
:103FC000A0FB0101012202EB91110491FFE704988B
:103FD000059908430B9A1062099848F2A162C0F251
:103FE000010290423BD3FFE70898002818D1FFE771
:103FF0000A98099901EB4101B0FBF1F00005002896
:1040000003D1FFE70120039007E00A98099901EB2B
:104010004101B0FBF1F00390FFE70398029017E035
:104020000A98099919225143B0FBF1F000050028C4
:1040300003D1FFE70120019007E00A9809991922AE
:104040005143B0FBF1F00190FFE701980290FFE7C8
:1040500002980899084340F40040069016E00A9838
:1040600009994900B0FBF1F06FF31F30032803D822
:10407000FFE70420009006E00A9809994900B0FB88
:10408000F1F00090FFE700980690FFE70B98C069F9
:104090004CF6FF718843069908430B99C8610CB030
:1040A0007047000080B586B0059000200490059808
:1040B00045F20041C4F20001884209D1FFE74FF404
:1040C00000100390FEF768FD0398FEF7B1FD26E0AF
:1040D000059845F60001C4F20001884209D1FFE7C6
:1040E0004FF480000290FEF757FD0298FEF7A0FD06
:1040F00014E0059845F60041C4F20001884209D158
:10410000FFE74FF400000190FEF746FD0198FEF72F
:104110008FFD02E001200490FFE7FFE7FFE704982E
:1041200006B080BD81B000900098016821F00101C7
:10413000016001B07047000081B0009000980168F4
:1041400021F40041016001B07047000081B000908F
:104150000098016841F00101016001B07047000062
:1041600081B000900098016841F00101016001B048
:104170007047000081B000900098016841F4004150
:10418000016001B07047000081B0009000980168A4
:1041900041F48071016001B07047000081B000906F
:1041A0000098016841F40071016001B0704700009F
:1041B00081B000900098C0696FF31F3001B0704764
:1041C00080B588B0079006910798FFF7ABFF02A86B
:1041D00000F050F907980499069A53689268019282
:1041E0001A46019BFFF7BAFE07980699CA68496903
:1041F00000911146009A00F065F807980699096841
:1042000000F052F80798FFF7A1FF0798069909698F
:10421000FFF77CFE002008B080BD000081B0009058
:1042200000984069C0F3400001B0704781B0009031
:1042300000984069C0F3800001B0704781B00090E1
:1042400000988069C0F3400001B0704781B00090D1
:1042500000984069C0F3801001B0704781B00090B1
:104260000098406900F0010001B0704781B00090F3
:1042700000984069C0B2C00901B0704781B0009099
:1042800000980069C0B201B07047000082B0019090
:1042900000910198C06940F6FF7188430099084376
:1042A0000199C86102B0704782B0019000910198F5
:1042B000006820F01A00009908430199086002B0D4
:1042C0007047000083B002900191009202988068CC
:1042D00048F2FF3188430199009A1143084302993B
:1042E000886003B07047000082B00190009101988F
:1042F000C06820F0FE00009908430199C86002B030
:104300007047000082B00A4601908DF803100198B2
:10431000006920F0FF009DF803100844019908612E
:1043200002B0704781B0009000984AF6AA2101605F
:1043300001B0704782B00190009101980099B0FBE4
:10434000F1F001384EF21401CEF2000108604EF295
:104350001800CEF20000002101604EF21000CEF2F3
:1043600000000521016002B07047000047F2000024
:10437000C4F20000016841F48071016070470000E0
:1043800047F20400C4F200000068C0F380007047E8
:1043900081B0009047F20000C4F20000016821F4EF
:1043A0008041009A1143016001B0704743F60C0050
:1043B000C4F20200016841F400010160704700008E
:1043C00043F60C00C4F20200016841F400210160D0
:1043D0007047000043F60C00C4F20200016821F4AB
:1043E000006101607047000043F60C00C4F2020057
:1043F000016841F4006101607047000043F67000FD
:10440000C4F20200016841F40041016070470000FD
:1044100043F67000C4F20200016841F4803101608B
:104420007047000043F60800C4F20200006800F084
:10443000F000704743F60800C4F20200006800F480
:10444000E050704743F60800C4F20200006800F430
:104450006040704743F60800C4F20200006800F0B4
:104460000C00704743F60800C4F20200006800F038
:104470000C00704780B582B0019002F00DF80199F0
:1044800008600198006801F0CFFF01994860019829
:10449000406801F0DDFF019988600198406801F0F3
:1044A000E9FF0199C86002B080BD000043F600003A
:1044B000C4F20200016841F48031016070470000DD
:1044C00043F60000C4F20200016841F4803101604B
:1044D0007047000043F60000C4F202000068C0F319
:1044E0004040704743F60C00C4F202000068C0B2BE
:1044F000C009704743F60C00C4F202000068C0F324
:10450000C000704743F67000C4F20200016841F039
:10451000010101607047000043F67000C4F2020020
:104520000068C0F34000704743F67400C4F2020014
:10453000016841F0010101607047000043F674001A
:10454000C4F202000068C0F34000704784B00390DA
:1045500002910192009343F60400C4F20200016844
:1045600048F20002CFF6BF721140039A029B1A4331
:10457000019B42EA831211430160016821F440313A
:10458000009A1143016004B07047000043F6000038
:10459000C4F20200016841F08071016070470000C0
:1045A00043F60400C4F20200006800F03F007047C8
:1045B00043F60400C4F20200006800F48000704773
:1045C00043F60400C4F202000068C0F3881070478C
:1045D00043F60400C4F20200006800F44030704763
:1045E00043F60000C4F202000068C0F34060704768
:1045F00043F67000C4F20200016821F480310160CA
:104600007047000081B0009043F60800C4F2020039
:10461000016821F0F001009A1143016001B0704778
:1046200081B0009043F60800C4F20200016821F452
:10463000E051009A1143016001B0704781B00090D1
:1046400043F60800C4F20200016821F46041009AB8
:104650001143016001B0704781B0009043F67000D3
:10466000C4F20200016821F44071009A1143016014
:1046700001B0704781B0009043F60800C4F2020018
:10468000016821F00301009A1143016001B07047F5
:1046900081B0009000986FF02001416001B0704738
:1046A00081B0009000986FF04001416001B0704708
:1046B00080B582B0019040200090FEF7C9F90098C3
:1046C000FEF7D2F9002002B080BD000081B000905A
:1046D0000098016821F00401016001B070470000FA
:1046E00081B000900098016841F00401016001B0C0
:1046F0007047000081B000900098016841F0080107
:10470000016001B07047000081B0009000984068DF
:10471000C0F3401001B0704781B00090009840682D
:1047200000F0010001B0704781B00090009840682F
:10473000C0F3801001B0704781B00090009880688D
:1047400001B0704783B00290019100200090029860
:10475000503000900198009901EB80000090009883
:10476000006803B07047000084B00390029101928A
:10477000002000900398503000900298009901EBBF
:104780008000009001980099086004B07047000014
:1047900081B000900098C06800F0800060F0A00038
:1047A0000099C86001B0704785B0DDF814C004906E
:1047B00003910292019300200090039840039DF81A
:1047C000141040EA01409DF8041040EA01209DF8D1
:1047D00008100844009004984068C021CFF600718A
:1047E0000840009908430499486005B070470000EC
:1047F00081B000900098406800F03F0001B0704721
:1048000081B0009000984068C0F3042001B0704768
:1048100081B000900098406880B2400B01B07047B2
:1048200081B0009000984068C0F3074001B0704725
:10483000F0B589B00890079106920120059007987D
:1048400000280DD1FFE706984078C006002807D55C
:10485000FFE70698417801F0EF010A314170FFE768
:104860000798002801D1FFE700E0FFE7089800F073
:1048700071F8089800F088F801285DD0FFE70798E4
:1048800000280FD0FFE7089806990A784B7891F82E
:1048900002C0C978EE46CEF8001011466246FFF716
:1048A00083FF34E0089806990A784B7891F802C0A3
:1048B000C9784CF6CD4ECCF6CC4EACFB0E45ED088F
:1048C00005EB8506ACEB460C4CEA051C5FFA8CFC4C
:1048D000A3FB0E56F60806EB8607A3EB470343EA55
:1048E0000613DBB2A1FB0EE6F60806EB8607A1EB8A
:1048F000470141EA0611C9B26E463160114662466F
:1049000004940395CDF808E0FFF74EFFFFE742F669
:104910000000C4F2000000F015F8089800F0B8F8A4
:10492000002805D1FFE7089800F0B0F9059002E0F3
:1049300000200590FFE7FFE7089800F01DF80598B4
:1049400009B0F0BD81B0009000986FF08001C160A7
:1049500001B0704781B000900098CA214162009870
:104960005321416201B0704781B0009000984FF030
:10497000FF31C16001B0704781B000900098FF2105
:10498000416201B07047000080B586B005904FF4D9
:104990007A700490002003900290059800F068F867
:1049A00000282FD1FFE70598FFF7DEFF059800F0FC
:1049B0005FF80290FFE7049800210028019106D0DB
:1049C000FFE70298013818BF01200190FFE7019826
:1049D000C007002815D0FFE700F0C6F9012804D170
:1049E000FFE7049801380490FFE7059800F040F8CD
:1049F00002900498002803D1FFE701200390FFE70D
:104A0000D9E7FFE7039806B080BD000081B00090B1
:104A10000098806800F0400001B0704780B584B015
:104A200003900291012001900398FFF793FF0398F0
:104A3000FFF7AAFF012815D0FFE70398029909683C
:104A400000F03CF803980299896800F045F8039853
:104A50000299496800F024F80398FFF773FF0020DB
:104A60000190FFE70398FFF787FF019804B080BD2E
:104A700081B000900098C068C0F3801001B070470A
:104A800081B000900098C068C0F3401001B070473A
:104A900081B0009000988068C0F3401001B070476A
:104AA00082B0019000910198006920F4FE00009905
:104AB00040EA01400199086102B0704782B001905C
:104AC00000910198806820F0400000990843019906
:104AD000886002B07047000082B001900091019898
:104AE000006947F6FF7188430099084301990861FE
:104AF00002B0704785B0DDF814C0049003910292B3
:104B000001930020009003989DF8081040EA0140AE
:104B10009DF8041040EA01209DF81410084300900D
:104B20000498006848F28001CFF68071084000992F
:104B300008430499086005B07047000081B00090F8
:104B400000980068C0F3054001B0704781B0009044
:104B500000980068C0F3062001B0704781B0009053
:104B60000098006800F07F0001B07047F0B589B090
:104B700008900791069201200590079800280CD113
:104B8000FFE70898FFF742FF002801D0FFE703E0A6
:104B9000069800210160FFE70BE00898FFF736FF59
:104BA000002801D0FFE703E0069800210160FFE73D
:104BB000FFE70898FFF7CEFE0898FFF7E5FE01280B
:104BC0005ED0FFE70798002810D0FFE70898069905
:104BD0000A680B7991F805C08979EE46CEF8001085
:104BE00011461A466346FFF785FF34E00898069998
:104BF0000A680B794CF6CD4CCCF6CC4CA3FB0CE4FC
:104C0000E40804EB8405A3EB450343EA0413DBB299
:104C10004C79A4FB0C56F60806EB8607A4EB470478
:104C200044EA0614E4B28979A1FB0CC6F60806EB47
:104C30008607A1EB470141EA0611C9B26E46316011
:104C400011461A462346CDF810E00395CDF808C06A
:104C5000FFF750FFFFE742F60000C4F20000FFF745
:104C600071FE0898FFF714FF002805D1FFE70898A8
:104C700000F00CF8059002E000200590FFE7FFE748
:104C80000898FFF779FE059809B0F0BD80B586B0A9
:104C900005904FF47A7004900020039002900598DC
:104CA000FFF776FD0598FFF7EBFE0290FFE704980B
:104CB00000210028019106D0FFE70298002818BFC4
:104CC00001200190FFE70198C007002815D0FFE7F9
:104CD00000F04AF8012804D1FFE704980138049055
:104CE000FFE70598FFF7CCFE02900498002803D157
:104CF000FFE701200390FFE7D9E7039801282FD0B1
:104D0000FFE74FF47A7004900598FFF7B9FE029020
:104D1000FFE7049800210028009106D0FFE70298E1
:104D2000013818BF01200090FFE70098C007002855
:104D300015D0FFE700F018F8012804D1FFE7049828
:104D400001380490FFE70598FFF79AFE0290049857
:104D5000002803D1FFE701200390FFE7D9E7FFE731
:104D6000039806B080BD00004EF21000CEF20000A5
:104D70000068C0F30040704781B00090009804289C
:104D800009D1FFE74EF21000CEF20000016841F0B9
:104D90000401016008E04EF21000CEF2000001684C
:104DA00021F004010160FFE701B0704781B000907D
:104DB000009840F20001C2F20001086001B07047A3
:104DC00080B590B00F9000200E900F980021C4F293
:104DD0000101884208D1FFE701200D90FDF792FF05
:104DE0000D98FDF7B3FFE0E00F98B0F1804F08D1C8
:104DF000FFE701200C90FDF7B7FE0C98FDF7FCFED5
:104E0000D2E00F9840F20041C4F20001884208D17C
:104E1000FFE702200B90FDF7A7FE0B98FDF7ECFED5
:104E2000C1E00F9840F60001C4F20001884208D1A9
:104E3000FFE704200A90FDF797FE0A98FDF7DCFED5
:104E4000B0E00F9840F60041C4F20001884208D15A
:104E5000FFE708200990FDF787FE0998FDF7CCFED3
:104E60009FE00F9841F20001C4F20001884208D18E
:104E7000FFE710200890FDF777FE0898FDF7BCFECD
:104E80008EE00F9841F20041C4F20001884208D13F
:104E9000FFE720200790FDF767FE0798FDF7ACFEBF
:104EA0007DE00F9840F20041C4F20101884208D130
:104EB000FFE702200690FDF725FF0698FDF746FF65
:104EC0006CE00F9844F20001C4F20101884209D15C
:104ED000FFE74FF480300590FDF714FF0598FDF7CC
:104EE00035FF5AE00F9844F20041C4F201018842B4
:104EF00009D1FFE74FF400300490FDF703FF049859
:104F0000FDF724FF48E00F9844F60001C4F20101C8
:104F1000884209D1FFE74FF480200390FDF7F2FEAD
:104F20000398FDF713FF36E00F9841F60001C4F235
:104F30000001884208D1FFE740200290FDF714FEEF
:104F40000298FDF759FE25E00F9841F60041C4F2A2
:104F50000001884208D1FFE780200190FDF704FEA0
:104F60000198FDF749FE14E00F9842F20001C4F2E7
:104F70000001884209D1FFE74FF480700090FDF7EF
:104F8000F3FD0098FDF738FE02E001200E90FFE7E8
:104F9000FFE7FFE7FFE7FFE7FFE7FFE7FFE7FFE7E1
:104FA000FFE7FFE7FFE7FFE7FFE70E9810B080BDE0
:104FB00082B00190019800680090009801994968BA
:104FC0000091009902B0704782B00190019800688A
:104FD00000900098019949680091009902B07047CB
:104FE00081B0009000986FF48071016001B070474B
:104FF00082B001900198006800900098019949687A
:105000000091009902B0704782B001900198006849
:1050100000900098019949680091009902B070478A
:1050200082B0019001980068009000980199496849
:105030000091009902B0704781B0009000986FF025
:105040002001016001B0704781B0009000986FF0BE
:105050004001016001B0704781B0009000986FF48A
:105060000071016001B0704781B000900098016943
:1050700021F4904101610098416921F02A014161C8
:1050800001B0704780B588B007900020069007985F
:1050900041F20001C4F20101884208D1FFE710206B
:1050A0000590FDF73BFE0598FDF75EFE5BE0079877
:1050B00044F20041C4F20001884209D1FFE74FF4F5
:1050C00000300490FDF75CFD0498FDF7A3FD49E076
:1050D000079844F60001C4F20001884209D1FFE7B5
:1050E0004FF480200390FDF74BFD0398FDF792FDF0
:1050F00037E0079841F20041C4F20101884208D12B
:10510000FFE720200290FDF709FE0298FDF72CFE34
:1051100026E0079844F60041C4F20001884209D114
:10512000FFE74FF400200190FDF72AFD0198FDF7FD
:1051300071FD14E0079845F20001C4F200018842B5
:1051400009D1FFE74FF480100090FDF719FD00989A
:10515000FDF760FD02E001200690FFE7FFE7FFE7B3
:10516000FFE7FFE7FFE7069808B080BD81B0009039
:105170000098C16821F04001C16001B07047000093
:1051800081B000900098C16821F08001C16001B039
:105190007047000081B000900098C16841F4005150
:1051A000C16001B07047000081B000900098416973
:1051B00041F04001416101B07047000081B00090B2
:1051C0000098416941F08001416101B070470000E1
:1051D00081B000900098C16841F01001C16001B039
:1051E0007047000081B000900098C16841F0200134
:1051F000C16001B07047000081B000900098C168A4
:1052000041F04001C16001B07047000080B588B036
:10521000079006910120059000200490079800F067
:10522000D1F800287BD1FFE70798C06849F20C61EC
:10523000884306994A68CB68D1F810C089691A4337
:1052400042EA0C02114308430799C860079806997F
:10525000896800F077F907980699496900F064F9C0
:105260006846FFF707F9079841F20001C4F201010F
:10527000884203D1FFE7039804903CE0079844F28A
:105280000041C4F20001884203D1FFE70298049074
:1052900030E0079844F60001C4F20001884203D1CF
:1052A000FFE70298049024E0079841F20041C4F21D
:1052B0000101884203D1FFE70398049018E00798A2
:1052C00044F60041C4F20001884203D1FFE702988E
:1052D00004900CE0079845F20001C4F200018842F6
:1052E00003D1FFE70298049000E0FFE7FFE7FFE744
:1052F000FFE7FFE7FFE7049800280FD0FFE70698D5
:10530000006800280AD0FFE700200590079804995C
:10531000069A1368926900F0A5F8FFE7FFE7059881
:1053200008B080BD81B0009000980068C0F34000D4
:1053300001B0704781B0009000980068C0F3001081
:1053400001B0704781B0009000980068C0F3002061
:1053500001B0704781B0009000980068C0F38000F1
:1053600001B0704781B0009000980068C0F3C000A1
:1053700001B0704781B000900098006800F0010013
:1053800001B0704781B0009000980068C0F34010F1
:1053900001B0704781B0009000980068C0F38010A1
:1053A00001B0704781B0009000980068C0B2C00999
:1053B00001B0704781B0009000980068C0F34020B1
:1053C00001B0704781B000900098C068C0F34030D1
:1053D00001B0704781B0009000984069C0F3802010
:1053E00001B0704781B000900098406900F0010062
:1053F00001B0704781B000900098C068C0F3001001
:1054000001B0704781B0009000980069C0F380102F
:1054100001B0704781B000900098C068C0F30020D0
:1054200001B0704781B000900098C068C0F3401090
:1054300001B0704781B000900098C068C0F3801040
:1054400001B0704781B000900098C068C0B2C00938
:1054500001B0704781B0009000984068C0B201B0C0
:105460007047000080B586B00590049103920293C6
:105470000398B0F5004F2AD1FFE704981921A0FB4B
:105480000101029A5300D20F01921A46019BFAF7CA
:1054900097FE48F21F51C5F2EB11A0FB01235B09F7
:1054A0004FEA031C4FF0640E03FB1E00322303EB94
:1054B000C000A0FB0101F82303EA51130CEB4303E6
:1054C000C1F34211194489B2059B996029E00498FF
:1054D0001921A0FB0101029A9300920F00921A4633
:1054E000009BFAF76DFE48F21F51C5F2EB11A0FBCD
:1054F00001235B094FF0640C03FB1C004FF0320CDE
:105500000CEB0010A0FB01014FF0F00C0CEA511C59
:105510000CEB0313C1F34311194489B2059B996045
:10552000FFE706B080BD000082B0019000910198B5
:10553000406920F44070009908430199486102B025
:105540007047000082B0019000910198006920F43A
:105550004050009908430199086102B0704700006B
:1055600082B00A4601908DF803109DF8030001995E
:10557000486002B07047000081B0009000986FF062
:105580000101816001B0704780B586B0DDF820C0B0
:1055900005900491039202938DF807C00598049931
:1055A000039A029B9DF807C0EE46CEF800C000F0BB
:1055B000CFF906B080BD000080B582B0019001989F
:1055C00000F03AFA02B080BD80B586B0DDF820C0A8
:1055D00005900491039202938DF807C005980499F1
:1055E000039A029B9DF807C0EE46CEF800C0FFF775
:1055F000CBFF06B080BD000080B582B0019001985D
:10560000FFF7DAFF02B080BD80B588B09C468E46B9
:1056100007908DF81B1005928DF8133000208DF83F
:1056200012008DF8110007981C300121CDF80CC034
:10563000CDF808E0FCF7DCFA8DF812009DF81200B6
:10564000002804D0FFE701208DF812004EE00798F3
:105650001C309DF81B100022FCF7E0FA8DF81200B8
:105660009DF81200002804D0FFE702208DF81200F8
:105670003CE007981C300021FCF7BAFA8DF81200C4
:105680009DF81200002804D0FFE703208DF81200D7
:105690002CE000208DF81100FFE79DF811009DF827
:1056A000131088421EDAFFE707981C309DF811108E
:1056B0009DF81320891A0131B1FA81F14909FCF7EB
:1056C000C3FA07991C3101900846FCF789FA05993D
:1056D0009DF811208854FFE79DF8110001308DF8E6
:1056E0001100DAE700208DF81200FFE707981C3060
:1056F000FCF78CFA9DF812100090084608B080BDA7
:1057000080B586B00B4605908DF8131003920020EB
:105710008DF80B0005981C3001210193FCF768FA05
:105720008DF80B009DF80B00002804D0FFE7012046
:105730008DF80B002FE005981C309DF81310002207
:10574000FCF76CFA8DF80B009DF80B00002804D0D4
:10575000FFE702208DF80B001DE005981C300021AA
:10576000FCF746FA8DF80B009DF80B00002804D0DA
:10577000FFE703208DF80B000DE005981C30012198
:10578000FCF762FA8DF80B0005981C30FCF728FA3C
:1057900003990870FFE705981C30FCF737FA9DF86D
:1057A0000B100090084606B080BD000080B586B0A2
:1057B00013468C4605908DF813108DF812200020AA
:1057C0008DF8110005981C3001210393CDF808C015
:1057D000FCF70EFA8DF811009DF81100002804D096
:1057E000FFE701208DF811001BE005981C309DF8A3
:1057F00013100022FCF712FA8DF811009DF8110029
:10580000002804D0FFE702208DF8110009E0059878
:105810001C309DF812100122FCF700FA8DF81100DF
:10582000FFE705981C30FCF7F1F99DF81110019085
:10583000084606B080BD000080B584B0029000200C
:105840008DF8070002980DF1070100F0F1F98DF8CD
:1058500006009DF80600002805D1FFE79DF8070027
:10586000682804D0FFE701208DF80F002FE0029890
:105870006B21002200F0C4FA8DF806000298132173
:1058800000F0AAFA8DF806000298042100F070FAE0
:105890008DF806000298102100F002FA8DF806003B
:1058A0000298182100F030FA8DF80600029837218E
:1058B000802200F0A5FA8DF8060002983821012216
:1058C00000F09EFA9DF806108DF80F10FFE79DF886
:1058D0000F0004B080BD000081B00090009800214E
:1058E0008164009840F20042C4F20202C261009852
:1058F00040230362009842620098802282620098EE
:1059000080F82C100098C1850098C1630098D022BF
:105910000286009840F64052C0F2030242630098AB
:1059200004220264009845F20042C4F2000282643C
:10593000084601B07047000081B00090012001B01E
:105940007047000081B00090012001B07047000056
:1059500080B588B0DDF828C00690059104920393C5
:105960008DF80BC000208DF80A00069800280DD095
:10597000FFE7069840F23001C2F200010968884250
:1059800004D1FFE70698FFF7A7FF1DE0069800285F
:1059900008D0FFE70698002804D1FFE70698FFF734
:1059A000CBFF10E00698002808D0FFE706980028F3
:1059B00004D1FFE70698FFF7C5FF03E001208DF84B
:1059C0001F0032E0FFE7FFE79DF80B00002809D039
:1059D000FFE706981C300599039AFCF7F5F88DF857
:1059E0000A0008E006981C300599039AFCF73AF97A
:1059F0008DF80A00FFE70498002803D0FFE7049819
:105A0000019005E041F25900C0F600000190FFE767
:105A10000198069908670698FFF70EFF8DF80A00AF
:105A20009DF80A008DF81F00FFE79DF81F0008B0E1
:105A300080BD00000000000080B586B00590002009
:105A40008DF81300ADF810000390029001900599B5
:105A5000088005994880059988800599886005998E
:105A600088810599C8810599088205983B2101AA7A
:105A70000E2300F0A9F88DF813009DF813000028FC
:105A800040F08F80FFE79DF8040005990880059895
:105A900001889DF8052042EA012101809DF8060059
:105AA00005994880059841889DF8072042EA012120
:105AB00041809DF8080005998880059881889DF8A7
:105AC000092042EA012181809DF80A0000EE100AB7
:105AD000B8EE400A8DED000A9DED000ABDEEC00A49
