:020000040800F2
:10000000903E00209D010008C1540008BD1000086A
:10001000F951000825070008518A00080000000077
:100020000000000000000000000000009D640008C7
:10003000350D00080000000061570008196A00082B
:10004000558A000841570008B7010008B7010008A9
:10005000B701000831580008B7010008B7010008CF
:10006000B7010008B7010008B7010008B701000890
:10007000B7010008B7010008B7010008B701000880
:10008000B7010008B7010008B7010008B701000870
:10009000B7010008B7010008B7010008B701000860
:1000A000B7010008B7010008B7010008B701000850
:1000B000B7010008B7010008B7010008B701000840
:1000C000B7010008B7010008B7010008B701000830
:1000D000B7010008CD6E0008B7010008B70100089D
:1000E000B7010008B7010008B7010008B701000810
:1000F000B7010008B7010008B7010008B701000800
:10010000B7010008B7010008B7010008B7010008EF
:10011000B7010008B7010008B7010008B7010008DF
:10012000B7010008B7010008B7010008B7010008CF
:10013000B7010008B7010008B7010008B7010008BF
:10014000B7010008B7010008B7010008B7010008AF
:10015000B7010008B7010008B7010008B70100089F
:10016000B7010008B7010008B7010008B70100088F
:10017000B7010008B7010008B7010008000000003F
:10018000B5100008B7010008DFF80CD000F0B8FA8D
:1001900000480047718C0008903E002006488047C8
:1001A00006480047FEE7FEE7FEE7FEE7FEE7FEE75C
:1001B000FEE7FEE7FEE7FEE75D6E00088901000846
:1001C0002DE9F05F0546002092469B46884606468C
:1001D000814640241BE0284641464746224600F01F
:1001E000DFF953465A46C01A914110D311461846BA
:1001F000224600F0C6F92D1A67EB01084F46224649
:100200000120002100F0BDF917EB00094E41201E2E
:10021000A4F10104DFDC484631462A464346BDE8E6
:10022000F09FD2B201E000F8012B491EFBD27047CB
:100230000022F6E710B513460A4604461946FFF7B2
:10024000F0FF204610BD2DE9FE4F804681EA0300F5
:10025000C00F0C46009021F0004123F00045B8EBA0
:100260000200A94105D24046214690461C460B4655
:10027000024623F00040104347D0270DC7F30A0081
:10028000C3F30A510290401A019040286BDAC3F37D
:10029000130040F4801B0098924620B10023D2EB5B
:1002A000030A63EB0B0B01985946C0F1400250461C
:1002B00000F067F906460D4650465946019A00F08F
:1002C0007FF910EB08006141002487EA115284EAAB
:1002D000E7731A4340D0009A62B3019A012A4FEAA9
:1002E000075215DC001B61EB02014FF0004202EAED
:1002F0000752CDE90042001C41F5801132462B46E1
:1003000000F07FF903B0BDE8F08F40462146F9E7E1
:10031000001B61EB0201001C41F5801300185B41DA
:100320002018A2F5001747EB030140EAD570B61973
:100330006D4111E06D084FEA360645EAC0754FEA97
:100340000752001B61EB0201001C41F580114908B6
:100350004FEA30000019514132462B4603B0BDE848
:10036000F04F00F03FB90098012240000023D0EB8D
:10037000020263EBE073009821464FEAE074B8EBA9
:10038000000061EB0401E9E783F000435BE781F0E3
:10039000004158E72DE9FE4F81EA030404F00044D0
:1003A00021F0004100944FF0000B23F0004350EA8D
:1003B00001045ED052EA03045BD0C3F30A54C1F3D4
:1003C0000A552C44A4F2F3340194A0FB0254C1F367
:1003D000130141F48011C3F3130343F4801301FBB1
:1003E000024400FB034E840A970A44EA815447EA18
:1003F0008357A4FB076802958D0A05FB07854FEA22
:10040000932C04FB0C542705029D4FEA065847EA3B
:100410001637B5EB08056EEB070C870E920E47EA10
:10042000811742EA8312A7FB0201B6EB0B0164EBD2
:1004300000042B0D43EA0C335E1844EB1C50DA46E3
:100440005146E7FB0201C5F313044FEA0B3343EABD
:1004500014534FEA0432019C43EA0603A4F10C044E
:100460000294009CCDE900B400F0CBF803B0BDE8E5
:10047000F08F00200146F9E72DE9F04D81EA0304F1
:1004800004F0004B21F0004514464FF0000A23F021
:10049000004150EA050220D054EA01021DD0C5F304
:1004A0000A570246C5F31303C1F31300C1F30A56FA
:1004B00040F4801543F48013A7EB0608101BD646C2
:1004C00008F2FD3873EB050002D308F1010801E0E2
:1004D00092185B41B8F1000F03DA00200146BDE835
:1004E000F08D00204FF48011064684460EE0171B65
:1004F00073EB050705D3121B63EB050306434CEAB8
:10050000010C49084FEA300092185B4150EA01079C
:10051000EDD152EA030012D082EA040083EA050119
:10052000084305D0101BAB4106D20122002306E090
:1005300000224FF0004302E06FF0010253101AEB6B
:1005400006004CEB085110EB0A0041EB0B01BDE833
:10055000F04D00F047B830B50B4601460020202290
:10056000012409E021FA02F59D4205D303FA02F5C0
:10057000491B04FA02F52844151EA2F10102F1DC20
:1005800030BD202A04DB203A00FA02F10020704737
:100590009140C2F1200320FA03F3194390407047C1
:1005A000202A04DB203A21FA02F00021704721FAC8
:1005B00002F3D040C2F1200291400843194670472F
:1005C000202A06DBCB17203A41FA02F043EAE07317
:1005D00006E041FA02F3D040C2F120029140084304
:1005E0001946704710B5141E73F1000408DA401C58
:1005F00041F1000192185B411A4301D120F0010042
:1006000010BD2DE9F04D92469B4611B1B1FA81F231
:1006100002E0B0FA80F220329046FFF7B2FF0446C3
:100620000F4640EA0A0041EA0B0153465A46084386
:1006300013D0114653EA010019D0C8F140025046C8
:10064000FFF7AEFF05460E46504659464246FFF7B5
:1006500098FF084305D0012004E020463946BDE854
:10066000F08D0020054346EAE0762C4337430A9894
:100670006305E40AA0EB08000022FD0A44EA47549F
:100680000A3002D500200146E9E701051019694149
:10069000DDE9084500196941BDE8F04DA2E7C1F365
:1006A0000A52C1F3130140F2FF3341F480119A4220
:1006B00002DA00200146704740F233439A42A2F228
:1006C000334202DC5242FFF76BBFFFF75ABF000014
:1006D00030B5041E71F1000404DB4FF000444042C9
:1006E00064EB0101141E73F1000405DB1C464FF09E
:1006F0000043524263EB0403994208BF904230BD6D
:10070000064C074D06E0E06840F0010394E807005E
:1007100098471034AC42F6D3FFF73AFD709A0008C0
:10072000909A0008FFE7FEE780B582B00190009143
:100730000198009900F064F802B080BD80B582B0E5
:10074000019000910198009900F086F802B080BDF8
:1007500080B584B003468DF80F00029101929DF898
:100760000F000299019A009300F0B2F804B080BD26
:1007700080B582B0019000910198009900F0EAF8EC
:1007800002B080BD80B500F019F980BD80B500F0E1
:100790001BF980BD80B582B001900091019800994D
:1007A000FFF7C2FF02B080BD80B582B0019000911A
:1007B00001980099FFF7C2FF02B080BD80B584B0F8
:1007C00003468DF80F00029101929DF80F000299E7
:1007D000019A0093FFF7BCFF04B080BD80B582B0E2
:1007E0000190009101980099FFF7C2FF02B080BD0F
:1007F00080B5FFF7C7FF80BD80B5FFF7C7FF80BD9D
:1008000084B0039002910020ADF804000090FFE74F
:100810000098029988421BD2FFE79DF805000399D2
:10082000009A895C48408DF80700BDF804009DF8E7
:10083000071049F2CC52C0F6000232F8111081EADA
:100840000020ADF80400FFE7009801300090DFE7DA
:10085000BDF8040004B0704780B582B001900091EB
:100860000198009900F002F802B080BD80B586B012
:1008700005900491002003900290019000F020F870
:1008800001980390FFE703980499884210D2FFE78C
:1008900005980399405C0290029943F20000C4F26B
:1008A000020003F023FCFFE7039801300390EAE71E
:1008B00043F20000C4F2020003F020FC06B080BD49
:1008C00080B543F20000C4F2020003F01DFC80BDBD
:1008D00086B003468DF817000491039200208DF82E
:1008E0000A000190FFE70198039988422DD2FFE7A3
:1008F0009DF80A000499019A895C48408DF80B0024
:100900009DF8170001460728009104D0FFE70098E2
:1009100031280AD013E09DF80B0049F2CC71C0F6E3
:100920000001085C8DF80A000AE09DF80B0049F60A
:10093000CC01C0F60001085C8DF80A0000E0FFE77A
:10094000FFE7019801300190CDE79DF80A0006B05D
:100950007047000084B003900291002001908DF850
:1009600003000190FFE70198029988420DD2FFE74A
:1009700003980199405C9DF8031008448DF803002A
:10098000FFE7019801300190EDE79DF80300C0F505
:1009900080708DF803009DF8030004B070470000DC
:1009A00080B543F20000C4F2020003F083FB40F282
:1009B0000401C2F2000101220A7080BD40F204006D
:1009C000C2F200000078704780B5FFF7E9FF4FF4EE
:1009D000805003F0D9F940F20400C2F20000002177
:1009E000017080BD84B013468C4602908DF80710CC
:1009F000ADF804200020ADF80200FFE7BDF80200CA
:100A0000BDF80410884214DAFFE70298BDF802101E
:100A1000405C9DF80710884204D0FFE701208DF864
:100A20000F000AE0FFE7BDF802000130ADF8020058
:100A3000E4E700208DF80F00FFE79DF80F0004B0F9
:100A40007047000080B584B002468DF80F00029117
:100A50009DF80F000299019200F034F804B080BDB7
:100A600080B584B00A4603468DF80F008DF80E104D
:100A70009DF80F009DF80E100292019300F02AF9E4
:100A800004B080BD80B584B002468DF80F0002919D
:100A90009DF80F0002990192FFF7D4FF04B080BDCA
:100AA00080B584B00A4603468DF80F008DF80E100D
:100AB0009DF80F009DF80E1002920193FFF7D0FFF2
:100AC00004B080BD80B584B002468DF80F0002915D
:100AD0009DF80F0002994FF47A735943019200F088
:100AE00003F804B080BD000080B584B002468DF8E4
:100AF0000F00029100200190029845F6A121C0F25A
:100B00003201884206D3FFE745F6A020C0F232004A
:100B10000290FFE7029840084CF61771CAF29E2136
:100B2000A0FB0101090A01910199B1F5805F04D38D
:100B3000FFE740F6FF700190FFE79DF80F000328E4
:100B400013D1FFE7019A47F20040C4F200000121EF
:100B5000C0F21021009003F0E1FA019A1221C1F2D3
:100B60004351009803F0DAFA1BE09DF80F000228C9
:100B70000BD1FFE7019A47F20040C4F200000121C7
:100B8000C0F2102103F0CAFA0AE0019A47F20040CD
:100B9000C4F200000121C0F2102103F0BFFAFFE708
:100BA000FFE7002004B080BD80B58AB00A46034646
:100BB0008DF827008DF826100020089007900690E9
:100BC000059004903821049105909DF82600012895
:100BD00003D1FFE70020079002E002200790FFE723
:100BE0009DF82700022805D1FFE71220C1F24350EB
:100BF000089004E00120C0F210200890FFE7089957
:100C000047F20040C4F2000004AA039003F0AEFAD9
:100C10000899039A0290104603F098FA0899002068
:100C2000039A01901046019A03F078FA01980AB0ED
:100C300080BD000080B582B001468DF807009DF8A8
:100C40000700002805D0FFE74FF0005003F042F9FD
:100C500004E04FF0005003F001F9FFE7002002B07C
:100C600080BD000080B58AB001468DF827000020C5
:100C7000C4F2020001220291114600F0E3F80020C4
:100C80000890079006900590049003909DF8270027
:100C9000032803D1FFE7302003900BE09DF82700E5
:100CA000022803D1FFE72020039002E010200390E8
:100CB000FFE7FFE703200490022007900020C4F222
:100CC000020003A903F0ECFA0021019008460AB0E3
:100CD00080BD000080B586B00A4603468DF8170037
:100CE0008DF816109DF8170004920393FFF7BAFFD2
:100CF000012102900846FFF79DFF9DF81710032978
:100D00000DD1FFE79DF816100120FFF74DFF9DF86C
:100D10001610022201901046FFF746FF06E09DF8EC
:100D200017009DF81610FFF73FFFFFE7002006B001
:100D300080BD00007047000080B582B0019001982E
:100D400000F056F802B080BD80B582B001900198E5
:100D500000F01AF802B080BD80B582B00190019811
:100D600000280FD0FFE7FFE70198411E01910028FE
:100D700007D0FFE74FF47A7000F006F802F0E8FFC2
:100D8000F2E7FFE702B080BD80B584B0039003981E
:100D900000281AD0FFE7039844F6D351C1F262014C
:100DA000A0FB0102920902901046019100F020F888
:100DB00003980199A0FB01239B094FF47A7C03FB64
:100DC0001C00009205F0A8FCFFE704B080BD000005
:100DD00080B582B001900198FFF7AEFF02B080BDF0
:100DE00080B582B001900198FFF7AEFF02B080BDE0
:100DF00080B582B00190019800280ED0FFE705F081
:100E00006BFC002804D1FFE7019805F071FC03E0BA
:100E10000198FFF7A1FFFFE7FFE702B080BD0000E8
:100E200080B584B00A4603908DF80B1003989DF8A6
:100E30000B10019200F018F804B080BD80B500F0EE
:100E4000E3F880BD80B584B00A4603908DF80B109E
:100E500003989DF80B100192FFF7E2FF04B080BDEC
:100E600080B5FFF7EBFF80BD80B582B00A460190E8
:100E70008DF8031001980021C4F2020188420ED1BE
:100E8000FFE79DF80300002804D0FFE7012002F0EF
:100E90008DFF03E0012002F069FFFFE7B1E0019858
:100EA00040F20041C4F2020188420ED1FFE79DF8F2
:100EB0000300002804D0FFE7022002F077FF03E0E0
:100EC000022002F053FFFFE79BE0019840F600018B
:100ED000C4F2020188420ED1FFE79DF8030000280A
:100EE00004D0FFE7042002F061FF03E0042002F0D9
:100EF0003DFFFFE785E0019840F60041C4F20201A2
:100F000088420ED1FFE79DF80300002804D0FFE7D8
:100F1000082002F04BFF03E0082002F027FFFFE764
:100F20006FE0019841F20001C4F2020188420ED143
:100F3000FFE79DF80300002804D0FFE7102002F02F
:100F400035FF03E0102002F011FFFFE759E00198A0
:100F500041F20041C4F2020188420ED1FFE79DF840
:100F60000300002804D0FFE7202002F01FFF03E069
:100F7000202002F0FBFEFFE743E0019841F600016C
:100F8000C4F2020188420ED1FFE79DF80300002859
:100F900004D0FFE7402002F009FF03E0402002F008
:100FA000E5FEFFE72DE0019841F60041C4F20201A1
:100FB00088420ED1FFE79DF80300002804D0FFE728
:100FC000802002F0F3FE03E0802002F0CFFEFFE776
:100FD00017E0019842F20001C4F20201884210D1E8
:100FE000FFE79DF80300002805D0FFE74FF480706D
:100FF00002F0DCFE04E04FF4807002F0B7FEFFE781
:10100000FFE702B080BD000080B582B00020C4F2CE
:10101000020001210191FFF727FF40F20040C4F2D6
:1010200002000199FFF720FF40F60000C4F2020021
:101030000199FFF719FF40F60040C4F20200019940
:10104000FFF712FF41F20000C4F202000199FFF71E
:101050000BFF41F20040C4F202000199FFF704FFC8
:1010600041F60000C4F202000199FFF7FDFE41F6CF
:101070000040C4F202000199FFF7F6FE42F20000C0
:10108000C4F202000199FFF7EFFE4FF4804002F036
:10109000A7FF02B080BD000040F22C00C2F20000A9
:1010A000006842F68C61C2F200010A6810440860D0
:1010B0007047000080B504F013FC80BD80B500F0DF
:1010C00003F8FFE7FEE700001EF0040F0CBFEFF38C
:1010D0000880EFF3098000F001B8704781B00090FC
:1010E00040F2C400C2F200000021C161816141618F
:1010F0000161C1608160416001600099096801601F
:101100000099496841600099896881600099C968BF
:10111000C1600099096901610099496941610099BB
:10112000896981610099C969C16101BE01B07047D7
:1011300080B584B013468C4603908DF80B108DF863
:101140000A2000208DF8090003980078002807D1B4
:10115000FFE70398817901F0CFFA8DF80900FFE7E6
:101160009DF8090000281FD1FFE7039802F0E6F878
:1011700003999DF80B209DF80A300190084611460E
:101180001A4601F053F98DF809009DF8090000286E
:1011900018BF01204FEA40008DF8090003984FF076
:1011A000640102F0BDFA03E001208DF80900FFE7B9
:1011B0009DF8090004B080BDB0B586B0DDF828C048
:1011C0009E4614460D4605908DF813108DF812209A
:1011D0008DF811308DF810C000208DF80F000598A3
:1011E0000078002807D1FFE70598817901F084FA9B
:1011F0008DF80F00FFE79DF80F00002827D1FFE7CB
:10120000059802F09BF805999DF813209DF812307F
:101210009DF811C09DF810E06C46C4F800E0029003
:10122000084611461A46634601F066F98DF80F002C
:101230009DF80F00002818BF01204FEA40008DF8EC
:101240000F0005984FF0640102F06AFA03E00120F4
:101250008DF80F00FFE79DF80F0006B0B0BD00004D
:1012600080B584B00A4603908DF80B1003989DF862
:101270000B10019201F040FA04B080BD80B584B03B
:10128000039000208DF80B0003980078002807D108
:10129000FFE70398817901F02FFA8DF80B00FFE743
:1012A0009DF80B00002819D1FFE7039802F046F8DB
:1012B00003990190084601F0AFFA8DF80B009DF8F4
:1012C0000B00002818BF01204FEA40008DF80B00EA
:1012D00003984FF0640102F023FA03E001208DF837
:1012E0000B00FFE79DF80B0004B080BD80B582B015
:1012F0000190019801F0CCFA02B080BD80B584B0B5
:10130000039002910192009303980299019A009B25
:1013100001F08EFB04B080BD80B584B0134603900D
:1013200002918DF8072000208DF8060003980078C0
:10133000002807D1FFE70398817901F0DDF98DF8E6
:101340000600FFE79DF8060000281ED1FFE703987E
:1013500001F0F4FF0399029A9DF8073000900846C7
:1013600011461A4601F048FC8DF806009DF806006B
:10137000002818BF01204FEA40008DF806000398AE
:101380004FF0640102F0CCF903E001208DF8060073
:10139000FFE79DF8060004B080BD000010B586B0E0
:1013A000DDF820C09E461446059004918DF80F206C
:1013B0008DF80E30ADF80CC000208DF80B000598AC
:1013C0000078002807D1FFE70598817901F094F9AA
:1013D0008DF80B00FFE79DF80B00002826D1FFE7F2
:1013E000059801F0ABFF0599049A9DF80F309DF820
:1013F0000EC0BDF80CE06C46C4F800E00190084651
:1014000011461A46634601F03FFC8DF80B009DF82B
:101410000B00002818BF01204FEA40008DF80B0098
:1014200005984FF0640102F07BF903E001208DF88C
:101430000B00FFE79DF80B0006B010BDB0B588B0FB
:10144000DDF834C0DDF830E01C4615460790069103
:101450008DF817208DF816308DF815E0ADF812C014
:1014600000208DF8110007980078002807D1FFE7C9
:101470000798817901F040F98DF81100FFE79DF898
:101480001100002829D1FFE7079801F057FF0799BD
:10149000069A9DF817309DF816C09DF815E0BDF826
:1014A00012406D466C60C5F800E003900846114696
:1014B0001A46634601F064FC8DF811009DF8110096
:1014C000002818BF01204FEA40008DF8110007984E
:1014D0004FF0640102F024F903E001208DF81100BF
:1014E000FFE79DF8110008B0B0BD000080B584B0E2
:1014F0001346039002918DF8072000208DF8060016
:1015000003980078002807D1FFE70398817901F05C
:10151000F3F88DF80600FFE79DF8060000281ED1BD
:10152000FFE7039801F00AFF0399029A9DF807303C
:101530000090084611461A4601F012FD8DF806008B
:101540009DF80600002818BF01204FEA40008DF8E2
:10155000060003984FF0640102F0E2F803E0012076
:101560008DF80600FFE79DF8060004B080BD00007E
:1015700080B584B00390029100208DF80700039895
:101580000078002807D1FFE70398817901F0B4F8CB
:101590008DF80700FFE79DF8070000281BD1FFE743
:1015A000039801F0CBFE0399029A00900846114679
:1015B00001F058FD8DF807009DF80700002818BFBE
:1015C00001204FEA40008DF8070003984FF06401B6
:1015D00002F0A6F803E001208DF80700FFE79DF870
:1015E000070004B080BD000080B584B00390029174
:1015F00000208DF8070003980078002807D1FFE746
:101600000398817901F078F88DF80700FFE79DF8DD
:10161000070000281BD1FFE7039801F08FFE039914
:10162000029A00900846114601F05EFD8DF8070011
:101630009DF80700002818BF01204FEA40008DF8F0
:10164000070003984FF0640102F06AF803E00120FC
:101650008DF80700FFE79DF8070004B080BD00008B
:1016600080B586B09C469646059004918DF80F2073
:10167000ADF80C3000208DF80B000598007800289C
:1016800007D1FFE70598817901F036F88DF80B0056
:10169000FFE79DF80B00002821D1FFE7059801F036
:1016A0004DFE0599049A9DF80F30BDF80CC00190CD
:1016B000084611461A46634601F036FD8DF80B00C8
:1016C0009DF80B00002818BF01204FEA40008DF85C
:1016D0000B0005984FF0640102F022F803E00120AE
:1016E0008DF80B00FFE79DF80B0006B080BD0000F1
:1016F00080B584B00A4603908DF80B1003989DF8CE
:101700000B10019202F020F804B080BDB0B586B095
:10171000DDF82CC0DDF828E01C4615460590049144
:101720008DF80F208DF80E308DF80DE0ADF80AC061
:1017300000208DF80900019005980078002807D155
:10174000FFE70598817900F0D7FF8DF80900FFE7E2
:101750009DF80900002851D1FFE7059801F0EEFD42
:101760009DF80F10019101999DF80E2042EA012188
:1017700001919DF80D10019A11440191BDF80A10D4
:10178000019A114401910599049A0B7BBDF80AC096
:101790000090084611461A46634602F059F88DF843
:1017A00009009DF80900002818BF01208DF80900E4
:1017B0009DF8090000281CD1FFE705988189008960
:1017C000814216D1FFE701984008019005980199E0
:1017D00002F0D2F88DF809000598002181819DF86A
:1017E0000900002818BF01204FEA40008DF80900C9
:1017F000FFE70598642101F093FF03E001208DF8D5
:101800000900FFE79DF8090006B0B0BD80B584B0BF
:101810001346039002918DF8072000208DF80600F2
:1018200003980078002807D1FFE70398817900F03A
:1018300063FF8DF80600FFE79DF8060000281ED123
:10184000FFE7039801F07AFD0399029A9DF80730AB
:101850000090084611461A4602F072F98DF806000B
:101860009DF80600002818BF01204FEA40008DF8BF
:10187000060003984FF0640101F052FF03E00120DD
:101880008DF80600FFE79DF8060004B080BD00005B
:1018900080B584B00A4603908DF80B1000208DF8B7
:1018A0000A0003980078002807D1FFE703988179A0
:1018B00000F022FF8DF80A00FFE79DF80A000028DB
:1018C0001CD1FFE7039801F039FD03999DF80B2027
:1018D00001900846114602F0F5F98DF80A009DF8CE
:1018E0000A00002818BF01204FEA40008DF80A00C6
:1018F00003984FF0640101F013FF03E001208DF81D
:101900000A00FFE79DF80A0004B080BD80B584B0EE
:1019100013468C4603908DF80B108DF80A2003981F
:101920009DF80B109DF80A200193CDF800C0FFF739
:10193000FFFB04B080BD000070B586B0DDF828C0A4
:101940009E4614460D4605908DF813108DF8122012
:101950008DF811308DF810C005989DF813109DF882
:1019600012209DF811309DF810C06E46C6F800C0D8
:10197000CDF80CE002940195FFF71EFC06B070BD97
:1019800080B584B00A4603908DF80B1003989DF83B
:101990000B100192FFF764FC04B080BD80B582B0EB
:1019A00001900198FFF76AFC02B080BD80B582B05B
:1019B00001900198FFF79AFC02B080BD80B584B019
:1019C000039002910192009303980299019A009B5F
:1019D000FFF794FC04B080BD80B584B0134603903B
:1019E00002918DF80720039802999DF80720009333
:1019F000FFF792FC04B080BDB0B586B0DDF828C01A
:101A00009E461446059004918DF80F208DF80E30F7
:101A1000ADF80CC0059804999DF80F209DF80E3084
:101A2000BDF80CC06D46C5F800C0CDF808E00194C3
:101A3000FFF7B4FC06B0B0BD70B588B0DDF834C0B7
:101A4000DDF830E01C461546079006918DF817200A
:101A50008DF816308DF815E0ADF812C0079806998C
:101A60009DF817209DF816309DF815C0BDF812E0BE
:101A70006E46C6F804E0C6F800C003940295FFF76E
:101A8000DDFC08B070BD000080B584B01346039043
:101A900002918DF80720039802999DF80720009382
:101AA000FFF724FD04B080BD80B582B001900091A5
:101AB00001980099FFF75CFD02B080BD80B582B04F
:101AC0000190009101980099FFF78EFD02B080BD52
:101AD00080B586B09C469646059004918DF80F20FF
:101AE000ADF80C30059804999DF80F20BDF80C3026
:101AF000CDF808C0CDF804E0FFF7B2FD06B080BD18
:101B000080B584B00A4603908DF80B1003989DF8B9
:101B10000B100192FFF7ECFD04B080BD80B588B0DA
:101B20001346079006918DF8172000208DF81600B7
:101B30000699049008460499039305F08FFB9DF8DD
:101B40001710002918BF0121069A117306998A6E91
:101B50004B7A097B1944515CA1F110010A460C290A
:101B6000029264D80299DFE801F0070E151C232ABF
:101B700031383F464D545B000798069900F0D0F885
:101B80008DF8160057E00798069900F05FF88DF879
:101B9000160050E00798069900F0C8F98DF8160075
:101BA00049E00798069900F025FB8DF8160042E001
:101BB0000798069900F064F98DF816003BE0079845
:101BC000069900F0DDFA8DF8160034E007980699C2
:101BD00000F006FA8DF816002DE00798069900F03F
:101BE00063FB8DF8160026E00798069900F070FB5D
:101BF0008DF816001FE00798069900F037FA8DF867
:101C0000160018E00798069900F016F98DF81600EE
:101C100011E00798069900F041FA8DF816000AE0E5
:101C20000798069900F084FA8DF8160003E0012069
:101C30008DF81600FFE706989DF8161005F02AFBB0
:101C40009DF816100190084608B080BD80B586B09A
:101C50000590049100208DF80F000498816E827A1F
:101C6000007B1044085C002806D1FFE70598FFF7C9
:101C700095FE8DF80F003FE00498816E827A007B1C
:101C80001044085C012817D1FFE7059804998A6E73
:101C90008B7A097B194411444A788B7891F803C0F8
:101CA0000979EE46CEF8001011461A466346FFF752
:101CB00043FE8DF80F001EE00498816E827A007B4F
:101CC0001044085C022811D1FFE7059804998A6E38
:101CD0008B7A097B194411444A788978029111461C
:101CE000029AFFF713FE8DF80F0003E0FF208DF836
:101CF0000F00FFE7FFE7FFE70498816E827A007B21
:101D00001044085C002806D0FFE704989DF80F10E7
:101D100005F0A4FAFFE79DF80F0006B080BD0000B3
:101D200080B584B00390029100208DF807000298DE
:101D3000816E827A007B1044085C01280CD1FFE799
:101D4000039802998A6ECB7A097B1944515CFFF79C
:101D500017FE8DF8070005E00398FFF727FE8DF8C2
:101D60000700FFE79DF8070004B080BD80B586B08E
:101D70001346049003918DF80B200398002852D04D
:101D8000FFE7049800284ED0FFE7039805F09EFA7D
:101D9000012842D1FFE7039805F050FA00282CD122
:101DA000FFE7039805F052FA002826D1FFE70398D1
:101DB0009DF80B1005F060FA0499039A9DF80B301A
:101DC0000190084611461A46FFF7A8FE039991F8BC
:101DD000281001290CD1FFE703980D2105F03EFAE8
:101DE00003990A2200900846114605F037FAFFE7EA
:101DF0000398002105F05CFA09E0039801794A1E76
:101E000049F6E611C0F6000106F090FBFFE70398E3
:101E100005F0BEFA8DF8170009E0039805F0C0FA46
:101E20008DF8170003E002208DF81700FFE79DF8FA
:101E3000170006B080BD000080B584B00390029109
:101E400000208DF80700039802994A6C498D1144CF
:101E5000029A936E92F80AC0127B62449A5CFFF772
:101E6000BBFD8DF807000298816E827A037B1A44CD
:101E7000895C428D114441859DF8070004B080BD06
:101E800080B584B00390029100208DF80700ADF872
:101E900004000298B0F85600FE280ADCFFE702981A
:101EA000816EC27A007B104408444078ADF804008B
:101EB00016E00298816EC27A007B10440844407894
:101EC000ADF80400BDF8040002998A6ECB7A097B54
:101ED00019441144897841EA0020ADF80400FFE775
:101EE000039802994A6C498D1144029A936E92F8B4
:101EF0000AC092F80BE0127B944413F80CC07244B1
:101F00009B5CBDF80420EE46CEF800206246FFF749
:101F100073FD8DF80700BDF8040002994A8D104446
:101F200048859DF8070004B080BD000010B586B05C
:101F30000590049100208DF80F00ADF80C00049876
:101F4000B0F85600FE280ADCFFE70498816EC27ADA
:101F5000007B104408448078ADF80C0016E004982B
:101F6000816EC27A007B104408448078ADF80C0082
:101F7000BDF80C0004998A6ECB7A097B1944114490
:101F8000C97841EA0020ADF80C00FFE705980499F4
:101F90004A6C498D1144049A936E92F80AC092F8E3
:101FA0000BE0127B944413F80CC0724403EB020E56
:101FB0009B5C9EF80120BDF80CE06C46C4F804E080
:101FC00022606246FFF738FD8DF80F00BDF80C0067
:101FD00004994A8D104448859DF80F0006B010BD45
:101FE00080B584B00390029100208DF8070002981C
:101FF000816E827A007B1044085C002823D1FFE7C1
:10200000039802994A6C498D1144029A936E92F892
:102010000BC0127B62449A5CFFF736FD8DF8070017
:102020000298816EC27A007B1044085C002805D0BB
:10203000FFE70298418D01314185FFE70298418D0C
:10204000023141850DE0039802994A6C498D114493
:10205000FFF734FD8DF807000298418D013141856D
:10206000FFE79DF8070004B080BD000080B584B094
:102070000390029100208DF80700039802994A6CA2
:10208000498D1144FFF710FD8DF807000298418D2E
:10209000033141859DF8070004B080BD80B584B050
:1020A0000390029100208DF80700ADF8040002981B
:1020B000B0F85600FE2809DCFFE70298816EC27A6C
:1020C000007B1044085CADF8040015E00298816EB6
:1020D000C27A007B1044085CADF80400BDF804002F
:1020E00002998A6ECB7A097B19441144497841EAF6
:1020F0000020ADF80400FFE7039802994A6C498D6F
:102100001144029A936E92F80AC0127B62449A5C60
:10211000BDF80430FFF7DCFC8DF80700BDF80400C3
:1021200002994A8D104448859DF8070004B080BD8F
:1021300080B584B003900291039802998A6E8B7ADD
:10214000097B1944515CFFF7DBFC00210190084634
:1021500004B080BD80B584B00390029100208DF85A
:1021600007000399029A009008461146009AFFF76B
:10217000FDFD8DF807009DF8070004B080BD00004C
:1021800080B586B0059004910020ADF80E0004984B
:10219000816EC27A007B104408444078ADF80E008E
:1021A000BDF80E0004998A6ECB7A097B194411445C
:1021B000897841EA0020ADF80E00059804998A6EEE
:1021C0008B7A91F80BC0097B02EB0C0E8E440EF15A
:1021D000030E0B44D35C6144515CBDF80E20EC4609
:1021E000CCF80020029171461A46029B01F038FC9F
:1021F00006B080BD10B586B00590049100208DF822
:102200000F00ADF80C000498B0F85600FE280DDC65
:10221000FFE70498816EC27A007B104408448078FE
:10222000ADF80C0003208DF80F0019E00498816EC2
:10223000C27A007B104408448078ADF80C00BDF8E9
:102240000C0004998A6ECB7A097B19441144C97831
:1022500041EA0020ADF80C0004208DF80F00FFE7E4
:10226000059804998A6E8B7A91F80BC0097B02EB72
:102270000C0E8E449DF80F40A6440B44D35C614481
:1022800002EB010C515C9CF80120BDF80CC06C46BF
:10229000C4F804C02260029171461A46029B00F005
:1022A00027F806B010BD000080B582B00190009103
:1022B000019800998A6E8B7A91F80BC0097B94443F
:1022C0008C441944525C614600F03AF802B080BD7B
:1022D00080B582B001900091019800998A6ECB7A06
:1022E000097B1944515C00F03BF802B080BD00004E
:1022F00070B588B0DDF834C0DDF830E01C46154616
:10230000079006918DF817208DF816308DF815E09E
:10231000ADF812C0079806999DF817209DF8163061
:102320009DF815C0BDF812E06E46C6F804E0C6F888
:1023300000C003940295FFF7E9F908B070BD0000F2
:1023400080B584B01346039002918DF8072003985E
:1023500002999DF807200093FFF758FA04B080BD5A
:1023600080B584B00A4603908DF80B1003989DF851
:102370000B100192FFF78CFA04B080BD80B582B0DB
:10238000019000208DF803000198002806D0FFE797
:10239000019800F0D3FF8DF803002CE0019840F283
:1023A0001C01C2F200010968884207D1FFE742F22E
:1023B0000140C0F6000004F093F91BE001980028EA
:1023C00007D1FFE742F21540C0F6000004F088F99B
:1023D0000FE00198002807D1FFE742F22140C0F644
:1023E000000004F07DF903E001208DF80300FFE711
:1023F000FFE7FFE7FFE79DF8030002B080BD0000A4
:1024000080B540F21C00C2F20000006801F0F8FA4A
:1024100080BD000080B5002001F0F2FA80BD000010
:1024200080B5002001F0ECFA80BD000080B586B0D8
:1024300013468C4605908DF813108DF8122000205D
:102440008DF811008DF81000ADF80E009DF8130006
:102450000193CDF800C002F0E7FE02900298002838
:1024600004D1FFE701208DF811003DE000208DF838
:102470001000FFE79DF810009DF81210884232DA34
:10248000FFE705980299BDF80E209DF8133000F083
:1024900057FC8DF811009DF81100002804D0FFE7CB
:1024A00002208DF811001FE002989DF81320FF21F3
:1024B000FEF798FA8DF811009DF81100002804D05D
:1024C000FFE703208DF811000EE09DF81300BDF822
:1024D0000E100844ADF80E00FFE79DF81000013023
:1024E0008DF81000C6E7FFE7029802F087FE9DF81E
:1024F000110006B080BD0000B0B58AB0DDF838C06C
:102500009E4614460D4609908DF823108DF8222022
:102510008DF821308DF820C000208DF81F00ADF817
:102520001C00ADF81A00ADF8180005909DF82300C6
:10253000ADF81C00BDF81C009DF8221041EA0020F7
:10254000ADF81C009DF82100ADF81A00BDF81A0086
:102550009DF8201041EA0020ADF81A00BDF81C00DB
:10256000CDF80CE00294019502F05EFE0490049810
:10257000002804D1FFE701208DF81F003BE0002078
:10258000ADF81800FFE7BDF81800BDF81A10884232
:1025900030DAFFE709980499059ABDF81C3000F07D
:1025A000BFFC8DF81F009DF81F00002804D0FFE736
:1025B00002208DF81F001EE00498BDF81C20FF21AA
:1025C000FEF710FA8DF81F009DF81F00002804D0B8
:1025D000FFE703208DF81F000DE0BDF81C000599F2
:1025E00001EB50000590FFE7BDF818000130ADF891
:1025F0001800C8E7FFE7049802F000FE9DF81F00EE
:102600000AB0B0BD80B584B0039003982830012192
:1026100003F09EFA039900224A700399CB69096A74
:1026200002901846019201F02BFF019804B080BD82
:1026300081B00090009800210170009841700098CE
:102640000F22827000980171009841710098817189
:10265000009801810098818100984FF4FA72C2823B
:102660000098C0F80E100098C0F81210009840F6BC
:102670000042C4F20202C26100984FF4804202623A
:10268000009840F20043C4F20203036400984FF440
:10269000805CC0F844C00098836300984FF4005CED
:1026A000C0F83CC0009803630098426300988362BE
:1026B00000984FF40042C26200980522826600989A
:1026C00043F60002C4F2000282640098C1660098DA
:1026D00080F84E10009880F84F10084601B07047FF
:1026E00081B00090002001B07047000081B00090E0
:1026F000002001B07047000080B58EB00A460C90F3
:102700008DF82F1012208DF82E000C9881780A92E7
:1027100000F0DEFE0C990990084600F015FAFFE77C
:102720009DF82E00411E8DF82E10002863D0FFE783
:1027300040F23000C2F2000000680C996A460023A3
:102740001360AC224FF0530C0890084611466246C5
:10275000DDF820C0E0470C99097D53290ED1FFE731
:102760000C98012101709DF82F000C9988710C982C
:10277000FFF704FE00218DF8371048E00C98C07870
:1027800000280FD1FFE70C988078042805DBFFE7CD
:102790000C9881780139817003E00C9803218170D5
:1027A000FFE705E09DF82E0001388DF82E00FFE7C9
:1027B0000C98817800F08CFE0C990A6C496C07909B
:1027C000104601F05DFE0C98406A01210690084613
:1027D000069A059190470C98016C406C049008464D
:1027E000049901F0EDFD0C98406A059903900846A4
:1027F000039A904794E70C98C169006A02900846D2
:10280000029901F03DFE01208DF83700FFE79DF8A9
:1028100037000EB080BD000080B586B00590002066
:102820008DF8130040F23001C2F200010968059AE8
:102830006B461860AC234FF0800C03901046029159
:1028400019466246039BDDF808C0E0478DF8130087
:102850009DF81300002817D1FFE70598807900281C
:102860000BD0FFE7059800F0EFFC8DF813009DF802
:10287000130080308DF8130005E00598416A007957
:102880000A308847FFE7FFE79DF8130006B080BDD8
:1028900080B584B003900398FFF7B4FE0399C9781C
:1028A000002904D1FFE703980F218170FFE7039807
:1028B000FF214171039800210170039881710398F1
:1028C000029100F04BFD02990190084604B080BDD2
:1028D0002DE9F04798B0179017982830012103F0A0
:1028E00037F9179928310C90084603F03FF90DA9E4
:1028F00028220B9008461146FDF79AFC00200D9007
:102900004FF482710E910F90179890F84E000028A6
:102910000BD1FFE7002010901798816BC06B0A90D5
:1029200008460A9901F04CFD02E002201090FFE7F2
:10293000179890F84E00002803D1FFE7002011906F
:1029400002E001201190FFE74FF400701290382050
:102950001390002014901590072116911799283193
:102960000D9A0E9BDDF83CC0DDF840E0119C129DF5
:10297000139E149FDDF85480DDF85890EA46CAF89B
:102980001890CAF81480CAF81070CAF80C60CAF817
:102990000850CAF80440CAF800E0099008461146F9
:1029A0001A46634603F0EAF8179901224A7009991A
:1029B0000890084618B0BDE8F0870000B0B586B0B2
:1029C000DDF828C09E4614460D4605908DF813107C
:1029D0008DF812208DF811308DF810C00598002167
:1029E000C0F80E100598C0F812109DF81300059954
:1029F00088739DF812000599C8739DF81100059918
:102A000008749DF8100005994874059800F1280194
:102A100000F10E0212300423039008461146039A77
:102A2000CDF808E00194009503F0ECF806B0B0BDD5
:102A300080B58EB00C900B910A9209930C980028E7
:102A40000DD0FFE70C9840F21C01C2F200010968AA
:102A5000884204D1FFE70C98FFF7EAFD1DE00C98CF
:102A6000002808D0FFE70C98002804D1FFE70C9855
:102A7000FFF736FE10E00C98002808D0FFE70C980E
:102A8000002804D1FFE70C98FFF730FE03E0012097
:102A90008DF8370053E0FFE7FFE70A98002804D0DD
:102AA000FFE70A980C99486206E00C9840F6D1516D
:102AB000C0F600014162FFE70B98002804D0FFE751
:102AC0000B980C99086706E00C9840F6E151C0F6A7
:102AD00000010167FFE709980C9948670C98C069E5
:102AE000002823D0FFE70C98C06901210291FEF76E
:102AF000A9F9002008900790069005900490039093
:102B00000299049105910690079108900C98006A2B
:102B100003900C98C06903A901F0C2FB0C99CA6923
:102B2000096A0190104601F0ABFCFFE70C98406F7A
:102B300080470C99886100208DF83700FFE79DF8E9
:102B400037000EB080BD000080B58CB00B900B98A4
:102B5000016C406C01220A9008460A99099201F022
:102B6000C7FC0B98816BC06B08900846089901F070
:102B700027FC0B98016C406C07900846079901F000
:102B80001FFC0B98816BC06B06900846069901F0FC
:102B900017FC0B98016C406C05900846059901F0F4
:102BA0000FFC0B98406A099904900846049A9047D4
:102BB0000B98016C406C03900846039901F060FC8F
:102BC0000B98406A099902900846029A90470B9820
:102BD000016C406C01900846019901F0F1FB0B98E3
:102BE000406A099900900846009A90470B98FF2187
:102BF000417100200CB080BD80B586B013460590B1
:102C000004918DF80F2000208DF80E008DF80D0036
:102C1000FFE79DF80D009DF80F1088422FDAFFE7BF
:102C200040F23000C2F20000006805999DF80D30B6
:102C30006A464FF0000CC2F800C0382202900846E5
:102C400011466246DDF808C0E0478DF80E009DF899
:102C50000E00002806D0FFE79DF80D0002308DF829
:102C60000E000CE00598407D04999DF80D208854D5
:102C7000FFE79DF80D0001308DF80D00C9E79DF8C4
:102C80000E0006B080BD000010B586B0DDF820C093
:102C90009E461446059004918DF80F208DF80E3055
:102CA000ADF80CC000208DF80B00ADF80800FFE770
:102CB000BDF80800BDF80C1088423CDAFFE740F28E
:102CC0003000C2F20000006805999DF80F209DF8C1
:102CD0000E30EC464FF0000ECCF800E04FF0A00CA8
:102CE000019008466146DDF804C0E0478DF80B000E
:102CF0009DF80B00002801D0FFE71CE00598407DFF
:102D000004994A1C049208709DF80E0001308DF859
:102D10000E009DF80E00002806D1FFE79DF80F0079
:102D200001308DF80F00FFE7FFE7BDF80800013024
:102D3000ADF80800BCE79DF80B0006B010BD000020
:102D4000B0B588B09C46964607900691ADF816201F
:102D5000ADF8143007980699BDF81620130AD2B2C0
:102D6000BDF814406D462C6004921A46049BCDF8C1
:102D70000CC0CDF808E0FFF787FF08B0B0BD000039
:102D8000B0B58AB0DDF83CC0DDF838E01C46154629
:102D9000089007918DF81B208DF81A308DF819E0F6
:102DA000ADF816C000208DF81500ADF81200BDF882
:102DB0001600C007002804D0FFE702208DF8270086
:102DC000A9E0BDF816004008ADF8160008989DF877
:102DD0001B1000F0E5FD8DF815009DF8150000288A
:102DE00004D0FFE703208DF8270094E00020ADF821
:102DF0001200FFE7BDF81200BDF81610884280F2FD
:102E00008580FFE740F23000C2F2000000680899B8
:102E10009DF81A209DF81930EC464FF0000ECCF8C2
:102E200000E04FF0200C039008466146DDF80CC02E
:102E3000E0478DF815009DF81500002804D0FFE745
:102E400004208DF8270066E00898407D07994A1C09
:102E500007920870FFE740F23000C2F200000068FD
:102E600008999DF81A209DF81930EC464FF0000E95
:102E7000CCF800E04FF0280C029008466146DDF8DF
:102E800008C0E0478DF815009DF81500002804D013
:102E9000FFE705208DF827003DE00898407D079961
:102EA0004A1C07920870FFE79DF8190001308DF861
:102EB00019009DF81900002821D1FFE79DF81A009C
:102EC00001308DF81A009DF81A00002816D1FFE78E
:102ED0009DF81B0001308DF81B0008989DF81B1011
:102EE00000F05EFD8DF815009DF81500002804D057
:102EF000FFE706208DF827000DE0FFE7FFE7FFE77B
:102F0000BDF812000130ADF8120073E79DF815000E
:102F10008DF82700FFE79DF827000AB0B0BD00003C
:102F200080B588B09C46079006910592ADF81230A6
:102F300007980699059ABDF81230EE46CEF804308F
:102F4000D3B2CEF80030C2F30743C2F30722039294
:102F50001A46039BCDF808C0FFF712FF08B080BDEA
:102F600080B58AB01346089007918DF81B20002089
:102F70008DF81A0040F23001C2F200010968089A87
:102F8000EC46CCF800004FF0500C05901046049130
:102F90006146059ADDF814C003936346DDF810E03E
:102FA000F0478DF81A009DF81A00002804D0FFE7BA
:102FB00002208DF8270051E00898407D07994A1CAF
:102FC0000792087040F23000C2F2000000680899D1
:102FD0006A460023136058224FF0080C02900846FE
:102FE00011466246DDF808C0E0478DF81A009DF8EA
:102FF0001A00002804D0FFE703208DF827002DE0F9
:103000000898407D07994A1C079208709DF81B009C
:1030100000281AD0FFE740F23000C2F2000000683A
:1030200008996A460023136050224FF0080C019063
:10303000084611466246DDF804C0E0478DF81A00E4
:103040000898407D0799087003E00798FF210170F8
:10305000FFE79DF81A008DF82700FFE79DF827008D
:103060000AB080BD80B586B00590049100208DF82F
:103070000F008DF80E00FFE79DF80E0002282FDCF0
:10308000FFE740F23000C2F20000006805999DF8A9
:103090000E306A464FF0000CC2F800C03022029099
:1030A000084611466246DDF808C0E0478DF80F007B
:1030B0009DF80F00002806D0FFE79DF80E000230B3
:1030C0008DF80F000CE00598407D04999DF80E20C6
:1030D0008854FFE79DF80E0001308DF80E00CBE715
:1030E0009DF80F0006B080BD80B586B005900491B4
:1030F00040F23000C2F20000006805996A460023E1
:10310000136058220290084611461A46DDF808C09E
:10311000E0478DF80F000598407D049908709DF8F0
:103120000F0006B080BD000080B588B09C46964672
:10313000069005918DF81320ADF8103000208DF821
:103140000F008DF80E00BDF81000C007002804D055
:10315000FFE702208DF81F0071E0BDF81000400865
:10316000ADF8100000208DF80E00FFE79DF80E006E
:10317000BDF8101088425DDAFFE740F23000C2F27D
:103180000000006806999DF813209DF80E301A443F
:103190006B464FF0000CC3F800C0D3B2302202904F
:1031A000084611466246DDF808C0E0478DF80F007A
:1031B0009DF80F00002804D0FFE703208DF81F00C2
:1031C0003DE00698407D05994A1C05920870FFE78E
:1031D00040F23000C2F20000006806999DF813200A
:1031E0009DF80E301A446B464FF0000CC3F800C037
:1031F000D3B238220190084611466246DDF804C079
:10320000E0478DF80F009DF80F00002804D0FFE77D
:1032100004208DF81F0012E00698407D05994A1C95
:1032200005920870FFE7FFE79DF80E0001308DF86A
:103230000E009BE79DF80F008DF81F00FFE79DF83B
:103240001F0008B080BD000080B588B00790002046
:103250008DF81B0005900490039002900798406F32
:10326000002805D0FFE70798406F80470490FFE7EC
:10327000FFE740F23000C2F20000006807996A469A
:1032800000231360F0220190084611461A46DDF82B
:1032900004C0E0478DF81B009DF81B00002801D0FA
:1032A000FFE747E00798407DC007002804D1FFE70B
:1032B00000208DF81B003DE00798406F002824D0C7
:1032C000FFE70798406F804705900598049988426A
:1032D00008D2FFE704980599C043084400210391F0
:1032E000029006E005980499401A0021039102908B
:1032F000FFE702980399653871F1000104D3FFE7F5
:1033000002208DF81B0015E00FE0059801300590B4
:10331000059848F2A161C0F20101884204D3FFE799
:1033200003208DF81B0005E0FFE7FFE7FFE700F053
:103330000FFD9EE79DF81B0008B080BD80B582B0F0
:10334000019001984FF4FA71C1820198406F804753
:1033500001998861002002B080BD000080B582B074
:1033600000900098002810D0FFE7009840F21C0160
:10337000C2F200010968884207D1FFE742F201402A
:10338000C0F6000003F0DEFA23E0009800280BD01E
:10339000FFE70098002807D1FFE742F21540C0F68A
:1033A000000003F0CFFA13E0009800280BD0FFE7ED
:1033B0000098002807D1FFE742F22140C0F6000044
:1033C00003F0C0FA03E001208DF8070005E0FFE7F5
:1033D000FFE700208DF80700FFE79DF8070002B027
:1033E00080BD000080B586B0059005982830012189
:1033F00002F0AEFB059928310490084602F020FC4B
:10340000059991F84E10002909D1FFE70598816BC5
:10341000C06B03900846039900F0D2FF08E00598BE
:10342000816BC06B02900846029901F029F8FFE712
:103430000598816AC06A01900846019900F0C0FFB2
:103440000598016B406B00900846009900F0B8FFAA
:10345000059801214170002006B080BDB0B586B04E
:10346000DDF828C09E4614460D4605908DF81310D1
:103470008DF812208DF811308DF810C005980021BC
:10348000C0F80E100598C0F812109DF813000599A9
:1034900088739DF812000599C8739DF8110005996D
:1034A00008749DF8100005994874059800F12801EA
:1034B00000F10E0212300423039008461146039ACD
:1034C000CDF808E00194009502F0CCFB06B0B0BD49
:1034D00080B586B00A4605908DF813109DF813004C
:1034E000013801461128039100F2A7800399DFE813
:1034F00001F009131D262F38414A535C646C747C1B
:10350000848C949C0598002180F84D1005984FF408
:103510007A71A0F8621098E00598002180F84D10AB
:1035200005984FF4FA71A0F862108EE0059800211A
:1035300080F84D100598FA21A0F8621085E00598F2
:10354000002180F84D1005987C21A0F862107CE0E5
:103550000598002180F84D1005983C21A0F86210D4
:1035600073E00598002180F84D1005981C21A0F803
:1035700062106AE00598002180F84D1005980C2132
:10358000A0F8621061E00598002180F84D100598C0
:103590000421A0F8621058E00598002180F84D1031
:1035A00005980321A0F862104FE00598002180F8EB
:1035B0004D100598A0F8621047E00598012180F8A9
:1035C0004D100598382141663FE00598012180F8AB
:1035D0004D1005983021416637E00598012180F8AB
:1035E0004D100598282141662FE00598012180F8AB
:1035F0004D1005982021416627E00598012180F8AB
:103600004D100598182141661FE00598012180F8AA
:103610004D1005981021416617E00598012180F8AA
:103620004D100598082141660FE00598012180F8AA
:103630004D1005980021416607E00598012180F8AA
:103640004D10059838214166FFE7059890F84D0028
:10365000012831D1FFE70598407800280CD0FFE71A
:1036600040F23000C2F20000006843F25D41C0F653
:103670000001884204D1FFE70598FFF729F9FFE729
:10368000059880780F2804DBFFE705982021416624
:10369000FFE7059800F12801406E02900846029964
:1036A00002F0C4FA40F23001C2F2000142F6BD124B
:1036B000C0F600020A6028E00598407800280CD087
:1036C000FFE740F23000C2F20000006842F6BD1190
:1036D000C0F60001884204D1FFE70598FFF782FE9B
:1036E000FFE7059800F12801B0F862000190084654
:1036F000019902F0ADFA40F23001C2F2000143F24A
:103700005D42C0F600020A60FFE70598C169006AE1
:1037100000900846009900F053FE002006B080BDDE
:1037200080B584B00A460390ADF80A10BDF80A00CF
:103730000399C8820398406F01928047039988617A
:10374000002004B080BD000082B00A4601908DF8D0
:1037500003109DF80300002804D1FFE70198002121
:10376000C17019E09DF80300122805DBFFE79DF802
:103770000300122808D1FFE701980121C1709DF8CC
:1037800003000199887006E001980021C17001983A
:103790000F218170FFE7FFE7002002B070470000B3
:1037A00010B588B09C4696460C4607908DF81B10C5
:1037B0008DF81A208DF8193007989DF81B10CDF858
:1037C00014C0CDF810E0039400F0EAF88DF818006A
:1037D0009DF81800002836D1FFE740F23000C2F211
:1037E0000000006807999DF81A209DF81930EC46F2
:1037F0004FF0000ECCF800E04FF04C0C0290084661
:103800006146DDF808C0E0478DF818009DF8180003
:10381000002817D1FFE70798807900280BD0FFE731
:103820000798FFF711FD8DF818009DF818008030FB
:103830008DF8180005E00798416A0079053088473F
:10384000FFE7FFE7FFE79DF8180008B010BD000094
:1038500080B588B09C469646069005918DF8132059
:10386000ADF8103000208DF80F008DF80E00BDF877
:103870001000C007002804D0FFE702208DF81F00C9
:1038800075E0BDF810004008ADF8100000208DF87C
:103890000E00FFE79DF80E00BDF8101088425BDABD
:1038A000FFE740F23000C2F20000006806999DF880
:1038B00013209DF80E301A44059B03F1010CCDF83E
:1038C00014C01B78EC46CCF80030D3B240224FF045
:1038D000000C0290084611466246DDF808C0E04739
:1038E0008DF80F009DF80F00002804D0FFE703209B
:1038F0008DF81F003BE040F23000C2F2000000688B
:1039000006999DF813209DF80E301A44059B03F18B
:10391000010CCDF814C01B78EC46CCF80030D3B2C3
:1039200048224FF0000C0190084611466246DDF82F
:1039300004C0E0478DF80F009DF80F00002804D068
:10394000FFE704208DF81F0011E0FFE79DF80E004F
:1039500001308DF80E009DE7BDF8100006998A89A8
:10396000104488819DF80F008DF81F00FFE79DF837
:103970001F0008B080BD000080B584B003900291A4
:1039800003980299C1F30742C1F30723C9B2019119
:1039900011461A46019BFFF703FF04B080BD0000EB
:1039A00080B584B00A4603908DF80B1000208DF886
:1039B0000A00039840799DF80B1088421CD0FFE75D
:1039C0009DF80B000399487140F23000C2F20000EC
:1039D000006803999DF80B306A464FF0000CC2F85E
:1039E00000C04D220190084611466246DDF804C031
:1039F000E0478DF80A00FFE79DF80A0004B080BD9B
:103A000080B584B003900020029001900398007864
:103A1000002822D0FFE70398406F80470290039868
:103A200080690299884207D9FFE703988069029963
:103A3000C0430844019005E0029803998969401A3F
:103A40000190FFE701980399C98A884204D9FFE7EA
:103A50000398FEF71DFFFFE7FFE704B080BD0000FD
:103A600010B586B0DDF820C09E461446059004913E
:103A70008DF80F208DF80E30ADF80CC000208DF8B9
:103A80000B00ADF80800FFE7BDF80800BDF80C100A
:103A9000884250DAFFE740F23000C2F200000068CE
:103AA00005999DF80F209DF80E30DDF810C0BDF887
:103AB00008E01CF80EC0EE46CEF800C04FF0C00C77
:103AC000019008466146DDF804C0E0478DF80B0020
:103AD0009DF80B00002801D0FFE72CE005988079C5
:103AE00000280BD0FFE70598FFF7AEFB8DF80B0021
:103AF0009DF80B0080308DF80B0005E00598416AB9
:103B000000790A308847FFE79DF80E0001308DF8F4
:103B10000E009DF80E00002806D1FFE79DF80F006B
:103B200001308DF80F00FFE7FFE7BDF80800013016
:103B3000ADF80800A8E79DF80B0006B010BD000026
:103B400080B58AB01346089007918DF81B2000209D
:103B50008DF81A0040F23001C2F200010968089A9B
:103B6000DDF81CC09CF800C0EE46CEF800C04FF057
:103B7000AC0C4FF0A00E05901046049161467246C1
:103B8000DDF814C003936346DDF810E0F0478DF8CC
:103B90001A009DF81A00002804D0FFE702208DF8D3
:103BA00027008BE00898807900280BD0FFE7089861
:103BB000FFF74AFB8DF81A009DF81A0080308DF847
:103BC0001A0005E00898416A007905308847FFE748
:103BD00040F23000C2F2000000680899079A52785B
:103BE0006B461A60AC22A8234FF0000C02900846E6
:103BF00011461A466346DDF808C0E0478DF81A0002
:103C00009DF81A00002804D0FFE703208DF8270054
:103C100054E00898807900280BD0FFE70898FFF758
:103C200013FB8DF81A009DF81A0080308DF81A00E9
:103C300005E00898416A007905308847FFE79DF85C
:103C40001B00002835D0FFE740F23000C2F2000030
:103C500000680899079A92786B461A60AC22A423F0
:103C60004FF0000C0190084611461A466346DDF8F5
:103C700004C0E0478DF81A009DF81A00002817D1FB
:103C8000FFE70898807900280BD0FFE70898FFF736
:103C9000DBFA8DF81A009DF81A0080308DF81A00B2
:103CA00005E00898416A007905308847FFE7FFE79B
:103CB000FFE79DF81A008DF82700FFE79DF8270021
:103CC0000AB080BD80B586B00A4605908DF8131005
:103CD00040F23000C2F20000006805999DF81330F0
:103CE000EC46CCF80030AC234FF0E00C4FF0000E67
:103CF000039008461946029262467346DDF80CC0EE
:103D0000E0478DF812009DF81200002817D1FFE758
:103D10000598807900280BD0FFE70598FFF794FA03
:103D20008DF812009DF8120080308DF8120005E029
:103D30000598416A007905308847FFE7FFE79DF85D
:103D4000120006B080BD000080B500F005F880BD0F
:103D500080B5FFF7F9FF80BD80B543F20000C4F2E3
:103D6000000000F035FC002080BD000081B0009014
:103D7000009843F63001C4F202010A6822EA00000A
:103D8000086001B07047000082B00190019843F6CE
:103D90003001C4F202010A68104308600868019902
:103DA00008400090009802B07047000082B0019077
:103DB000019843F63001C4F202010A68104308601A
:103DC0000868019908400090009802B07047000010
:103DD00081B00090009843F61001C4F202010A6815
:103DE0001043086001B0704781B00090009843F61E
:103DF0001001C4F202010A6822EA0000086001B062
:103E00007047000082B00190019843F63401C4F27B
:103E100002010A6810430860086801990840009090
:103E2000009802B07047000081B00090009843F6FF
:103E30001401C4F202010A681043086001B070471F
:103E400081B00090009843F61401C4F202010A68A0
:103E500022EA0000086001B07047000081B00090C5
:103E6000009843F64001C4F202010A6822EA000009
:103E7000086001B07047000081B00090009843F6E0
:103E80004001C4F202010A6822EA0000086001B0A1
:103E90007047000081B00090009843F64001C4F2E2
:103EA00002010A6822EA0000086001B070470000C1
:103EB00082B00190019843F64001C4F202010A6801
:103EC000104308600868019908400090009802B00B
:103ED0007047000082B00190019843F64001C4F29F
:103EE00002010A68104308600868019908400090C0
:103EF000009802B07047000082B00190019843F62C
:103F00004001C4F202010A68104308600868019980
:103F100008400090009802B07047000082B0019005
:103F2000019843F64001C4F202010A681043086098
:103F30000868019908400090009802B0704700009E
:103F400081B00090009843F62001C4F202010A6893
:103F50001043086001B0704781B00090009843F6AC
:103F60002001C4F202010A681043086001B07047E2
:103F700081B00090009843F62001C4F202010A6863
:103F800022EA0000086001B07047000081B0009094
:103F9000009843F62001C4F202010A6822EA0000F8
:103FA000086001B07047000081B00090009843F6AF
:103FB0004401C4F202010A6822EA0000086001B06C
:103FC0007047000081B00090009843F64401C4F2AD
:103FD00002010A6822EA0000086001B07047000090
:103FE00082B00190019843F64401C4F202010A68CC
:103FF000104308600868019908400090009802B0DA
:104000007047000082B00190019843F64401C4F269
:1040100002010A681043086008680199084000908E
:10402000009802B07047000082B00190019843F6FA
:104030004401C4F202010A6810430860086801994B
:1040400008400090009802B07047000081B00090D6
:10405000009843F62401C4F202010A681043086084
:1040600001B0704781B00090009843F62401C4F27B
:1040700002010A681043086001B0704781B00090E7
:10408000009843F62401C4F202010A6822EA000003
:10409000086001B07047000081B00090009843F6BE
:1040A0002401C4F202010A6822EA0000086001B09B
:1040B0007047000080B584B0039000200290039800
:1040C00043F20001C4F20201884209D1FFE74FF434
:1040D00080500190FFF77CFE0198FFF785FE02E01B
:1040E00001200290FFE7029804B080BD82B00190E9
:1040F000009100980199086002B0704781B000906B
:104100000098006801B0704781B000900098816805
:1041100041F00101816001B07047000084B003905C
:10412000029101920398029901F4702100EB913001
:10413000083000900098006840F6FF7188430199AC
:1041400008430099086004B07047000082B00190F5
:104150000091009800F01000012101FA00F001998F
:104160000A681043086002B07047000080B584B050
:10417000039002910192002000900198406800286D
:1041800001D0FFE7FFE70398029900F03DF800280F
:1041900033D1FFE70198406800281BD0FFE7039860
:1041A0000068029901F0100140F6FA728A409043CB
:1041B000019A1368D2F804C0D2F808E0D26843EA42
:1041C0000C0343EA0E031A4302FA01F10843039970
:1041D000086011E003980068029901F01001FA22CA
:1041E0008A409043019A1368D2681A4302FA01F197
:1041F000084303990860FFE702E001200090FFE711
:10420000009804B080BD000082B001900091019838
:104210000068009901F01001C84000F0010002B0F0
:104220007047000081B00090009843F61441C4F23A
:104230000101086001B0704743F60040C4F202007B
:10424000016841F4806101607047000043F600405E
:10425000C4F20200016841F400710160704700007F
:1042600043F60040C4F20200016841F4807101602D
:104270007047000043F60040C4F20200006800F0FE
:104280000F00704781B0009043F60040C4F2020076
:10429000016821F00F01009A1143016001B07047DD
:1042A00080B586B005900491002003900290049898
:1042B000006890FAA0F0B0FA80F00390FFE704984D
:1042C00000680399C84000284AD0FFE704980068B6
:1042D0000399012202FA01F1084002900298002895
:1042E0003AD0FFE705980299049A526800F0E8F87E
:1042F00004984068012805D0FFE704984068022828
:1043000007D1FFE705980299049A926800F048F9EE
:10431000FFE705980299049A126900F029F90498B8
:104320004068022817D1FFE7029890FAA0F0B0FA8F
:1043300080F0072807D8FFE705980299049A526988
:1043400000F066F806E005980299049A526900F0B8
:1043500077F8FFE7FFE7FFE7039801300390AEE748
:1043600004984068012805D0FFE7049840680228B7
:104370000AD1FFE7059804990A68C96801911146B6
:10438000019A00F0E5F8FFE7002006B080BD0000CC
:1043900082B0019000910198006900990840401A8C
:1043A000B0FA80F0400902B07047000082B001907E
:1043B0000091009800040199886102B070470000E4
:1043C00082B001900091009800040199886102B0C8
:1043D0007047000082B0019000910098000401999C
:1043E000886102B07047000082B00190009100988F
:1043F00000040199886102B07047000082B001900A
:104400000091009800040199886102B07047000093
:1044100083B00290019100920298006A019991FA8A
:10442000A1F1B1FA81F189000F228A409043009AEC
:1044300002FA01F108430299086203B070470000D4
:1044400083B00290019100920298406A0199090A92
:1044500091FAA1F1B1FA81F189000F228A409043CB
:10446000009A02FA01F108430299486203B07047CA
:1044700082B00190009100980199886102B0704764
:1044800082B00190009100980199886102B0704754
:1044900082B00190009100980199886102B0704744
:1044A00082B00190009100980199886102B0704734
:1044B00082B00190009100980199886102B0704724
:1044C00083B002900191009202980068019991FADC
:1044D000A1F1B1FA81F1490003228A409043009A88
:1044E00002FA01F108430299086003B07047000026
:1044F00083B002900191009202980068019991FAAC
:10450000A1F1B1FA81F1490003228A409043009A57
:1045100002FA01F108430299086003B070470000F5
:1045200083B002900191009202980068019991FA7B
:10453000A1F1B1FA81F1490003228A409043009A27
:1045400002FA01F108430299086003B070470000C5
:1045500083B00290019100920298406801998843CB
:10456000009A514308430299486003B07047000025
:1045700083B00290019100920298C068019991FA6B
:10458000A1F1B1FA81F1490003228A409043009AD7
:1045900002FA01F108430299C86003B070470000B5
:1045A00083B002900191009202988068019991FA7B
:1045B000A1F1B1FA81F1490003228A409043009AA7
:1045C00002FA01F108430299886003B070470000C5
:1045D00081B0009000984AF6AA21016001B07047AE
:1045E00082B00190009101980099B0FBF1F0013880
:1045F0004EF21401CEF2000108604EF21800CEF225
:104600000000002101604EF21000CEF200000521F2
:10461000016002B07047000047F20000C4F20000E1
:10462000016841F4807101607047000047F20400A6
:10463000C4F200000068C0F38000704781B00090B1
:1046400047F20000C4F20000016821F48041009AA2
:104650001143016001B0704743F60800C4F2020044
:10466000006800F0F000704743F60800C4F2020052
:10467000006800F4E050704743F60800C4F20200FE
:10468000006800F46040704743F60800C4F202007E
:10469000006800F00C00704743F60800C4F2020006
:1046A000006800F00C00704780B582B0019001F006
:1046B00091F8019908600198006801F053F8019998
:1046C00048600198406801F061F80199886001989C
:1046D000406801F06DF80199C86002B080BD00002B
:1046E00043F60000C4F20200016841F48031016029
:1046F0007047000043F60000C4F202000068C0F3F7
:104700004040704743F67400C4F20200016841F073
:10471000010101607047000043F67400C4F202001A
:104720000068C0F34000704784B00390029101928A
:10473000009343F60400C4F20200016848F200024C
:10474000CFF6BF721140039A029B1A43019B42EAC3
:10475000831211430160016821F44031009A114332
:10476000016004B07047000043F60000C4F202008C
:10477000016841F0807101607047000043F6040059
:10478000C4F20200006800F03F00704743F60400E6
:10479000C4F20200006800F48000704743F6040091
:1047A000C4F202000068C0F38810704743F60400AA
:1047B000C4F20200006800F44030704743F6000085
:1047C000C4F202000068C0F34060704781B00090FE
:1047D00043F60800C4F20200016821F0F001009ADB
:1047E0001143016001B0704781B0009043F60800AA
:1047F000C4F20200016821F4E051009A1143016003
:1048000001B0704781B0009043F60800C4F2020086
:10481000016821F46041009A1143016001B07047C2
:1048200081B0009043F60800C4F20200016821F054
:104830000301009A1143016001B0704781B00090FC
:1048400000986FF02001416001B0704781B0009086
:1048500000986FF04001416001B0704780B582B0B0
:10486000019040200090FFF7DFFA0098FFF7E8FA88
:10487000002002B080BD000081B000900098016867
:1048800021F00401016001B07047000081B0009088
:104890000098016841F00401016001B07047000018
:1048A00081B000900098016841F00801016001B0FA
:1048B0007047000081B0009000984068C0F340103D
:1048C00001B0704781B000900098406800F001008E
:1048D00001B0704781B0009000984068C0F380102C
:1048E00001B0704781B000900098806801B07047B7
:1048F00080B586B0059001200490059843F2000130
:10490000C4F2010188420BD1FFE74FF480500390BD
:10491000FFF79CFB0398FFF7B1FB00200490FFE733
:10492000059843F60001C4F2000188420BD1FFE76D
:104930004FF480400290FFF703FB0298FFF718FB4B
:1049400000200490FFE7059843F60041C4F20001FF
:1049500088420BD1FFE74FF400400190FFF7F0FAD7
:104960000198FFF705FB00200490FFE7049806B0CC
:1049700080BD000081B000900098016841F04001C6
:10498000016001B07047000080B584B003900291CF
:1049900001200190039800F051F8002836D1FFE77C
:1049A000039800684FF6BF71884302990A684B6804
:1049B000D1F808C0D1F80CE01A4342EA0C0242EAEE
:1049C0000E020B691A434B691A438B691A43CB6970
:1049D0001A43096A11430843039908600398406821
:1049E00020F004000299C98A08430399486002989C
:1049F000006AB0F5005F06D1FFE703980299496AA3
:104A000000F03AF8FFE700200190FFE70398C16942
:104A100021F40061C161019804B080BD81B00090B3
:104A20000098806800F0010001B0704781B00090EC
:104A300000988068C0F3400001B0704781B00090DA
:104A400000980068C0F3801001B0704781B00090FA
:104A50000098C068C0B201B07047000082B00190F9
:104A600000910198006820F03800009908430199EE
:104A7000086002B07047000082B001900091BDF85C
:104A800000000199086102B07047000082B00190F7
:104A900000910198406820F01000009908430199A6
:104AA000486002B07047000083B00A4602908DF85B
:104AB000071002980C3000909DF8070000990870CC
:104AC00003B0704781B000900098042809D1FFE737
:104AD0004EF21000CEF20000016841F004010160C6
:104AE00008E04EF21000CEF20000016821F004014F
:104AF0000160FFE701B0704781B00090009840F27C
:104B00000001C2F20001086001B0704782B001905C
:104B100001980068009000980199496800910099F7
:104B200002B0704782B00190019800680090009830
:104B3000019949680091009902B0704781B00090D6
:104B400000986FF48071016001B0704782B00190ED
:104B500001980068009000980199496800910099B7
:104B600002B0704782B001900198006800900098F0
:104B7000019949680091009902B0704782B0019094
:104B80000198006800900098019949680091009987
:104B900002B0704781B0009000986FF02001016072
:104BA00001B0704781B0009000986FF04001016043
:104BB00001B0704781B0009000986FF400710160FF
:104BC00001B0704781B000900098016921F49041D4
:104BD00001610098416921F02A01416101B07047EB
:104BE00080B588B0079000200690079841F2000138
:104BF000C4F20101884208D1FFE710200590FFF7B9
:104C000031FA0598FFF748FA5BE0079844F2004153
:104C1000C4F20001884209D1FFE74FF4003004904C
:104C2000FFF79AF90498FFF7B1F949E0079844F6BD
:104C30000001C4F20001884209D1FFE74FF480204F
:104C40000390FFF789F90398FFF7A0F937E0079879
:104C500041F20041C4F20101884208D1FFE720205F
:104C60000290FFF7FFF90298FFF716FA26E007987F
:104C700044F60041C4F20001884209D1FFE74FF435
:104C800000200190FFF768F90198FFF77FF914E021
:104C9000079845F20001C4F20001884209D1FFE7FC
:104CA0004FF480100090FFF757F90098FFF76EF966
:104CB00002E001200690FFE7FFE7FFE7FFE7FFE7DD
:104CC000FFE7069808B080BD81B000900098C168E9
:104CD00021F04001C16001B07047000081B0009038
:104CE0000098C16821F08001C16001B070470000E8
:104CF00081B000900098C16841F40051C16001B0DA
:104D00007047000081B000900098C16841F0200118
:104D1000C16001B07047000081B000900098C16888
:104D200041F04001C16001B07047000081B00090C7
:104D30000098C16841F08001C16001B07047000077
:104D400080B588B00790069101200590002004905E
:104D5000079800F0D1F800287BD1FFE70798C068DA
:104D600049F20C61884306994A68CB68D1F810C0B3
:104D700089691A4342EA0C02114308430799C86043
:104D800007980699896800F06DF9079806994969AE
:104D900000F05AF96846FFF787FC079841F20001D6
:104DA000C4F20101884203D1FFE7039804903CE07C
:104DB000079844F20041C4F20001884203D1FFE7A2
:104DC0000298049030E0079844F60001C4F2000114
:104DD000884203D1FFE70298049024E0079841F24B
:104DE0000041C4F20101884203D1FFE70398049017
:104DF00018E0079844F60041C4F20001884203D14C
:104E0000FFE7029804900CE0079845F20001C4F215
:104E10000001884203D1FFE70298049000E0FFE719
:104E2000FFE7FFE7FFE7FFE7FFE7049800280FD061
:104E3000FFE70698006800280AD0FFE700200590E9
:104E400007980499069A1368926900F0A5F8FFE79D
:104E5000FFE7059808B080BD81B000900098006819
:104E6000C0F3400001B0704781B000900098006826
:104E7000C0F3001001B0704781B000900098006846
:104E8000C0F3002001B0704781B000900098006826
:104E9000C0F3800001B0704781B0009000980068B6
:104EA000C0F3C00001B0704781B000900098006866
:104EB00000F0010001B0704781B0009000980068D8
:104EC000C0F3401001B0704781B0009000980068B6
:104ED000C0F3801001B0704781B000900098006866
:104EE000C0B2C00901B0704781B00090009800685E
:104EF000C0F3402001B0704781B000900098C068B6
:104F0000C0F3403001B0704781B000900098406914
:104F1000C0F3802001B0704781B0009000984069D4
:104F200000F0010001B0704781B000900098C068A7
:104F3000C0F3001001B0704781B000900098006984
:104F4000C0F3801001B0704781B000900098C06835
:104F5000C0F3002001B0704781B000900098C06895
:104F6000C0F3401001B0704781B000900098C06855
:104F7000C0F3801001B0704781B000900098C06805
:104F8000C0B2C00901B0704781B00090009840687D
:104F9000C0B201B07047000080B584B003900291A8
:104FA000019200930198B0F5004F25D1FFE70298D8
:104FB0001921484300994900B0FBF1F048F21F5114
:104FC000C5F2EB11A0FB01235B094FEA031C4FF074
:104FD000640E03FB1E00322303EBC000A0FB0101A3
:104FE000F82303EA51130CEB4303C1F342111944B4
:104FF00089B2039B996024E00298192148430099E3
:105000008900B0FBF1F048F21F51C5F2EB11A0FB93
:1050100001235B094FF0640C03FB1C004FF0320CC2
:105020000CEB0010A0FB01014FF0F00C0CEA511C3E
:105030000CEB0313C1F34311194489B2039B99602C
:10504000FFE704B080BD000082B00190009101989C
:10505000406920F44070009908430199486102B00A
:105060007047000082B0019000910198006920F41F
:105070004050009908430199086102B07047000050
:1050800082B00A4601908DF803109DF80300019943
:10509000486002B07047000081B0009000986FF047
:1050A0000101816001B0704780B584B002468DF87F
:1050B0000F0002919DF80F000299019200F010F884
:1050C00004B080BD80B584B002468DF80F00029117
:1050D0009DF80F0002990192FFF7E6FF04B080BD32
:1050E00080B592B002468DF84700109141F2000061
:1050F000C4F202000121099008910792FBF7A2FE79
:1051000009980899FBF79EFE00200F900E900D90D5
:105110000C900B900A9008990B910C910D900E91A8
:105120000F9010200A900AAA099B06901846114673
:105130000592FFF7B5F80999049008460699FFF71C
:1051400049F908200A900999039008460599FFF744
:10515000A7F80999029008460399FFF73BF91098C0
:1051600000F022F89DF8471001290DD1FFE741F228
:105170000000C4F2020008210190FFF72BF9102172
:105180000198FFF785F90CE041F20000C4F202003B
:1051900010210090FFF71EF908210098FFF71AF977
:1051A000FFE7002012B080BD80B582B00190019869
:1051B00041F27171884204D3FFE741F270700190AF
:1051C0000AE0019840F2DB51884204D8FFE740F240
:1051D000DC500190FFE7FFE70198A0F2EC4001905E
:1051E00001984008019001990120FBF74BFC002138
:1051F0000090084602B080BDFFE7FEE780B582B0B0
:1052000001900198002801D1FFE70BE0019840F2DE
:105210000801C2F200018968401A0090009800F06D
:105220001FF8FFE702B080BD80B584B002900298FD
:1052300000F080F8019001980130002803D1FFE7C9
:105240000020039008E040F20800C2F200008068ED
:10525000019908440390FFE7039804B080BD000063
:1052600080B586B004900020039040F20800C2F29E
:105270000000007C00280AD1FFE740F20800C2F2DB
:1052800000000068804701208DF8170030E0049886
:10529000C00A042828D8FFE704984009029040F289
:1052A0000800C2F20000C068029930F811000190B5
:1052B00000200390FFE703980199884210DAFFE786
:1052C00040F20800C2F20000C0680299039A11443B
:1052D000002220F81120FFE7039801300390EAE74D
:1052E00000208DF8170003E002208DF81700FFE77B
:1052F0009DF8170006B080BD80B582B040F208006E
:10530000C2F20000C16800224FF4207301900846E9
:10531000114600921A4600F08DF8019880684FF40B
:105320002052009900F086F801200199087402B01B
:1053300080BD000080B586B0049000200390ADF8D9
:105340000A00ADF80800019040F20800C2F2000027
:10535000007C002807D1FFE740F20800C2F20000FD
:1053600000688047FFE70498002804D1FFE74FF06A
:10537000FF3005905AE004984009ADF80A009DF806
:105380001000C006002806D0FFE7BDF80A00013073
:10539000ADF80A00FFE740F23F100390FFE70398E3
:1053A00000283FD4FFE740F20800C2F20000C068C6
:1053B000039930F81100002806D1FFE7BDF8080076
:1053C0000130ADF8080003E00020ADF80800FFE769
:1053D000BDF80800BDF80A1088421ED1FFE7002082
:1053E0000190FFE70198BDF80A10884211D2FFE74B
:1053F000BDF80A0040F20801C2F20001C968039A30
:10540000019B1A4421F81200FFE701980130019036
:10541000E8E703984001059008E0FFE703980138AA
:105420000390BCE74FF0FF300590FFE7059806B00A
:1054300080BD000084B00B4603908DF80B100192E4
:1054400003980090FFE70198411E0191002807D0C2
:10545000FFE79DF80B0000994A1C00920870F2E7E4
:1054600004B0704783B0002002900190FFE70198DC
:105470008009042814D8FFE740F20800C2F20000B7
:10548000C068019930F81100002804D0FFE70298A5
:1054900001300290FFE7FFE7019801300190E6E755
:1054A0000298642148434CF6CD41CCF6CC41A0FB98
:1054B0000101C1F307210090084603B070470000C6
:1054C0007047000088B0079006910592079800F099
:1054D000070004900498C0F10700052803D3FFE7F4
:1054E0000420019004E00498C0F107000190FFE758
:1054F0000198039004980430062803D8FFE70020A1
:10550000009003E0049803380090FFE700980290B1
:1055100006980399012202FA01F101390840029923
:105520008840059B02FA01F101391940084308B08F
:105530007047000088B0079006910592079800F028
:10554000070004900498C0F10700052803D3FFE783
:105550000420019004E00498C0F107000190FFE7E7
:105560000198039004980430062803D8FFE7002030
:10557000009003E0049803380090FFE70098029041
:1055800006980399012202FA01F1013908400299B3
:105590008840059B02FA01F101391940084308B01F
:1055A0007047000088B0079006910592079800F0B8
:1055B000070004900498C0F10700052803D3FFE713
:1055C0000420019004E00498C0F107000190FFE777
:1055D0000198039004980430062803D8FFE70020C0
:1055E000009003E0049803380090FFE700980290D1
:1055F00006980399012202FA01F101390840029943
:105600008840059B02FA01F101391940084308B0AE
:105610007047000088B0079006910592079800F047
:10562000070004900498C0F10700052803D3FFE7A2
:105630000420019004E00498C0F107000190FFE706
:105640000198039004980430062803D8FFE700204F
:10565000009003E0049803380090FFE70098029060
:1056600006980399012202FA01F1013908400299D2
:105670008840059B02FA01F101391940084308B03E
:105680007047000080B588B0032003F0B5FA03F03E
:105690001BFA00210791079AFFF714FF6FF00B0127
:1056A00006900846069903F02FFA03F00DFA0799C1
:1056B000079AFFF707FF6FF00A0105900846059962
:1056C00003F022FA03F000FA0799079AFFF7FAFEAF
:1056D0006FF0090104900846049903F015FA03F0ED
:1056E000F3F90799079AFFF7EDFE6FF004010390B5
:1056F0000846039903F008FA03F0E6F90799079AB8
:10570000FFF7E0FE6FF0030102900846029903F0F4
:10571000FBF903F0D9F90799079AFFF7D3FE6FF069
:10572000010101900846019903F0EEF908B080BD2F
:1057300080B500F013F880BD80B5FFF7F9FF80BD9C
:1057400080B54FF48030FEF76DFDFEF76FFF002847
:1057500003D0FFE7FFF7F0FFFFE780BD70470000D1
:105760007047000080B582B0019001980090FEF76C
:1057700073FFC0B2000949F2B451C0F60001085CE1
:10578000009921FA00F002B080BD000080B582B01F
:10579000019001980090FEF767FF800A49F2C4511A
:1057A000C0F60001085C009921FA00F002B080BD4B
:1057B00080B582B0019001980090FEF75DFF400B2C
:1057C00049F2C451C0F60001085C009921FA00F0CA
:1057D00002B080BD80B582B000200190FEF754FF7A
:1057E00001460028009108D0FFE7009804280AD05D
:1057F000FFE7009808280CD010E042F20040C0F209
:10580000F400019010E041F20020C0F27A00019013
:105810000AE0082000F00EF8019005E042F2004096
:10582000C0F2F4000190FFE7019802B080BD0000D3
:105830007047000080B588B0079000200690059062
:105840000490FEF7A3FF059005980028039005D06B
:10585000FFE70398B0F5800F06D00BE042F200405E
:10586000C0F2F40006900BE041F20020C0F27A0092
:10587000069005E042F20040C0F2F4000690FFE717
:105880000798082818D1FFE706980290FEF776FFE0
:105890000299B1FBF0F00190FEF780FF01994843B7
:1058A0000090FEF783FF000C022101EB40000099FD
:1058B000B1FBF0F00490FFE7049808B080BD000051
:1058C00080B500F01DF880BD80B582B001468DF82E
:1058D00007009DF80700009100F052F802B080BD6B
:1058E00080B5FFF7EDFF80BD80B582B001468DF831
:1058F00007009DF807000091FFF7E6FF02B080BDAA
:1059000080B582B040F60000C5F20600FEF7E2FF67
:1059100000280ED0FFE740F60000C5F20600019017
:10592000FEF794FF0198FEF7A7FF0198FEF7AEFF80
:10593000FFE740F60000C5F20600FEF7BBFF0028B7
:1059400007D0FFE740F60000C5F20600FEF776FF3D
:10595000FFE740F60000C5F20600FEF7B3FF00289F
:105960000CD0FFE740F60000C5F20600FEF7BAFFD4
:1059700040F2C001C2F200010860FFE702B080BD42
:1059800080B586B001468DF8170040F60000C5F2DC
:1059900006000491FEF762FF402103900846FEF7DF
:1059A00031FA9DF81700002818D0FFE703F094F8AB
:1059B0000F210022FFF7BEFD502102900846029AF7
:1059C0000191114603F0BEF8019803F051F840F63A
:1059D0000000C5F20600FEF763FFFFE740F6000097
:1059E000C5F20600FEF752FFFFE740F60000C5F2E1
:1059F0000600FEF767FF012803D0FFE7FEF7A8F9CE
:105A0000F3E740F2C000C2F200000021016006B0DE
:105A100080BD000080B584B00A4603908DF80B105D
:105A200003989DF80B10019200F086F904B080BD38
:105A300080B582B00190019800F0FCF902B080BD01
:105A40002DE9F04F97B0DDF898C0DDF894E0249C84
:105A5000239D229E219FDDF88080994692468B46A9
:105A6000CDF858C0CDF854E01494139512961197C0
:105A7000CDF840800F930E920D910C900C980D99DB
:105A80000E9A0F9BDDF840C0DDF844E0129C139D98
:105A9000149E159FDDF858800B906846C0F818805A
:105AA00047610661C5608460C0F804E0C0F800C0CA
:105AB0000B98CDF82890CDF824A0CDF820B000F0B8
:105AC0002BFA17B0BDE8F08F80B586B09C460590E4
:105AD00004910392ADF80A3005980499039ABDF831
