:020000040800F2
:10000000803E00209D010008514400083111000885
:100010007543000825070008CD7C0008000000009B
:10002000000000000000000000000000C5550008AE
:10003000790D000800000000394700085D5B0008EA
:10004000D17C000819470008B7010008B701000873
:10005000B701000815480008B7010008B7010008FB
:10006000B7010008B7010008B7010008B701000890
:10007000B7010008B7010008B7010008B701000880
:10008000B7010008B7010008B7010008B701000870
:10009000B7010008B7010008B7010008B701000860
:1000A000B7010008B7010008B7010008B701000850
:1000B000B7010008B7010008B7010008B701000840
:1000C000B7010008B7010008B7010008B701000830
:1000D000B701000809600008B7010008B70100086F
:1000E000B7010008B7010008B7010008B701000810
:1000F000B7010008B7010008B7010008B701000800
:10010000B7010008B7010008B7010008B7010008EF
:10011000B7010008B7010008B7010008B7010008DF
:10012000B7010008B7010008B7010008B7010008CF
:10013000B7010008B7010008B7010008B7010008BF
:10014000B7010008B7010008B7010008B7010008AF
:10015000B7010008B7010008B7010008B70100089F
:10016000B7010008B7010008B7010008B70100088F
:10017000B7010008B7010008B7010008000000003F
:1001800029110008B7010008DFF80CD000F0B8FA18
:1001900000480047557F0008803E00200648804701
:1001A00006480047FEE7FEE7FEE7FEE7FEE7FEE75C
:1001B000FEE7FEE7FEE7FEE7995F00088901000819
:1001C0002DE9F05F0546002092469B46884606468C
:1001D000814640241BE0284641464746224600F01F
:1001E000DFF953465A46C01A914110D311461846BA
:1001F000224600F0C6F92D1A67EB01084F46224649
:100200000120002100F0BDF917EB00094E41201E2E
:10021000A4F10104DFDC484631462A464346BDE8E6
:10022000F09FD2B201E000F8012B491EFBD27047CB
:100230000022F6E710B513460A4604461946FFF7B2
:10024000F0FF204610BD2DE9FE4F804681EA0300F5
:10025000C00F0C46009021F0004123F00045B8EBA0
:100260000200A94105D24046214690461C460B4655
:10027000024623F00040104347D0270DC7F30A0081
:10028000C3F30A510290401A019040286BDAC3F37D
:10029000130040F4801B0098924620B10023D2EB5B
:1002A000030A63EB0B0B01985946C0F1400250461C
:1002B00000F067F906460D4650465946019A00F08F
:1002C0007FF910EB08006141002487EA115284EAAB
:1002D000E7731A4340D0009A62B3019A012A4FEAA9
:1002E000075215DC001B61EB02014FF0004202EAED
:1002F0000752CDE90042001C41F5801132462B46E1
:1003000000F07FF903B0BDE8F08F40462146F9E7E1
:10031000001B61EB0201001C41F5801300185B41DA
:100320002018A2F5001747EB030140EAD570B61973
:100330006D4111E06D084FEA360645EAC0754FEA97
:100340000752001B61EB0201001C41F580114908B6
:100350004FEA30000019514132462B4603B0BDE848
:10036000F04F00F03FB90098012240000023D0EB8D
:10037000020263EBE073009821464FEAE074B8EBA9
:10038000000061EB0401E9E783F000435BE781F0E3
:10039000004158E72DE9FE4F81EA030404F00044D0
:1003A00021F0004100944FF0000B23F0004350EA8D
:1003B00001045ED052EA03045BD0C3F30A54C1F3D4
:1003C0000A552C44A4F2F3340194A0FB0254C1F367
:1003D000130141F48011C3F3130343F4801301FBB1
:1003E000024400FB034E840A970A44EA815447EA18
:1003F0008357A4FB076802958D0A05FB07854FEA22
:10040000932C04FB0C542705029D4FEA065847EA3B
:100410001637B5EB08056EEB070C870E920E47EA10
:10042000811742EA8312A7FB0201B6EB0B0164EBD2
:1004300000042B0D43EA0C335E1844EB1C50DA46E3
:100440005146E7FB0201C5F313044FEA0B3343EABD
:1004500014534FEA0432019C43EA0603A4F10C044E
:100460000294009CCDE900B400F0CBF803B0BDE8E5
:10047000F08F00200146F9E72DE9F04D81EA0304F1
:1004800004F0004B21F0004514464FF0000A23F021
:10049000004150EA050220D054EA01021DD0C5F304
:1004A0000A570246C5F31303C1F31300C1F30A56FA
:1004B00040F4801543F48013A7EB0608101BD646C2
:1004C00008F2FD3873EB050002D308F1010801E0E2
:1004D00092185B41B8F1000F03DA00200146BDE835
:1004E000F08D00204FF48011064684460EE0171B65
:1004F00073EB050705D3121B63EB050306434CEAB8
:10050000010C49084FEA300092185B4150EA01079C
:10051000EDD152EA030012D082EA040083EA050119
:10052000084305D0101BAB4106D20122002306E090
:1005300000224FF0004302E06FF0010253101AEB6B
:1005400006004CEB085110EB0A0041EB0B01BDE833
:10055000F04D00F047B830B50B4601460020202290
:10056000012409E021FA02F59D4205D303FA02F5C0
:10057000491B04FA02F52844151EA2F10102F1DC20
:1005800030BD202A04DB203A00FA02F10020704737
:100590009140C2F1200320FA03F3194390407047C1
:1005A000202A04DB203A21FA02F00021704721FAC8
:1005B00002F3D040C2F1200291400843194670472F
:1005C000202A06DBCB17203A41FA02F043EAE07317
:1005D00006E041FA02F3D040C2F120029140084304
:1005E0001946704710B5141E73F1000408DA401C58
:1005F00041F1000192185B411A4301D120F0010042
:1006000010BD2DE9F04D92469B4611B1B1FA81F231
:1006100002E0B0FA80F220329046FFF7B2FF0446C3
:100620000F4640EA0A0041EA0B0153465A46084386
:1006300013D0114653EA010019D0C8F140025046C8
:10064000FFF7AEFF05460E46504659464246FFF7B5
:1006500098FF084305D0012004E020463946BDE854
:10066000F08D0020054346EAE0762C4337430A9894
:100670006305E40AA0EB08000022FD0A44EA47549F
:100680000A3002D500200146E9E701051019694149
:10069000DDE9084500196941BDE8F04DA2E7C1F365
:1006A0000A52C1F3130140F2FF3341F480119A4220
:1006B00002DA00200146704740F233439A42A2F228
:1006C000334202DC5242FFF76BBFFFF75ABF000014
:1006D00030B5041E71F1000404DB4FF000444042C9
:1006E00064EB0101141E73F1000405DB1C464FF09E
:1006F0000043524263EB0403994208BF904230BD6D
:10070000064C074D06E0E06840F0010394E807005E
:1007100098471034AC42F6D3FFF73AFD548D0008E9
:10072000748D0008FFE7FEE780B584B00A460346F3
:1007300003900291039802990192009300F084F8CB
:1007400004B080BD80B584B00A4603460390029190
:10075000039802990192009300F0A6F804B080BDBE
:1007600080B586B013468C4686468DF817000491F6
:1007700003929DF817000499039A0293CDF804C0E0
:10078000CDF800E000F0D4F806B080BD80B584B0AC
:100790000A4603460390029103980299019200933E
:1007A00000F010F904B080BD80B500F047F980BDBD
:1007B00080B500F049F980BD80B584B00A46034693
:1007C000039002910398029901920093FFF7ACFF06
:1007D00004B080BD80B584B00A4603460390029100
:1007E0000398029901920093FFF7ACFF04B080BD1B
:1007F00080B586B013468C4686468DF81700049166
:1008000003929DF817000499039A0293CDF804C04F
:10081000CDF800E0FFF7A4FF06B080BD80B584B03E
:100820000A460346039002910398029901920093AD
:10083000FFF7ACFF04B080BD80B5FFF7B5FF80BD0A
:1008400080B5FFF7B5FF80BD86B00A460346059028
:1008500004910020ADF80C00029001920093FFE794
:100860000298049988421BD2FFE79DF80D00059974
:10087000029A895C48408DF80F00BDF80C009DF885
:100880000F1048F6B002C0F6000232F8111081EAEB
:100890000020ADF80C00FFE7029801300290DFE77E
:1008A000BDF80C0006B0704780B584B00A46034618
:1008B00003900291039802990192009300F002F8CC
:1008C00004B080BD80B588B00A4603460790069103
:1008D00000200590049003920293019000F020F80C
:1008E00001980590FFE705980699884210D2FFE726
:1008F00007980599405C0490049943F20000C4F203
:10090000020002F033FBFFE7059801300590EAE7AB
:1009100043F20000C4F2020002F034FB08B080BDD4
:1009200080B543F20000C4F2020002F033FB80BD48
:1009300080B589B013468C4686468DF82300079112
:10094000069200208DF8160004900393CDF808C09D
:10095000CDF804E0FFE70498069988422DD2FFE71E
:100960009DF816000799049A895C48408DF8170095
:100970009DF8230001460728009104D0FFE7009866
:1009800031280AD013E09DF8170048F6B021C0F6D0
:100990000001085C8DF816000AE09DF8170048F683
:1009A000B031C0F60001085C8DF8160000E0FFE7EA
:1009B000FFE7049801300490CDE79DF8160009B0D8
:1009C00080BD000086B00A460346059004910020D1
:1009D00003908DF80B00039001920093FFE70398BA
:1009E000049988420DD2FFE705980399405C9DF871
:1009F0000B1008448DF80B00FFE7039801300390BB
:100A0000EDE79DF80B00C0F580708DF80B009DF8A8
:100A10000B0006B07047000080B582B043F20000C2
:100A2000C4F2020002F080FA40F2040EC2F2000E9C
:100A300001218EF80010019002B080BD40F2040048
:100A4000C2F200000078704780B5FFF7E5FF4FF471
:100A5000805002F09DF840F20400C2F200004FF016
:100A6000000E80F800E080BD80B584B00A460346E1
:100A70008DF80F0002919DF80F00029901920093EA
:100A800000F036F804B080BD80B584B00A46034655
:100A90008DF80F008DF80E109DF80F009DF80E10C8
:100AA0000292019300F034F904B080BD80B584B0A7
:100AB0000A4603468DF80F0002919DF80F00029937
:100AC00001920093FFF7D0FF04B080BD80B584B0E1
:100AD0000A4603468DF80F008DF80E109DF80F00A2
:100AE0009DF80E1002920193FFF7CEFF04B080BD77
:100AF00080B584B00A4603468DF80F0002919DF838
:100B00000F0002994FF47A7C01FB0CF101920093E3
:100B100000F002F804B080BD80B588B00A460346F4
:100B20008DF81F00069100200590069845F6A1213A
:100B3000C0F2320188420492039306D3FFE745F6E0
:100B4000A020C0F232000690FFE7069840084CF65D
:100B50001771CAF29E21A0FB0101090A05910599AE
:100B6000B1F5805F029004D3FFE740F6FF70059077
:100B7000FFE79DF81F00032813D1FFE7059A47F20E
:100B80000040C4F200000121C0F21021019002F0E7
:100B90000DFA059A1221C1F24351019802F006FAAA
:100BA0001BE09DF81F0002280BD1FFE7059A47F2D2
:100BB0000040C4F200000121C0F2102102F0F6F959
:100BC0000AE0059A47F20040C4F200000121C0F299
:100BD000102102F0EBF9FFE7FFE7002008B080BD2D
:100BE00080B58CB00A4603468DF82F008DF82E1084
:100BF00000200A90099008900790069038210691ED
:100C000007909DF82E0001280592049303D1FFE779
:100C10000020099002E002200990FFE79DF82F00D4
:100C2000022805D1FFE71220C1F243500A9004E0E8
:100C30000120C0F210200A90FFE70A9947F2004015
:100C4000C4F2000006AA039002F0E6F90A99039A9A
:100C50000290104602F0CAF90A990020039A019006
:100C60001046019A02F0A2F901980CB080BD000074
:100C700080B582B001468DF807009DF80700002876
:100C8000009105D0FFE74FF0005002F03DF804E07E
:100C90004FF0005001F0F4FFFFE7002002B080BDEC
:100CA00080B58AB001468DF827000020C4F202000A
:100CB00001220291114600F0FBF8002008900790F5
:100CC00006900590049003909DF82700032803D117
:100CD000FFE7302003900BE09DF82700022803D1A6
:100CE000FFE72020039002E010200390FFE7FFE7DA
:100CF00003200490022007900020C4F2020003A900
:100D000002F03AFA0021019008460AB080BD0000C6
:100D100080B588B00A4603468DF81F008DF81E1076
:100D20009DF81F0006920593FFF7BAFF012104907A
:100D30000846FFF79DFF9DF81F10032903900FD170
:100D4000FFE79DF81E100120FFF74AFF9DF81E10D7
:100D50004FF0020E02907046FFF742FF019007E04D
:100D60009DF81F009DF81E10FFF73AFF0090FFE767
:100D7000002008B080BD00007047000080B582B040
:100D8000014601900198009100F064F802B080BD26
:100D900080B582B0014601900198009100F01EF8E4
:100DA00002B080BD80B584B001460390039800284E
:100DB000029110D0FFE7FFE70398411E039100283E
:100DC00008D0FFE74FF47A7000F008F801F0C2FE97
:100DD0000190F1E7FFE704B080BD000080B586B068
:100DE000014605900598002804911CD0FFE705985E
:100DF00044F6D351C1F26201A0FB010292090390B3
:100E00001046029100F026F805980299A0FB012EE9
:100E10004FEA9E1E4FF47A730EFB1300019204F00A
:100E200009FD0090FFE706B080BD000080B582B0EC
:100E30000146019001980091FFF7A0FF02B080BD2C
:100E400080B582B00146019001980091FFF7A0FFA4
:100E500002B080BD80B584B001460390039800289D
:100E600002910FD0FFE704F0CBFC002805D1FFE78B
:100E7000039804F0C9FC019003E00398FFF792FF88
:100E8000FFE7FFE704B080BD80B584B00A460346A3
:100E900003908DF80B1003989DF80B1001920093AE
:100EA00000F01AF804B080BD80B500F0E7F880BD0E
:100EB00080B584B00A46034603908DF80B10039862
:100EC0009DF80B1001920093FFF7DEFF04B080BD88
:100ED00080B5FFF7E9FF80BD80B584B00A460346C0
:100EE00003908DF80B1003980021C4F20201884290
:100EF000019200930ED1FFE79DF80B00002804D06B
:100F0000FFE7012001F058FE03E0012001F030FE70
:100F1000FFE7B1E0039840F20041C4F202018842C9
:100F20000ED1FFE79DF80B00002804D0FFE7022058
:100F300001F042FE03E0022001F01AFEFFE79BE011
:100F4000039840F60001C4F2020188420ED1FFE787
:100F50009DF80B00002804D0FFE7042001F02CFED0
:100F600003E0042001F004FEFFE785E0039840F66B
:100F70000041C4F2020188420ED1FFE79DF80B0048
:100F8000002804D0FFE7082001F016FE03E0082047
:100F900001F0EEFDFFE76FE0039841F20001C4F2BB
:100FA000020188420ED1FFE79DF80B00002804D013
:100FB000FFE7102001F000FE03E0102001F0D8FD53
:100FC000FFE759E0039841F20041C4F20201884270
:100FD0000ED1FFE79DF80B00002804D0FFE720208A
:100FE00001F0EAFD03E0202001F0C2FDFFE743E04D
:100FF000039841F60001C4F2020188420ED1FFE7D6
:101000009DF80B00002804D0FFE7402001F0D4FD3C
:1010100003E0402001F0ACFDFFE72DE0039841F62E
:101020000041C4F2020188420ED1FFE79DF80B0097
:10103000002804D0FFE7802001F0BEFD03E08020FF
:1010400001F096FDFFE717E0039842F20001C4F2B9
:101050000201884210D1FFE79DF80B00002805D05F
:10106000FFE74FF4807001F0A7FD04E04FF48070BB
:1010700001F07EFDFFE7FFE704B080BD80B582B0E0
:101080000020C4F2020001210191FFF725FF40F288
:101090000040C4F202000199FFF71EFF40F6000075
:1010A000C4F202000199FFF717FF40F60040C4F2B6
:1010B00002000199FFF710FF41F20000C4F20200A4
:1010C0000199FFF709FF41F20040C4F202000199C3
:1010D000FFF702FF41F60000C4F202000199FFF79A
:1010E000FBFE41F60040C4F202000199FFF7F4FE56
:1010F00042F20000C4F202000199FFF7EDFE4FF446
:10110000804001F099FE02B080BD000040F22C004A
:10111000C2F20000007842F67C61C2F200010A6867
:10112000104408607047000080B503F0D1FB80BD1B
:1011300080B500F003F8FFE7FEE700001EF0040FA3
:101140000CBFEFF30880EFF3098000F001B870479F
:1011500082B00146019040F2C400C2F200000022B9
:10116000C261826142610261C2608260426002606B
:10117000019A12680260019A52684260019A92686C
:101180008260019AD268C260019A12690261019A72
:1011900052694261019A92698261019AD269C2617F
:1011A00001BE009102B0704780B584B00A46034684
:1011B00003908DF80B1003989DF80B10019200938B
:1011C00000F0B6FC04B080BD80B582B0014601904D
:1011D0000198009100F02CFD02B080BD80B582B076
:1011E000014601900198009100F062FD02B080BDBF
:1011F000B0B588B09C4696460C46054607900691C9
:101200000592049307980699059A049BCDF80CC0A3
:10121000CDF808E00194009500F022FE08B0B0BDC2
:1012200080B586B013468C468646059004918DF8AD
:101230000F20059804999DF80F200293CDF804C063
:10124000CDF800E000F0FCFE06B080BD80B586B0B1
:1012500013468C468646059004918DF80F2005981C
:1012600004999DF80F200293CDF804C0CDF800E05A
:1012700000F034FF06B080BD80B584B00A46034656
:1012800003900291039802990192009300F0AAFF43
:1012900004B080BD80B584B00A4603460390029135
:1012A000039802990192009300F0E2FF04B080BD20
:1012B000B0B588B09C4696460C4605460790069108
:1012C0008DF81720ADF81430079806999DF817206F
:1012D000BDF81430CDF810C0CDF80CE002940195A3
:1012E00000F0EEFF08B0B0BD80B586B013468C4666
:1012F0008646059004918DF80F20059804999DF875
:101300000F200293CDF804C0CDF800E001F018FBE7
:1013100006B080BD80B584B00A46034603900291B2
:10132000039802990192009301F0CCFB04B080BDB8
:1013300080B584B00A46034603908DF80B100398DD
:101340009DF80B1001920093FFF72EFF04B080BDB3
:1013500080B582B00146019001980091FFF734FFFB
:1013600002B080BD80B582B0014601900198009125
:10137000FFF734FF02B080BDB0B588B09C469646FA
:101380000C46054607900691059204930798069926
:10139000059A049BCDF80CC0CDF808E001940095A7
:1013A000FFF726FF08B0B0BD80B586B013468C4667
:1013B0008646059004918DF80F20059804999DF8B4
:1013C0000F200293CDF804C0CDF800E0FFF728FF0E
:1013D00006B080BD80B586B013468C468646059023
:1013E00004918DF80F20059804999DF80F20029321
:1013F000CDF804C0CDF800E0FFF728FF06B080BDAF
:1014000080B584B00A46034603900291039802997E
:1014100001920093FFF730FF04B080BD80B584B027
:101420000A460346039002910398029901920093A1
:10143000FFF730FF04B080BDB0B588B09C4696463B
:101440000C460546079006918DF81720ADF814302C
:10145000079806999DF81720BDF81430CDF810C0F4
:10146000CDF80CE002940195FFF722FF08B0B0BD63
:1014700080B58AB013468C468646099008918DF84F
:101480001F2000208DF81E00089906900846069936
:101490000593CDF810C0CDF80CE004F099FF089941
:1014A0004A6E497A9DF81F3001F1010C002B08BFEC
:1014B0008C4612F80C10A1F110010A460B2902907B
:1014C000019244D80199DFE801F0060D14151617B2
:1014D000181F262D343B0998089900F067F88DF8FD
:1014E0001E0038E00998089900F03AF88DF81E00BF
:1014F00031E030E02FE02EE02DE00998089900F06F
:1015000025F98DF81E0026E00998089900F000FAE8
:101510008DF81E001FE00998089900F025FA8DF853
:101520001E0018E00998089900F064F98DF81E0073
:1015300011E00998089900F0D3F88DF81E000AE030
:101540000998089900F084F98DF81E0003E0012045
:101550008DF81E00FFE79DF81E000AB080BD000058
:1015600080B586B00A4603460590049100208DF8A8
:101570000F000598007800280292019307D1FFE739
:1015800005984179FFF7D4FE8DF80F00FFE79DF82D
:101590000F00002806D1FFE70598FFF7D9FE8DF868
:1015A0000F00FFE79DF80F0006B080BD80B586B044
:1015B0000A4603460590049100208DF80F00049818
:1015C000416E807A085C0128029201930AD1FFE7FC
:1015D000059804994A6EC97A515CFFF7A9FE8DF807
:1015E0000F0005E00598FFF7BDFE8DF80F00FFE73F
:1015F0009DF80F0006B080BD80B58CB013468C46B8
:1016000086460A9009918DF8232000208DF822004B
:10161000099800280793CDF818C0CDF814E057D0EA
:10162000FFE70A98002853D0FFE7099804F000FF6D
:10163000012847D1FFE7099804F0B6FE002831D110
:10164000FFE7099804F0BAFE00282BD1FFE70998BC
:101650009DF8231004F0CCFE0A99DDF824E09DF8F3
:101660002320049008467146FFF702FF8DF8220000
:10167000099890F8240001280ED1FFE709980D2160
:1016800004F0A6FE09994FF00A0E03900846714631
:1016900004F09EFE0290FFE70998002104F0B8FED6
:1016A000019009E0099801794A1E48F6CA41C0F63E
:1016B000000106F059F8FFE7099804F027FF8DF8BC
:1016C0002F0009E0099804F02BFF8DF82F0003E0AC
:1016D00002208DF82F00FFE79DF82F000CB080BD91
:1016E00080B586B00A4603460590049100208DF827
:1016F0000F000598007800280292019307D1FFE7B8
:1017000005984179FFF714FE8DF80F00FFE79DF86B
:101710000F00002815D1FFE7059804990A6CC98CC1
:101720001144049A536E927A9A5CFFF73DFE8DF84D
:101730000F000498416E827A895CC28C1144C18486
:10174000FFE79DF80F0006B080BD000080B586B0B1
:101750000A4603460590049100208DF80F00059875
:10176000007800280292019307D1FFE7059841799C
:10177000FFF7DEFD8DF80F00FFE79DF80F00002852
:1017800034D1FFE70498416E807A085C00281ED1AE
:10179000FFE7059804990A6CC98C1144049A536EAA
:1017A000D27A9A5CFFF716FE8DF80F000498416E0E
:1017B000C07A085C002805D0FFE70498C18C01318D
:1017C000C184FFE70498C18C0231C1840DE0059803
:1017D00004990A6CC98C1144FFF720FE8DF80F00A4
:1017E0000498C18C0131C184FFE7FFE79DF80F0029
:1017F00006B080BD80B586B00A46034605900491C8
:1018000000208DF80F0005980078002802920193BF
:1018100007D1FFE705984179FFF78AFD8DF80F00A2
:10182000FFE79DF80F0000280ED1FFE70598049907
:101830000A6CC98C1144FFF7E3FD8DF80F00049882
:10184000C18C0331C184FFE79DF80F0006B080BD55
:1018500080B586B00A4603460590049100208DF8B5
:101860000F00ADF80C000598007800280292019353
:1018700007D1FFE705984179FFF75AFD8DF80F0072
:10188000FFE79DF80F00002821D1FFE70498416E83
:10189000C07A085CADF80C00BDF80C0004994A6EE3
:1018A000897A1144497841EA0020ADF80C00059886
:1018B00004990A6CC98C1144049A536E927A9A5C0A
:1018C000BDF80C30FFF7B8FD8DF80F00FFE79DF86D
:1018D0000F0006B080BD000080B586B00A46034602
:1018E0000590049100208DF80F000599DDF810C0D7
:1018F000029008466146DDF808C0019262460093F6
:10190000FFF77AFE8DF80F009DF80F0006B080BD3E
:1019100080B586B00A4603460590049100208DF8F4
:101920000F000598007800280292019307D1FFE785
:1019300005984179FFF7FCFC8DF80F00FFE79DF853
:101940000F0000280CD1FFE7059804994A6E8B7AA6
:10195000C97A1144D25C00F031F88DF80F00FFE72E
:101960009DF80F0006B080BD80B586B00A460346DC
:101970000590049100208DF80F000598007800284C
:101980000292019307D1FFE705984179FFF7D0FC58
:101990008DF80F00FFE79DF80F0000280AD1FFE740
:1019A000059804994A6EC97A114400F01DF88DF823
:1019B0000F00FFE79DF80F0006B080BD80B586B030
:1019C00013468C468646059004918DF80F200598A5
:1019D00004999DF80F200293CDF804C0CDF800E0E3
:1019E000FFF782FC06B080BD80B584B00A4603468E
:1019F000039002910398029901920093FFF78AFCE9
:101A000004B080BD80B540F21C00C2F20000006846
:101A100000F064FF80BD000080B5002000F05EFF94
:101A200080BD000080B5002000F058FF80BD0000A0
:101A300080B584B0014603900398203001220291C2
:101A4000114603F0A3F8039900224A700399D1F8D4
:101A500014E0896901907046009201F0AFFC009893
:101A600004B080BD80B582B001460190019800228B
:101A700002700198427001980E2383700198C27021
:101A8000019802710198C0F806200198C0F80A2058
:101A9000019840F60043C4F20203436101984FF4F9
:101AA00080438361019840F2004CC4F2020CC0F8FC
:101AB00038C001984FF4805EC0F83CE00198C0F84F
:101AC00030C001984FF4005EC0F834E00198C0F8CF
:101AD00028C00198C3620198C0F820C001984FF453
:101AE00000434362019805230366019843F600030F
:101AF000C4F20003036401984266019880F846200E
:101B0000019880F847201046009102B080BD000087
:101B100082B0014601900020009102B070470000A1
:101B200082B0014601900020009102B07047000091
:101B300080B590B00A4603460E908DF837101220FB
:101B40008DF836000E9881780C920B9300F094FD7E
:101B50000E990A90084600F017FA0990FFE79DF8E1
:101B60003600411E8DF83610002850D0FFE740F2B5
:101B70003000C2F2000000680E996A46002313602C
:101B8000AC224FF0530C0890084611466246DDF82F
:101B900020C0E0470E99097B532907900BD1FFE73E
:101BA0000E98012101709DF837000E9948710020B0
:101BB0008DF83F0037E00E988078032801DBFFE7BF
:101BC000FFE70E98817800F057FD0E99D1F838E0C4
:101BD000C96B0690704601F0F1FB0E98C0690121B7
:101BE00005900846DDF814E00491F0470E98816BEB
:101BF000C06B03900846039901F05AFB0E98C06928
:101C0000049902900846DDF808E0F047A7E70E982F
:101C10004169806901900846019901F0CFFB0120DC
:101C20008DF83F00FFE79DF83F0010B080BD000039
:101C300080B586B00146059000208DF8130040F273
:101C40003002C2F200021268059BEC46CCF800009C
:101C50004FF0AC0C4FF0800E039018460291614695
:101C600001927246039BDDF804C0E0478DF8130033
:101C70009DF81300002817D1FFE705984079002848
:101C80000BD0FFE7059800F0B3FB8DF813009DF82B
:101C9000130080308DF8130005E00598C169C07805
:101CA0000A308847FFE7FFE79DF8130006B080BDC4
:101CB00080B586B00146059005980491FFF7B8FEFF
:101CC00005994FF00D0E81F802E005994FF0FF0ED7
:101CD00081F804E005994FF0000E81F800E00599C5
:101CE00003900846CDF808E000F002FC029901904C
:101CF000084606B080BD00002DE9F04798B00146C7
:101D000017901798203001220C91114602F03EFFE7
:101D1000179920310B90084602F048FF0DA92822A0
:101D20000A9008461146FEF783FA00200D904FF402
:101D300082710E910F90179890F8460000280BD1F1
:101D4000FFE7002010901798016B406B0990084640
:101D5000099901F0ADFA02E002201090FFE7179810
:101D600090F84600002803D1FFE70020119002E020
:101D700001201190FFE74FF400701290382013906B
:101D800000201490159007211691179920310D9A73
:101D90000E9BDDF83CC0DDF840E0119C129D139EC7
:101DA000149FDDF85480DDF85890EA46CAF8189080
:101DB000CAF81480CAF81070CAF80C60CAF8085043
:101DC000CAF80440CAF800E00890084611461A46CE
:101DD000634602F0F5FE179901224A7008990790B0
:101DE000084618B0BDE8F08770B588B0DDF830C09F
:101DF0009E4614460D46064607908DF81B108DF83A
:101E00001A208DF819308DF818C007980021C0F8F5
:101E100006100798C0F80A109DF81B0007998871F2
:101E20009DF81A000799C8719DF819000799087262
:101E30009DF8180007994872079800F12001821D4B
:101E40000A300423059008461146059ACDF810E0A3
:101E500003940295019602F001FF08B070BD0000E6
:101E6000B0B594B09C4696460C460546129011912A
:101E700010920F9312980028CDF820C0CDF81CE0E6
:101E8000069405950ED0FFE7129840F21C01C2F2AD
:101E900000010968884205D1FFE71298FFF7E2FDCB
:101EA00004901FE01298002809D0FFE7129800283C
:101EB00005D1FFE71298FFF72BFE039011E012986F
:101EC000002809D0FFE71298002805D1FFE71298F3
:101ED000FFF726FE029003E001208DF84F004FE04F
:101EE000FFE7FFE71098002804D0FFE71098129949
:101EF000C86106E0129840F62D61C0F60001C1618C
:101F0000FFE71198002804D0FFE71198129988661E
:101F100006E0129840F64161C0F600018166FFE7D5
:101F20000F981299C86612984069002824D0FFE7DC
:101F30001298406901210191FEF7BAFF00200E902E
:101F40000D900C900B900A90099001990A910B91B9
:101F50000C900D910E90129880690990129840692A
:101F600009A901F009F91299D1F814E089690090E2
:101F7000704601F023FAFFE700208DF84F00FFE7DD
:101F80009DF84F0014B0B0BD80B58EB001460D90E5
:101F90000D98826BC06B01230C9010460C9A0B912C
:101FA00011461A460A9301F059FA0D98016B406BDD
:101FB00009900846099901F07BF90D98816BC06B77
:101FC00008900846089901F073F90D98016B406B71
:101FD00007900846079901F06BF90D98816BC06B6B
:101FE00006900846069901F063F90D98C0690A99B0
:101FF00005900846059A90470D98816BC06B049038
:102000000846049901F0DAF90D98C0690A9903901D
:102010000846039A90470D98816BC06B0290084662
:10202000029901F045F90D98C0690A990190084696
:10203000019A90470D98FF21017100200EB080BDDC
:1020400080B588B013468C468646079006918DF879
:10205000172000208DF816008DF815000493CDF898
:102060000CC0CDF808E0FFE79DF815009DF81710AB
:1020700088422FDAFFE740F23000C2F20000006829
:1020800007999DF815306A464FF0000CC2F800C061
:1020900038220190084611466246DDF804C0E04748
:1020A0008DF816009DF81600002806D0FFE79DF871
:1020B000150002308DF816000CE00798407B069959
:1020C0009DF815208854FFE79DF8150001308DF824
:1020D0001500C9E79DF8160008B080BDB0B58CB0FA
:1020E00013468C4686460A9009918DF823200020DD
:1020F0008DF8220040F23001C2F2000109680A9A0C
:102100006C46206050240790104606912146079A9D
:10211000079C05932346069DCDF810C0CDF80CE032
:10212000A8478DF822009DF82200002804D0FFE780
:1021300002208DF82F0051E00A98407B09994A1C33
:102140000992087040F23000C2F2000000680A995B
:102150006A460023136058224FF0080C029008468C
:1021600011466246DDF808C0E0478DF822009DF870
:102170002200002804D0FFE703208DF82F002DE077
:102180000A98407B09994A1C099208709DF823001F
:1021900000281AD0FFE740F23000C2F200000068C9
:1021A0000A996A460023136050224FF0080C0190F0
:1021B000084611466246DDF804C0E0478DF822006B
:1021C0000A98407B0999087003E00998FF21017083
:1021D000FFE79DF822008DF82F00FFE79DF82F0004
:1021E0000CB0B0BD80B588B00A4603460790069192
:1021F00000208DF817008DF8160004920393FFE776
:102200009DF8160002282FDCFFE740F23000C2F2F2
:102210000000006807999DF816306A464FF0000CE0
:10222000C2F800C030220290084611466246DDF82E
:1022300008C0E0478DF817009DF81700002806D069
:10224000FFE79DF8160002308DF817000CE00798A4
:10225000407B06999DF816208854FFE79DF81600EC
:1022600001308DF81600CBE79DF8170008B080BD4F
:1022700080B588B00A4603460790069140F23000C8
:10228000C2F2000000680799EC464FF0000ECCF84F
:1022900000E04FF0580C04900846614603927246E5
:1022A00002937346DDF810C0E0478DF817000798D9
:1022B000407B069908709DF8170008B080BD0000AB
:1022C000B0B58CB09C4696460C4605460A900991DE
:1022D0008DF82320ADF8203000208DF81F008DF8F8
:1022E0001E00BDF82000C0070028CDF818C0CDF8AA
:1022F00014E00494039504D0FFE702208DF82F002A
:1023000071E0BDF820004008ADF8200000208DF8F5
:102310001E00FFE79DF81E00BDF8201088425DDA20
:10232000FFE740F23000C2F2000000680A999DF811
:1023300023209DF81E301A446B464FF0000CC3F862
:1023400000C0D3B230220290084611466246DDF842
:1023500008C0E0478DF81F009DF81F00002804D03A
:10236000FFE703208DF82F003DE00A98407B099994
:102370004A1C09920870FFE740F23000C2F20000E8
:1023800000680A999DF823209DF81E301A446B4678
:102390004FF0000CC3F800C0D3B2382201900846B9
:1023A00011466246DDF804C0E0478DF81F009DF835
:1023B0001F00002804D0FFE704208DF82F0012E052
:1023C0000A98407B09994A1C09920870FFE7FFE7C9
:1023D0009DF81E0001308DF81E009BE79DF81F0040
:1023E0008DF82F00FFE79DF82F000CB0B0BD000066
:1023F00080B58CB001460B9000208DF82B00099021
:102400000890079006900B98C06E0028059105D0A3
:10241000FFE70B98C06E80470890FFE7FFE740F2A8
:102420003000C2F2000000680B996A460023136076
:10243000F0220490084611461A46DDF810C0E04725
:102440008DF82B009DF82B00002801D0FFE74BE012
:102450000B98407BC007002804D1FFE700208DF8CF
:102460002B0041E00B98C06E002827D0FFE70B98A7
:10247000C06E804709900998DDF820E0704508D2C9
:10248000FFE70898C0430999084400210791069086
:1024900006E009980899401A002107910690FFE785
:1024A00006980799653871F100010390029104D3F1
:1024B000FFE702208DF82B0016E00FE009980130AD
:1024C0000990099848F2A161C0F20101884204D341
:1024D000FFE703208DF82B0006E0FFE7FFE7FFE7AB
:1024E00000F038FB01909AE79DF82B000CB080BDFE
:1024F00080B586B00146049004980028039111D05D
:10250000FFE7049840F21C01C2F20001096888420A
:1025100008D1FFE741F60520C0F6000003F0B2FA4B
:10252000029025E0049800280CD0FFE704980028CA
:1025300008D1FFE741F61920C0F6000003F0A2FA27
:10254000019014E0049800280CD0FFE704980028BC
:1025500008D1FFE741F62520C0F6000003F092FA0B
:10256000009003E001208DF8170005E0FFE7FFE78A
:1025700000208DF81700FFE79DF8170006B080BD1A
:1025800080B588B001460790079820300122069157
:10259000114602F0FBFA079920310590084602F037
:1025A00085FB079991F846100029049009D1FFE7AF
:1025B0000798016B406B03900846039900F078FE82
:1025C00008E00798016B406B02900846029900F002
:1025D000F5FEFFE70798016A406A019008460199F5
:1025E00000F066FE0798816AC06A0090084600996C
:1025F00000F05EFE079801214170002008B080BD08
:1026000070B588B0DDF830C09E4614460D460646CB
:1026100007908DF81B108DF81A208DF819308DF861
:1026200018C007980021C0F806100798C0F80A10D3
:102630009DF81B00079988719DF81A000799C871C9
:102640009DF81900079908729DF8180007994872BB
:10265000079800F12001821D0A30042305900846E6
:102660001146059ACDF810E003940295019602F008
:1026700035FB08B070BD000080B58CB00A4603463B
:102680000B908DF82B109DF82B0001380146112876
:1026900009920893079100F2A8800799DFE801F0FA
:1026A00009131D262F38414A535C656D757D858D54
:1026B000959D0B98002180F845100B984FF47A7186
:1026C000A0F85A1099E00B98002180F845100B985B
:1026D0004FF4FA71A0F85A108FE00B98002180F89F
:1026E00045100B98FA21A0F85A1086E00B980021AB
:1026F00080F845100B987D21A0F85A107DE00B98CA
:10270000002180F845100B984021A0F85A1074E081
:102710000B98002180F845100B982021A0F85A1042
:102720006BE00B98002180F845100B981021A0F861
:102730005A1062E00B98002180F845100B98082190
:10274000A0F85A1059E00B98002180F845100B981A
:102750000421A0F85A1050E00B98002180F8451091
:102760000B980221A0F85A1047E00B98012180F83D
:1027700045100B983821C1653FE00B98012180F886
:1027800045100B983021C16537E00B98012180F886
:1027900045100B982821C1652FE00B98012180F886
:1027A00045100B982021C16527E00B98012180F886
:1027B00045100B981821C1651FE00B98012180F886
:1027C00045100B981021C16517E00B98012180F886
:1027D00045100B980821C1650FE00B98012180F886
:1027E00045100B980021C16507E00B98012180F886
:1027F00045100B983821C165FFE70B9890F845000C
:10280000012834D1FFE70B98407800280CD0FFE76F
:1028100040F23000C2F20000006842F20161C0F6EE
:102820000001884205D1FFE70B98FFF765FA069093
:10283000FFE70B9880780F2804DBFFE70B98202137
:10284000C165FFE70B9800F12001C06D05900846B7
:10285000059902F01DFA40F23001C2F2000141F682
:10286000E95EC0F6000EC1F800E004902BE00B9882
:10287000407800280CD0FFE740F23000C2F20000A0
:10288000006841F6E951C0F60001884205D1FFE732
:102890000B98FFF775FE0390FFE70B9800F12001FE
:1028A000B0F85A0002900846029902F009FA40F284
:1028B0003001C2F2000142F2016EC0F6000EC1F812
:1028C00000E00190FFE70B9841698069009008469D
:1028D000009900F0EDFC00200CB080BD80B586B002
:1028E0000146059000200490039005980078002888
:1028F000029123D0FFE70598C06E804704900598A9
:102900000069DDF810E0704507D9FFE70498C0437F
:10291000059909690844039005E004980599096937
:10292000401A0390FFE70398B0F5FA7F05D9FFE757
:102930000598FFF7BDF90190FFE7FFE706B080BDFE
:10294000B0B58CB013468C4686460A9009918DF836
:10295000232000208DF8220040F23001C2F2000155
:1029600009680A9A099C24786D462C60AC24A0253D
:1029700007901046069121462A46079C0593234658
:10298000069DCDF810C0CDF80CE0A8478DF82200C8
:102990009DF82200002804D0FFE702208DF82F00C8
:1029A0008BE00A98407900280BD0FFE70A98FFF7E0
:1029B0001FFD8DF822009DF8220080308DF8220046
:1029C00005E00A98C169C07806308847FFE740F201
:1029D0003000C2F2000000680A99099A52786B46EA
:1029E0001A60AC22A8234FF0000C02900846114652
:1029F0001A466346DDF808C0E0478DF822009DF8CE
:102A00002200002804D0FFE703208DF82F0054E0B7
:102A10000A98407900280BD0FFE70A98FFF7E8FCF6
:102A20008DF822009DF8220080308DF8220005E00C
:102A30000A98C169C07806308847FFE79DF82300EF
:102A4000002835D0FFE740F23000C2F200000068F5
:102A50000A99099A92786B461A60AC22A4234FF027
:102A6000000C0190084611461A466346DDF804C082
:102A7000E0478DF822009DF82200002817D1FFE7DB
:102A80000A98407900280BD0FFE70A98FFF7B0FCBE
:102A90008DF822009DF8220080308DF8220005E09C
:102AA0000A98C169C07806308847FFE7FFE7FFE76B
:102AB0009DF822008DF82F00FFE79DF82F000CB045
:102AC000B0BD000010B588B00A46034607900691D5
:102AD00040F23000C2F2000000680799DDF818C02B
:102AE0009CF800C0EE46CEF800C04FF0AC0C4FF0A2
:102AF000E00E002404900846614603927246029359
:102B00002346DDF810C0E0478DF817009DF8170048
:102B1000002817D1FFE70798407900280BD0FFE77E
:102B20000798FFF765FC8DF817009DF817008030B7
:102B30008DF8170005E00798C169C078063088470E
:102B4000FFE7FFE79DF8170008B010BD80B500F063
:102B500005F880BD80B5FFF7F9FF80BD80B543F271
:102B60000000C4F2000000F011FD002080BD000054
:102B700082B001460190019843F63002C4F202028D
:102B8000136823EA00001060009102B07047000053
:102B900084B001460390039843F63002C4F2020267
:102BA0001368184310601068039A1040029002984E
:102BB0000191009004B0704784B0014603900398DF
:102BC00043F63002C4F20202136818431060106822
:102BD000039A1040029002980191009004B070474F
:102BE00082B001460190019843F61002C4F202023D
:102BF000136818431060009102B0704782B001461C
:102C00000190019843F61002C4F20202136823EA0D
:102C100000001060009102B07047000084B00146CF
:102C20000390039843F63402C4F202021368184377
:102C300010601068039A1040029002980191009071
:102C400004B0704782B001460190019843F6140227
:102C5000C4F20202136818431060009102B070477A
:102C600082B001460190019843F61402C4F20202B8
:102C7000136823EA00001060009102B07047000062
:102C800082B001460190019843F64002C4F202026C
:102C9000136823EA00001060009102B07047000042
:102CA00082B001460190019843F64002C4F202024C
:102CB000136823EA00001060009102B07047000022
:102CC00082B001460190019843F64002C4F202022C
:102CD000136823EA00001060009102B07047000002
:102CE00084B001460390039843F64002C4F2020206
:102CF0001368184310601068039A104002900298FD
:102D00000191009004B0704784B00146039003988D
:102D100043F64002C4F202021368184310601068C0
:102D2000039A1040029002980191009004B07047FD
:102D300084B001460390039843F64002C4F20202B5
:102D40001368184310601068039A104002900298AC
:102D50000191009004B0704784B00146039003983D
:102D600043F64002C4F20202136818431060106870
:102D7000039A1040029002980191009004B07047AD
:102D800082B001460190019843F62002C4F202028B
:102D9000136818431060009102B0704782B001467A
:102DA0000190019843F62002C4F20202136818430E
:102DB0001060009102B0704782B001460190019806
:102DC00043F62002C4F20202136823EA00001060F6
:102DD000009102B07047000082B001460190019856
:102DE00043F62002C4F20202136823EA00001060D6
:102DF000009102B07047000082B001460190019836
:102E000043F64402C4F20202136823EA0000106091
:102E1000009102B07047000082B001460190019815
:102E200043F64402C4F20202136823EA0000106071
:102E3000009102B07047000084B0014603900398EF
:102E400043F64402C4F2020213681843106010688B
:102E5000039A1040029002980191009004B07047CC
:102E600084B001460390039843F64402C4F2020280
:102E70001368184310601068039A1040029002987B
:102E80000191009004B0704784B00146039003980C
:102E900043F64402C4F2020213681843106010683B
:102EA000039A1040029002980191009004B070477C
:102EB00082B001460190019843F62402C4F2020256
:102EC000136818431060009102B0704782B0014649
:102ED0000190019843F62402C4F2020213681843D9
:102EE0001060009102B0704782B0014601900198D5
:102EF00043F62402C4F20202136823EA00001060C1
:102F0000009102B07047000082B001460190019824
:102F100043F62402C4F20202136823EA00001060A0
:102F2000009102B07047000080B584B00146039064
:102F300000208DF80B00039843F20002C4F2020255
:102F40009042019109D1FFE74FF480500090FFF7C4
:102F500047FE0098FFF752FE03E001208DF80B00BA
:102F6000FFE79DF80B0004B080BD000084B00A4666
:102F7000034603900291029803990860019200931E
:102F800004B0704782B0014601900198006800913A
:102F900002B0704782B0014601900198826842F009
:102FA00001028260009102B07047000080B587B0D6
:102FB00013468C468646069005910492069805991C
:102FC00001F4702100EB9130083003900398006801
:102FD00040F6FF71884304990843039908600293FF
:102FE000CDF804C0CDF800E007B080BD84B00A463B
:102FF000034603900291029800F01000012101FAAB
:1030000000F00399D1F800C040EA0C00086001927A
:10301000009304B07047000080B588B013468C461A
:10302000864607900691059200208DF813000598BA
:10303000406800280393CDF808C0CDF804E001D023
:10304000FFE7FFE70798069900F03EF8002833D124
:10305000FFE70598406800281BD0FFE70798006845
:10306000069901F0100140F6FA728A409043059AE1
:103070001368D2F804C0D2F808E0D26843EA0C031F
:1030800043EA0E031A4302FA01F108430799086064
:1030900011E007980068069901F01001FA228A40B1
:1030A0009043059A1368D2681A4302FA01F1084363
:1030B00007990860FFE703E001208DF81300FFE7A0
:1030C0009DF8130008B080BD84B00A460346039003
:1030D000029103980068029901F010014FF0010C71
:1030E0000CFA01F10840002818BF0120019200935A
:1030F00004B0704782B001460190019843F6144233
:10310000C4F201021060009102B0704743F6004023
:10311000C4F20200016841F4806101607047000060
:1031200043F60040C4F20200016841F400710160FE
:103130007047000043F60040C4F20200016841F409
:10314000807101607047000043F60040C4F2020045
:10315000006800F00F00704782B00146019043F60E
:103160000040C4F20200026822F00F02019B1A43E1
:103170000260009102B0704780B588B00A460346ED
:10318000079006910020059004900698006890FA38
:10319000A0F0B0FA80F0059003920293FFE7069842
:1031A00000680599C84000284AD0FFE706980068E3
:1031B0000599012202FA01F10840049004980028C0
:1031C0003AD0FFE707980499069A526800F026F96A
:1031D00006984068012805D0FFE706984068022855
:1031E00007D1FFE707980499069A926800F0AEF9B4
:1031F000FFE707980499069A126900F087F9069884
:103200004068022817D1FFE7049890FAA0F0B0FABE
:1032100080F0072807D8FFE707980499069A5269B3
:1032200000F07EF806E007980499069A526900F0CB
:1032300097F8FFE7FFE7FFE7059801300590AEE755
:1032400006984068012805D0FFE7069840680228E4
:103250000AD1FFE7079806990A68C96801911146E3
:10326000019A00F03BF9FFE7002008B080BD0000A4
:1032700084B00A46034603900291039800690299BC
:103280000840401AB0FA80F040090192009304B05F
:103290007047000084B00A460346039002910298EA
:1032A0000004039988610192009304B07047000004
:1032B00084B00A46034603900291029800040399E1
:1032C00088610192009304B07047000084B00A4600
:1032D00003460390029102980004039988610192C9
:1032E000009304B07047000084B00A460346039080
:1032F000029102980004039988610192009304B03E
:103300007047000084B00A46034603900291029879
:103310000004039988610192009304B07047000093
:1033200080B586B013468C4686460590049103927C
:103330000598006A049991FAA1F1B1FA81F1890026
:103340000F228A409043039A02FA01F1084305993B
:1033500008620293CDF804C0CDF800E006B080BD4D
:1033600080B586B013468C4686460590049103923C
:103370000598406A0499090A91FAA1F1B1FA81F11C
:1033800089000F228A409043039A02FA01F1084310
:10339000059948620293CDF804C0CDF800E006B06C
:1033A00080BD000084B00A46034603900291029853
:1033B000039988610192009304B0704784B00A4673
:1033C0000346039002910298039988610192009349
:1033D00004B0704784B00A460346039002910298F5
:1033E000039988610192009304B0704784B00A4643
:1033F0000346039002910298039988610192009319
:1034000004B0704784B00A460346039002910298C4
:10341000039988610192009304B0704780B586B02B
:1034200013468C46864605900491039205980068E1
:10343000049991FAA1F1B1FA81F1490003228A407D
:103440009043039A02FA01F1084305990860029338
:10345000CDF804C0CDF800E006B080BD80B586B0E0
:1034600013468C46864605900491039205980068A1
:10347000049991FAA1F1B1FA81F1490003228A403D
:103480009043039A02FA01F10843059908600293F8
:10349000CDF804C0CDF800E006B080BD80B586B0A0
:1034A00013468C4686460590049103920598006861
:1034B000049991FAA1F1B1FA81F1490003228A40FD
:1034C0009043039A02FA01F10843059908600293B8
:1034D000CDF804C0CDF800E006B080BD80B586B060
:1034E00013468C46864605900491039205984068E1
:1034F00004998843039A514308430599486002930D
:10350000CDF804C0CDF800E006B080BD80B586B02F
:1035100013468C4686460590049103920598C06830
:10352000049991FAA1F1B1FA81F1490003228A408C
:103530009043039A02FA01F108430599C860029387
:10354000CDF804C0CDF800E006B080BD80B586B0EF
:1035500013468C4686460590049103920598806830
:10356000049991FAA1F1B1FA81F1490003228A404C
:103570009043039A02FA01F1084305998860029387
:10358000CDF804C0CDF800E006B080BD82B00146A1
:10359000019001984AF6AA220260009102B0704799
:1035A00084B00A4603460390029103980299B0FB47
:1035B000F1F001384EF21401CEF2000108604EF233
:1035C0001800CEF20000002101604EF21000CEF291
:1035D0000000052101600192009304B070470000D3
:1035E00047F20000C4F20000016841F480710160FC
:1035F0007047000047F20400C4F200000068C0F306
:103600008000704782B00146019047F20000C4F28A
:103610000000026822F48042019B1A43026000917C
:1036200002B0704743F60800C4F20200006800F0E0
:10363000F000704743F60800C4F20200006800F48E
:10364000E050704743F60800C4F20200006800F43E
:103650006040704743F60800C4F20200006800F0C2
:103660000C00704743F60800C4F20200006800F046
:103670000C00704780B582B001460190009101F0C6
:103680009BF8019908600198006801F057F80199CA
:1036900048600198406801F067F8019988600198D6
:1036A000406801F075F80199C86002B080BD000063
:1036B00043F60000C4F20200016841F48031016069
:1036C0007047000043F60000C4F202000068C0F337
:1036D0004040704743F67400C4F20200016841F0B4
:1036E000010101607047000043F67400C4F202005B
:1036F0000068C0F340007047B0B588B09C4696465D
:103700000C460546079006910592049343F6040083
:10371000C4F20200016848F20002CFF6BF72114005
:10372000079A069B1A43059B42EA831211430160E4
:10373000016821F44031049A11430160CDF80CC0B6
:10374000CDF808E00194009508B0B0BD43F6000044
:10375000C4F20200016841F080710160704700000E
:1037600043F60400C4F20200006800F03F00704716
:1037700043F60400C4F20200006800F480007047C1
:1037800043F60400C4F202000068C0F388107047DA
:1037900043F60400C4F20200006800F440307047B1
:1037A00043F60000C4F202000068C0F340607047B6
:1037B00082B00146019043F60800C4F2020002689C
:1037C00022F0F002019B1A430260009102B07047A0
:1037D00082B00146019043F60800C4F2020002687C
:1037E00022F4E052019B1A430260009102B070473C
:1037F00082B00146019043F60800C4F2020002685C
:1038000022F46042019B1A430260009102B07047AB
:1038100082B00146019043F60800C4F2020002683B
:1038200022F00302019B1A430260009102B070472C
:1038300082B00146019001986FF020024260009131
:1038400002B0704782B00146019001986FF04002CB
:103850004260009102B0704780B584B00146039089
:10386000402002900191FFF7EDF90298FFF7F8F977
:10387000002004B080BD000082B001460190019894
:10388000026822F004020260009102B0704700005A
:1038900082B0014601900198026842F00402026081
:1038A000009102B07047000082B00146019001987B
:1038B000026842F008020260009102B07047000006
:1038C00082B00146019001984068C0F34010009119
:1038D00002B0704782B0014601900198406800F044
:1038E0000100009102B0704782B00146019001983A
:1038F0004068C0F38010009102B0704782B001466A
:10390000019001988068009102B0704780B586B040
:103910000146059001208DF81300059843F200023E
:10392000C4F20102904203910CD1FFE74FF48050A2
:103930000290FFF7BDFA0298FFF7D6FA00208DF843
:103940001300FFE7059843F60001C4F20001884226
:103950000CD1FFE74FF480400190FFF711FA019876
:10396000FFF72AFA00208DF81300FFE7059843F6C9
:103970000041C4F2000188420CD1FFE74FF400403F
:103980000090FFF7FDF90098FFF716FA00208DF878
:103990001300FFE79DF8130006B080BD82B001461A
:1039A00001900198026842F040020260009102B06A
:1039B0007047000080B586B00A4603460590049122
:1039C00001208DF80F0005980292019300F058F83D
:1039D000002837D1FFE7059800684FF6BF7188438C
:1039E00004990A684B68D1F808C0D1F80CE01A4372
:1039F00042EA0C0242EA0E020B691A434B691A436F
:103A00008B691A43CB691A43096A11430843059924
:103A100008600598406820F004000499C98A0843AA
:103A2000059948600498006AB0F5005F06D1FFE789
:103A300005980499496A00F049F8FFE700208DF8DD
:103A40000F00FFE70598C16921F40061C1619DF88D
:103A50000F0006B080BD000082B0014601900198C1
:103A6000806800F00100009102B0704782B001460A
:103A7000019001988068C0F34000009102B0704747
:103A800082B00146019001980068C0F38010009157
:103A900002B0704782B0014601900198C068C0B280
:103AA000009102B07047000084B00A4603460390BC
:103AB00002910398006820F03800029908430399A6
:103AC00008600192009304B07047000084B00A4679
:103AD000034603900291BDF8080003990861019222
:103AE000009304B07047000084B00A460346039078
:103AF00002910398406820F010000299084303994E
:103B000048600192009304B07047000085B00A46F7
:103B1000034604908DF80F1004980C3002909DF825
:103B20000F00029908700192009305B070470000E1
:103B300082B00146019001980428009109D1FFE765
:103B40004EF21000CEF20000016841F00401016065
:103B500008E04EF21000CEF20000016821F00401EE
:103B60000160FFE702B0704782B001460190019802
:103B700040F20002C2F200021060009102B07047F1
:103B800085B0014604900498006803900398049A55
:103B900052680392039A02910190009205B0704717
:103BA00085B0014604900498006803900398049A35
:103BB00052680392039A02910190009205B07047F7
:103BC00082B00146019001986FF48072026000910A
:103BD00002B0704785B001460490049800680390D5
:103BE0000398049A52680392039A029101900092FA
:103BF00005B0704785B001460490049800680390B2
:103C00000398049A52680392039A029101900092D9
:103C100005B0704785B00146049004980068039091
:103C20000398049A52680392039A029101900092B9
:103C300005B0704782B00146019001986FF02002F4
:103C40000260009102B0704782B001460190019875
:103C50006FF040020260009102B0704782B00146EE
:103C6000019001986FF400720260009102B07047F9
:103C700082B0014601900198026922F490420261EB
:103C80000198426922F02A024261009102B0704715
:103C900080B58AB00146099000208DF8230009986C
:103CA00041F20002C4F201029042079108D1FFE7FD
:103CB00010200690FFF70AF90698FFF725F95CE057
:103CC000099844F20041C4F20001884209D1FFE79B
:103CD0004FF400300590FFF761F80598FFF77CF886
:103CE0004AE0099844F60001C4F20001884209D173
:103CF000FFE74FF480200490FFF750F80498FFF797
:103D00006BF838E0099841F20041C4F201018842A1
:103D100008D1FFE720200390FFF7D8F80398FFF7BA
:103D2000F3F827E0099844F60041C4F20001884204
:103D300009D1FFE74FF400200290FFF72FF8029817
:103D4000FFF74AF815E0099845F20001C4F20001B6
:103D5000884209D1FFE74FF480100190FFF71EF869
:103D60000198FFF739F803E001208DF82300FFE701
:103D7000FFE7FFE7FFE7FFE7FFE79DF823000AB053
:103D800080BD000082B0014601900198C26822F017
:103D90004002C260009102B07047000082B001464C
:103DA00001900198C26822F08002C260009102B0C6
:103DB0007047000082B0014601900198C26842F449
:103DC0000052C260009102B07047000082B001460C
:103DD00001900198C26842F02002C260009102B0D6
:103DE0007047000082B0014601900198C26842F01D
:103DF0004002C260009102B07047000082B00146EC
:103E000001900198C26842F08002C260009102B045
:103E10007047000080B58AB00A46034609900891B1
:103E200001208DF81F000020069009980192009350
:103E300000F0E8F800287CD1FFE70998C06849F253
:103E40000C61884308994A68CB68D1F810C0896929
:103E50001A4342EA0C02114308430999C8600998C1
:103E60000899896800F0AAF909980899496900F049
:103E700093F902A8FFF7FEFB099841F20001C4F292
:103E80000101884203D1FFE7059806903CE00998BC
:103E900044F20041C4F20001884203D1FFE70498D4
:103EA000069030E0099844F60001C4F2000188420F
:103EB00003D1FFE70498069024E0099841F20041FD
:103EC000C4F20101884203D1FFE70598069018E08B
:103ED000099844F60041C4F20001884203D1FFE78B
:103EE000049806900CE0099845F20001C4F2000124
:103EF000884203D1FFE70498069000E0FFE7FFE760
:103F0000FFE7FFE7FFE7FFE70698002810D0FFE78D
:103F10000898006800280BD0FFE700208DF81F00EC
:103F200009980699089A1368926900F0CFF8FFE79C
:103F3000FFE79DF81F000AB080BD000082B0014677
:103F4000019001980068C0F34000009102B07047F2
:103F500082B00146019001980068C0F30010009102
:103F600002B0704782B00146019001980068C0F32A
:103F70000020009102B0704782B001460190019884
:103F80000068C0F38000009102B0704782B0014623
:103F9000019001980068C0F3C000009102B0704722
:103FA00082B0014601900198006800F00100009184
:103FB00002B0704782B00146019001980068C0F3DA
:103FC0004010009102B0704782B001460190019804
:103FD0000068C0F38010009102B0704782B00146C3
:103FE000019001980068C0B2C009009102B070470A
:103FF00082B00146019001980068C0F34020009112
:1040000002B0704782B0014601900198C068C0F3C9
:104010004030009102B0704782B001460190019893
:104020004069C0F38020009102B0704782B0014621
:1040300001900198406900F00100009102B07047C2
:1040400082B0014601900198C068C0F30010009151
:1040500002B0704782B00146019001980069C0F338
:104060008010009102B0704782B001460190019823
:10407000C068C0F30020009102B0704782B00146D2
:1040800001900198C068C0F34010009102B07047E1
:1040900082B0014601900198C068C0F38010009181
:1040A00002B0704782B0014601900198C068C0B26A
:1040B000C009009102B0704782B00146019001989A
:1040C0004068C0B2009102B070470000B0B58CB03B
:1040D0009C4696460C4605460B900A910992089319
:1040E0000998B0F5004FCDF81CC0CDF818E0059444
:1040F000049527D1FFE70A981921484308994900F8
:10410000B0FBF1F048F21F51C5F2EB11A0FB012307
:104110005B094FEA031C4FF0640E03FB1E003223C1
:1041200003EBC000A0FB0101F82303EA51130CEBE1
:104130004303C1F34211194489B20B9B9960039266
:10414000029026E00A981921484308998900B0FB9B
:10415000F1F048F21F51C5F2EB11A0FB01235B09FE
:104160004FF0640C03FB1C004FF0320C0CEB001002
:10417000A0FB01014FF0F00C0CEA511C0CEB0313F7
:10418000C1F34311194489B20B9B996001920090CD
:10419000FFE70CB0B0BD000084B00A4603460390B0
:1041A00002910398406920F44070029908430399F2
:1041B00048610192009304B07047000084B00A4641
:1041C0000346039002910398006920F4405002993D
:1041D0000843039908610192009304B070470000FE
:1041E00084B00A46034603908DF80B109DF80B002F
:1041F000039948600192009304B0704782B0014671
:10420000019001986FF001028260009102B0704746
:1042100080B584B00A4603468DF80F0002919DF8E0
:104220000F0002990192009300F012F804B080BDD3
:1042300080B584B00A4603468DF80F0002919DF8C0
:104240000F00029901920093FFF7E2FF04B080BDD6
:1042500080B594B00A4603468DF84F00129141F2A2
:104260000000C4F2020001210B900A910992089308
:10427000FCF71EFE0B980A99FCF71AFE002011901D
:1042800010900F900E900D900C900A990D910E9138
:104290000F901091119010200C900CAA0B9B07907E
:1042A000184611460692FEF767FF0B9905900846DF
:1042B0000799FFF70BF808200C900B99049008461B
:1042C0000699FEF759FF0B99039008460499FEF7EB
:1042D000FDFF129800F024F89DF84F10012902907C
:1042E0000DD1FFE741F20000C4F202000821019065
:1042F000FEF7ECFF10210198FFF76CF80CE041F29B
:104300000000C4F2020010210090FEF7DFFF082138
:104310000098FEF7DBFFFFE7002014B080BD00002F
:1043200080B584B001460390039841F271729042C7
:10433000029104D3FFE741F2707003900AE0039802
:1043400040F2DB51884204D8FFE740F2DC50039092
:10435000FFE7FFE70398A0F2EC40039003984008C2
:10436000039003990120FCF7A1FB0021019008466E
:1043700004B080BDFFE7FEE780B582B040F20800E0
:10438000C2F20000C16800224FF420730190084679
:10439000114600921A4600F00DF8019880684FF41B
:1043A0002052009900F006F801200199087402B02B
:1043B00080BD000080B587B013468C4686460690C7
:1043C0008DF817100492069803900293CDF804C05C
:1043D000CDF800E0FFE70498411E0491002807D0C3
:1043E000FFE79DF8170003994A1C03920870F2E753
:1043F00007B080BD83B0002002900190FFE70198D4
:104400008009042814D8FFE740F20800C2F2000037
:10441000C068019930F81100002804D0FFE7029825
:1044200001300290FFE7FFE7019801300190E6E7D5
:104430000298642148434CF6CD41CCF6CC41A0FB18
:104440000101C1F307210090084603B07047000046
:104450007047000080B58BB013468C4686460A90A4
:10446000099108920A9800F0070007900798C0F198
:10447000070005280493CDF80CC0CDF808E003D35D
:10448000FFE70420019004E00798C0F107000190C5
:10449000FFE70198069007980430062803D8FFE745
:1044A0000020009003E0079803380090FFE7009891
:1044B000059009980699012202FA01F10139084094
:1044C00005998840089B02FA01F101391940084317
:1044D0000BB080BD80B58BB013468C4686460A90E3
:1044E000099108920A9800F0070007900798C0F118
:1044F000070005280493CDF80CC0CDF808E003D3DD
:10450000FFE70420019004E00798C0F10700019044
:10451000FFE70198069007980430062803D8FFE7C4
:104520000020009003E0079803380090FFE7009810
:10453000059009980699012202FA01F10139084013
:1045400005998840089B02FA01F101391940084396
:104550000BB080BD80B58BB013468C4686460A9062
:10456000099108920A9800F0070007900798C0F197
:10457000070005280493CDF80CC0CDF808E003D35C
:10458000FFE70420019004E00798C0F107000190C4
:10459000FFE70198069007980430062803D8FFE744
:1045A0000020009003E0079803380090FFE7009890
:1045B000059009980699012202FA01F10139084093
:1045C00005998840089B02FA01F101391940084316
:1045D0000BB080BD80B58BB013468C4686460A90E2
:1045E000099108920A9800F0070007900798C0F117
:1045F000070005280493CDF80CC0CDF808E003D3DC
:10460000FFE70420019004E00798C0F10700019043
:10461000FFE70198069007980430062803D8FFE7C3
:104620000020009003E0079803380090FFE700980F
:10463000059009980699012202FA01F10139084012
:1046400005998840089B02FA01F101391940084395
:104650000BB080BD80B588B0032003F03BFC03F0B5
:1046600081FB4FF0000E71467246CDF81CE0FFF75B
:10467000F1FE6FF00B0106900846069903F092FBDD
:1046800003F070FB0799079AFFF7E4FE6FF00A0149
:1046900005900846059903F085FB03F063FB079935
:1046A000079AFFF7D7FE6FF00901049008460499B6
:1046B00003F078FB03F056FB0799079AFFF7CAFE51
:1046C0006FF0040103900846039903F06BFB03F0BD
:1046D00049FB0799079AFFF7BDFE6FF003010290AF
:1046E0000846029903F05EFB03F03CFB0799079A2A
:1046F000FFF7B0FE6FF0010101900846019903F049
:1047000051FB08B080BD000080B500F013F880BDFB
:1047100080B5FFF7F9FF80BD80B54FF48030FEF71C
:10472000E9FCFEF767FF002803D0FFE7FFF7F0FF83
:10473000FFE780BD704700007047000080B584B07F
:1047400001460390039802910190FEF76BFFC0B2FF
:10475000000948F69801C0F60001085C019921FAA9
:1047600000F004B080BD000080B584B00146039025
:10477000039802910190FEF75DFF800A48F6A801B8
:10478000C0F60001085C019921FA00F004B080BD78
:1047900080B584B001460390039802910190FEF722
:1047A00051FF400B48F6A801C0F60001085C0199D2
:1047B00021FA00F004B080BD80B582B000200190E5
:1047C000FEF748FF86460028CDF800E008D0FFE756
:1047D000009804280AD0FFE7009808280CD010E0C1
:1047E00042F20040C0F2F400019010E041F20020DB
:1047F000C0F27A0001900AE0082000F00DF8019064
:1048000005E042F20040C0F2F4000190FFE7019899
:1048100002B080BD7047000080B58AB001460990A3
:1048200000200890079006900591FEF7A1FF0790E1
:1048300007980028049005D0FFE70498B0F5800F92
:1048400006D00BE042F20040C0F2F40008900BE00A
:1048500041F20020C0F27A00089005E042F20040E8
:10486000C0F2F4000890FFE7099808281DD1FFE77F
:1048700008980390FEF774FFDDF80CE0BEFBF0F043
:104880000290FEF77DFFDDF808E00EFB00F00190DE
:10489000FEF77EFF000C4FF0020E0EEB4000DDF83D
:1048A00004E0BEFBF0F00690FFE706980AB080BD7A
:1048B00080B500F01DF880BD80B582B001468DF84E
:1048C00007009DF80700009100F054F802B080BD89
:1048D00080B5FFF7EDFF80BD80B582B001468DF851
:1048E00007009DF807000091FFF7E6FF02B080BDCA
:1048F00080B582B040F60000C5F20600FEF7F4FF76
:1049000000280ED0FFE740F60000C5F20600019037
:10491000FEF798FF0198FEF7AFFF0198FEF7B8FF8A
:10492000FFE740F60000C5F20600FEF7C9FF0028C9
:1049300007D0FFE740F60000C5F20600FEF778FF5B
:10494000FFE740F60000C5F20600FEF7C3FF0028AF
:104950000DD0FFE740F60000C5F20600FEF7CEFFDF
:1049600040F2C00EC2F2000ECEF80000FFE702B027
:1049700080BD000080B586B001468DF8170040F676
:104980000000C5F206000491FEF766FF4021039087
:104990000846FEF743F99DF81700002818D0FFE7F6
:1049A00003F0E8F90F210022FFF794FD5021029057
:1049B0000846029A0191114603F01AFA019803F091
:1049C00099F940F60000C5F20600FEF76DFFFFE71B
:1049D00040F60000C5F20600FEF75AFFFFE740F67A
:1049E0000000C5F20600FEF775FF012804D0FFE7BE
:1049F000FEF7B0F80090F2E740F2C000C2F200000B
:104A00000021016006B080BD80B584B00A4603462F
:104A100003908DF80B1003989DF80B1001920093F2
:104A200000F0D0F904B080BD80B582B0014601909D
:104A30000198009100F04EFA02B080BD2DE9F04FD0
:104A40009BB0DDF8A8C0DDF8A4E0289C279D269E39
:104A5000259FDDF89080994692468B460F90CDF8C1
:104A600068C0CDF864E01894179516961597CDF8A0
:104A700050801393129211910F991091109A1199DD
:104A8000129BDDF84CC0DDF850E0159C169D179E7A
:104A9000189FDDF864800E901A980D9068460C906F
:104AA0000D980B910C998861C1F814800F61CE604C
:104AB0008D604C60C1F800E010460B991A466346C1
:104AC000CDF82890CDF824A0CDF820B000F07AFAE7
:104AD0001BB0BDE8F08F0000B0B588B09C4696468C
:104AE0000C460546079006910592ADF812300798DE
:104AF0000699059ABDF81230CDF80CC0CDF808E043
:104B00000194009500F0A8FA08B0B0BD80B584B05B
:104B10000A4603460390029103980299019200937A
:104B200000F056FB04B080BD80B582B00146019014
:104B30000198009100F09CFB02B080BD80B584B06C
:104B40000A4603460390029103980299019200934A
:104B500000F008FC04B080BDB0B588B09C46964615
:104B60000C460546079006910592ADF8123007985D
:104B70000699059ABDF81230CDF80CC0CDF808E0C2
:104B80000194009500F0D4FC08B0B0BD80B584B0AD
:104B90000A46034603908DF80B1003989DF80B10FE
:104BA00001920093FFF730FF04B080BD80B582B062
:104BB0000146019001980091FFF736FF02B080BDD9
:104BC0002DE9F04F9BB0DDF8A8C0DDF8A4E0289CEB
:104BD000279D269E259FDDF89080994692468B461C
:104BE0000F90CDF868C0CDF864E01894179516962C
:104BF0001597CDF850801393129211910F9910913F
:104C0000109A1199129BDDF84CC0DDF850E0159C0C
:104C1000169D179E189FDDF864800E901A980D90CF
:104C200068460C900D980B910C998861C1F814801E
:104C30000F61CE608D604C60C1F800E010460B99AA
:104C40001A466346CDF82890CDF824A0CDF820B0C0
:104C5000FFF7F4FE1BB0BDE8F08F0000B0B588B0E0
:104C60009C4696460C460546079006910592ADF87F
:104C7000123007980699059ABDF81230CDF80CC08D
:104C8000CDF808E001940095FFF726FF08B0B0BD0D
:104C900080B584B00A4603460390029103980299B6
:104CA00001920093FFF732FF04B080BD80B582B05F
:104CB0000146019001980091FFF736FF02B080BDD8
:104CC00080B584B00A460346039002910398029986
:104CD00001920093FFF732FF04B080BDB0B588B0F9
:104CE0009C4696460C460546079006910592ADF8FF
:104CF000123007980699059ABDF81230CDF80CC00D
:104D0000CDF808E001940095FFF726FF08B0B0BD8C
:104D100080B584B00A46034603908DF80B100398C3
:104D2000006A43F20001C4F201018842019200933B
:104D300010D1FFE79DF80B00002805D0FFE74FF4E6
:104D40008050FEF78DF804E04FF48050FEF754F8E1
:104D5000FFE733E00398006A43F60001C4F2000164
:104D6000884210D1FFE79DF80B00002805D0FFE72F
:104D70004FF48040FDF7DCFF04E04FF48040FDF786
:104D80008FFFFFE719E00398006A43F60041C4F281
:104D90000001884210D1FFE79DF80B00002805D0E4
:104DA000FFE74FF40040FDF7C3FF04E04FF400407D
:104DB000FDF776FFFFE7FFE7FFE7FFE7002004B01E
:104DC00080BD000080B586B00A46034605908DF888
:104DD00013100598006A0028039202930DD0FFE794
:104DE0000598006AFEF792FDDDF814E000210190BD
:104DF0007046FFF78DFF0090FFE705989DF81310B0
:104E000000F002F806B080BD80B592B00A460346B5
:104E100011908DF8431000200F900E900D900C9083
:104E20000B900A901199C9690A910B9003210C917A
:104E30000D900E900F909DF8430000280992089362
:104E400007D0FFE7119880690AA9FEF795F9079046
:104E5000FFE7119840690A90119800690AA9069124
:104E6000FEF78AF9119949680A9111990968059024
:104E700008460699FEF780F91199C9680A911199B7
:104E80008968049008460699FEF776F91199D1F8D9
:104E900018E0C96903907046FEF7A8FA11980169F5
:104EA0004069029008460299FEF7A0FA119801683D
:104EB0004068019008460199FEF798FA11988168B8
:104EC000C068009008460099FEF790FA002012B0E2
:104ED00080BD000080B58EB001460D900D988069B0
:104EE0000122069111460592FBF7E2FF0D98006939
:104EF0000599FBF7DDFF0D9800680599FBF7D8FFD2
:104F00000D9880680599FBF7D3FF00200C900B905B
:104F10000A900990089007900D99C9690791059921
:104F20000891032209920A900B900C900D988069C9
:104F300000280ED0FFE70D98806907A9FEF71CF93D
:104F40000D99D1F818E0C96904907046FEF74EFA41
:104F5000FFE70D98006C0C90022008900D984069B6
:104F600007900D98006907A90391FEF705F90D99BF
:104F7000D1F810E0496902907046FEF737FA0D98B3
:104F8000406807900D9800680399FEF7F5F80D99B1
:104F9000D1F800E0496801907046FEF727FA0D98B5
:104FA000C06807900D9880680399FEF7E5F80D99A1
:104FB000D1F808E0C96800907046FEF717FA0020A3
:104FC0000EB080BD2DE9F04F93B0DDF888C0DDF85C
:104FD00084E0209C1F9D1E9E1D9FDDF870809946D9
:104FE00092468B460790CDF848C0CDF844E0109427
:104FF0000F950E960D97CDF830800B930A9209917C
:1050000007990891089A126A06901046CDF81490F4
:10501000CDF810A0CDF80CB0FEF778FC089901226D
:10502000029008461146FFF773FE0899096A09AA1B
:10503000019008461146FEF7BDFC08990A6A496CC2
:1050400000901046FEF750FD0898006AFEF7A6FC97
:10505000002013B0BDE8F08FB0B58EB09C469646E8
:105060000C4605460D900C910B92ADF82A300020AD
:105070008DF82900ADF826000890079006900120D1
:105080008DF817000D98C06C0028CDF810C0CDF831
:105090000CE00294019505D0FFE70D98C06C8047A5
:1050A0000790FFE7002008900D98012180F8241058
:1050B000FFE79DF81700012813D1FFE70D98006A5C
:1050C000FEF7D4FC00280CD0FFE70D98006A0C997D
:1050D000BDF82620895CFEF719FD00208DF8170029
:1050E000FFE79DF81700002824D1FFE70D98006A1C
:1050F000FEF7B2FC00281DD0FFE70D98006AFEF70E
:10510000C9FC8DF829000B98002807D0FFE79DF80F
:1051100029000B99BDF826208854FFE700208DF860
:10512000290001208DF81700BDF826000130ADF8E8
:105130002600FFE70D98C06C002820D0FFE70D98EF
:10514000C06C804708900898DDF81CE0704506D2D6
:10515000FFE70798C04308990844069004E00898C0
:105160000799401A0690FFE70698652806D3FFE7DF
:10517000BDF8260080308DF82900FFE711E008987F
:1051800001300890089848F2A161C0F201018842FC
:1051900006D3FFE7BDF8260040308DF82900FFE771
:1051A000FFE79DF82900002807D1FFE7BDF826009A
:1051B000BDF82A10884201D1FFE700E079E70D9899
:1051C000012180F824109DF829000EB0B0BD000028
:1051D00080B584B00A460346039002910398006AA2
:1051E000029901920093FEF75FFC002004B080BD9D
:1051F00080B58AB013468C46864609908DF82310F8
:1052000007929DF82300000600280693CDF814C0ED
:10521000CDF810E009D4FFE70998016840680390D1
:1052200008460399FEF760F808E0099801684068AD
:10523000029008460299FEF7D9F8FFE70798002880
:1052400012D0FFE709988168C0680190084601996B
:10525000FEF70EF8002806D0FFE70798017841F026
:1052600001010170FFE7FFE700200AB080BD0000E8
:1052700080B592B0014611901198806901220A917F
:1052800011460992FBF714FE119800690999FBF782
:105290000FFE119800680999FBF70AFE11988068C3
:1052A0000999FBF705FE002010900F900E900D90CD
:1052B0000C900B901199C9690B9109990C910322DB
:1052C0000D920E900F901090119A92690DF12C0E84
:1052D000089010467146CDF81CE0FDF74DFF11997E
:1052E00049690B9111990969069008460799FDF7DC
:1052F00043FF119949680B91119909680590084677
:105300000799FDF739FF1199C9680B9108990C911C
:10531000119A9268049010460799FDF72DFF119994
:105320008A69C96903901046FEF760F8119801690F
:105330004069029008460299FEF758F811980168F2
:105340004068019008460199FEF750F8119881686D
:10535000C068009008460099FEF748F8089812B017
:1053600080BD000084B00A46034603900291029873
:105370000399488700200192009304B07047000011
:1053800080B58AB013468C46864609908DF8231066
:105390000792099890F8260000280693CDF814C0CB
:1053A000CDF810E006D1FFE7099890F82700002813
:1053B0000CD0FFE7099890F82600012830D1FFE7CC
:1053C000099890F8270001282AD1FFE70998016978
:1053D0004069039008460399FDF786FF0998408FBE
:1053E000012805DBFFE70998816C408F8847FFE7BC
:1053F00009989DF82310079AFFF7FAFE09990A69A0
:10540000496902901046FDF7F1FF0998408F012885
:1054100005DBFFE70998816C408F8847FFE729E0AB
:10542000099801694069019008460199FDF7DEFF7E
:105430000998408F012805DBFFE70998816C408FB0
:105440008847FFE709989DF82310079AFFF7D0FED9
:1054500009990A69496900901046FDF745FF0998C6
:10546000408F012805DBFFE70998816C408F884752
:10547000FFE7FFE700200AB080BD000080B58AB0DA
:1054800013468C46864609908DF82310079200201B
:105490008DF81B00079800280593CDF810C0CDF8B3
:1054A0000CE004D0FFE7079800210170FFE700201F
:1054B0008DF81B00FFE79DF81B0007281CDCFFE7A9
:1054C0000798002805D0FFE7079801784900017088
:1054D000FFE709989DF82310079AFFF751FF9DF801
:1054E000231049008DF823100290FFE79DF81B0060
:1054F00001308DF81B00DEE7099890F8260000289F
:1055000009D1FFE7099801694069019008460199AE
:10551000FDF7EAFE08E00998016940690090084635
:105520000099FDF763FFFFE700200AB080BD00008F
:10553000B0B58AB09C4696460C460546099008913F
:105540000792ADF81A3000208DF81900ADF816005A
:105550008DF81500ADF81600CDF810C0CDF80CE0B0
:1055600002940195FFE7BDF81600BDF81A108842B5
:1055700023DAFFE709980899BDF81620895C0DF138
:105580001502FFF77BFF8DF819000798002807D058
:10559000FFE79DF815000799BDF816208854FFE72E
:1055A0009DF81900002801D0FFE706E0FFE7BDF8ED
:1055B00016000130ADF81600D5E79DF819000AB0C5
:1055C000B0BD00007047000088B001460790079802
:1055D000407906900798C079013805900598079A98
:1055E0009279642300FB032005900798C07804900B
:1055F0004FF0FF30039000208DF80B000698012833
:10560000019104D0FFE70698022807D1FFE706982A
:105610000C300690059801380590FFE7049806992C
:1056200000EB410001EB4101033146F26762C6F233
:10563000666251FB02F14A1002EBD17108440599F0
:105640000844CA1701EB927200EBA200013048F245
:105650001F52C5F2EB1251FB02F14A1102EBD1725B
:10566000801ACA1102EBD171084442F29341C9F287
:10567000492151FB00018A1002EBD171C1EBC1013C
:10568000401A039003980628009022D80099DFE87A
:1056900001F004080C1014181C0007208DF80B00F2
:1056A00018E001208DF80B0014E002208DF80B00AB
:1056B00010E003208DF80B000CE004208DF80B00A7
:1056C00008E005208DF80B0004E006208DF80B00A3
:1056D00000E0FFE79DF80B0008B0704780B586B08A
:1056E00013468C4686460590ADF812108DF81120B1
:1056F00005980B21417148F6F240C0F60000417A4E
:10570000827A01EB810102EB4101A1F50471059A56
:1057100091710179427901EB810102EB4101A1F51F
:105720000471059AD170C179007A01EB810100EB17
:105730004100A0F20F200599C87105980393CDF898
:1057400008C0CDF804E0FFF73FFF0599087148F65F
:10575000E940C0F600000178427801EB810102EBDC
:105760004101A1F50471059A9170C178027901EBAC
:10577000810102EB4101A1F50471059A5170817913
:10578000C07901EB810100EB4100A0F5047005999F
:105790000870059801210172BDF812000599088270
:1057A0009DF81100059908750598C17881740598D0
:1057B0004179C17406B080BD80B500F045F880BD68
:1057C00080B582B0014601900198009100F002F985
:1057D00002B080BD80B500F0B9F980BD80B500F0A1
:1057E000C5F980BD80B500F0C1FA80BD80B582B03A
:1057F000014601900198009100F060FA02B080BD6E
:1058000080B5FFF7D9FF80BD80B582B00146019019
:1058100001980091FFF7D4FF02B080BD80B5FFF77B
:10582000D9FF80BD80B5FFF7D9FF80BD80B5FFF7F8
:10583000D9FF80BD80B582B00146019001980091EA
:10584000FFF7D4FF02B080BD83B04EF21000CEF25D
:1058500000000068400700281DD5FFE74EF2140045
:10586000CEF20000006840F20001C2F200010968B7
:1058700044F6D352C1F26202A1FB02124FF0FF3391
:1058800003EB92129042019104D0FFE701208DF8C2
:105890000B0021E01CE04EF21400CEF20000006884
:1058A00040F20001C2F20001096844F6D352C1F28D
:1058B0006202A1FB02124FF0FF3303EB522290422F
:1058C000009104D0FFE701208DF80B0004E0FFE712
:1058D00000208DF80B00FFE79DF80B0003B0704728
:1058E00083B00146029001208DF80700029800283D
:1058F00000916AD0FFE700208DF80700FFE79DF8D0
:105900000700032856DCFFE740F22400C2F2000043
:1059100000689DF8071000EB81004069002818D04E
:10592000FFE740F22400C2F2000000689DF8071073
:1059300000EB81004069029988420AD1FFE740F2FA
:105940002400C2F2000000689DF8071001224254B2
:1059500030E040F22400C2F2000000689DF8071019
:10596000405C00281FD1FFE7029840F22401C2F2F8
:1059700000010A689DF8073002EB83025061086855
:105980009DF807200123835408680079FE2809DC6C
:10599000FFE740F22400C2F2000000680179013103
:1059A0000171FFE706E0FFE79DF8070001308DF881
:1059B0000700A4E79DF8070000210328C8BF0121C4
:1059C0004FEA41008DF80700FFE79DF8070003B09C
:1059D0007047000080B588B0014607904EF218006D
:1059E000CEF2000000680690069840F20002C2F273
:1059F000000212684DF68363C4F21B33A2FB03233B
:105A00009B0CB0FBF3F005900598022804910392DB
:105A100011D3FFE7059800F051F9DDF81CE0AEF175
:105A2000010ECDF81CE0DDF814E0CEF5757ECDF862
:105A300018E00290FFE7079840F22401C2F200014B
:105A40000968C860FFE740F22400C2F20000006865
:105A5000C068002804D0FFE7FDF77CF80190F2E76A
:105A6000069802280AD3FFE70698C0087C2805D8C4
:105A7000FFE7069800F022F90090FFE7002008B049
:105A800080BD000083B00146029001208DF8070020
:105A900002980028009154D0FFE700208DF80700FD
:105AA000FFE79DF80700032840DCFFE740F22400F1
:105AB000C2F2000000689DF8071000EB8100406909
:105AC00000282CD0FFE740F22400C2F2000000685A
:105AD0009DF8071000EB81004069029988421ED1B1
