:020000040800F2
:10000000983F00209D010008315600085D2100083E
:10001000655500086D0E0008ED990008000000000D
:10002000000000000000000000000000FD5B000870
:100030000518000800000000455900083D6500084B
:10004000B19D000825590008B7010008B701000854
:10005000B7010008155A0008B7010008B7010008E9
:10006000B7010008B7010008B7010008B701000890
:10007000B7010008B7010008B7010008B701000880
:10008000B7010008B7010008B7010008B701000870
:10009000B7010008B7010008B7010008B701000860
:1000A000B7010008B7010008B7010008B701000850
:1000B0007D6A0008B7010008B7010008B701000811
:1000C000B7010008B7010008B7010008B701000830
:1000D000B701000869780008B7010008B7010008F7
:1000E000B7010008B7010008B7010008B701000810
:1000F000B7010008B7010008B7010008B701000800
:10010000B7010008B7010008B7010008B7010008EF
:10011000B7010008B7010008B7010008B7010008DF
:10012000391500089515000899150008B701000851
:10013000B7010008B7010008B7010008B7010008BF
:10014000B7010008B7010008B7010008B7010008AF
:10015000B7010008B7010008D5150008B70100086D
:10016000B7010008B7010008B7010008B70100088F
:10017000B7010008B7010008B7010008000000003F
:1001800055210008B7010008DFF80CD000F04EFB45
:10019000004800479DA00008983F0020064880477F
:1001A00006480047FEE7FEE7FEE7FEE7FEE7FEE75C
:1001B000FEE7FEE7FEE7FEE70D6A0008890100089A
:1001C0002DE9F05F0546002092469B46884606468C
:1001D000814640241BE0284641464746224600F01F
:1001E0003EFA53465A46C01A914110D3114618465A
:1001F000224600F025FA2D1A67EB01084F462246E9
:100200000120002100F01CFA17EB00094E41201ECE
:10021000A4F10104DFDC484631462A464346BDE8E6
:10022000F09FD2B201E000F8012B491EFBD27047CB
:100230000022F6E710B513460A4604461946FFF7B2
:10024000F0FF204610BD2DE9FE4F804681EA0300F5
:10025000C00F0C46009021F0004123F00045B8EBA0
:100260000200A94105D24046214690461C460B4655
:10027000024623F00040104347D0270DC7F30A0081
:10028000C3F30A510290401A019040286BDAC3F37D
:10029000130040F4801B0098924620B10023D2EB5B
:1002A000030A63EB0B0B01985946C0F1400250461C
:1002B00000F0C6F906460D4650465946019A00F030
:1002C000DEF910EB08006141002487EA115284EA4C
:1002D000E7731A4340D0009A62B3019A012A4FEAA9
:1002E000075215DC001B61EB02014FF0004202EAED
:1002F0000752CDE90042001C41F5801132462B46E1
:1003000000F015FA03B0BDE8F08F40462146F9E74A
:10031000001B61EB0201001C41F5801300185B41DA
:100320002018A2F5001747EB030140EAD570B61973
:100330006D4111E06D084FEA360645EAC0754FEA97
:100340000752001B61EB0201001C41F580114908B6
:100350004FEA30000019514132462B4603B0BDE848
:10036000F04F00F0D5B90098012240000023D0EBF7
:10037000020263EBE073009821464FEAE074B8EBA9
:10038000000061EB0401E9E783F000435BE781F0E3
:10039000004158E72DE9FE4F81EA030404F00044D0
:1003A00021F0004100944FF0000B23F0004350EA8D
:1003B00001045ED052EA03045BD0C3F30A54C1F3D4
:1003C0000A552C44A4F2F3340194A0FB0254C1F367
:1003D000130141F48011C3F3130343F4801301FBB1
:1003E000024400FB034E840A970A44EA815447EA18
:1003F0008357A4FB076802958D0A05FB07854FEA22
:10040000932C04FB0C542705029D4FEA065847EA3B
:100410001637B5EB08056EEB070C870E920E47EA10
:10042000811742EA8312A7FB0201B6EB0B0164EBD2
:1004300000042B0D43EA0C335E1844EB1C50DA46E3
:100440005146E7FB0201C5F313044FEA0B3343EABD
:1004500014534FEA0432019C43EA0603A4F10C044E
:100460000294009CCDE900B400F061F903B0BDE84E
:10047000F08F00200146F9E72DE9F04D81EA0304F1
:1004800004F0004B21F0004514464FF0000A23F021
:10049000004150EA050220D054EA01021DD0C5F304
:1004A0000A570246C5F31303C1F31300C1F30A56FA
:1004B00040F4801543F48013A7EB0608101BD646C2
:1004C00008F2FD3873EB050002D308F1010801E0E2
:1004D00092185B41B8F1000F03DA00200146BDE835
:1004E000F08D00204FF48011064684460EE0171B65
:1004F00073EB050705D3121B63EB050306434CEAB8
:10050000010C49084FEA300092185B4150EA01079C
:10051000EDD152EA030012D082EA040083EA050119
:10052000084305D0101BAB4106D20122002306E090
:1005300000224FF0004302E06FF0010253101AEB6B
:1005400006004CEB085110EB0A0041EB0B01BDE833
:10055000F04D00F0DDB80EB5C10F80EAE070084440
:10056000CA07002140F233438DE80E000A460B46CD
:1005700000F0DDF803B000BD70B5C1F30A5201F020
:1005800000450024C1F3130140F2FF3341F4801110
:100590009A4201DA002070BD40F233439A42A2F23F
:1005A000334203DC524200F05AF800E090402C4302
:1005B000F1D0404270BD00F0004230F000400AD05F
:1005C000C10D01F56071C0F3160042EA0151C20885
:1005D00040071143704700200146704701F0004377
:1005E00030B421F0004150EA010206D00A0DA2F514
:1005F0006072C1F31301002A02DC30BC0020704796
:10060000440F44EAC104C100E01830BC00EBC25002
:1006100000F047B830B50B460146002020220124E7
:1006200009E021FA02F59D4205D303FA02F5491BC0
:1006300004FA02F52844151EA2F10102F1DC30BDD6
:10064000202A04DB203A00FA02F100207047914092
:10065000C2F1200320FA03F3194390407047202A87
:1006600004DB203A21FA02F00021704721FA02F35C
:10067000D040C2F120029140084319467047202A19
:1006800006DBCB17203A41FA02F043EAE07306E0BA
:1006900041FA02F3D040C2F12002914008431946CA
:1006A00070470029A8BF7047401C490008BF20F0D0
:1006B0000100704710B4B0FA80FC00FA0CF050EA68
:1006C000010404BF10BC704749B1CCF1200421FAE9
:1006D00004F411FA0CF118BF012121430843A3EBE4
:1006E0000C01CB1D4FEA00614FEA102042BF0020F1
:1006F00010BC704700EBC35010440029A4BF10BCCD
:100700007047401C490008BF20F0010010BC704732
:1007100010B5141E73F1000408DA401C41F1000109
:1007200092185B411A4301D120F0010010BD2DE960
:10073000F04D92469B4611B1B1FA81F202E0B0FA57
:1007400080F220329046FFF77BFF04460F4640EAD6
:100750000A0041EA0B0153465A46084313D011469A
:1007600053EA010019D0C8F140025046FFF777FF65
:1007700005460E46504659464246FFF761FF08437C
:1007800005D0012004E020463946BDE8F08D002068
:10079000054346EAE0762C4337430A986305E40AAA
:1007A000A0EB08000022FD0A44EA47540A3002D5B3
:1007B00000200146E9E7010510196941DDE9084516
:1007C00000196941BDE8F04DA2E7C1F30A52C1F337
:1007D000130140F2FF3341F480119A4202DA002003
:1007E0000146704740F233439A42A2F2334202DCA0
:1007F0005242FFF734BFFFF723BF000030B5041E9D
:1008000071F1000404DB4FF00044404264EB01014D
:10081000141E73F1000405DB1C464FF000435242E6
:1008200063EB0403994208BF904230BD064C074D6C
:1008300006E0E06840F0010394E8070098471034B0
:10084000AC42F6D3FFF7A4FC10B0000830B00008AB
:1008500080B582B00190019800F080F902B080BDAF
:1008600080B582B00190019800F0CCF902B080BD53
:1008700080B500F009FA80BD80B582B00190019882
:1008800000F090FA02B080BD80B582B0019001986E
:10089000FFF7DEFF02B080BD80B582B00190019805
:1008A000FFF7DEFF02B080BD80B5FFF7E1FF80BD3E
:1008B00080B582B001900198FFF7DEFF02B080BDE5
:1008C00080B582B000F008F8019000F0A1F8002196
:1008D0000090084602B080BD80B598B046F2004056
:1008E000C4F2020000210890079102F059FF4FF472
:1008F00080010690084602F0F1F909A83C21059014
:10090000FFF796FC07981290122111910B9014900A
:100910000121159140F21C02C2F200021268063257
:100920000A924FF4005210924FF480620E920C9093
:1009300042F24C02C4F20102099217904FF4006295
:100940000F920D904FF4003213920898079A049179
:100950001146059A03F08CF9089903900846079907
:1009600003F056F909F074FA0499079A04F064FE4A
:10097000382102900846029A0191114609F090FA36
:10098000019809F023FA0898079903F021F90798CC
:1009900018B080BD80B584B046F20040C4F20200B9
:1009A000002112220390029103F016FA0398029993
:1009B00003F02EF942F20000C4F20100019002F0AF
:1009C0008FF801980299029A00F030FA029900908B
:1009D000084604B080BD000080B584B046F20040F7
:1009E000C4F2020000210390029103F0D1F80398B1
:1009F000029902F0A1FC42F20000C4F20100019051
:100A000002F064F8019801F081FF029804B080BD03
:100A100080B594B0002013901290119010900F9018
:100A20000E900D900C900B900A900990089042F255
:100A30000001C4F2010107900846069101F0C6FFCB
:100A40000121069A0590104600F028F907991191A6
:100A500012914FF48072139211A9069A04901046D5
:100A600002F056F807990C910D910E9102220F9207
:100A70004FF4407210920CA9069A0390104602F0AF
:100A800079F84FF440310891079909910B9142F29E
:100A90000032C4F2010208A90290104601F03EFFA4
:100AA0004FF400710A22069B01901846009202F052
:100AB000B5F807220698009902F0E6F8069802F0C9
:100AC0000FF8079814B080BD80B586B046F200409C
:100AD000C4F20200012112220590049103F07CF976
:100AE0000598049903F094F842F20020C4F2010042
:100AF000039001F0F5FF002002900299039A00F0A4
:100B000095F902990190084606B080BD80B582B083
:100B100046F20040C4F202000121019003F038F8CF
:100B2000019802F047FD019802F08CFD42F200208E
:100B3000C4F20100009001F0C9FF009801F0E6FE48
:100B4000002002B080BD000080B582B0FFF7B8FE83
:100B500000210190084602B080BD000080B582B03F
:100B60000090009842F20001C4F20101884216D1BF
:100B7000FFE740F21C00C2F20000016800220A7088
:100B80000068C282C0F81220C0F80E20C0F80A2007
:100B9000C0F80620FFF7FEFE8DF807002DE0009854
:100BA00042F20011C4F20101884204D1FFE70020A3
:100BB0008DF8070021E0009842F20021C4F2010103
:100BC000884216D1FFE740F22000C2F2000001681F
:100BD00000220A700068C282C0F81220C0F80E20FD
:100BE000C0F80A20C0F80620FFF76EFF8DF8070056
:100BF00003E000208DF80700FFE79DF8070002B032
:100C000080BD000080B582B00090009842F20001E3
:100C1000C4F2010188420DD1FFE740F21C00C2F28C
:100C200000000068017801310170FFF7D5FE8DF8F2
:100C3000070024E0009842F20011C4F2010188424A
:100C400004D1FFE700208DF8070018E0009842F279
:100C50000021C4F2010188420DD1FFE740F22000DB
:100C6000C2F200000068017801310170FFF74EFF09
:100C70008DF8070003E000208DF80700FFE79DF8DE
:100C8000070002B080BD000080B582B000F064F8BB
:100C90000190FFF759FF02B080BD000080B584B01D
:100CA0000A4602908DF807100298002804D1FFE749
:100CB00001208DF80F004BE0029842F20001C4F2CF
:100CC0000101884210D1FFE79DF80700002805D0F8
:100CD000FFE74FF4807002F0C7F904E04FF4807032
:100CE00002F098F9FFE7FFE7029842F20011C4F220
:100CF0000101884210D1FFE79DF80700002805D0C8
:100D0000FFE74FF4007002F0AFF904E04FF4007019
:100D100002F080F9FFE7FFE7029842F20021C4F2F7
:100D20000101884210D1FFE79DF80700002805D097
:100D3000FFE74FF4806002F097F904E04FF4806021
:100D400002F068F9FFE7FFE700208DF80F00FFE7EA
:100D50009DF80F0004B080BD80B58CB040F6000057
:100D6000C4F2020001210590049100F047FE002129
:100D70000B910A910991089107910691049A0692A4
:100D80000323079302230A9306ABDDF814C00390F4
:100D900060460291194603F0DDF802990190084679
:100DA0000CB080BD80B59AB0199000208DF863001A
:100DB0000DF13E0124220490084611460392FFF7EC
:100DC00037FA0DF11A000399FFF732FA1998063035
:100DD000059004988DF86300FFE79DF863001128E3
:100DE00012DCFFE7059800889DF863100DF13E02C4
:100DF00022F81100059802300590FFE79DF8630086
:100E000001308DF86300E8E70DF13E0012210290F9
:100E100000F086FD10210222029B0190184600F08E
:100E2000B3F91999488000201AB080BD80B584B00C
:100E30000390029101920398002804D0FFE70398E1
:100E400001F018FFFFE70298002804D0FFE702989E
:100E500001F010FFFFE70198002804D0FFE7019898
:100E600001F008FFFFE7002004B080BDFFE7FEE7C8
:100E700080B582B0019000910198009900F064F86B
:100E800002B080BD80B582B00190009101980099B8
:100E900000F086F802B080BD80B584B003468DF8BE
:100EA0000F00029101929DF80F000299019A0093A0
:100EB00000F0B2F804B080BD80B582B0019000911E
:100EC0000198009900F0EAF802B080BD80B500F00A
:100ED00019F980BD80B500F01BF980BD80B582B0E6
:100EE0000190009101980099FFF7C2FF02B080BD08
:100EF00080B582B00190009101980099FFF7C2FF80
:100F000002B080BD80B584B003468DF80F00029119
:100F100001929DF80F000299019A0093FFF7BCFF20
:100F200004B080BD80B582B0019000910198009915
:100F3000FFF7C2FF02B080BD80B5FFF7C7FF80BDDD
:100F400080B5FFF7C7FF80BD84B0039002910020F9
:100F5000ADF804000090FFE70098029988421BD288
:100F6000FFE79DF805000399009A895C48408DF8D9
:100F70000700BDF804009DF807104AF64A32C0F693
:100F8000000232F8111081EA0020ADF80400FFE7FA
:100F9000009801300090DFE7BDF8040004B070470E
:100FA00080B582B0019000910198009900F002F89C
:100FB00002B080BD80B586B00590049100200390FA
:100FC0000290019000F020F801980390FFE7039849
:100FD0000499884210D2FFE705980399405C02907B
:100FE000029943F20000C4F2020002F009F9FFE79F
:100FF000039801300390EAE743F20000C4F20200D4
:1010000002F006F906B080BD80B543F20000C4F2DC
:10101000020002F003F980BD86B003468DF8170088
:101020000491039200208DF80A000190FFE70198D7
:10103000039988422DD2FFE79DF80A000499019A8E
:10104000895C48408DF80B009DF817000146072881
:10105000009104D0FFE7009831280AD013E09DF8F2
:101060000B004AF64A51C0F60001085C8DF80A00F0
:101070000AE09DF80B004AF64A61C0F60001085CE0
:101080008DF80A0000E0FFE7FFE7019801300190CA
:10109000CDE79DF80A0006B07047000084B00390C9
:1010A0000291002001908DF803000190FFE7019864
:1010B000029988420DD2FFE703980199405C9DF8A0
:1010C000031008448DF80300FFE7019801300190F8
:1010D000EDE79DF80300C0F580708DF803009DF8E2
:1010E000030004B07047000080B543F20000C4F272
:1010F000020002F069F840F20401C2F2000101228C
:101100000A7080BD40F20400C2F20000007870470F
:1011100080B5FFF7E9FF4FF4805001F0F1FD40F298
:101120000400C2F200000021017080BD80B500F013
:101130000DF880BD80B500F017F880BD80B5FFF7D1
:10114000F5FF80BD80B5FFF7F5FF80BD80B503F0EA
:10115000A3F9002807D0FFE703F08CF903F032F978
:1011600003F012F9FFE780BD80B503F09DF9002878
:1011700008D0FFE703F01CF903F010F908F08AFF2C
:1011800008F060FF80BD000080B588B004AB9446D5
:101190008E460790ADF81A10ADF818200020059083
:1011A0000490ADF80E00BDF81800ADF80E000293E3
:1011B000FFE7BDF80E00BDF81A1088421EDAFFE7FF
:1011C0000798BDF80E1030F81100FFF7C4F941EC94
:1011D000100B029890ED001B53EC102B51EC110BEF
:1011E000FFF731F841EC100B029880ED000BFFE7A0
:1011F000BDF80E000130ADF80E00DAE7049805994D
:10120000BDF81A20BDF81830D21A0190104600918E
:10121000FFF7A1F941EC100B53EC102B019800994A
:10122000FFF72AF941EC100B51EC100BFFF7A4F972
:1012300008B080BD80B584B002468DF80F000291E1
:101240009DF80F000299019200F034F804B080BDBF
:1012500080B584B00A4603468DF80F008DF80E1055
:101260009DF80F009DF80E100292019300F034F9E2
:1012700004B080BD80B584B002468DF80F000291A5
:101280009DF80F0002990192FFF7D4FF04B080BDD2
:1012900080B584B00A4603468DF80F008DF80E1015
:1012A0009DF80F009DF80E1002920193FFF7D0FFFA
:1012B00004B080BD80B584B002468DF80F00029165
:1012C0009DF80F0002994FF47A735943019200F090
:1012D00003F804B080BD000080B584B002468DF8EC
:1012E0000F00029100200190029845F6A121C0F262
:1012F0003201884206D3FFE745F6A020C0F2320053
:101300000290FFE7029840084CF61771CAF29E213E
:10131000A0FB0101090A01910199B1F5805F04D395
:10132000FFE740F6FF700190FFE70198B0F57A7F84
:1013300004D9FFE7019804380190FFE79DF80F00FA
:10134000032813D1FFE7019A47F20040C4F20000DE
:101350000121C0F21021009001F06AFF019A1221D0
:10136000C1F24351009801F063FF1BE09DF80F00AC
:1013700002280BD1FFE7019A47F20040C4F20000B7
:101380000121C0F2102101F053FF0AE0019A47F257
:101390000040C4F200000121C0F2102101F048FF1A
:1013A000FFE7FFE7002004B080BD000080B58AB0F1
:1013B0000A4603468DF827008DF826100020089075
:1013C00007900690059004903821049105909DF8AF
:1013D0002600012803D1FFE70020079002E0022049
:1013E0000790FFE79DF82700022805D1FFE71220AC
:1013F000C1F24350089004E00120C0F21020089090
:10140000FFE7089947F20040C4F2000004AA0390E5
:1014100001F036FF0899039A0290104601F020FF70
:1014200008990020039A01901046019A01F000FFEC
:1014300001980AB080BD000080B582B001468DF8E9
:1014400007009DF80700002805D0FFE74FF0005087
:1014500001F042FD04E04FF0005001F001FDFFE714
:10146000002002B080BD000080B58AB001468DF832
:1014700027000020C4F2020001220291114600F070
:10148000BDFA0021089107910691059104910391FD
:101490009DF82710032903D1FFE7302003900BE0CC
:1014A0009DF82700022803D1FFE72020039002E0E7
:1014B00010200390FFE7FFE703200490022007902D
:1014C0000020C4F2020003A902F044FD00210190B3
:1014D00008460AB080BD000080B586B00A460346C3
:1014E0008DF817008DF816109DF8170004920393DD
:1014F000FFF7BAFF012102900846FFF79DFF9DF814
:10150000171003290DD1FFE79DF816100120FFF7F2
:101510004DFF9DF81610022201901046FFF746FF7E
:1015200006E09DF817009DF81610FFF73FFFFFE754
:10153000002006B080BD000080B584B046F20040B7
:10154000C4F2020002F0F0FB002820D0FFE746F2D0
:101550000040C4F20200002102F0FEFB002816D079
:10156000FFE740F21C00C2F200000068FFF7A0F99C
:1015700042F20001C4F20101039008460291FFF714
:101580008BF9029901900846FFF77EF9FFE704B056
:1015900080BD00007047000080B546F20040C4F2F4
:1015A000020002F0C9FB002812D0FFE746F200401B
:1015B000C4F20200022102F0CFFB002808D0FFE7AE
:1015C00040F23400C2F20000006806F0EDFCFFE7D4
:1015D00080BD000080B546F20040C4F2020002F077
:1015E000B3FB002812D0FFE746F20040C4F202002D
:1015F000072102F0B1FB002808D0FFE740F23400D9
:10160000C2F20000006806F0E9FCFFE780BD0000C0
:1016100080B598B041F20000C4F20200012111909F
:10162000109100F0EBF911990F900846109900F015
:10163000E5F940F60041C4F202010E900846109A06
:101640000D91114600F0DAF90021179116911591CC
:10165000149113911291109A1392032314931591DC
:1016600016921791042312930DF1480CDDF844E013
:101670000C9070460B9161460A93CDF824C002F09D
:1016800069FC02211291119A08901046099B07915A
:10169000194602F05FFC1199069008460A9900F07D
:1016A0007FFC4FF4006012900D990590084609994F
:1016B00002F050FC0D9904900846059900F070FC6A
:1016C0004FF4004012900D9903900846099902F0DA
:1016D00041FC0D9902900846039900F0FBFBFF20A6
:1016E00012900B9913910D9A01901046099902F0EE
:1016F00031FC0D9900900846019900F051FC1198B9
:10170000079900F0E7FB11980A9900F0E3FB18B085
:1017100080BD000080B582B000208DF8070040F643
:101720000040C4F2020002F085FC8DF806009DF82E
:1017300006009DF80710000641F08002002848BF0F
:1017400011468DF807109DF806009DF807104FEA26
:10175000406041F04002002848BF11468DF8071054
:101760009DF806009DF807104FEA806041F02002C6
:10177000002848BF11468DF807109DF806009DF817
:1017800007104FEAC06041F01002002848BF114620
:101790008DF807109DF806009DF807104FEA0070BD
:1017A00041F00802002848BF11468DF807109DF847
:1017B00006009DF807104FEA407041F0040200282F
:1017C00048BF11468DF807109DF806009DF80710D8
:1017D0004FEA807041F00202002848BF11468DF8A0
:1017E00007109DF806009DF807104FEAC07041F001
:1017F0000102002818BF11468DF807109DF8070058
:1018000002B080BD7047000080B582B001900198A1
:1018100000F056F802B080BD80B582B0019001980A
:1018200000F01AF802B080BD80B582B00190019836
:1018300000280FD0FFE7FFE70198411E0191002823
:1018400007D0FFE74FF47A7000F006F800F0F4FFDD
:10185000F2E7FFE702B080BD80B584B00390039843
:1018600000281AD0FFE7039844F6D351C1F2620171
:10187000A0FB0102920902901046019100F020F8AD
:1018800003980199A0FB01239B094FF47A7C03FB89
:101890001C00009204F0B2FCFFE704B080BD000021
:1018A00080B582B001900198FFF7AEFF02B080BD15
:1018B00080B582B001900198FFF7AEFF02B080BD05
:1018C00080B582B00190019800280ED0FFE704F0A7
:1018D0006DFC002804D1FFE7019804F073FC03E0DD
:1018E0000198FFF7A1FFFFE7FFE702B080BD00000E
:1018F00080B582B00190019800280ED0FFE708F073
:10190000C9FBFFE70198411E0191002802D0FFE7C3
:1019100000BFF7E708F0C0FBFFE702B080BD0000A2
:1019200084B00A460390ADF80A100020ADF8080014
:10193000ADF80600BDF80A100139ADF80410ADF895
:101940000800FFE7BDF80800BDF8041088423FDA40
:10195000FFE70020ADF80600FFE7BDF80600BDF880
:101960000410BDF80820891A88422ADAFFE7039894
:10197000BDF8061000EB410230F811005188884292
:1019800018DAFFE70398BDF8061000EB4100408825
:10199000ADF802000398BDF8061000EB410230F8E4
:1019A00011005080BDF802000399BDF8062021F80F
:1019B0001200FFE7FFE7BDF806000130ADF80600B2
:1019C000CBE7FFE7BDF808000130ADF80800B9E744
:1019D000002004B07047000080B584B00A46039030
:1019E0008DF80B1003989DF80B10019200F018F879
:1019F00004B080BD80B500F013FA80BD80B584B01E
:101A00000A4603908DF80B1003989DF80B10019275
:101A1000FFF7E2FF04B080BD80B5FFF7EBFF80BDAC
:101A200080B584B00A4602908DF807100298002114
:101A3000C4F2020188422FD1FFE79DF80700002879
:101A400004D1FFE7012001F03BF921E09DF80700F8
:101A5000012804D1FFE7012001F064F917E09DF8A7
:101A60000700022804D1FFE7012001F097F90DE0FB
:101A70009DF80700032804D1FFE7012001F0B6F923
:101A800003E001208DF80F00C6E1FFE7FFE7FFE765
:101A900000208DF80F00BFE1029840F20041C4F22F
:101AA000020188422FD1FFE79DF80700002804D1EA
:101AB000FFE7022001F004F921E09DF8070001286A
:101AC00004D1FFE7022001F02DF917E09DF807008F
:101AD000022804D1FFE7022001F060F90DE09DF833
:101AE0000700032804D1FFE7022001F07FF903E09B
:101AF00001208DF80F008FE1FFE7FFE7FFE70020EF
:101B00008DF80F0088E1029840F60001C4F202014E
:101B100088422FD1FFE79DF80700002804D1FFE796
:101B2000042001F0CDF821E09DF80700012804D140
:101B3000FFE7042001F0F6F817E09DF807000228FF
:101B400004D1FFE7042001F029F90DE09DF807001A
:101B5000032804D1FFE7042001F048F903E0012045
:101B60008DF80F0058E1FFE7FFE7FFE700208DF851
:101B70000F0051E1029840F60041C4F20201884290
:101B80002FD1FFE79DF80700002804D1FFE70820C8
:101B900001F096F821E09DF80700012804D1FFE745
:101BA000082001F0BFF817E09DF80700022804D1D3
:101BB000FFE7082001F0F2F80DE09DF80700032888
:101BC00004D1FFE7082001F011F903E001208DF8AE
:101BD0000F0021E1FFE7FFE7FFE700208DF80F008E
:101BE0001AE1029841F20001C4F2020188422FD1A9
:101BF000FFE79DF80700002804D1FFE7102001F05F
:101C00005FF821E09DF80700012804D1FFE71020CC
:101C100001F088F817E09DF80700022804D1FFE7DB
:101C2000102001F0BBF80DE09DF80700032804D157
:101C3000FFE7102001F0DAF803E001208DF80F0033
:101C4000EAE0FFE7FFE7FFE700208DF80F00E3E0A1
:101C5000029841F20041C4F2020188422FD1FFE70D
:101C60009DF80700002804D1FFE7202001F028F8A4
:101C700021E09DF80700012804D1FFE7202001F0B2
:101C800051F817E09DF80700022804D1FFE7202053
:101C900001F084F80DE09DF80700032804D1FFE768
:101CA000202001F0A3F803E001208DF80F00B3E03D
:101CB000FFE7FFE7FFE700208DF80F00ACE0029898
:101CC00041F60001C4F2020188422FD1FFE79DF8DE
:101CD0000700002804D1FFE7402000F0F1FF21E0D9
:101CE0009DF80700012804D1FFE7402001F01AF811
:101CF00017E09DF80700022804D1FFE7402001F01B
:101D00004DF80DE09DF80700032804D1FFE74020BF
:101D100001F06CF803E001208DF80F007CE0FFE794
:101D2000FFE7FFE700208DF80F0075E0029841F60D
:101D30000041C4F2020188422FD1FFE79DF807005D
:101D4000002804D1FFE7802000F0BAFF21E09DF8D1
:101D50000700012804D1FFE7802000F0E3FF17E02F
:101D60009DF80700022804D1FFE7802001F016F853
:101D70000DE09DF80700032804D1FFE7802001F063
:101D800035F803E001208DF80F0045E0FFE7FFE79D
:101D9000FFE700208DF80F003EE0029842F20001BC
:101DA000C4F20201884233D1FFE79DF80700002802
:101DB00005D1FFE74FF4807000F082FF24E09DF82A
:101DC0000700012805D1FFE74FF4807000F0AAFF5B
:101DD00019E09DF80700022805D1FFE74FF4807055
:101DE00000F0DCFF0EE09DF80700032805D1FFE7B7
:101DF0004FF4807000F0FAFF03E001208DF80F002F
:101E00000AE0FFE7FFE7FFE700208DF80F0003E09F
:101E100002208DF80F00FFE79DF80F0004B080BD91
:101E200080B58AB00020C4F2020001210991FFF7B9
:101E3000F7FD40F20041C4F20201089008460999FA
:101E4000FFF7EEFD40F60001C4F2020107900846DC
:101E50000999FFF7E5FD40F60041C4F20201069042
:101E600008460999FFF7DCFD41F20001C4F20201C6
:101E7000059008460999FFF7D3FD41F20041C4F2ED
:101E80000201049008460999FFF7CAFD41F60001D6
:101E9000C4F20201039008460999FFF7C1FD41F61B
:101EA0000041C4F20201029008460999FFF7B8FD0B
:101EB00042F20001C4F20201019008460999FFF7BD
:101EC000AFFD4FF480410090084601F0DFF80AB002
:101ED00080BD000080B584B00390029100208DF891
:101EE00007000298411E0229009040D3FFE70098A6
:101EF00004283CD0FFE70098082838D0FFE7009876
:101F0000102834D0FFE70098202830D0FFE7009851
:101F100040282CD0FFE70098802828D0FFE70098C1
:101F2000B0F5807F23D0FFE70098B0F5007F1ED08A
:101F3000FFE70098B0F5806F19D0FFE70098B0F583
:101F4000006F14D0FFE70098B0F5805F0FD0FFE777
:101F50000098B0F5005F0AD0FFE70098B0F5804F19
:101F600005D0FFE70098B0F5004F04D1FFE700204F
:101F70008DF8070003E001208DF80700FFE79DF8CA
:101F80000700002805D1FFE70398029902F062F8E4
:101F900004E00398029902F067F8FFE704B080BDFF
:101FA00080B584B00390029100208DF8070002985C
:101FB000411E0229009040D3FFE7009804283CD03E
:101FC000FFE70098082838D0FFE70098102834D0A1
:101FD000FFE70098202830D0FFE7009840282CD059
:101FE000FFE70098802828D0FFE70098B0F5807FB1
:101FF00023D0FFE70098B0F5007F1ED0FFE70098E0
:10200000B0F5806F19D0FFE70098B0F5006F14D0DD
:10201000FFE70098B0F5805F0FD0FFE70098B0F5BC
:10202000005F0AD0FFE70098B0F5804F05D0FFE7CA
:102030000098B0F5004F04D1FFE700208DF80700AD
:1020400003E001208DF80700FFE79DF80700002856
:1020500005D1FFE70398029902F068F804E00398BD
:10206000029902F06BF8FFE704B080BD80B584B040
:102070000390029100208DF807000298411E02296A
:10208000009040D3FFE7009804283CD0FFE7009879
:10209000082838D0FFE70098102834D0FFE70098D0
:1020A000202830D0FFE7009840282CD0FFE7009888
:1020B000802828D0FFE70098B0F5807F23D0FFE785
:1020C0000098B0F5007F1ED0FFE70098B0F5806F54
:1020D00019D0FFE70098B0F5006F14D0FFE7009823
:1020E000B0F5805F0FD0FFE70098B0F5005F0AD031
:1020F000FFE70098B0F5804F05D0FFE70098B0F5F6
:10210000004F04D1FFE700208DF8070003E0012015
:102110008DF80700FFE79DF80700002805D1FFE7CD
:102120000398029902F0B6F804E00398029902F0CD
:10213000BDF8FFE704B080BD40F23C00C2F20000F1
:10214000006842F69071C2F200010A68104408600B
:102150007047000080B503F0B7FC80BD80B500F08B
:1021600003F8FFE7FEE700001EF0040F0CBFEFF3DB
:102170000880EFF3098000F001B8704781B000904B
:1021800040F24C10C2F200000021C1618161416146
:102190000161C1608160416001600099096801606E
:1021A0000099496841600099896881600099C9680F
:1021B000C16000990969016100994969416100990B
:1021C000896981610099C969C16101BE01B0704727
:1021D00080B584B003900291019203980299019A0C
:1021E00000F084F804B080BD80B582B00190019801
:1021F00000F0E0F802B080BD80B584B00A460390DC
:102200008DF80B100398019200F00CF99DF80B105B
:10221000002906D0FFE70398818A01F0FE01818240
:1022200005E00398818A41F001018182FFE703986C
:10223000017D00F0B3F903990090084600F0BAF868
:1022400004B080BD80B582B00190019800F02EF9F5
:1022500002B080BD80B584B00A4603908DF80B10A3
:1022600003989DF80B10019200F098F904B080BD1E
:1022700082B001900091012002B0704780B584B017
:1022800003900291019203980299019AFFF7A0FF2F
:1022900004B080BD80B582B001900198FFF7A4FF23
:1022A00002B080BD80B584B00A4603908DF80B1053
:1022B00003989DF80B100192FFF79EFF04B080BDBC
:1022C00080B582B001900198FFF7BCFF02B080BDDD
:1022D00080B584B00A4603908DF80B1003989DF8E2
:1022E0000B100192FFF7B6FF04B080BD80B590B02F
:1022F0000F900E910D920F98006801210691FFF743
:102300007DFB0F998968059008460699FFF776FBD3
:1023100000210C910B910A910991089107910F9A54
:1023200052680792069A0892022309930A920B9226
:102330000C910F99096807AB04900846194603935E
:1023400001F008FE0F990A68496802901046FFF7ED
:1023500027FE0F98C06807900F988068039901F0D6
:10236000F9FD0F998A68C96801901046FFF718FEB9
:102370000E98002804D0FFE70E980F99C86106E078
:102380000F9841F6B101C0F60001C161FFE70D9859
:10239000002804D0FFE70D980F99486206E00F98D7
:1023A00046F2E511C0F600014162FFE7002010B0DF
:1023B00080BD000080B586B0059000208DF8130028
:1023C00005988168C068039008460399FFF7E8FD07
:1023D000059801684068029008460299FFF7E0FD01
:1023E0000598408A012805DBFFE70598C169408A06
:1023F0008847FFE70598806801F016FE0599C968CF
:102400000840002818BF01208DF8130005980168C6
:102410004068019008460199FFF75CFD9DF81300A4
:1024200006B080BD80B586B0059005988168C0680B
:10243000049008460499FFF7B3FD059801684068C9
:10244000039008460399FFF7ABFD0598408A0128E1
:1024500005DBFFE70598C169408A8847FFE70598D3
:102460008168C068029008460299FFF733FD05981D
:10247000408A012805DBFFE70598C169408A884743
:10248000FFE7059801684068019008460199FFF749
:1024900021FD0598806801F0C7FD0599C9680840CD
:1024A000002818BF012006B080BD000080B584B0B0
:1024B000039003988168C068029008460299FFF76C
:1024C00009FD039801684068019008460199FFF7EB
:1024D00067FD0398408A012805DBFFE70398C1697F
:1024E000408A8847FFE703988168C06800900846E3
:1024F0000099FFF755FD0398408A012805DBFFE7A7
:102500000398C169408A8847FFE70398806801F013
:102510008BFD0399C9680840B0FA80F0400904B007
:1025200080BD000080B586B00A4605908DF8131076
:102530009DF813000006002809D5FFE7059881687B
:10254000C068039008460399FFF72AFD08E0059844
:102550008168C068029008460299FFF7BBFCFFE75C
:10256000059801684068019008460199FFF718FD39
:102570000598C169408A88470220FFF7B9F9059894
:1025800001684068009008460099FFF7A3FC059891
:10259000C169408A8847002006B080BD80B584B0FC
:1025A0000A4603908DF80B1000208DF80A0003995D
:1025B0000B684968019018460092FFF78BFC019860
:1025C0008DF80A00FFE79DF80A00072811DCFFE7F5
:1025D00003989DF80B10FFF7A5FF9DF80B1049001D
:1025E0008DF80B10FFE79DF80A0001308DF80A0006
:1025F000E9E7002004B080BD80B584B0039002916B
:102600000192009303980299019A009B00F076F8DA
:1026100004B080BD80B584B0039002910192009314
:1026200003980299019A009BFFF7E6FF04B080BD72
:1026300081B00090009800210170009841700098CE
:102640000F22827000984162009841710098817158
:102650000098C171009801810098818100984FF421
:10266000FA72C2820098C0F80E100098C0F81210DA
:10267000009840F60042C4F20202C26100984FF492
:1026800080420262009840F20043C4F202030364F5
:1026900000984FF4805CC0F844C0009883630098B1
:1026A0004FF4005CC0F83CC000980363009842639C
:1026B0000098836200984FF40042C262009805229D
:1026C0008266009843F60002C4F200028264009819
:1026D000C166009880F84E10009880F84F100846A8
:1026E00001B0704781B00090002001B07047000039
:1026F00081B00090002001B07047000080B58EB01E
:102700000C900B910A9209930C9800280DD0FFE7CA
:102710000C9840F22801C2F200010968884204D1F5
:10272000FFE70C98FFF784FF1DE00C98002808D005
:10273000FFE70C98002804D1FFE70C98FFF7D2FFC1
:1027400010E00C98002808D0FFE70C98002804D16E
:10275000FFE70C98FFF7CCFF03E001208DF837006E
:1027600062E0FFE7FFE70A98002804D0FFE70A9835
:102770000C99486206E00C9841F6A101C0F60001F0
:102780004162FFE70B98002804D0FFE70B980C99F3
:10279000086706E00C9841F6B101C0F60001016738
:1027A000FFE70998002804D0FFE709980C994867CB
:1027B00006E00C9846F2E511C0F600014167FFE71C
:1027C0000C98C069002826D0FFE70C98C069012149
:1027D0000291FFF713F900210891079106910591E5
:1027E00004910391029A049205920691079208912E
:1027F0000C99096A03910C99C96903AB01900846C9
:10280000194601F0A7FB0C99CA69096A00901046A5
:10281000FFF7C6FBFFE70C98406F80470C99886173
:1028200000208DF83700FFE79DF837000EB080BD1F
:1028300080B500F005F880BD80B5FFF7F9FF80BDD9
:1028400080B543F20000C4F2000001F059FD002001
:1028500080BD000080B500F055F880BD80B5FFF761
:10286000F9FF80BD80B58CB041F20000C4F20200D7
:10287000012105900491FFF7C1F800210B910A9105
:10288000099108910791069120220692049B0793D3
:10289000089109914FF0020CCDF828C00B9106A9C0
:1028A000DDF814C003906046029201F053FB0599D5
:1028B000019008460299FFF70DFB42F6CD00C0F6E5
:1028C000000003F077FC0CB080BD000080B540F242
:1028D0004000C2F200000168013101600068B0F5FB
:1028E000FA7F0ED9FFE740F24000C2F2000000215B
:1028F000016041F20000C4F202002021FFF7B6FBA4
:10290000FFE780BD80B5FFF7ADFF80BD81B00090CF
:1029100000986FF02001016001B0704780B586B06B
:10292000059004910020039004984068002801D08D
:10293000FFE7FFE742F20000C4F2010000F012F9E5
:1029400042F20011C4F201010290084600F00AF9B7
:102950000299084342F20022C4F20102019010469B
:1029600000F000F901990843002828D1FFE70498F6
:102970004068002815D0FFE70598406841F2E00163
:10298000CFF6FC71084004990A684B68D1F808C07A
:10299000C9681A4342EA0C0211430843059948608A
:1029A0000CE00598406841F2E001CFF6FC71084068
:1029B00004990968084305994860FFE702E001208F
:1029C0000390FFE7039806B080BD000080B584B097
:1029D000039000200290039800F0C4F801280DD164
:1029E000FFE703980021019100F036F9039801995F
:1029F00000F080F8039800F05FF8FFE70398806824
:102A0000C007002854D1FFE70398016821F03F0177
:102A10000160039841680022CFF63F0211404160F7
:102A2000039881684FF2FC02C8F280021140816075
:102A30000398C16801F07841C1600398016901F011
:102A4000404101610398416940F6FF729143416141
:102A5000039881696FF30B0181610398C1696FF37A
:102A60000B01C1610398016A6FF30B0101620398C6
:102A7000416A114341620398816A6FF30B018162DD
:102A80000398C16A01F07F41C1620398016B01F0B4
:102A9000404101630398816B6FF31501816342F23A
:102AA0000430C4F20100016821F403010160FFE772
:102AB000029804B080BD000081B000900098816849
:102AC00021F00101816001B07047000081B00090E9
:102AD0000098816821F00101816001B07047000019
:102AE00081B000900098816841F00101816001B0DF
:102AF0007047000082B00190009101988068BDF895
:102B0000021061F313400199886002B07047000021
:102B100080B584B00390029100200190039800F0EA
:102B200021F8002818D1FFE7039840684FF6FF61AD
:102B3000CFF6FF41084002990A68896811430843AB
:102B4000039948600398806820F4006002994968FE
:102B500008430399886002E001200190FFE7019893
:102B600004B080BD81B000900098806800F0010042
:102B700001B0704780B584B00390029100200190AD
:102B800002984068002801D0FFE7FFE70398FFF7AD
:102B9000E9FF00282ED1FFE70298406800280AD0FC
:102BA000FFE70398406820F4684002998968084369
:102BB0000399486006E00398406820F46840039950
:102BC0004860FFE7039880684FF6FD41CCF2FF01B3
:102BD000084002990A68CB68096902F070621A43DA
:102BE000114308430399886003980299496800F0EB
:102BF00007F802E001200190FFE7019804B080BDD2
:102C000082B0019000910198C06A20F47000009990
:102C100008430199C86202B07047000084B0039075
:102C2000029101920398029901F4407100EB911016
:102C30002C30009000980068029901F01F011F22BB
:102C40008A409043019A02F01F0202FA01F1084300
:102C50000099086004B0704782B00190009101981B
:102C600080689DF8031061F31B600199886002B0D1
:102C70007047000081B000900098816841F0804169
:102C8000816001B07047000084B00390029101920E
:102C90000398029901F0007100EBD1500C300090C4
:102CA000009800680299C1F3045107228A409043BA
:102CB000019A02FA01F108430099086004B07047D4
:102CC00081B00090009843F63001C4F202010A6816
:102CD00022EA0000086001B07047000082B0019055
:102CE000019843F63001C4F202010A6810430860FB
:102CF0000868019908400090009802B070470000F1
:102D000082B00190019843F63001C4F202010A68D2
:102D1000104308600868019908400090009802B0CC
:102D20007047000082B00190019843F63001C4F270
:102D300002010A6810430860086801990840009081
:102D4000009802B07047000082B00190019843F6ED
:102D50003001C4F202010A68104308600868019952
:102D600008400090009802B07047000081B00090C9
:102D7000009843F61001C4F202010A68104308608B
:102D800001B0704781B00090009843F61001C4F282
:102D900002010A681043086001B0704781B00090DA
:102DA000009843F61001C4F202010A68104308605B
:102DB00001B0704781B00090009843F61001C4F252
:102DC00002010A6822EA0000086001B070470000B2
:102DD00081B00090009843F61001C4F202010A6825
:102DE00022EA0000086001B07047000081B0009046
:102DF000009843F61001C4F202010A6822EA0000BA
:102E0000086001B07047000082B00190019843F65D
:102E10003401C4F202010A6810430860086801998D
:102E200008400090009802B07047000081B0009008
:102E3000009843F61401C4F202010A6810430860C6
:102E400001B0704781B00090009843F61401C4F2BD
:102E500002010A6822EA0000086001B07047000021
:102E600081B00090009843F64001C4F202010A6864
:102E700022EA0000086001B07047000081B00090B5
:102E8000009843F64001C4F202010A6822EA0000F9
:102E9000086001B07047000081B00090009843F6D0
:102EA0004001C4F202010A6822EA0000086001B091
:102EB0007047000082B00190019843F64001C4F2CF
:102EC00002010A68104308600868019908400090F0
:102ED000009802B07047000082B00190019843F65C
:102EE0004001C4F202010A681043086008680199B1
:102EF00008400090009802B07047000082B0019036
:102F0000019843F64001C4F202010A6810430860C8
:102F10000868019908400090009802B070470000CE
:102F200082B00190019843F64001C4F202010A68A0
:102F3000104308600868019908400090009802B0AA
:102F40007047000081B00090009843F62001C4F261
:102F500002010A681043086001B0704781B0009018
:102F6000009843F62001C4F202010A681043086089
:102F700001B0704781B00090009843F62001C4F280
:102F800002010A681043086001B0704781B00090E8
:102F9000009843F62001C4F202010A681043086059
:102FA00001B0704781B00090009843F62001C4F250
:102FB00002010A6822EA0000086001B070470000C0
:102FC00081B00090009843F62001C4F202010A6823
:102FD00022EA0000086001B07047000081B0009054
:102FE000009843F62001C4F202010A6822EA0000B8
:102FF000086001B07047000081B00090009843F66F
:103000002001C4F202010A6822EA0000086001B04F
:103010007047000081B00090009843F64401C4F26C
:1030200002010A6822EA0000086001B0704700004F
:1030300081B00090009843F64401C4F202010A688E
:1030400022EA0000086001B07047000081B00090E3
:10305000009843F64401C4F202010A6822EA000023
:10306000086001B07047000082B00190019843F6FB
:103070004401C4F202010A6810430860086801991B
:1030800008400090009802B07047000082B00190A4
:10309000019843F64401C4F202010A681043086033
:1030A0000868019908400090009802B0704700003D
:1030B00082B00190019843F64401C4F202010A680B
:1030C000104308600868019908400090009802B019
:1030D0007047000082B00190019843F64401C4F2A9
:1030E00002010A68104308600868019908400090CE
:1030F000009802B07047000081B00090009843F63D
:103100002401C4F202010A681043086001B070474C
:1031100081B00090009843F62401C4F202010A68CD
:103120001043086001B0704781B00090009843F6EA
:103130002401C4F202010A681043086001B070471C
:1031400081B00090009843F62401C4F202010A689D
:103150001043086001B0704781B00090009843F6BA
:103160002401C4F202010A6822EA0000086001B0EA
:103170007047000081B00090009843F62401C4F22B
:1031800002010A6822EA0000086001B070470000EE
:1031900081B00090009843F62401C4F202010A684D
:1031A00022EA0000086001B07047000081B0009082
:1031B000009843F62401C4F202010A6822EA0000E2
:1031C000086001B07047000080B584B00390002013
:1031D0000290039843F20001C4F20201884209D12F
:1031E000FFE74FF480500190FFF7C0FD0198FFF713
:1031F000E1FD02E001200290FFE7029804B080BDEB
:1032000082B00190009100980199086002B0704767
:1032100081B000900098006801B0704781B00090C4
:103220000098816841F00101816001B070470000A1
:1032300084B00390029101920398029901F47021E5
:1032400000EB9130083000900098006840F6FF7164
:103250008843019908430099086004B07047000052
:1032600082B001900091009800F01000012101FA55
:1032700000F001990A681043086002B0704700002E
:1032800080B584B0039002910192002000900198D3
:103290004068002801D0FFE7FFE70398029900F09B
:1032A0003DF8002833D1FFE70198406800281BD083
:1032B000FFE703980068029901F0100140F6FA72E6
:1032C0008A409043019A1368D2F804C0D2F808E00B
:1032D000D26843EA0C0343EA0E031A4302FA01F1EF
:1032E00008430399086011E003980068029901F00F
:1032F0001001FA228A409043019A1368D2681A4357
:1033000002FA01F1084303990860FFE702E0012097
:103310000090FFE7009804B080BD000082B00190EB
:10332000009101980068009901F01001C84000F078
:10333000010002B07047000080B582B0019000919A
:103340000098002810D1FFE7019800F023F90198B8
:1033500000F068F9019800F0ADF9019800F0DAF892
:10336000019800F097F892E00098012810D1FFE74B
:10337000019800F017F9019800F05CF9019800F04D
:10338000A1F9019800F0CEF8019800F08BF87DE0EB
:103390000098022810D1FFE7019800F013F9019876
:1033A00000F058F9019800F095F9019800F0C2F882
:1033B000019800F07FF868E00098032810D1FFE73B
:1033C000019800F007F9019800F04CF9019800F01D
:1033D00089F9019800F0B6F8019800F073F853E00D
:1033E0000098042810D1FFE7019800F0FBF801983D
:1033F00000F040F9019800F07DF9019800F0AAF87A
:10340000019800F067F83EE00098052810D1FFE72A
:10341000019800F0EFF8019800F034F9019800F0FD
:1034200071F9019800F09EF8019800F05BF829E02E
:103430000098062810D1FFE7019800F0E3F8019802
:1034400000F028F9019800F065F9019800F092F871
:10345000019800F04FF814E00098072810D1FFE71A
:10346000019800F0D7F8019800F01CF9019800F0DD
:1034700059F9019800F086F8019800F043F8FFE749
:10348000FFE7FFE7FFE7FFE7FFE7FFE7FFE702B040
:1034900080BD000081B0009000980421816001B0DF
:1034A0007047000081B0009000984FF480718160F7
:1034B00001B0704781B0009000984FF48021816086
:1034C00001B0704781B0009000984FF0807181602A
:1034D00001B0704781B0009000980421C16001B034
:1034E0007047000081B0009000984FF48071C16077
:1034F00001B0704781B0009000984FF48021C16006
:1035000001B0704781B0009000984FF08071C160A9
:1035100001B0704781B0009000980121816001B036
:103520007047000081B0009000984021816001B098
:103530007047000081B0009000984FF480318160A6
:1035400001B0704781B0009000984FF48001816015
:1035500001B0704781B0009000980121C16001B0B6
:103560007047000081B0009000984021C16001B018
:103570007047000081B0009000984FF48031C16026
:1035800001B0704781B0009000984FF48001C16095
:1035900001B0704781B0009000981021816001B0A7
:1035A0007047000081B0009000984FF48061816006
:1035B00001B0704781B0009000984FF48061816045
:1035C00001B0704781B0009000984FF48011816085
:1035D00001B0704781B0009000984FF08061816029
:1035E00001B0704781B0009000981021C16001B017
:1035F0007047000081B0009000984FF48061C16076
:1036000001B0704781B0009000984FF48011C16004
:1036100001B0704781B0009000984FF08061C160A8
:1036200001B0704781B0009000982021816001B006
:103630007047000081B0009000984FF400618160F5
:1036400001B0704781B0009000984FF40061816034
:1036500001B0704781B0009000984FF40011816074
:1036600001B0704781B0009000984FF00061816018
:1036700001B0704781B0009000982021C16001B076
:103680007047000081B0009000984FF40061C16065
:1036900001B0704781B0009000984FF40011C160F4
:1036A00001B0704781B0009000984FF00061C16098
:1036B00001B0704781B0009000980821816001B08E
:1036C0007047000081B0009000984FF40071816055
:1036D00001B0704781B0009000984FF400218160E4
:1036E00001B0704781B0009000984FF00071816088
:1036F00001B0704781B0009000980821C16001B00E
:103700007047000081B0009000984FF40071C160D4
:1037100001B0704781B0009000984FF40021C16063
:1037200001B0704781B0009000984FF00071C16007
:1037300001B0704784B00390029101920093039806
:1037400002994AF63132C0F60002515C08444069E1
:1037500020F007000199009B194308430399029B3D
:10376000D25C1144486104B07047000083B00290FD
:1037700001910092029801994AF63132C0F6000296
:10378000515C405848F21F01CFF6FC710840009987
:1037900008430299019BD25C885003B07047000037
:1037A00080B596B01590149146F21000C4F2020054
:1037B000139000201290149810F5803F27D1FFE756
:1037C000159846F20001C4F20201884209D1FFE7D0
:1037D0004FF400101190FFF7D5FA1198FFF7F8FA9F
:1037E00014E0159846F20041C4F20201884209D162
:1037F000FFE74FF480001090FFF7C4FA1098FFF72E
:10380000E7FA02E001201290FFE7FFE7ADE115982B
:10381000149900F0ADF9159846F20001C4F20201C6
:1038200088420AD1FFE71498002806D1FFE746F244
:103830001000C4F202000F902FE1159846F20041EB
:10384000C4F2020188420AD1FFE71498002806D189
:10385000FFE746F21040C4F202000E901AE11598FC
:1038600046F20001C4F2020188420AD1FFE714982F
:10387000012806D1FFE746F22800C4F202000D90AD
:1038800005E1159846F20041C4F2020188420AD1CE
:10389000FFE71498012806D1FFE746F22840C4F25A
:1038A00002000C90F0E0159846F20001C4F202010B
:1038B00088420AD1FFE71498022806D1FFE746F2B2
:1038C0004000C4F202000B90DBE0159846F2004184
:1038D000C4F2020188420AD1FFE71498022806D1F7
:1038E000FFE746F24040C4F202000A90C6E0159895
:1038F00046F20001C4F2020188420AD1FFE714989F
:10390000032806D1FFE746F25800C4F202000990EE
:10391000B1E0159846F20041C4F2020188420AD192
:10392000FFE71498032806D1FFE746F25840C4F297
:10393000020008909CE0159846F20001C4F20201D2
:1039400088420AD1FFE71498042806D1FFE746F21F
:103950007000C4F20200079087E0159846F200411B
:10396000C4F2020188420AD1FFE71498042806D164
:10397000FFE746F27040C4F20200069072E015982C
:1039800046F20001C4F2020188420AD1FFE714980E
:10399000052806D1FFE746F28800C4F20200059030
:1039A0005DE0159846F20041C4F2020188420AD156
:1039B000FFE71498052806D1FFE746F28840C4F2D5
:1039C0000200049048E0159846F20001C4F202019A
:1039D00088420AD1FFE71498062806D1FFE746F28D
:1039E000A000C4F20200039033E0159846F20041B3
:1039F000C4F2020188420AD1FFE71498062806D1D2
:103A0000FFE746F2A040C4F2020002901EE01598C3
:103A1000002146F20002C4F202029042019107D155
:103A2000FFE714980738B0FA80F040090190FFE7EB
:103A30000198C00746F2B841C4F2020100281CBF39
:103A400046F2B801C4F202010291FFE70298039026
:103A5000FFE703980490FFE704980590FFE70598B7
:103A60000690FFE706980790FFE707980890FFE7A2
:103A700008980990FFE709980A90FFE70A980B90C9
:103A8000FFE70B980C90FFE70C980D90FFE70D985F
:103A90000E90FFE70E980F90FFE70F981390139882
:103AA0000021016013984160139881601398C160F0
:103AB000139801611398212242611598149A00917C
:103AC0001146009A00F058F91498002804D1FFE735
:103AD00015983F21816047E01498012805D1FFE740
:103AE00015984FF4746181603DE01498022805D167
:103AF000FFE715984FF47C11816033E01498032898
:103B000005D1FFE715984FF07461816029E01498A2
:103B1000042804D1FFE715983F21C16020E01498E4
:103B2000052805D1FFE715984FF47461C16016E0D0
:103B30001498062805D1FFE715984FF47C11C16051
:103B40000CE01498072805D1FFE715984FF0746131
:103B5000C16002E001201290FFE7FFE7FFE7FFE707
:103B6000FFE7FFE7FFE7FFE7FFE7129816B080BD2A
:103B700082B001900091019800994AF63132C0F666
:103B80000002515C425822F00102425002B07047DC
:103B900082B001900091019800994AF63932C0F63E
:103BA0000002515C425822F00102425002B07047BC
:103BB00082B001900091019800994AF64132C0F616
:103BC0000002515C425822F00102425002B070479C
:103BD00082B001900091019800994AF63932C0F6FE
:103BE0000002515C425842F01002425002B070474D
:103BF00082B001900091019800994AF64132C0F6D6
:103C00000002515C425842F01002425002B070472C
:103C100082B001900091019800994AF63932C0F6BD
:103C20000002515C425842F00102425002B070471B
:103C300082B001900091019800994AF64132C0F695
:103C40000002515C425842F00102425002B07047FB
:103C500082B001900091019800994AF64132C0F675
:103C60000002515C0844406880B202B07047000016
:103C700010B584B00390029101920198C06A0028A7
:103C800001D0FFE7FFE703980299019A9368D2F801
:103C90000CC0D2F810E0546943EA0C0343EA0E0367
:103CA0002343D2F818C043EA0C03D2F81CC043EAFD
:103CB0000C03926A1A43FFF759FD0198C06A002865
:103CC00017D0FFE703980299019AD36A126B00920A
:103CD0001A46009BFFF72EFD03980299019A526B3A
:103CE00000F0BEF803980299019A926B00F0DEF89A
:103CF000FFE703980299019A526800F0A1F803982F
:103D00000299019A126800F0C1F803980299019A89
:103D1000126A00F047F803980299019A526A00F07B
:103D20002BF8002004B010BD81B00090009800680E
:103D3000C0F3401001B0704781B000900098006857
:103D4000C0F3405001B0704781B0009000984068C7
:103D5000C0F3C06001B0704782B00190009101983B
:103D600000994AF62932C0F60002515C4058C0F36F
:103D7000001002B07047000083B0029001910092E1
:103D8000029801994AF63132C0F60002515C40585F
:103D900020F06060009908430299019BD25C885032
:103DA00003B0704783B0029001910092029801998C
:103DB0004AF63132C0F60002515C084440684FF6C2
:103DC000FF718843009908430299019BD25C11441A
:103DD000486003B07047000083B0029001910092E8
:103DE000029801994AF63932C0F60002515C084443
:103DF00040684FF6FF718843009908430299019B80
:103E0000D25C1144486003B07047000083B0029058
:103E100001910092029801994AF64132C0F60002DF
:103E2000515C084440684FF6FF718843009908438D
:103E30000299019BD25C1144486003B070470000B6
:103E400083B002900191009200980299019A4AF67B
:103E50003133C0F600039A5C1144C86003B0704768
:103E600083B0029001910092029801994AF6313292
:103E7000C0F60002515C405820F0C0700099084321
:103E80000299019BD25C885003B0704783B00290C6
:103E90000191009200980299019A4AF63133C0F6D6
:103EA00000039A5C1144886003B0704783B00290AD
:103EB00001910092029801994AF63132C0F600024F
:103EC000515C405820F4C000009908430299019BBE
:103ED000D25C885003B0704781B00090009843F6E0
:103EE0001441C4F20101086001B0704743F600407C
:103EF000C4F20200016841F4806101607047000073
:103F000043F60040C4F20200016841F40071016010
:103F10007047000043F60040C4F20200016841F41B
:103F2000807101607047000043F60040C4F2020057
:103F3000006800F00F00704781B0009043F6004029
:103F4000C4F20200016821F00F01009A11430160E0
:103F500001B0704780B584B00390029100200190B9
:103F600000900298006890FAA0F0B0FA80F00190FA
:103F7000FFE7029800680199C840002850D0FFE789
:103F8000029800680199012202FA01F108400090AC
:103F90000098002840D0FFE702984068012805D02B
:103FA000FFE70298406802280DD1FFE703980099C7
:103FB000029A926800F04AF903980099029AD2682E
:103FC00000F016F9FFE703980099029A126900F0D1
:103FD00025F902984068022817D1FFE7009890FA67
:103FE000A0F0B0FA80F0072807D8FFE703980099FF
:103FF000029A526900F062F806E003980099029A6A
:10400000526900F073F8FFE7FFE703980099029AFE
:10401000526800F0BDF8FFE7019801300190A8E771
:10402000002004B080BD000081B0009000980069BD
:1040300001B0704781B000900098006901B07047EE
:1040400082B001900091009800040199886102B04B
:104050007047000082B0019000910098000401991F
:10406000886102B07047000080B584B0039002916F
:10407000002001900090029890FAA0F0B0FA80F031
:104080000190FFE702980199C840002814D0FFE78B
:1040900002980199012202FA01F10840009000986B
:1040A000002805D0FFE703980099FFF7C9FFFFE755
:1040B000019801300190E5E704B080BD83B0029023
:1040C000019100920298006A019991FAA1F1B1FA66
:1040D00081F189000F228A409043009A02FA01F18F
:1040E00008430299086203B07047000083B0029051
:1040F000019100920298406A0199090A91FAA1F18E
:10410000B1FA81F189000F228A409043009A02FAA5
:1041100001F108430299486203B0704782B00190F0
:10412000009100980199886102B0704782B00190B7
:10413000009100980199886102B0704780B584B001
:1041400003900291002001900090029890FAA0F054
:10415000B0FA80F00190FFE702980199C84000286A
:1041600014D0FFE702980199012202FA01F10840F8
:1041700000900098002805D0FFE703980099FFF70A
:10418000CDFFFFE7019801300190E5E704B080BD65
:1041900083B002900191009202980068019991FA0F
:1041A000A1F1B1FA81F1490003228A409043009ABB
:1041B00002FA01F108430299086003B07047000059
:1041C00083B002900191009202980068019991FADF
:1041D000A1F1B1FA81F1490003228A409043009A8B
:1041E00002FA01F108430299086003B07047000029
:1041F00083B002900191009202984068019991FA6F
:10420000A1F1B1FA81F101228A409043009A02FAA9
:1042100001F108430299486003B0704783B00290EF
:10422000019100920298C068019991FAA1F1B1FA46
:1042300081F1490003228A409043009A02FA01F179
:1042400008430299C86003B07047000083B0029031
:104250000191009202988068019991FAA1F1B1FA56
:1042600081F1490003228A409043009A02FA01F149
:1042700008430299886003B07047000082B0019043
:10428000009101984069009948400199486102B045
:104290007047000082B00190009101984069009938
:1042A00048400199486102B07047000080B584B071
:1042B00003900291002001900090029890FAA0F0E3
:1042C000B0FA80F00190FFE702980199C8400028F9
:1042D00014D0FFE702980199012202FA01F1084087
:1042E00000900098002805D0FFE703980099FFF799
:1042F000C5FFFFE7019801300190E5E704B080BDFC
:1043000081B0009000984AF6AA21016001B0704780
:1043100082B00190009101980099B0FBF1F0013852
:104320004EF21401CEF2000108604EF21800CEF2F7
:104330000000002101604EF21000CEF200000521C5
:10434000016002B07047000047F20000C4F20000B4
:10435000016841F4807101607047000047F2040079
:10436000C4F200000068C0F38000704781B0009084
:1043700047F20000C4F20000016821F48041009A75
:104380001143016001B0704743F60C00C4F2020013
:10439000016841F4000101607047000043F60C0021
:1043A000C4F20200016841F400210160704700007E
:1043B00043F60C00C4F20200016821F400610160C0
:1043C0007047000043F60C00C4F20200016841F49B
:1043D000006101607047000043F60800C4F202006B
:1043E000006800F0F000704743F60800C4F20200D5
:1043F000006800F4E050704743F60800C4F2020081
:10440000006800F46040704743F60800C4F2020000
:10441000006800F00C00704743F60800C4F2020088
:10442000006800F00C00704780B582B0019001F088
:10443000C3FA019908600198006801F085FA0199B2
:1044400048600198406801F093FA019988600198EA
:10445000406801F09FFA0199C86002B080BD000079
:1044600043F60000C4F20200016841F480310160AB
:104470007047000043F60000C4F20200016841F4F6
:10448000803101607047000043F60000C4F2020072
:104490000068C0F34040704743F60C00C4F20200CD
:1044A0000068C0B2C009704743F60C00C4F20200B5
:1044B0000068C0F3C000704743F67400C4F2020005
:1044C000016841F0010101607047000043F674008B
:1044D000C4F202000068C0F34000704784B003904B
:1044E00002910192009343F60400C4F202000168B5
:1044F00048F20002CFF6BF721140039A029B1A43A2
:10450000019B42EA831211430160016821F44031AA
:10451000009A1143016004B07047000043F60000A8
:10452000C4F20200016841F0807101607047000030
:1045300043F60400C4F20200006800F03F00704738
:1045400043F60400C4F20200006800F480007047E3
:1045500043F60400C4F202000068C0F388107047FC
:1045600043F60400C4F20200006800F440307047D3
:1045700043F60000C4F202000068C0F340607047D8
:1045800081B0009043F60800C4F20200016821F0F7
:10459000F001009A1143016001B0704781B00090B2
:1045A00043F60800C4F20200016821F4E051009AC9
:1045B0001143016001B0704781B0009043F60800DC
:1045C000C4F20200016821F46041009A11430160C5
:1045D00001B0704781B0009043F60800C4F20200B9
:1045E000016821F00301009A1143016001B0704796
:1045F00081B0009000986FF02001416001B07047D9
:1046000081B0009000986FF04001416001B07047A8
:1046100080B582B0019040200090FEF707FC009822
:10462000FEF710FC002002B080BD000081B00090B9
:104630000098016821F00401016001B0704700009A
:1046400081B000900098016841F00401016001B060
:104650007047000081B000900098016841F00801A7
:10466000016001B07047000081B000900098406880
:10467000C0F3401001B0704781B0009000984068CE
:1046800000F0010001B0704781B0009000984068D0
:10469000C0F3801001B0704781B00090009880682E
:1046A00001B0704781B000900098042809D1FFE75D
:1046B0004EF21000CEF20000016841F004010160EA
:1046C00008E04EF21000CEF20000016821F0040173
:1046D0000160FFE701B0704781B00090009840F2A0
:1046E0000001C2F20001086001B0704782B0019081
:1046F0000091009801990A6A22EA0000086202B05B
:104700007047000081B0009000986FF04001016197
:1047100001B0704781B0009000986FF00101016115
:1047200001B0704780B590B00F9000200E900F98A8
:104730000021C4F20101884208D1FFE701200D9059
:10474000FEF7DAFC0D98FEF707FDE0E00F98B0F1F8
:10475000804F08D1FFE701200C90FEF7F3FB0C9887
:10476000FEF720FCD2E00F9840F20041C4F20001B5
:10477000884208D1FFE702200B90FEF7E3FB0B987D
:10478000FEF710FCC1E00F9840F60001C4F20001F2
:10479000884208D1FFE704200A90FEF7D3FB0A986D
:1047A000FEF700FCB0E00F9840F60041C4F20001B3
:1047B000884208D1FFE708200990FEF7C3FB09985B
:1047C000FEF7F0FB9FE00F9841F20001C4F20001F8
:1047D000884208D1FFE710200890FEF7B3FB089845
:1047E000FEF7E0FB8EE00F9841F20041C4F20001B9
:1047F000884208D1FFE720200790FEF7A3FB079827
:10480000FEF7D0FB7DE00F9840F20041C4F20101B9
:10481000884208D1FFE702200690FEF76DFC06985B
:10482000FEF79AFC6CE00F9844F20001C4F201011B
:10483000884209D1FFE74FF480300590FEF75CFC19
:104840000598FEF789FC5AE00F9844F20041C4F243
:104850000101884209D1FFE74FF400300490FEF7D0
:104860004BFC0498FEF778FC48E00F9844F60001F2
:10487000C4F20101884209D1FFE74FF48020039080
:10488000FEF73AFC0398FEF767FC36E00F9841F616
:104890000001C4F20001884208D1FFE740200290E5
:1048A000FEF750FB0298FEF77DFB25E00F9841F6DE
:1048B0000041C4F20001884208D1FFE78020019046
:1048C000FEF740FB0198FEF76DFB14E00F9842F2F3
:1048D0000001C4F20001884209D1FFE74FF4807063
:1048E0000090FEF72FFB0098FEF75CFB02E0012032
:1048F0000E90FFE7FFE7FFE7FFE7FFE7FFE7FFE7D0
:10490000FFE7FFE7FFE7FFE7FFE7FFE7FFE70E98B7
:1049100010B080BD81B000900098016821F00101C5
:10492000016001B07047000081B000900098C1683C
:1049300021F48041C16001B07047000081B0009057
:104940000098C16821F04001C16001B070470000CB
:1049500081B000900098816821F08001816001B0F1
:104960007047000081B000900098016841F080011C
:10497000016001B07047000081B0009000980168AC
:1049800041F00101016001B07047000081B000906A
:104990000098416941F00101416101B07047000098
:1049A00081B000900098406A01B070478AB00990C9
:1049B000089107920898012803D1FFE7002004908E
:1049C00030E00898042803D1FFE70120039026E097
:1049D0000898102803D1FFE7022002901CE00898F5
:1049E000402803D1FFE70320019012E00898B0F5BA
:1049F000807F03D1FFE70420009007E0089806219C
:104A0000B0F5806F08BF05210091FFE70098019085
:104A1000FFE701980290FFE702980390FFE70398F1
:104A20000490FFE704988DF81B0009989DF81B106F
:104A30004AF61432C0F60002515C08441830059062
:104A4000059800689DF81B104AF62232C0F6000255
:104A5000515C03228A409043BDF81E2002FA01F106
:104A60000843059908600AB0704700008AB00990B1
:104A7000089107920898012803D1FFE700200490CD
:104A800030E00898042803D1FFE70120039026E0D6
:104A90000898102803D1FFE7022002901CE0089834
:104AA000402803D1FFE70320019012E00898B0F5F9
:104AB000807F03D1FFE70420009007E008980621DB
:104AC000B0F5806F08BF05210091FFE700980190C5
:104AD000FFE701980290FFE702980390FFE7039831
:104AE0000490FFE704988DF81B0009989DF81B10AF
:104AF0004AF61432C0F60002515C084418300590A2
:104B0000059800689DF81B104AF62232C0F6000294
:104B1000515CF0228A409043BDF81E2002FA01F158
:104B20000843059908600AB07047000089B00890F2
:104B3000079106920798012803D1FFE7002004900F
:104B400030E00798042803D1FFE70120039026E016
:104B50000798102803D1FFE7022002901CE0079875
:104B6000402803D1FFE70320019012E00798B0F539
:104B7000807F03D1FFE70420009007E0079806211B
:104B8000B0F5806F08BF05210091FFE70098019004
:104B9000FFE701980290FFE702980390FFE7039870
:104BA0000490FFE704988DF817000898006A9DF8B4
:104BB00017104AF61B32C0F60002515C0A228A40E6
:104BC0009043069A02FA01F108430899086209B075
:104BD0007047000080B584B003900291039800688C
:104BE000019003980021C4F20101884225D0FFE71B
:104BF0000398B0F1804F20D0FFE7039840F20041C6
:104C0000C4F20001884218D0FFE7039840F6000183
:104C1000C4F20001884210D0FFE7039840F600413B
:104C2000C4F20001884208D0FFE7039840F2004137
:104C3000C4F20101884208D1FFE7019820F070001A
:104C40000299496808430190FFE703980021C4F2E4
:104C50000101884255D0FFE70398B0F1804F50D052
:104C6000FFE7039840F20041C4F20001884248D0B7
:104C7000FFE7039840F60001C4F20001884240D0EB
:104C8000FFE7039840F60041C4F20001884238D0A3
:104C9000FFE7039840F20041C4F20101884230D09E
:104CA000FFE7039844F20001C4F20101884228D0D2
:104CB000FFE7039844F20041C4F20101884220D08A
:104CC000FFE7039844F60001C4F20101884218D0BE
:104CD000FFE7039841F60001C4F20001884210D0BA
:104CE000FFE7039841F60041C4F20001884208D072
:104CF000FFE7039842F20001C4F20001884208D1A4
:104D0000FFE7019820F440700299C96808430190B8
:104D1000FFE701980399086003980299896800F0F9
:104D200031F803980299098800F04AF803980021A5
:104D3000C4F20101884208D0FFE7039840F2004125
:104D4000C4F20101884206D1FFE703980299097C69
:104D500000F03EF8FFE70398FFF718FE002004B0CC
:104D600080BD000081B0009000980069C0F3801001
:104D700001B0704781B000900098006900F0010018
:104D800001B0704782B00190009100980199C8620B
:104D900002B0704782B0019000910198806844F29F
:104DA00007018843009908430199886002B0704761
:104DB00082B00190009100980199486202B070475A
:104DC00082B00190009100980199886202B070470A
:104DD00082B00190009100980199086302B0704779
:104DE00082B0019000910198806820F070000099D5
:104DF00008430199886002B07047000082B00190BA
:104E000000910198406820F07000009908430199D2
:104E1000486002B07047000082B0019001980068BD
:104E200000900098019949680091009902B070477C
:104E300082B001900198006800900098019949683B
:104E40000091009902B0704781B0009000986FF413
:104E50008071016001B0704782B0019001980068D4
:104E600000900098019949680091009902B070473C
:104E700082B00190019800680090009801994968FB
:104E80000091009902B0704782B0019001980068CB
:104E900000900098019949680091009902B070470C
:104EA00081B0009000986FF02001016001B0704760
:104EB00081B0009000986FF04001016001B0704730
:104EC00081B0009000986FF40071016001B07047EC
:104ED00081B000900098016921F49041016100982F
:104EE000416921F02A01416101B0704780B588B065
:104EF000079000200690079841F20001C4F20101DA
:104F0000884208D1FFE710200590FEF701F90598C7
:104F1000FEF730F95BE0079844F20041C4F200016B
:104F2000884209D1FFE74FF400300490FEF716F8ED
:104F30000498FEF745F849E0079844F60001C4F2EA
:104F40000001884209D1FFE74FF480200390FEF76B
:104F500005F80398FEF734F837E0079841F200416E
:104F6000C4F20101884208D1FFE720200290FEF739
:104F7000CFF80298FEF7FEF826E0079844F60041C5
:104F8000C4F20001884209D1FFE74FF400200190EC
:104F9000FDF7E4FF0198FEF713F814E0079845F2D7
:104FA0000001C4F20001884209D1FFE74FF48010EC
:104FB0000090FDF7D3FF0098FEF702F802E0012011
:104FC0000690FFE7FFE7FFE7FFE7FFE7FFE7069849
:104FD00008B080BD81B000900098C16821F0400108
:104FE000C16001B07047000081B000900098C168B6
:104FF00021F08001C16001B07047000081B00090D5
:105000000098C16841F40051C16001B070470000D0
:1050100081B000900098416941F04001416101B0C8
:105020007047000081B000900098416941F0800114
:10503000416101B07047000081B000900098C168E4
:1050400041F01001C16001B07047000081B00090D4
:105050000098C16841F02001C16001B070470000B4
:1050600081B000900098C16841F04001C16001B07A
:105070007047000081B000900098C16841F0800145
:10508000C16001B07047000080B588B007900691FC
:105090000120059000200490079800F0D1F8002826
:1050A0007BD1FFE70798C06849F20C6188430699F5
:1050B0004A68CB68D1F810C089691A4342EA0C02E9
:1050C000114308430799C86007980699896800F05A
:1050D00077F907980699496900F064F96846FFF77F
:1050E000A3F9079841F20001C4F20101884203D1FB
:1050F000FFE7039804903CE0079844F20041C4F2B3
:105100000001884203D1FFE70298049030E007983D
:1051100044F60001C4F20001884203D1FFE702987F
:10512000049024E0079841F20041C4F20101884252
:1051300003D1FFE70398049018E0079844F6004174
:10514000C4F20001884203D1FFE7029804900CE00A
:10515000079845F20001C4F20001884203D1FFE73D
:105160000298049000E0FFE7FFE7FFE7FFE7FFE7B3
:10517000FFE7049800280FD0FFE706980068002892
:105180000AD0FFE70020059007980499069A136853
:10519000926900F0A5F8FFE7FFE7059808B080BD29
:1051A00081B0009000980068C0F3400001B07047E3
:1051B00081B0009000980068C0F3001001B0704703
:1051C00081B0009000980068C0F3002001B07047E3
:1051D00081B0009000980068C0F3800001B0704773
:1051E00081B0009000980068C0F3C00001B0704723
:1051F00081B000900098006800F0010001B0704795
:1052000081B0009000980068C0F3401001B0704772
:1052100081B0009000980068C0F3801001B0704722
:1052200081B0009000980068C0B2C00901B070471A
:1052300081B0009000980068C0F3402001B0704732
:1052400081B000900098C068C0F3403001B0704752
:1052500081B0009000984069C0F3802001B0704791
:1052600081B000900098406900F0010001B07047E3
:1052700081B000900098C068C0F3001001B0704782
:1052800081B0009000980069C0F3801001B07047B1
:1052900081B000900098C068C0F3002001B0704752
:1052A00081B000900098C068C0F3401001B0704712
:1052B00081B000900098C068C0F3801001B07047C2
:1052C00081B000900098C068C0B2C00901B07047BA
:1052D00081B0009000984068C0B201B070470000F3
:1052E00080B586B005900491039202930398B0F5BF
:1052F000004F2AD1FFE704981921A0FB0101029A6F
:105300005300D20F01921A46019BFAF759FF48F257
:105310001F51C5F2EB11A0FB01235B094FEA031CEF
:105320004FF0640E03FB1E00322303EBC000A0FB12
:105330000101F82303EA51130CEB4303C1F34211BB
:10534000194489B2059B996029E004981921A0FBB2
:105350000101029A9300920F00921A46009BFAF7FD
:105360002FFF48F21F51C5F2EB11A0FB01235B098F
:105370004FF0640C03FB1C004FF0320C0CEB0010E0
:10538000A0FB01014FF0F00C0CEA511C0CEB0313D5
:10539000C1F34311194489B2059B9960FFE706B038
:1053A00080BD000082B0019000910198406920F416
:1053B0004070009908430199486102B070470000AD
:1053C00082B0019000910198006920F4405000994A
:1053D00008430199086102B07047000082B00A4694
:1053E00001908DF803109DF803000199486002B008
:1053F0007047000081B0009000986FF0010181605B
:1054000001B0704780B584B002468DF80F0002915C
:105410009DF80F000299019200F010F804B080BDD1
:1054200080B584B002468DF80F0002919DF80F0000
:1054300002990192FFF7E6FF04B080BD80B594B0F9
:1054400002468DF84F00129141F20000C4F20200B2
:1054500001210B900A910992FCF7D0FA0B99089060
:1054600008460A99FCF7CAFA0021119110910F9190
:105470000E910D910C910A9A0D920E920F9110922D
:10548000119110210C910CABDDF82CC007906046F7
:10549000069119460593FEF75DFD0B9904900846A9
:1054A0000699FCF717FD08200C900B99039008460D
:1054B0000599FEF74FFD0B99029008460399FCF7FA
:1054C00009FD129800F026F89DF84F10012910D11F
:1054D000FFE741F20000C4F2020008210190FCF74E
:1054E000F9FC10210198FCF75BFD0120FCF7D8F9CD
:1054F0000CE041F20000C4F2020010210090FCF721
:10550000E9FC08210098FCF7E5FCFFE7002014B057
:1055100080BD000080B582B00190019841F27171A8
:10552000884204D3FFE741F2707001900AE00198CD
:1055300040F2A951884204D8FFE740F2AA500190F6
:10554000FFE7FFE70198A0F224400190019840088E
:10555000019001990120FBF78DFE00210090084683
:1055600002B080BDFFE7FEE780B582B040F20800E0
:10557000C2F20000C16800224FF420730190084677
:10558000114600921A4600F00DF8019880684FF419
:105590002052009900F006F801200199087402B029
:1055A00080BD000084B00B4603908DF80B10019273
:1055B00003980090FFE70198411E0191002807D051
:1055C000FFE79DF80B0000994A1C00920870F2E773
:1055D00004B0704783B0002002900190FFE701986B
:1055E0008009042814D8FFE740F20800C2F2000046
:1055F000C068019930F81100002804D0FFE7029834
:1056000001300290FFE7FFE7019801300190E6E7E3
:105610000298642148434CF6CD41CCF6CC41A0FB26
:105620000101C1F307210090084603B07047000054
:1056300080B5FBF783FD80BD88B007900691059289
:10564000079800F0070004900498C0F107000528AF
:1056500003D3FFE70420019004E00498C0F10700A1
:105660000190FFE70198039004980430062803D8BE
:10567000FFE70020009003E0049803380090FFE764
:105680000098029006980399012202FA01F101396B
:10569000084002998840059B02FA01F1013919403E
:1056A000084308B07047000088B007900691059243
:1056B000079800F0070004900498C0F1070005283F
:1056C00003D3FFE70420019004E00498C0F1070031
:1056D0000190FFE70198039004980430062803D84E
:1056E000FFE70020009003E0049803380090FFE7F4
:1056F0000098029006980399012202FA01F10139FB
:10570000084002998840059B02FA01F101391940CD
:10571000084308B07047000088B0079006910592D2
:10572000079800F0070004900498C0F107000528CE
:1057300003D3FFE70420019004E00498C0F10700C0
:105740000190FFE70198039004980430062803D8DD
:10575000FFE70020009003E0049803380090FFE783
:105760000098029006980399012202FA01F101398A
:10577000084002998840059B02FA01F1013919405D
:10578000084308B07047000088B007900691059262
:10579000079800F0070004900498C0F1070005285E
:1057A00003D3FFE70420019004E00498C0F1070050
:1057B0000190FFE70198039004980430062803D86D
:1057C000FFE70020009003E0049803380090FFE713
:1057D0000098029006980399012202FA01F101391A
:1057E000084002998840059B02FA01F101391940ED
:1057F000084308B07047000088B0079006910592F2
:10580000079800F0070004900498C0F107000528ED
:1058100003D3FFE70420019004E00498C0F10700DF
:105820000190FFE70198039004980430062803D8FC
:10583000FFE70020009003E0049803380090FFE7A2
:105840000098029006980399012202FA01F10139A9
:10585000084002998840059B02FA01F1013919407C
:10586000084308B07047000080B588B0032004F0FA
:10587000ADFB04F0F5FA00210791079AFFF714FF3A
:105880006FF00B0106900846069904F027FB04F020
:10589000E7FA0799079AFFF707FF6FF00A010590EB
:1058A0000846059904F01AFB04F0DAFA0799079AFA
:1058B000FFF7FAFE6FF0090104900846049904F01E
:1058C0000DFB04F0CDFA0799079AFFF7EDFE6FF094
:1058D000040103900846039904F000FB04F0C0FAA9
:1058E0000799079AFFF7E0FE6FF003010290084660
:1058F000029904F0F3FA04F0B3FA0799079AFFF754
:10590000D3FE6FF0010101900846019904F0E6FA18
:1059100008B080BD80B500F013F880BD80B5FFF7FA
:10592000F9FF80BD80B54FF48030FEF7D5FAFEF761
:1059300015FD002803D0FFE7FFF7F0FFFFE780BD6C
:10594000704700007047000080B582B00190019858
:105950000090FEF741FDC0B200094AF6FC21C0F6F6
:105960000001085C009921FA00F002B080BD00003F
:1059700080B582B0019001980090FEF735FD800A55
:105980004AF60C31C0F60001085C009921FA00F0DB
:1059900002B080BD80B582B0019001980090FEF702
:1059A0002BFD400B4AF60C31C0F60001085C009953
:1059B00021FA00F002B080BD80B582B000200190D5
:1059C000FEF722FD01460028009108D0FFE700986D
:1059D00004280AD0FFE7009808280CD010E042F213
:1059E0000040C0F2F400019010E041F20020C0F24B
:1059F0007A0001900AE0082000F010F8019005E01C
:105A000042F20040C0F2F4000190FFE7019802B0BA
:105A100080BD000080B5FBF795FB80BD80B588B0E8
:105A200007900020069005900490FEF789FD0590F0
:105A300005980028039005D0FFE70398B0F5800F84
:105A400006D00BE042F20040C0F2F40006900BE0FA
:105A500041F20020C0F27A00069005E042F20040D8
:105A6000C0F2F4000690FFE70798082818D1FFE776
:105A700006980290FEF75CFD0299B1FBF0F00190F0
:105A8000FEF766FD019948430090FEF769FD000CA2
:105A9000022101EB40000099B1FBF0F00490FFE718
:105AA000049808B080BD000080B500F01DF880BDEE
:105AB00080B582B001468DF807009DF8070000917F
:105AC00000F052F802B080BD80B5FFF7EDFF80BD59
:105AD00080B582B001468DF807009DF8070000915F
