:020000040800F2
:10000000684C00209D010008BD180008090900087F
:10001000E117000809020008A133000800000000F1
:100020000000000000000000000000008D24000817
:100030008103000800000000A91A00080527000835
:1000400055400008891A0008B7010008B7010008E8
:10005000B7010008AD1A0008B7010008B701000891
:10006000B7010008B7010008B7010008B701000890
:10007000B7010008B7010008B7010008B701000880
:10008000B7010008B7010008B7010008B701000870
:10009000B7010008B7010008B7010008B701000860
:1000A000B7010008B7010008B7010008B701000850
:1000B000C52B0008B7010008B7010008B701000808
:1000C000B7010008B7010008B7010008B701000830
:1000D000B7010008CD2B0008B7010008B7010008E0
:1000E000B7010008B7010008B7010008B701000810
:1000F000B7010008B7010008B7010008B701000800
:10010000B7010008B7010008B7010008B7010008EF
:10011000B7010008B7010008B7010008B7010008DF
:100120002903000855030008B7010008B7010008BB
:10013000B7010008B7010008B7010008B7010008BF
:10014000B7010008B7010008B7010008B7010008AF
:10015000B7010008B7010008B7010008B70100089F
:10016000B7010008B7010008B7010008B70100088F
:10017000B7010008B7010008B7010008000000003F
:1001800019080008B7010008DFF80CD000F02AF8C1
:1001900000480047DD410008684C002006488047C1
:1001A00006480047FEE7FEE7FEE7FEE7FEE7FEE75C
:1001B000FEE7FEE7FEE7FEE7552B00088901000891
:1001C000D2B201E000F8012B491EFBD27047002299
:1001D000F6E710B513460A4604461946FFF7F0FF46
:1001E000204610BD064C074D06E0E06840F00103D4
:1001F00094E8070098471034AC42F6D3FFF7C8FFE5
:100200003C4200085C420008FFE7FEE780B500F0D2
:1002100017F880BD80B5FFF7F9FF80BD80B582B0CB
:1002200043F20000C4F2020000F088FC40F2540ED9
:10023000C2F2000E01218EF80010019002B080BDC4
:1002400080B5FFF7EBFF4FF4805000F085FB40F2E4
:100250005400C2F200004FF0000E80F800E080BDB4
:1002600080B500F00DF880BD80B500F017F880BDB6
:1002700080B5FFF7F5FF80BD80B5FFF7F5FF80BDC6
:1002800080B500F03FFF002807D0FFE700F028FF0F
:1002900000F0F6FE00F0D6FEFFE780BD80B500F06E
:1002A00039FF002808D0FFE700F0E0FE00F0D4FEA0
:1002B00003F092FF03F07CFF80BD000080B587B0A3
:1002C00013468C46864605900491ADF80E2000201A
:1002D000ADF80C000293CDF804C0CDF800E0FFE7C4
:1002E000BDF80C00BDF80E10884214DAFFE705983F
:1002F000BDF80C10405C049A515C884204D0FFE7C2
:1003000001208DF81B000AE0FFE7BDF80C0001306A
:10031000ADF80C00E4E700208DF81B00FFE79DF826
:100320001B0007B080BD000080B546F20040C4F25B
:10033000020000F025FC00280BD0FFE746F2004049
:10034000C4F20200002100F025FC002801D0FFE7E4
:10035000FFE780BD80B546F20040C4F2020000F025
:100360000FFC00280BD0FFE746F20040C4F2020069
:10037000012100F00FFC002801D0FFE7FFE780BD5E
:100380007047000080B500F005F880BD80B5FFF72C
:10039000F9FF80BD80B584B04FF0804001F062F974
:1003A000002819D0FFE74FF08040039001F03AF9A0
:1003B00040F2D80EC2F2000ECEF8000040F2E80083
:1003C000C2F2000090F800E00EF1010E80F800E0AB
:1003D000039801F0FFF8FFE74FF0804001F04CF97F
:1003E000002819D0FFE74FF08040029001F022F979
:1003F00040F2D80EC2F2000ECEF8040040F2E8003F
:10040000C2F2000090F801E00EF1010E80F801E068
:10041000029801F0E9F8FFE74FF0804001F036F96B
:10042000002819D0FFE74FF08040019001F00AF951
:1004300040F2D80EC2F2000ECEF8080040F2E800FA
:10044000C2F2000090F802E00EF1010E80F802E026
:10045000019801F0D3F8FFE74FF0804001F020F958
:10046000002819D0FFE74FF08040009001F0F2F82B
:1004700040F2D80EC2F2000ECEF80C0040F2E800B6
:10048000C2F2000090F803E00EF1010E80F803E0E4
:10049000009801F0BDF8FFE704B080BD80B582B0E0
:1004A000014601900198009100F04CF802B080BD27
:1004B00080B582B0014601900198009100F01EF8CD
:1004C00002B080BD80B584B0014603900398002837
:1004D000029110D0FFE7FFE70398411E0391002827
:1004E00008D0FFE74FF47A7000F008F800F016FA31
:1004F0000190F1E7FFE704B080BD000080B584B053
:100500000146039003980028029105D0FFE7039865
:1005100001F0FCFF0190FFE704B080BD80B582B020
:100520000146019001980091FFF7B8FF02B080BD2D
:1005300080B582B00146019001980091FFF7B8FFA5
:1005400002B080BD80B584B00146039003980028B6
:1005500002910FD0FFE701F0BFFF002805D1FFE7B0
:10056000039801F0BDFF019003E00398FFF7AAFF95
:10057000FFE7FFE704B080BD80B584B00A460346BC
:1005800003908DF80B1003989DF80B1001920093C7
:1005900000F01AF804B080BD80B500F0E7F880BD27
:1005A00080B584B00A46034603908DF80B1003987B
:1005B0009DF80B1001920093FFF7DEFF04B080BDA1
:1005C00080B5FFF7E9FF80BD80B584B00A460346D9
:1005D00003908DF80B1003980021C4F202018842A9
:1005E000019200930ED1FFE79DF80B00002804D084
:1005F000FFE7012000F0C4F903E0012000F09CF9BE
:10060000FFE7B1E0039840F20041C4F202018842E2
:100610000ED1FFE79DF80B00002804D0FFE7022071
:1006200000F0AEF903E0022000F086F9FFE79BE05E
:10063000039840F60001C4F2020188420ED1FFE7A0
:100640009DF80B00002804D0FFE7042000F098F983
:1006500003E0042000F070F9FFE785E0039840F61E
:100660000041C4F2020188420ED1FFE79DF80B0061
:10067000002804D0FFE7082000F082F903E00820FA
:1006800000F05AF9FFE76FE0039841F20001C4F26D
:10069000020188420ED1FFE79DF80B00002804D02C
:1006A000FFE7102000F06CF903E0102000F044F99F
:1006B000FFE759E0039841F20041C4F20201884289
:1006C0000ED1FFE79DF80B00002804D0FFE72020A3
:1006D00000F056F903E0202000F02EF9FFE743E098
:1006E000039841F60001C4F2020188420ED1FFE7EF
:1006F0009DF80B00002804D0FFE7402000F040F9EF
:1007000003E0402000F018F9FFE72DE0039841F6E0
:100710000041C4F2020188420ED1FFE79DF80B00B0
:10072000002804D0FFE7802000F02AF903E08020B1
:1007300000F002F9FFE717E0039842F20001C4F26B
:100740000201884210D1FFE79DF80B00002805D078
:10075000FFE74FF4807000F013F904E04FF480706D
:1007600000F0EAF8FFE7FFE704B080BD80B582B093
:100770000020C4F2020001210191FFF725FF40F2A1
:100780000040C4F202000199FFF71EFF40F600008E
:10079000C4F202000199FFF717FF40F60040C4F2CF
:1007A00002000199FFF710FF41F20000C4F20200BD
:1007B0000199FFF709FF41F20040C4F202000199DC
:1007C000FFF702FF41F60000C4F202000199FFF7B3
:1007D000FBFE41F60040C4F202000199FFF7F4FE6F
:1007E00042F20000C4F202000199FFF7EDFE4FF45F
:1007F000804000F05DF902B080BD000040F278005A
:10080000C2F20000007843F66441C2F200010A68B7
:10081000104408607047000080B582B040F60000C8
:10082000C5F2060000F09CFD00280ED0FFE740F660
:100830000000C5F20600019000F05CFD019800F098
:1008400063FD019800F06CFDFFE740F60000C5F283
:10085000060000F071FD002807D0FFE740F6000019
:10086000C5F2060000F03CFDFFE740F60000C5F2CF
:10087000060000F06BFD00280DD0FFE740F60000F9
:10088000C5F2060000F076FD40F2EC0EC2F2000E5A
:10089000CEF80000FFE702B080BD00001EF0040F9C
:1008A0000CBFEFF30880EFF3098000F001B8704748
:1008B00082B00146019040F2F000C2F20000002236
:1008C000C261826142610261C26082604260026014
:1008D000019A12680260019A52684260019A926815
:1008E0008260019AD268C260019A12690261019A1B
:1008F00052694261019A92698261019AD269C26128
:1009000001BE009102B0704780B5FFF7C7FFFFE757
:10091000FEE7000080B500F005F880BD80B5FFF768
:10092000F9FF80BD80B543F20000C4F2000000F082
:100930003DFB002080BD000082B00146019001987F
:1009400043F63002C4F20202136823EA000010608A
:10095000009102B07047000084B0014603900398F4
:1009600043F63002C4F202021368184310601068A4
:10097000039A1040029002980191009004B07047D1
:1009800084B001460390039843F63002C4F2020299
:100990001368184310601068039A10400290029880
:1009A0000191009004B0704782B001460190019817
:1009B00043F61002C4F2020213681843106000915B
:1009C00002B0704782B001460190019843F61002D0
:1009D000C4F20202136823EA00001060009102B022
:1009E0007047000082B001460190019843F6400232
:1009F000C4F20202136823EA00001060009102B002
:100A00007047000084B001460390039843F640020B
:100A1000C4F202021368184310601068039A104071
:100A2000029002980191009004B0704784B0014692
:100A30000390039843F64002C4F20202136818437D
:100A400010601068039A1040029002980191009083
:100A500004B0704782B001460190019843F620022D
:100A6000C4F20202136818431060009102B070478C
:100A700082B001460190019843F62002C4F20202BE
:100A8000136823EA00001060009102B07047000074
:100A900082B001460190019843F64402C4F202027A
:100AA000136823EA00001060009102B07047000054
:100AB00084B001460390039843F64402C4F2020254
:100AC0001368184310601068039A1040029002984F
:100AD0000191009004B0704784B0014603900398E0
:100AE00043F64402C4F2020213681843106010680F
:100AF000039A1040029002980191009004B0704750
:100B000082B001460190019843F62402C4F2020229
:100B1000136818431060009102B0704782B001461C
:100B20000190019843F62402C4F20202136823EAFA
:100B300000001060009102B07047000080B584B0E2
:100B40000146039001208DF80B00039843F2000248
:100B5000C4F202029042019109D1FFE74FF48050A4
:100B60000090FFF721FF0098FFF72CFF03E0002023
:100B70008DF80B00FFE79DF80B0004B080BD00006E
:100B800082B00146019001980068C0F340100091C6
:100B900002B0704784B00A4603460390029103985E
:100BA000029944F2182CC0F6000C1CF801104058B1
:100BB000C0F300100192009304B0704782B0014668
:100BC0000190019843F61442C4F2010210600091B2
:100BD00002B0704743F60040C4F20200016841F4DD
:100BE000806101607047000043F60040C4F20200DB
:100BF000016841F4007101607047000043F6004055
:100C0000C4F20200016841F4807101607047000085
:100C100043F60040C4F20200006800F00F00704785
:100C200082B00146019043F60040C4F2020002681F
:100C300022F00F02019B1A430260009102B070473C
:100C400080B588B00A4603460790069100200590BB
:100C500004900698006890FAA0F0B0FA80F0059031
:100C600003920293FFE7069800680599C8400028A0
:100C70004AD0FFE7069800680599012202FA01F1BF
:100C800008400490049800283AD0FFE70798049998
:100C9000069A526800F0F2F806984068012805D0DC
:100CA000FFE706984068022807D1FFE707980499F4
:100CB000069A926800F05AF9FFE707980499069A95
:100CC000126900F033F906984068022817D1FFE74F
:100CD000049890FAA0F0B0FA80F0072807D8FFE750
:100CE00007980499069A526900F062F806E007989E
:100CF0000499069A526900F07BF8FFE7FFE7FFE7E7
:100D0000059801300590AEE706984068012805D0A7
:100D1000FFE70698406802280AD1FFE7079806997E
:100D20000A68C96801911146019A00F0E7F8FFE7E7
:100D3000012008B080BD000084B00A46034603903D
:100D400002910398006902990840401AB0FA80F0B5
:100D500040090192009304B07047000084B00A4635
:100D6000034603900291029800040399886101925E
:100D7000009304B07047000084B00A460346039015
:100D8000029102980004039988610192009304B0D3
:100D90007047000084B00A4603460390029102980F
:100DA0000004039988610192009304B07047000029
:100DB00080B586B013468C46864605900491039212
:100DC0000598006A049991FAA1F1B1FA81F18900BC
:100DD0000F228A409043039A02FA01F108430599D1
:100DE00008620293CDF804C0CDF800E006B080BDE3
:100DF00080B586B013468C468646059004910392D2
:100E00000598406A0499090A91FAA1F1B1FA81F1B1
:100E100089000F228A409043039A02FA01F10843A5
:100E2000059948620293CDF804C0CDF800E006B001
:100E300080BD000084B00A460346039002910298E8
:100E4000039988610192009304B0704784B00A4608
:100E500003460390029102980399886101920093DE
:100E600004B0704784B00A4603460390029102988A
:100E7000039988610192009304B0704780B586B0F1
:100E800013468C46864605900491039205980068A7
:100E9000049991FAA1F1B1FA81F1490003228A4043
:100EA0009043039A02FA01F10843059908600293FE
:100EB000CDF804C0CDF800E006B080BD80B586B0A6
:100EC00013468C4686460590049103920598006867
:100ED000049991FAA1F1B1FA81F1490003228A4003
:100EE0009043039A02FA01F10843059908600293BE
:100EF000CDF804C0CDF800E006B080BD80B586B066
:100F000013468C46864605900491039205984068E6
:100F100004998843039A5143084305994860029312
:100F2000CDF804C0CDF800E006B080BD80B586B035
:100F300013468C4686460590049103920598C06836
:100F4000049991FAA1F1B1FA81F1490003228A4092
:100F50009043039A02FA01F108430599C86002938D
:100F6000CDF804C0CDF800E006B080BD80B586B0F5
:100F700013468C4686460590049103920598806836
:100F8000049991FAA1F1B1FA81F1490003228A4052
:100F90009043039A02FA01F108430599886002938D
:100FA000CDF804C0CDF800E006B080BD82B00146A7
:100FB000019001984AF6AA220260009102B070479F
:100FC00084B00A4603460390029103980299B0FB4D
:100FD000F1F001384EF21401CEF2000108604EF239
:100FE0001800CEF20000002101604EF21000CEF297
:100FF0000000052101600192009304B070470000D9
:1010000047F20000C4F20000016841F48071016001
:101010007047000047F20400C4F200000068C0F30B
:101020008000704782B00146019047F20000C4F290
:101030000000026822F48042019B1A430260009182
:1010400002B0704743F60C00C4F20200016841F49C
:10105000000101607047000043F60C00C4F202007A
:10106000016841F4002101607047000043F60C0064
:10107000C4F20200016821F40061016070470000C1
:1010800043F60C00C4F20200016841F40061016003
:101090007047000043F67000C4F20200016841F49A
:1010A000004101607047000043F67000C4F2020086
:1010B000016841F4803101607047000043F6080088
:1010C000C4F20200006800F00C00704743F6000014
:1010D000C4F20200016841F48031016070470000F1
:1010E00043F60000C4F20200016841F4803101605F
:1010F0007047000043F60000C4F202000068C0F32D
:101100004040704743F60C00C4F202000068C0B2D1
:10111000C009704743F60C00C4F202000068C0F337
:10112000C000704743F67400C4F20200016841F049
:10113000010101607047000043F67400C4F2020030
:101140000068C0F340007047B0B588B09C46964632
:101150000C460546079006910592049343F6040059
:10116000C4F20200016848F20002CFF2BF0211404F
:10117000079A069B1A43059B42EA8312049B1A4373
:1011800011430160CDF80CC0CDF808E00194009542
:1011900008B0B0BDB0B588B09C4696460C46054632
:1011A000079006910592049343F60400C4F20200EE
:1011B000016848F20002CFF6BF721140079A069B01
:1011C0001A43059B42EA831211430160016821F42E
:1011D0004031049A11430160CDF80CC0CDF808E00D
:1011E0000194009508B0B0BD43F60000C4F20200BF
:1011F000016841F0807101607047000043F6000013
:10120000C4F202000068C0F34060704743F670000B
:10121000C4F20200016821F48031016070470000CF
:1012200082B00146019043F60800C4F20200026851
:1012300022F0F002019B1A430260009102B0704755
:1012400082B00146019043F60800C4F20200026831
:1012500022F4E052019B1A430260009102B07047F1
:1012600082B00146019043F60800C4F20200026811
:1012700022F46042019B1A430260009102B0704761
:1012800082B00146019043F67000C4F20200026889
:1012900022F44072019B1A430260009102B0704731
:1012A00082B00146019043F60800C4F202000268D1
:1012B00022F4F812019B1A430260009102B07047B9
:1012C00082B00146019043F60800C4F202000268B1
:1012D00022F00302019B1A430260009102B07047A2
:1012E00082B00146019001986FF0200242600091A7
:1012F00002B0704782B00146019001986FF0400241
:101300004260009102B0704782B00146019001989E
:10131000026822F004020260009102B070470000EF
:1013200082B0014601900198026842F00402026016
:10133000009102B07047000082B001460190019810
:101340004068C0F34010009102B0704782B001467F
:1013500001900198406800F00100009102B07047D0
:1013600082B00146019001984068C0F3801000915E
:1013700002B0704782B001460190019880680091E8
:1013800002B0704780B586B00146059000208DF808
:101390001300059843F20002C4F201029042039147
:1013A0000CD1FFE74FF480500290FFF7A9FB0298A1
:1013B000FFF7B4FB01208DF81300FFE7059843F613
:1013C0000001C4F2000188420CD1FFE74FF48040D5
:1013D0000190FFF73FFB0198FFF74AFB01208DF8D2
:1013E0001300FFE7059843F60041C4F2000188426C
:1013F0000CD1FFE74FF400400090FFF72BFB009863
:10140000FFF736FB01208DF81300FFE79DF813006E
:1014100006B080BD82B0014601900198026842F09A
:1014200040020260009102B07047000080B586B0B3
:101430000A4603460590049100208DF80F00059898
:101440000292019300F058F8002837D1FFE7059881
:1014500000684FF6BF71884304990A684B68D1F859
:1014600008C0D1F80CE01A4342EA0C0242EA0E022C
:101470000B691A434B691A438B691A43CB691A43A8
:10148000096A11430843059908600598406820F0EF
:1014900004000499C98A0843059948600498006AC1
:1014A000B0F5005F06D1FFE705980499496A00F09E
:1014B00037F8FFE701208DF80F00FFE70598C169B5
:1014C00021F40061C1619DF80F0006B080BD0000ED
:1014D00082B0014601900198806800F001000091FF
:1014E00002B0704782B00146019001988068C0F355
:1014F0004000009102B0704782B00146019001980F
:101500000068C0F38010009102B0704782B00146BD
:1015100001900198C068C0B2009102B0704700000D
:1015200084B00A46034603900291BDF8080003996F
:1015300008610192009304B07047000084B00A462D
:101540000346039002910398406820F0100002992E
:101550000843039948600192009304B0704700006B
:1015600085B00A46034604908DF80F1004980C309D
:1015700002909DF80F00029908700192009305B047
:101580007047000082B00146019001980428009144
:1015900009D1FFE74EF21000CEF20000016841F0E1
:1015A0000401016008E04EF21000CEF20000016874
:1015B00021F004010160FFE702B0704782B00146EC
:1015C0000190019840F20002C2F200021060009106
:1015D00002B0704782B00146019001986FF002029C
:1015E0000261009102B0704782B0014601900198FB
:1015F0006FF004020261009102B0704782B00146B0
:10160000019001986FF008020261009102B07047EA
:1016100082B00146019001986FF0100202610091C2
:1016200002B0704782B0014601900198406B009172
:1016300002B0704782B0014601900198806B009122
:1016400002B0704782B0014601900198C06B0091D2
:1016500002B0704782B0014601900198006C009181
:1016600002B0704782B00146019001980069C0F352
:101670004000009102B0704782B00146019001988D
:101680000069C0F38000009102B0704782B001464B
:10169000019001980069C0F3C000009102B070474A
:1016A00082B00146019001980069C0F300100091DA
:1016B00002B0704782B00146019001986FF020029D
:1016C0000260009102B0704782B00146019001981B
:1016D0006FF040020260009102B0704782B0014694
:1016E00001900198C26822F04002C260009102B0ED
:1016F0007047000082B0014601900198C26822F054
:101700008002C260009102B07047000082B00146C2
:1017100001900198C26842F04002C260009102B09C
:101720007047000082B00146019001980068C0F344
:101730004010009102B0704782B0014601900198BC
:101740000068C0F38010009102B0704782B001467B
:10175000019001980068C0B2C009009102B07047C2
:1017600082B0014601900198C068C0F3401000911A
:1017700002B0704782B0014601900198C068C0F382
:101780008010009102B0704782B00146019001982C
:10179000C068C0B2C009009102B0704782B0014673
:1017A000019001984068C0B2009102B070470000FB
:1017B00084B00A46034603908DF80B109DF80B0089
:1017C000039948600192009304B0704782B00146CB
:1017D000019001986FF001028260009102B07047A1
:1017E000FFE7FEE780B582B040F25800C2F2000089
:1017F000C16800224FF42073019008461146009200
:101800001A4600F00DF8019880684FF420520099B4
:1018100000F006F801200199087402B080BD0000B4
:1018200080B587B013468C46864606908DF8171013
:101830000492069803900293CDF804C0CDF800E01E
:10184000FFE70498411E0491002807D0FFE79DF8A8
:10185000170003994A1C03920870F2E707B080BD95
:1018600083B0002002900190FFE7019880090428CE
:1018700014D8FFE740F25800C2F20000C068019996
:1018800030F81100002804D0FFE7029801300290E0
:10189000FFE7FFE7019801300190E6E70298642135
:1018A00048434CF6CD41CCF6CC41A0FB0101C1F33D
:1018B00007210090084603B07047000080B5FEF78E
:1018C000D7FC80BD80B58BB013468C4686460A9007
:1018D000099108920A9800F0070007900798C0F154
:1018E000070005280493CDF80CC0CDF808E003D319
:1018F000FFE70420019004E00798C0F10700019081
:10190000FFE70198069007980430062803D8FFE700
:101910000020009003E0079803380090FFE700984C
:10192000059009980699012202FA01F1013908404F
:1019300005998840089B02FA01F1013919400843D2
:101940000BB080BD80B58BB013468C4686460A909E
:10195000099108920A9800F0070007900798C0F1D3
:10196000070005280493CDF80CC0CDF808E003D398
:10197000FFE70420019004E00798C0F10700019000
:10198000FFE70198069007980430062803D8FFE780
:101990000020009003E0079803380090FFE70098CC
:1019A000059009980699012202FA01F101390840CF
:1019B00005998840089B02FA01F101391940084352
:1019C0000BB080BD80B588B0032002F0B1FB02F0FF
:1019D00053FB4FF0000E71467246CDF81CE0FFF746
:1019E00071FF6FF00B0106900846069902F054FB58
:1019F00002F042FB0799079AFFF764FF6FF00A01B4
:101A000005900846059902F047FB02F035FB07995F
:101A1000079AFFF757FF6FF00901049008460499F1
:101A200002F03AFB02F028FB0799079AFFF74AFFFA
:101A30006FF0040103900846039902F02DFB02F0B9
:101A40001BFB0799079AFFF73DFF6FF00301029018
:101A50000846029902F020FB02F00EFB0799079A54
:101A6000FFF730FF6FF0010101900846019902F085
:101A700013FB08B080BD000080B500F013F880BDF6
:101A800080B5FFF7F9FF80BD80B54FF48030FFF7D8
:101A900095F8FFF7BFFA002803D0FFE7FFF7F0FF44
:101AA000FFE780BD704700007047000080B5FEF77B
:101AB000E3FB80BD80B582B00146019001980091A2
:101AC00000F082F902B080BD80B582B0014601907D
:101AD0000198009100F0F2F902B080BD2DE9F04FBD
:101AE0009BB0DDF8A8C0DDF8A4E0289C279D269EC9
:101AF000259FDDF89080994692468B460F90CDF851
:101B000068C0CDF864E01894179516961597CDF82F
:101B100050801393129211910F991091109A11996C
:101B2000129BDDF84CC0DDF850E0159C169D179E09
:101B3000189FDDF864800E901A980D9068460C90FE
:101B40000D980B910C998861C1F814800F61CE60DB
:101B50008D604C60C1F800E010460B991A46634650
:101B6000CDF82890CDF824A0CDF820B000F01EFAD2
:101B70001BB0BDE8F08F000080B586B013468C46E0
:101B8000864605908DF81310039205989DF8131062
:101B9000039A0293CDF804C0CDF800E000F050FAAB
:101BA00006B080BD80B582B00146019001980091D9
:101BB00000F01AFB02B080BD80B586B013468C469B
:101BC000864605908DF81310039205989DF8131022
:101BD000039A0293CDF804C0CDF800E000F0FCFBBE
:101BE00006B080BD80B582B0014601900198009199
:101BF000FFF760FF02B080BD80B582B00146019062
:101C000001980091FFF760FF02B080BD2DE9F04F11
:101C10009BB0DDF8A8C0DDF8A4E0289C279D269E97
:101C2000259FDDF89080994692468B460F90CDF81F
:101C300068C0CDF864E01894179516961597CDF8FE
:101C400050801393129211910F991091109A11993B
:101C5000129BDDF84CC0DDF850E0159C169D179ED8
:101C6000189FDDF864800E901A980D9068460C90CD
:101C70000D980B910C998861C1F814800F61CE60AA
:101C80008D604C60C1F800E010460B991A4663461F
:101C9000CDF82890CDF824A0CDF820B0FFF71EFF96
:101CA0001BB0BDE8F08F000080B586B013468C46AF
:101CB000864605908DF81310039205989DF8131031
:101CC000039A0293CDF804C0CDF800E0FFF754FF6B
:101CD00006B080BD80B582B00146019001980091A8
:101CE000FFF760FF02B080BD80B586B013468C461A
:101CF000864605908DF81310039205989DF81310F1
:101D0000039A0293CDF804C0CDF800E0FFF754FF2A
:101D100006B080BD80B584B00A46034603908DF8B6
:101D20000B100398006A43F20001C4F201018842DB
:101D30000192009310D1FFE79DF80B00002805D019
:101D4000FFE74FF48050FEF7C7FE04E04FF48050E9
:101D5000FEF79EFEFFE733E00398006A43F60001BA
:101D6000C4F20001884210D1FFE79DF80B00002863
:101D700005D0FFE74FF48040FEF758FE04E04FF433
:101D80008040FEF72FFEFFE719E00398006A43F654
:101D90000041C4F20001884210D1FFE79DF80B001A
:101DA000002805D0FFE74FF40040FEF73FFE04E0B7
:101DB0004FF40040FEF716FEFFE7FFE7FFE7FFE7FF
:101DC000002004B080BD000080B584B001460390BF
:101DD0000398006A002802910DD0FFE70398006A7B
:101DE000FFF7D0FADDF80CE0002101907046FFF714
:101DF00091FF0090FFE7039800F002F804B080BD67
:101E000080B592B001461190002010900F900E9076
:101E10000D900C900B90119AD2690B920C900322AA
:101E20000D920E900F901090119A92690BAB0A9040
:101E30001046099119460893FEF702FF1199496966
:101E40000B9111990969079008460899FEF7F8FE69
:101E5000119949680B9111990968069008460899EB
:101E6000FEF7EEFE1199C9680B91119989680590EA
:101E700008460899FEF7E4FE11998A69C969049039
:101E80001046FEF7D7FF1198016940690390084694
:101E90000399FEF7CFFF1198016840680290084649
:101EA0000299FEF7C7FF11988168C0680190084643
:101EB0000199FEF7BFFF0A9812B080BD80B58EB0C1
:101EC00001460D900D9880690122069111460592F8
:101ED000FEF766FB0D9800690599FEF761FB0D980A
:101EE00000680599FEF75CFB0D9880680599FEF780
:101EF00057FB00200C900B900A90099008900790D7
:101F00000D99C969079105990891032209920A90D0
:101F10000B900C900D98806900280ED0FFE70D986B
:101F2000806907A9FEF78CFE0D99D1F818E0C96900
:101F300004907046FEF77EFFFFE70D98006B0C9053
:101F4000022008900D98406907900D98006907A934
:101F50000391FEF775FE0D99D1F810E049690290E2
:101F60007046FEF767FF0D98406807900D9800686F
:101F70000399FEF765FE0D99D1F800E049680190DC
:101F80007046FEF757FF0D98C06807900D9880685F
:101F90000399FEF755FE0D99D1F808E0C968009045
:101FA0007046FEF747FF00200EB080BD2DE9F04FD0
:101FB00093B0DDF888C0DDF884E0209C1F9D1E9E54
:101FC0001D9FDDF87080994692468B460790CDF8AC
:101FD00048C0CDF844E010940F950E960D97CDF8BB
:101FE00030800B930A92099107990891089A126A16
:101FF00006901046CDF81490CDF810A0CDF80CB096
:10200000FFF7C0F908990122029008461146FFF730
:1020100081FE0899096A09AA019008461146FFF74E
:1020200005FA08990A6A496B00901046FFF786FA8C
:102030000898006AFFF7EEF9002013B0BDE8F08FB2
:1020400080B58AB013468C46864609908DF82310D9
:102050000792002006900590049002208DF80F0052
:102060000998C06B00280293CDF804C0CDF800E0B9
:1020700005D0FFE70998C06B80470590FFE7FFE7B1
:102080009DF80F00022811D1FFE70998006AFFF7B9
:1020900029FA00280AD0FFE70998006A9DF8231062
:1020A000FFF75EFA01208DF80F00FFE70998006A3C
:1020B000FFF70EFA002813D0FFE70998006AFFF730
:1020C00025FA8DF80F000798002805D0FFE79DF846
:1020D0000F0007990870FFE700208DF80F00FFE759
:1020E0000998C06B00281ED0FFE70998C06B804795
:1020F00006900698DDF814E0704506D2FFE70598D3
:10210000C04306990844049004E006980599401AD3
:102110000490FFE70498652804D3FFE703208DF8B7
:102120000F00FFE70FE0069801300690069848F28E
:10213000A161C0F20101884204D3FFE704208DF8B9
:102140000F00FFE7FFE79DF80F00002805D0FFE72D
:102150009DF80F00032801DBFFE700E090E79DF802
:102160000F000AB080BD000080B58AB013468C46CF
:10217000864609908DF8231007929DF823000006EB
:1021800000280693CDF814C0CDF810E009D4FFE77D
:10219000099801684068039008460399FEF7DEFD40
:1021A00008E0099801684068029008460299FEF725
:1021B00041FEFFE70798002812D0FFE709988168E1
:1021C000C068019008460199FEF7B6FD002806D0C8
:1021D000FFE70798017841F001010170FFE7FFE791
:1021E00000200AB080BD000080B592B00146119079
:1021F0001198806901220A9111460992FEF7D0F9DF
:10220000119800690999FEF7CBF9119800680999AE
:10221000FEF7C6F9119880680999FEF7C1F9002008
:1022200010900F900E900D900C900B901199C96921
:102230000B9109990C9103220D920E900F90109022
:10224000119A92690DF12C0E089010467146CDF846
:102250001CE0FEF7F5FC119949690B911199096988
:10226000069008460799FEF7EBFC119949680B9117
:1022700011990968059008460799FEF7E1FC119944
:10228000C9680B9108990C91119A926804901046B4
:102290000799FEF7D5FC11998A69C9690390104620
:1022A000FEF7C8FD1198016940690290084602993D
:1022B000FEF7C0FD11980168406801900846019939
:1022C000FEF7B8FD11988168C06800900846009933
:1022D000FEF7B0FD089812B080BD000080B58AB04E
:1022E00013468C46864609908DF82310079209986C
:1022F00090F8250000280693CDF814C0CDF810E022
:1023000006D1FFE7099890F8260000280CD0FFE7D7
:10231000099890F82500012830D1FFE7099890F836
:10232000260001282AD1FFE7099801694069039036
:1023300008460399FEF712FD0998008D012805DB78
:10234000FFE70998816B008D8847FFE709989DF8A2
:102350002310079AFFF708FF09990A694969029053
:102360001046FEF767FD0998008D012805DBFFE7A1
:102370000998816B008D8847FFE729E0099801697A
:102380004069019008460199FEF754FD0998008DB7
:10239000012805DBFFE70998816B008D8847FFE77F
:1023A00009989DF82310079AFFF7DEFE09990A693C
:1023B000496900901046FEF7D1FC0998008D01286C
:1023C00005DBFFE70998816B008D8847FFE7FFE792
:1023D00000200AB080BD000080B58AB013468C464C
:1023E000864609908DF82310079200208DF81B0077
:1023F000079800280593CDF810C0CDF80CE004D064
:10240000FFE7079800210170FFE700208DF81B000F
:10241000FFE79DF81B0007281CDCFFE70798002852
:1024200005D0FFE70798017849000170FFE7099898
:102430009DF82310079AFFF751FF9DF823104900DC
:102440008DF823100290FFE79DF81B0001308DF8F6
:102450001B00DEE7099890F82500002809D1FFE766
:10246000099801694069019008460199FEF776FCD8
:1024700008E0099801694069009008460099FEF754
:10248000D9FCFFE700200AB080BD000070470000C3
:1024900080B500F045F880BD80B582B0014601905E
:1024A0000198009100F0CEF802B080BD80B500F038
:1024B00021F980BD80B500F02DF980BD80B500F018
:1024C00059F980BD80B582B0014601900198009114
:1024D00000F00AFA02B080BD80B5FFF7D9FF80BDD9
:1024E00080B582B00146019001980091FFF7D4FFBA
:1024F00002B080BD80B5FFF7D9FF80BD80B5FFF782
:10250000D9FF80BD80B5FFF7D9FF80BD80B582B00F
:102510000146019001980091FFF7D4FF02B080BD01
:1025200083B04EF21000CEF2000000684007002891
:102530001DD5FFE74EF21400CEF20000006840F215
:102540000001C2F20001096844F6D352C1F26202EE
:10255000A1FB02124FF0FF3303EB92129042019164
:1025600004D0FFE701208DF80B0021E01CE04EF2C3
:102570001400CEF20000006840F20001C2F2000137
:10258000096844F6D352C1F26202A1FB02124FF075
:10259000FF3303EB52229042009104D0FFE7012069
:1025A0008DF80B0004E0FFE700208DF80B00FFE73B
:1025B0009DF80B0003B0704783B0014602900120E4
:1025C0008DF8070002980028009137D0FFE700201F
:1025D0008DF80700FFE79DF80700032823DCFFE7DD
:1025E00040F26C00C2F2000000689DF80710405CE9
:1025F000002811D1FFE7029840F26C01C2F20001FD
:102600000A689DF8073002EB8302106108689DF8A4
:1026100007100122425406E0FFE79DF80700013051
:102620008DF80700D7E79DF8070000210328C8BFF1
:1026300001214FEA41008DF80700FFE79DF80700F0
:1026400003B0704780B588B0014607904EF218007D
:10265000CEF2000000680690069840F20002C2F236
:10266000000212684DF68363C4F21B33A2FB0323FE
:102670009B0CB0FBF3F0059005980228049103929F
:1026800011D3FFE7059800F02FF9DDF81CE0AEF15B
:10269000010ECDF81CE0DDF814E0CEF5757ECDF826
:1026A00018E00290FFE7079840F26C01C2F20001C7
:1026B00009688860FFE740F26C00C2F20000006821
:1026C0008068002804D0FFE7FEF728F90190F2E7C0
:1026D000069802280AD3FFE70698C0087C2805D888
:1026E000FFE7069800F000F90090FFE7002008B02F
:1026F00080BD000040F26C00C2F20000006840683B
:102700007047000080B582B0FFF7F8FE019002B07C
:1027100080BD000080B540F26C00C2F2000001688C
:102720004A6801324A6000684068002809D1FFE722
:1027300040F26C00C2F200000068C1680131C16063
:10274000FFE700F059F840F26C0EC2F2000EDEF81E
:1027500000E0DEF808E0BEF1000F09D0FFE740F22C
:102760006C00C2F200000068816801398160FFE7F7
:10277000002080BD80B586B040F26C00C2F200003F
:10278000006800F07DF8059000F0A4F840F2000E1B
:10279000C2F2000EDEF800E04FF47A710490704649
:1027A000FEF70EFC032001F0E3FC01F06DFC0F21AD
:1027B0004FF0000E7246CDF80CE0FFF7C3F84FF073
:1027C000FF3102900846029901F08CFC00F04EF8AF
:1027D00040F27801C2F2000101220A7040F2FD715C
:1027E000C0F6000101900846FFF7E6FE039900904D
:1027F000084606B080BD000080B582B000208DF88C
:102800000700FFE79DF8070003282CDCFFE740F2F4
:102810006C00C2F2000000689DF80710405C0028C0
:102820001AD0FFE740F26C00C2F2000000689DF889
:10283000071000EB8100006900280CD0FFE740F290
:102840006C00C2F2000000689DF8071000EB8100E8
:1028500000698047FFE7FFE7FFE79DF807000130C9
:102860008DF80700CEE702B080BD00004EF21000E8
:10287000CEF20000016841F00201016000207047C3
:1028800083B00146029000208DF80700029A506044
:10289000029A9060029AD0608DF807000091FFE7DD
:1028A0009DF80700032812DCFFE702989DF8071047
:1028B0000022425402989DF8071000EB810002614B
:1028C000FFE79DF8070001308DF80700E8E70020DA
:1028D00003B070474EF21000CEF20000016821F004
:1028E000020101600020704788B0014607900798F8
:1028F00040F20002C2F2000212684DF68363C4F295
:102900001B33A2FB03239B0C584306904EF2180086
:10291000CEF20000006805900020049003904EF273
:102920001400CEF20000006802900798C0087C28CE
:10293000019100922CD8FFE7FFE74EF21800CEF28B
:102940000000006804900598049988421ED0FFE7B3
:1029500004980599884207D2FFE705980499401A20
:1029600003990844039008E002980499401A0599D5
:102970000844039908440390FFE7049805900398DE
:102980000699884201D3FFE701E0FFE7D5E7FFE7BB
:10299000002008B07047000080B58AB000F05AF8F7
:1029A000FFF710F8FEF71EFFFDF70AFEFFF7AAFD7E
:1029B0000990FDF72FFC40F27400C2F20000D0F83D
:1029C00000E0694601220A6040F23151C0F6000180
:1029D00040F21D52C0F6000242F2F543C0F6000379
:1029E0000890704600F058FD08990A680790104654
:1029F00000F08CFD08990A680023069010461946DD
:102A0000059300F03BFD0898006840F20401C2F213
:102A100000015022059B04911946DDF810E0039255
:102A20007246039B00F07CFD0898006840F2880124
:102A3000C2F20001059A02911146029A039B00F02E
:102A40004BFD04980299039AFDF738FC01900AB0F7
:102A500080BD000080B584B04FF08050FDF7D2FFFC
:102A60004FF48040FEF7DEFA0520FEF7D9F8FEF7B6
:102A7000CFF8052808D0FFE744F22020C0F6000078
:102A8000212101F0EFFAFFE7FEF720FBFFE7FEF759
:102A900031FB012801D0FFE7F9E7FEF743FBFFE731
:102AA000FEF74AFB012801D0FFE7F9E7FEF7A8FA95
:102AB000FEF7FAFAFEF7AAFB4FF44070FEF7E0FBD0
:102AC0004FF40020FEF7ECFBFEF7E4FA4FF4800031
:102AD0004FF0040EA8210023039002917146029A40
:102AE000CDF804E0FEF756FB4FF0E0630398019940
:102AF000029AFEF729FBFEF777FBFFE7FEF77EFB66
:102B0000012801D0FFE7F9E70020FEF789FB4FF429
:102B1000A050FEF795FB4FF40040FEF7A1FB02200A
:102B2000FEF7CEFBFFE7FEF7C9FA082801D0FFE762
:102B3000F9E70420FEF726FD47F60020C0F6032043
:102B4000FEF73CFDFEF75AF8FEF744F8FEF74CF8A6
:102B500004B080BD4EF68850CEF20000016841F40A
:102B60007001016043F60000C4F20200016841F008
:102B70000101016043F60801C4F2020100220A606B
:102B800001684FF6FF73CFF6F6631940016043F614
:102B90000401C4F2020143F21003C2F200430B60CD
:102BA000016821F48021016043F60C00C4F20200A8
:102BB00002604EF60850CEF200004FF00061016056
:102BC0007047000080B5FDF7E1FB80BD80B586B0A1
:102BD00040F27000C2F2000000688069FEF7A2FDBA
:102BE000002825D0FFE740F27000C2F20000006824
:102BF0008069FEF7B5FD00281AD0FFE740F27000AB
:102C0000C2F20000006841F20001C4F20101059027
:102C100008460491FEF7C2FD059903900846039902
:102C200000F072F8049902900846FEF743FDFFE7B2
:102C300040F27000C2F2000000688069FEF786FD75
:102C4000002814D0FFE740F27000C2F200000068D4
:102C50008069FEF799FD002809D0FFE740F2700077
:102C6000C2F20000006800F069F80190FFE740F24E
:102C70007000C2F2000000688069FEF75DFD002868
:102C80001BD0FFE740F27000C2F2000000688069CC
:102C9000FEF770FD002810D0FFE740F27000C2F28E
:102CA0000000006800F040F841F2000EC4F2010E8E
:102CB00000907046FEF708FDFFE706B080BD0000FB
:102CC00080B584B00A46034603908DF80B10039834
:102CD0009DF80B100192009300F04CFA04B080BDF7
:102CE00080B582B0014601900198009100F066FA2B
:102CF00002B080BD80B582B001460190019800917C
:102D000000F098FA02B080BD80B584B00A46034650
:102D100003908DF80B1003989DF80B10019200930F
:102D2000FFF7CEFF04B080BD80B582B001460190B0
:102D300001980091FFF7D4FF02B080BD80B582B04A
:102D40000146019001980091FFF7D4FF02B080BDC9
:102D500080B584B00A46034603908DF80B100398A3
:102D6000406900280192009312D0FFE79DF80B0004
:102D7000012806D1FFE7039801694069FDF7FCFFD0
:102D800005E0039801694069FEF760F8FFE7FFE797
:102D9000002004B080BD000084B00A4603460390C2
:102DA0008DF80B109DF80B0000280192009305D0C0
:102DB000FFE70398002180F84A1004E003980021FF
:102DC00080F82A10FFE7002004B0704780B584B077
:102DD0000A46034603908DF80B100398C06800283C
:102DE0000192009314D0FFE79DF80B00012807D152
:102DF000FFE703988168C0680222FEF75FF806E0EB
:102E000003988168C0680022FEF758F8FFE7FFE7E3
:102E1000002004B080BD000080B58CB00A46034697
:102E20000B908DF82B109DF82B0040F28001C2F220
:102E3000000108700B9890F83F00014604280992A1
:102E40000893079100F2CE800799DFE801F0033084
:102E5000528CCA000B98B0F84400002826D1FFE736
:102E60000B98407840F28001C2F200010978884254
:102E70001BD1FFE740F28000C2F2000000780B99FE
:102E8000896D08700B98012180F83F100B98A0F80D
:102E900046100B98069100F02DFA0B990590084604
:102EA0000699FFF779FF0490FFE7FFE79BE040F208
:102EB0008000C2F2000001780B9A926D5170007888
:102EC0000B99A1F842000B98B0F842100902A0F843
:102ED00042100B98022180F83F100B98B0F8461072
:102EE0000131A0F846100B98012100F003FA03907D
:102EF00079E040F28000C2F2000001780B9A926DF6
:102F0000917000780B99B1F842201044A1F842006A
:102F10000B98B0F846100131A0F846100B98B0F8A5
:102F20004200012814DBFFE70B98B0F842000B9930
:102F3000B1F8481088420BDAFFE70B98B0F842006E
:102F40000B99A1F846000B98032180F83F1004E08C
:102F50000B98002180F83F10FFE70B98012100F04B
:102F6000C9F902903FE040F28000C2F20000007810
:102F70000B998A6DB1F844101144C8700B98B0F8E1
:102F800044100131A0F844100B98B0F846100131FC
:102F9000A0F846100B98B0F844000B99B1F848100F
:102FA000884205DBFFE70B980021A0F84410FFE7FB
:102FB0000B98012100F09EF90B99B1F84410DDF84F
:102FC0002CE0BEF842E07145019009DBFFE70B9869
:102FD000042180F83F100B98012180F83E10FFE794
:102FE00001E000E0FFE700200CB080BD80B58AB0B2
:102FF0000A46034609908DF823109DF8230040F2FD
:103000008101C2F200010870099890F83F00014662
:10301000032807920693059100F2A7800599DFE83F
:1030200001F0022F65A30998B0F84400002826D1CA
:10303000FFE70998407840F28101C2F20001097867
:1030400088421BD1FFE740F28100C2F20000007805
:103050000999896D08700998012180F83F10099835
:10306000A0F846100998049100F044F909990390DA
:1030700008460499FFF790FE0290FFE7FFE775E02E
:1030800040F28100C2F200000078012823DBFFE754
:1030900040F28100C2F2000000780999B1F84810AE
:1030A000C9B2884217DAFFE740F28100C2F200009D
:1030B0000178099A926D517000780999A1F842003F
:1030C0000998B0F846100131A0F84610099802217D
:1030D00080F83F1004E00998002180F83F10FFE7D6
:1030E0000998012100F006F901903FE040F28100CB
:1030F000C2F20000007809998A6DB1F844101144B9
:1031000088700998B0F844100131A0F8441009986B
:10311000B0F846100131A0F846100998B0F8440004
:103120000999B1F84810884205DBFFE709980021AA
:10313000A0F84410FFE70998012100F0DBF8099995
:10314000B1F84410DDF824E0BEF842E0714500908B
:1031500009DBFFE70998032180F83F100998012156
:1031600080F83E10FFE701E000E0FFE700200AB032
:1031700080BD000080B586B00A46034604908DF8F5
:103180000F100498B0F84800FE280292019308DC62
:10319000FFE704989DF80F10FFF728FF8DF8170040
:1031A00007E004989DF80F10FFF736FE8DF8170022
:1031B000FFE79DF8170006B080BD000080B584B021
:1031C0000146039003984069002802910ED0FFE762
:1031D0000398C07F002809D1FFE7039880690D217B
:1031E000FEF7E6FA03980121C1771FE003984069D2
:1031F00000280ED0FFE70398C07F012809D1FFE720
:10320000039880690A21FEF7D3FA03980221C17757
:103210000BE003980021C17703988069FEF75EFAFE
:10322000039800F095F80190FFE7FFE7002004B055
:1032300080BD000080B586B0014605900598408CA1
:103240000028049143D0FFE70598808C0599498CAC
:10325000884236D0FFE705988169826B808C105CCC
:10326000039008460399FEF7A3FA0598818C013173
:1032700081840598808C0599098D884204DBFFE7DD
:10328000059800218184FFE70598808C0599498C79
:10329000884215DBFFE70598C08C012810DBFFE7AB
:1032A0000598808C0599C98C884209DBFFE7059851
:1032B0008069FEF71FFA05988069FEF727FAFFE795
:1032C00004E005988069FEF715FAFFE708E0059825
:1032D0008069FEF70FFA059800F03AF80290FFE7D0
:1032E00005980021019100F005F801990090084629
:1032F00006B080BD80B586B00A46034605908DF8BD
:103300001310002003900598C06D002802920193CD
:1033100005D0FFE70598C06D80470390FFE79DF853
:103320001300002808D0FFE703980599C8640598A2
:10333000C06C0599086507E003980599C86205986F
:10334000C06A05990863FFE7002006B080BD000051
:1033500080B586B0014605900598012282770598D0
:1033600000224284059882840598C2840598C2622E
:1033700005980263059880F82A200598C277059879
:10338000049111460392FFF7E3FC05990290084669
:103390000399FFF71BFD03990190084606B080BD15
:1033A000FFE7FEE780B584B00A460346039002912A
:1033B000039802990192009300F060F904B080BD77
:1033C000F0B58BB0DDF840C09E4614460D4606466B
:1033D0000A900991089207938DF81BC00A980999E1
:1033E000089A079B9DF81BC06F46C7F800C0CDF830
:1033F00014E004940395029600F048FA0BB0F0BD77
:10340000B0B588B09C4696460C4605460790069196
:103410000592ADF8123007980699059ABDF812305A
:10342000CDF80CC0CDF808E00194009500F0D2FA78
:1034300008B0B0BD80B582B00146019001980091FE
:1034400000F04EFB02B080BDB0B588B09C469646F9
:103450000C460546079006910592ADF81230079884
:103460000699059ABDF81230CDF80CC0CDF808E0E9
:103470000194009500F040FD08B0B0BD80B584B067
:103480000A46034603900291039802990192009321
:10349000FFF788FF04B080BDF0B58BB0DDF840C009
:1034A0009E4614460D4606460A90099108920793D7
:1034B0008DF81BC00A980999089A079B9DF81BC0B4
:1034C0006F46C7F800C0CDF814E004940395029647
:1034D000FFF776FF0BB0F0BDB0B588B09C469646BE
:1034E0000C460546079006910592ADF812300798F4
:1034F0000699059ABDF81230CDF80CC0CDF808E059
:1035000001940095FFF77CFF08B0B0BD80B582B094
:103510000146019001980091FFF78CFF02B080BD39
:10352000B0B588B09C4696460C4605460790069175
:103530000592ADF8123007980699059ABDF8123039
:10354000CDF80CC0CDF808E001940095FFF77CFFA2
:1035500008B0B0BD82B001460190019841F22C0242
:103560000023C4F202038350019841F230024FF06D
:10357000100C40F802C0019841F2240283500198D7
:1035800041F228024FF0200C40F802C0019841F2AD
:103590001C02835001984FF481524FF0400C40F8C8
:1035A00002C0019841F214028350019841F21802BE
:1035B00080238350019841F24402052383500198EF
:1035C00041F2340243F20003C4F201038350019834
:1035D00041F2480200238350019841F23C02835299
:1035E000019841F239028354019841F23A0283541E
:1035F0001846009102B0704782B001460190002049
:10360000009102B07047000082B001460190002096
:10361000009102B07047000080B588B00146079065
:10362000079841F22C02835841F2300C50F80C00FC
:1036300006901846069B059119460492CDF80CC0D9
:10364000FDF7A8FB40F28400C2F200000068079971
:10365000062200230290084611461A46029B98470C
:103660000799049A8B58DDF80CC051F80C100190A2
:103670001846FDF7F7FB08B080BD000080B592B09A
:103680000A4603461190109110980003109011986B
:103690000F920E93FFF7C0FF1198642100F0B2FB68
:1036A000119941F22C028B5841F2300E51F80E1054
:1036B0000D9018460C92CDF82CE0FDF76BFB40F214
:1036C0008400C2F200000168119A20234FF0000E1E
:1036D0000A901046099119467246099BCDF820E0E0
:1036E00098470A990A68119B9DF84210079018465E
:1036F000089B06921A46DDF818E0F0470A990A6816
:10370000119B9DF8411005901846089B04921A469B
:10371000DDF810E0F0470A990A68119B9DF8401007
:1037200003901846089B02921A46DDF808E0F0471D
:1037300011990C9A8B58DDF82CE051F80E1001907D
:103740001846FDF78FFB119841F20801415A00F02D
:1037500059FB009012B080BD2DE9F0479AB00146A8
:103760001990199841F2140210440E910D92FEF72F
:1037700039FA19990D9A11440C900846FEF73CFA53
:103780000FA928220B9008461146FCF720FD0020C7
:103790000F904FF4827110911190199841F23901F4
:1037A000405C00280FD1FFE700201290199841F2E9
:1037B0002401415841F2280280580A9008460A998B
:1037C000FDF7E8FA02E002201290FFE7199841F2B3
:1037D0003901405C002803D1FFE70020139002E08C
:1037E00001201390FFE74FF400701490082015900B
:1037F00000201690179007211891199941F2140290
:1038000011440F9A109BDDF844C0DDF848E0139C8A
:10381000149D159E169FDDF85C80DDF86090EA46E9
:10382000CAF81890CAF81480CAF81070CAF80C6068
:10383000CAF80850CAF80440CAF800E009900846DF
:1038400011461A466346FEF7E1F9099908900846C1
:103850001AB0BDE8F087000080B586B013468C46EC
:10386000864605908DF813100392059841F21401D5
:1038700008449DF81310039A0293CDF804C0CDF8C4
:1038800000E0FEF711FA06B080BD000070B590B000
:10389000DDF850C09E4614460D4606460E900D912A
:1038A0000C920B938DF82BC00E980028CDF824E0D5
:1038B0000894079506960ED0FFE70E9840F2740123
:1038C000C2F200010968884205D1FFE70E98FFF7B0
:1038D00041FE05901FE00E98002809D0FFE70E98E2
:1038E000002805D1FFE70E98FFF786FE049011E04F
:1038F0000E98002809D0FFE70E98002805D1FFE7B1
:103900000E98FFF781FE039003E001208DF83F0041
:103910005BE0FFE7FFE79DF82B00002813D0FFE7EF
:103920000E9841F23801012242540E98FFF714FF1D
:1039300040F28401C2F2000143F65902C0F60002CF
:103940000A60029012E00E9841F2380100224254BF
:103950000E9800F005FA40F28401C2F2000143F62D
:10396000D152C0F600020A600190FFE70C980028CF
:1039700006D0FFE70C980E9941F21002885008E03B
:103980000E9840F21D51C0F6000141F21002815024
:10399000FFE70D98002806D0FFE70D980E9941F239
:1039A0004C02885008E00E9840F23151C0F60001F8
:1039B00041F24C028150FFE70B980E9941F2500200
:1039C000885000208DF83F00FFE79DF83F0010B0C1
:1039D00070BD0000B0B596B09C4696460C460546B4
:1039E000159014911392ADF84A300020ADF84800BC
:1039F000159941F22C028A5841F23003C9581190AE
:103A00001046CDF840C0CDF83CE00E940D95FDF782
:103A1000C1F940F28400C2F200000168159A032344
:103A20000C9010460B911946119A0B9B98470C99D4
:103A30000A68159B9DF852100A901846119B09922E
:103A40001A46DDF824C0E0470C990A68159B9DF8DA
:103A5000511008901846119B07921A46DDF81CC0B9
:103A6000E0470C990A68159B9DF85010069018467F
:103A7000119B05921A46DDF814C0E0471199ADF884
:103A800048100490FFE7BDF84800BDF84A1088428E
:103A900018DAFFE740F28400C2F2000000681599CE
:103AA000139ABDF848301A44FF230390084619467C
:103AB000039B98470290FFE7BDF848000130ADF83E
:103AC0004800E0E7159841F22C01415841F23002DC
:103AD0008058019008460199FDF7C4F916B0B0BDB1
:103AE00080B596B00146159000208DF85300ADF8D2
:103AF0005000159A41F22C0352F803C041F2300EE7
:103B000052F80E2013906046129111461193CDF891
:103B100040E0FDF73FF940F28400C2F20000016886
:103B2000159A90230F9010460E911946139A0E9BEA
:103B300098470F990A68159B0D9018461399139B87
:103B40000C921A46DDF830C0E0470F990A68159BC1
:103B50000B9018461399139B0A921A46DDF828C059
:103B6000E0470F990A68159B099018461399139B13
:103B700008921A46DDF820C0E0470F990A68159BA5
:103B80004FF0FF0C0DF1530E079018466146069258
:103B90007246069BCDF814C0CDF810E098479DF80A
:103BA0005310ADF850100F990A68159B03901846F2
:103BB0000599049B02921A46DDF808C0E047BDF85B
:103BC00050109DF8532042EA0121ADF8501015998C
:103BD000119A8B58DDF840C051F80C10019018462E
:103BE000FDF740F9BDF85000159941F20E028852D8
:103BF0001598805A4EF61371401A01460328009119
:103C000067D80099DFE801F0021A324C159841F2AA
:103C1000040146F2A8124250159841F20801C82248
:103C20004252159841F20A014FF47A7242521598A5
:103C300041F20C0140F2DC5242524BE0159841F245
:103C4000040149F640424250159841F20801C82249
:103C50004252159841F20A014FF47A724252159875
:103C600041F20C0140F2DC52425233E0159841F22D
:103C7000040143F68002C0F201024250159841F25D
:103C80000801C8224252159841F20A014FF47A7293
:103C90004252159841F20C0140F2DC52425219E0B6
:103CA000159841F2040147F230524250159841F202
:103CB00008014FF4C8724252159841F20A014FF4BC
:103CC00048724252159841F20C014FF47A724252F6
:103CD00000E0FFE7BDF8500016B080BD80B58CB0A5
:103CE00001460B9000208DF82B000B9A41F22C031B
:103CF00052F803C041F2300E52F80E20099060468F
:103D0000089111460793CDF818E0FDF743F840F20B
:103D10008400C2F2000001680B9A0523059010464A
:103D200004911946099A049B984705990A680B9BC8
:103D3000FF210DF12B0C0390184602926246029B64
:103D400098470B99079A8B58DDF818C051F80C105A
:103D500001901846FDF786F89DF82B000CB080BD49
:103D600080B588B001460790079841F214021044CC
:103D700006910592FDF736FF0799059A11440490C4
:103D80000846FDF7A7FF079941F23902895C00292F
:103D900003900DD1FFE7079841F22401415841F209
:103DA00028028058029008460299FCF7F3FF0CE0C5
:103DB000079841F22401415841F2280280580190AD
:103DC00008460199FDF74EF8FFE7002008B080BDD6
:103DD00080B586B013468C46864605908DF8131044
:103DE0000392059841F2140108449DF81310039AB8
:103DF0000293CDF804C0CDF800E0FDF775FF06B0E2
:103E000080BD000080B58CB00A4603460A90099137
:103E10000A9803920293FFF761FF8DF823000020B8
:103E200007900690059004900A9841F2500140587E
:103E3000002807D0FFE70A9841F250014058804718
:103E40000690FFE7FFE79DF82300C00700284AD04F
:103E5000FFE70A98FFF742FF8DF823000A9841F226
:103E6000500E50F80E0000282BD0FFE70A9841F2C0
:103E7000500140588047079007980699884208D219
:103E8000FFE70698C0430799084400210591049074
:103E900006E007980699401A002105910490FFE773
:103EA00004980599099A101A4FF0000272EB01016B
:103EB0000190009104D2FFE701208DF82F0016E059
:103EC00010E00798013007900798099940F63542AD
:103ED0005143B0EB411F04D9FFE702208DF82F00BA
:103EE00005E0FFE7AFE700208DF82F00FFE79DF822
:103EF0002F000CB080BD0000B0B598B09C4696462F
:103F00000C460546179016911592ADF852300020D8
:103F10008DF85100ADF84E001290BDF85200B0F58A
:103F2000807FCDF844C0CDF840E00F940E9505DDBC
:103F3000FFE74FF48070ADF85200FFE7169820F0CD
:103F4000FF00129016988DF851001798FFF764FB48
:103F5000179841F22C0E50F80EE041F23001415812
:103F60007046FCF717FF40F28400C2F200000168BF
:103F7000DDF85CE0022200230D9070460C911146A2
:103F80001A46DDF830E00B93F0470D990A68179B4D
:103F90009DF84A100A9018460B9B09921A46DDF8C4
:103FA00024E0F0470D990A68179B9DF84910089086
:103FB00018460B9B07921A46DDF81CE0F0470D9956
:103FC0000A68179B9DF84810069018460B9B0592AF
:103FD0001A46DDF814E0F0479DF85110ADF84E1088
:103FE0000490FFE7BDF84E00BDF8521088421DDA7C
:103FF000FFE740F28400C2F2000000681799159AAA
:10400000BDF84E309DF851C0A3EB0C03D25C0023E9
:104010000390084611461A46039B98470290FFE713
:10402000BDF84E000130ADF84E00DBE7179841F2C5
:104030002C01415841F23002805801900846019904
:10404000FCF710FF17986421FFF7DCFE009018B012
:10405000B0BD000080B542F60040C4F20000FDF79C
:10406000B5FB80BD84B00A460346039002910192DD
:104070000093FFE7FEE700004EF60C50CEF2000082
:104080000068C0F3022070474EF60C50CEF20000DC
:104090000068C0F30220704784B00A4603468DF8DA
:1040A0000F0002919DF90F000028019200930ADB96
:1040B000FFE7029800019DF90F104EF20042CEF288
:1040C000000288540BE0029800019DF80F1001F0E7
:1040D0000F014EF61452CEF200028854FFE704B0EE
:1040E0007047000084B00A4603468DF80F00029125
:1040F0009DF90F000028019200930ADBFFE7029868
:1041000000019DF90F104EF20042CEF200028854D9
:104110000BE0029800019DF80F1001F00F014EF620
:104120001452CEF200028854FFE704B0704700003A
:1041300084B001460390039800F0070001904EF60A
:104140000C50CEF2000002680292029A4FF6FF0372
:104150001A400292029A019B42EA03220023C0F213
:10416000FA531A430292029A0260009104B0704717
:1041700084B001460390039800F0070001904EF6CA
:104180000C50CEF2000002680292029A4FF6FF0332
:104190001A400292029A019B42EA03220023C0F2D3
:1041A000FA531A430292029A0260009104B07047D7
:1041B000BFF34F8F4EF60C50CEF20000016801F4B1
:1041C000E0610422C0F2FA5211430160BFF34F8F45
:1041D000FFE700BFFDE7000072B6704780B584B00E
:1041E000002003908DF80B00ADF80800FEF7D4FB1B
:1041F000FFE7FCF793FB0190FBE702E008C8121F02
:1042000008C1002AFAD170477047002001E001C1BF
:10421000121F002AFBD17047102840587088A0B8A0
:104220002E2E2F4170706C69636174696F6E2F411F
:1042300050502F6D61696E2E6300000060420008CF
:104240000000002080000000FA410008E042000861
:1042500080000020E84B00000A4200080000000037
:104260000024F400307367666E7C103C7E4B4F6E0A
:1042700030007E7F037F206E6F7B3B133E6F4B6F62
:104280006E30003E7E67733F7E607F033F7F603EFF
:1042900063637F7F0000007F606061733F007F7F0A
:1042A00003070F007F00071F78781F3E7B6B6F6F3F
:1042B0007600030301000000E517000861180008FC
:1042C000900300201001002000000000902B00202F
:1042D000B02B0020102C0020010000000000000086
:040000050800018965
:00000001FF
