:020000040800F2
:100000003050002029B7000839B1000849B1000874
:1000100051B1000853B1000855B1000800000000BC
:1000200000000000000000000000000057B10008C0
:1000300059B10008000000005BB100085DB1000884
:1000400065B1000883B1000891B7000895B70008B2
:1000500099B7000841B100089DB70008A1B7000892
:10006000A5B70008A9B70008ADB70008B1B70008E8
:10007000B5B70008B9B70008BDB70008C1B7000898
:10008000C5B70008C9B70008CDB70008D1B7000848
:10009000D5B70008D9B70008DDB70008E1B70008F8
:1000A000E5B70008E9B70008EDB70008F1B70008A8
:1000B000CFB10008F5B70008F9B70008FDB7000890
:1000C00001B8000805B8000809B800080DB8000814
:1000D00011B800086FB1000815B8000819B8000879
:1000E0001DB8000821B8000825B8000829B8000884
:1000F0002DB8000831B8000835B8000839B8000834
:100100003DB8000841B8000845B8000849B80008E3
:100110004DB8000851B8000855B8000859B8000893
:100120009BB10008CDB10008D1B100085DB800084E
:1001300061B8000865B8000869B800086DB8000823
:1001400071B8000875B8000879B800087DB80008D3
:1001500081B8000885B80008F5B1000889B8000822
:100160008DB8000891B8000895B8000899B8000843
:100170009DB80008A1B80008A5B80008000000005C
:100180007BB10008A9B8000800690840884201D185
:10019000012000E00020C0B27047816170470A046E
:1001A00082617047010000200870614848610820A2
:1001B00088616048C86120220A6248621020886213
:1001C0005D48486080228A60C860402008615B48C2
:1001D000C8624FF4005008631420888600207047DE
:1001E00001000020704701000020087000207047C7
:1001F00038B586B004000121606801F0EAFA0121F7
:10020000E06801F0E6FA0121E06901F0E2FA01217B
:10021000606901F0DEFA0121606A01F0DAFA012179
:10022000E06A01F0D6FA182100226D46280001F09C
:10023000DDFA0120019001200290002003900120AE
:10024000049000200590A06800906946606801F065
:10025000A8FBA1686068FFF7A2FFA069009069464B
:10026000606901F09EFBA1696069FFF798FF206A51
:1002700000906946E06901F094FB216AE069FFF7AC
:100280008CFFA06A00906946606A01F08AFBA16A4F
:10029000606AFFF782FF206B00906946E06A01F018
:1002A00080FB216BE06AFFF77AFF00200190206954
:1002B00000906946E06801F074FB2169E068FFF78F
:1002C0006CFF002007B030BDF8B504000F0015002A
:1002D0001E00002C07D01A480068844203D1200079
:1002E000FFF760FF11E0002C05D0002C03D12000A7
:1002F000FFF776FF09E0002C05D0002C03D1200089
:10030000FFF771FF01E0012011E02000FFF770FF0F
:100310002800002801D0E56301E00A48E0633800C6
:10032000002801D0A76301E00648A0630020F2BDC9
:10033000000402400008024000000240000C02409D
:10034000A000002037AE000870B504000025216A27
:10035000E069FFF722FF00263000C0B205280FDA5F
:10036000A1696069FFF719FFA08EA16B8847A16999
:100370006069FFF714FFA08EA16B8847761CEBE73E
:1003800000202070002070BD10B5040020780128E6
:1003900028D0022827D003285CD0042800F07F80D2
:1003A000052800F0A180062800F0B180072800F0A1
:1003B000D380082800F0E3800C2800F0E1800D28AD
:1003C00000F015810E2800F037810F2800F05981C8
:1003D000102800F06981112800F08B81122800F0AC
:1003E0009B819AE19CE1216AE069FFF7D8FEA1694F
:1003F0006069FFF7D2FEA08EA16B8847A169606992
:10040000FFF7CDFEA08EA16B8847216AE069FFF758
:10041000C4FEA1696069FFF7C0FEA08EA16B88478A
:10042000A1696069FFF7BBFEA08EA16B8847216AB6
:10043000E069FFF7B2FEA1696069FFF7AEFEA08E2A
:10044000A16B8847A1696069FFF7A9FEA08EA16B27
:10045000884765E1216AE069FFF79FFEA16960694D
:10046000FFF79BFEA08EA16B8847A1696069FFF72B
:1004700096FEA08EA16B8847216AE069FFF78DFE8A
:10048000A1696069FFF789FEA08EA16B8847A16909
:100490006069FFF784FEA08EA16B884740E1216A66
:1004A000E069FFF77AFEA1696069FFF776FEA08E2A
:1004B000A16B8847A1696069FFF771FEA08EA16BEF
:1004C0008847216AE069FFF768FEA1696069FFF764
:1004D00064FEA08EA16B8847A1696069FFF75FFE8B
:1004E000A08EA16B88471BE1216AE069FFF755FEEA
:1004F000A1696069FFF751FEA08EA16B8847A169D1
:100500006069FFF74CFEA08EA16B884708E1216A65
:10051000E069FFF742FEA1696069FFF73EFEA08E29
:10052000A16B8847A1696069FFF739FEA08EA16BB6
:100530008847216AE069FFF730FEA1696069FFF72B
:100540002CFEA08EA16B8847A1696069FFF727FE8A
:10055000A08EA16B8847E3E0216AE069FFF71DFEEA
:10056000A1696069FFF719FEA08EA16B8847A16998
:100570006069FFF714FEA08EA16B8847D0E0CFE042
:10058000216AE069FFF70BFEA1696069FFF705FECC
:10059000A08EA16B8847A1696069FFF700FEA08E5D
:1005A000A16B8847216AE069FFF7F7FDA1696069DF
:1005B000FFF7F3FDA08EA16B8847A1696069FFF783
:1005C000EEFDA08EA16B8847216AE069FFF7E5FD8B
:1005D000A1696069FFF7E1FDA08EA16B8847A16961
:1005E0006069FFF7DCFDA08EA16B884798E0216A67
:1005F000E069FFF7D2FDA1696069FFF7CEFDA08E2B
:10060000A16B8847A1696069FFF7C9FDA08EA16B46
:100610008847216AE069FFF7C0FDA1696069FFF7BB
:10062000BCFDA08EA16B8847A1696069FFF7B7FD8B
:10063000A08EA16B884773E0216AE069FFF7ADFDEA
:10064000A1696069FFF7A9FDA08EA16B8847A16928
:100650006069FFF7A4FDA08EA16B8847216AE0695D
:10066000FFF79BFDA1696069FFF797FDA08EA16B65
:100670008847A1696069FFF792FDA08EA16B88474A
:100680004EE0216AE069FFF788FDA1696069FFF724
:1006900084FDA08EA16B8847A1696069FFF77FFD8B
:1006A000A08EA16B88473BE0216AE069FFF775FDEA
:1006B000A1696069FFF771FDA08EA16B8847A169F0
:1006C0006069FFF76CFDA08EA16B8847216AE06925
:1006D000FFF763FDA1696069FFF75FFDA08EA16B65
:1006E0008847A1696069FFF75AFDA08EA16B884712
:1006F00016E0216AE069FFF750FDA1696069FFF724
:100700004CFDA08EA16B8847A1696069FFF747FD8A
:10071000A08EA16B884703E002E02000FFF714FEE3
:10072000216AE069FFF73BFDA1696069FFF735FDCC
:10073000A08EA16B8847A1696069FFF730FDA08E8C
:10074000A16B884701202070002010BD10B5040067
:100750002078012825D0022824D0032823D004287B
:1007600046D0052869D006287AD0072800F09D8059
:10077000082800F0AD800C2800F0AB800D2800F0B8
:10078000DF800E2800F001810F2800F0238110285F
:1007900000F03381112800F05581122800F06581A6
:1007A00064E178E177E1216AE069FFF7F6FCA1698D
:1007B0006069FFF7F2FCA08EA16B8847A1696069B0
:1007C000FFF7EDFCA08EA16B8847216AE069FFF777
:1007D000E4FCA1696069FFF7E0FCA08EA16B88478B
:1007E000A1696069FFF7DBFCA08EA16B884752E12D
:1007F000216AE069FFF7D1FCA1696069FFF7CDFCD0
:10080000A08EA16B8847A1696069FFF7C8FCA08E24
:10081000A16B8847216AE069FFF7BFFCA1696069A5
:10082000FFF7BBFCA08EA16B8847A1696069FFF749
:10083000B6FCA08EA16B88472DE1216AE069FFF725
:10084000ACFCA1696069FFF7A8FCA08EA16B88478A
:10085000A1696069FFF7A3FCA08EA16B88471AE12C
:10086000216AE069FFF799FCA1696069FFF795FCCF
:10087000A08EA16B8847A1696069FFF790FCA08EEC
:10088000A16B8847216AE069FFF787FCA16960696D
:10089000FFF783FCA08EA16B8847A1696069FFF711
:1008A0007EFCA08EA16B8847F5E0216AE069FFF726
:1008B00074FCA1696069FFF770FCA08EA16B88478A
:1008C000A1696069FFF76BFCA08EA16B8847E2E02D
:1008D000E1E0216AE069FFF762FCA1696069FFF766
:1008E0005CFCA08EA16B8847A1696069FFF757FC8B
:1008F000A08EA16B8847216AE069FFF74EFCA169D1
:100900006069FFF74AFCA08EA16B8847A169606906
:10091000FFF745FCA08EA16B8847216AE069FFF7CD
:100920003CFCA1696069FFF738FCA08EA16B884789
:10093000A1696069FFF733FCA08EA16B8847AAE02C
:10094000216AE069FFF729FCA1696069FFF725FCCE
:10095000A08EA16B8847A1696069FFF720FCA08E7B
:10096000A16B8847216AE069FFF717FCA1696069FC
:10097000FFF713FCA08EA16B8847A1696069FFF7A0
:100980000EFCA08EA16B884785E0216AE069FFF725
:1009900004FCA1696069FFF700FCA08EA16B884789
:1009A000A1696069FFF7FBFBA08EA16B8847216AF4
:1009B000E069FFF7F2FBA1696069FFF7EEFBA08E2B
:1009C000A16B8847A1696069FFF7E9FBA08EA16B65
:1009D000884760E0216AE069FFF7DFFBA169606991
:1009E000FFF7DBFBA08EA16B8847A1696069FFF769
:1009F000D6FBA08EA16B88474DE0216AE069FFF726
:100A0000CCFBA1696069FFF7C8FBA08EA16B88478A
:100A1000A1696069FFF7C3FBA08EA16B8847216ABB
:100A2000E069FFF7BAFBA1696069FFF7B6FBA08E2A
:100A3000A16B8847A1696069FFF7B1FBA08EA16B2C
:100A4000884728E0216AE069FFF7A7FBA169606990
:100A5000FFF7A3FBA08EA16B8847A1696069FFF730
:100A60009EFBA08EA16B884715E014E02000FFF7E5
:100A70006BFC216AE069FFF792FBA1696069FFF7EF
:100A80008CFBA08EA16B8847A1696069FFF787FB8B
:100A9000A08EA16B8847216AE069FFF77EFB207872
:100AA000022804D1A1696069FFF779FB0DE0A16913
:100AB0006069FFF772FBA08EA16B8847A16960692E
:100AC000FFF76DFBA08EA16B8847022020700020ED
:100AD00010BD10B504002078012826D0022837D098
:100AE000032836D0042835D005286AD0062800F01F
:100AF0008D80072800F0C180082800F0E3800C28D2
:100B000000F0F3800D2800F039810E2800F06D818F
:100B10000F2800F0A181102800F0C381112800F0F7
:100B2000F781122800F019822AE2216AE069FFF7B2
:100B300034FBA1696069FFF730FBA08EA16B884789
:100B4000A1696069FFF72BFBA08EA16B88473EE28D
:100B50003DE23CE2216AE069FFF71FFBA1696069A1
:100B6000FFF71BFBA08EA16B8847A1696069FFF7A7
:100B700016FBA08EA16B8847216AE069FFF70DFB89
:100B8000A1696069FFF709FBA08EA16B8847A16985
:100B90006069FFF704FBA08EA16B8847216AE069BA
:100BA000FFF7FBFAA1696069FFF7F7FAA08EA16B66
:100BB0008847A1696069FFF7F2FAA08EA16B8847A8
:100BC00005E2216AE069FFF7E8FAA1696069FFF7C9
:100BD000E4FAA08EA16B8847A1696069FFF7DFFA8C
:100BE000A08EA16B8847216AE069FFF7D6FAA16958
:100BF0006069FFF7D2FAA08EA16B8847A16960698E
:100C0000FFF7CDFAA08EA16B8847E0E1216AE06989
:100C1000FFF7C3FAA1696069FFF7BFFAA08EA16B65
:100C20008847A1696069FFF7BAFAA08EA16B88476F
:100C3000216AE069FFF7B1FAA1696069FFF7ADFACF
:100C4000A08EA16B8847A1696069FFF7A8FAA08E02
:100C5000A16B8847216AE069FFF79FFAA169606983
:100C6000FFF79BFAA08EA16B8847A1696069FFF727
:100C700096FAA08EA16B8847A9E1216AE069FFF787
:100C80008CFAA1696069FFF788FAA08EA16B88478A
:100C9000A1696069FFF783FAA08EA16B8847216A7A
:100CA000E069FFF77AFAA1696069FFF776FAA08E2A
:100CB000A16B8847A1696069FFF771FAA08EA16BEB
:100CC000884784E1216AE069FFF767FAA1696069F2
:100CD000FFF763FAA08EA16B8847A1696069FFF7EF
:100CE0005EFAA08EA16B884771E1216AE069FFF787
:100CF00056FAA1696069FFF750FAA08EA16B884788
:100D0000A1696069FFF74BFAA08EA16B8847216A41
:100D1000E069FFF742FAA1696069FFF73EFAA08E29
:100D2000A16B8847A1696069FFF739FAA08EA16BB2
:100D30008847216AE069FFF730FAA1696069FFF727
:100D40002CFAA08EA16B8847A1696069FFF727FA8A
:100D5000A08EA16B8847216AE069FFF71EFAA1699E
:100D60006069FFF71AFAA08EA16B8847A1696069D4
:100D7000FFF715FAA08EA16B884728E1216AE06988
:100D8000FFF70BFAA1696069FFF707FAA08EA16B64
:100D90008847A1696069FFF702FAA08EA16B8847B6
:100DA000216AE069FFF7F9F9A1696069FFF7F5F9D0
:100DB000A08EA16B8847A1696069FFF7F0F9A08E4A
:100DC000A16B8847216AE069FFF7E7F9A1696069CB
:100DD000FFF7E3F9A08EA16B8847A1696069FFF76F
:100DE000DEF9A08EA16B8847F1E0216AE069FFF788
:100DF000D4F9A1696069FFF7D0F9A08EA16B88478B
:100E0000A1696069FFF7CBF9A08EA16B8847216AC1
:100E1000E069FFF7C2F9A1696069FFF7BEF9A08E2A
:100E2000A16B8847A1696069FFF7B9F9A08EA16B32
:100E30008847216AE069FFF7B0F9A1696069FFF7A7
:100E4000ACF9A08EA16B8847A1696069FFF7A7F98B
:100E5000A08EA16B8847BAE0216AE069FFF79DF98F
:100E6000A1696069FFF799F9A08EA16B8847A16914
:100E70006069FFF794F9A08EA16B8847216AE06949
:100E8000FFF78BF9A1696069FFF787F9A08EA16B65
:100E90008847A1696069FFF782F9A08EA16B884736
:100EA00095E0216AE069FFF778F9A1696069FFF7C9
:100EB00074F9A08EA16B8847A1696069FFF76FF98B
:100EC000A08EA16B8847216AE069FFF766F9A169E6
:100ED0006069FFF762F9A08EA16B8847A16960691C
:100EE000FFF75DF9A08EA16B8847216AE069FFF7E3
:100EF00054F9A1696069FFF750F9A08EA16B88478A
:100F0000A1696069FFF74BF9A08EA16B88475EE08D
:100F1000216AE069FFF741F9A1696069FFF73DF9CE
:100F2000A08EA16B8847A1696069FFF738F9A08E90
:100F3000A16B8847216AE069FFF72FF9A169606911
:100F4000FFF72BF9A08EA16B8847A1696069FFF7B5
:100F500026F9A08EA16B884739E0216AE069FFF786
:100F60001CF9A1696069FFF718F9A08EA16B884789
:100F7000A1696069FFF713F9A08EA16B884726E08D
:100F80002000FFF7E1F9216AE069FFF708F9A1699C
:100F90006069FFF702F9A08EA16B8847A1696069BB
:100FA000FFF7FDF8A08EA16B8847216AE069FFF783
:100FB000F4F8A1696069FFF7F0F8A08EA16B88478B
:100FC000A1696069FFF7EBF8A08EA16B88472078D4
:100FD000032811D0216AE069FFF7E1F8A16960698F
:100FE000FFF7DBF8A08EA16B8847A1696069FFF766
:100FF000D6F8A08EA16B884703202070002010BD7A
:1010000010B504002078012828D002284BD00328EE
:101010005CD0042800F0A380052800F0E9800628B1
:1010200000F01D81072800F06381082800F09781F7
:101030000C2800F0B9810D2800F0B7810E2800F0CF
:10104000B5810F2800F0FB81102800F02F821128B5
:1010500000F07582122800F0A982CCE2216AE069D2
:10106000FFF79BF8A1696069FFF797F8A08EA16B65
:101070008847A1696069FFF792F8A08EA16B884745
:10108000216AE069FFF789F8A1696069FFF785F8CF
:10109000A08EA16B8847A1696069FFF780F8A08ED8
:1010A000A16B8847E0E2216AE069FFF776F8A16961
:1010B0006069FFF772F8A08EA16B8847A16960692B
:1010C000FFF76DF8A08EA16B8847CDE2216AE06939
:1010D000FFF763F8A1696069FFF75FF8A08EA16B65
:1010E0008847A1696069FFF75AF8A08EA16B88470D
:1010F000216AE069FFF751F8A1696069FFF74DF8CF
:10110000A08EA16B8847A1696069FFF748F8A08E9F
:10111000A16B8847216AE069FFF73FF8A169606920
:10112000FFF73BF8A08EA16B8847A1696069FFF7C4
:1011300036F8A08EA16B8847216AE069FFF72DF889
:10114000A1696069FFF729F8A08EA16B8847A169A2
:101150006069FFF724F8A08EA16B884784E2216ABA
:10116000E069FFF71AF8A1696069FFF716F8A08E29
:10117000A16B8847A1696069FFF711F8A08EA16B88
:101180008847216AE069FFF708F8A1696069FFF7FD
:1011900004F8A08EA16B8847A1696069FEF7FFFF84
:1011A000A08EA16B8847216AE069FEF7F6FFA1696E
:1011B0006069FEF7F2FFA08EA16B8847A1696069A4
:1011C000FEF7EDFFA08EA16B8847216AE069FEF76C
:1011D000E4FFA1696069FEF7E0FFA08EA16B88477C
:1011E000A1696069FEF7DBFFA08EA16B88473BE237
:1011F000216AE069FEF7D1FFA1696069FEF7CDFFC2
:10120000A08EA16B8847A1696069FEF7C8FFA08E18
:10121000A16B8847216AE069FEF7BFFFA169606999
:10122000FEF7BBFFA08EA16B8847A1696069FEF73E
:10123000B6FFA08EA16B8847216AE069FEF7ADFF7B
:10124000A1696069FEF7A9FFA08EA16B8847A1691B
:101250006069FEF7A4FFA08EA16B884704E2216AB3
:10126000E069FEF79AFFA1696069FEF796FFA08E1C
:10127000A16B8847A1696069FEF791FFA08EA16B01
:101280008847216AE069FEF788FFA1696069FEF777
:1012900084FFA08EA16B8847A1696069FEF77FFF7C
:1012A000A08EA16B8847216AE069FEF776FFA169ED
:1012B0006069FEF772FFA08EA16B8847A169606923
:1012C000FEF76DFFA08EA16B8847216AE069FEF7EB
:1012D00064FFA1696069FEF760FFA08EA16B88477B
:1012E000A1696069FEF75BFFA08EA16B8847BBE137
:1012F000216AE069FEF751FFA1696069FEF74DFFC1
:10130000A08EA16B8847A1696069FEF748FFA08E97
:10131000A16B8847216AE069FEF73FFFA169606918
:10132000FEF73BFFA08EA16B8847A1696069FEF7BD
:1013300036FFA08EA16B8847216AE069FEF72DFF7A
:10134000A1696069FEF729FFA08EA16B8847A1699A
:101350006069FEF724FFA08EA16B884784E1216AB3
:10136000E069FEF71AFFA1696069FEF716FFA08E1B
:10137000A16B8847A1696069FEF711FFA08EA16B80
:101380008847216AE069FEF708FFA1696069FEF7F6
:1013900004FFA08EA16B8847A1696069FEF7FFFE7C
:1013A000A08EA16B88475FE15EE15DE1216AE069A3
:1013B000FEF7F3FEA1696069FEF7EFFEA08EA16B58
:1013C0008847A1696069FEF7EAFEA08EA16B884795
:1013D000216AE069FEF7E1FEA1696069FEF7DDFEC2
:1013E000A08EA16B8847A1696069FEF7D8FEA08E28
:1013F000A16B8847216AE069FEF7CFFEA1696069A9
:10140000FEF7CBFEA08EA16B8847A1696069FEF74D
:10141000C6FEA08EA16B8847216AE069FEF7BDFE7B
:10142000A1696069FEF7B9FEA08EA16B8847A1692A
:101430006069FEF7B4FEA08EA16B884714E1216AB3
:10144000E069FEF7AAFEA1696069FEF7A6FEA08E1C
:10145000A16B8847A1696069FEF7A1FEA08EA16B10
:101460008847216AE069FEF798FEA1696069FEF786
:1014700094FEA08EA16B8847A1696069FEF78FFE7C
:10148000A08EA16B8847216AE069FEF786FEA169FC
:101490006069FEF782FEA08EA16B8847A169606932
:1014A000FEF77DFEA08EA16B8847DDE0216AE06932
:1014B000FEF773FEA1696069FEF76FFEA08EA16B57
:1014C0008847A1696069FEF76AFEA08EA16B884714
:1014D000216AE069FEF761FEA1696069FEF75DFEC1
:1014E000A08EA16B8847A1696069FEF758FEA08EA7
:1014F000A16B8847216AE069FEF74FFEA169606928
:10150000FEF74BFEA08EA16B8847A1696069FEF7CC
:1015100046FEA08EA16B8847216AE069FEF73DFE7A
:10152000A1696069FEF739FEA08EA16B8847A169A9
:101530006069FEF734FEA08EA16B884794E0216AB3
:10154000E069FEF72AFEA1696069FEF726FEA08E1B
:10155000A16B8847A1696069FEF721FEA08EA16B8F
:101560008847216AE069FEF718FEA1696069FEF705
:1015700014FEA08EA16B8847A1696069FEF70FFE7B
:10158000A08EA16B8847216AE069FEF706FEA1697B
:101590006069FEF702FEA08EA16B8847A1696069B1
:1015A000FEF7FDFDA08EA16B88475DE0216AE06932
:1015B000FEF7F3FDA1696069FEF7EFFDA08EA16B58
:1015C0008847A1696069FEF7EAFDA08EA16B884794
:1015D000216AE069FEF7E1FDA1696069FEF7DDFDC2
:1015E000A08EA16B8847A1696069FEF7D8FDA08E27
:1015F000A16B884738E02000FEF7A6FE216AE0696B
:10160000FEF7CDFDA1696069FEF7C7FDA08EA16B55
:101610008847A1696069FEF7C2FDA08EA16B88476B
:10162000216AE069FEF7B9FDA1696069FEF7B5FDC1
:10163000A08EA16B8847A1696069FEF7B0FDA08EFE
:10164000A16B8847216AE069FEF7A7FDA16960697F
:10165000FEF7A3FDA08EA16B8847A1696069FEF724
:101660009EFDA08EA16B884720780D2811D0216A9D
:10167000E069FEF794FDA1696069FEF78EFDA08E1A
:10168000A16B8847A1696069FEF789FDA08EA16BF7
:1016900088470D202070002010BD2DE9F047040080
:1016A0000D0016001F005FF0000A5FF00008200028
:1016B000FFF7A6FC5FF0000948463100C0B2C9B28E
:1016C000884228D2A1696069FEF767FDA08EA16BF0
:1016D0008847A1696069FEF762FDA08EA16B88470B
:1016E000E80704D5A1686068FEF757FD03E0A1682C
:1016F0006068FEF754FDEDB26D082169E068FEF701
:1017000043FD002804D0012010FA09F050EA08082F
:1017100019F10109D0E70E2020703800C0B200286E
:1017200002D02000FEF730FE2000FFF70FF85FFA2E
:1017300088F8B8F1010F01D1002000E00120C0B20B
:10174000BDE8F0872DE9F04104000D0016000023EC
:10175000042201212000FFF7A0FF2000FFF7B9F9C4
:10176000002000275FF00008B8F1200F1ED2A16909
:101770006069FEF712FDA08EA16B8847A1696069C0
:10178000FEF70DFDA08EA16B8847A1686068FEF78B
:1017900006FD2169E068FEF7F7FC002803D0012070
:1017A00010FA08F0074318F10108DDE73000C0B275
:1017B000002806D0012304220C212000FFF76DFF32
:1017C00002E02000FEF7E0FD27F070470020BDE8B2
:1017D000F08138B504000D002900C9B2200000F0E6
:1017E00027F931BD80B500F02CF901BD62F30F225D
:1017F00062F31F42401810F0030308D0C91A1FD328
:10180000DB0748BF00F8012D28BF20F8022D130088
:1018100030B414461546103928BF20E93C00FAD8E8
:10182000490728BF20E90C0048BF40F8042D890073
:1018300028BF20F8022D48BF00F8012D30BC7047AA
:10184000C91818BF00F8012DCB0728BF00F8012DDB
:10185000704730B4002513E050F8042BD30744BF81
:10186000A9F101039A18091F042942F8045BFAD26E
:1018700013468C0744BF15809B1CC90748BF1D70C9
:1018800050F8041B0029E7D130BC704730B404681D
:1018900091FAA1F3B3FA83F30325DBB25B009D4019
:1018A000AC4391FAA1F3B3FA83F3DBB25B0012FA13
:1018B00003F31C43046030BC704730B4436891FAB2
:1018C000A1F4B4FA84F4012515FA04F4A34391FABF
:1018D000A1F4B4FA84F412FA04F42343436030BC54
:1018E000704730B4846891FAA1F3B3FA83F3032507
:1018F000DBB25B009D40AC4391FAA1F3B3FA83F3F2
:10190000DBB25B0012FA03F31C43846030BC704707
:1019100030B4C46891FAA1F3B3FA83F30325DBB2C0
:101920005B009D40AC4391FAA1F3B3FA83F3DBB2C1
:101930005B0012FA03F31C43C46030BC704730B440
:10194000046A91FAA1F3B3FA83F30F25DBB29B008B
:101950009D40AC4391FAA1F3B3FA83F3DBB29B0051
:1019600012FA03F31C43046230BC704730B4446A7B
:101970000B001B0A93FAA3F3B3FA83F30F25DBB230
:101980009B009D40AC430B001B0A93FAA3F3B3FAF0
:1019900083F3DBB29B0012FA03F31C43446230BCB6
:1019A0007047F8B505000E0000200024316891FA58
:1019B000A1F1B1FA81F73068F840002836D03068DC
:1019C0000121B94008400400002C2DD07068012886
:1019D00002D07068022809D1B26821002800FFF700
:1019E00080FFF26821002800FFF767FF32692100BD
:1019F0002800FFF78DFF7068022810D194FAA4F038
:101A0000B0FA80F0082805D2726921002800FFF79B
:101A100096FF04E0726921002800FFF7A7FF7268B3
:101A200021002800FFF732FF7F1CC4E70020F2BD31
:101A300038B504000D002900C9B2200000F037F8C5
:101A400031BD80B500F0C0F801BD30B40EE00268D1
:101A5000436802440830DC0744BFA9F10104E318DD
:101A600052F8045B43F8045B091FF9D150F8041BDA
:101A70000029ECD130BC704781B068490A68024344
:101A80000A60096801400091009901B070476349FC
:101A90000A6882430A60704781B061490A6802435C
:101AA0000A60096801400091009901B0704738B59B
:101AB00004000D005B4884420BD12800C0B200280E
:101AC00003D00120FFF7D8FF02E00120FFF7DFFF7E
:101AD00079E0554884420BD12800C0B2002803D0D9
:101AE0000220FFF7C9FF02E00220FFF7D0FF6AE003
:101AF0004E4884420BD12800C0B2002803D00420F5
:101B0000FFF7BAFF02E00420FFF7C1FF5BE048489F
:101B100084420BD12800C0B2002803D00820FFF770
:101B2000ABFF02E00820FFF7B2FF4CE041488442DF
:101B30000BD12800C0B2002803D01020FFF79CFF73
:101B400002E01020FFF7A3FF3DE03B4884420BD1A9
:101B50002800C0B2002803D02020FFF78DFF02E04C
:101B60002020FFF794FF2EE0344884420BD1280058
:101B7000C0B2002803D04020FFF77EFF02E04020E3
:101B8000FFF785FF1FE02E4884420BD12800C0B22A
:101B9000002803D08020FFF76FFF02E08020FFF7CE
:101BA00076FF10E0274884420DD12800C0B20028FB
:101BB00004D04FF48070FFF75FFF03E04FF48070B4
:101BC000FFF765FFFFE731BD80B501211548FFF73D
:101BD0006EFF01211448FFF76AFF01211348FFF748
:101BE00066FF01211248FFF762FF01211148FFF74C
:101BF0005EFF01211048FFF75AFF01210F48FFF750
:101C000056FF01210E48FFF752FF01210D48FFF753
:101C10004EFF4FF48040FFF73FFF01BD30380240D8
:101C20004438024000000240000402400008024024
:101C3000000C024000100240001402400018024054
:101C4000001C024000200240DFF8A0080068C0F33A
:101C500002207047010049B200290AD4012210F085
:101C60001F018A40DFF8881803005BB25B0941F866
:101C70002320704710B4020052B2002A06D40A0191
:101C8000DFF87038040064B21A5509E00A01DFF881
:101C90006838040064B214F00F04234403F8042CE1
:101CA00010BC704770B4030013F00704D4F10700B0
:101CB000052801D3042001E0D4F10700251D072DDC
:101CC00001D2002500E0E51E012616FA00F0401EB4
:101CD0000140A94016FA05F56D1E2A40114308007F
:101CE00070BC704781B0DFF814180A6802430A60BC
:101CF000096801400091009901B0704781B0DFF898
:101D000000180A6802430A600968014000910099BE
:101D100001B07047DFF8E8170A6882430A6070472D
:101D200081B0DFF8E0170A6802430A6009680140E1
:101D30000091009901B07047DFF8C8170A68824324
:101D40000A607047DFF8C027535CC3181B6853F064
:101D50000103525C821813607047DFF8AC27535CB4
:101D6000C3181B685B085B00525C821813607047E5
:101D700010B4DFF894375C5C04195B5CC3185B68D3
:101D80001B0C1B041343636010BC7047DFF87827FB
:101D9000515C4018406880B27047DFF86C27535C94
:101DA000C3181B6853F01003525C8218136070470D
:101DB00030B4046891FAA1F3B3FA83F30325DBB2DC
:101DC0005B009D40AC4391FAA1F3B3FA83F3DBB21D
:101DD0005B0012FA03F31C43046030BC704781615E
:101DE00070470A0482617047C16851F40051C160B4
:101DF0007047016931F490410161416931F02A0174
:101E000041617047006810F00100704700684008A9
:101E100010F0010070470068800810F00100704762
:101E20000068C00810F0010070470068000910F059
:101E3000010070470068400910F001007047006819
:101E4000800910F0010070470068C00910F001001F
:101E500070470068000A10F0010070470068400AEF
:101E600010F00100704781B001680091009941684D
:101E70000091009901B0704781B00168009100990C
:101E800041680091009901B0704781B001680091EC
:101E9000009941680091009901B0704781B00168D4
:101EA0000091009941680091009901B0704781B09C
:101EB00001680091009941680091009901B0704754
:101EC0007FF04001016070477FF0200101607047A2
:101ED0007FF48071016070477FF40071016070478A
:101EE000C16851F01001C1607047C16851F0200114
:101EF000C1607047C16851F04001C1607047C1685E
:101F000051F08001C1607047C16831F04001C1608B
:101F10007047C16831F08001C1607047C068000936
:101F200010F001007047C068400910F001007047D0
:101F3000C068800910F001007047C068C00910F047
:101F400001007047C068000A10F001007047006986
:101F5000800910F001007047406910F001007047DF
:101F60004069800A10F001007047416951F040015A
:101F700041617047416951F080014161704740689B
:101F8000C0B270470A00D2B2426070470100002020
:101F9000087100204871002088710020C87100205D
:101FA000087200204872002088720020C872002049
:101FB000087300200861002048610020886100202B
:101FC000C86100200862012081F85000002081F8DB
:101FD0005100002081F85200002081F854000020B8
:101FE00081F855000020A1F856000020A1F8580003
:101FF0000020A1F85C000020A1F85A000020A1F800
:102000005E00002081F85300002081F8600000206D
:102010004866002088660020C86600200867012006
:1020200081F82400002081F82500002081F8260096
:10203000002081F82800002081F829000020488530
:1020400000208885002008860020C885002048865A
:10205000012081F82700002081F8340000208863E7
:102060000020C86300200864002048640020C8677E
:10207000002070472DE9F84F04000F009046994664
:102080000A9DDDF82CA00C9EDDF834B02000FFF78F
:102090007DFF84F85290A4F85E70C4F8708084F8D4
:1020A00026606586C4F844A0C4F87CB0002C08D033
:1020B000DFF858040068844203D1200000F0D6FE07
:1020C00011E0002C05D0002C03D1200000F000FF0F
:1020D00009E0002C05D0002C03D1200000F0FBFE0D
:1020E00001E0022000E00020BDE8F28F38B50400D6
:1020F0000D00606900280ED02800C0B2012805D16B
:10210000022221696069FFF753FE04E00022216981
:102110006069FFF74DFE002032BD38B504000D00A8
:10212000E06900280CD02800C0B2012804D1A169C0
:10213000E069FFF756FE03E0A169E069FFF74FFE93
:10214000002032BD70B504000D000026E06F0028AD
:1021500002D0E06F804706002800C0B2002803D0FC
:102160006666606EA06602E0A663A06BE063002076
:1021700070BDF8B504000D0016000027E06F0028C0
:1021800003D0E06F8047801C07003000C0B20028F9
:102190001FD0A766606EA16E884209D2A16E606EE4
:1021A000091A8D4235D2012084F86000012031E007
:1021B000A06E616E88422CD2616E5FF0FF30411AD2
:1021C000A06E41188D4224D2012084F860000120C5
:1021D00020E0E763A06BE16B884209D2E16BA06B62
:1021E000091A8D4215D2012084F83400012011E033
:1021F000E06BA16B88420CD2A16B5FF0FF30411AFB
:10220000E06B41188D4204D2012084F83400012093
:1022100000E00020F2BD70B504000D00002694F827
:102220005000002849D12800C0B200281FD0606E9D
:10223000002842D0E06E00283FD0606E002801D117
:1022400000203CE00122E16E2000FFF792FF060033
:102250003000C0B2002830D02279521EDFF8E019D9
:10226000200000F0A0FC200000F012FC25E0A06B94
:10227000002822D0206C00281FD0A06B002801D19C
:1022800000201CE00022216C2000FFF772FF0600F6
:102290003000C0B200280DD0A06B00280AD02279EF
:1022A000521EDFF8D419200000F07DFC200000F061
:1022B00014FC02E0002084F834003000C0B270BD8D
:1022C00038B504000D00DFF8B4190D7094F854000F
:1022D000002805D002283DD01CD3032866D066E034
:1022E000B4F85800002814D160790A78904210D1CF
:1022F0000878216F0870012084F854000120A4F8A8
:102300005A0001212000FFF71DFF0121200000F0ED
:10231000AEFB4CE00878002814D00878B4F85E20B2
:10232000D2B290420ED20878226F50700878A4F88A
:102330005600B4F85A00401CA4F85A00022084F851
:10234000540002E0002084F8540001212000FFF72F
:10235000F9FE2CE0206FB4F8582010440978817001
:10236000B4F85800401CA4F85800B4F85A00401CB7
:10237000A4F85A00B4F85800B4F85E1080B288424D
:1023800002D30020A4F8580001212000FFF7DAFE54
:10239000B4F85800B4F8561080B2884205D3032030
:1023A00084F85400012084F8530000E0FFE7002087
:1023B00032BD38B504000D00DFF8AC190D7094F88B
:1023C0005400002807D0022837D01ED3042800F07C
:1023D0008A805CD388E0B4F85800002814D1607972
:1023E0000A78904210D10878216F0870012084F893
:1023F00054000120A4F85A0001212000FFF7A2FE9A
:102400000121200000F033FB6EE00878226F50704D
:102410000878A4F85600B4F856000002A4F8560054
:10242000022084F85400B4F85A00401CA4F85A0062
:1024300001212000FFF786FE56E00878226F907099
:10244000B4F85600097850FA81F0A4F85600B4F8B0
:102450005A00401CA4F85A00B4F8560000280ED0C8
:10246000B4F85600B4F85E1080B2884207D2B4F8CF
:102470005600A4F85A00032084F8540002E000201B
:1024800084F8540001212000FFF75CFE2CE0206F4F
:10249000B4F8582010440978C170B4F85800401CB2
:1024A000A4F85800B4F85A00401CA4F85A00B4F834
:1024B0005800B4F85E1080B2884202D30020A4F81D
:1024C000580001212000FFF73DFEB4F85800B4F891
:1024D000561080B2884205D3042084F854000120AD
:1024E00084F8530000E0FFE7002032BD0CED00E06F
:1024F00000E100E000E400E018ED00E030380240C8
:1025000040380240443802407CB70008B000002048
:1025100038B504000D00B4F85E00FF2805DA290084
:10252000C9B22000FFF7CCFE04E02900C9B22000A8
:10253000FFF73FFF32BD1CB5040000208DF80000FE
:10254000608D00282CD0A08D618D80B2884223D070
:10255000606CA18D415C206AFFF714FDA08D401CCA
:10256000A085A08D618E80B2884201D30020A08515
:10257000A08D618D80B2884215D3E08D002812D0E5
:10258000A08DE18D80B288420DD3206AFFF7C1FC97
:10259000206AFFF7AFFC06E001208DF8000002E0A2
:1025A00002208DF800009DF80000002805D0206A68
:1025B000FFF7AFFC200000F090FA00212000FFF7A9
:1025C000C1FD002016BD10B50400E06900280BD045
:1025D00094F82800002807D10D21206AFFF7D2FCCB
:1025E000012084F8280017E0E06900280BD094F857
:1025F0002800012807D10A21206AFFF7C3FC022026
:1026000084F8280008E0002084F82800206AFFF7FA
:102610007BFC200000F061FA002010BD38B50400FA
:102620000D0094F82700002803D094F82700032811
:1026300002D100F02BFEF4E7002060850020208608
:10264000A179200000F034F80021200000F030F8DB
:10265000608EB0F5807F06DB0021200000F028F8B6
:10266000208E401C2086607A217A401A002803D0F0
:10267000E179200000F01CF8206F617A415C2000B5
:1026800000F016F82800C0B200280DD02800C0B213
:10269000002801D1002000E00120216F627A80181B
:1026A000095C200000F004F8608D2086002032BD17
:1026B0000200506C538DC154508D401C5085508D7C
:1026C000538E80B2984201D300205085002070477D
:1026D0000200506C138EC15400207047F8B50400FE
:1026E00000250026B4F8567094F85200002800F037
:1026F000E78000F0D3FD002840F0E28094F852001B
:10270000012823D17F1EB4F85E00FA2809DA206F71
:102710004770206F390089B2084480780600BF1CDA
:102720000DE0380080B2000A216F4870206F87707A
:10273000206F390089B20844C0780600FF1C3900B8
:1027400089B2206F00F0C9FD0500B5E094F8520091
:10275000022824D17F1EB4F85E00FA2809DA206F1F
:102760004770206F390089B2084480780600BF1C8A
:102770000DE0380080B2000A216F4870206F87702A
:10278000206F390089B20844C0780600FF1C3A0067
:1027900092B2216F072000F095FD05008CE094F8BF
:1027A0005200032833D1BF1EB4F85E00FA2811DAB4
:1027B000206F4770206F390089B2084440780002CA
:1027C000216F3A0092B21144897850FA81F00600E4
:1027D000BF1C15E0380080B2000A216F4870206FDE
:1027E0008770206F390089B2084480780002216F19
:1027F0003A0092B21144C97850FA81F00600FF1CE9
:10280000390089B2206F00F055FD050054E094F8BE
:102810005200042850D13F1FB4F85E00FA2820DA95
:10282000206F4770206F390089B2084410F8010CFE
:102830000002216F3A0092B2895C40180002216FB9
:102840003A0092B21144497850FA81F00002216FA7
:102850003A0092B21144897850FA81F00600BF1C08
:1028600024E0380080B2000A216F4870206F877022
:10287000206F390089B2405C0002216F3A0092B2A9
:102880001144497850FA81F00002216F3A0092B267
:102890001144897850FA81F00002216F3A0092B217
:1028A0001144C97850FA81F00600FF1C390089B242
:1028B000206F00F0F7FC0500B54201D0012000E0D8
:1028C0000020F2BD70B5040094F82600002874D0F2
:1028D00000F0E4FC002870D10025668D94F82900F2
:1028E000012800D1B61C608EFF2804DA3000801E5B
:1028F000616C487009E0300080B2C01E0012616C4B
:1029000048703000C01E616C887094F82600012861
:102910000AD1618D606C00F0E0FC05002900C9B2AD
:102920002000FFF7C5FE44E094F8260002280BD1F2
:10293000628D616C072000F0C5FC05002900C9B25A
:102940002000FFF7B5FE34E094F82600032810D1EC
:10295000618D606C00F0AEFC05002900090AC9B267
:102960002000FFF7A5FE2900C9B22000FFF7A0FE56
:102970001FE094F8260004281BD1618D606C00F0E4
:1029800091FC05002900090EC9B22000FFF790FE56
:102990002900090CC9B22000FFF78AFE2900090AA4
:1029A000C9B22000FFF784FE2900C9B22000FFF75A
:1029B0007FFE608DE085002000E0012070BD38B50D
:1029C00004000D0094F82700002803D094F8270095
:1029D000032802D100F05AFCF4E7002084F8270015
:1029E0002800C0B2012802D1A079616C0870607A19
:1029F000217A401A002803D0E079616C227A885449
:102A00002000FFF75FFF94F82900012807D10D216E
:102A10002000FFF74DFE0A212000FFF749FE608EDF
:102A2000FF2804DA608D801E616C487008E0608DBC
:102A3000C01E0012616C4870608DC01E616C887091
:102A4000608DE08501212000FFF767FB0121200058
:102A5000FFF74CFB94F82400002803D1206AFFF70D
:102A60004EFA02E0200000F0A4FB002032BD02007C
:102A70000800C0B2002803D0002082F8600002E005
:102A8000002082F834000020704790F8530070470F
:102A900010B5040000212000FFF73FFB002084F860
:102AA00054000020A4F856000020A4F8580000208C
:102AB000A4F85A00002084F853000020606600202B
:102AC000A066002084F8600094F85000002802D02E
:102AD000200000F060FB002010BD10B504000120B4
:102AE00084F82700002060850020A0850020E08574
:102AF0000020A0630020E063002084F83400002060
:102B000084F8280000212000FFF707FB00212000A7
:102B1000FFF7ECFA002010BD0200507A117A401A3B
:102B2000002807D0106F117A405CD179884201D01B
:102B3000012000E00020704710B50400206AFFF774
:102B4000FCF9002807D0206AFFF77EF9002802D0A0
:102B500000F09CFBF7E7206AFFF7EAF900280ED0A7
:102B6000206AFFF76CF9002806D094F828000028A6
:102B700002D100F08BFBF3E7206AFFF7A1F90121F6
:102B80002000FFF7CAFA01212000FFF7AFFA10BDBD
:102B900010B5040000212000FFF7BFFA002120003B
:102BA000FFF7A4FA10BD0CB42DE9F84304000D00A2
:102BB0002000FFF7C1FF5FF0000908AEDFF81476D0
:102BC00033002A004FF40071380000F09DFB80466E
:102BD000404680B240F20121884202DB4FF400708F
:102BE0008046A4F8008001206080032084F827003C
:102BF000206AFFF77FF93978206AFFF7C3F9BDE84B
:102C0000F1035DF80CFB10B5040060882188884250
:102C100009D3206AFFF778F92000FFF7B9FF0120F8
:102C200084F8270009E0DFF8AC056188415C206A80
:102C3000FFF7A8F96088401C6080002010BD0000EC
:102C400064B6000810B5040094F82700002803D1EA
:102C50002000FFF7B8FC0DE094F82700032803D10B
:102C60002000FFF7D0FF05E0012084F82700206A4C
:102C7000FFF74AF9002010BD84B600082930002073
:102C800038B504000D00DFF8500584420CD128004F
:102C9000C0B2002803D01020FFF742F802E0102055
:102CA000FFF74AF800205DE0DFF8300584420ED1DE
:102CB0002800C0B2002804D05FF40030FFF71EF8EF
:102CC00003E05FF40030FFF725F800204AE0DFF86A
:102CD000100584420ED12800C0B2002804D05FF451
:102CE0008020FFF70BF803E05FF48020FFF712F875
:102CF000002037E0DFF8EC0484420CD12800C0B299
:102D0000002803D02020FFF70BF802E02020FFF777
:102D100013F8002026E0DFF8D00484420ED128000A
:102D2000C0B2002804D05FF40020FEF7E7FF03E004
:102D30005FF40020FEF7EEFF002013E0DFF8AC04A4
:102D400084420ED12800C0B2002804D05FF4801065
:102D5000FEF7D4FF03E05FF48010FEF7DBFF0020F6
:102D600000E0012032BD00002A30002070B40600CF
:102D7000039D049CF17132727372B572F47200207B
:102D800070BC704778B58FB00400DFF8645401213F
:102D90002800FEF71EFD1821002202AE3000FEF7CB
:102DA00025FD0220039003200490002005900120BF
:102DB00006904FF4C06002900720079002A92800F7
:102DC000FEF7EFFD65614FF400702061DFF8080445
:102DD000206202202071206A00F020FC0121206A7C
:102DE000FFF74EFF1C21002208AD2800FEF7FEFC75
:102DF0005FF4E13008900020099000200A90002044
:102E00000B900C200C9000200D9000200E9008A933
:102E1000206A00F04FFC206AFEF7EBFFE06F00280D
:102E200004D06420E0666420206403E00020E066B3
:102E300000202064002084F82600552060715A206C
:102E4000A07104200190032000900223022200219F
:102E50002000FFF78BFF00212000FFF75EF9002123
:102E60002000FFF743F9002010B070BD10B504003A
:102E70002000FFF787FF94F85000002804D1DFF806
:102E80005803FFF732F806E0DFF84C03FFF728F8A5
:102E9000200000F0C6F894F82400002802D020009A
:102EA00000F015F9FEF7D0FE00220221FEF7FAFE2F
:102EB00001002520FEF7DEFE2520FEF7CBFEC648EA
:102EC000FEF792FFCB492000FFF76DFE002010BDFA
:102ED00001000020704701000020704710B5040079
:102EE000206AFEF7A7FF00280FD0206AFFF71BF823
:102EF00000280AD0206AFFF742F80100C9B220007A
:102F0000FFF706FB206AFEF7DFFF206AFEF79CFF53
:102F1000002807D0206AFFF710F8002802D0200010
:102F2000FFF709FB206AFEF78AFF00280ED0206A0F
:102F3000FEF7FEFF002809D0AF480178491C017058
:102F40002000FFF77FFE206AFEF7BAFF206AA6493D
:102F5000884210D0206AA54988420CD0206AFEF72A
:102F60007DFF002807D0206AFEF7FAFF002802D074
:102F7000206AFEF7B1FF206AFEF76BFF002807D03A
:102F8000206AFEF7E4FF002802D0206AFEF7A0FFC7
:102F9000206AFEF74AFF00280ED0206AFEF7BEFF27
:102FA000002809D0200000F02BF9206AFEF77FFFEF
:102FB000A16F606F00F0ABFC206AFEF731FF0028C4
:102FC00007D0206AFEF7C8FF002802D0206AFEF76B
:102FD00065FF206AFEF71FFF002807D0206AFEF772
:102FE000BBFF002802D0206AFEF74FFF206AFEF7E1
:102FF0000DFF002807D0206AFEF7AEFF002802D0A0
:10300000206AFEF739FF206AFEF7FCFE002807D091
:10301000206AFEF797FF002802D0206AFEF723FF00
:1030200010BD30B58FB00400744D0221280000F0AF
:103030006FFD5FF48000FEF755FE65670220A06714
:103040003C2100226D462800FEF7D0FB5FF00060B7
:103050000990B4F85E0008900020029000200B90C8
:1030600001200C90206F0190002007904FF48060A9
:10307000059000200390206A001D009000200E9013
:1030800000200690002004905FF400300A906A4609
:10309000A16F606F00F034FEA16F606FFEF752FE0B
:1030A000206AFEF762FFFEF7CFFD00220221FEF745
:1030B000F9FD01003A20FEF7DDFD3A20FEF7CAFDDA
:1030C000A16F606FFEF769FE00200FB030BD30B514
:1030D0008FB00400494D0721280000F019FD5FF46E
:1030E0008000FEF7FFFDA5640720E0643C2100227C
:1030F0006D462800FEF77AFB5FF000600990608E55
:1031000008904020029000200B9001200C90606CF1
:103110000190002007904FF48060059000200390FC
:10312000206A001D009000200E90002006900020D4
:1031300004905FF400300A906A46E16CA06C00F0E5
:10314000DFFD206AFEF716FFFEF77EFD002202215A
:10315000FEF7A8FD01004620FEF78CFD4620FEF795
:1031600079FDE16CA06CFEF718FE00200FB030BDB9
:1031700038B50400A16F606FFEF7EFFDA16F606FBF
:1031800000F0C5FBB4F85E50A16F606FFEF7FEFD66
:10319000281A80B232BD10B50400B4F85E20A16FC9
:1031A000606FFEF7E5FDA16F606FFEF7CBFD0020BD
:1031B00010BD10B50400E28DE16CA06CFEF7D8FDE7
:1031C000E16CA06CFEF7BEFD00200B4908700020EA
:1031D00010BD00003C2B00200010014000440040C6
:1031E0000048004000140140004C004000500040E6
:1031F00000000240D8B600082830002000640240D9
:10320000F8B5040000252000FFF7B2FF0600206F8C
:103210000078617988421DD1206F4778B4F85E004C
:10322000FF2801DABF1C05E0BFB23F02206F4078E3
:103230003F18FF1C3800310080B289B2884203D1A8
:10324000012084F8530007E02000FFF721FC022052
:10325000050001E0012005002800C0B2F2BD10B554
:1032600004002000FFF7CCFF206AFEF720FE10BD0F
:1032700010B50400E16CA06CFEF76FFDE16CA06C72
:1032800000F045FB206AFEF735FE10BD80B500F06A
:1032900077FD02BD80B500F077FD01BD80B500F07F
:1032A00077FD02BD38B504000D002900200000F0B4
:1032B00073FD32BD38B504000D002900200000F078
:1032C00073FD32BD70B504000D00160032002900F8
:1032D0002000C0B200F070FD70BD38B504000D00D4
:1032E0002900200000F073FD32BDB1F5807F02D3CC
:1032F0004FF0FF3070470170012070470078401E8A
:103300008041C043C00F704708B584B000230393C9
:1033100000290EBF01930190491E0291009301A95B
:1033200004AB07487844183000F066FD019909B1F4
:1033300000220A70002858BF039805B000BD00BFE6
:103340009F0A0000C068400B10F00100704702693E
:1033500032F440520A4302617047426932F44072CB
:103360000A43426170472DE9F54F83B08A4698467B
:103370000498B0F5004F40F09E805FF0640902248D
:1033800000251926002752460023A6FB020106FB52
:10339000031107FB0211CDE9000140460021A4FB07
:1033A000002304FB013305FB0033DDE9000101F0DC
:1033B00087FD6421B0FBF1F0029052460023A6FB8A
:1033C000020106FB031107FB0211CDE90001404693
:1033D0000021A4FB002304FB013305FB0033DDE9DE
:1033E000000101F06DFD834652460023A6FB020159
:1033F00006FB031107FB0211CDE900014046002145
:10340000A4FB002304FB013305FB0033DDE90001CD
:1034100001F056FD6421B0FBF1F009FB10B0C000D3
:1034200032306421B0FBF1F0400010F4F8700299E2
:1034300010EB0110029052460023A6FB020106FB8E
:10344000031107FB0211CDE9000140460021A4FB56
:10345000002304FB013305FB0033DDE9000101F02B
:103460002FFD834652460023A6FB020106FB0311F3
:1034700007FB021106000F0040460021A4FB0023B9
:1034800004FB013305FB00333000390001F018FD67
:103490006421B0FBF1F009FB10B95FEAC9003230DA
:1034A0006421B0FBF1F111F007010298091889B20B
:1034B000039881609BE0042400255FF064091926CD
:1034C000002752460023A6FB020106FB031107FB5F
:1034D0000211CDE9000140460021A4FB002304FBBA
:1034E000013305FB0033DDE9000101F0E9FC642153
:1034F000B0FBF1F0029052460023A6FB020106FB4E
:10350000031107FB0211CDE9000140460021A4FB95
:10351000002304FB013305FB0033DDE9000101F06A
:10352000CFFC834652460023A6FB020106FB031193
:1035300007FB0211CDE9000140460021A4FB002356
:1035400004FB013305FB0033DDE9000101F0B8FCA9
:103550006421B0FBF1F009FB10B0000132306421AE
:10356000B0FBF1F010F0F000029910EB01100290A6
:1035700052460023A6FB020106FB031107FB0211C2
:10358000CDE9000140460021A4FB002304FB0133E8
:1035900005FB0033DDE9000101F092FC8346524651
:1035A0000023A6FB020106FB031107FB0211060024
:1035B0000F0040460021A4FB002304FB013305FB60
:1035C00000333000390001F07BFC6421B0FBF1F0E6
:1035D00009FB10B95FEA091032306421B0FBF1F148
:1035E00011F00F010298091889B20398816005B0A3
:1035F000BDE8F08F5B490A6802430A607047594989
:103600000A6882430A60704757490A6802430A60A1
:10361000704755490A6882430A60704738B504000C
:1036200000255248844206D11020FFF7EDFF1020FC
:10363000FFF7EFFF3BE04E48844208D15FF40030D3
:10364000FFF7D8FF5FF40030FFF7D9FF2FE04948BC
:10365000844208D15FF48020FFF7CCFF5FF4802024
:10366000FFF7CDFF23E04448844206D12020FFF736
:10367000CBFF2020FFF7CDFF19E04048844208D15E
:103680005FF40020FFF7B6FF5FF40020FFF7B7FFFD
:103690000DE03B48844208D15FF48010FFF7AAFF99
:1036A0005FF48010FFF7ABFF01E001200500280068
:1036B000C0B232BDF8B584B005000E000127002469
:1036C0002800FFF73FFE002846D1E9682D48014059
:1036D00070680143F068014330690143B0690143F8
:1036E000E960B1682800FFF732FE71692800FFF732
:1036F00034FE684601F024FD1C48854202D103983F
:1037000004001CE01A48854202D10298040016E029
:103710001848854202D10298040010E016488542FC
:1037200002D1039804000AE01448854202D10298AD
:10373000040004E01248854201D102980400002CE4
:103740000AD03068002807D0002007003368B2692B
:1037500021002800FFF707FE3800C0B205B0F0BD19
:1037600000000000203802402438024000100140D0
:10377000004400400048004000140140004C00405C
:1037800000500040F369FFFF1021816070474FF443
:103790008061816070475FF48011816070475FF0E5
:1037A0008061816070471021C16070474FF4806173
:1037B000C16070475FF48011C16070475FF0806145
:1037C000C16070472021816070474FF400618160C3
:1037D00070475FF40011816070475FF000618160A5
:1037E00070472021C16070474FF40061C16070478D
:1037F0005FF40011C16070475FF00061C160704705
:103800000821816070474FF40071816070475FF458
:103810000021816070475FF000718160704708216E
:10382000C16070474FF40071C16070475FF40021C0
:10383000C16070475FF00071C16070470421816012
:1038400070474FF48071816070475FF48021816020
:1038500070475FF08071816070470421C1607047DC
:103860004FF48071C16070475FF48021C160704780
:103870005FF08071C1607047012181607047402115
:10388000816070475FF48031816070475FF4800130
:10389000816070470121C16070474021C16070475D
:1038A0005FF48031C16070475FF48001C160704790
:1038B00072B67047FEE700002DE9F04104002025B4
:1038C00000260D4FB846320029004046FDF78EFF16
:1038D0002068386060687860A068B860E068F86068
:1038E0002069386160697861A069B861E069F86150
:1038F00001BEBDE8F0810000D42F00201EF0040FAF
:103900000CBFEFF30880EFF30980D5E7704738B5B7
:1039100005000C00002C0FD12800FFF735FF280010
:10392000FFF750FF2800FFF76BFF2800FFF7A4FF09
:103930002800FFF783FF7CE0012C0FD12800FFF760
:1039400026FF2800FFF741FF2800FFF75CFF280053
:10395000FFF795FF2800FFF774FF6AE0022C0FD1F4
:103960002800FFF718FF2800FFF733FF2800FFF7B4
:103970004EFF2800FFF786FF2800FFF766FF58E09C
:10398000032C0FD12800FFF70AFF2800FFF725FFBF
:103990002800FFF740FF2800FFF778FF2800FFF717
:1039A00058FF46E0042C0FD12800FFF7FCFE28004A
:1039B000FFF717FF2800FFF732FF2800FFF76AFF25
:1039C0002800FFF74AFF34E0052C0FD12800FFF74D
:1039D000EDFE2800FFF708FF2800FFF723FF28006F
:1039E000FFF75BFF2800FFF73BFF22E0062C0FD11B
:1039F0002800FFF7DFFE2800FFF7FAFE2800FFF798
:103A000015FF2800FFF74CFF2800FFF72DFF10E0FF
:103A1000072C0ED12800FFF7D1FE2800FFF7ECFE9F
:103A20002800FFF707FF2800FFF73EFF2800FFF7F9
:103A30001FFF31BD9C4A535CC3181B685B085B00C9
:103A4000525C82181360704730B4974C635CC318A3
:103A50001D68964B1D401543635CC3181D6030BC48
:103A6000704710B4904B5C5C04195B5CC3185B68D6
:103A70001B0C1B041343636010BC704710B48A4BCB
:103A80005C5C0419246834F0606414435B5CC31804
:103A90001C6010BC704710B4834B5C5C0419246834
:103AA00034F0C07414435B5CC3181C6010BC7047D6
:103AB00010B47D4B5C5C0419246834F4C0041443D6
:103AC0005B5CC3181C6010BC704770B4764C655CBE
:103AD0004519645C04196669F608F60052EA0304A5
:103AE00026436E6170BC70476F4B5B5CC318DA6035
:103AF00070476D4B5B5CC3189A6070476C490A68ED
:103B000002430A6070476A490A6882430A60704744
:103B10002DE9F04105000C00DFF8988147460026AA
:103B2000654884421AD16548854208D15FF4001087
:103B3000FFF7E4FF5FF40010FFF7E5FFB0E0604837
:103B4000854208D15FF48000FFF7D8FF5FF4800062
:103B5000FFF7D9FFA4E001200600A1E02100280022
:103B6000FFF768FF5548854203D1002C01D1474635
:103B700055E053498D4203D1002C01D1514F4EE005
:103B8000854203D1012C01D14F4F48E08D4203D132
:103B9000012C01D14D4F42E0854203D1022C01D1CD
:103BA0004B4F3CE08D4203D1022C01D1494F36E00E
:103BB000854203D1032C01D1474F30E08D4203D120
:103BC000032C01D1454F2AE0854203D1042C01D1B9
:103BD000434F24E08D4203D1042C01D1414F1EE01C
:103BE000854203D1052C01D13F4F18E08D4203D10E
:103BF000052C01D13D4F12E0854203D1062C01D1A5
:103C00003B4F0CE08D4203D1062C01D1394F06E029
:103C1000854203D1072C01D1374F00E0374F0020F8
:103C20003860002078600020B8600020F860002034
:103C3000386121207861002221002800FFF71EFF53
:103C4000002C02D13F20A8602AE0012C03D14FF4C0
:103C50007460A86024E0022C03D15FF47C10A8609B
:103C60001EE0032C03D15FF07460A86018E0042C00
:103C700002D13F20E86013E0052C03D14FF47460BB
:103C8000E8600DE0062C03D15FF47C10E86007E0EB
:103C9000072C03D15FF07460E86001E001200600AA
:103CA000F6B23000BDE8F0816CB700081F80FCFF61
:103CB00010380240106002400000FFFF0060024028
:103CC0000064024010640240286002402864024000
:103CD0004060024040640240586002405864024024
:103CE0007060024070640240886002408864024054
:103CF000A0600240A0640240B8600240B864024084
:103D000070B504000D001600F06A0028B268F06873
:103D100002433069024370690243B0690243F069AB
:103D20000243B06A024329002000FFF78DFEF06ACB
:103D300000280FD0336BF26A29002000FFF7C5FE80
:103D4000726B29002000FFF7A6FEB26B290020004D
:103D5000FFF7AEFE726829002000FFF7C5FE32684B
:103D600029002000FFF7C5FE326A29002000FFF776
:103D700078FE726A29002000FFF780FE002070BDE7
:103D800080B501F061FA02BD80B501F07BFA01BD9A
:103D900080B501F08AFA02BD38B504000D00290093
:103DA000200001F0A3FA32BD38B504000D0029004F
:103DB000200001F0A3FA32BD70B504000D0016001A
:103DC000320029002000C0B201F0B1FA70BD38B550
:103DD00004000D002900200001F0D8FA32BD8268ED
:103DE000521C8260426832B10268531C0360117039
:103DF0004168491E416070472DE9F14FB2B09946C4
:103E0000924600230691CDE900333C9A0F930DF1C1
:103E10004A0114914A7011E0329E57462C4617F819
:103E2000011B0698B0470028069000F026810F98E5
:103E3000401C641E0F90F2D13296AA449AF80000FA
:103E4000252808D10021002209910A920B910C9299
:103E50000D910E920FE06A464FF0FF31504601F08F
:103E6000D9FA050002D10F9800F066BED4D501251D
:103E7000E3E741F001011AF8010F2028F9D02328C7
:103E80000CD02B2804D02D2805D0302809D00BE0E9
:103E900041F00201EFE741F00401ECE741F00801D5
:103EA000E9E741F01001E6E72A280FD1D9F8002010
:103EB00052F8040BC9F800200028119003D54042A5
:103EC000119041F004010AF1010A14E01192DFF8A7
:103ED000EC3B0AE01198984205DA00EB800402EB13
:103EE0004402303A11920AF1010A9AF80020A2F134
:103EF00030000A28EED39AF800002E2803D04FF0A5
:103F0000FF32109229E01AF8010F2A2809D1D9F8B6
:103F1000000050F8042BC9F8000010920AF1010AC1
:103F20001BE02D280CBF0AF1010A0020002210928C
:103F3000DFF8882B0BE040B9109B934205DA03EBC6
:103F4000830504EB4504303C10940AF1010A9AF809
:103F50000040A4F130030A2BEDD3ADF848100FF662
:103F600060309AF8001001F05FFA08B11AF8010BFE
:103F70008DF84A009DF84A00682805D19AF800009B
:103F800068280CD1622106E06C2804BF9AF8000072
:103F90006C2804D171218DF84A100AF1010A1FA87A
:103FA00008901AF801BBBBF125012DD01C3900F097
:103FB0006181091F022940F25D810E392AD0491F13
:103FC00000F0B284093900F05581891E00F048855F
:103FD000491E00F0F484491E022940F24B81091F5A
:103FE00000F0ED84491F00F0BA80491E00F09C8467
:103FF000491E65D0C91E21D0891E00F09584C91EB6
:1040000000F0928400F04BBD25238DF87C30012117
:1040100009912AE06C208DF84A00D9F8000050F888
:10402000042BC9F80000002A43D1149948780028CD
:104030003DD04FF0FF340FF6902012E09DF84A007B
:104040006C28EAD0D9F8000050F8044BC9F80000F9
:104050000794D4B91499487898B14FF0FF340FF60B
:10406000842001F0EDF9201A07D132981FAA04A983
:1040700000F065FD00287FF5E1AE4FF0FF3000F065
:104080005BBD0FF67C200790EFE7109D002D04D557
:10409000204601F0F5F9044607E02A46204601F0E3
:1040A0000BFA002814BF041B2C460A94DDE70FF618
:1040B0005422329804A900F0C8FD0028D5D5DCE7C9
:1040C000D9F8001051F8040BC9F8001020F00004D2
:1040D000002121F0FF351FABCDE904450793DDE951
:1040E000042308993C2413B90AB9109898B102F036
:1040F0000F053035641EEEB23A2EA8BF27351209DF
:1041000042EA03721B090D5508BF002A03D0079825
:104110000D19A842EBD308190790C4F13C0210987E
:104120000A92824209DABDF84810821A4FF6EF70FF
:1041300001400C92ADF8481097E7002895D59DF8FE
:10414000480000F0140010288FD1119B09990C9899
:104150005B1A1B1A9A1A002A87DD0C9285E71499BC
:10416000487820B14FF0FF340FF69C1079E79DF8A6
:104170004A00622862D0682819D06A2840D06C288A
:1041800006D071284DD074282DD07A281ED064E036
:10419000D9F8001051F8040BC9F8001020B94FF0FD
:1041A000FF340FF67C105CE70F9901605DE7D9F8EA
:1041B000001051F8040BC9F8001020B94FF0FF347B
:1041C0000FF65C104DE70F9901804EE7D9F800100B
:1041D00051F8040BC9F800100028E5D14FF0FF3466
:1041E0000FF63C103DE7D9F8001051F8040BC9F860
:1041F00000100028D8D14FF0FF340FF6241030E71C
:10420000D9F8001051F8040BC9F8001020B94FF08C
:10421000FF340FF60C1024E70F9AD317C0E90023E0
:1042200023E7D9F8001051F8040BC9F80010002852
:10423000F2D14FF0FF340FF6E80012E7D9F8001082
:1042400051F8040BC9F8001020B94FF0FF340FF6F5
:10425000D00006E70F99017007E7D9F8001051F870
:10426000040BC9F8001000289ED14FF0FF340FF660
:10427000B000F6E6D9F80020D21D22F00702C9F8F6
:104280000020D2E900010832C9F80020CDE904017C
:10429000C80F02D009982D210AE0BDF84800810717
:1042A00002D509982B2103E0C00705D509982021E4
:1042B0001FAA1154401C09901FA809994BF0200215
:1042C0004318DDE90401CDE92E01612A079315ACFD
:1042D0000BD01098002802D50620109005E001BFF1
:1042E0004BF02000672801211091DDE9040148000E
:1042F0004015401C0A4611D109030FD0ABF16105EE
:1043000003201A2D0A9002D20FF6A03101E00FF619
:10431000A0310322184601F0FBF8A6E650B91203BB
:1043200008D1ABF1610503201A2D0A9016D30FF6C0
:104330008831EEE7DDE90401CDE93001DDE9302324
:1043400023F00047B7F5801F22F000060DD20022AF
:10435000002F08BF002E029203D116E00FF6543151
:10436000D7E702AA01F028F90FE0DFF8F00ADFF83A
:10437000F01A00EB17500290DDE930234FF0FF30C8
:104380001940DFF8E07A10403943CDE904014BF0E1
:10439000200061280DD1079830210170821CBBF1EB
:1043A000610F07920CBF7821582141700998801C39
:1043B0000990DDE9040120F0000231F0004308BF5C
:1043C000002A02D10026002571E14BF02008B8F147
:1043D000610F40F0BE801098002847BF2121039153
:1043E000401C0390039FDDE92E017F1C0022002367
:1043F000DDE9044501F018F902998DF8542038BF21
:1044000085F00045091F002F02910DF155065DDD75
:10441000DFF8541ACDE9302140F2FF732E93204685
:1044200029460022002301F017F94FD24800400D21
:1044300000F11C0315D0002B13DD2E9883420ADBFC
:10444000DDE9300121F0004005F000420243DDE9E2
:104450003001114611E06FF31E5141EA035120462D
:104460000BE024F0000035F0004108BF00280FBF2A
:1044700029461C22294601F007F904460D4601F0A1
:10448000A1F9FF1F002F804609DD01F0B9F90246AE
:104490000B462046294601F0C5F904460D46F01D9D
:1044A0000721B8F1000F0CDD491E5EBF08F00F02B6
:1044B00000F8012D4FEA2818F3D502E0002200F899
:1044C000012D491EFAD5C61D002FA8DC0DF155009F
:1044D000361A03988642D8BF304600280DF155049D
:1044E00030D4B04206DA0DF155010A5C082AA8BFA3
:1044F0000F2100DA0021024615AB134400E0401EF4
:1045000013F80159521E8D42F9D00F2904D10DF133
:1045100055018B5C5B1C8B54002A04D50299091D44
:1045200015AC401C0291411E0CD46218ABF13A0646
:1045300013783033DDB23A2DA8BFF318491E02F8C4
:104540000139F5D51099002940F1AF80421E109233
:10455000ABE00299DFF8142947F29750414391FBF1
:10456000F2F2DDE92E45029225F00045D2F1070274
:1045700004DD2046294600F04DFC0BE052420020AD
:10458000DFF8EC1800F046FC02460B4620462946B0
:1045900001F0BAF90446B8F1660F109806BF029F01
:1045A0000A3706273F18142FC8BF142730208DF86C
:1045B00054000D460020DFF8BC18CDE92E010DF1A6
:1045C0005506002F33DD2046294601F0C1FA014689
:1045D0000A4606F1080304200A26B2FBF6F606EBAB
:1045E000860EA2EB4E02303203F8012C0A22B6FBF3
:1045F000F2F202EB820EA6EB4E063036401E03F8B6
:10460000026DE9D1083F002F03F10806D9DD084605
:1046100001F0B2FA02460B462046294601F002F9A3
:10462000DDE92E2301F0B6FA04460D46CBE70DF185
:104630005500361A0DF1550404E00298401E761E0E
:104640000290641C20783028F7D0B8F1660F02D1B0
:104650000299491C04E0B8F1650F0CBF012100214B
:10466000109808188642B8BF701E00281DD4B042AA
:1046700004DA215C3429C8BF392100DC302102462C
:10468000631E9D1800E0401E15F80169521E8E42FF
:10469000F9D0392902D1A15C491CA154002A04D5C2
:1046A0000299491C1C46401C02910646029D00F0DE
:1046B000B5FE406A0778DDF8408030B2002802DCA1
:1046C00001260FF2F8744BF02000662808BF6D1C1D
:1046D00016D0672846D128B210F1040F48DB4045B8
:1046E00046DA9DF848006D1C010703D430B24045FE
:1046F000B8BF804628B2B8EB000848BF4FF00008AA
:104700000FFA85FB07980A99BBF1000F00F3B280FE
:104710004A1C0A9230234354B8F1000F03DC9DF881
:104720004800010704D50A98411C0A9107990F54C3
:1047300018EB0B0FB8BFC8F100052DB268420D9001
:10474000A84432B29045B8BF4646079B0A9836B295
:104750000B9632462146184400F0DAFEA8EB06001C
:104760000E90CBE0BBF1610F17D14FF0700B19E049
:1047700030B2404504DA9DF848100A0758BF804619
:10478000B8F1010848BF4FF00008BBF1670F14BF34
:104790004FF0450B4FF0650B04E0BBF1410F08BF34
:1047A0004FF0500B0A98411C0A91B8F1000F07997D
:1047B00014F8012B0A5403DC9DF8480001071AD5B0
:1047C0000A98411C0A91B8F1000F07990F5412DDA5
:1047D000761E30B2804507980A9BB8BF464632B273
:1047E0002146184400F094FE0A9936B271180A91D5
:1047F000A8EB06000D9007980A9908442AB2002AEF
:1048000080F800B003D42B224270811C04E02D21DB
:1048100041701546811C6D4200202EAA0A2409E031
:104820002B4693FBF4F505EB8506A3EB460302F854
:10483000013B401C2DB2002DF2DC012806DC4BF0C0
:104840002002652A04BF302201F8012B00282EAA7D
:1048500008D1302001F8010B06E0401E135C303314
:1048600001F8013B0028F8DC079A0A981044091A5D
:104870000B9143E0084431B22AB2914219DA32B2C4
:10488000214600F045FE0A9936B27118ABEB0606D8
:10489000B8F1000F0A910D9603DC9DF8480002075D
:1048A00004D5079847540B99491C0B91CDF83880D3
:1048B00024E0214600F02CFE0A98761B5844B8F1FB
:1048C000000F0A9003DC9DF848100A0703D5411C2D
:1048D0000A9107990F5430B2804507980A9BB8BFD8
:1048E000464632B204EB0B01184400F011FE0A9860
:1048F00036B230180A90A8EB06000D909DF84800DB
:1049000000F0140010287FF4B0AB099A0A990D98B2
:104910008A180B9982180E988A1882181198824268
:10492000BFF6A3AB821A18E49DF84A00622808D0AB
:1049300068280ED06A2814D06C281FD0712810D097
:104940001CE0D9F8001051F8040BC9F80010C0B2EF
:104950001AE0D9F8001051F8040BC9F8001080B221
:1049600012E0D9F80020D21D22F00702C9F8002079
:10497000D2E900010832C9F8002006E0D9F8001099
:1049800051F8040BC9F800100021CDE904019DF88D
:10499000480001075AD5DDE90423002B08BF002A8F
:1049A00054D04BF02000782850D109981FA930220C
:1049B0000A54401C431C099301F800B046E09DF8DE
:1049C0004A00622808D068280ED06A2814D06C28C3
:1049D0001FD0712810D01CE0D9F8001051F8040B3A
:1049E000C9F8001040B21AE0D9F8001051F8040BD1
:1049F000C9F8001000B212E0D9F80020D21D22F050
:104A00000702C9F80020D2E900010832C9F80020E5
:104A100006E0D9F8001051F8040BC9F80010C117CE
:104A2000CDE90401002902D509982D210AE0BDF83D
:104A30004800810702D509982B2103E0C00705D55E
:104A4000099820211FAA1154401C09901FA80999F8
:104A50000144079104A8594600F057F9FFF705BB38
:104A60009DF84A006C280BD001210991D9F800006B
:104A700050F8041BC9F800008DF87C10FFF7F5BA58
:104A8000D9F8000050F8041BC9F8000015914FF048
:104A9000FF3210920021169115AAFFF70ABB2521BB
:104AA0000122BBF1000F8DF87C1009923FF4DDAAC2
:104AB0008DF87DB00221FFF7ABBA0000CBCCCC0C57
:104AC000686A6C747A4C00007072696E74665F7309
:104AD0003A2062616420256C7320617267756D6590
:104AE0006E7400007072696E74665F733A20626162
:104AF0006420257320617267756D656E7400000017
:104B000000000000000000007072696E74665F7340
:104B10003A20256E20646973616C6C6F7765640060
:104B20007072696E74663A2062616420256E20613D
:104B30007267756D656E740033B0BDE8F08F2DE956
:104B4000FC410F46064690467A6B7869396ABC6A22
:104B5000121AB869521A796A121AF869521A121A94
:104B600097F83800141B41070FD42020002C8DF833
:104B700000000ADD254601236A463946304600F02A
:104B80007DF900285DD16D1EF5D17B69424639461D
:104B9000304600F073F9002853D130208DF8000022
:104BA0003D6A002D09DD01236A463946304600F092
:104BB00065F9002845D16D1EF5D1BB69FA68394603
:104BC000304600F05BF900283BD130208DF8000022
:104BD0007D6A002D08DD01236A463946304600F023
:104BE0004DF970BB6D1EF6D1F868B969FB694218C2
:104BF0003946304600F042F918BB30208DF80000ED
:104C0000BD6A002D08DD01236A463946304600F0B2
:104C100035F9B0B96D1EF6D197F8380041070DD5BA
:104C20002020002C8DF8000008DD01236A4639465B
:104C3000304600F023F920B9641EF6D10020BDE80B
:104C4000F6814FF0FF30BDE8F6812DE9F8470D46BB
:104C5000A3B02F6B002F8246904648BF6FF00047ED
:104C600001F069F8696B401801AA0021C2E900113E
:104C7000812828BF4FF0FF3044D289461EE0A7426A
:104C800030DB6869201881280BD30021696303AAEF
:104C900029465046FFF753FF5FEA000922D400205F
:104CA000686103AB6E6922466946981900F030FCD2
:104CB000A6196E6158F8040BA0B13F1B002F11DD3F
:104CC000D8F8001001AA684600F0A6FB0446002CA4
:104CD00005D4D8F800000028D1D1641ECFD54FF0FC
:104CE000FF390EE0B9F1000F504604D103AA29465E
:104CF000FFF725FF8146B9F1000F02D1002068615E
:104D00006863484624B0BDE8F0872DE9FC430746B8
:104D10006F293E6908BF082405D041F0200078289B
:104D200014BF0A2410243C25D7E90023642918BFA6
:104D300069299046994605D1002B03D5D8F1000882
:104D400069EB4909B9F1000F08BFB8F1000F0CD1A8
:104D5000386B50B9082C39D197F83800010735D590
:104D600030203B2586F83B0030E08DF800104046AF
:104D700049462246E31700F0A3F83032D0B26D1E48
:104D80003A28019504DB9DF80000A0F151018A1832
:104D90007255404649462246E31700F091F8804696
:104DA0005FEA010908BFB8F1000F03D0F868711974
:104DB0008842DCD3082C09D197F83800010705D5C3
:104DC000705D302802D06D1E30207055C5F13C0258
:104DD000BA617119F960386B824208DA821A3A6254
:104DE0004FF6EF70398F01403987BDE8F383002813
:104DF0000ED597F8380000F01400102808D17B6B0E
:104E00007969386A5B1A1B1A9A1A002AC8BF3A6273
:104E1000BDE8F3832DE9D04306460F4614464FF014
:104E20000008DFF8549012E0E00707D542464B46F1
:104E30003046394600F0AEFE06460F46404649462B
:104E400042464B4600F0A6FE641080468946002C80
:104E5000EAD130463946BDE8D083000002FCFFFFAE
:104E6000FFFF0F800000E03F0000F07FA086010000
:104E70000000F03F84D7974100002440F8B5054674
:104E80000E4617461C4600205CB117F8011BB0689F
:104E9000A847B06030B1F06A401CF0620020641E88
:104EA000F3D1F2BD4FF0FF30F2BD00006E616E0035
:104EB0004E414E00696E6600494E460030002E009D
:104EC000BBBBE1B1B2F5803F80F07E80022A1ED9E3
:104ED0008C46B1FBF2F102FB11C31B0443EA104301
:104EE000B3FBF2FC02FB1C3380B240EA0343B3FB8A
:104EF000F2F002FB103240EA0C4000237047022A15
:104F000005D98446B0FBF2F002FB10C270474AB1EB
:104F100005D100F0010249085FEA30007047002225
:104F20000023704700F00CBF0B000200002100209E
:104F30007047904271EB030CF6D3B3F5803F2FD24C
:104F4000F0B5B3FA83F7B1FA81F4A7F10F0E3D1B68
:104F50005340CEF1200602FA0EF2F3415340B5F170
:104F60000F0746D80F3C2C444140C4F12006A04016
:104F7000F1414140B1FBF3F603FB1611A2FB0645DC
:104F8000001BA94102D2761E8018594180EA010215
:104F900021FA0EF362FA0EF200215A403046F0BDBB
:104FA00030B4B1FBF3FC03FB1C11A2FB0C45001B4E
:104FB000A94103D2ACF1010C8018594130BC024622
:104FC0000B46604600217047B2F1807F65D3F0B593
:104FD000B2FA82F7B1FA81F4C7F10F063D1B22FA4B
:104FE00006F307F1110EF24120355A40B5F10F07D3
:104FF000B8D94140C4F12006A040F1414140B1FB85
:10500000F3FC03FB1C11A2FB0C45001BA94103D2BE
:10501000BCF1010C801859410F2F12D30F3FC90367
:1050200041EA5041B1FBF3F603FB1611A2FB064522
:10503000D4EBC030A94102D2761E8018594146EA0D
:10504000CC3C07B34140C7F12006B840F141414094
:10505000B1FBF3F603FB1611A2FB0645001BA941A9
:1050600002D2761E8018594180EA010221FA0EF31D
:10507000C7F1200462FA0EF20CFA07F05A402CFA3B
:1050800004F13043F0BD80EA010221FA0EF3002161
:1050900062FA0EF260465A40F0BD8C46B1FBF2F166
:1050A00002FB11C31B0243EA1063B3FBF2FC02FBD9
:1050B0001C331B024CEA002043EA1063B3FBF2FCF2
:1050C00002FB1C331B024CEA002043EA1063B3FBD3
:1050D000F2FC02FB1C331B024CEA002043EA106383
:1050E000B3FBF2FC02FB1C324CEA002000237047A9
:1050F0004D48006810F00C0070474B48006810F0F5
:10510000F00070474848006810F4E0507047464887
:10511000006810F4604070474448006810F4800054
:10512000704742480068C0F3881070473F480068E5
:1051300010F4403070473D48006810F03F00704761
:1051400010B5040000F00EF82060206800F01FF891
:105150006060606800F026F8A060606800F02CF8DD
:10516000E06010BD10B50024FFF7C2FF002804D096
:10517000042804D0082804D007E02D4806E02D4874
:1051800004E0082000F022F800E0294810BD10B526
:105190000400FFF7B2FF2849C0F30310085CC440C5
:1051A000200010BD10B50400FFF7ACFF2349800AB2
:1051B000085CC440200010BD10B50400FFF7A7FF35
:1051C0001E49400B085CC440200010BD2DE9F84387
:1051D00004005FF0000800270025FFF79DFF060090
:1051E0003000002803D0B0F5800F02D003E0104F4C
:1051F00002E0104F00E00E4F082C11D1FFF79BFF8B
:105200008046FFF78EFF8146B7FBF8F009FB00F9F7
:10521000FFF78CFF000C401C4000B9FBF0F00500CC
:105220002800BDE8F283000008380240043802403C
:105230000024F40000127A0018B7000874B70008C0
:105240004AF6AA210160704780B50348FFF7F8FFCE
:10525000002002BD000000000030004081B0454940
:105260000A6802430A60096801400091009901B090
:105270007047816851F0010181607047016070479B
:105280000068704780B500F008F84FF48050FFF7D1
:10529000E5FF00203849087001BD80B5374800F0AF
:1052A0005BFD01203449087001BD33480078704728
:1052B00080B53248FFF7DDFF01BD2DE9F041040064
:1052C0000D0000265FF00008FFF7F2FF0027AF4255
:1052D00007D2E05D804641462848FFF7CFFF7F1C9C
:1052E000F5E72648FFF7CCFFBDE8F08138B50400AC
:1052F0000D0029002000FFF7E0FF32BD70B403006D
:105300000020002200258D420ED20600B6B2360AD9
:105310005A5D564034001A4A2600F6B232F816207A
:1053200092EA00206D1CEEE780B270BC7047F0B4CA
:105330000300002000260024944217D20E5D464050
:1053400035001E00F6B2072E02D0312E06D00BE03B
:105350000C4E2F00FFB2F65D300005E00A4E2F0024
:10536000FFB2F65D3000FFE7641CE5E7C0B2F0BCB9
:105370007047000030380240B80000200030024082
:10538000F0AE000820B3000820B4000810B40300F9
:105390000022002000248C4203D21A5D1018641CE5
:1053A000F9E74042C0B210BC704743001C48704748
:1053B00070B45368D41801E05B1C491E042B08DA52
:1053C00000291FBF057804F8015B10F8016B002E5F
:1053D000F2D1536070BC704738B514461D4661B1B8
:1053E000FFF7E6FF61686A6B204690476FF00102A5
:1053F000811A02D0491E01D001E003E005E000213E
:10540000616032BD6FF0010032BD4FF0FF3032BD40
:10541000DA6B1047024BDFE7014BF9E701487047B1
:105420000000002048000020C9B202788A421AB168
:105430001CBF10F8012FF9E718BF002070470000CB
:1054400080B500B906A005490B681BB122220021D6
:10545000984701E000F098FC222002BD2430002093
:10546000636F6E73747261696E742068616E646CD0
:1054700065723A20626164206D65737361676500CF
:1054800000F10103810704D010F8011B820781B1EC
:10549000FAD10268A2F10131914311F0803104BFC9
:1054A00050F8042FF6E709BAB1FA81F100EBD10008
:1054B000401CC01A70470000C9B2830706D0521EB4
:1054C00022D310F8013B9942F7D11FE0083A13D3D9
:1054D00002F1040241EA012141EA014150F8043B92
:1054E000121F21BF4B40A3F1013C2CEA030C1CF01E
:1054F000803FF3D0C9B2001F083210F8013B521EA2
:1055000028BF91EA030FF8D818BF0120401E70474A
:1055100062B38B0708D0521E11F8013B00F8013B23
:1055200000F024808B07F6D1830740F0208000BF75
:10553000103A07D330B4B1E83810103AA0E8381068
:10554000F9D230BC530724BFB1E80810A0E8081016
:1055500044BF51F8043B40F8043BD20724BF31F864
:10556000022B20F8022B44BF0B7803707047121FE8
:1055700017D35B0009D151F8043B20F8023B1B0C08
:10558000121F20F8023BF6D20BE051F8043B00F862
:10559000013B1B0A20F8023B1B0C121F00F8013BC9
:1055A000F3D238BF121D521E24BF11F8013B00F880
:1055B000013BF8D87047000010B5144600F002F81F
:1055C000226010BDC1F30A5343B14A0012F5001F17
:1055D00028D2A3F2FE32A1EB0251704750EA410CEF
:1055E00020D001F0004C31EA0C01B1FA81F204BF85
:1055F000B0FA80F3D2180B3AB2F120032CBF00FAB4
:1056000003F1914041EA0C013EBFC2F1200C20FAA7
:105610000CF319439040524240F2FD33D21A01EB91
:1056200003517047002270474FF4001C1CEB410FE0
:1056300094BF1CEB430F09E041EA030C50EA4C0C09
:1056400052EA0C0C03D2994208BF9042704714BF33
:105650008B428242704700004FF4001C1CEB410F4C
:1056600094BF1CEB430F09E041EA030C50EA4C0CD9
:1056700052EA0C0C03D28B4208BF8242704714BF1F
:105680009942904270470000124254D440F2FF7C8D
:105690001CEA11530FD0634531D09B1863453CBFC2
:1056A00001EB0251704701F0004141EA0C5100202A
:1056B000AFF30080704750EA410320D001F0004C66
:1056C00091EA0C011CD0B1FA81F30B3B9A420DD93F
:1056D000D21A994051EA0C01C3F1200C20FA0CFCBB
:1056E00061449840531C40F2FF7CD7E7914041EA67
:1056F0000C01C2F1200C20FA0CF3194390407047C2
:10570000B0FA80F31533202BE0D3202AEED3203AD1
:10571000203B9A4209D9D21A00FA03F141EA0C015E
:105720000020531C40F2FF7CB8E700FA02F141EA86
:105730000C0100207047524240F2FF7C1CEA1153DA
:105740000DD06345DBD0B2EB030C3CBFA1EB0251A3
:1057500070470CF1010221EA035141F4801150EA33
:10576000410CCCD001F0004C352A27DC30B481EA62
:105770000C01B2F1200309DAC2F12003044601FA58
:1057800003F5D0402843D1409C400CE0C3F12002F7
:10579000450020FA03F418BF44F0010421FA03F095
:1057A00091400C43002174F1004550F1000051EB91
:1057B0000C01244230BC7FF47BAF7047614600206F
:1057C00076E70000C1F30A5340F2FE329B1A14DD63
:1057D000D3F120034FEAE17208DDC90241EA5051DA
:1057E00041F00040D84080185040704703F2E1304B
:1057F00010B1D24382F00040704700207047000093
:10580000C11768B14840401AB0FA80F29040D21CEB
:10581000C907C2F5846241EA025202EBD021400579
:105820007047000070B44FF0004591EA030F40F15B
:10583000B7826B40841A71EB030603D2001BB1419F
:10584000121973414FF4001C1CEB410F34BF7CEB69
:10585000430442E00C0DA4EB1356352E4FDC45EA11
:10586000C323DB0A45EAC121C912B6F120050DDDCB
:1058700063FA05F6EB4086EA0305124218BF45F0CD
:105880000105C01851F100010CD213E062FA06F5CF
:10589000F2405540F3415A40B340F3405A4080181B
:1058A000594107D349085FEA30005FEA350528BF50
:1058B00045F0010501F58011420875F1004250F1F3
:1058C000000041EB04514E0016F5001F70BC38BFBC
:1058D00070470020090D090570471CEB410F10D2DD
:1058E00052EA43060BD0BCEB410F05D80C0DAB437D
:1058F000661E342EB6DD02E0AB438018594170BC01
:10590000704770BC70470000F0B540F2FF7581EA47
:10591000030C0CF0004C15EA11541DBF15EA135787
:10592000AC42AF42E5E0BC41C1F31301C3F3130342
:10593000801A994143F4801304D2641E4000494107
:1059400080185941C90241EA5051B1FBF3F603FBFB
:105950001611A2FB0675D7EBC020A94102D2761E14
:1059600080185941C90241EA5051B1FBF3FE03FBD3
:105970001E11A2FB0E75D7EBC020A94103D2AEF1D8
:10598000010E80185941890241EA9051760546EA94
:105990008E2EB1FBF3F603FB1611A2FB0675D7EBB7
:1059A0008020A94102D2761E80185941C90241EADD
:1059B00050514EEA060EB1FBF3F603FB1611A2FBA3
:1059C0000675D7EBC020A94102D2761E8018594136
:1059D000C90241EA5051B1FBF3F703FB1711A2FBD7
:1059E0000735D3EBC020A94167F100070CBF004287
:1059F00047F0010766F3D5274FEA1E31B80814F5C2
:105A0000806412DDBD0775F1004250EB0E5051EB82
:105A1000045111F5801F5CBF41EA0C01F0BD4CF050
:105A20007F6141F0E0410020F0BDBD076D0840EA14
:105A30000E5041F48011D4F10104B4F120060ADAC9
:105A4000C4F120060200E04001FA06F3E1401843E9
:105A5000B24015430EE0342C13DCC6F1200445EAB5
:105A600040056D0820FA06F2154321FA06F0A14020
:105A70000D43002175F1004250F1000051EB0C0183
:105A8000F0BD00205FEA0C01F0BDCFB992185B4178
:105A9000B3FA83F704BFB2FA82F6BF190B3FB7F12E
:105AA00020062FBF02FA06F3BB40C7F1200622FAF8
:105AB00006F638BF3343BA401CB1E419641E33E71D
:105AC0007F4231F00041B1FA81F404BFB0FA80F6B0
:105AD000A4190B3CB4F120062FBF00FA06F1A14037
