:020000040800F2
:10000000184F0020414F0008834D0008874D00081D
:100010008F4D0008914D0008934D0008000000002E
:10002000000000000000000000000000954D0008E6
:10003000974D000800000000994D00089B4D0008F6
:100040009F4D0008C14D0008754F0008794F00080A
:100050007D4F0008854D0008814F0008854F00083E
:10006000894F00088D4F0008914F0008954F0008F8
:10007000994F00089D4F0008A14F0008A54F0008A8
:10008000A94F0008AD4F0008B14F0008B54F000858
:10009000B94F0008BD4F0008C14F0008C54F000808
:1000A000C94F0008CD4F0008D14F0008D54F0008B8
:1000B000D94F0008DD4F0008E14F0008E54F000868
:1000C000E94F0008ED4F0008F14F0008F54F000818
:1000D000F94F0008A34D0008FD4F0008015000082B
:1000E00005500008095000080D5000081150000884
:1000F00015500008195000081D5000082150000834
:1001000025500008295000082D50000831500008E3
:1001100035500008395000083D5000084150000893
:1001200045500008495000084D5000085150000843
:1001300055500008595000085D50000861500008F3
:1001400065500008695000086D50000871500008A3
:1001500075500008795000087D5000088150000853
:1001600085500008895000088D5000089150000803
:1001700095500008995000089D50000800000000AC
:10018000BD4D0008A15000082DE9F14FB2B09946CD
:10019000924600230691CDE900333C9A0F930DF16E
:1001A0004A0114914A7011E0329E57462C4617F8C6
:1001B000011B0698B0470028069000F026810F9892
:1001C000401C641E0F90F2D13296AA449AF80000A7
:1001D000252808D10021002209910A920B910C9246
:1001E0000D910E920FE06A464FF0FF31504601F03C
:1001F0007FF8050002D10F9800F066BED4D5012526
:10020000E3E741F001011AF8010F2028F9D0232873
:100210000CD02B2804D02D2805D0302809D00BE095
:1002200041F00201EFE741F00401ECE741F0080181
:10023000E9E741F01001E6E72A280FD1D9F80020BC
:1002400052F8040BC9F800200028119003D5404251
:10025000119041F004010AF1010A14E01192DFF853
:10026000EC3B0AE01198984205DA00EB800402EBBF
:100270004402303A11920AF1010A9AF80020A2F1E0
:1002800030000A28EED39AF800002E2803D04FF051
:10029000FF32109229E01AF8010F2A2809D1D9F863
:1002A000000050F8042BC9F8000010920AF1010A6E
:1002B0001BE02D280CBF0AF1010A00200022109239
:1002C000DFF8882B0BE040B9109B934205DA03EB73
:1002D000830504EB4504303C10940AF1010A9AF8B6
:1002E0000040A4F130030A2BEDD3ADF848100FF60F
:1002F00060309AF8001001F005F808B11AF8010B07
:100300008DF84A009DF84A00682805D19AF8000047
:1003100068280CD1622106E06C2804BF9AF800001E
:100320006C2804D171218DF84A100AF1010A1FA826
:1003300008901AF801BBBBF125012DD01C3900F043
:100340006181091F022940F25D810E392AD0491FBF
:1003500000F0B384093900F05581891E00F0498509
:10036000491E00F0F584491E022940F24B81091F05
:1003700000F0EE84491F00F0BA80491E00F09D8411
:10038000491E65D0C91E21D0891E00F09684C91E61
:1003900000F0938400F04CBD25238DF87C300121C2
:1003A00009912AE06C208DF84A00D9F8000050F835
:1003B000042BC9F80000002A43D11499487800287A
:1003C0003DD04FF0FF340FF6902012E09DF84A0028
:1003D0006C28EAD0D9F8000050F8044BC9F80000A6
:1003E0000794D4B91499487898B14FF0FF340FF6B8
:1003F000842000F0A9FF201A07D132981FAA04A96F
:1004000000F065FD00287FF5E1AE4FF0FF3000F011
:100410005BBD0FF67C200790EFE7109D002D04D503
:10042000204600F0B1FF044607E02A46204600F0CF
:10043000D5FF002814BF041B2C460A94DDE70FF6F5
:100440005422329804A900F0C8FD0028D5D5DCE775
:10045000D9F8001051F8040BC9F8001020F000047E
:10046000002121F0FF351FABCDE904450793DDE9FD
:10047000042308993C2413B90AB9109898B102F0E2
:100480000F053035641EEEB23A2EA8BF273512098B
:1004900042EA03721B090D5508BF002A03D00798D2
:1004A0000D19A842EBD308190790C4F13C0210982B
:1004B0000A92824209DABDF84810821A4FF6EF70AC
:1004C00001400C92ADF8481097E7002895D59DF8AB
:1004D000480000F0140010288FD1119B09990C9846
:1004E0005B1A1B1A9A1A002A87DD0C9285E7149969
:1004F000487820B14FF0FF340FF69C1079E79DF853
:100500004A00622862D0682819D06A2840D06C2836
:1005100006D071284DD074282DD07A281ED064E0E2
:10052000D9F8001051F8040BC9F8001020B94FF0A9
:10053000FF340FF67C105CE70F9901605DE7D9F896
:10054000001051F8040BC9F8001020B94FF0FF3427
:100550000FF65C104DE70F9901804EE7D9F80010B7
:1005600051F8040BC9F800100028E5D14FF0FF3412
:100570000FF63C103DE7D9F8001051F8040BC9F80C
:1005800000100028D8D14FF0FF340FF6241030E7C8
:10059000D9F8001051F8040BC9F8001020B94FF039
:1005A000FF340FF60C1024E70F9AD317C0E900238D
:1005B00023E7D9F8001051F8040BC9F800100028FF
:1005C000F2D14FF0FF340FF6E80012E7D9F800102F
:1005D00051F8040BC9F8001020B94FF0FF340FF6A2
:1005E000D00006E70F99017007E7D9F8001051F81D
:1005F000040BC9F8001000289ED14FF0FF340FF60D
:10060000B000F6E6D9F80020D21D22F00702C9F8A2
:100610000020D2E900010832C9F80020CDE9040128
:10062000C80F02D009982D210AE0BDF848008107C3
:1006300002D509982B2103E0C00705D50998202190
:100640001FAA1154401C0990DDE9042309991FA831
:10065000CDE92E2308444BF020016129079015AC09
:100660000BD01099002902D50621109105E001BF99
:100670004BF02001672901221092DDE90423590083
:100680004915491C10D11A030ED0ABF161050321A5
:100690001A2D0A9102D20FF6A43101E00FF6A03113
:1006A000032200F0C7FEA8E659004915491C0AD1EB
:1006B0001A0308D1ABF1610503211A2D0A9116D353
:1006C0000FF68431ECE7DDE90401CDE93001DDE925
:1006D000302323F00047B7F5801F22F000060DD22B
:1006E0000022002F08BF002E029203D116E00FF661
:1006F0005431D5E702AA00F0FDFE0FE0DFF8EC0A66
:10070000DFF8EC1A00EB17500290DDE930234FF0D0
:10071000FF301940DFF8DC7A10403943CDE904019D
:100720004BF0200061280DD1079830210170821C08
:10073000BBF1610F07920CBF7821582141700998D5
:10074000801C0990DDE9040120F0000231F0004333
:1007500008BF002A02D10026002571E14BF02008D5
:10076000B8F1610F40F0BE801098002847BF2121EA
:100770000391401C0390039FDDE92E017F1C0022A2
:100780000023DDE9044500F0EDFE02998DF85420C8
:1007900038BF85F00045091F002F02910DF1550665
:1007A0005DDDDFF8541ACDE9302140F2FF732E935E
:1007B000204629460022002300F0ECFE4FD24800DC
:1007C000400D00F11C0215D0002A13DD2E9B9A4229
:1007D0000ADBDDE9300121F0004205F00040024370
:1007E000DDE93001114611E06FF31E5141EA02517B
:1007F00020460BE024F0000035F0004108BF00283F
:100800000FBF29461C22294600F0DCFE04460D4697
:1008100000F076FFFF1F002F804609DD00F08EFFFD
:1008200002460B462046294600F09AFF04460D4634
:10083000F01D0721B8F1000F0CDD491E5EBF08F066
:100840000F0200F8012D4FEA2818F3D502E000222C
:1008500000F8012D491EFAD5C61D002FA8DC0DF1A8
:100860005500361A03988642D8BF304600280DF14D
:10087000550430D4B04206DA0DF155010A5C082A5D
:10088000A8BF0F2100DA0021024615AB134400E097
:10089000401E13F80159521E8D42F9D00F2904D180
:1008A0000DF155018B5C5B1C8B54002A04D5029919
:1008B000091D15AC401C0291411E0CD46218ABF10D
:1008C0003A0613783033DDB23A2DA8BFF318491E2B
:1008D00002F80139F5D51099002940F1AF80421E88
:1008E0001092ABE00299DFF8142947F29750414388
:1008F00091FBF2F2DDE92E45029225F00045D2F19E
:10090000070204DD2046294600F04CFC0BE0524271
:100910000020DFF8EC1800F045FC02460B462046AC
:10092000294600F08FFF0446B8F1660F109806BF05
:10093000029F0A3706273F18142FC8BF14273020FC
:100940008DF854000D460020DFF8B818CDE92E01CF
:100950000DF15506002F33DD2046294601F096F8AB
:1009600001460A4606F1080304200A26B2FBF6F601
:1009700006EB860EA2EB4E02303203F8012C0A225F
:10098000B6FBF2F202EB820EA6EB4E063036401EAC
:1009900003F8026DE9D1083F002F03F10806D9DD05
:1009A000084601F087F802460B462046294600F02B
:1009B000D7FEDDE92E2301F08BF804460D46CBE788
:1009C0000DF15500361A0DF1550404E00298401E51
:1009D000761E0290641C20783028F7D0B8F1660F9C
:1009E00002D10299491C04E0B8F1650F0CBF012146
:1009F0000021109808188642B8BF701E00281DD428
:100A0000B04204DA215C3429C8BF392100DC30212E
:100A10000246631E9D1800E0401E15F80169521E33
:100A20008E42F9D0392902D1A15C491CA154002A77
:100A300004D50299491C1C46401C02910646029DA1
:100A400000F05AFC406A0778DDF8408030B2002898
:100A500002DC01260FF2F4744BF02000662808BF78
:100A60006D1C16D0672846D128B210F1040F48DB60
:100A7000404546DA9DF848006D1C010703D430B2AA
:100A80004045B8BF804628B2B8EB000848BF4FF0D9
:100A900000080FFA85FB07980A99BBF1000F00F3D5
:100AA000B2804A1C0A9230234354B8F1000F03DC91
:100AB0009DF84800010704D50A98411C0A9107993E
:100AC0000F5418EB0B0FB8BFC8F100052DB26842E8
:100AD0000D90A84432B29045B8BF4646079B0A988D
:100AE00036B20B9632462146184400F0A3FCA8EB20
:100AF00006000E90CBE0BBF1610F17D14FF0700BE9
:100B000019E030B2404504DA9DF848100A0758BF92
:100B10008046B8F1010848BF4FF00008BBF1670FED
:100B200014BF4FF0450B4FF0650B04E0BBF1410FD4
:100B300008BF4FF0500B0A98411C0A91B8F1000F02
:100B4000079914F8012B0A5403DC9DF848000107AB
:100B50001AD50A98411C0A91B8F1000F07990F5451
:100B600012DD761E30B2804507980A9BB8BF464614
:100B700032B22146184400F05DFC0A9936B2711871
:100B80000A91A8EB06000D9007980A9908442AB22A
:100B9000002A80F800B003D42B224270811C04E0AC
:100BA0002D2141701546811C6D4200202EAA0A2479
:100BB00009E02B4693FBF4F505EB8506A3EB460312
:100BC00002F8013B401C2DB2002DF2DC012806DCAE
:100BD0004BF02002652A04BF302201F8012B0028C7
:100BE0002EAA08D1302001F8010B06E0401E135C4C
:100BF000303301F8013B0028F8DC079A0A981044CA
:100C0000091A0B9143E0084431B22AB2914219DA31
:100C100032B2214600F00EFC0A9936B27118ABEBE5
:100C20000606B8F1000F0A910D9603DC9DF8480006
:100C3000020704D5079847540B99491C0B91CDF82E
:100C4000388024E0214600F0F5FB0A98761B5844D2
:100C5000B8F1000F0A9003DC9DF848100A0703D58D
:100C6000411C0A9107990F5430B2804507980A9B9E
:100C7000B8BF464632B204EB0B01184400F0DAFB71
:100C80000A9836B230180A90A8EB06000D909DF82D
:100C9000480000F0140010287FF4AFAB099A0A99BD
:100CA0000D988A180B9982180E988A188218119834
:100CB0008242BFF6A2AB821A17E49DF84A0062286E
:100CC00008D068280ED06A2814D06C281FD071284C
:100CD00010D01CE0D9F8001051F8040BC9F800102E
:100CE000C0B21AE0D9F8001051F8040BC9F800108E
:100CF00080B212E0D9F80020D21D22F00702C9F814
:100D00000020D2E900010832C9F8002006E0D9F835
:100D1000001051F8040BC9F800100021CDE90401BE
:100D20009DF8480001075AD5DDE90423002B08BFD0
:100D3000002A54D04BF02000782850D109981FA9E0
:100D400030220A54401C431C099301F800B046E0CD
:100D50009DF84A00622808D068280ED06A2814D06E
:100D60006C281FD0712810D01CE0D9F8001051F861
:100D7000040BC9F8001040B21AE0D9F8001051F87D
:100D8000040BC9F8001000B212E0D9F80020D21DFF
:100D900022F00702C9F80020D2E900010832C9F8A0
:100DA000002006E0D9F8001051F8040BC9F8001033
:100DB000C117CDE90401002902D509982D210AE0C7
:100DC000BDF84800810702D509982B2103E0C00730
:100DD00005D5099820211FAA1154401C09901FA86D
:100DE00009990144079104A8594600F056F9FFF704
:100DF00004BB9DF84A006C280BD001210991D9F859
:100E0000000050F8041BC9F800008DF87C10FFF7B3
:100E1000F4BAD9F8000050F8041BC9F80000159185
:100E20004FF0FF3210920021169115AAFFF709BB6F
:100E300025210122BBF1000F8DF87C1009923FF4AF
:100E4000DCAA8DF87DB00221FFF7AABACBCCCC0C7E
:100E5000686A6C747A4C00007072696E74665F73B5
:100E60003A2062616420256C7320617267756D653C
:100E70006E7400007072696E74665F733A2062610E
:100E80006420257320617267756D656E74000000C3
:100E900000000000000000007072696E74665F73ED
:100EA0003A20256E20646973616C6C6F776564000D
:100EB0007072696E74663A2062616420256E2061EA
:100EC0007267756D656E740033B0BDE8F08F2DE903
:100ED000FC410F46064690467A6B7869396ABC6ACF
:100EE000121AB869521A796A121AF869521A121A41
:100EF00097F83800141B41070FD42020002C8DF8E0
:100F000000000ADD254601236A463946304600F0D6
:100F10007DF900285DD16D1EF5D17B6942463946C9
:100F2000304600F073F9002853D130208DF80000CE
:100F30003D6A002D09DD01236A463946304600F03E
:100F400065F9002845D16D1EF5D1BB69FA683946AF
:100F5000304600F05BF900283BD130208DF80000CE
:100F60007D6A002D08DD01236A463946304600F0CF
:100F70004DF970BB6D1EF6D1F868B969FB6942186E
:100F80003946304600F042F918BB30208DF8000099
:100F9000BD6A002D08DD01236A463946304600F05F
:100FA00035F9B0B96D1EF6D197F8380041070DD567
:100FB0002020002C8DF8000008DD01236A46394608
:100FC000304600F023F920B9641EF6D10020BDE8B8
:100FD000F6814FF0FF30BDE8F6812DE9F8470D4668
:100FE000A3B02F6B002F8246904648BF6FF000479A
:100FF00000F03FFE696B401801AA0021C2E9001110
:10100000812828BF4FF0FF3044D289461EE0A74216
:1010100030DB6869201881280BD30021696303AA9B
:1010200029465046FFF753FF5FEA000922D400200B
:10103000686103AB6E6922466946981900F0FAF9B7
:10104000A6196E6158F8040BA0B13F1B002F11DDEB
:10105000D8F8001001AA684600F04CF90446002CAC
:1010600005D4D8F800000028D1D1641ECFD54FF0A8
:10107000FF390EE0B9F1000F504604D103AA29460A
:10108000FFF725FF8146B9F1000F02D1002068610A
:101090006863484624B0BDE8F0872DE9FC43074665
:1010A0006F293E6908BF082405D041F02000782848
:1010B00014BF0A2410243C25D7E90023642918BF53
:1010C00069299046994605D1002B03D5D8F100082F
:1010D00069EB4909B9F1000F08BFB8F1000F0CD155
:1010E000386B50B9082C39D197F83800010735D53D
:1010F00030203B2586F83B0030E08DF8001040465C
:1011000049462246E31700F0B9FD3032D0B26D1ED9
:101110003A28019504DB9DF80000A0F151018A18DE
:101120007255404649462246E31700F0A7FD804627
:101130005FEA010908BFB8F1000F03D0F868711920
:101140008842DCD3082C09D197F83800010705D56F
:10115000705D302802D06D1E30207055C5F13C0204
:10116000BA617119F960386B824208DA821A3A6200
:101170004FF6EF70398F01403987BDE8F3830028BF
:101180000ED597F8380000F01400102808D17B6BBA
:101190007969386A5B1A1B1A9A1A002AC8BF3A6220
:1011A000BDE8F3832DE9D04306460F4614464FF0C1
:1011B0000008DFF8549012E0E00707D542464B469E
:1011C0003046394600F084FC06460F464046494604
:1011D00042464B4600F07CFC641080468946002C59
:1011E000EAD130463946BDE8D083000002FCFFFF5B
:1011F000FFFF0F800000E03F0000F07FA0860100AD
:101200000000F03F84D7974100002440F8B5054620
:101210000E4617461C4600205CB117F8011BB0684B
:10122000A847B06030B1F06A401CF0620020641E34
:10123000F3D1F2BD4FF0FF30F2BD00006E616E00E1
:101240004E414E00696E6600494E4600300030B493
:10125000002513E050F8042BD30744BFA9F1010384
:101260009A18091F042942F8045BFAD213468C0726
:1012700044BF15809B1CC90748BF1D7050F8041B54
:101280000029E7D130BC70471C48704770B45368E0
:10129000D41801E05B1C491E042B08DA00291FBF8B
:1012A000057804F8015B10F8016B002EF2D1536051
:1012B00070BC704738B514461D4661B1FFF7E6FFB4
:1012C00061686A6B204690476FF00102811A02D074
:1012D000491E01D001E003E005E00021616032BD5C
:1012E0006FF0010032BD4FF0FF3032BDDA6B1047B6
:1012F000024BDFE7014BF9E701487047000000208F
:1013000048000020C9B202788A421AB11CBF10F806
:10131000012FF9E718BF0020704730B40EE00268D3
:10132000436802440830DC0744BFA9F10104E31814
:1013300052F8045B43F8045B091FF9D150F8041B11
:101340000029ECD130BC704780B500B906A0054932
:101350000B681BB122220021984701E000F0A6FD96
:10136000222002BD102F0020636F6E7374726169BA
:101370006E742068616E646C65723A2062616420EC
:101380006D6573736167650000F10103810704D027
:1013900010F8011B820781B1FAD10268A2F1013174
:1013A000914311F0803104BF50F8042FF6E709BAD9
:1013B000B1FA81F100EBD100401CC01A7047B1F5C1
:1013C000807F02D34FF0FF307047017001207047DB
:1013D0000078401E8041C043C00F7047C9B28307E8
:1013E00006D0521E22D310F8013B9942F7D11FE0DC
:1013F000083A13D302F1040241EA012141EA014112
:1014000050F8043B121F21BF4B40A3F1013C2CEAD2
:10141000030C1CF0803FF3D0C9B2001F083210F853
:10142000013B521E28BF91EA030FF8D818BF0120D4
:10143000401E704762B38B0708D0521E11F8013B63
:1014400000F8013B00F024808B07F6D1830740F0C1
:10145000208000BF103A07D330B4B1E83810103AFA
:10146000A0E83810F9D230BC530724BFB1E8081007
:10147000A0E8081044BF51F8043B40F8043BD207F1
:1014800024BF31F8022B20F8022B44BF0B780370E5
:101490007047121F17D35B0009D151F8043B20F8A5
:1014A000023B1B0C121F20F8023BF6D20BE051F856
:1014B000043B00F8013B1B0A20F8023B1B0C121FE7
:1014C00000F8013BF3D238BF121D521E24BF11F8A1
:1014D000013B00F8013BF8D870478268521C8260DB
:1014E000426832B10268531C036011704168491EA2
:1014F0004160704710B5144600F002F8226010BD3C
:10150000C1F30A5343B14A0012F5001F28D2A3F2D7
:10151000FE32A1EB0251704750EA410C20D001F09D
:10152000004C31EA0C01B1FA81F204BFB0FA80F349
:10153000D2180B3AB2F120032CBF00FA03F191400C
:1015400041EA0C013EBFC2F1200C20FA0CF3194312
:101550009040524240F2FD33D21A01EB03517047E2
:10156000002270474FF4001C1CEB410F94BF1CEB92
:10157000430F09E041EA030C50EA4C0C52EA0C0C10
:1015800003D2994208BF9042704714BF8B428242F7
:1015900070472E004FF4001C1CEB410F94BF1CEB56
:1015A000430F09E041EA030C50EA4C0C52EA0C0CE0
:1015B00003D28B4208BF8242704714BF99429042C7
:1015C00070474300124254D440F2FF7C1CEA11538E
:1015D0000FD0634531D09B1863453CBF01EB0251EE
:1015E000704701F0004141EA0C510020AFF3008048
:1015F000704750EA410320D001F0004C91EA0C0101
:101600001CD0B1FA81F30B3B9A420DD9D21A994002
:1016100051EA0C01C3F1200C20FA0CFC6144984003
:10162000531C40F2FF7CD7E7914041EA0C01C2F124
:10163000200C20FA0CF3194390407047B0FA80F365
:101640001533202BE0D3202AEED3203A203B9A42B8
:1016500009D9D21A00FA03F141EA0C010020531C07
:1016600040F2FF7CB8E700FA02F141EA0C010020E9
:101670007047524240F2FF7C1CEA11530DD0634583
:10168000DBD0B2EB030C3CBFA1EB025170470CF175
:10169000010221EA035141F4801150EA410CCCD0FF
:1016A00001F0004C352A27DC30B481EA0C01B2F19C
:1016B000200309DAC2F12003044601FA03F5D04001
:1016C0002843D1409C400CE0C3F12002450020FAA1
:1016D00003F418BF44F0010421FA03F091400C43D5
:1016E000002174F1004550F1000051EB0C0124423F
:1016F00030BC7FF47BAF70476146002076E7000086
:10170000C1F30A5340F2FE329B1A14DDD3F12003D9
:101710004FEAE17208DDC90241EA505141F0004050
:10172000D84080185040704703F2E13010B1D243E6
:1017300082F000407047002070470000C11768B178
:101740004840401AB0FA80F29040D21CC907C2F556
:10175000846241EA025202EBD0214005704700004A
:1017600070B44FF0004591EA030F40F1A3836B4042
:10177000841A71EB030603D2001BB14112197341A5
:101780004FF4001C1CEB410F34BF7CEB430442E0E0
:101790000C0DA4EB1356352E4FDC45EAC323DB0AB0
:1017A00045EAC121C912B6F120050DDD63FA05F63F
:1017B000EB4086EA0305124218BF45F00105C01848
:1017C00051F100010CD213E062FA06F5F2405540E7
:1017D000F3415A40B340F3405A408018594107D36F
:1017E00049085FEA30005FEA350528BF45F001058A
:1017F00001F58011420875F1004250F1000041EB03
:1018000004514E0016F5001F70BC38BF7047002011
:10181000090D090570471CEB410F10D252EA43062F
:101820000BD0BCEB410F05D80C0DAB43661E342E1C
:10183000B6DD02E0AB438018594170BC704770BC04
:1018400070470000F0B540F2FF7581EA030C0CF020
:10185000004C15EA11541DBF15EA1357AC42AF42B4
:10186000E5E0BC41C1F31301C3F31303801A9941AE
:1018700043F4801304D2641E40004941801859414A
:10188000C90241EA5051B1FBF3F603FB1611A2FB6A
:101890000675D7EBC020A94102D2761E80185941A7
:1018A000C90241EA5051B1FBF3FE03FB1E11A2FB3A
:1018B0000E75D7EBC020A94103D2AEF1010E8018FE
:1018C0005941890241EA9051760546EA8E2EB1FBD4
:1018D000F3F603FB1611A2FB0675D7EB8020A94196
:1018E00002D2761E80185941C90241EA50514EEA8F
:1018F000060EB1FBF3F603FB1611A2FB0675D7EB40
:10190000C020A94102D2761E80185941C90241EA7D
:101910005051B1FBF3F703FB1711A2FB0735D3EBD3
:10192000C020A94167F100070CBF004247F0010742
:1019300066F3D5274FEA1E31B80814F5806412DD2E
:10194000BD0775F1004250EB0E5051EB045111F5FB
:10195000801F5CBF41EA0C01F0BD4CF07F6141F09B
:10196000E0410020F0BDBD076D0840EA0E5041F493
:101970008011D4F10104B4F120060ADAC4F1200682
:101980000200E04001FA06F3E1401843B24015437B
:101990000EE0342C13DCC6F1200445EA40056D0846
:1019A00020FA06F2154321FA06F0A1400D4300216A
:1019B00075F1004250F1000051EB0C01F0BD002028
:1019C0005FEA0C01F0BDCFB992185B41B3FA83F71F
:1019D00004BFB2FA82F6BF190B3FB7F120062FBF42
:1019E00002FA06F3BB40C7F1200622FA06F638BF1A
:1019F0003343BA401CB1E419641E33E77F4231F02F
:101A00000041B1FA81F404BFB0FA80F6A4190B3C8E
:101A1000B4F120062FBF00FA06F1A140C4F1200660
:101A200020FA06F638BF3143A0403C1B1AE7AC420F
:101A30001ABF05EA1357AF4212E050EA41061CBF35
:101A400052EA4306BFE750EA4107304661461CBFF1
:101A500041EA0551F0BD52EA430C08BFC143F0BD55
:101A600000204FF4001616EB410F98BF16EB430F02
:101A700008BF16EB410F24BFC14305E016EB430F2F
:101A80000CBF61464CEA0551F0BD0000400D4918FD
:101A900040EA81200CD2490DA1F58061491C40F03B
:101AA000004005DBD1F11F0154BFC840C01770478B
:101AB00000207047014648B1B0FA80F18840C91C47
:101AC000C1F58461090501EBD02140057047000094
:101AD000B0B581EA030C0CF0004C40F2FF7515EA3A
:101AE00011541DBF15EA1357AC42AF4239E0E41957
:101AF00023EA455343F48013C90241F0004141EA0F
:101B0000505EC7021100A7FB020200284FF0000040
:101B1000EEFB01204FF00001E3FB072118BF42F06C
:101B20000102401800214941E3FB0E01A4F5806445
:101B30000F0302D252004041494154F101046CDDCF
:101B4000470872F1004250F1000051EB0451A1F539
:101B500080115CBF41EA0C01B0BD4CEA0551002088
:101B6000B0BD05EA1357AC4214BFAF4241E050EAA2
:101B7000410E1CBF52EA430E02E061460020B0BD98
:101B800024423C441BD15FEA070EF6D0090302BF92
:101B900001460020AEF1140EB1FA81F7AEEB070456
:101BA00001FA07FE0C37C7F1200100FA07F7C84019
:101BB0004EEA000E23EA455343F48013A2E733F0C4
:101BC0000043B3FA83F704BFB2FA82FE77440B3FB7
:101BD000E41BB7F1200E2FBF02FA0EF3BB40C7F192
:101BE000200E22FA0EFE38BF43EA0E03BA40641CF0
:101BF00082E750EA410E14BF52EA430E6FF0000133
:101C00004FF4001717EB430F8ABF194617EB410F2C
:101C1000B5E74CEA05510020B0BDD4F10104B4F1A0
:101C200020070FDAC4F12007520828BF42F0010252
:101C300010FA07F501FA07F7E1BF2A43E0403843FD
:101C4000E1400FE0352C98DCC7F1200452EA400255
:101C500020FA07F218BF42F0010231FA07F0A14062
:101C60000A43002172F1004250F1000051EB0C01D7
:101C7000B0BD80B5FFF708FB006C02BDBBBBE1B196
:101C8000B2F5803F80F07E80022A1ED98C46B1FBDF
:101C9000F2F102FB11C31B0443EA1043B3FBF2FC55
:101CA00002FB1C3380B240EA0343B3FBF2F002FBB9
:101CB000103240EA0C4000237047022A05D98446BE
:101CC000B0FBF2F002FB10C270474AB105D100F040
:101CD000010249085FEA3000704700220023704784
:101CE00000F09EB90B0002000021002070479042D6
:101CF00071EB030CF6D3B3F5803F2FD2F0B5B3FAF6
:101D000083F7B1FA81F4A7F10F0E3D1B5340CEF1DA
:101D1000200602FA0EF2F3415340B5F10F0746D800
:101D20000F3C2C444140C4F12006A040F141414009
:101D3000B1FBF3F603FB1611A2FB0645001BA941FC
:101D400002D2761E8018594180EA010221FA0EF370
:101D500062FA0EF200215A403046F0BD30B4B1FBB9
:101D6000F3FC03FB1C11A2FB0C45001BA94103D291
:101D7000ACF1010C8018594130BC02460B4660465C
:101D800000217047B2F1807F65D3F0B5B2FA82F7D7
:101D9000B1FA81F4C7F10F063D1B22FA06F307F1F1
:101DA000110EF24120355A40B5F10F07B8D9414024
:101DB000C4F12006A040F1414140B1FBF3FC03FB1C
:101DC0001C11A2FB0C45001BA94103D2BCF1010C64
:101DD000801859410F2F12D30F3FC90341EA5041D8
:101DE000B1FBF3F603FB1611A2FB0645D4EBC030A2
:101DF000A94102D2761E8018594146EACC3C07B36D
:101E00004140C7F12006B840F1414140B1FBF3F633
:101E100003FB1611A2FB0645001BA94102D2761E48
:101E20008018594180EA010221FA0EF3C7F120041B
:101E300062FA0EF20CFA07F05A402CFA04F1304321
:101E4000F0BD80EA010221FA0EF3002162FA0EF2DF
:101E500060465A40F0BD8C46B1FBF2F102FB11C363
:101E60001B0243EA1063B3FBF2FC02FB1C331B02B0
:101E70004CEA002043EA1063B3FBF2FC02FB1C3384
:101E80001B024CEA002043EA1063B3FBF2FC02FBA6
:101E90001C331B024CEA002043EA1063B3FBF2FC44
:101EA00002FB1C324CEA002000237047012000F0A6
:101EB000B9B80000841A71EB030604D26E40001B0F
:101EC000B141121973414FF4001C1CEB410F34BF98
:101ED0007CEB430683E00C0DA4EB1356362E00F387
:101EE0007C80012E45EAC32341DC43EA525312BFF2
:101EF000D20292025B08240545EAC12141EA505111
:101F0000D2EBC020994125D407D1B0FA80F610FA5F
:101F100006F162D00020203608E0B1FA81F6B14027
:101F2000C6F1200220FA02F21143B0404FEAF474E5
:101F3000B4EB465434F001064FEA74040AD8D6F5DF
:101F40000016760D04F00044F04061FA06F25040AD
:101F5000F1404840C00A40EA415021F0004128BF0A
:101F60005FEA500550F1000044EBD12135E0DB0A77
:101F700045EAC121C90AB6F120050EDD42EA024256
:101F8000120CC5F1200603FA06F6EB4042EA0605FC
:101F90006D42984161F100010DE062FA06F5F240F0
:101FA000554063FA06FC82EA0C02F3405A406D4247
:101FB000904161EB030111F4801F05D1641E62059D
:101FC00002D06D004041494121F48011430875F170
:101FD000004350F1000041EB045170BC70471CEB12
:101FE000410F15D223F0004352EA43060BD04FEACB
:101FF0004C0CBCEB410F04D80C0D661E342EB7DD23
:10200000EBE7801A994150EA410608BF0021E4E756
:1020100008BF1CEB430F28BF6FF00001DDE7000095
:102020007047000080B5AFF30080024A110018200D
:10203000ABBEFBE726000200DFF830050068C0F306
:1020400002207047010008D4012200F01F018A40DD
:10205000DFF81C15400941F82020704709010200F3
:1020600003D4DFF8100581547047DFF80C0502F047
:102070000F02104400F8041C704710B400F0070071
:10208000C0F10703052B00D30423041D072C01D244
:10209000002000E0C01E012404FA03F35B1E194077
:1020A000814004FA00F0401E1040084310BC704705
:1020B00081B0DFF8C8140A6802430A600968084062
:1020C0000090009801B07047DFF8B0140A6822EA67
:1020D00000000860704781B0DFF8A4140A6802436A
:1020E0000A60096808400090009801B07047DFF866
:1020F00090140A6822EA00000860704730B404684F
:10210000032591FAA1F3B3FA83F35B009D40AC433E
:1021100091FAA1F1B1FA81F149008A4022430260AB
:1021200030BC704781617047090481617047C168A4
:1021300041F40051C1607047016921F4904101618F
:10214000416921F02A0141617047006800F00100F7
:1021500070470068400800F0010070470068800880
:1021600000F0010070470068C00800F001007047EF
:102170000068000900F0010070470068400900F0A5
:10218000010070470068800900F001007047006896
:10219000C00900F0010070470068000A00F001006B
:1021A00070470068400A00F00100704781B0016884
:1021B0000091009940680090009801B0704781B08C
:1021C00001680091009940680090009801B0704744
:1021D00081B001680091009940680090009801B0BA
:1021E000704781B0016800910099406800900098A4
:1021F00001B0704781B0016800910099406800907B
:10220000009801B070476FF04001016070476FF0B7
:102210002001016070476FF48071016070476FF4B6
:10222000007101607047C16841F02001C1607047D2
:10223000C16841F04001C1607047C16821F04001B0
:10224000C1607047C16821F08001C1607047C068FB
:10225000000900F001007047C068400900F001006B
:102260007047C068800900F001007047C068C0096D
:1022700000F001007047C068000A00F001007047DC
:102280000069800900F001007047406900F001001A
:1022900070474069800A00F0010070474068C0B292
:1022A0007047416070470021017141718171C171B6
:1022B000017241728172C172017301614161816178
:1022C000C161016200F1480100220A704A70CA70BF
:1022D0000A71CA800A818A814A81CA818A700A7415
:1022E0004A618A61CA610A62243002704270C27017
:1022F0000271C280028182814281C2810122827088
:102300000022027442618261C26102621046486228
:1023100070472DE9F84F04460F46904699460A9DAE
:10232000DDF82CA00C9EDDF834B0FFF7BCFF04F103
:10233000440080F805904782C0F8248084F8256026
:102340006586C0F800A0C0F828B0002C09D0DFF8DE
:1023500048040068844204D1204600F093FA00202B
:1023600000E00220BDE8F28F80B54369002B0DD05C
:102370000069012905D1022201461846FFF7BEFE79
:1023800004E0002201461846FFF7B8FE002002BD17
:1023900080B5C269002A09D080690129014610462A
:1023A00002D1FFF7C1FE01E0FFF7BCFE002002BD35
:1023B00038B504460D460020E16E002900D088475C
:1023C000002D03D0E065E06D206602E0A063A06B05
:1023D000E063002032BD38B50446DFF8B425117043
:1023E00004F14A056878002803D002282DD015D3BF
:1023F00048E0E888002845D108466179814241D10A
:10240000A16E087001206870288101462046FFF700
:10241000CFFF0121204600F01DF933E008460028D7
:102420000CD0AA89D2B2914208D2A16E4870A8807D
:102430002889401C28810220687001E00020687013
:1024400001212046FFF7B4FF1CE0A06EE988084494
:1024500011788170E888401CE8802889401C288118
:10246000E888A989884201D30020E880012120461C
:10247000FFF79EFFE888A988884203D3032068708D
:1024800001202870002032BD0000000038B504464D
:10249000DFF80025117004F14A056878032862D836
:1024A000DFE800F002172844E88800285BD10846DE
:1024B0006179814257D1A16E08700120687028812E
:1024C00001462046FFF774FF0121204600F0C2F8C4
:1024D00049E00846A16E4870A880A8880002A8803C
:1024E000022068702889401C288101212046FFF7BE
:1024F0005FFF38E00846A16E8870A9880818A88098
:102500002889401C2881A888002808D0A888A98983
:10251000884204D2A88828810320687001E0002046
:10252000687001212046FFF743FF1CE0A06EE98898
:1025300008441178C170E888401CE8802889401C54
:102540002881E888A989884201D30020E8800121F8
:102550002046FFF72DFFE888A988884203D304208E
:10256000687001202870002032BD00000CED00E0F2
:1025700000E100E000E400E018ED00E04038024037
:1025800044380240B0F85620FF2A00DA23E77DE7FE
:1025900010B50446206A618D002926D0A18D628D78
:1025A00091421FD0616CA28D895CFFF77AFEA08DED
:1025B000401CA085A08D618E884201D30020A0859B
:1025C000A08D618D884215D3E08D002812D0A08D9A
:1025D000E18D88420ED3206AFFF734FE206AFFF7B0
:1025E00027FE07E0FFF72EFE04E0FFF72BFE204654
:1025F00000F03BF800212046FFF7DAFE002010BD76
:1026000010B50446E06900280BD094F82710002983
:1026100007D10D21206AFFF744FE012084F827002E
:1026200016E000280BD094F82700012807D10A21D2
:10263000206AFFF736FE022084F8270008E0002019
:1026400084F82700206AFFF7F8FD204600F00DF817
:10265000002010BD002903D0002180F8581002E0AE
:10266000002180F834100846704710B5044604F184
:1026700026000121017000218180C180018104F1C7
:10268000380100220A604A60114681734170204679
:10269000FFF77EFE00212046FFF766FE002010BDFA
:1026A00038B5044604F120052868FFF7DFFD00284F
:1026B00002D106E000F024FA2868FFF768FD002840
:1026C000F8D12868FFF7CDFD002802D10CE000F01A
:1026D00017FA2868FFF756FD002802D0E87900288D
:1026E000F5D02868FFF78FFD01212046FFF750FE47
:1026F00001212046BDE83440FFF736BE10B5044640
:102700000021FFF745FE00212046BDE81040FFF7FD
:102710002BBE0CB470B504460D46FFF7C1FF04ABE9
:10272000DFF8A4632A464FF40071304600F0EAF95E
:10273000014689B240F20122914201DB4FF4007060
:10274000208001206080032084F82600206AFFF7A3
:102750006FFD3178206AFFF7A4FD70BC5DF80CFBBB
:1027600010B50446206A61882288914208D3FFF799
:1027700064FD2046FFF7C2FF012084F8260007E031
:10278000DFF84423515CFFF78CFD6088401C6080BB
:10279000002010BD00000000B000002080B500F156
:1027A00020029179002902D1FFF72AFF0AE09179EE
:1027B000032902D1FFF7D4FF04E0012090711068D3
:1027C000FFF73BFD002002BD80B5C04A904209D111
:1027D000002903D01020FFF77EFC43E01020FFF714
:1027E00086FC3FE0BA4A904209D100294FF40030FC
:1027F00002D0FFF75DFC35E0FFF766FC32E0B54A3A
:10280000904209D100294FF4802002D0FFF750FCFC
:1028100028E0FFF759FC25E0AF4A904209D1002992
:1028200003D02020FFF757FC1CE02020FFF75FFCBF
:1028300018E0AA4A904209D100294FF4002002D0A2
:10284000FFF736FC0EE0FFF73FFC0BE0A44A904296
:102850000AD100294FF4801002D0FFF729FC01E0D3
:10286000FFF732FC002002BD012002BD30B4029D02
:10287000039CC171027243728572C472002030BC25
:102880007047000078B58FB00446964D0121284668
:1028900000F056F90022182102A800F055F9022094
:1028A00003900320049000200590012006904FF42F
:1028B000C06002900720079002A9284600F0CDF9D9
:1028C000824E304600F06AFA01213046FFF77CFF65
:1028D00000221C2108A800F037F94FF4E1300890DD
:1028E000002009900A900B900C200C9000200D9075
:1028F0000E9008A9304600F09AFA3046FFF71CFC0B
:10290000FFF79AFB00220221FFF7B7FB01462520C3
:10291000FFF7A4FB2520FFF795FB3046FFF783FC6C
:102920003046FFF704FC65614FF4007020612662B9
:102930000220207104F14001C86A002803D06420FD
:102940004862086002E0002048620860002084F8C5
:102950002500552060715A20A071042001900320A9
:10296000009002231A4600212046FFF77FFF002136
:102970002046FFF70DFD00212046FFF7F5FC00BFC4
:1029800059A12046FFF7C5FE002010B070BD000021
:10299000142F0020152F002010B50446206AFFF7E1
:1029A000ECFB00280ED0206AFFF756FC002809D067
:1029B000206AFFF773FC01462046FFF7E3FD206A1B
:1029C000FFF725FC206AFFF7E2FB002807D0206A0A
:1029D000FFF74CFC002802D02046FFF7D9FD206A03
:1029E000FFF7D0FB00280AD0206AFFF73AFC002846
:1029F00005D02046FFF7D2FE206AFFF704FC206ACC
:102A0000364988420ED0364988420BD0FFF7C9FBC1
:102A1000002807D0206AFFF73CFC002802D0206A7B
:102A2000FFF7FDFB206AFFF7B7FB002807D0206AFD
:102A3000FFF726FC002802D0206AFFF7ECFB206A93
:102A4000FFF796FB002807D0206AFFF700FC00285C
:102A500002D0206AFFF7CEFB206AFFF784FB002834
:102A600007D0206AFFF711FC002802D0206AFFF788
:102A7000B8FB206AFFF772FB002807D0206AFFF737
:102A800004FC002802D0206AFFF7A2FB206AFFF7AF
:102A900060FB002807D0206AFFF7F7FB002802D070
:102AA000206AFFF78CFB206AFFF74FFB002809D054
:102AB000206AFFF7E0FB002804D0206ABDE8104040
:102AC000FFF774BB10BD0000382B00200010014040
:102AD000004400400048004000140140004C004009
:102AE00000500040000002403D3E3EB4AEBFDA312F
:102AF000B5C4B3F5CABCBBAF3C3C3D0D0A000000F9
:102B000000F0F2B908B584B00023039300290EBF8A
:102B100001930190491E0291009301A904AB07485B
:102B200078441830FDF730FB019909B100220A7092
:102B3000002858BF039805B000BD00BF9FE9FFFF04
:102B400000F0D4B900F0D4B962F30F2262F31F424F
:102B500000B500BF130096469446103928BFA0E880
:102B60000C50FAD85FEA417C28BF0CC048BF40F83F
:102B7000042BC90728BF20F8022B48BF00F8012BFF
:102B800000BD000030B40468032591FAA1F3B3FA44
:102B900083F35B009D40AC4391FAA1F1B1FA81F15E
:102BA00049008A402243026030BC704743688B432F
:102BB000514319434160704730B48468032591FA4A
:102BC000A1F3B3FA83F35B009D40AC4391FAA1F10A
:102BD000B1FA81F149008A402243826030BC7047DB
:102BE00030B4C468032591FAA1F3B3FA83F35B0010
:102BF0009D40AC4391FAA1F1B1FA81F149008A40BC
:102C00002243C26030BC704730B4046A0F2591FA89
:102C1000A1F3B3FA83F39B009D40AC4391FAA1F179
:102C2000B1FA81F189008A402243026230BC7047C8
:102C300030B4446A090A0F2591FAA1F3B3FA83F379
:102C40009B009D40AC4391FAA1F1B1FA81F189005A
:102C50008A402243426230BC7047F8B505460E46B2
:102C6000306890FAA0F0B0FA80F729E0FFF7E0FFB3
:102C700025E00120B840044021D072682146284652
:102C8000FFF780FF7068012801D0022804D1B268E4
:102C900021462846FFF790FF326921462846FFF774
:102CA0009FFF706802280AD194FAA4F0B0FA80F06D
:102CB0000828726921462846D8D2FFF7A5FF7F1C55
:102CC00034682046F840D4D17068012801D0022829
:102CD00004D1F26821462846FFF768FF0020F2BDC4
:102CE000C068400B00F001007047026922F44052B6
:102CF000114301617047426922F4407211434161FE
:102D0000704710B4192461436424B2F5004F17D101
:102D10005B00B1FBF3F12246B1FBF2F204FB1214AB
:102D2000E40032346421B4FBF1F14B0003F4F87396
:102D300003EB021301F00701C91889B2816015E0A5
:102D40009B00B1FBF3F12246B1FBF2F204FB12143B
:102D5000240132346421B4FBF1F101F0F00303EB00
:102D6000021301F00F01C91889B2816010BC7047CD
:102D700054490A6810430860704752490A6822EAB9
:102D800000000860704750490A68104308607047A7
:102D90004D490A6822EA00000860704710B5002417
:102DA0004A49884206D11020FFF7EDFF1020FFF7B7
:102DB000EFFF3AE04649884208D14FF40030FFF770
:102DC000D7FF4FF40030FFF7D8FF2EE0414988428B
:102DD00008D14FF48020FFF7CBFF4FF48020FFF79E
:102DE000CCFF22E03C49884206D12020FFF7CBFFF0
:102DF0002020FFF7CDFF18E03849884208D14FF472
:102E00000020FFF7B5FF4FF40020FFF7B6FF0CE0FE
:102E10003349884208D14FF48010FFF7A9FF4FF4DF
:102E20008010FFF7AAFF00E00124204610BDF8B58E
:102E300084B005460F4601260024FFF751FF002805
:102E40003CD1E9682748014078680143F8680143AC
:102E500038690143B8690143E960B9682846FFF75A
:102E600044FF79692846FFF746FF684600F06AF894
:102E7000164885420CD01648854201D1029C12E0CA
:102E80001448854201D1029C0DE01348854201D1CE
:102E9000039C08E01148854201D1029C03E01048E0
:102EA000854200D1029C002C08D03B68002B05D045
:102EB0000026BA6921462846FFF723FF304605B0B1
:102EC000F0BD0000203802402438024000100140CC
:102ED000004400400048004000140140004C004005
:102EE00000500040F369FFFF00F09AB800F0BCB852
:102EF00000F00CB94248006800F00C0070474048F0
:102F0000006800F0F00070473D48006800F4E050B1
:102F100070473B48006800F46040704739480068DB
:102F200000F48000704737480068C0F3881070478D
:102F30003448006800F4403070473248006800F0C0
:102F40003F00704710B5044600F00CF8206000F018
:102F500019F8606000F021F8A060606800F027F8C0
:102F6000E06010BD80B5FFF7C5FF042802D0082837
:102F700002D005E0244802BD0820BDE8024020E060
:102F8000224802BD10B50446FFF7B9FF2049C0F33F
:102F90000310085CC440204610BD10B50446FFF77E
:102FA000B3FF1C49800A085CC440204610BD10B520
:102FB0000446FFF7AEFF1749400B085CC4402046AB
:102FC00010BD70B504460025FFF7A8FFB0F5800FCF
:102FD00001D10D4E00E00D4E082C0ED1FFF7ADFFD4
:102FE000B6FBF0F4FFF79FFF0546FFF7A1FF000CCB
:102FF000401C40006C43B4FBF0F5284670BD000057
:10300000083802400438024000127A000024F4001C
:10301000384E00086C4F00084AF6AA21016070473C
:1030200080B50248FFF7F8FF002002BD00300040E5
:1030300081B04B490A6802430A6009680840009061
:10304000009801B0704746490A6822EA000008600B
:10305000704781B043490A6802430A600968084022
:103060000090009801B070473F4A904205D1002976
:1030700001D00120DCE70120E5E73C4A904205D180
:10308000002901D00220D3E70220DCE7384A904231
:1030900005D1002901D00420CAE70420D3E7354A2E
:1030A000904205D1002901D00820C1E70820CAE7D5
:1030B000314A904205D1002901D01020B8E71020F4
:1030C000C1E72E4A904205D1002901D02020AFE768
:1030D0002020B8E72A4A904205D1002901D040209B
:1030E000A6E74020AFE7274A904205D1002901D04A
:1030F00080209DE78020A6E7234A904205D1002941
:103100004FF4807000D093E79DE7704780B50121B0
:103110001548FFF7A9FF01211448FFF7A5FF01217A
:103120001348FFF7A1FF01211248FFF79DFF01217E
:103130001148FFF799FF01211048FFF795FF012182
:103140000F48FFF791FF01210E48FFF78DFF012186
:103150000D48FFF789FF4FF48040BDE8024078E753
:10316000303802404438024000000240000402406F
:1031700000080240000C024000100240001402400F
:1031800000180240001C02400020024030B40468D5
:10319000032591FAA1F3B3FA83F35B009D40AC439E
:1031A00091FAA1F1B1FA81F149008A40224302600B
:1031B00030BC70478161704709048161704718B560
:1031C00091B00446012104F1280000F0A5FA04F1B1
:1031D000280000F09DFA0022282107A8FFF7B4FC80
:1031E000002007904FF4827008900020099094F816
:1031F0004E00002806D100200A90E16BA06BFFF77B
:10320000DBFF01E002200A9094F84E00401E80414E
:10321000C043C00F0B904FF400700C9038200D90FD
:1032200000200E900F900720109007A983B06846E9
:103230002822FEF70FF90EBC04F1280000F056FA20
:1032400001206070002012B010BD10B504460121AD
:1032500004F1280000F060FA04F1280000F05AFAA6
:10326000A06BE16B94F84E20002A02D1FFF7A4FF77
:1032700001E0FFF79FFFE16AA06AFFF79DFF616B26
:10328000206BFFF799FF01206070002010BD10B582
:1032900004460020207060700F20A0700020207174
:1032A0006071A0712081A0810246042104F10E000A
:1032B00000F03CFA0022042104F1120000F036FA7A
:1032C000DFF80C04E0614FF480402062DFF8041462
:1032D00021644FF480526264A1634FF40052E263B0
:1032E00021636063A1624FF40040E06204F1680072
:1032F00005210160DFF8E013A1640021416004F1C1
:103300004E0001704170084610BDF8B586B0044605
:103310000E4617461D46002C0BD0DFF8C003006890
:10332000844206D12046FFF7B2FF380003D067621F
:1033300004E001202CE0DFF8A8036062300001D037
:10334000266702E0DFF89C0320676567E0690028D4
:103350001AD00121FFF7F4FB002218216846FFF77D
:10336000F3FB0120019002900020039001200490C3
:1033700000200590206A00906946E069FFF76DFC27
:10338000216AE069FFF716FF606F8047A0610020A7
:1033900007B0F0BD10B50446491E112900F27C802B
:1033A000DFE801F009111920272E353C434A7A50F5
:1033B000565C62686E74002084F84D004FF47A7099
:1033C000A4F862006DE0002084F84D004FF4FA701C
:1033D000A4F8620065E0002084F84D00FA20A4F80B
:1033E00062005EE0002084F84D007C20A4F86200BA
:1033F00057E0002084F84D003C20A4F8620050E023
:10340000002084F84D001C20A4F8620049E0002050
:1034100084F84D000C20A4F8620042E0002084F8FB
:103420004D000420A4F862003BE0002084F84D0029
:103430000320A4F8620034E0002084F84D00A4F8D2
:1034400062002EE0012084F84D003020606628E004
:10345000012084F84D002820606622E0012084F8D5
:103460004D00202060661CE0012084F84D001820EB
:10347000606616E0012084F84D001020606610E0C0
:10348000012084F84D00082060660AE0012084F8DD
:103490004D000020606604E0012084F84D003820D3
:1034A0006066607894F84D1001291BD1002806D081
:1034B000DFF8340200680FF26901884202D1204629
:1034C000FFF77DFEA0780F2801DB20206066616E8B
:1034D00004F1280000F026F90FF28D00DFF8081241
:1034E000086016E0002806D0DFF8FC0100680FF243
:1034F0007901884202D12046FFF7A7FEB4F8621096
:1035000004F1280000F00CF90FF21500DFF8D811D3
:103510000860216AE069FFF74FFE002010BD00003F
:103520002DE9F04105460E4617469846069C0022B6
:10353000042105F10E0000F0F9F80022042105F144
:10354000120000F0F3F8AE73EF7385F810806C741E
:10355000042305F1120205F10E0105F12800BDE872
:10356000F04100F0E1B800002DE9F04105460E46BB
:1035700017469846069C0022042105F10E0000F033
:10358000D5F80022042105F1120000F0CFF8AE7347
:10359000EF7385F810806C74042305F1120205F1B5
:1035A0000E0105F12800BDE8F04100F0B7B810B5F4
:1035B00004460122616C206CFFF7E8FDE16BA06B13
:1035C000FFF7FAFD616C206CFFF7F6FDE16BA06B75
:1035D000FFF7F2FD616C206CFFF7EEFD0120616AE0
:1035E0008847616C206CFFF7E5FD0120616A884720
:1035F000616C206CFFF7E0FD0120616A8847FF20C5
:103600006071002010BDF8B504460D461226A17861
:10361000FFF7C0FE2046FFF7CAFF15E0761E01E067
:103620000320A070A1782046FFF7B4FE616C206CE7
:10363000FFF7C0FD0120616A8847616C206CFFF7CD
:10364000BBFD0120616A88473046461EC0B2002893
:1036500019D00020009003465322AC212046DFF809
:1036600088703F68B847207D532802D10120207020
:10367000A571E0780028D1D1A07801460329CFDDDB
:10368000401EA070CEE7216AE069FFF793FD01209C
:10369000F2BDF8B505460E460020074602E0697DFA
:1036A00031557F1C3C46E4B2032C0FDA0020009019
:1036B0003B46DBB2024630212846DFF82CC0DCF85E
:1036C00000C0E0470100EAD03846801CC0B2F2BD1D
:1036D000000C02400004024000380040A00000201E
:1036E0004B44000847440008042F00200EB410B5D6
:1036F00087B0044609A983B068462822FDF7AAFED0
:103700000EBC204600F045F807B010BC5DF810FB79
:1037100000F051B800F051B800F051B800F051B8C5
:1037200000F051B800F051B800F051B862F30F2228
:1037300062F31F42401810F0030308D0C91A1FD3C8
:10374000DB0748BF00F8012D28BF20F8022D130029
:1037500030B414461546103928BF20E93C00FAD889
:10376000490728BF20E90C0048BF40F8042D890014
:1037700028BF20F8022D48BF00F8012D30BC70474B
:10378000C91818BF00F8012DCB0728BF00F8012D7C
:1037900070470EB410B587B0044609A983B06846D7
:1037A0002822FDF757FE0EBC204600F065F807B052
:1037B00010BC5DF810FB00F078B800F0C7B800F05E
:1037C00050B900F08CB900F051BA00F052BA00F0D4
:1037D0007EBA000081B0DFF834150A6802430A603F
:1037E000096808400090009801B07047DFF81C1588
:1037F0000A6822EA00000860704781B0DFF81015FF
:103800000A6802430A60096808400090009801B005
:103810007047DFF8FC140A6822EA0000086070476D
:1038200000690840884201D101207047002070479C
:1038300081617047090481617047016841F040016E
:1038400001607047426822F01002114341607047E6
:10385000026822F03802114301607047806800F06E
:10386000010070478068400800F001007047C068A0
:10387000C0B27047017370470EB418B50446206A91
:1038800000F06EFA0121204600F0FCF803A9206A3E
:1038900000F08EFA616C206AFFF7D4FF206AFFF710
:1038A000CCFF002012BC5DF810FB10B586B00446BA
:1038B0000121A069FFF744F901212069FFF740F9D0
:1038C00001212068FFF73CF90121A068FFF738F9D2
:1038D000002218216846FFF737F9E06900900120BF
:1038E0000190032002900020039004900590A069AD
:1038F000002806D06946FFF7B0F9E169A069FFF733
:1039000097FF206C05900220019060690090694645
:103910002069FFF7A2F961692069FFF789FF6068F4
:10392000009069462068FFF798F961682068FFF702
:103930007FFFE06800906946A068FFF78EF9E168B4
:10394000A068FFF775FF002006B010BD10B586B067
:1039500004460121A069FFF7F3F801212069FFF770
:10396000EFF801212068FFF7EBF80121A068FFF7CD
:10397000E7F8002218216846FFF7E6F8E0690090B2
:1039800001200190032002900020039004900590F4
:103990006946A069FFF761F960690090694620698E
:1039A000FFF75BF96068009069462068FFF755F9FA
:1039B000E0680090002001906946A068FFF74DF98B
:1039C000E169A069FFF734FF61692069FFF730FF03
:1039D00061682068FFF72CFFE168A068FFF728FF07
:1039E000002006B010BD38B586B004460D46002252
:1039F00018216846FFF7A8F8E069009000200190C0
:103A0000032002900020039004900590002D03D025
:103A10006946A069FFF721F960690090694620694D
:103A2000FFF71BF96068009069462068FFF715F9F9
:103A3000E06800906946A068FFF70FF9E169A069A6
:103A4000FFF7F6FE61692069FFF7F2FE6168206802
:103A5000FFF7EEFEE168A068FFF7EAFE002007B07E
:103A600030BD38B504460D46206A002805D000F068
:103A700077F90021204600F005F829462046BDE8E8
:103A80003440B0E780B5006ADFF88822904209D15F
:103A900000294FF4805002D0FFF7AFFE1DE0FFF782
:103AA000B8FE1AE0DFF87022904209D100294FF4E5
:103AB000804002D0FFF78EFE0FE0FFF797FE0CE08C
:103AC000DFF85822904208D100294FF4004002D07C
:103AD000FFF780FE01E0FFF789FE002002BD2DE91F
:103AE000FE4F0E4614469A464FF00009CB464F460D
:103AF000B84601218DF8001000F12005E86A002881
:103B000001D0804780460120287150460196064624
:103B10009DF800A0504601280CD12868FFF7A2FEAE
:103B2000002807D0019810F80B102868FFF7A2FEB4
:103B30004FF0000A5046002813D12868FFF78EFE88
:103B400000280ED02868FFF792FE002C01D004F860
:103B50000B004FF000094FF0010A0BF1010B1FFAA7
:103B60008BFBE86A002811D080470746474505D2FD
:103B70004FF0FF30A0EB0800381801E0A7EB080079
:103B800065280AD35846A0F1800906E07F1CDFF8BB
:103B90009001874201D30BF140094846C0B200288A
:103BA00002D130468345B5D1484601212971C0B2C2
:103BB000BDE8FE8F38B5054614466A6828680906D0
:103BC000114602D4FFF736FE01E0FFF731FE002C6C
:103BD00009D0E968A868FFF723FE002803D0207801
:103BE00040F001002070002032BDF8B504460E46BA
:103BF000174604F126052978002902D168780028A3
:103C000004D0012918D16878012815D1616920698B
:103C1000FFF710FEA88A002801D0A16C88473A4619
:103C200031462046FFF7C6FF61692069FFF700FEB5
:103C3000A88A002815D117E061692069FFF7F8FD0F
:103C4000A88A002801D0A16C88473A463146204610
:103C5000FFF7B0FF61692069FFF7ECFDA88A002833
:103C600002D0A88AA16C88470020F2BD41870020BD
:103C7000704780B5006AFFF7EBFD002002BDF8B584
:103C800005460E4614460027002C0FD038462070FB
:103C90000CE0002C02D020784000207022463146F3
:103CA000C9B22846FFF7A1FF76007F1C3846C0B294
:103CB0000828EEDB2869696995F82620002A02D1D8
:103CC000FFF7B8FD01E0FFF7B3FD0020F2BD2DE9DD
:103CD000FC4106460F4614469846002001468DF8E2
:103CE0000010054601E06D1CADB241468D420BDA75
:103CF0006A46795D3046FFF7C2FF002C02D09DF87E
:103D0000001061550100EED0BDE8F6814038024058
:103D1000443802400030014000380040003C004080
:103D2000A18601000068800900F00100704789B297
:103D30000161704738490A68104308607047364986
:103D40000A6822EA00000860704734490A68104394
:103D50000860704731490A6822EA0000086070472D
:103D600010B5044601202E498C4208D14FF48050F2
:103D7000FFF7EBFF4FF48050FFF7ECFF00202949DD
:103D80008C4208D14FF48040FFF7D4FF4FF48040BD
:103D9000FFF7D5FF002024498C4208D14FF40040A2
:103DA000FFF7C8FF4FF40040FFF7C9FF002010BD28
:103DB00070B504460D460126FFF7B4FF002825D153
:103DC00021681A4801402868014368680143A868CF
:103DD0000143E86801432869014368690143A86910
:103DE0000143E8690143286A01432160606820F0CB
:103DF0000400696940EA11406060286AB0F5005F1C
:103E000003D1696A2046FFF792FF0026E06920F49B
:103E10000060E061304670BD203802402438024026
:103E20000030014000380040003C00404000FFFFEF
:103E3000DFF8902313684FF6FF010B40000200F4F7
:103E4000E0601843DFF88013084310607047DFF824
:103E500074030068C0F3022070470901020003D414
:103E6000DFF8680381547047DFF8640302F00F0243
:103E7000104400F8041C704710B400F00700C0F1B3
:103E80000703052B00D30423041D072C01D20020B7
:103E900000E0C01E012404FA03F35B1E19408140B8
:103EA00004FA00F0401E1040084310BC704781B077
:103EB000C8490A6802430A600968084000900098EF
:103EC00001B07047C4490428086803D140F00400D9
:103ED0000860704720F004000860704781617047F7
:103EE000090481617047BD490A6822F48042104389
:103EF00008607047B948016841F4807101607047FB
:103F0000B748016841F4803101607047B4480068E7
:103F1000400C00F001007047B248016841F0010117
:103F200001607047AF480068400800F0010070472A
:103F3000AD490A68920850EA820008607047AA48B2
:103F4000006800F00C007047A7490A6822F0F002F0
:103F5000104308607047A4490A6822F4E0521043F5
:103F600008607047A0490A6822F460421043086064
:103F700070479B48016841F0807101607047984824
:103F80000068400E00F00100704770B4974D2E6835
:103F9000974C26403043084340EA82102860286846
:103FA00020F4403003432B6070BC704791490A688D
:103FB000120950EA0210086070478E48006800F04D
:103FC0000F0070478B48016841F4807101607047B1
:103FD0008848016841F400710160704785480168B4
:103FE00041F480610160704780B50520FFF7DEFF76
:103FF000FFF7E3FF052803D013217F4800F01EF9E7
:104000004FF08050FFF753FF4FF48040FFF76BFFF6
:10401000FFF776FFFFF77AFF0128FBD1FFF77CFF60
:10402000FFF780FF0128FBD1FFF764FF0023A822E0
:1040300004214FF48000FFF7A8FFFFF79AFFFFF776
:104040009EFF0128FBD10020FFF77EFF4FF4A05018
:10405000FFF781FF4FF40040FFF784FF0220FFF7D6
:1040600067FFFFF76CFF0828FBD10420FFF72AFF4A
:10407000624800F00BF9FFF7A5FFFFF7AFFFBDE8BF
:104080000140A5E780B50320FFF7D2FEFFF7DFFE72
:1040900000221146FFF7F0FE01466FF00B00FFF71C
:1040A000DCFEFFF7D4FE00221146FFF7E5FE0146D5
:1040B0006FF00A00FFF7D1FEFFF7C9FE002211469C
:1040C000FFF7DAFE01466FF00900FFF7C6FEFFF7C3
:1040D000BEFE00221146FFF7CFFE01466FF004003E
:1040E000FFF7BBFEFFF7B3FE00221146FFF7C4FE49
:1040F00001466FF00300FFF7B0FEFFF7A8FE0022B5
:104100001146FFF7B9FE01466FF00100BDE804401B
:10411000A3E67FB5FFF768FFFFF7B4FF00F0C4F830
:10412000002211463648006800F0E8F8FEF70AFD64
:1041300000F04BF9002000F054F900F056F9314C32
:10414000314D2B46314A3249206800F053F90121A4
:10415000032000F055F940F6E441002000F054F946
:104160002C4E08213046FFF7BBFE10213046FFF7EA
:10417000B5FE0021206800F03FF92749206800F0D3
:104180003DF90395002002902448019044200090BE
:104190000023234A01462348006800F037F97FBD19
:1041A00080B5FFF7B6FF204ADFF8803020A11D4818
:1041B0000068FEF7AEFA642000F047F9FEF7A0FCB5
:1041C000F1E700000CED00E00000FA0500E400E07B
:1041D00018ED00E04038024010E000E000700040C0
:1041E0000038024074380240083802400438024067
:1041F0000080BFFF003C0240484E0008007A030ADE
:10420000A4000020A0000020D34300084B44000875
:104210004744000800100240082F0020642E0020B0
:10422000202E0020B00000201D5A643BDFC75E40F6
:10423000B5E7D1B93A2531660D0A0000FEE7000066
:1042400038B504460B4D002220212846FEF77CFCA1
:104250002068286060686860A068A860E068E8601E
:104260002069286160696861A069A861E069E86106
:1042700001BE31BDCC2E00201EF0040F0CBFEFF3A9
:104280000880EFF30980DBE7704700000149086010
:1042900070470000A800002001E000F8011B134651
:1042A0005A1E002BF9D1704710B5134C4FF42072F1
:1042B0000021E068FFF7F0FF4FF420520021A068D2
:1042C000FFF7EAFF0120207410BD00210A4607E035
:1042D0000948C06830F81200002800D0491C521C60
:1042E000B2F5A07FF4D3642041434FF4A070B1FB3A
:1042F000F0F0C0B2704700008000002070B50446A6
:104300000D4616460B2060711320A0711E20E07030
:104310001520E071204600F011F820710C20A070EB
:1043200012206070272020700120207225822675BF
:10433000E078A0746079E07470BD000010B4437937
:10434000C479641E6422817902FB0414C2780020BF
:10435000012B01D0022B01D10C33641E02EB43026E
:104360005B1C03EB4303052193FBF1F18A18A218B0
:104370002146491004EB917102EBA102521C642109
:1043800094FBF1F1521A4FF4C87194FBF1F18A18C1
:10439000072192FBF1F1C1EBC101521A062A12D892
:1043A000DFE802F00406080A0C0E100007200AE0FD
:1043B000012008E0022006E0032004E0042002E0DF
:1043C000052000E0062010BC704700F040B800F067
:1043D00040B800F040B800F040B800F040B800F03D
:1043E00040B800F040B800F040B800F040B800F02D
:1043F00040B8000000F03FB800F03FB800F03FB810
:1044000000F054B800F054B800F054B81FB504469A
:10441000099803909DF82000029007980190BDF83C
:1044200018000090204600F047F804200190032077
:10443000009002231A460021204600F05BF804B0E9
:1044400010BD00F061B800F063B800F05FB800F094
:10445000CAB800F02DB900F053B900F055B900F01A
:104460006BB900F08BB900F021BA00F049BA00F046
:1044700084BA00F095BAFEF748BFFFF7C4B838B564
:1044800004460D4600202178002903D1A179204659
:10449000FFF7B9F8002807D129462046FFF7F9F8B9
:1044A000010002D0022032BD012032BD00F002BB6B
:1044B00000F040BB00F055BB38B584B004460B9803
:1044C00003909DF82800029009980190BDF8200003
:1044D00000902046FDF71DFF050008D1FFF787FF7C
:1044E000002804D0002084F8490084F825002846DC
:1044F00005B030BD1CB59DF8144001949DF81040E6
:104500000094FEF7B3F916BDFEF746BA00F088BB7B
:1045100000F096BBDFF8902213684FF6FF010B40C6
:10452000000200F4E0601843DFF8801208431060D6
:104530007047DFF874020068C0F302207047090179
:10454000020003D4DFF8680281547047DFF8640288
:1045500002F00F02104400F8041C704710B400F081
:104560000700C0F10703052B00D30423041D072C0B
:1045700001D2002000E0C01E012404FA03F35B1EF8
:104580001940814004FA00F0401E1040084310BC5E
:104590007047DFF82422B0FBF1F0401E506000208D
:1045A0009060052010607047DFF80C02016821F070
:1045B0000201016000207047DFF8FC01016841F052
:1045C000020101600020704700218160C16001612B
:1045D0000A4604E0425400EB81035A61491C042955
:1045E000F8DB1046704780B574480068FFF7ECFFB1
:1045F000FFF7DAFF4FF47A7171480068FFF7C9FFDF
:104600000320FFF787FFFFF794FF00220F21FFF73A
:10461000A5FF01464FF0FF30FFF791FFFFF7CCFFFA
:10462000012068490870684800F002F8002002BDC7
:10463000014601200A0000D1704770B400225F4B90
:104640001C680E4604E0A05C002810D0521CD2B2B8
:10465000042A08DA04EB820568690028F3D0B04226
:10466000F1D10120A054042A0DDA00200CE0696188
:1046700001201968885418680179FF29F3D001795D
:10468000491C0171EFE7022070BC704710B500248F
:104690000BE04A480168085D002805D001EB840062
:1046A0004069002800D08047641C042CF1DB10BD59
:1046B00070B5044646480568414800684549B0FB66
:1046C000F1F0B5FBF0F6022E06D3304600F034F8D8
:1046D000641E3546C5F57575384E3068C46001E016
:1046E000FEF70EFA3068C0680028F9D1A81E40F223
:1046F000E631884202D2284600F01EF8002070BD44
:104700002E4800688068704710B52C4C206881687E
:10471000491C816021688868002802D10869401C12
:104720000861FFF7B3FF2168C868002802D0C86895
:10473000401EC860002010BD70B421490968254A98
:10474000B1FBF2F14143214A53680024156840F25D
:10475000E936B0420FD250688342FCD0984203D26F
:104760001B191B1A1C4603E02C19241A1B191C4682
:1047700003468C42EFD3002070BC7047104800689D
:104780004FF47A71B0FBF1F00B490A68520749689F
:1047900004D5401E814205D100207047C008401E4C
:1047A0008142F9D0012070470CED00E00000FA05CD
:1047B00000E400E018ED00E010E000E0AC000020B4
:1047C000A800002094000020514F000814E000E0F1
:1047D00018E000E040420F005B480068C0F3022090
:1047E0007047010007D4012200F01F018A40574999
:1047F000400941F8202070470901020002D45448C2
:1048000081547047534802F00F02104400F8041C12
:10481000704710B400F00700C0F10703052B00D368
:104820000423041D072C01D2002000E0C01E012437
:1048300004FA03F35B1E1940814004FA00F0401EA5
:104840001040084310BC704781B043490A680243D6
:104850000A60096808400090009801B0704701683C
:1048600041F0040101607047016821F0040101601A
:104870007047406800F0010070474068400900F050
:10488000010070474068800900F0010070476FF038
:104890002001416070476FF040014160704701683E
:1048A00041F00801016070478068704738B50446E0
:1048B0002A4D284600F0F6F94020FFF7C5FF002CEE
:1048C0000FD0FFF789FF00220F21FFF7A2FF01465B
:1048D0005020FFF791FF5020FFF783FF2846FFF796
:1048E000DEFF2846FFF7BBFF01E0FEF709F9284687
:1048F000FFF7BFFF0128F8D100201949086031BD3A
:1049000010B5164C2046FFF7BDFF002808D0204602
:10491000FFF7C1FF2046FFF7A7FF2046FFF79FFFE5
:104920002046FFF7AAFF002802D02046FFF7AFFF7E
:104930002046FFF79EFF002804D02046FFF7B4FF73
:104940000749086010BD00000CED00E000E100E048
:1049500000E400E018ED00E03438024000080650A2
:104960000C2F002081B010490A6802430A600968D0
:1049700008400090009801B0704780B500F008F83A
:104980004FF48050FFF7EEFF00200849087001BD8A
:1049900080B5074800F09BF901200449087001BD6B
:1049A000024800787047000030380240B400002010
:1049B0000030024081B061490A6802430A60096818
:1049C00008400090009801B070475C490A6822EAEC
:1049D0000000086070470268012301F0100103FA2B
:1049E00001F11143016070470830C1F3034100EB4E
:1049F00081000168090B52EA01320260704738B544
:104A000086B005464E4C01212046FEF799F800225B
:104A100018216846FEF798F82846032802D130206E
:104A2000009006E0022D02D12020009001E010202D
:104A30000090032001900220049069462046FEF772
:104A40000CF9002007B030BD80B500284FF00050B1
:104A500002D0FFF7AFFF01E0FFF7B7FF002002BD74
:104A600038B584B004460D46002210216846FEF792
:104A70006BF83820009000200190012D01D10390A7
:104A800001E002200390022C01D1304C00E02E4CBA
:104A90002C4D6A462146284600F03BF9214628461F
:104AA000FFF799FF002221462846FFF79DFF0020CF
:104AB00005B030BD38B504460D46FFF7A0FF012014
:104AC000FFF7C2FF20460328294607D10120FFF740
:104AD000C7FF29460220FFF7C3FF01E0FFF7C0FF31
:104AE000002032BD38B51A4A914200D3194940F22C
:104AF0002632B1FBF2F440F6FF718C4200D90C462D
:104B0000104D11490246032A09D122462846FFF7D3
:104B10006BFF22460D492846FFF766FF08E0022892
:104B20002246284602D1FFF75FFF01E0FFF75CFF56
:104B3000002032BD4FF47A725143D3E7403802402F
:104B400000000240007400400100100212004315F2
:104B5000A15A3200A05A3200816170470904816174
:104B6000704770B586B004460D462C4E0121304684
:104B7000FDF7E6FF01213046FDF7E2FF0022182194
:104B80006846FDF7E1FF01200190029000200390AC
:104B900001200490002005901020009069463046C6
:104BA000FEF75BF810213046FFF7D8FF0820009091
:104BB00069463046FEF751F808213046FFF7CEFF30
:104BC000284600F016F8012C08D108213046FFF7DE
:104BD000C5FF10213046FFF7BFFF07E01021304628
:104BE000FFF7BCFF08213046FFF7B8FF002006B0F2
:104BF00070BD80B5014641F27070814201D9014615
:104C000004E040F2DC50814200D20146A1F2EC41C6
:104C100049080120FFF7F6FB002002BD001002400A
:104C200010B504000BD0FFF7DAFB0028204603D1B3
:104C3000BDE81040FFF7CBBBBDE8104014E010BD4D
:104C400038B504000FD04FF47A70B4FBF0F5284665
:104C5000FFF7E6FF4FF47A7000FB15442046BDE8ED
:104C60003240FFF7BABB31BD10B5040006D110BD0C
:104C70004FF47A70FFF7E4FFFDF742FF2046441E31
:104C80000028F5D110BD000005490A6810430860EE
:104C9000704703490A6822EA000008607047000074
:104CA0001438024080B54020FFF7EEFF4020FFF7A8
:104CB000F0FF002002BD00000D490A6810430860A3
:104CC00070470B490A6822EA00000860704710B577
:104CD00000240849884208D14FF48050FFF7ECFFC8
:104CE0004FF48050FFF7EDFF00E00124204610BD97
:104CF0001038024000300240012201F0100102FA97
:104D000001F100680840884201D110467047002038
:104D10007047F8B504460E4617460025FFF7ECFF2E
:104D200000281ED1FA6806F0100678683968002855
:104D30000ED0236840F6FA7C0CFA06FC23EA0C033A
:104D40000843B96808430243B2401A43226009E0AD
:104D50002068FA23B34098430A43B24002432260DA
:104D600000E001252846F2BD104908607047104850
:104D70000068800800F0010070476FF00101816059
:104D800070477047704780B5FFF776FAFEE7FEE799
:104D9000FEE7FEE7704770477047FFF71CBB05480A
:104DA000EBE705480068FFF74CBB0000143C0140EE
:104DB00004700040002C0040B0000020FFF713BB3F
:104DC00080B54FF48030FFF7CFFFFFF7D0FF00280A
:104DD00003D0BDE8014000F001B801BD00F000B80B
:104DE00000F000B8704700000E48016841F47001FF
:104DF00001600D49086840F00100086000208860EB
:104E00000A680A4802400A6009484860086820F4B5
:104E1000802008600020C8604FF0006005490860ED
:104E20007047000088ED00E000380240FFFFF6FE0A
:104E30001030002408ED00E0000000000000000039
:104E40000102030406070809453A5C53544D333206
:104E50005F4D43555C53544D3332463430375C53C9
:104E6000544D333246343037564554365C53544DE6
:104E70003332463430375645543650726F6A656364
:104E8000745C4170706C69636174696F6E5C4150F1
:104E9000505C6D61696E2E630000000010B507491B
:104EA00079441831064C7C44163404E00A68081D25
:104EB000114488470146A142F8D110BD2C000000E2
:104EC0004C0000004EF68851CEF20001086840F414
:104ED00070000860BFF34F8FBFF36F8F4FF000700B
:104EE000E1EE100A7047000067C3FFFF602E00006C
:104EF000B80000200000000023C4FFFFB80000003D
:104F0000A4010000000000200000000000F00DF8E7
:104F1000002801D0FFF7C2FFAFF300800020AFF3FD
:104F20000080FFF73DF900F002F80120704700F023
:104F300001B8000007463846FDF774F8FBE70000AB
:104F40000148804701480047E94D0008614F0008CB
:104F50000248416802788918416070479400002037
:104F6000AFF30080FFF7AEFFFFF7D0FF00000000B7
:104F700001020304FFF7FEBFFFF7FEBFFFF7FEBF0E
:104F8000FFF7FEBFFFF7FEBFFFF7FEBFFFF7FEBF55
:104F9000FFF7FEBFFFF7FEBFFFF7FEBFFFF7FEBF45
:104FA000FFF7FEBFFFF7FEBFFFF7FEBFFFF7FEBF35
:104FB000FFF7FEBFFFF7FEBFFFF7FEBFFFF7FEBF25
:104FC000FFF7FEBFFFF7FEBFFFF7FEBFFFF7FEBF15
:104FD000FFF7FEBFFFF7FEBFFFF7FEBFFFF7FEBF05
:104FE000FFF7FEBFFFF7FEBFFFF7FEBFFFF7FEBFF5
:104FF000FFF7FEBFFFF7FEBFFFF7FEBFFFF7FEBFE5
:10500000FFF7FEBFFFF7FEBFFFF7FEBFFFF7FEBFD4
:10501000FFF7FEBFFFF7FEBFFFF7FEBFFFF7FEBFC4
:10502000FFF7FEBFFFF7FEBFFFF7FEBFFFF7FEBFB4
:10503000FFF7FEBFFFF7FEBFFFF7FEBFFFF7FEBFA4
:10504000FFF7FEBFFFF7FEBFFFF7FEBFFFF7FEBF94
:10505000FFF7FEBFFFF7FEBFFFF7FEBFFFF7FEBF84
:10506000FFF7FEBFFFF7FEBFFFF7FEBFFFF7FEBF74
:10507000FFF7FEBFFFF7FEBFFFF7FEBFFFF7FEBF64
:10508000FFF7FEBFFFF7FEBFFFF7FEBFFFF7FEBF54
:10509000FFF7FEBFFFF7FEBFFFF7FEBFFFF7FEBF44
:1050A000FFF7FEBFC2150008010000004800002005
:1050B00000000000000000000000000000000000F0
:1050C00000000000000000000000000000000000E0
:1050D0000000000000000000D113000800000000E4
:1050E000BF1300080100000000000000FE160008C9
:1050F000FE160008FE160008FE160008FE16000840
:10510000FE160008FE160008FFFFFFFFFFFFFFFF6F
:1051100092150008FE160008FE160008FFFFFFFFAC
:10512000FFFF0000A9420008CB420008B8000020A1
:10513000B82800200000000001000000000000006E
:1051400010000000382D0020EC2E00200024F40078
:0C515000A82E0020B02D0020010000005F
:0400000508004F613F
:00000001FF
