:020000040800F2
:10000000385800208D8700081D8100082D810008C8
:1000100035810008378100083981000800000000A0
:100020000000000000000000000000003B8100080C
:100030003D810008000000003F8100084181000868
:100040004981000873810008F9870008FD870008CE
:1000500001880008258100083D8200080588000805
:10006000098800083F8200080D88000811880008F0
:10007000E581000815880008FD810008198800083E
:100080001D880008218800082588000829880008A4
:100090002D88000831880008358800083988000854
:1000A0003D88000841880008458800084988000804
:1000B000B38100084D880008518800085588000861
:1000C000598800085D880008618800086588000874
:1000D00069880008538100086D8800085F81000866
:1000E0007188000875880008798800087D880008F4
:1000F0008188000885880008898800088D880008A4
:100100009188000895880008998800089D88000853
:10011000A1880008A5880008A9880008AD88000803
:100120008B810008B1810008B5810008B188000802
:10013000B5880008B9880008BD880008C188000893
:10014000C5880008C9880008CD880008D188000843
:10015000D5880008D9880008CD810008DD8800080E
:10016000E1880008E5880008E9880008ED880008B3
:10017000F1880008F5880008F988000800000000F0
:100180006B810008FD880008DFF8AC0B0068C0F345
:1001900002207047010049B2002909D4012210F061
:1001A0001F018A40DFF8F81B40B2400941F82020C7
:1001B0007047020052B2002A05D40901DFF8E42B8F
:1001C00040B2115408E00901DFF8DC2B40B210F016
:1001D0000F00104400F8041C704710B410F0070022
:1001E000D0F10703052B01D3042301E0D0F107036D
:1001F000041D072C01D2002000E0C01E012414FAC7
:1002000003F35B1E1940814014FA00F0401E1040B9
:10021000084310BC704781B0DFF8901B0A680243A6
:100220000A60096808400090009801B07047DFF844
:100230007C1B0A6832EA000008607047DFF8701B18
:100240000A68104308607047DFF8641B0A6832EAE6
:1002500000000860704781B0DFF8581B0A6802434D
:100260000A60096808400090009801B07047DFF804
:10027000441B0A6832EA000008607047DFF8381B48
:100280000A68104308607047DFF82C1B0A6832EADE
:10029000000008607047DFF8282C535CC3181B6807
:1002A00053F00103515C401803607047DFF8102CD5
:1002B000535CC3181B685B085B00515C401803600B
:1002C000704710B4DFF8F83B5C5C0419595C4018C7
:1002D0004068000C00040243626010BC7047DFF805
:1002E000E02B515C4018406880B27047DFF8D03B8B
:1002F000595C4018C2607047DFF8C42B535CC318C8
:100300001B6853F01003515C40180360704730B411
:10031000046891FAA1F3B3FA83F30325DBB25B001F
:100320009D40AC4391FAA1F1B1FA81F1C9B2490003
:100330008A402243026030BC7047C16851F40051CA
:10034000C1607047016931F490410161416931F048
:100350002A0141617047006810F001007047006891
:10036000400810F0010070470068800810F001009C
:1003700070470068C00810F001007047006800096D
:1003800010F0010070470068400910F0010070474C
:100390000068800910F0010070470068C00910F083
:1003A000010070470068000A10F001007047006803
:1003B000400A10F00100704781B001680091009977
:1003C00040680090009801B0704781B001680091CA
:1003D000009940680090009801B0704781B00168B2
:1003E0000091009940680090009801B0704781B07A
:1003F00001680091009940680090009801B0704732
:1004000081B001680091009940680090009801B0A7
:1004100070477FF04001016070477FF0200101606C
:1004200070477FF48071016070477FF40071016054
:100430007047C16851F01001C1607047C16851F048
:100440002001C1607047C16851F04001C160704730
:10045000C16851F08001C1607047C16831F040014E
:10046000C1607047C16831F08001C1607047C068E9
:10047000000910F001007047C068400910F0010049
:100480007047C068800910F001007047C068C0095B
:1004900010F001007047C068000A10F001007047BA
:1004A0000069800910F001007047406910F00100F8
:1004B00070474069800A10F001007047416951F0AF
:1004C000400141617047416951F0800141617047CD
:1004D0004068C0B27047C9B24160704700210171E5
:1004E00000214171002181710021C171002101723F
:1004F00000214172002181720021C172002101732B
:10050000002101610021816100210162012180F847
:100510005810002180F85910002180F85A1000214D
:1005200080F85C10002180F85D100021A0F85E10BA
:100530000021A0F860100021A0F864100021A0F8AC
:1005400062100021A0F86610002180F85B100021E5
:1005500080F868100021C1660021016700218167D1
:10056000002141670021C1670021C0F888100021E7
:1005700080F82410002180F82510002180F8261032
:10058000002180F82810002180F8291000214185E1
:1005900000218185002101860021C185002141863D
:1005A000012180F82710002180F834100021816398
:1005B0000021C163002141640021016400218164A4
:1005C00000214165002070470A7902714A79427121
:1005D0008A798271CA79C2710A7A02724A7A42723F
:1005E0008A7A8272CA7AC2720A7B02730A690261CB
:1005F0008A6982610A6A026291F8582080F858205C
:1006000091F8592080F8592091F85A2080F85A2002
:1006100091F85C2080F85C2091F85D2080F85D20E6
:10062000B1F85E20A0F85E20B1F86020A0F860204C
:10063000B1F86420A0F86420B1F86220A0F862202C
:10064000B1F86620A0F8662091F85B2080F85B2066
:1006500091F8682080F86820CA6EC2660A6F026747
:100660008A6F82674A6F4267CA6FC267D1F8882073
:10067000C0F8882091F8242080F8242091F82520C3
:1006800080F8252091F8262080F8262091F828204F
:1006900080F8282091F8292080F829204A8D428569
:1006A0008A8D82850A8E0286CA8DC2854A8E4286CE
:1006B00091F8272080F8272091F8342080F8342002
:1006C0008A6B8263CA6BC2634A6C42640A6C0264BE
:1006D0008A6C8264496D41650020704730B58FB0E7
:1006E00004001821002202AD280001F039FA02208E
:1006F00003900320049000200590012006904FF401
:10070000C060029007200790DFF8045902A9280072
:1007100001F0E7FA25614FF400706061DFF8F4083A
:10072000206202202071206A01F0A4FC0121206ACD
:1007300000F0C4FF1C21002208AD280001F010FACF
:100740005FF4E13008900020099000200A9000201A
:100750000B900C200C9000200D9008A9206A01F04D
:10076000D3FC206AFFF7EEFDD4F88800002802D001
:100770006420606701E000206067606D002802D09F
:100780006420206401E000202064002084F826001A
:10079000552060715A20A071042001900320009020
:1007A000022302220021200001F07BF8002120001A
:1007B00000F0D8FA0021200000F0C0FA00200FB0AD
:1007C00030BD30B58FB00400DFF84C58022128004E
:1007D00001F06AFD0121280001F098FEC4F8805064
:1007E0000220C4F884003C2100226D46280001F05C
:1007F000B7F95FF000600990B4F866000890002037
:10080000029000200B9001200C90E06F01900020DE
:1008100007904FF48060059000200390206A001D2F
:10082000009000200E9000200690002004905FF4BD
:1008300000300A906A46D4F88410D4F8800001F0A1
:1008400025FED4F88410D4F88000FFF724FD206A38
:10085000FFF734FEFFF798FC00220221FFF7BDFCF2
:1008600001003A20FFF7A5FC3A20FFF793FCD4F8EB
:100870008410D4F88000FFF73FFD00200FB030BD9A
:1008800030B58FB00400DFF890570721280001F041
:100890000BFD0121280001F039FEE56407202065E9
:1008A0003C2100226D46280001F05AF95FF00060FB
:1008B0000990002008904020029000200B90012019
:1008C0000C90A06C0190002007904FF48060059080
:1008D00000200390206A001D009000200E90002050
:1008E0000690002004905FF400300A906A46216D63
:1008F000E06C01F0CBFD206AFFF7E5FDFFF744FC5B
:1009000000220221FFF769FC01004620FFF751FC9D
:100910004620FFF73FFC216DE06CFFF7EDFC002067
:100920000FB030BD10B504002000FFF7D7FE94F8DB
:100930005800002804D1DFF8DC06FFF77FFD06E051
:10094000DFF8D006FFF775FD2000FFF73AFF94F8B7
:100950002400002802D02000FFF792FFFFF714FCCC
:1009600000220221FFF739FC01002520FFF721FCBE
:100970002520FFF70FFCDFF89C06FFF7DEFCDFF811
:100980009C16200000F06EFD002010BD0020704776
:1009900030B58DB00400182100226D46280001F00A
:1009A000DFF8022001900320029000200390012034
:1009B00004904FF44060009007200590DFF86056E7
:1009C0006946280001F08DF925614FF4806060616F
:1009D000DFF85006206204202071206A01F04AFBF3
:1009E0000121206A00F06AFE1C21002206AD2800C9
:1009F00001F0B6F85FF4E130069000200790002087
:100A00000890002009900C200A9000200B9006A965
:100A1000206A01F079FB206AFFF794FCD4F8880083
:100A2000002802D00A20606701E000206067606D46
:100A3000002802D06420206401E00020206400200F
:100A400084F82600552060715A20A07100212000F2
:100A500000F088F90021200000F070F900200DB0AE
:100A600030BD30B58FB00400DFF8BC55012128003F
:100A700001F01AFC0121280001F048FDC4F8805063
:100A80000120C4F884003C2100226D46280001F0BA
:100A900067F85FF000600990B4F8660008900020E5
:100AA000029000200B9001200C90E06F019000203C
:100AB00007904FF48060059000200390206A001D8D
:100AC000009000200E9000200690002004905FF41B
:100AD00000300A906A46D4F88410D4F8800001F0FF
:100AE000D5FCD4F88410D4F88000FFF7D4FB206A3A
:100AF000FFF7E4FCFFF748FB00220221FFF76DFB44
:100B000001000C20FFF755FB0C20FFF743FBD4F846
:100B10008410D4F88000FFF7EFFB00200FB030BD49
:100B200030B58FB00400DFF800550321280001F034
:100B3000BBFB0121280001F0E9FCE56403202065EE
:100B40003C2100226D46280001F00AF85FF00060A9
:100B50000990002008904020029000200B90012076
:100B60000C90A06C0190002007904FF480600590DD
:100B700000200390206A001D009000200E900020AD
:100B80000690002004905FF400300A906A46216DC0
:100B9000E06C01F07BFC206AFFF795FCFFF7F4FAAC
:100BA00000220221FFF719FB01000E20FFF701FBD5
:100BB0000E20FFF7EFFA216DE06CFFF79DFB0020A0
:100BC0000FB030BD10B504002000FFF7E1FE94F82F
:100BD0005800002803D1206AFFF730FC05E0206AA6
:100BE000FFF727FC2000FFF73CFF94F824000028C3
:100BF00002D02000FFF794FFFFF7C6FA002202217F
:100C0000FFF7EBFA01002720FFF7D3FA2720FFF7C1
:100C1000C1FA206AFFF791FBDFF81014200000F002
:100C200021FC002010BD00207047002070470020EC
:100C30007047002070470020704700207047002058
:100C400070472DE9F84F04000F00904699460A9E20
:100C5000DDF82CA00C9DDDF834B02000FFF73EFC41
:100C600084F85A90A4F86670C4F87C80C4F8788040
:100C700084F826506686C4F848A0C4F844A0C4F896
:100C800054B0C4F888B0002C08D0DFF8A403006882
:100C9000844203D12000FFF745FE29E0002C05D057
:100CA000002C03D12000FFF771FE21E0002C08D0BA
:100CB000DFF880030068844203D12000FFF782FF41
:100CC00016E0002C05D0002C03D12000FFF7ABFF6D
:100CD0000EE0002C05D0002C03D12000FFF7A5FF6B
:100CE00006E0002C04D0002C02D12000FFF79FFF6B
:100CF000002C07D0002C05D12000FFF79AFF002020
:100D0000BDE8F28F002C05D0002C03D12000FFF7A6
:100D100092FFF4E7002C05D0002C03D12000FFF750
:100D20008CFFECE7002C05D0002C03D12000FFF74E
:100D300086FFE4E70220E3E70CED00E080B50269FE
:100D4000002A0DD0C9B2012905D1022241690069EA
:100D5000FFF7DDFA04E0002241690069FFF7D7FAE6
:100D6000002002BD80B58269002A0BD0C9B20129DA
:100D700004D1C169806901F0DCFD03E0C1698069CB
:100D800001F0A0FD002002BD10B50400206B00287A
:100D900002D0206B804700E000206061002010BD81
:100DA00000E100E000E400E018ED00E0403802401F
:100DB00020380240443802402438024010B5040074
:100DC0009D4A117094F85C00002805D002283DD09F
:100DD0001CD3032870D070E0B4F86000002814D150
:100DE00060791178884210D11078E16F0870012085
:100DF00084F85C000120A4F8620014F15800FFF7A9
:100E0000C3FF14F1580000F087FA56E0107800286C
:100E100014D01078B4F86610C9B288420ED2107897
:100E2000E16F48701078A4F85E00B4F86200401CCE
:100E3000A4F86200022084F85C0002E0002084F83C
:100E40005C0014F15800FFF79FFF36E0E06FB4F844
:100E50006010084411788170B4F86000401CA4F858
:100E60006000B4F86200401CA4F86200B4F86000AE
:100E7000B4F8661080B2884202D30020A4F8600063
:100E800014F15800FFF780FFB4F86000B4F85E106A
:100E900080B288420FD3032084F85C00012084F8DC
:100EA0005B00D4F88800002803D0D4F8880080477D
:100EB00000E00020206700E0FFE7002010BD0000F8
:100EC000F087000810B50400DFF87826117094F858
:100ED0005C00002807D0022837D01ED3042800F079
:100EE00094805CD392E0B4F86000002814D160795B
:100EF0001178884210D11078E16F0870012084F8D1
:100F00005C000120A4F8620014F15800FFF73CFFD8
:100F100014F1580000F000FA78E01078E16F4870A2
:100F20001078A4F85E00B4F85E000002A4F85E0039
:100F3000022084F85C00B4F86200401CA4F862004F
:100F400014F15800FFF720FF60E01078E16F88701F
:100F5000B4F85E00117850FA81F0A4F85E00B4F89D
:100F60006200401CA4F86200B4F85E0000280ED0B5
:100F7000B4F85E00B4F8661080B2884207D2B4F8C4
:100F80005E00A4F86200032084F85C0002E0002008
:100F900084F85C0014F15800FFF7F6FE36E0E06FCD
:100FA000B4F8601008441178C170B4F86000401CB7
:100FB000A4F86000B4F86200401CA4F86200B4F821
:100FC0006000B4F8661080B2884202D30020A4F812
:100FD000600014F15800FFF7D7FEB4F86000B4F8D1
:100FE0005E1080B288420FD3042084F85C00012098
:100FF00084F85B00D4F88800002803D0D4F8880077
:10100000804700E00020206700E0FFE7002010BDDF
:1010100000000240001001400064024034870008D4
:101020000004024000480040006002404887000879
:10103000B8000020BC0000203438002080B5B0F893
:101040006620FF2A03DAC9B2FFF7B8FE02E0C9B290
:10105000FFF738FF02BD1CB5040000208DF800002A
:10106000608D00282CD0A08D618D80B2884223D065
:10107000A06CA18D415C206AFFF72DFAA08D401C69
:10108000A085A08D618E80B2884201D30020A0850A
:10109000A08D618D80B2884215D3E08D002812D0DA
:1010A000A08DE18D80B288420DD3206AFFF7DAF976
:1010B000206AFFF7C8F906E001208DF8000002E081
:1010C00002208DF800009DF80000002805D0206A5D
:1010D000FFF7C8F9200000F049F914F12400FFF7E8
:1010E00053FE002016BD10B50400A06900280BD0E7
:1010F00094F82800002807D10D21206AFFF7EBF9AA
:10110000012084F8280017E0A06900280BD094F88B
:101110002800012807D10A21206AFFF7DCF9022004
:1011200084F8280008E0002084F82800206AFFF7EF
:1011300094F9200000F01AF9002010BD826C438D54
:10114000D154418D491C4185418D428E89B29142D5
:1011500001D3002141850020704738B5040094F880
:101160002600002870D001F081FC00286CD10020FE
:10117000608D94F82910012900D1801C618EFF290F
:1011800003DA801EA16C487008E0010089B2C91E14
:101190000912A26C5170C01EA16C887094F82600D0
:1011A000012809D1618DA06C01F071FC0100C9B268
:1011B0002000FFF7C3FF43E094F8260002280AD17D
:1011C000628DA16C072001F05DFC0100C9B2200016
:1011D000FFF7B4FF34E094F82600032810D1618DA6
:1011E000A06C01F04BFC05002900090AC9B22000DF
:1011F000FFF7A4FF2900C9B22000FFF79FFF1FE0FF
:1012000094F8260004281BD1618DA06C01F032FCFB
:1012100005002900090EC9B22000FFF78FFF290041
:10122000090CC9B22000FFF789FF2900090AC9B2D9
:101230002000FFF783FF2900C9B22000FFF77EFFDF
:10124000608DE085002000E0012032BD38B504004B
:10125000002000200020606D8047050001E001F0C3
:101260001AFC94F82700002807D094F827000328D8
:1012700003D094F82700042810D1606D8047A8425D
:1012800004D25FF0FF31491B401800E0401B652885
:10129000E5D3200000F06AF8012000E0002032BD14
:1012A00038B504000D002000FFF7D0FF002831D131
:1012B000002084F8270065852000FFF74EFF94F892
:1012C0002900012807D10D212000FFF737FF0A214F
:1012D0002000FFF733FF608DE08501212000FFF73C
:1012E00041FD01212000FFF729FD94F8240000288A
:1012F00003D1206AFFF7ACF806E0A16C200000F0F3
:10130000B6FB200000F0BBFB14F12400FFF73CFD0E
:10131000002000E0012032BD002101740020704750
:1013200010B5040000212000FFF71CFD002084F808
:101330005C000020A4F85E000020A4F860000020FB
:10134000A4F86200002084F85B000020E066002022
:1013500084F86800A06FE16F087094F858000028C6
:1013600002D0200000F071FB002010BD10B5040079
:10137000012084F82700002060850020A08500203F
:10138000E0850020A063002084F83400002084F869
:10139000280000212000FFF7E5FC00212000FFF7D6
:1013A000CDFC606D002802D0606D804700E0002019
:1013B000E063606CA16C0870002010BD020000208A
:1013C00092F82710002907D092F82710032903D09C
:1013D00092F82710042900D10120C0B2704738B517
:1013E0000400002000200020606D8047050001E01F
:1013F00001F051FB94F82700002807D094F827004B
:10140000032803D094F8270004280FD1606D80478B
:10141000A84204D25FF0FF31491B401800E0401B96
:101420006528E5D32000FFF7A1FF07E00121200098
:10143000FFF798FC01212000FFF780FC31BD10B5BB
:10144000040000212000FFF78DFC00212000FFF7A1
:1014500075FC606D002802D0606D804700E00020C0
:10146000E06310BD0CB4F8B504000D00206A00283C
:1014700065D02000FFF7B3FF002006AFDFF87C65E2
:101480003B002A0030684188D1F50071306840681F
:10149000D6F800C0BCF802C0604401F001FB31681E
:1014A0004988D1F50071020092B291420FDA002012
:1014B000316848803B002A0030684188D1F50071CE
:1014C0003068406835686D88284401F0E9FA316871
:1014D00049883268118031684988411832685180E2
:1014E0003168498840F2C112914202DB0021326822
:1014F000518094F8241000290CD0E08530684068B1
:10150000316809880144200000F0B1FA200000F0A1
:10151000B6FA10E0208001206080032084F82700C4
:10152000206AFEF790FF3068406831680988415CA6
:10153000206AFEF7D0FF14F12400FFF725FCF1BC70
:101540005DF80CFB35380020F8B504000D001600DE
:10155000206A002864D02000FFF741FF0020DFF858
:101560009C7433002A0038684188D1F500713868CE
:101570004068D7F800C0BCF802C0604401F090FA9F
:1015800039684988D1F50071020092B291420FDAB0
:1015900000203968488033002A0038684188D1F536
:1015A0000071386840683D686D88284401F078FA19
:1015B000396849883A6811803968498841183A6819
:1015C00051803968498840F2C112914202DB002102
:1015D0003A68518094F8241000290CD0E0853868CE
:1015E0004068396809880144200000F040FA200072
:1015F00000F045FA10E0208001206080032084F88C
:101600002700206AFEF71FFF38684068396809889C
:10161000415C206AFEF75FFF14F12400FFF7B4FB82
:10162000F1BD10B5040060882188884209D3206A82
:10163000FEF713FF2000FFF702FF012084F82700C8
:101640000FE0DFF8B8030168496800680088628825
:1016500012FA80F0095C206AFEF73DFF6088401CAA
:101660006080002010BD10B50400012084F8270020
:10167000206AFEF7F2FE2000FFF778FE002010BD82
:1016800080B590F82710002902D1FFF72CFD13E058
:1016900090F82710032902D1FFF7C3FF0CE090F860
:1016A0002710042902D1FFF7DEFF05E0012180F8B1
:1016B0002710006AFEF7D1FE002002BD80B5DFF8DA
:1016C0004023904221D10800C0B2002804D110204C
:1016D000FEF7CDFD0020E3E00800C0B2012803D1F1
:1016E0001020FEF7B8FDF5E70800C0B2022803D1CC
:1016F0001020FEF7C3FDEDE7C9B2032903D1102086
:10170000FEF7C2FDE6E70120CAE0DFF8F8229042CA
:1017100025D10800C0B2002805D15FF40030FEF7E3
:1017200086FD0020BCE00800C0B2012804D15FF4AF
:101730000030FEF770FDF4E70800C0B2022804D1C3
:101740005FF40030FEF77AFDEBE7C9B2032904D15C
:101750005FF40030FEF778FDE3E70120A0E0AA4A3D
:10176000904225D10800C0B2002805D15FF4802046
:10177000FEF75DFD002093E00800C0B2012804D10F
:101780005FF48020FEF747FDF4E70800C0B20228AE
:1017900004D15FF48020FEF751FDEBE7C9B20329C5
:1017A00004D15FF48020FEF74FFDE3E7012077E0EE
:1017B000964A904221D10800C0B2002804D12020CE
:1017C000FEF755FD00206BE00800C0B2012803D1F0
:1017D0002020FEF740FDF5E70800C0B2022803D143
:1017E0002020FEF74BFDEDE7C9B2032903D12020ED
:1017F000FEF74AFDE6E7012052E0854A904225D1F6
:101800000800C0B2002805D15FF40020FEF70FFDEC
:10181000002045E00800C0B2012804D15FF4002098
:10182000FEF7F9FCF4E70800C0B2022804D15FF427
:101830000020FEF703FDEBE7C9B2032904D15FF4F2
:101840000020FEF701FDE3E7012029E0714A904204
:1018500025D10800C0B2002805D15FF48010FEF742
:10186000E6FC00201CE00800C0B2012804D15FF4AF
:101870008010FEF7D0FCF4E70800C0B2022804D1C3
:101880005FF48010FEF7DAFCEBE7C9B2032904D15C
:101890005FF48010FEF7D8FCE3E7012000E00220AF
:1018A00002BD30B4029D039CC17102724372857205
:1018B000C472002030BC704710B50400206AFEF7E7
:1018C00062FD00280FD0206AFEF7D6FD00280AD05E
:1018D000206AFEF7FDFD0100C9B22000FFF7AEFB54
:1018E000206AFEF79AFD206AFEF757FD002807D010
:1018F000206AFEF7CBFD002802D02000FFF7ABFBEB
:10190000206AFEF745FD00280AD0206AFEF7B9FDDF
:10191000002805D02000FFF7B3FE206AFEF779FD0E
:10192000206A3B49884210D0206A3A4988420CD04C
:10193000206AFEF73CFD002807D0206AFEF7B9FDBB
:10194000002802D0206AFEF770FD206AFEF72AFD0B
:10195000002807D0206AFEF7A3FD002802D0206AE5
:10196000FEF75FFD206AFEF709FD002810D0206A0F
:10197000FEF77DFD00280BD0200000F090F8206AD3
:10198000FEF73EFDD4F88410D4F8800001F039F958
:10199000206AFEF7EEFC002807D0206AFEF785FDDE
:1019A000002802D0206AFEF722FD206AFEF7DCFC48
:1019B000002807D0206AFEF778FD002802D0206AB0
:1019C000FEF70CFD206AFEF7CAFC002807D0206A4B
:1019D000FEF76BFD002802D0206AFEF7F6FC206AB5
:1019E000FEF7B9FC002807D0206AFEF754FD002856
:1019F00002D0206AFEF7E0FC10BD0000C00000200D
:101A00000010014000440040004800400014014024
:101A1000004C00400050004038B50400D4F8841059
:101A2000D4F88000FEF742FCD4F88410D4F880008B
:101A300001F0E7F8B4F86650D4F88410D4F88000C8
:101A4000FEF74DFC281A80B232BD10B50400B4F880
:101A50006620D4F88410D4F88000FEF732FCD4F865
:101A60008410D4F88000FEF716FC002010BD80B56D
:101A70000A00016DC06CFEF739FC002002BD10B5F4
:101A80000400E28D216DE06CFEF71BFC216DE06C23
:101A9000FEF701FC042084F82700002010BD38B5B3
:101AA000040000252000FFF7B7FFE16F0978627995
:101AB00091421DD1E16F4978B4F86620FF2A01DA1E
:101AC000891C05E089B20902E26F52788918C91CA5
:101AD000020089B292B2914205D1012184F85B10D3
:101AE000A4F8620005E02000FFF71AFC022500E0E0
:101AF00001252800C0B232BD10B504002000FFF758
:101B0000CEFF206AFEF77CFC10BD10B50400216DED
:101B1000E06CFEF7CBFB216DE06C01F072F8206AFF
:101B2000FEF791FC10BD30B4002513E050F8042BF3
:101B3000D30744BFA9F101039A18091F042942F8E9
:101B4000045BFAD213468C0744BF15809B1CC9075F
:101B500048BF1D7050F8041B0029E7D130BC704706
:101B600062F30F2262F31F42401810F0030308D003
:101B7000C91A1FD3DB0748BF00F8012D28BF20F882
:101B8000022D130030B414461546103928BF20E941
:101B90003C00FAD8490728BF20E90C0048BF40F8AC
:101BA000042D890028BF20F8022D48BF00F8012D20
:101BB00030BC7047C91818BF00F8012DCB0728BFEB
:101BC00000F8012D704730B40EE00268436802440B
:101BD0000830DC0744BFA9F10104E31852F8045BA4
:101BE00043F8045B091FF9D150F8041B0029ECD11C
:101BF00030BC704730B4046891FAA1F3B3FA83F3B0
:101C00000325DBB25B009D40AC4391FAA1F1B1FA30
:101C100081F1C9B249008A402243026030BC70475A
:101C200043688B43514319434160704730B4846823
:101C300091FAA1F3B3FA83F30325DBB25B009D4075
:101C4000AC4391FAA1F1B1FA81F1C9B249008A40DD
:101C50002243826030BC704730B4C46891FAA1F36B
:101C6000B3FA83F30325DBB25B009D40AC4391FAEA
:101C7000A1F1B1FA81F1C9B249008A402243C260A0
:101C800030BC704730B4046A91FAA1F3B3FA83F31D
:101C90000F25DBB29B009D40AC4391FAA1F1B1FA54
:101CA00081F1C9B289008A402243026230BC704788
:101CB00030B4446A0B001B0A93FAA3F3B3FA83F31C
:101CC0000F25DBB29B009D40AC43090A91FAA1F1BC
:101CD000B1FA81F1C9B289008A402243426230BC24
:101CE0007047F8B505000E0000200020306890FA1B
:101CF000A0F0B0FA80F734E0726921002800FFF705
:101D0000D7FF28E034680120B8400440002C27D0D9
:101D10007068012802D07068022809D1B2682100D9
:101D20002800FFF783FFF26821002800FFF778FF03
:101D3000326921002800FFF78FFF706802280AD15E
:101D400094FAA4F0B0FA80F00828D5D27269210084
:101D50002800FFF797FF726821002800FFF74AFF6D
:101D60007F1C3068F8400028CCD10020F2BDB1F5CE
:101D7000807F02D34FF0FF30704701700120704721
:101D80000078401E8041C043C00F7047DFF8181430
:101D90000A68104308607047DFF80C140A6832EADA
:101DA000000008607047DFF804140A6810430860F8
:101DB0007047DFF8F8130A6832EA000008607047DD
:101DC000C068400B10F001007047026932F44052C5
:101DD000114301617047426932F44072114341611D
:101DE00070472DE9FF4F83468A469846B2F5004F6B
:101DF00040F0A0805FF06409022400251926002726
:101E000052460023A6FB020106FB031107FB021149
:101E1000CDE9000140460021A4FB002304FB01336F
:101E200005FB0033DDE9000100F096FF6421B0FB03
:101E3000F1F0039052460023A6FB020106FB0311BA
:101E400007FB0211CDE9000140460021A4FB00235D
:101E500004FB013305FB0033DDE9000100F07CFFEA
:101E6000029052460023A6FB020106FB031107FB6A
:101E70000211CDE9000140460021A4FB002304FB30
:101E8000013305FB0033DDE9000100F065FF64214B
:101E9000B0FBF1F1029809FB1101C8003230642156
:101EA000B0FBF1F0400010F4F870039910EB011052
:101EB000029052460023A6FB020106FB031107FB1A
:101EC0000211CDE9000140460021A4FB002304FBE0
:101ED000013305FB0033DDE9000100F03DFF009018
:101EE0005046002102000B00A6FB020106FB031175
:101EF00007FB02114246002316001F00A4FB062325
:101F000004FB073305FB063300F026FF6421B0FB1A
:101F1000F1F1009809FB11095FEAC9003230642130
:101F2000B0FBF1F111F007010298091889B2CBF862
:101F300008109DE0042400255FF06409192600279D
:101F400052460023A6FB020106FB031107FB021108
:101F5000CDE9000140460021A4FB002304FB01332E
:101F600005FB0033DDE9000100F0F6FE6421B0FB63
:101F7000F1F0039052460023A6FB020106FB031179
:101F800007FB0211CDE9000140460021A4FB00231C
:101F900004FB013305FB0033DDE9000100F0DCFE4A
:101FA000029052460023A6FB020106FB031107FB29
:101FB0000211CDE9000140460021A4FB002304FBEF
:101FC000013305FB0033DDE9000100F0C5FE6421AB
:101FD000B0FBF1F1029809FB1101080132306421D4
:101FE000B0FBF1F010F0F000039910EB011002903B
:101FF00052460023A6FB020106FB031107FB021158
:10200000CDE9000140460021A4FB002304FB01337D
:1020100005FB0033DDE9000100F09EFE0090504614
:10202000002102000B00A6FB020106FB031107FBC7
:1020300002114246002316001F00A4FB062304FBE6
:10204000073305FB063300F087FE6421B0FBF1F196
:10205000009809FB11095FEA091032306421B0FBD6
:10206000F1F111F00F010298091889B2CBF80810AC
:10207000BDE8FF8F10B500244D49884206D11020DD
:10208000FFF791FE1020FFF794FE3AE0494988429D
:1020900008D15FF40030FFF779FE5FF40030FFF7FE
:1020A0007BFE2EE04449884208D15FF48020FFF790
:1020B0006DFE5FF48020FFF76FFE22E03F4988420B
:1020C00006D12020FFF76FFE2020FFF772FE18E0F8
:1020D0003B49884208D15FF40020FFF757FE5FF4C8
:1020E0000020FFF759FE0CE03649884208D15FF422
:1020F0008010FFF74BFE5FF48010FFF74DFE00E00D
:1021000001242000C0B210BDF8B584B005000F0056
:10211000012600242800FFF753FE00283FD1E9687C
:102120002948014078680143F86801433869014350
:10213000B8690143E960B9682800FFF746FE79698C
:102140002800FFF748FE684600F046FF1848854221
:1021500001D1039C17E01748854201D1029C12E08F
:102160001548854201D1029C0DE01448854201D1F9
:10217000039C08E01248854201D1029C03E011480B
:10218000854200D1029C002C09D03868002806D076
:1021900000263B68BA6921002800FFF722FE3000C4
:1021A000C0B205B0F0BD0000203802402438024023
:1021B000001001400044004000480040001401406D
:1021C000004C004000500040F369FFFF99490A6845
:1021D00010430860704797490A6832EA00000860B7
:1021E0007047954A535CC3181B685B085B00515CE1
:1021F00040180360704730B48F4C635CC3181D688F
:102200008E4B1D402A43615C4018026030BC704711
:1022100010B4894B5C5C0419595C40184068000C90
:1022200000040243626010BC704710B4824B5C5CD7
:102230000419246834F060642243595C4018026039
:1022400010BC704710B47C4B5C5C0419246834F0FB
:10225000C0742243595C4018026010BC704710B42F
:10226000754B5C5C0419246834F4C0042243595C47
:102270004018026010BC704730B46F4C655C451963
:10228000615C40184069C008C0001A4302436A619B
:1022900030BC7047684B595C4018C2607047664B51
:1022A000595C401882607047F8B505000C00644F17
:1022B000380000266348844219D16348854208D11A
:1022C0005FF40010FFF782FF5FF40010FFF783FF59
:1022D000ACE05E48854208D15FF48000FFF776FFEE
:1022E0005FF48000FFF777FFA0E001269EE0210069
:1022F0002800FFF776FF5448854201D1002C55D0C5
:1023000052498D4203D1002C01D1514F4EE08542FC
:1023100003D1012C01D14F4F48E08D4203D1012C54
:1023200001D14D4F42E0854203D1022C01D14B4FE8
:102330003CE08D4203D1022C01D1494F36E0854269
:1023400003D1032C01D1474F30E08D4203D1032C40
:1023500001D1454F2AE0854203D1042C01D1434FDE
:1023600024E08D4203D1042C01D1414F1EE085426F
:1023700003D1052C01D13F4F18E08D4203D1052C2C
:1023800001D13D4F12E0854203D1062C01D13B4FD4
:102390000CE08D4203D1062C01D1394F06E0854275
:1023A00003D1072C01D1374F00E0374F00203860B0
:1023B000002078600020B8600020F86000203861BC
:1023C00021207861002221002800FFF72EFF002C39
:1023D00002D13F20A86029E0012C03D14FF47460A2
:1023E000A86023E0022C03D15FF47C10A8601DE0FC
:1023F000032C03D15FF07460A86017E0042C02D1B5
:102400003F20E86012E0052C03D14FF47460E860CF
:102410000CE0062C03D15FF47C10E86006E0072C8A
:1024200003D15FF07460E86000E00126F6B230008E
:10243000F2BD000010380240E08700081F80FCFF5A
:10244000106002400000FFFF006002400064024094
:10245000106402402860024028640240406002404C
:10246000406402405860024058640240706002407C
:10247000706402408860024088640240A0600240AC
:10248000A0640240B8600240B864024070B5050024
:102490000E001400E06A0028A268E0680243206988
:1024A000024360690243A0690243E0690243A06AF3
:1024B000024331002800FFF79EFEE06A00280FD09B
:1024C000236BE26A31002800FFF7D6FE626B310011
:1024D0002800FFF7B7FEA26B31002800FFF7BFFE10
:1024E000626831002800FFF7D5FE2268310028001D
:1024F000FFF7D5FE226A31002800FFF789FE626AE5
:1025000031002800FFF791FE002070BD80B5C9B2F0
:1025100000F0DCFD02BD8268521C8260426832B16C
:102520000268531C036011704168491E4160704786
:1025300081B0DFF860130A6802430A600968084046
:102540000090009801B07047DFF848130A6832EA3B
:10255000000008607047DFF840130A681043086005
:102560007047DFF834130A6832EA000008607047E9
:1025700081B0DFF828130A6802430A60096808403E
:102580000090009801B07047006970478161704702
:1025900009048161704780B5DFF80423904221D19E
:1025A0000800C0B2002804D10120FFF7CDFF0020B1
:1025B00045E10800C0B2012803D10120FFF7B8FFB0
:1025C000F5E70800C0B2022803D10120FFF7C3FFDE
:1025D000EDE7C9B2032903D10120FFF7C2FFE6E707
:1025E00001202CE1AF4A904221D10800C0B200285E
:1025F00004D10220FFF7A8FF002020E10800C0B2AC
:10260000012803D10220FFF793FFF5E70800C0B2CD
:10261000022803D10220FFF79EFFEDE7C9B203298C
:1026200003D10220FFF79DFFE6E7012007E19E4A64
:10263000904221D10800C0B2002804D10420FFF745
:1026400083FF0020FBE00800C0B2012803D1042072
:10265000FFF76EFFF5E70800C0B2022803D104209F
:10266000FFF779FFEDE7C9B2032903D10420FFF793
:1026700078FFE6E70120E2E08C4A904221D1080091
:10268000C0B2002804D10820FFF75EFF0020D6E08A
:102690000800C0B2012803D10820FFF749FFF5E781
:1026A0000800C0B2022803D10820FFF754FFEDE76D
:1026B000C9B2032903D10820FFF753FFE6E7012041
:1026C000BDE07B4A904221D10800C0B2002804D16D
:1026D0001020FFF739FF0020B1E00800C0B2012848
:1026E00003D11020FFF724FFF5E70800C0B202284D
:1026F00003D11020FFF72FFFEDE7C9B2032903D163
:102700001020FFF72EFFE6E7012098E0694A90428B
:1027100021D10800C0B2002804D12020FFF714FF07
:1027200000208CE00800C0B2012803D12020FFF770
:10273000FFFEF5E70800C0B2022803D12020FFF712
:102740000AFFEDE7C9B2032903D12020FFF709FFF3
:10275000E6E7012073E0584A904221D10800C0B258
:10276000002804D14020FFF7EFFE002067E00800BA
:10277000C0B2012803D14020FFF7DAFEF5E70800D8
:10278000C0B2022803D14020FFF7E5FEEDE7C9B251
:10279000032903D14020FFF7E4FEE6E701204EE0E5
:1027A000464A904221D10800C0B2002804D18020BE
:1027B000FFF7CAFE002042E00800C0B2012803D1A2
:1027C0008020FFF7B5FEF5E70800C0B2022803D16C
:1027D0008020FFF7C0FEEDE7C9B2032903D18020B6
:1027E000FFF7BFFEE6E7012029E0354A904225D1F8
:1027F0000800C0B2002805D14FF48070FFF7A4FE96
:1028000000201CE00800C0B2012804D14FF4807001
:10281000FFF78EFEF4E70800C0B2022804D14FF49F
:102820008070FFF798FEEBE7C9B2032904D14FF49B
:102830008070FFF796FEE3E7012000E0022002BD72
:1028400080B501211648FFF7A6FE01211548FFF7C4
:10285000A2FE01211448FFF79EFE01211348FFF755
:102860009AFE01211248FFF796FE01211148FFF759
:1028700092FE01211048FFF78EFE01210F48FFF75D
:102880008AFE01210E48FFF786FE4FF48040FFF7D5
:102890006FFE01BD3038024010380240443802401B
:1028A000000002400004024000080240000C024008
:1028B000001002400014024000180240001C0240B8
:1028C0000020024080B500220A00012A25D0022AF9
:1028D00023D0042A21D0082A1FD0102A1DD0202A54
:1028E0001BD0402A19D0802A17D0B2F5807F14D08F
:1028F000B2F5007F11D0B2F5806F0ED0B2F5006F47
:102900000BD0B2F5805F08D0B2F5005F05D0B2F50C
:10291000804F02D0B2F5004F01D1002200E0012229
:10292000D2B2002A02D1FFF731FE01E000F039F9FE
:1029300001BD80B500220A00012A25D0022A23D039
:10294000042A21D0082A1FD0102A1DD0202A1BD0EB
:10295000402A19D0802A17D0B2F5807F14D0B2F562
:10296000007F11D0B2F5806F0ED0B2F5006F0BD0A2
:10297000B2F5805F08D0B2F5005F05D0B2F5804FA8
:1029800002D0B2F5004F01D1002200E00122D2B204
:10299000002A02D1FFF7FCFD01E000F01AF901BDA9
:1029A00010B50C0000212100012925D0022923D0D7
:1029B000042921D008291FD010291DD020291BD07F
:1029C000402919D0802917D0B1F5807F14D0B1F5F6
:1029D000007F11D0B1F5806F0ED0B1F5006F0BD034
:1029E000B1F5805F08D0B1F5005F05D0B1F5804F3B
:1029F00002D0B1F5004F01D1002100E00121C9B2A0
:102A0000002907D1FFF7C0FD204201D0012404E0D6
:102A1000002402E0FFF7B8FD0440200010BDF8B527
:102A200004000D00002000200020002700F05BFBC8
:102A3000060061682068FFF7B3FF2900C9B2884229
:102A400008D000F050FBB04205D25FF0FF31891B87
:102A5000401801E003E0801B6528EAD30127380015
:102A6000C0B2F2BD80B500F04EFB01BD80B500F0F4
:102A70004EFB02BD80B500F04EFB02BD80B500F0FC
:102A80004EFB02BD80B5C0B200F04DFB02BD80B56B
:102A900000F04EFB02BD80B500F04EFB02BD2E00E3
:102AA00008B584B00023039300290EBF0193019061
:102AB000491E0291009301A904AB074878441830DD
:102AC00000F03EFB019909B100220A70002858BFAE
:102AD000039805B000BD00BF3FFAFFFF0068400942
:102AE00010F0010070470068C00A10F00100704744
:102AF0000068400D10F0010070470068C00E10F033
:102B0000010070474068400910F0010070474068BC
:102B1000C00A10F0010070474068400D10F001003D
:102B200070474068C00E10F001007047164A515CB3
:102B300040180068000910F001007047816170477B
:102B4000090481617047000072B67047FEE700001B
:102B500070B50400202100220C4D2E003000FEF73D
:102B6000FFFF2068286060686860A068A860E0686F
:102B7000E8602069286160696861A069A861E0690E
:102B8000E86101BE70BD0000D8870008E43700206E
:102B90001EF0040F0CBFEFF30880EFF30980D7E7B6
:102BA000704770B504000D000020002095FAA5F0D4
:102BB000B0FA80F608E00121B1402940002902D096
:102BC0002000FFF7BBFF761C2800F0400028F2D160
:102BD00070BD70B504000D000020002095FAA5F02E
:102BE000B0FA80F608E00121B1402940002902D066
:102BF0002000FFF7A5FF761C2800F0400028F2D146
:102C000070BD00290BD0022910D00BD3042915D098
:102C100010D3062919D014D307291AD01DE03D215D
:102C200081601AE04FF47461816016E05FF4741102
:102C3000816012E05FF0746181600EE03D21C1604F
:102C40000BE04FF47461C16007E05FF47411C16080
:102C500003E05FF07461C160FFE7704770B5040086
:102C60000D000026002D0BD0022D23D015D3042DEE
:102C70003AD02CD3062D51D043D3072D5BD067E03B
:102C80002000FFF72BFF002806D029002000FFF7C7
:102C90004DFF002800D001265AE02000FFF723FF57
:102CA000002806D029002000FFF740FF002800D0B0
:102CB00001264DE02000FFF71BFF002806D0290069
:102CC0002000FFF733FF002800D0012640E020005D
:102CD000FFF713FF002806D029002000FFF726FF8A
:102CE000002800D0012633E02000FFF70BFF00286A
:102CF00006D029002000FFF719FF002800D0012688
:102D000026E02000FFF703FF002806D0290020005E
:102D1000FFF70CFF002800D0012619E02000FFF784
:102D2000FBFE002806D029002000FFF7FFFE002848
:102D300000D001260CE02000FFF7F3FE002806D0AB
:102D400029002000FFF7F2FE002800D00126FFE74F
:102D50003000C0B270BD4300BBBBE1B1B2F5803FF3
:102D600080F07E80022A1ED98C46B1FBF2F102FB74
:102D700011C31B0443EA1043B3FBF2FC02FB1C33F8
:102D800080B240EA0343B3FBF2F002FB103240EAA8
:102D90000C4000237047022A05D98446B0FBF2F0AC
:102DA00002FB10C270474AB105D100F00102490888
:102DB0005FEA3000704700220023704701F024BA18
:102DC0000B000200002100207047904271EB030CC1
:102DD000F6D3B3F5803F2FD2F0B5B3FA83F7B1FA4B
:102DE00081F4A7F10F0E3D1B5340CEF1200602FAED
:102DF0000EF2F3415340B5F10F0746D80F3C2C4477
:102E00004140C4F12006A040F1414140B1FBF3F63E
:102E100003FB1611A2FB0645001BA94102D2761E38
:102E20008018594180EA010221FA0EF362FA0EF28B
:102E300000215A403046F0BD30B4B1FBF3FC03FB37
:102E40001C11A2FB0C45001BA94103D2ACF1010CE3
:102E50008018594130BC02460B466046002170473D
:102E6000B2F1807F65D3F0B5B2FA82F7B1FA81F49E
:102E7000C7F10F063D1B22FA06F307F1110EF241CE
:102E800020355A40B5F10F07B8D94140C4F12006AA
:102E9000A040F1414140B1FBF3FC03FB1C11A2FB3C
:102EA0000C45001BA94103D2BCF1010C801859410B
:102EB0000F2F12D30F3FC90341EA5041B1FBF3F684
:102EC00003FB1611A2FB0645D4EBC030A94102D288
:102ED000761E8018594146EACC3C07B34140C7F101
:102EE0002006B840F1414140B1FBF3F603FB161157
:102EF000A2FB0645001BA94102D2761E801859414B
:102F000080EA010221FA0EF3C7F1200462FA0EF200
:102F10000CFA07F05A402CFA04F13043F0BD80EA75
:102F2000010221FA0EF3002162FA0EF260465A40C5
:102F3000F0BD8C46B1FBF2F102FB11C31B0243EA68
:102F40001063B3FBF2FC02FB1C331B024CEA0020B3
:102F500043EA1063B3FBF2FC02FB1C331B024CEA96
:102F6000002043EA1063B3FBF2FC02FB1C331B029C
:102F70004CEA002043EA1063B3FBF2FC02FB1C3274
:102F80004CEA0020002370474A48006810F00C000B
:102F900070474848006810F0F000704745480068E6
:102FA00010F4E05070474348006810F460407047E8
:102FB0004148006810F4800070473F480068C0F343
:102FC000881070473C48006810F4403070473A4819
:102FD000006810F03F00704710B5040000F00EF8D4
:102FE0002060206800F01FF86060606800F026F83C
:102FF000A060606800F02CF8E06010BD80B5002093
:10300000FFF7C2FF002804D0042804D0082804D009
:1030100007E02A4806E02A4804E0082000F022F8E9
:1030200000E0264802BD10B50400FFF7B2FF2549B5
:10303000C0F30310085CC440200010BD10B50400AC
:10304000FFF7ACFF2049800A085CC440200010BD97
:1030500010B50400FFF7A7FF1B49400B085CC440F4
:10306000200010BD70B50400002000200026FFF7EE
:103070009FFF002803D0B0F5800F02D003E00F4D72
:1030800002E00F4D00E00D4D082C10D1FFF79FFF1F
:103090000400FFF792FF0600B5FBF4F006FB00F614
:1030A000FFF790FF000C401C4000B6FBF0F630002C
:1030B00070BD000008380240043802400024F400CB
:1030C00000127A007C870008E887000880B5C9B242
:1030D00001F0B2F802BD80B501F00CF902BD80B577
:1030E00001F00CF902BD80B501F00CF902BD80B50C
:1030F00001F00CF902BD80B501F00CF902BD80B5FC
:1031000001F00CF902BD80B501F020F901BD80B5D8
:1031100001F02FF902BD80B501F047F902BD80B57D
:1031200001F047F902BD80B5C0B201F059F902BD06
:1031300080B501F07FF902BD80B501F08FF902BDC5
:103140002DE9F14FB2B09946924600230691CDE9A0
:1031500000333C9A0F930DF14A0114914A7011E02B
:10316000329E57462C4617F8011B0698B047002898
:10317000069000F026810F98401C641E0F90F2D13B
:103180003296AA449AF80000252808D1002100228E
:1031900009910A920B910C920D910E920FE06A46E2
:1031A0004FF0FF31504601F097F9050002D10F981A
:1031B00000F066BED4D50125E3E741F001011AF81D
:1031C000010F2028F9D023280CD02B2804D02D283B
:1031D00005D0302809D00BE041F00201EFE741F0C3
:1031E0000401ECE741F00801E9E741F01001E6E7EE
:1031F0002A280FD1D9F8002052F8040BC9F8002072
:103200000028119003D54042119041F004010AF1C9
:10321000010A14E01192DFF8EC3B0AE011989842A1
:1032200005DA00EB800402EB4402303A11920AF115
:10323000010A9AF80020A2F130000A28EED39AF889
:1032400000002E2803D04FF0FF32109229E01AF828
:10325000010F2A2809D1D9F8000050F8042BC9F829
:10326000000010920AF1010A1BE02D280CBF0AF1A0
:10327000010A002000221092DFF8882B0BE040B9F1
:10328000109B934205DA03EB830504EB4504303CC5
:1032900010940AF1010A9AF80040A4F130030A2BB5
:1032A000EDD3ADF848100FF660309AF8001001F039
:1032B0001DF908B11AF8010B8DF84A009DF84A0073
:1032C000682805D19AF8000068280CD1622106E030
:1032D0006C2804BF9AF800006C2804D171218DF885
:1032E0004A100AF1010A1FA808901AF801BBBBF1A5
:1032F00025012DD01C3900F06181091F022940F2FF
:103300005D810E392AD0491F00F0B384093900F0DD
:103310005581891E00F04985491E00F0F584491E3B
:10332000022940F24B81091F00F0EE84491F00F092
:10333000BA80491E00F09D84491E65D0C91E21D067
:10334000891E00F09684C91E00F0938400F04CBDE5
:1033500025238DF87C30012109912AE06C208DF81D
:103360004A00D9F8000050F8042BC9F80000002AE0
:1033700043D11499487800283DD04FF0FF340FF620
:10338000902012E09DF84A006C28EAD0D9F800009D
:1033900050F8044BC9F800000794D4B91499487840
:1033A00098B14FF0FF340FF6842001F0ABF8201AEB
:1033B00007D132981FAA04A900F065FD00287FF507
:1033C000E1AE4FF0FF3000F05BBD0FF67C200790C0
:1033D000EFE7109D002D04D5204601F0B3F8044618
:1033E00007E02A46204601F0C9F8002814BF041B54
:1033F0002C460A94DDE70FF65422329804A900F017
:10340000C8FD0028D5D5DCE7D9F8001051F8040B29
:10341000C9F8001020F00004002121F0FF351FAB97
:10342000CDE904450793DDE9042308993C2413B949
:103430000AB9109898B102F00F053035641EEEB24B
:103440003A2EA8BF2735120942EA03721B090D550F
:1034500008BF002A03D007980D19A842EBD308191A
:103460000790C4F13C0210980A92824209DABDF832
:103470004810821A4FF6EF7001400C92ADF84810D8
:1034800097E7002895D59DF8480000F01400102813
:103490008FD1119B09990C985B1A1B1A9A1A002A52
:1034A00087DD0C9285E71499487820B14FF0FF34FE
:1034B0000FF69C1079E79DF84A00622862D06828D0
:1034C00019D06A2840D06C2806D071284DD07428B5
:1034D0002DD07A281ED064E0D9F8001051F8040BE2
:1034E000C9F8001020B94FF0FF340FF67C105CE7EC
:1034F0000F9901605DE7D9F8001051F8040BC9F885
:10350000001020B94FF0FF340FF65C104DE70F9913
:1035100001804EE7D9F8001051F8040BC9F80010EB
:103520000028E5D14FF0FF340FF63C103DE7D9F805
:10353000001051F8040BC9F800100028D8D14FF042
:10354000FF340FF6241030E7D9F8001051F8040BBF
:10355000C9F8001020B94FF0FF340FF60C1024E723
:103560000F9AD317C0E9002323E7D9F8001051F8C8
:10357000040BC9F800100028F2D14FF0FF340FF609
:10358000E80012E7D9F8001051F8040BC9F8001050
:1035900020B94FF0FF340FF6D00006E70F99017005
:1035A00007E7D9F8001051F8040BC9F800100028FB
:1035B0009ED14FF0FF340FF6B000F6E6D9F80020A8
:1035C000D21D22F00702C9F80020D2E9000108321A
:1035D000C9F80020CDE90401C80F02D009982D21B7
:1035E0000AE0BDF84800810702D509982B2103E0C5
:1035F000C00705D5099820211FAA1154401C099025
:10360000DDE9042309991FA8CDE92E2308444BF0D6
:1036100020016129079015AC0BD01099002902D523
:103620000621109105E001BF4BF02001672901221E
:103630001092DDE9042359004915491C10D11A03E1
:103640000ED0ABF1610503211A2D0A9102D20FF6BB
:10365000A43101E00FF6A031032200F0BBFFA8E681
:1036600059004915491C0AD11A0308D1ABF161056B
:1036700003211A2D0A9116D30FF68431ECE7DDE908
:103680000401CDE93001DDE9302323F00047B7F52F
:10369000801F22F000060DD20022002F08BF002E4E
:1036A000029203D116E00FF65431D5E702AA00F0DA
:1036B000E5FF0FE0DFF8EC0ADFF8EC1A00EB17503B
:1036C0000290DDE930234FF0FF301940DFF8DC7A5B
:1036D00010403943CDE904014BF0200061280DD1A1
:1036E000079830210170821CBBF1610F07920CBF5B
:1036F0007821582141700998801C0990DDE9040166
:1037000020F0000231F0004308BF002A02D1002659
:10371000002571E14BF02008B8F1610F40F0BE8048
:103720001098002847BF21210391401C0390039F5C
:10373000DDE92E017F1C00220023DDE9044500F0B5
:10374000D5FF02998DF8542038BF85F00045091F38
:10375000002F02910DF155065DDDDFF8541ACDE919
:10376000302140F2FF732E93204629460022002389
:1037700000F0D4FF4FD24800400D00F11C0215D0DC
:10378000002A13DD2E9B9A420ADBDDE9300121F08D
:10379000004205F000400243DDE93001114611E02E
:1037A0006FF31E5141EA025120460BE024F0000065
:1037B00035F0004108BF00280FBF29461C222946CA
:1037C00000F0C4FF04460D4601F05EF8FF1F002F15
:1037D000804609DD01F076F802460B462046294670
:1037E00001F082F804460D46F01D0721B8F1000FE4
:1037F0000CDD491E5EBF08F00F0200F8012D4FEAF4
:103800002818F3D502E0002200F8012D491EFAD550
:10381000C61D002FA8DC0DF15500361A039886420C
:10382000D8BF304600280DF1550430D4B04206DA36
:103830000DF155010A5C082AA8BF0F2100DA00210A
:10384000024615AB134400E0401E13F80159521E06
:103850008D42F9D00F2904D10DF155018B5C5B1C11
:103860008B54002A04D50299091D15AC401C029105
:10387000411E0CD46218ABF13A0613783033DDB236
:103880003A2DA8BFF318491E02F80139F5D5109951
:10389000002940F1AF80421E1092ABE00299DFF8A0
:1038A000142947F29750414391FBF2F2DDE92E458E
:1038B000029225F00045D2F1070204DD2046294698
:1038C00000F04CFC0BE052420020DFF8EC1800F056
:1038D00045FC02460B462046294601F077F804468F
:1038E000B8F1660F109806BF029F0A3706273F18E7
:1038F000142FC8BF142730208DF854000D46002027
:10390000DFF8B818CDE92E010DF15506002F33DD93
:103910002046294601F07EF901460A4606F10803D1
:1039200004200A26B2FBF6F606EB860EA2EB4E0248
:10393000303203F8012C0A22B6FBF2F202EB820EBF
:10394000A6EB4E063036401E03F8026DE9D1083F63
:10395000002F03F10806D9DD084601F06FF9024691
:103960000B462046294600F0BFFFDDE92E2301F07B
:1039700073F904460D46CBE70DF15500361A0DF1EB
:10398000550404E00298401E761E0290641C2078C4
:103990003028F7D0B8F1660F02D10299491C04E033
:1039A000B8F1650F0CBF012100211098081886425C
:1039B000B8BF701E00281DD4B04204DA215C34293F
:1039C000C8BF392100DC30210246631E9D1800E08B
:1039D000401E15F80169521E8E42F9D0392902D1D4
:1039E000A15C491CA154002A04D50299491C1C461B
:1039F000401C02910646029D00F072FD406A077865
:103A0000DDF8408030B2002802DC01260FF2F474A9
:103A10004BF02000662808BF6D1C16D0672846D1E1
:103A200028B210F1040F48DB404546DA9DF8480003
:103A30006D1C010703D430B24045B8BF804628B2A0
:103A4000B8EB000848BF4FF000080FFA85FB079855
:103A50000A99BBF1000F00F3B2804A1C0A9230238E
:103A60004354B8F1000F03DC9DF84800010704D56A
:103A70000A98411C0A9107990F5418EB0B0FB8BF15
:103A8000C8F100052DB268420D90A84432B29045AD
:103A9000B8BF4646079B0A9836B20B963246214677
:103AA000184400F097FDA8EB06000E90CBE0BBF1A8
:103AB000610F17D14FF0700B19E030B2404504DAB6
:103AC0009DF848100A0758BF8046B8F1010848BF62
:103AD0004FF00008BBF1670F14BF4FF0450B4FF0DC
:103AE000650B04E0BBF1410F08BF4FF0500B0A9883
:103AF000411C0A91B8F1000F079914F8012B0A54E0
:103B000003DC9DF8480001071AD50A98411C0A9168
:103B1000B8F1000F07990F5412DD761E30B28045C0
:103B200007980A9BB8BF464632B22146184400F0B7
:103B300051FD0A9936B271180A91A8EB06000D9052
:103B400007980A9908442AB2002A80F800B003D4E2
:103B50002B224270811C04E02D2141701546811CEE
:103B60006D4200202EAA0A2409E02B4693FBF4F5AF
:103B700005EB8506A3EB460302F8013B401C2DB282
:103B8000002DF2DC012806DC4BF02002652A04BF80
:103B9000302201F8012B00282EAA08D1302001F88C
:103BA000010B06E0401E135C303301F8013B002896
:103BB000F8DC079A0A981044091A0B9143E008446C
:103BC00031B22AB2914219DA32B2214600F002FD36
:103BD0000A9936B27118ABEB0606B8F1000F0A91DC
:103BE0000D9603DC9DF84800020704D5079847545A
:103BF0000B99491C0B91CDF8388024E0214600F048
:103C0000E9FC0A98761B5844B8F1000F0A9003DCCF
:103C10009DF848100A0703D5411C0A9107990F54D3
:103C200030B2804507980A9BB8BF464632B204EBD3
:103C30000B01184400F0CEFC0A9836B230180A90F6
:103C4000A8EB06000D909DF8480000F01400102825
:103C50007FF4AFAB099A0A990D988A180B998218CC
:103C60000E988A18821811988242BFF6A2AB821A67
:103C700017E49DF84A00622808D068280ED06A2808
:103C800014D06C281FD0712810D01CE0D9F8001077
:103C900051F8040BC9F80010C0B21AE0D9F80010AE
:103CA00051F8040BC9F8001080B212E0D9F80020D6
:103CB000D21D22F00702C9F80020D2E90001083223
:103CC000C9F8002006E0D9F8001051F8040BC9F833
:103CD00000100021CDE904019DF8480001075AD5E4
:103CE000DDE90423002B08BF002A54D04BF020004C
:103CF000782850D109981FA930220A54401C431C2F
:103D0000099301F800B046E09DF84A00622808D007
:103D100068280ED06A2814D06C281FD0712810D0C3
:103D20001CE0D9F8001051F8040BC9F8001040B29B
:103D30001AE0D9F8001051F8040BC9F8001000B2CD
:103D400012E0D9F80020D21D22F00702C9F80020A5
:103D5000D2E900010832C9F8002006E0D9F80010C5
:103D600051F8040BC9F80010C117CDE9040100296E
:103D700002D509982D210AE0BDF84800810702D537
:103D800009982B2103E0C00705D5099820211FAA17
:103D90001154401C09901FA809990144079104A8D7
:103DA000594600F056F9FFF704BB9DF84A006C280D
:103DB0000BD001210991D9F8000050F8041BC9F873
:103DC00000008DF87C10FFF7F4BAD9F8000050F825
:103DD000041BC9F8000015914FF0FF32109200212A
:103DE000169115AAFFF709BB25210122BBF1000F8F
:103DF0008DF87C1009923FF4DCAA8DF87DB0022189
:103E0000FFF7AABACBCCCC0C686A6C747A4C000071
:103E10007072696E74665F733A2062616420256C0B
:103E20007320617267756D656E7400007072696EE3
:103E300074665F733A206261642025732061726743
:103E4000756D656E74000000000000000000000049
:103E50007072696E74665F733A20256E20646973B0
:103E6000616C6C6F776564007072696E74663A207D
:103E700062616420256E20617267756D656E7400E5
:103E800033B0BDE8F08F2DE9FC410F460646904661
:103E90007A6B7869396ABC6A121AB869521A796AF7
:103EA000121AF869521A121A97F83800141B4107AF
:103EB0000FD42020002C8DF800000ADD25460123B8
:103EC0006A463946304600F07DF900285DD16D1E06
:103ED000F5D17B6942463946304600F073F9002837
:103EE00053D130208DF800003D6A002D09DD0123FB
:103EF0006A463946304600F065F9002845D16D1E06
:103F0000F5D1BB69FA683946304600F05BF9002804
:103F10003BD130208DF800007D6A002D08DD0123A3
:103F20006A463946304600F04DF970BB6D1EF6D139
:103F3000F868B969FB6942183946304600F042F921
:103F400018BB30208DF80000BD6A002D08DD01236C
:103F50006A463946304600F035F9B0B96D1EF6D1E3
:103F600097F8380041070DD52020002C8DF800006F
:103F700008DD01236A463946304600F023F920B9AE
:103F8000641EF6D10020BDE8F6814FF0FF30BDE899
:103F9000F6812DE9F8470D46A3B02F6B002F82461E
:103FA000904648BF6FF0004700F027FF696B40184C
:103FB00001AA0021C2E90011812828BF4FF0FF307B
:103FC00044D289461EE0A74230DB68692018812868
:103FD0000BD30021696303AA29465046FFF753FF1C
:103FE0005FEA000922D40020686103AB6E692246B3
:103FF0006946981900F0EEFAA6196E6158F8040B9C
:10400000A0B13F1B002F11DDD8F8001001AA6846AF
:1040100000F064FA0446002C05D4D8F8000000280B
:10402000D1D1641ECFD54FF0FF390EE0B9F1000FAA
:10403000504604D103AA2946FFF725FF8146B9F16E
:10404000000F02D1002068616863484624B0BDE8D3
:10405000F0872DE9FC4307466F293E6908BF082415
:1040600005D041F02000782814BF0A2410243C25F4
:10407000D7E90023642918BF69299046994605D1DC
:10408000002B03D5D8F1000869EB4909B9F1000FFD
:1040900008BFB8F1000F0CD1386B50B9082C39D1DA
:1040A00097F83800010735D530203B2586F83B00CE
:1040B00030E08DF80010404649462246E317FEF7EF
:1040C0004BFE3032D0B26D1E3A28019504DB9DF8CC
:1040D0000000A0F151018A18725540464946224617
:1040E000E317FEF739FE80465FEA010908BFB8F121
:1040F000000F03D0F86871198842DCD3082C09D16D
:1041000097F83800010705D5705D302802D06D1E84
:1041100030207055C5F13C02BA617119F960386BF5
:10412000824208DA821A3A624FF6EF70398F014004
:104130003987BDE8F38300280ED597F8380000F0E2
:104140001400102808D17B6B7969386A5B1A1B1A36
:104150009A1A002AC8BF3A62BDE8F3832DE9D0431A
:1041600006460F4614464FF00008DFF8549012E060
:10417000E00707D542464B463046394600F06CFD15
:1041800006460F464046494642464B4600F064FD0F
:10419000641080468946002CEAD130463946BDE895
:1041A000D083000002FCFFFFFFFF0F800000E03F14
:1041B0000000F07FA08601000000F03F84D7974107
:1041C00000002440F8B505460E4617461C46002060
:1041D0005CB117F8011BB068A847B06030B1F06A55
:1041E000401CF0620020641EF3D1F2BD4FF0FF309E
:1041F000F2BD00006E616E004E414E00696E6600B9
:10420000494E4600300000007047000081B035493B
:104210000A6802430A60096808400090009801B0EB
:10422000704731490A681043086070472E490A6890
:1042300032EA00000860704780B52C4A904225D1D0
:104240000800C0B2002805D15FF40010FFF7DEFFC0
:10425000002045E00800C0B2012804D15FF400103E
:10426000FFF7D4FFF4E70800C0B2022804D15FF4DE
:104270000010FFF7D6FFEBE7C9B2032904D15FF4C2
:104280000010FFF7D3FFE3E7012029E0184A90422E
:1042900025D10800C0B2002805D15FF48000FFF7E7
:1042A000B5FF00201CE00800C0B2012804D15FF473
:1042B0008000FFF7ABFFF4E70800C0B2022804D18A
:1042C0005FF48000FFF7ADFFEBE7C9B2032904D12B
:1042D0005FF48000FFF7AAFFE3E7012000E002207F
:1042E00002BD000030380240103802400060024039
:1042F0000064024080B500F00AFE02BD80B500F007
:10430000D5FE02BD80B500F0F9FE02BD80B500F01B
:10431000F9FE02BD80B500F012FF02BD80B500F0CD
:1043200033FF02BD81B03D490A6802430A60096853
:1043300008400090009801B07047816851F0010179
:1043400081607047016070470068704780B500F079
:1043500008F84FF48050FFF7E5FF0020304908705F
:1043600001BD80B52F4800F054FF01202C49087092
:1043700001BD2B480078704780B52A48FFF7DDFF64
:1043800001BD70B504000D0000200020FFF7F4FF10
:10439000002604E0A15D2348FFF7D4FF761CAE425F
:1043A000F8D32048FFF7D0FF70BD80B5FFF7E9FFD5
:1043B00002BD30B402000020002300250BE0040001
:1043C000A4B2240A535D5C40174BE4B233F81430B6
:1043D00093EA00206D1C8D42F1D380B230BC70474F
:1043E00070B4030000200024002504E002E00F4820
:1043F000E4B2005D6D1C95420CD24C5D44401E0041
:10440000F6B2072E02D0312EF1D0EFE70848E4B221
:10441000005DEFE7C0B270BC70470000303802406A
:10442000C400002000300240EC7E00086C840008CC
:104430006C83000810B4020000200020002402E079
:10444000135D1818641C8C42FAD34042C0B210BCF1
:10445000704700004AF6AA210160704780B5034802
:10446000FFF7F8FF002002BD000000000030004010
:104470001C48704770B45368D41801E05B1C491E97
:10448000042B08DA00291FBF057804F8015B10F837
:10449000016B002EF2D1536070BC704738B51446E2
:1044A0001D4661B1FFF7E6FF61686A6B20469047E1
:1044B0006FF00102811A02D0491E01D001E003E031
:1044C00005E00021616032BD6FF0010032BD4FF0A8
:1044D000FF3032BDDA6B1047024BDFE7014BF9E7E3
:1044E000014870470000002048000020C9B202784F
:1044F0008A421AB11CBF10F8012FF9E718BF00203B
:104500007047000080B500B906A005490B681BB1D3
:1045100022220021984701E000F092FE222002BDF5
:1045200030380020636F6E73747261696E74206836
:10453000616E646C65723A20626164206D657373AC
:104540006167650000F10103810704D010F8011BC9
:10455000820781B1FAD10268A2F10131914311F0D1
:10456000803104BF50F8042FF6E709BAB1FA81F19F
:1045700000EBD100401CC01A70470000C9B283078D
:1045800006D0521E22D310F8013B9942F7D11FE00A
:10459000083A13D302F1040241EA012141EA014140
:1045A00050F8043B121F21BF4B40A3F1013C2CEA01
:1045B000030C1CF0803FF3D0C9B2001F083210F882
:1045C000013B521E28BF91EA030FF8D818BF012003
:1045D000401E704762B38B0708D0521E11F8013B92
:1045E00000F8013B00F024808B07F6D1830740F0F0
:1045F000208000BF103A07D330B4B1E83810103A29
:10460000A0E83810F9D230BC530724BFB1E8081035
:10461000A0E8081044BF51F8043B40F8043BD2071F
:1046200024BF31F8022B20F8022B44BF0B78037013
:104630007047121F17D35B0009D151F8043B20F8D3
:10464000023B1B0C121F20F8023BF6D20BE051F884
:10465000043B00F8013B1B0A20F8023B1B0C121F15
:1046600000F8013BF3D238BF121D521E24BF11F8CF
:10467000013B00F8013BF8D87047000010B5144624
:1046800000F002F8226010BDC1F30A5343B14A00A2
:1046900012F5001F28D2A3F2FE32A1EB025170479F
:1046A00050EA410C20D001F0004C31EA0C01B1FA83
:1046B00081F204BFB0FA80F3D2180B3AB2F12003B2
:1046C0002CBF00FA03F1914041EA0C013EBFC2F158
:1046D000200C20FA0CF319439040524240F2FD3373
:1046E000D21A01EB03517047002270474FF4001CAF
:1046F0001CEB410F94BF1CEB430F09E041EA030C94
:1047000050EA4C0C52EA0C0C03D2994208BF90427A
:10471000704714BF8B428242704700004FF4001C68
:104720001CEB410F94BF1CEB430F09E041EA030C63
:1047300050EA4C0C52EA0C0C03D28B4208BF824266
:10474000704714BF9942904270470000124254D4FF
:1047500040F2FF7C1CEA11530FD0634531D09B1807
:1047600063453CBF01EB0251704701F0004141EA53
:104770000C510020AFF30080704750EA410320D075
:1047800001F0004C91EA0C011CD0B1FA81F30B3B13
:104790009A420DD9D21A994051EA0C01C3F1200C6A
:1047A00020FA0CFC61449840531C40F2FF7CD7E790
:1047B000914041EA0C01C2F1200C20FA0CF319439C
:1047C00090407047B0FA80F31533202BE0D3202AB5
:1047D000EED3203A203B9A4209D9D21A00FA03F1CB
:1047E00041EA0C010020531C40F2FF7CB8E700FABC
:1047F00002F141EA0C0100207047524240F2FF7C76
:104800001CEA11530DD06345DBD0B2EB030C3CBF67
:10481000A1EB025170470CF1010221EA035141F46E
:10482000801150EA410CCCD001F0004C352A27DC35
:1048300030B481EA0C01B2F1200309DAC2F120039D
:10484000044601FA03F5D0402843D1409C400CE0D7
:10485000C3F12002450020FA03F418BF44F001041C
:1048600021FA03F091400C43002174F1004550F10E
:10487000000051EB0C01244230BC7FF47BAF704749
:104880006146002076E70000C1F30A5340F2FE3291
:104890009B1A14DDD3F120034FEAE17208DDC9024F
:1048A00041EA505141F00040D840801850407047D4
:1048B00003F2E13010B1D24382F000407047002093
:1048C00070470000C11768B14840401AB0FA80F242
:1048D0009040D21CC907C2F5846241EA025202EB41
:1048E000D02140057047000070B44FF0004591EAB8
:1048F000030F40F1B1846B40841A71EB030603D2BD
:10490000001BB141121973414FF4001C1CEB410F05
:1049100034BF7CEB430442E00C0DA4EB1356352E60
:104920004FDC45EAC323DB0A45EAC121C912B6F1CF
:1049300020050DDD63FA05F6EB4086EA0305124219
:1049400018BF45F00105C01851F100010CD213E069
:1049500062FA06F5F2405540F3415A40B340F34045
:104960005A408018594107D349085FEA30005FEA8E
:10497000350528BF45F0010501F58011420875F1A4
:10498000004250F1000041EB04514E0016F5001FAB
:1049900070BC38BF70470020090D090570471CEB3B
:1049A000410F10D252EA43060BD0BCEB410F05D8A1
:1049B0000C0DAB43661E342EB6DD02E0AB4380180F
:1049C000594170BC704770BC70470000F0B540F2B0
:1049D000FF7581EA030C0CF0004C15EA11541DBF61
:1049E00015EA1357AC42AF42E5E0BC41C1F31301F5
:1049F000C3F31303801A994143F4801304D2641E55
:104A00004000494180185941C90241EA5051B1FB67
:104A1000F3F603FB1611A2FB0675D7EBC020A941E4
:104A200002D2761E80185941C90241EA5051B1FBA9
:104A3000F3FE03FB1E11A2FB0E75D7EBC020A941AC
:104A400003D2AEF1010E80185941890241EA90511A
:104A5000760546EA8E2EB1FBF3F603FB1611A2FB98
:104A60000675D7EB8020A94102D2761E80185941E5
:104A7000C90241EA50514EEA060EB1FBF3F603FBC0
:104A80001611A2FB0675D7EBC020A94102D2761EF3
:104A900080185941C90241EA5051B1FBF3F703FBB9
:104AA0001711A2FB0735D3EBC020A94167F100071E
:104AB0000CBF004247F0010766F3D5274FEA1E31CD
:104AC000B80814F5806412DDBD0775F1004250EBA3
:104AD0000E5051EB045111F5801F5CBF41EA0C01EF
:104AE000F0BD4CF07F6141F0E0410020F0BDBD071A
:104AF0006D0840EA0E5041F48011D4F10104B4F184
:104B000020060ADAC4F120060200E04001FA06F3AA
:104B1000E1401843B24015430EE0342C13DCC6F1DB
:104B2000200445EA40056D0820FA06F2154321FAF3
:104B300006F0A1400D43002175F1004250F1000044
:104B400051EB0C01F0BD00205FEA0C01F0BDCFB9C4
:104B500092185B41B3FA83F704BFB2FA82F6BF1929
:104B60000B3FB7F120062FBF02FA06F3BB40C7F197
:104B7000200622FA06F638BF3343BA401CB1E419C6
:104B8000641E33E77F4231F00041B1FA81F404BF83
:104B9000B0FA80F6A4190B3CB4F120062FBF00FA3E
:104BA00006F1A140C4F1200620FA06F638BF3143D1
:104BB000A0403C1B1AE7AC421ABF05EA1357AF42AC
:104BC00012E050EA41061CBF52EA4306BFE750EA32
:104BD0004107304661461CBF41EA0551F0BD52EA2B
:104BE000430C08BFC143F0BD00204FF4001616EB84
:104BF000410F98BF16EB430F08BF16EB410F24BFC0
:104C0000C14305E016EB430F0CBF61464CEA05516A
:104C1000F0BD0000400D491840EA81200CD2490D3A
:104C2000A1F58061491C40F0004005DBD1F11F0176
:104C300054BFC840C017704700207047014648B1B4
:104C4000B0FA80F18840C91CC1F58461090501EB07
:104C5000D021400570470000B0B581EA030C0CF08C
:104C6000004C40F2FF7515EA11541DBF15EA1357A9
:104C7000AC42AF4239E0E41923EA455343F48013D0
:104C8000C90241F0004141EA505EC7021100A7FB92
:104C9000020200284FF00000EEFB01204FF000015F
:104CA000E3FB072118BF42F00102401800214941EF
:104CB000E3FB0E01A4F580640F0302D252004041D1
:104CC000494154F101046CDD470872F1004250F192
:104CD000000051EB0451A1F580115CBF41EA0C01C9
:104CE000B0BD4CEA05510020B0BD05EA1357AC42F7
:104CF00014BFAF4241E050EA410E1CBF52EA430EDE
:104D000002E061460020B0BD24423C441BD15FEA72
:104D1000070EF6D0090302BF01460020AEF1140EC3
:104D2000B1FA81F7AEEB070401FA07FE0C37C7F1C1
:104D3000200100FA07F7C8404EEA000E23EA455367
:104D400043F48013A2E733F00043B3FA83F704BFC0
:104D5000B2FA82FE77440B3FE41BB7F1200E2FBF5F
:104D600002FA0EF3BB40C7F1200E22FA0EFE38BF46
:104D700043EA0E03BA40641C82E750EA410E14BFB6
:104D800052EA430E6FF000014FF4001717EB430F88
:104D90008ABF194617EB410FB5E74CEA05510020D1
:104DA000B0BDD4F10104B4F120070FDAC4F120073B
:104DB000520828BF42F0010210FA07F501FA07F77E
:104DC000E1BF2A43E0403843E1400FE0352C98DC56
:104DD000C7F1200452EA400220FA07F218BF42F05D
:104DE000010231FA07F0A1400A43002172F10042AA
:104DF00050F1000051EB0C01B0BD80B5FFF738FB5E
:104E0000006C02BD10F00700DFF8C0331A684FF6DF
:104E1000FF010A40DFF8B81351EA00210A431A6083
:104E20007047DFF8A8030068C0F302207047020053
:104E300052B2002A05D40901DFF8982340B2115478
:104E400008E00901DFF8902340B210F00F00104491
:104E500000F8041C704710B410F00700D0F10703ED
:104E6000052B01D3042301E0D0F10703041D072C17
:104E700001D2002000E0C01E012414FA03F35B1EDF
:104E80001940814014FA00F0401E1040084310BC45
:104E90007047B0FBF1F0401EDFF8401308600020BF
:104EA000DFF83C1308600520DFF83813086070470E
:104EB000DFF83003016831F0020101600020704723
:104EC000DFF82003016851F0020101600020704703
:104ED00000210021C1600021016100214161002108
:104EE0000FE000220B00DBB2C25400220B00DBB249
:104EF00003441A7100220B00DBB200EB83039A61BA
:104F0000491C0A00D2B2042AEBDB0020704780B5AE
:104F1000DFF8D4020068FFF7DBFFFFF7C9FF4FF4AB
:104F20007A71DFF8C8020068FFF7B3FF0320FFF7CC
:104F300069FFFFF776FF00220F21FFF78CFF0100CA
:104F40005FF0FF30FFF773FFFFF7BAFF0120DFF8D4
:104F5000A0120870DFF89C0200F002F8002002BDE9
:104F600030B40100012000220A00002A53D00022A0
:104F700006E018681400E4B2005D00281DD0521C41
:104F80001000C0B2042840DADFF85C321868140060
:104F9000E4B200EB840080690028EAD018681400AD
:104FA000E4B200EB840080690C00A042E1D1012052
:104FB00019681300DBB2C85427E0DFF82402006848
:104FC000652807D301201C681500EDB22C44207120
:104FD000C0B206E000201C681500EDB22C44207120
:104FE000C0B218681400E4B200EB840081610120B3
:104FF00019681400E4B208551868007AFF2804D034
:105000001868007A401C19680872D2B2042A01DAC2
:10501000002000E00220C0B230BC704710B5002074
:1050200000241CE008682100C9B200EB81008069FF
:10503000804713E008682200D2B2104400790228A9
:10504000F0DB00200A682300DBB21A441071086804
:105050002100C9B200EB810080698047641C2000F8
:10506000C0B2042821DA604908682200D2B2805C0C
:105070000028F3D008682200D2B200EB82008069D9
:105080000028EBD008682200D2B210440079012831
:10509000D0D108682200D2B210440079401C0968BF
:1050A0002200D2B211440871D8E710BD70B50400D7
:1050B0004B4805684D4800684F49B0FBF1F0B5FB1F
:1050C000F0F6022E06D3300000F039F8641E3500E9
:1050D000D5F57575444E3068046101E0FDF7DBFCE1
:1050E000306800690028F9D1A81E40F2E6318842F4
:1050F00002D2280000F023F8002070BD3A48006872
:10510000C068704710B5384C2068C068401C2168E2
:10511000C8602068C068002804D120684069401C2D
:1051200021684861FFF77AFF20680069002804D0F1
:1051300020680069401E21680861002010BD70B41D
:105140002A4909682C4AB1FBF2F101FB00F1244B1A
:105150001A6800240024214D2D6840F2E936B0423F
:105160000FD218688242FCD0904203D21219121A50
:10517000140003E02C19241A1219140002008C42A6
:10518000EFD3002070BC70471648006840070CD56C
:1051900012480068154909684FF47A72B1FBF2F1C0
:1051A000491E88420FD001200EE00C4800680F49CC
:1051B00009684FF47A72B1FBF2F1C908491E8842BE
:1051C00001D0012000E00020704700000CED00E05D
:1051D0000000FA0500E400E018ED00E014E000E053
:1051E00018E000E010E000E0B4000020B000002073
:1051F000C50000201D87000840420F000E490A68C4
:105200001043086070470C490A6832EA00000860E1
:10521000704710B500240949884208D14FF48050E6
:10522000FFF7ECFF4FF48050FFF7EDFF00E00124A3
:105230002000C0B210BD0000103802400030024013
:10524000012000F0BFB8000070B44FF0004591EAB3
:10525000030F7FF551AB6B40841A71EB030604D248
:105260006E40001BB141121973414FF4001C1CEB3E
:10527000410F34BF7CEB430683E00C0DA4EB1356C7
:10528000362E00F37C80012E45EAC32341DC43EA3D
:10529000525312BFD20292025B08240545EAC12193
:1052A00041EA5051D2EBC020994125D407D1B0FA40
:1052B00080F610FA06F162D00020203608E0B1FA3C
:1052C00081F6B140C6F1200220FA02F21143B0404B
:1052D0004FEAF474B4EB465434F001064FEA740418
:1052E0000AD8D6F50016760D04F00044F04061FAB5
:1052F00006F25040F1404840C00A40EA415021F0D7
:10530000004128BF5FEA500550F1000044EBD12175
:1053100035E0DB0A45EAC121C90AB6F120050EDDF8
:1053200042EA0242120CC5F1200603FA06F6EB40EF
:1053300042EA06056D42984161F100010DE062FA12
:1053400006F5F240554063FA06FC82EA0C02F3408F
:105350005A406D42904161EB030111F4801F05D169
:10536000641E620502D06D004041494121F4801164
:10537000430875F1004350F1000041EB045170BC4B
:1053800070471CEB410F15D223F0004352EA43064D
:105390000BD04FEA4C0CBCEB410F04D80C0D661E31
:1053A000342EB7DDEBE7801A994150EA410608BF79
:1053B0000021E4E708BF1CEB430F28BF6FF000019A
:1053C000DDE7000080B5AFF30080024A110018202D
:1053D000ABBEFBE72600020081B0DFF8E0170A68E9
:1053E00002430A60096808400090009801B07047C5
:1053F000DFF8C8170A6832EA000008607047DFF873
:10540000C0170A68104308607047DFF8B4170A68CD
:1054100032EA000008607047016851F00101016044
:105420007047C26832F0FE021143C1607047C26922
:10543000120B12031143C1617047C0690005000DD2
:1054400070474069C00910F001007047406980084A
:1054500010F0010070474069800910F001007047AA
:10546000406910F0010070474069400810F00100E9
:1054700070478069400810F00100704781B04169B1
:105480000091009980690090009801B07047016810
:1054900051F4004101607047016831F4004101603E
:1054A0007047026832F480621143016070470168FE
:1054B00051F4807101607047016851F4007101601E
:1054C00070470069C0B270470269120A1202C9B27D
:1054D000114301617047F8B586B004000D00160055
:1054E000182100226F463800FCF73AFB60680090F4
:1054F00001200190022002900120039001200490DD
:105500000020059069462068FCF7EBFB6168206885
:10551000FDF7D8F9E06800906946A068FCF7E1FB68
:10552000E168A068FDF7CEF92800002801D1DFF876
:10553000945625623000002801D1DFF88C66A662FF
:1055400000202074002007B0F0BD10B50400E16811
:10555000A068FDF7B7F961682068FDF7B3F9608AC4
:10556000002802D0608A216A8847E168A068FDF7B8
:10557000E0F9608A002802D0608A216A8847616861
:105580002068FDF7D6F9E168A068FDF709FA002860
:1055900001D0012000E00020C0B210BD10B5040011
:1055A000E168A068FDF7C5F961682068FDF78AF930
:1055B000608A002802D0608A216A8847E168A06872
:1055C000FDF780F9608A002802D0608A216A884746
:1055D000E168A068FDF7E4F9002801D1012000E0AE
:1055E0000020C0B210BD10B50400E168A068FDF74E
:1055F000A0F961682068FDF765F90121200000F03D
:10560000FDFA61682068FDF794F9002010BD10B51F
:105610000400E168A068FDF755F961682068FDF7AE
:1056200051F90121200000F0E9FA61682068FDF7D6
:1056300080F9002010BD38B504000020E168A068A2
:10564000FDF740F961682068FDF73CF90121200071
:1056500000F0D4FAE168A068FDF7A2F9002801D0B3
:10566000012500E0002561682068FDF762F9280047
:10567000C0B232BD80B5C9B2002902D0FFF7C7FF62
:1056800001E0FFF7B0FF02BD10B50400080604D525
:10569000E168A068FDF716F903E0E168A068FDF78E
:1056A00048F961682068FDF70DF9608A216A88472A
:1056B00061682068FDF73DF9608A216A884700200B
:1056C00010BD70B504000D00002061682068FDF772
:1056D00030F9002606E02900C9B22000FFF7D4FF08
:1056E0006D00761C3000C0B20828F4DB002070BDCD
:1056F00038B50400002061682068FDF7E3F8608A8F
:10570000216A8847E168A068FDF74AF9002801D0BE
:10571000012500E0002561682068FDF70AF9608A2C
:10572000216A88472800C0B232BD70B5040000204D
:105730000026E168A068FDF7C5F861682068FDF7FC
:10574000F8F8002505E076002000FFF7D1FF0643BA
:105750006D1C2800C0B20828F5DB3000C0B270BD57
:1057600080B5C26ADFF864349A4225D10800C0B21D
:10577000002805D15FF40010FFF73AFE002072E028
:105780000800C0B2012804D15FF40010FFF724FE26
:10579000F4E70800C0B2022804D15FF40010FFF75C
:1057A0002EFEEBE7C9B2032904D15FF40010FFF726
:1057B0002CFEE3E7012056E0C26ADFF814349A4277
:1057C00025D10800C0B2002805D15FF48000FFF7A2
:1057D0000FFE002047E00800C0B2012804D15FF4AA
:1057E0008000FFF7F9FDF4E70800C0B2022804D1F9
:1057F0005FF48000FFF703FEEBE7C9B2032904D191
:105800005FF48000FFF701FEE3E701202BE0C06AB0
:10581000DFF8C023904225D10800C0B2002805D18E
:105820005FF40000FFF7E4FD00201CE00800C0B2B8
:10583000012804D15FF40000FFF7CEFDF4E7080073
:10584000C0B2022804D15FF40000FFF7D8FDEBE7F7
:10585000C9B2032904D15FF40000FFF7D6FDE3E7E6
:10586000012000E0022002BDF8B58CB004000D005C
:1058700016001821002206AF3800FCF771F96068A5
:105880000690022007900220089001200990012034
:105890000A90606A0B9006A92068FCF722FA6168FA
:1058A0002068FDF70FF8E068069006A9A068FCF7ED
:1058B00018FAE168A068FDF705F801212000FFF75C
:1058C0004FFFE06A00F01CFAE06AFFF7E0FDE06AD3
:1058D000FFF7E2FD182100226F463800FCF740F97F
:1058E00000200090A0690190002002900020039009
:1058F0004FF4806004904FF4804005906946E06A60
:1059000000F038FAE06AFFF798FDE0610021E06AF4
:10591000FFF787FDE06AFFF77FFD2800002800D130
:10592000A84D25623000002800D1A74EA6620120B4
:105930002074E06A00682063E06A40686063E06A9F
:105940008068A063E06AC068E063E06AC069E06400
:10595000E06A006A206500200DB0F0BD2DE9F84333
:1059600004000D00160000275FF000080020002052
:10597000A06A002803D0A06A8047814601E05FF05A
:105980000009E06AA8473100C9B2884211D0A06A74
:10599000002812D0A06A80478046C8450AD25FF02E
:1059A000FF30B0EB090018EB00001F280BD30127D4
:1059B00009E00FE0B8EB0900F7E718F101088648A5
:1059C000804500D302273800C0B20028D9D0E06A51
:1059D000FFF772FD3800C0B2BDE8F28310B50400D5
:1059E00000227E492000FFF7B9FF0100C9B200295B
:1059F00007D1E06AFFF75BFD012279492000FFF73C
:105A0000ADFFC0B210BD80B5C06AFFF755FD0020E4
:105A100002BD38B504000020C9B2012903D1217D9F
:105A200011F0FE0102E0A18A51F00101C9B2E06A61
:105A3000FFF74AFD01226B492000FFF78FFF0500A9
:105A4000E06AFFF71BFD2800C0B232BD10B50400AC
:105A5000E06AFFF7F2FCE169814203D0E169E06AA4
:105A6000FFF7E5FC002010BD80B5C9B2002904D0C5
:105A70000021C06AFFF715FD04E04FF48061C06AA1
:105A8000FFF70FFD002002BD70B586B004000022B4
:105A900052492000FFF762FF05002800C0B200282D
:105AA00050D001250020182100226E463000FCF75E
:105AB00057F86068009001200190022002900120B8
:105AC0000390012004900020059069462068FCF7AF
:105AD00008F900260EE061682068FCF7F3FE32202A
